{"abi":[{"type":"function","name":"FAILURE_CONTRACT_PAUSED","inputs":[],"outputs":[{"name":"","type":"uint8","internalType":"uint8"}],"stateMutability":"view"},{"type":"function","name":"FAILURE_CONTRACT_PAUSED_MESSAGE","inputs":[],"outputs":[{"name":"","type":"string","internalType":"string"}],"stateMutability":"view"},{"type":"function","name":"FAILURE_NON_WHITELIST","inputs":[],"outputs":[{"name":"","type":"uint8","internalType":"uint8"}],"stateMutability":"view"},{"type":"function","name":"FAILURE_NON_WHITELIST_MESSAGE","inputs":[],"outputs":[{"name":"","type":"string","internalType":"string"}],"stateMutability":"view"},{"type":"function","name":"FAILURE_TIMELOCK","inputs":[],"outputs":[{"name":"","type":"uint8","internalType":"uint8"}],"stateMutability":"view"},{"type":"function","name":"FAILURE_TIMELOCK_MESSAGE","inputs":[],"outputs":[{"name":"","type":"string","internalType":"string"}],"stateMutability":"view"},{"type":"function","name":"NO_USER_TYPE","inputs":[],"outputs":[{"name":"","type":"uint8","internalType":"uint8"}],"stateMutability":"view"},{"type":"function","name":"NO_USER_TYPE_ASSIGNED","inputs":[],"outputs":[{"name":"","type":"string","internalType":"string"}],"stateMutability":"view"},{"type":"function","name":"SUCCESS_CODE","inputs":[],"outputs":[{"name":"","type":"uint8","internalType":"uint8"}],"stateMutability":"view"},{"type":"function","name":"SUCCESS_MESSAGE","inputs":[],"outputs":[{"name":"","type":"string","internalType":"string"}],"stateMutability":"view"},{"type":"function","name":"UNKNOWN_ERROR","inputs":[],"outputs":[{"name":"","type":"string","internalType":"string"}],"stateMutability":"view"}],"bytecode":{"object":"0x608060405234801561001057600080fd5b5061034b806100206000396000f3fe608060405234801561001057600080fd5b50600436106100a95760003560e01c8063777eb99f11610071578063777eb99f146100fa57806386a299fb1461010257806394d1ae221461010a57806397af674414610112578063c893446214610143578063e7984d171461014b57600080fd5b80630e969a05146100ae578063191035ab146100cd5780631fb45ec0146100e25780632ddabee8146100ea578063490e359c146100f2575b600080fd5b6100b6600081565b60405160ff90911681526020015b60405180910390f35b6100d5610171565b6040516100c491906101e1565b6100b6600281565b6100b6600381565b6100d561018d565b6100d56101a9565b6100b6600481565b6100b6600181565b6100d560405180604001604052806012815260200171556e6b6e6f776e204572726f7220436f646560701b81525081565b6100d56101c5565b6100d5604051806040016040528060078152602001665355434345535360c81b81525081565b6040518060600160405280603581526020016102e16035913981565b6040518060600160405280603881526020016102306038913981565b6040518060600160405280603d8152602001610268603d913981565b6040518060600160405280603c81526020016102a5603c913981565b600060208083528351808285015260005b8181101561020e578581018301518582016040015282016101f2565b506000604082860101526040601f19601f830116850101925050509291505056fe546865207472616e736665722077617320726573747269637465642064756520746f206e6f207573657220747970652061737369676e6564546865207472616e736665722077617320726573747269637465642064756520746f2074686520636f6e7472616374206265696e67207061757365642e546865207472616e736665722077617320726573747269637465642064756520746f207768697465206c69737420636f6e66696775726174696f6e2e546865207472616e736665722077617320726573747269637465642064756520746f2074696d656c6f636b656420746f6b656e732ea26469706673582212208622329a9fc70a230137c9e01b3a7afca6495895ed461ecdfb0fd02c074fba7a64736f6c63430008140033","linkReferences":{}},"methodIdentifiers":{"FAILURE_CONTRACT_PAUSED()":"86a299fb","FAILURE_CONTRACT_PAUSED_MESSAGE()":"777eb99f","FAILURE_NON_WHITELIST()":"1fb45ec0","FAILURE_NON_WHITELIST_MESSAGE()":"c8934462","FAILURE_TIMELOCK()":"2ddabee8","FAILURE_TIMELOCK_MESSAGE()":"191035ab","NO_USER_TYPE()":"94d1ae22","NO_USER_TYPE_ASSIGNED()":"490e359c","SUCCESS_CODE()":"0e969a05","SUCCESS_MESSAGE()":"e7984d17","UNKNOWN_ERROR()":"97af6744"},"id":25}