{"abi":[{"type":"constructor","inputs":[{"name":"_validators","type":"address","internalType":"address"}],"stateMutability":"nonpayable"},{"type":"function","name":"FAILURE_CONTRACT_PAUSED","inputs":[],"outputs":[{"name":"","type":"uint8","internalType":"uint8"}],"stateMutability":"view"},{"type":"function","name":"FAILURE_CONTRACT_PAUSED_MESSAGE","inputs":[],"outputs":[{"name":"","type":"string","internalType":"string"}],"stateMutability":"view"},{"type":"function","name":"FAILURE_NON_WHITELIST","inputs":[],"outputs":[{"name":"","type":"uint8","internalType":"uint8"}],"stateMutability":"view"},{"type":"function","name":"FAILURE_NON_WHITELIST_MESSAGE","inputs":[],"outputs":[{"name":"","type":"string","internalType":"string"}],"stateMutability":"view"},{"type":"function","name":"FAILURE_TIMELOCK","inputs":[],"outputs":[{"name":"","type":"uint8","internalType":"uint8"}],"stateMutability":"view"},{"type":"function","name":"FAILURE_TIMELOCK_MESSAGE","inputs":[],"outputs":[{"name":"","type":"string","internalType":"string"}],"stateMutability":"view"},{"type":"function","name":"NO_USER_TYPE","inputs":[],"outputs":[{"name":"","type":"uint8","internalType":"uint8"}],"stateMutability":"view"},{"type":"function","name":"NO_USER_TYPE_ASSIGNED","inputs":[],"outputs":[{"name":"","type":"string","internalType":"string"}],"stateMutability":"view"},{"type":"function","name":"SUCCESS_CODE","inputs":[],"outputs":[{"name":"","type":"uint8","internalType":"uint8"}],"stateMutability":"view"},{"type":"function","name":"SUCCESS_MESSAGE","inputs":[],"outputs":[{"name":"","type":"string","internalType":"string"}],"stateMutability":"view"},{"type":"function","name":"UNKNOWN_ERROR","inputs":[],"outputs":[{"name":"","type":"string","internalType":"string"}],"stateMutability":"view"},{"type":"function","name":"detectTransferFromRestriction","inputs":[{"name":"sender","type":"address","internalType":"address"},{"name":"from","type":"address","internalType":"address"},{"name":"to","type":"address","internalType":"address"},{"name":"value","type":"uint256","internalType":"uint256"}],"outputs":[{"name":"","type":"uint8","internalType":"uint8"}],"stateMutability":"view"},{"type":"function","name":"detectTransferRestriction","inputs":[{"name":"from","type":"address","internalType":"address"},{"name":"to","type":"address","internalType":"address"},{"name":"amount","type":"uint256","internalType":"uint256"}],"outputs":[{"name":"","type":"uint8","internalType":"uint8"}],"stateMutability":"view"},{"type":"function","name":"getSuccessCode","inputs":[],"outputs":[{"name":"","type":"uint256","internalType":"uint256"}],"stateMutability":"pure"},{"type":"function","name":"messageForTransferRestriction","inputs":[{"name":"restrictionCode","type":"uint8","internalType":"uint8"}],"outputs":[{"name":"","type":"string","internalType":"string"}],"stateMutability":"pure"}],"bytecode":{"object":"0x608060405234801561001057600080fd5b50604051610a7b380380610a7b83398101604081905261002f916100bd565b6001600160a01b0381166100985760405162461bcd60e51b815260206004820152602660248201527f307830206973206e6f7420612076616c6964205f76616c696461746f7273206160448201526564647265737360d01b606482015260840160405180910390fd5b600080546001600160a01b0319166001600160a01b03929092169190911790556100ed565b6000602082840312156100cf57600080fd5b81516001600160a01b03811681146100e657600080fd5b9392505050565b61097f806100fc6000396000f3fe608060405234801561001057600080fd5b50600436106100f55760003560e01c8063777eb99f1161009757806397af67441161006657806397af674414610193578063c8934462146101c4578063d4ce1415146101cc578063e7984d17146101df57600080fd5b8063777eb99f146101685780637f4ab1dd1461017057806386a299fb1461018357806394d1ae221461018b57600080fd5b80631fb45ec0116100d35780631fb45ec0146101415780632ddabee814610149578063490e359c146101515780635ec647591461015957600080fd5b80630754cede146100fa5780630e969a0514610124578063191035ab1461012c575b600080fd5b61010d610108366004610730565b610205565b60405160ff90911681526020015b60405180910390f35b61010d600081565b610134610318565b60405161011b919061077b565b61010d600281565b61010d600381565b610134610334565b6040516000815260200161011b565b610134610350565b61013461017e3660046107c9565b61036c565b61010d600481565b61010d600181565b61013460405180604001604052806012815260200171556e6b6e6f776e204572726f7220436f646560701b81525081565b610134610473565b61010d6101da3660046107ec565b61048f565b610134604051806040016040528060078152602001665355434345535360c81b81525081565b6000805460405163c3c5a54760e01b81526001600160a01b0386811660048301529091169063c3c5a54790602401602060405180830381865afa158015610250573d6000803e3d6000fd5b505050506040513d601f19601f820116820180604052508101906102749190610828565b61028057506001610310565b6000546040516399da091d60e01b81526001600160a01b0387811660048301528581166024830152909116906399da091d90604401602060405180830381865afa1580156102d2573d6000803e3d6000fd5b505050506040513d601f19601f820116820180604052508101906102f69190610828565b61030257506002610310565b61030d84848461048f565b90505b949350505050565b6040518060600160405280603581526020016109156035913981565b6040518060600160405280603881526020016108646038913981565b6040518060600160405280603d815260200161089c603d913981565b606060ff82166103995750506040805180820190915260078152665355434345535360c81b602082015290565b60001960ff8316016103c4576040518060600160405280603881526020016108646038913992915050565b60011960ff8316016103ef576040518060600160405280603c81526020016108d9603c913992915050565b60021960ff83160161041a576040518060600160405280603581526020016109156035913992915050565b60031960ff831601610445576040518060600160405280603d815260200161089c603d913992915050565b5050604080518082019091526012815271556e6b6e6f776e204572726f7220436f646560701b602082015290565b6040518060600160405280603c81526020016108d9603c913981565b6000805460405163c3c5a54760e01b81526001600160a01b0386811660048301529091169063c3c5a54790602401602060405180830381865afa1580156104da573d6000803e3d6000fd5b505050506040513d601f19601f820116820180604052508101906104fe9190610828565b61050a5750600161070d565b6000546040516399da091d60e01b81526001600160a01b0386811660048301528581166024830152909116906399da091d90604401602060405180830381865afa15801561055c573d6000803e3d6000fd5b505050506040513d601f19601f820116820180604052508101906105809190610828565b61058c5750600261070d565b6000546040516370a0823160e01b81526001600160a01b0386811660048301529091169063c697e4a3908690859084906370a0823190602401602060405180830381865afa1580156105e2573d6000803e3d6000fd5b505050506040513d601f19601f82011682018060405250810190610606919061084a565b6040516001600160e01b031960e086901b1681526001600160a01b03909316600484015260248301919091526044820152606401602060405180830381865afa158015610657573d6000803e3d6000fd5b505050506040513d601f19601f8201168201806040525081019061067b9190610828565b6106875750600361070d565b60008054906101000a90046001600160a01b03166001600160a01b0316635c975abb6040518163ffffffff1660e01b8152600401602060405180830381865afa1580156106d8573d6000803e3d6000fd5b505050506040513d601f19601f820116820180604052508101906106fc9190610828565b156107095750600461070d565b5060005b9392505050565b80356001600160a01b038116811461072b57600080fd5b919050565b6000806000806080858703121561074657600080fd5b61074f85610714565b935061075d60208601610714565b925061076b60408601610714565b9396929550929360600135925050565b600060208083528351808285015260005b818110156107a85785810183015185820160400152820161078c565b506000604082860101526040601f19601f8301168501019250505092915050565b6000602082840312156107db57600080fd5b813560ff8116811461070d57600080fd5b60008060006060848603121561080157600080fd5b61080a84610714565b925061081860208501610714565b9150604084013590509250925092565b60006020828403121561083a57600080fd5b8151801515811461070d57600080fd5b60006020828403121561085c57600080fd5b505191905056fe546865207472616e736665722077617320726573747269637465642064756520746f206e6f207573657220747970652061737369676e6564546865207472616e736665722077617320726573747269637465642064756520746f2074686520636f6e7472616374206265696e67207061757365642e546865207472616e736665722077617320726573747269637465642064756520746f207768697465206c69737420636f6e66696775726174696f6e2e546865207472616e736665722077617320726573747269637465642064756520746f2074696d656c6f636b656420746f6b656e732ea2646970667358221220c91c8a7cde480337c9192e2e111626d84cc274a39ea3ea5213ab1f83a0ca2a7064736f6c63430008140033","linkReferences":{}},"methodIdentifiers":{"FAILURE_CONTRACT_PAUSED()":"86a299fb","FAILURE_CONTRACT_PAUSED_MESSAGE()":"777eb99f","FAILURE_NON_WHITELIST()":"1fb45ec0","FAILURE_NON_WHITELIST_MESSAGE()":"c8934462","FAILURE_TIMELOCK()":"2ddabee8","FAILURE_TIMELOCK_MESSAGE()":"191035ab","NO_USER_TYPE()":"94d1ae22","NO_USER_TYPE_ASSIGNED()":"490e359c","SUCCESS_CODE()":"0e969a05","SUCCESS_MESSAGE()":"e7984d17","UNKNOWN_ERROR()":"97af6744","detectTransferFromRestriction(address,address,address,uint256)":"0754cede","detectTransferRestriction(address,address,uint256)":"d4ce1415","getSuccessCode()":"5ec64759","messageForTransferRestriction(uint8)":"7f4ab1dd"},"id":39}