{
	"ERC1404/Restriction/restriction_flatten.sol": {
		"RestrictionMessages": {
			"abi": [
				{
					"inputs": [],
					"name": "FAILURE_CONTRACT_PAUSED",
					"outputs": [
						{
							"internalType": "uint8",
							"name": "",
							"type": "uint8"
						}
					],
					"stateMutability": "view",
					"type": "function"
				},
				{
					"inputs": [],
					"name": "FAILURE_CONTRACT_PAUSED_MESSAGE",
					"outputs": [
						{
							"internalType": "string",
							"name": "",
							"type": "string"
						}
					],
					"stateMutability": "view",
					"type": "function"
				},
				{
					"inputs": [],
					"name": "FAILURE_NON_WHITELIST",
					"outputs": [
						{
							"internalType": "uint8",
							"name": "",
							"type": "uint8"
						}
					],
					"stateMutability": "view",
					"type": "function"
				},
				{
					"inputs": [],
					"name": "FAILURE_NON_WHITELIST_MESSAGE",
					"outputs": [
						{
							"internalType": "string",
							"name": "",
							"type": "string"
						}
					],
					"stateMutability": "view",
					"type": "function"
				},
				{
					"inputs": [],
					"name": "FAILURE_TIMELOCK",
					"outputs": [
						{
							"internalType": "uint8",
							"name": "",
							"type": "uint8"
						}
					],
					"stateMutability": "view",
					"type": "function"
				},
				{
					"inputs": [],
					"name": "FAILURE_TIMELOCK_MESSAGE",
					"outputs": [
						{
							"internalType": "string",
							"name": "",
							"type": "string"
						}
					],
					"stateMutability": "view",
					"type": "function"
				},
				{
					"inputs": [],
					"name": "NO_USER_TYPE",
					"outputs": [
						{
							"internalType": "uint8",
							"name": "",
							"type": "uint8"
						}
					],
					"stateMutability": "view",
					"type": "function"
				},
				{
					"inputs": [],
					"name": "NO_USER_TYPE_ASSIGNED",
					"outputs": [
						{
							"internalType": "string",
							"name": "",
							"type": "string"
						}
					],
					"stateMutability": "view",
					"type": "function"
				},
				{
					"inputs": [],
					"name": "SUCCESS_CODE",
					"outputs": [
						{
							"internalType": "uint8",
							"name": "",
							"type": "uint8"
						}
					],
					"stateMutability": "view",
					"type": "function"
				},
				{
					"inputs": [],
					"name": "SUCCESS_MESSAGE",
					"outputs": [
						{
							"internalType": "string",
							"name": "",
							"type": "string"
						}
					],
					"stateMutability": "view",
					"type": "function"
				},
				{
					"inputs": [],
					"name": "UNKNOWN_ERROR",
					"outputs": [
						{
							"internalType": "string",
							"name": "",
							"type": "string"
						}
					],
					"stateMutability": "view",
					"type": "function"
				}
			],
			"devdoc": {
				"kind": "dev",
				"methods": {},
				"version": 1
			},
			"evm": {
				"assembly": "    /* \"ERC1404/Restriction/restriction_flatten.sol\":3894:4851  contract RestrictionMessages {... */\n  mstore(0x40, 0x80)\n  callvalue\n  dup1\n  iszero\n  tag_1\n  jumpi\n  0x00\n  dup1\n  revert\ntag_1:\n  pop\n  dataSize(sub_0)\n  dup1\n  dataOffset(sub_0)\n  0x00\n  codecopy\n  0x00\n  return\nstop\n\nsub_0: assembly {\n        /* \"ERC1404/Restriction/restriction_flatten.sol\":3894:4851  contract RestrictionMessages {... */\n      mstore(0x40, 0x80)\n      callvalue\n      dup1\n      iszero\n      tag_1\n      jumpi\n      0x00\n      dup1\n      revert\n    tag_1:\n      pop\n      jumpi(tag_2, lt(calldatasize, 0x04))\n      shr(0xe0, calldataload(0x00))\n      dup1\n      0x777eb99f\n      gt\n      tag_14\n      jumpi\n      dup1\n      0x777eb99f\n      eq\n      tag_8\n      jumpi\n      dup1\n      0x86a299fb\n      eq\n      tag_9\n      jumpi\n      dup1\n      0x94d1ae22\n      eq\n      tag_10\n      jumpi\n      dup1\n      0x97af6744\n      eq\n      tag_11\n      jumpi\n      dup1\n      0xc8934462\n      eq\n      tag_12\n      jumpi\n      dup1\n      0xe7984d17\n      eq\n      tag_13\n      jumpi\n      jump(tag_2)\n    tag_14:\n      dup1\n      0x0e969a05\n      eq\n      tag_3\n      jumpi\n      dup1\n      0x191035ab\n      eq\n      tag_4\n      jumpi\n      dup1\n      0x1fb45ec0\n      eq\n      tag_5\n      jumpi\n      dup1\n      0x2ddabee8\n      eq\n      tag_6\n      jumpi\n      dup1\n      0x490e359c\n      eq\n      tag_7\n      jumpi\n    tag_2:\n      0x00\n      dup1\n      revert\n        /* \"ERC1404/Restriction/restriction_flatten.sol\":3971:4009  uint8 public constant SUCCESS_CODE = 0 */\n    tag_3:\n      tag_15\n      tag_16\n      jump\t// in\n    tag_15:\n      mload(0x40)\n      tag_17\n      swap2\n      swap1\n      tag_18\n      jump\t// in\n    tag_17:\n      mload(0x40)\n      dup1\n      swap2\n      sub\n      swap1\n      return\n        /* \"ERC1404/Restriction/restriction_flatten.sol\":4410:4524  string public constant FAILURE_TIMELOCK_MESSAGE =... */\n    tag_4:\n      tag_19\n      tag_20\n      jump\t// in\n    tag_19:\n      mload(0x40)\n      tag_21\n      swap2\n      swap1\n      tag_22\n      jump\t// in\n    tag_21:\n      mload(0x40)\n      dup1\n      swap2\n      sub\n      swap1\n      return\n        /* \"ERC1404/Restriction/restriction_flatten.sol\":4016:4063  uint8 public constant FAILURE_NON_WHITELIST = 2 */\n    tag_5:\n      tag_23\n      tag_24\n      jump\t// in\n    tag_23:\n      mload(0x40)\n      tag_25\n      swap2\n      swap1\n      tag_18\n      jump\t// in\n    tag_25:\n      mload(0x40)\n      dup1\n      swap2\n      sub\n      swap1\n      return\n        /* \"ERC1404/Restriction/restriction_flatten.sol\":4070:4112  uint8 public constant FAILURE_TIMELOCK = 3 */\n    tag_6:\n      tag_26\n      tag_27\n      jump\t// in\n    tag_26:\n      mload(0x40)\n      tag_28\n      swap2\n      swap1\n      tag_18\n      jump\t// in\n    tag_28:\n      mload(0x40)\n      dup1\n      swap2\n      sub\n      swap1\n      return\n        /* \"ERC1404/Restriction/restriction_flatten.sol\":4733:4847  string public constant NO_USER_TYPE_ASSIGNED =... */\n    tag_7:\n      tag_29\n      tag_30\n      jump\t// in\n    tag_29:\n      mload(0x40)\n      tag_31\n      swap2\n      swap1\n      tag_22\n      jump\t// in\n    tag_31:\n      mload(0x40)\n      dup1\n      swap2\n      sub\n      swap1\n      return\n        /* \"ERC1404/Restriction/restriction_flatten.sol\":4531:4660  string public constant FAILURE_CONTRACT_PAUSED_MESSAGE =... */\n    tag_8:\n      tag_32\n      tag_33\n      jump\t// in\n    tag_32:\n      mload(0x40)\n      tag_34\n      swap2\n      swap1\n      tag_22\n      jump\t// in\n    tag_34:\n      mload(0x40)\n      dup1\n      swap2\n      sub\n      swap1\n      return\n        /* \"ERC1404/Restriction/restriction_flatten.sol\":4119:4168  uint8 public constant FAILURE_CONTRACT_PAUSED = 4 */\n    tag_9:\n      tag_35\n      tag_36\n      jump\t// in\n    tag_35:\n      mload(0x40)\n      tag_37\n      swap2\n      swap1\n      tag_18\n      jump\t// in\n    tag_37:\n      mload(0x40)\n      dup1\n      swap2\n      sub\n      swap1\n      return\n        /* \"ERC1404/Restriction/restriction_flatten.sol\":4175:4213  uint8 public constant NO_USER_TYPE = 1 */\n    tag_10:\n      tag_38\n      tag_39\n      jump\t// in\n    tag_38:\n      mload(0x40)\n      tag_40\n      swap2\n      swap1\n      tag_18\n      jump\t// in\n    tag_40:\n      mload(0x40)\n      dup1\n      swap2\n      sub\n      swap1\n      return\n        /* \"ERC1404/Restriction/restriction_flatten.sol\":4667:4726  string public constant UNKNOWN_ERROR = \"Unknown Error Code\" */\n    tag_11:\n      tag_41\n      tag_42\n      jump\t// in\n    tag_41:\n      mload(0x40)\n      tag_43\n      swap2\n      swap1\n      tag_22\n      jump\t// in\n    tag_43:\n      mload(0x40)\n      dup1\n      swap2\n      sub\n      swap1\n      return\n        /* \"ERC1404/Restriction/restriction_flatten.sol\":4277:4403  string public constant FAILURE_NON_WHITELIST_MESSAGE =... */\n    tag_12:\n      tag_44\n      tag_45\n      jump\t// in\n    tag_44:\n      mload(0x40)\n      tag_46\n      swap2\n      swap1\n      tag_22\n      jump\t// in\n    tag_46:\n      mload(0x40)\n      dup1\n      swap2\n      sub\n      swap1\n      return\n        /* \"ERC1404/Restriction/restriction_flatten.sol\":4220:4270  string public constant SUCCESS_MESSAGE = \"SUCCESS\" */\n    tag_13:\n      tag_47\n      tag_48\n      jump\t// in\n    tag_47:\n      mload(0x40)\n      tag_49\n      swap2\n      swap1\n      tag_22\n      jump\t// in\n    tag_49:\n      mload(0x40)\n      dup1\n      swap2\n      sub\n      swap1\n      return\n        /* \"ERC1404/Restriction/restriction_flatten.sol\":3971:4009  uint8 public constant SUCCESS_CODE = 0 */\n    tag_16:\n        /* \"ERC1404/Restriction/restriction_flatten.sol\":4008:4009  0 */\n      0x00\n        /* \"ERC1404/Restriction/restriction_flatten.sol\":3971:4009  uint8 public constant SUCCESS_CODE = 0 */\n      dup2\n      jump\t// out\n        /* \"ERC1404/Restriction/restriction_flatten.sol\":4410:4524  string public constant FAILURE_TIMELOCK_MESSAGE =... */\n    tag_20:\n      mload(0x40)\n      dup1\n      0x60\n      add\n      0x40\n      mstore\n      dup1\n      0x35\n      dup2\n      mstore\n      0x20\n      add\n      data_edf29e73f74202bbfbfa188fafb8dcadab0c5de148a5a5e9bf3976faecfa39da\n      0x35\n      swap2\n      codecopy\n      dup2\n      jump\t// out\n        /* \"ERC1404/Restriction/restriction_flatten.sol\":4016:4063  uint8 public constant FAILURE_NON_WHITELIST = 2 */\n    tag_24:\n        /* \"ERC1404/Restriction/restriction_flatten.sol\":4062:4063  2 */\n      0x02\n        /* \"ERC1404/Restriction/restriction_flatten.sol\":4016:4063  uint8 public constant FAILURE_NON_WHITELIST = 2 */\n      dup2\n      jump\t// out\n        /* \"ERC1404/Restriction/restriction_flatten.sol\":4070:4112  uint8 public constant FAILURE_TIMELOCK = 3 */\n    tag_27:\n        /* \"ERC1404/Restriction/restriction_flatten.sol\":4111:4112  3 */\n      0x03\n        /* \"ERC1404/Restriction/restriction_flatten.sol\":4070:4112  uint8 public constant FAILURE_TIMELOCK = 3 */\n      dup2\n      jump\t// out\n        /* \"ERC1404/Restriction/restriction_flatten.sol\":4733:4847  string public constant NO_USER_TYPE_ASSIGNED =... */\n    tag_30:\n      mload(0x40)\n      dup1\n      0x60\n      add\n      0x40\n      mstore\n      dup1\n      0x38\n      dup2\n      mstore\n      0x20\n      add\n      data_66d60341ed64b996fa0b84248f37b19af7b74df53155affc634483eff07851f2\n      0x38\n      swap2\n      codecopy\n      dup2\n      jump\t// out\n        /* \"ERC1404/Restriction/restriction_flatten.sol\":4531:4660  string public constant FAILURE_CONTRACT_PAUSED_MESSAGE =... */\n    tag_33:\n      mload(0x40)\n      dup1\n      0x60\n      add\n      0x40\n      mstore\n      dup1\n      0x3d\n      dup2\n      mstore\n      0x20\n      add\n      data_ad9af571a3b442df832ef21fd7c443d0876ede9535ce3c723edddbbdbeaba383\n      0x3d\n      swap2\n      codecopy\n      dup2\n      jump\t// out\n        /* \"ERC1404/Restriction/restriction_flatten.sol\":4119:4168  uint8 public constant FAILURE_CONTRACT_PAUSED = 4 */\n    tag_36:\n        /* \"ERC1404/Restriction/restriction_flatten.sol\":4167:4168  4 */\n      0x04\n        /* \"ERC1404/Restriction/restriction_flatten.sol\":4119:4168  uint8 public constant FAILURE_CONTRACT_PAUSED = 4 */\n      dup2\n      jump\t// out\n        /* \"ERC1404/Restriction/restriction_flatten.sol\":4175:4213  uint8 public constant NO_USER_TYPE = 1 */\n    tag_39:\n        /* \"ERC1404/Restriction/restriction_flatten.sol\":4212:4213  1 */\n      0x01\n        /* \"ERC1404/Restriction/restriction_flatten.sol\":4175:4213  uint8 public constant NO_USER_TYPE = 1 */\n      dup2\n      jump\t// out\n        /* \"ERC1404/Restriction/restriction_flatten.sol\":4667:4726  string public constant UNKNOWN_ERROR = \"Unknown Error Code\" */\n    tag_42:\n      mload(0x40)\n      dup1\n      0x40\n      add\n      0x40\n      mstore\n      dup1\n      0x12\n      dup2\n      mstore\n      0x20\n      add\n      0x556e6b6e6f776e204572726f7220436f64650000000000000000000000000000\n      dup2\n      mstore\n      pop\n      dup2\n      jump\t// out\n        /* \"ERC1404/Restriction/restriction_flatten.sol\":4277:4403  string public constant FAILURE_NON_WHITELIST_MESSAGE =... */\n    tag_45:\n      mload(0x40)\n      dup1\n      0x60\n      add\n      0x40\n      mstore\n      dup1\n      0x3c\n      dup2\n      mstore\n      0x20\n      add\n      data_e2c08a66f2b86feb88c976c9f1fd6dfebdf34e61c54a5cf461a34d6ed427b2fc\n      0x3c\n      swap2\n      codecopy\n      dup2\n      jump\t// out\n        /* \"ERC1404/Restriction/restriction_flatten.sol\":4220:4270  string public constant SUCCESS_MESSAGE = \"SUCCESS\" */\n    tag_48:\n      mload(0x40)\n      dup1\n      0x40\n      add\n      0x40\n      mstore\n      dup1\n      0x07\n      dup2\n      mstore\n      0x20\n      add\n      0x5355434345535300000000000000000000000000000000000000000000000000\n      dup2\n      mstore\n      pop\n      dup2\n      jump\t// out\n        /* \"#utility.yul\":7:93   */\n    tag_50:\n        /* \"#utility.yul\":42:49   */\n      0x00\n        /* \"#utility.yul\":82:86   */\n      0xff\n        /* \"#utility.yul\":75:80   */\n      dup3\n        /* \"#utility.yul\":71:87   */\n      and\n        /* \"#utility.yul\":60:87   */\n      swap1\n      pop\n        /* \"#utility.yul\":7:93   */\n      swap2\n      swap1\n      pop\n      jump\t// out\n        /* \"#utility.yul\":99:211   */\n    tag_51:\n        /* \"#utility.yul\":182:204   */\n      tag_60\n        /* \"#utility.yul\":198:203   */\n      dup2\n        /* \"#utility.yul\":182:204   */\n      tag_50\n      jump\t// in\n    tag_60:\n        /* \"#utility.yul\":177:180   */\n      dup3\n        /* \"#utility.yul\":170:205   */\n      mstore\n        /* \"#utility.yul\":99:211   */\n      pop\n      pop\n      jump\t// out\n        /* \"#utility.yul\":217:431   */\n    tag_18:\n        /* \"#utility.yul\":306:310   */\n      0x00\n        /* \"#utility.yul\":344:346   */\n      0x20\n        /* \"#utility.yul\":333:342   */\n      dup3\n        /* \"#utility.yul\":329:347   */\n      add\n        /* \"#utility.yul\":321:347   */\n      swap1\n      pop\n        /* \"#utility.yul\":357:424   */\n      tag_62\n        /* \"#utility.yul\":421:422   */\n      0x00\n        /* \"#utility.yul\":410:419   */\n      dup4\n        /* \"#utility.yul\":406:423   */\n      add\n        /* \"#utility.yul\":397:403   */\n      dup5\n        /* \"#utility.yul\":357:424   */\n      tag_51\n      jump\t// in\n    tag_62:\n        /* \"#utility.yul\":217:431   */\n      swap3\n      swap2\n      pop\n      pop\n      jump\t// out\n        /* \"#utility.yul\":437:536   */\n    tag_52:\n        /* \"#utility.yul\":489:495   */\n      0x00\n        /* \"#utility.yul\":523:528   */\n      dup2\n        /* \"#utility.yul\":517:529   */\n      mload\n        /* \"#utility.yul\":507:529   */\n      swap1\n      pop\n        /* \"#utility.yul\":437:536   */\n      swap2\n      swap1\n      pop\n      jump\t// out\n        /* \"#utility.yul\":542:711   */\n    tag_53:\n        /* \"#utility.yul\":626:637   */\n      0x00\n        /* \"#utility.yul\":660:666   */\n      dup3\n        /* \"#utility.yul\":655:658   */\n      dup3\n        /* \"#utility.yul\":648:667   */\n      mstore\n        /* \"#utility.yul\":700:704   */\n      0x20\n        /* \"#utility.yul\":695:698   */\n      dup3\n        /* \"#utility.yul\":691:705   */\n      add\n        /* \"#utility.yul\":676:705   */\n      swap1\n      pop\n        /* \"#utility.yul\":542:711   */\n      swap3\n      swap2\n      pop\n      pop\n      jump\t// out\n        /* \"#utility.yul\":717:963   */\n    tag_54:\n        /* \"#utility.yul\":798:799   */\n      0x00\n        /* \"#utility.yul\":808:921   */\n    tag_66:\n        /* \"#utility.yul\":822:828   */\n      dup4\n        /* \"#utility.yul\":819:820   */\n      dup2\n        /* \"#utility.yul\":816:829   */\n      lt\n        /* \"#utility.yul\":808:921   */\n      iszero\n      tag_68\n      jumpi\n        /* \"#utility.yul\":907:908   */\n      dup1\n        /* \"#utility.yul\":902:905   */\n      dup3\n        /* \"#utility.yul\":898:909   */\n      add\n        /* \"#utility.yul\":892:910   */\n      mload\n        /* \"#utility.yul\":888:889   */\n      dup2\n        /* \"#utility.yul\":883:886   */\n      dup5\n        /* \"#utility.yul\":879:890   */\n      add\n        /* \"#utility.yul\":872:911   */\n      mstore\n        /* \"#utility.yul\":844:846   */\n      0x20\n        /* \"#utility.yul\":841:842   */\n      dup2\n        /* \"#utility.yul\":837:847   */\n      add\n        /* \"#utility.yul\":832:847   */\n      swap1\n      pop\n        /* \"#utility.yul\":808:921   */\n      jump(tag_66)\n    tag_68:\n        /* \"#utility.yul\":955:956   */\n      0x00\n        /* \"#utility.yul\":946:952   */\n      dup5\n        /* \"#utility.yul\":941:944   */\n      dup5\n        /* \"#utility.yul\":937:953   */\n      add\n        /* \"#utility.yul\":930:957   */\n      mstore\n        /* \"#utility.yul\":779:963   */\n      pop\n        /* \"#utility.yul\":717:963   */\n      pop\n      pop\n      pop\n      jump\t// out\n        /* \"#utility.yul\":969:1071   */\n    tag_55:\n        /* \"#utility.yul\":1010:1016   */\n      0x00\n        /* \"#utility.yul\":1061:1063   */\n      0x1f\n        /* \"#utility.yul\":1057:1064   */\n      not\n        /* \"#utility.yul\":1052:1054   */\n      0x1f\n        /* \"#utility.yul\":1045:1050   */\n      dup4\n        /* \"#utility.yul\":1041:1055   */\n      add\n        /* \"#utility.yul\":1037:1065   */\n      and\n        /* \"#utility.yul\":1027:1065   */\n      swap1\n      pop\n        /* \"#utility.yul\":969:1071   */\n      swap2\n      swap1\n      pop\n      jump\t// out\n        /* \"#utility.yul\":1077:1454   */\n    tag_56:\n        /* \"#utility.yul\":1165:1168   */\n      0x00\n        /* \"#utility.yul\":1193:1232   */\n      tag_71\n        /* \"#utility.yul\":1226:1231   */\n      dup3\n        /* \"#utility.yul\":1193:1232   */\n      tag_52\n      jump\t// in\n    tag_71:\n        /* \"#utility.yul\":1248:1319   */\n      tag_72\n        /* \"#utility.yul\":1312:1318   */\n      dup2\n        /* \"#utility.yul\":1307:1310   */\n      dup6\n        /* \"#utility.yul\":1248:1319   */\n      tag_53\n      jump\t// in\n    tag_72:\n        /* \"#utility.yul\":1241:1319   */\n      swap4\n      pop\n        /* \"#utility.yul\":1328:1393   */\n      tag_73\n        /* \"#utility.yul\":1386:1392   */\n      dup2\n        /* \"#utility.yul\":1381:1384   */\n      dup6\n        /* \"#utility.yul\":1374:1378   */\n      0x20\n        /* \"#utility.yul\":1367:1372   */\n      dup7\n        /* \"#utility.yul\":1363:1379   */\n      add\n        /* \"#utility.yul\":1328:1393   */\n      tag_54\n      jump\t// in\n    tag_73:\n        /* \"#utility.yul\":1418:1447   */\n      tag_74\n        /* \"#utility.yul\":1440:1446   */\n      dup2\n        /* \"#utility.yul\":1418:1447   */\n      tag_55\n      jump\t// in\n    tag_74:\n        /* \"#utility.yul\":1413:1416   */\n      dup5\n        /* \"#utility.yul\":1409:1448   */\n      add\n        /* \"#utility.yul\":1402:1448   */\n      swap2\n      pop\n        /* \"#utility.yul\":1169:1454   */\n      pop\n        /* \"#utility.yul\":1077:1454   */\n      swap3\n      swap2\n      pop\n      pop\n      jump\t// out\n        /* \"#utility.yul\":1460:1773   */\n    tag_22:\n        /* \"#utility.yul\":1573:1577   */\n      0x00\n        /* \"#utility.yul\":1611:1613   */\n      0x20\n        /* \"#utility.yul\":1600:1609   */\n      dup3\n        /* \"#utility.yul\":1596:1614   */\n      add\n        /* \"#utility.yul\":1588:1614   */\n      swap1\n      pop\n        /* \"#utility.yul\":1660:1669   */\n      dup2\n        /* \"#utility.yul\":1654:1658   */\n      dup2\n        /* \"#utility.yul\":1650:1670   */\n      sub\n        /* \"#utility.yul\":1646:1647   */\n      0x00\n        /* \"#utility.yul\":1635:1644   */\n      dup4\n        /* \"#utility.yul\":1631:1648   */\n      add\n        /* \"#utility.yul\":1624:1671   */\n      mstore\n        /* \"#utility.yul\":1688:1766   */\n      tag_76\n        /* \"#utility.yul\":1761:1765   */\n      dup2\n        /* \"#utility.yul\":1752:1758   */\n      dup5\n        /* \"#utility.yul\":1688:1766   */\n      tag_56\n      jump\t// in\n    tag_76:\n        /* \"#utility.yul\":1680:1766   */\n      swap1\n      pop\n        /* \"#utility.yul\":1460:1773   */\n      swap3\n      swap2\n      pop\n      pop\n      jump\t// out\n    stop\n    data_66d60341ed64b996fa0b84248f37b19af7b74df53155affc634483eff07851f2 546865207472616e736665722077617320726573747269637465642064756520746f206e6f207573657220747970652061737369676e6564\n    data_ad9af571a3b442df832ef21fd7c443d0876ede9535ce3c723edddbbdbeaba383 546865207472616e736665722077617320726573747269637465642064756520746f2074686520636f6e7472616374206265696e67207061757365642e\n    data_e2c08a66f2b86feb88c976c9f1fd6dfebdf34e61c54a5cf461a34d6ed427b2fc 546865207472616e736665722077617320726573747269637465642064756520746f207768697465206c69737420636f6e66696775726174696f6e2e\n    data_edf29e73f74202bbfbfa188fafb8dcadab0c5de148a5a5e9bf3976faecfa39da 546865207472616e736665722077617320726573747269637465642064756520746f2074696d656c6f636b656420746f6b656e732e\n\n    auxdata: 0xa26469706673582212205d2a05cf7aa579a0256909d9339a19bc7ebc0c9867d10191f1c35100e3cceae164736f6c63430008140033\n}\n",
				"bytecode": {
					"linkReferences": {},
					"object": "608060405234801561000f575f80fd5b506104e98061001d5f395ff3fe608060405234801561000f575f80fd5b50600436106100a7575f3560e01c8063777eb99f1161006f578063777eb99f1461014157806386a299fb1461015f57806394d1ae221461017d57806397af67441461019b578063c8934462146101b9578063e7984d17146101d7576100a7565b80630e969a05146100ab578063191035ab146100c95780631fb45ec0146100e75780632ddabee814610105578063490e359c14610123575b5f80fd5b6100b36101f5565b6040516100c0919061030a565b60405180910390f35b6100d16101f9565b6040516100de91906103ad565b60405180910390f35b6100ef610215565b6040516100fc919061030a565b60405180910390f35b61010d61021a565b60405161011a919061030a565b60405180910390f35b61012b61021f565b60405161013891906103ad565b60405180910390f35b61014961023b565b60405161015691906103ad565b60405180910390f35b610167610257565b604051610174919061030a565b60405180910390f35b61018561025c565b604051610192919061030a565b60405180910390f35b6101a3610261565b6040516101b091906103ad565b60405180910390f35b6101c161029a565b6040516101ce91906103ad565b60405180910390f35b6101df6102b6565b6040516101ec91906103ad565b60405180910390f35b5f81565b60405180606001604052806035815260200161047f6035913981565b600281565b600381565b6040518060600160405280603881526020016103ce6038913981565b6040518060600160405280603d8152602001610406603d913981565b600481565b600181565b6040518060400160405280601281526020017f556e6b6e6f776e204572726f7220436f6465000000000000000000000000000081525081565b6040518060600160405280603c8152602001610443603c913981565b6040518060400160405280600781526020017f535543434553530000000000000000000000000000000000000000000000000081525081565b5f60ff82169050919050565b610304816102ef565b82525050565b5f60208201905061031d5f8301846102fb565b92915050565b5f81519050919050565b5f82825260208201905092915050565b5f5b8381101561035a57808201518184015260208101905061033f565b5f8484015250505050565b5f601f19601f8301169050919050565b5f61037f82610323565b610389818561032d565b935061039981856020860161033d565b6103a281610365565b840191505092915050565b5f6020820190508181035f8301526103c58184610375565b90509291505056fe546865207472616e736665722077617320726573747269637465642064756520746f206e6f207573657220747970652061737369676e6564546865207472616e736665722077617320726573747269637465642064756520746f2074686520636f6e7472616374206265696e67207061757365642e546865207472616e736665722077617320726573747269637465642064756520746f207768697465206c69737420636f6e66696775726174696f6e2e546865207472616e736665722077617320726573747269637465642064756520746f2074696d656c6f636b656420746f6b656e732ea26469706673582212205d2a05cf7aa579a0256909d9339a19bc7ebc0c9867d10191f1c35100e3cceae164736f6c63430008140033",
					"opcodes": "PUSH1 0x80 PUSH1 0x40 MSTORE CALLVALUE DUP1 ISZERO PUSH2 0xF JUMPI PUSH0 DUP1 REVERT JUMPDEST POP PUSH2 0x4E9 DUP1 PUSH2 0x1D PUSH0 CODECOPY PUSH0 RETURN INVALID PUSH1 0x80 PUSH1 0x40 MSTORE CALLVALUE DUP1 ISZERO PUSH2 0xF JUMPI PUSH0 DUP1 REVERT JUMPDEST POP PUSH1 0x4 CALLDATASIZE LT PUSH2 0xA7 JUMPI PUSH0 CALLDATALOAD PUSH1 0xE0 SHR DUP1 PUSH4 0x777EB99F GT PUSH2 0x6F JUMPI DUP1 PUSH4 0x777EB99F EQ PUSH2 0x141 JUMPI DUP1 PUSH4 0x86A299FB EQ PUSH2 0x15F JUMPI DUP1 PUSH4 0x94D1AE22 EQ PUSH2 0x17D JUMPI DUP1 PUSH4 0x97AF6744 EQ PUSH2 0x19B JUMPI DUP1 PUSH4 0xC8934462 EQ PUSH2 0x1B9 JUMPI DUP1 PUSH4 0xE7984D17 EQ PUSH2 0x1D7 JUMPI PUSH2 0xA7 JUMP JUMPDEST DUP1 PUSH4 0xE969A05 EQ PUSH2 0xAB JUMPI DUP1 PUSH4 0x191035AB EQ PUSH2 0xC9 JUMPI DUP1 PUSH4 0x1FB45EC0 EQ PUSH2 0xE7 JUMPI DUP1 PUSH4 0x2DDABEE8 EQ PUSH2 0x105 JUMPI DUP1 PUSH4 0x490E359C EQ PUSH2 0x123 JUMPI JUMPDEST PUSH0 DUP1 REVERT JUMPDEST PUSH2 0xB3 PUSH2 0x1F5 JUMP JUMPDEST PUSH1 0x40 MLOAD PUSH2 0xC0 SWAP2 SWAP1 PUSH2 0x30A JUMP JUMPDEST PUSH1 0x40 MLOAD DUP1 SWAP2 SUB SWAP1 RETURN JUMPDEST PUSH2 0xD1 PUSH2 0x1F9 JUMP JUMPDEST PUSH1 0x40 MLOAD PUSH2 0xDE SWAP2 SWAP1 PUSH2 0x3AD JUMP JUMPDEST PUSH1 0x40 MLOAD DUP1 SWAP2 SUB SWAP1 RETURN JUMPDEST PUSH2 0xEF PUSH2 0x215 JUMP JUMPDEST PUSH1 0x40 MLOAD PUSH2 0xFC SWAP2 SWAP1 PUSH2 0x30A JUMP JUMPDEST PUSH1 0x40 MLOAD DUP1 SWAP2 SUB SWAP1 RETURN JUMPDEST PUSH2 0x10D PUSH2 0x21A JUMP JUMPDEST PUSH1 0x40 MLOAD PUSH2 0x11A SWAP2 SWAP1 PUSH2 0x30A JUMP JUMPDEST PUSH1 0x40 MLOAD DUP1 SWAP2 SUB SWAP1 RETURN JUMPDEST PUSH2 0x12B PUSH2 0x21F JUMP JUMPDEST PUSH1 0x40 MLOAD PUSH2 0x138 SWAP2 SWAP1 PUSH2 0x3AD JUMP JUMPDEST PUSH1 0x40 MLOAD DUP1 SWAP2 SUB SWAP1 RETURN JUMPDEST PUSH2 0x149 PUSH2 0x23B JUMP JUMPDEST PUSH1 0x40 MLOAD PUSH2 0x156 SWAP2 SWAP1 PUSH2 0x3AD JUMP JUMPDEST PUSH1 0x40 MLOAD DUP1 SWAP2 SUB SWAP1 RETURN JUMPDEST PUSH2 0x167 PUSH2 0x257 JUMP JUMPDEST PUSH1 0x40 MLOAD PUSH2 0x174 SWAP2 SWAP1 PUSH2 0x30A JUMP JUMPDEST PUSH1 0x40 MLOAD DUP1 SWAP2 SUB SWAP1 RETURN JUMPDEST PUSH2 0x185 PUSH2 0x25C JUMP JUMPDEST PUSH1 0x40 MLOAD PUSH2 0x192 SWAP2 SWAP1 PUSH2 0x30A JUMP JUMPDEST PUSH1 0x40 MLOAD DUP1 SWAP2 SUB SWAP1 RETURN JUMPDEST PUSH2 0x1A3 PUSH2 0x261 JUMP JUMPDEST PUSH1 0x40 MLOAD PUSH2 0x1B0 SWAP2 SWAP1 PUSH2 0x3AD JUMP JUMPDEST PUSH1 0x40 MLOAD DUP1 SWAP2 SUB SWAP1 RETURN JUMPDEST PUSH2 0x1C1 PUSH2 0x29A JUMP JUMPDEST PUSH1 0x40 MLOAD PUSH2 0x1CE SWAP2 SWAP1 PUSH2 0x3AD JUMP JUMPDEST PUSH1 0x40 MLOAD DUP1 SWAP2 SUB SWAP1 RETURN JUMPDEST PUSH2 0x1DF PUSH2 0x2B6 JUMP JUMPDEST PUSH1 0x40 MLOAD PUSH2 0x1EC SWAP2 SWAP1 PUSH2 0x3AD JUMP JUMPDEST PUSH1 0x40 MLOAD DUP1 SWAP2 SUB SWAP1 RETURN JUMPDEST PUSH0 DUP2 JUMP JUMPDEST PUSH1 0x40 MLOAD DUP1 PUSH1 0x60 ADD PUSH1 0x40 MSTORE DUP1 PUSH1 0x35 DUP2 MSTORE PUSH1 0x20 ADD PUSH2 0x47F PUSH1 0x35 SWAP2 CODECOPY DUP2 JUMP JUMPDEST PUSH1 0x2 DUP2 JUMP JUMPDEST PUSH1 0x3 DUP2 JUMP JUMPDEST PUSH1 0x40 MLOAD DUP1 PUSH1 0x60 ADD PUSH1 0x40 MSTORE DUP1 PUSH1 0x38 DUP2 MSTORE PUSH1 0x20 ADD PUSH2 0x3CE PUSH1 0x38 SWAP2 CODECOPY DUP2 JUMP JUMPDEST PUSH1 0x40 MLOAD DUP1 PUSH1 0x60 ADD PUSH1 0x40 MSTORE DUP1 PUSH1 0x3D DUP2 MSTORE PUSH1 0x20 ADD PUSH2 0x406 PUSH1 0x3D SWAP2 CODECOPY DUP2 JUMP JUMPDEST PUSH1 0x4 DUP2 JUMP JUMPDEST PUSH1 0x1 DUP2 JUMP JUMPDEST PUSH1 0x40 MLOAD DUP1 PUSH1 0x40 ADD PUSH1 0x40 MSTORE DUP1 PUSH1 0x12 DUP2 MSTORE PUSH1 0x20 ADD PUSH32 0x556E6B6E6F776E204572726F7220436F64650000000000000000000000000000 DUP2 MSTORE POP DUP2 JUMP JUMPDEST PUSH1 0x40 MLOAD DUP1 PUSH1 0x60 ADD PUSH1 0x40 MSTORE DUP1 PUSH1 0x3C DUP2 MSTORE PUSH1 0x20 ADD PUSH2 0x443 PUSH1 0x3C SWAP2 CODECOPY DUP2 JUMP JUMPDEST PUSH1 0x40 MLOAD DUP1 PUSH1 0x40 ADD PUSH1 0x40 MSTORE DUP1 PUSH1 0x7 DUP2 MSTORE PUSH1 0x20 ADD PUSH32 0x5355434345535300000000000000000000000000000000000000000000000000 DUP2 MSTORE POP DUP2 JUMP JUMPDEST PUSH0 PUSH1 0xFF DUP3 AND SWAP1 POP SWAP2 SWAP1 POP JUMP JUMPDEST PUSH2 0x304 DUP2 PUSH2 0x2EF JUMP JUMPDEST DUP3 MSTORE POP POP JUMP JUMPDEST PUSH0 PUSH1 0x20 DUP3 ADD SWAP1 POP PUSH2 0x31D PUSH0 DUP4 ADD DUP5 PUSH2 0x2FB JUMP JUMPDEST SWAP3 SWAP2 POP POP JUMP JUMPDEST PUSH0 DUP2 MLOAD SWAP1 POP SWAP2 SWAP1 POP JUMP JUMPDEST PUSH0 DUP3 DUP3 MSTORE PUSH1 0x20 DUP3 ADD SWAP1 POP SWAP3 SWAP2 POP POP JUMP JUMPDEST PUSH0 JUMPDEST DUP4 DUP2 LT ISZERO PUSH2 0x35A JUMPI DUP1 DUP3 ADD MLOAD DUP2 DUP5 ADD MSTORE PUSH1 0x20 DUP2 ADD SWAP1 POP PUSH2 0x33F JUMP JUMPDEST PUSH0 DUP5 DUP5 ADD MSTORE POP POP POP POP JUMP JUMPDEST PUSH0 PUSH1 0x1F NOT PUSH1 0x1F DUP4 ADD AND SWAP1 POP SWAP2 SWAP1 POP JUMP JUMPDEST PUSH0 PUSH2 0x37F DUP3 PUSH2 0x323 JUMP JUMPDEST PUSH2 0x389 DUP2 DUP6 PUSH2 0x32D JUMP JUMPDEST SWAP4 POP PUSH2 0x399 DUP2 DUP6 PUSH1 0x20 DUP7 ADD PUSH2 0x33D JUMP JUMPDEST PUSH2 0x3A2 DUP2 PUSH2 0x365 JUMP JUMPDEST DUP5 ADD SWAP2 POP POP SWAP3 SWAP2 POP POP JUMP JUMPDEST PUSH0 PUSH1 0x20 DUP3 ADD SWAP1 POP DUP2 DUP2 SUB PUSH0 DUP4 ADD MSTORE PUSH2 0x3C5 DUP2 DUP5 PUSH2 0x375 JUMP JUMPDEST SWAP1 POP SWAP3 SWAP2 POP POP JUMP INVALID SLOAD PUSH9 0x65207472616E736665 PUSH19 0x20776173207265737472696374656420647565 KECCAK256 PUSH21 0x6F206E6F207573657220747970652061737369676E PUSH6 0x645468652074 PUSH19 0x616E7366657220776173207265737472696374 PUSH6 0x642064756520 PUSH21 0x6F2074686520636F6E7472616374206265696E6720 PUSH17 0x61757365642E546865207472616E736665 PUSH19 0x20776173207265737472696374656420647565 KECCAK256 PUSH21 0x6F207768697465206C69737420636F6E6669677572 PUSH2 0x7469 PUSH16 0x6E2E546865207472616E736665722077 PUSH2 0x7320 PUSH19 0x6573747269637465642064756520746F207469 PUSH14 0x656C6F636B656420746F6B656E73 0x2E LOG2 PUSH5 0x6970667358 0x22 SLT KECCAK256 0x5D 0x2A SDIV 0xCF PUSH27 0xA579A0256909D9339A19BC7EBC0C9867D10191F1C35100E3CCEAE1 PUSH5 0x736F6C6343 STOP ADDMOD EQ STOP CALLER "
				},
				"gasEstimates": {
					"creation": {
						"codeDepositCost": "251400",
						"executionCost": "292",
						"totalCost": "251692"
					},
					"external": {
						"FAILURE_CONTRACT_PAUSED()": "353",
						"FAILURE_CONTRACT_PAUSED_MESSAGE()": "infinite",
						"FAILURE_NON_WHITELIST()": "376",
						"FAILURE_NON_WHITELIST_MESSAGE()": "infinite",
						"FAILURE_TIMELOCK()": "398",
						"FAILURE_TIMELOCK_MESSAGE()": "infinite",
						"NO_USER_TYPE()": "375",
						"NO_USER_TYPE_ASSIGNED()": "infinite",
						"SUCCESS_CODE()": "331",
						"SUCCESS_MESSAGE()": "infinite",
						"UNKNOWN_ERROR()": "infinite"
					}
				},
				"methodIdentifiers": {
					"FAILURE_CONTRACT_PAUSED()": "86a299fb",
					"FAILURE_CONTRACT_PAUSED_MESSAGE()": "777eb99f",
					"FAILURE_NON_WHITELIST()": "1fb45ec0",
					"FAILURE_NON_WHITELIST_MESSAGE()": "c8934462",
					"FAILURE_TIMELOCK()": "2ddabee8",
					"FAILURE_TIMELOCK_MESSAGE()": "191035ab",
					"NO_USER_TYPE()": "94d1ae22",
					"NO_USER_TYPE_ASSIGNED()": "490e359c",
					"SUCCESS_CODE()": "0e969a05",
					"SUCCESS_MESSAGE()": "e7984d17",
					"UNKNOWN_ERROR()": "97af6744"
				}
			},
			"storageLayout": {
				"storage": [],
				"types": null
			},
			"userdoc": {
				"kind": "user",
				"methods": {},
				"version": 1
			}
		}
	}
}