{"abi":[{"type":"constructor","inputs":[{"name":"admin","type":"address","internalType":"address"},{"name":"pauser","type":"address","internalType":"address"},{"name":"minter","type":"address","internalType":"address"},{"name":"registrar","type":"address","internalType":"address"},{"name":"whitelister","type":"address","internalType":"address"}],"stateMutability":"nonpayable"},{"type":"function","name":"DEFAULT_ADMIN_ROLE","inputs":[],"outputs":[{"name":"","type":"bytes32","internalType":"bytes32"}],"stateMutability":"view"},{"type":"function","name":"MINTER_ROLE","inputs":[],"outputs":[{"name":"","type":"bytes32","internalType":"bytes32"}],"stateMutability":"view"},{"type":"function","name":"PAUSER_ROLE","inputs":[],"outputs":[{"name":"","type":"bytes32","internalType":"bytes32"}],"stateMutability":"view"},{"type":"function","name":"TIMELOCKER_ROLE","inputs":[],"outputs":[{"name":"","type":"bytes32","internalType":"bytes32"}],"stateMutability":"view"},{"type":"function","name":"USER_REGISTRAR_ROLE","inputs":[],"outputs":[{"name":"","type":"bytes32","internalType":"bytes32"}],"stateMutability":"view"},{"type":"function","name":"WHITELISTER_ROLE","inputs":[],"outputs":[{"name":"","type":"bytes32","internalType":"bytes32"}],"stateMutability":"view"},{"type":"function","name":"allowance","inputs":[{"name":"owner","type":"address","internalType":"address"},{"name":"spender","type":"address","internalType":"address"}],"outputs":[{"name":"","type":"uint256","internalType":"uint256"}],"stateMutability":"view"},{"type":"function","name":"approve","inputs":[{"name":"spender","type":"address","internalType":"address"},{"name":"value","type":"uint256","internalType":"uint256"}],"outputs":[{"name":"","type":"bool","internalType":"bool"}],"stateMutability":"nonpayable"},{"type":"function","name":"balanceOf","inputs":[{"name":"account","type":"address","internalType":"address"}],"outputs":[{"name":"","type":"uint256","internalType":"uint256"}],"stateMutability":"view"},{"type":"function","name":"burn","inputs":[{"name":"_from","type":"address","internalType":"address"},{"name":"_amount","type":"uint256","internalType":"uint256"}],"outputs":[{"name":"","type":"bool","internalType":"bool"}],"stateMutability":"nonpayable"},{"type":"function","name":"checkTimelock","inputs":[{"name":"_address","type":"address","internalType":"address"},{"name":"amount","type":"uint256","internalType":"uint256"},{"name":"balance","type":"uint256","internalType":"uint256"}],"outputs":[{"name":"","type":"bool","internalType":"bool"}],"stateMutability":"view"},{"type":"function","name":"checkWhitelists","inputs":[{"name":"from","type":"address","internalType":"address"},{"name":"to","type":"address","internalType":"address"}],"outputs":[{"name":"","type":"bool","internalType":"bool"}],"stateMutability":"view"},{"type":"function","name":"decimals","inputs":[],"outputs":[{"name":"","type":"uint8","internalType":"uint8"}],"stateMutability":"view"},{"type":"function","name":"detectTransferFromRestriction","inputs":[{"name":"sender","type":"address","internalType":"address"},{"name":"from","type":"address","internalType":"address"},{"name":"to","type":"address","internalType":"address"},{"name":"amount","type":"uint256","internalType":"uint256"}],"outputs":[{"name":"","type":"uint8","internalType":"uint8"}],"stateMutability":"view"},{"type":"function","name":"detectTransferRestriction","inputs":[{"name":"from","type":"address","internalType":"address"},{"name":"to","type":"address","internalType":"address"},{"name":"amount","type":"uint256","internalType":"uint256"}],"outputs":[{"name":"","type":"uint8","internalType":"uint8"}],"stateMutability":"view"},{"type":"function","name":"getLockedAmount","inputs":[{"name":"_address","type":"address","internalType":"address"}],"outputs":[{"name":"","type":"uint256","internalType":"uint256"}],"stateMutability":"view"},{"type":"function","name":"getRoleAdmin","inputs":[{"name":"role","type":"bytes32","internalType":"bytes32"}],"outputs":[{"name":"","type":"bytes32","internalType":"bytes32"}],"stateMutability":"view"},{"type":"function","name":"getUserType","inputs":[{"name":"_user","type":"address","internalType":"address"}],"outputs":[{"name":"","type":"string","internalType":"string"}],"stateMutability":"view"},{"type":"function","name":"getWhitelistData","inputs":[{"name":"_address","type":"address","internalType":"address"}],"outputs":[{"name":"","type":"string","internalType":"string"}],"stateMutability":"view"},{"type":"function","name":"getWhitelistStatus","inputs":[{"name":"_address","type":"address","internalType":"address"}],"outputs":[{"name":"","type":"bool","internalType":"bool"}],"stateMutability":"view"},{"type":"function","name":"grantRole","inputs":[{"name":"role","type":"bytes32","internalType":"bytes32"},{"name":"account","type":"address","internalType":"address"}],"outputs":[],"stateMutability":"nonpayable"},{"type":"function","name":"hasRole","inputs":[{"name":"role","type":"bytes32","internalType":"bytes32"},{"name":"account","type":"address","internalType":"address"}],"outputs":[{"name":"","type":"bool","internalType":"bool"}],"stateMutability":"view"},{"type":"function","name":"isRegistered","inputs":[{"name":"_user","type":"address","internalType":"address"}],"outputs":[{"name":"","type":"bool","internalType":"bool"}],"stateMutability":"view"},{"type":"function","name":"lock","inputs":[{"name":"_address","type":"address","internalType":"address"},{"name":"amount","type":"uint256","internalType":"uint256"},{"name":"releaseTime","type":"uint256","internalType":"uint256"}],"outputs":[{"name":"","type":"bool","internalType":"bool"}],"stateMutability":"nonpayable"},{"type":"function","name":"lockups","inputs":[{"name":"","type":"address","internalType":"address"},{"name":"","type":"uint256","internalType":"uint256"}],"outputs":[{"name":"amount","type":"uint256","internalType":"uint256"},{"name":"releaseTime","type":"uint256","internalType":"uint256"}],"stateMutability":"view"},{"type":"function","name":"messageForTransferRestriction","inputs":[{"name":"restrictionCode","type":"uint8","internalType":"uint8"}],"outputs":[{"name":"","type":"string","internalType":"string"}],"stateMutability":"view"},{"type":"function","name":"mint","inputs":[{"name":"to","type":"address","internalType":"address"},{"name":"amount","type":"uint256","internalType":"uint256"}],"outputs":[],"stateMutability":"nonpayable"},{"type":"function","name":"name","inputs":[],"outputs":[{"name":"","type":"string","internalType":"string"}],"stateMutability":"view"},{"type":"function","name":"pause","inputs":[],"outputs":[],"stateMutability":"nonpayable"},{"type":"function","name":"paused","inputs":[],"outputs":[{"name":"","type":"bool","internalType":"bool"}],"stateMutability":"view"},{"type":"function","name":"register","inputs":[{"name":"_user","type":"address","internalType":"address"},{"name":"_userType","type":"string","internalType":"string"}],"outputs":[],"stateMutability":"nonpayable"},{"type":"function","name":"release","inputs":[{"name":"_address","type":"address","internalType":"address"},{"name":"amountToRelease","type":"uint256","internalType":"uint256"}],"outputs":[{"name":"","type":"bool","internalType":"bool"}],"stateMutability":"nonpayable"},{"type":"function","name":"renounceRole","inputs":[{"name":"role","type":"bytes32","internalType":"bytes32"},{"name":"callerConfirmation","type":"address","internalType":"address"}],"outputs":[],"stateMutability":"nonpayable"},{"type":"function","name":"revoke","inputs":[{"name":"_from","type":"address","internalType":"address"},{"name":"_amount","type":"uint256","internalType":"uint256"}],"outputs":[{"name":"","type":"bool","internalType":"bool"}],"stateMutability":"nonpayable"},{"type":"function","name":"revokeRole","inputs":[{"name":"role","type":"bytes32","internalType":"bytes32"},{"name":"account","type":"address","internalType":"address"}],"outputs":[],"stateMutability":"nonpayable"},{"type":"function","name":"setWhitelist","inputs":[{"name":"to","type":"address","internalType":"address"},{"name":"status","type":"bool","internalType":"bool"},{"name":"data","type":"string","internalType":"string"}],"outputs":[{"name":"","type":"bool","internalType":"bool"}],"stateMutability":"nonpayable"},{"type":"function","name":"supportsInterface","inputs":[{"name":"interfaceId","type":"bytes4","internalType":"bytes4"}],"outputs":[{"name":"","type":"bool","internalType":"bool"}],"stateMutability":"view"},{"type":"function","name":"symbol","inputs":[],"outputs":[{"name":"","type":"string","internalType":"string"}],"stateMutability":"view"},{"type":"function","name":"totalSupply","inputs":[],"outputs":[{"name":"","type":"uint256","internalType":"uint256"}],"stateMutability":"view"},{"type":"function","name":"transfer","inputs":[{"name":"to","type":"address","internalType":"address"},{"name":"value","type":"uint256","internalType":"uint256"}],"outputs":[{"name":"success","type":"bool","internalType":"bool"}],"stateMutability":"nonpayable"},{"type":"function","name":"transferFrom","inputs":[{"name":"from","type":"address","internalType":"address"},{"name":"to","type":"address","internalType":"address"},{"name":"value","type":"uint256","internalType":"uint256"}],"outputs":[{"name":"success","type":"bool","internalType":"bool"}],"stateMutability":"nonpayable"},{"type":"function","name":"unpause","inputs":[],"outputs":[],"stateMutability":"nonpayable"},{"type":"function","name":"updateTransferRestrictions","inputs":[{"name":"_newRestrictionsAddress","type":"address","internalType":"address"}],"outputs":[{"name":"","type":"bool","internalType":"bool"}],"stateMutability":"nonpayable"},{"type":"function","name":"whitelist","inputs":[{"name":"","type":"address","internalType":"address"}],"outputs":[{"name":"status","type":"bool","internalType":"bool"},{"name":"data","type":"string","internalType":"string"}],"stateMutability":"view"},{"type":"event","name":"AccountLock","inputs":[{"name":"_address","type":"address","indexed":true,"internalType":"address"},{"name":"amount","type":"uint256","indexed":false,"internalType":"uint256"},{"name":"releaseTime","type":"uint256","indexed":false,"internalType":"uint256"}],"anonymous":false},{"type":"event","name":"AccountRelease","inputs":[{"name":"_address","type":"address","indexed":true,"internalType":"address"},{"name":"amount","type":"uint256","indexed":false,"internalType":"uint256"}],"anonymous":false},{"type":"event","name":"Approval","inputs":[{"name":"owner","type":"address","indexed":true,"internalType":"address"},{"name":"spender","type":"address","indexed":true,"internalType":"address"},{"name":"value","type":"uint256","indexed":false,"internalType":"uint256"}],"anonymous":false},{"type":"event","name":"Paused","inputs":[{"name":"account","type":"address","indexed":false,"internalType":"address"}],"anonymous":false},{"type":"event","name":"RestrictionsUpdated","inputs":[{"name":"newRestrictionsAddress","type":"address","indexed":false,"internalType":"address"},{"name":"updatedBy","type":"address","indexed":false,"internalType":"address"}],"anonymous":false},{"type":"event","name":"Revoke","inputs":[{"name":"revoker","type":"address","indexed":true,"internalType":"address"},{"name":"from","type":"address","indexed":true,"internalType":"address"},{"name":"amount","type":"uint256","indexed":false,"internalType":"uint256"}],"anonymous":false},{"type":"event","name":"RoleAdminChanged","inputs":[{"name":"role","type":"bytes32","indexed":true,"internalType":"bytes32"},{"name":"previousAdminRole","type":"bytes32","indexed":true,"internalType":"bytes32"},{"name":"newAdminRole","type":"bytes32","indexed":true,"internalType":"bytes32"}],"anonymous":false},{"type":"event","name":"RoleGranted","inputs":[{"name":"role","type":"bytes32","indexed":true,"internalType":"bytes32"},{"name":"account","type":"address","indexed":true,"internalType":"address"},{"name":"sender","type":"address","indexed":true,"internalType":"address"}],"anonymous":false},{"type":"event","name":"RoleRevoked","inputs":[{"name":"role","type":"bytes32","indexed":true,"internalType":"bytes32"},{"name":"account","type":"address","indexed":true,"internalType":"address"},{"name":"sender","type":"address","indexed":true,"internalType":"address"}],"anonymous":false},{"type":"event","name":"Transfer","inputs":[{"name":"from","type":"address","indexed":true,"internalType":"address"},{"name":"to","type":"address","indexed":true,"internalType":"address"},{"name":"value","type":"uint256","indexed":false,"internalType":"uint256"}],"anonymous":false},{"type":"event","name":"Unpaused","inputs":[{"name":"account","type":"address","indexed":false,"internalType":"address"}],"anonymous":false},{"type":"event","name":"UserRegistered","inputs":[{"name":"user","type":"address","indexed":true,"internalType":"address"},{"name":"userType","type":"string","indexed":false,"internalType":"string"}],"anonymous":false},{"type":"event","name":"WhitelistUpdate","inputs":[{"name":"_address","type":"address","indexed":false,"internalType":"address"},{"name":"status","type":"bool","indexed":false,"internalType":"bool"},{"name":"data","type":"string","indexed":false,"internalType":"string"}],"anonymous":false},{"type":"error","name":"AccessControlBadConfirmation","inputs":[]},{"type":"error","name":"AccessControlUnauthorizedAccount","inputs":[{"name":"account","type":"address","internalType":"address"},{"name":"neededRole","type":"bytes32","internalType":"bytes32"}]},{"type":"error","name":"ERC20InsufficientAllowance","inputs":[{"name":"spender","type":"address","internalType":"address"},{"name":"allowance","type":"uint256","internalType":"uint256"},{"name":"needed","type":"uint256","internalType":"uint256"}]},{"type":"error","name":"ERC20InsufficientBalance","inputs":[{"name":"sender","type":"address","internalType":"address"},{"name":"balance","type":"uint256","internalType":"uint256"},{"name":"needed","type":"uint256","internalType":"uint256"}]},{"type":"error","name":"ERC20InvalidApprover","inputs":[{"name":"approver","type":"address","internalType":"address"}]},{"type":"error","name":"ERC20InvalidReceiver","inputs":[{"name":"receiver","type":"address","internalType":"address"}]},{"type":"error","name":"ERC20InvalidSender","inputs":[{"name":"sender","type":"address","internalType":"address"}]},{"type":"error","name":"ERC20InvalidSpender","inputs":[{"name":"spender","type":"address","internalType":"address"}]},{"type":"error","name":"EnforcedPause","inputs":[]},{"type":"error","name":"ExpectedPause","inputs":[]}],"bytecode":{"object":"0x60806040523480156200001157600080fd5b5060405162002acf38038062002acf83398101604081905262000034916200023a565b60405180604001604052806006815260200165282927aa27a760d11b8152506040518060400160405280600481526020016328292a2760e11b81525081600390816200008191906200034f565b5060046200009082826200034f565b50506008805460ff1916905550620000c97f8e011e025847d9fd71c1d4698fcea4a047c303cb00ecc469fcc698787446e0f3836200016a565b50620000d76000866200016a565b50620001047f65d7a28e3265b37a6474929f336521b332c1681b933f6cb9f3376673440d862a856200016a565b50620001317f9f2df0fed2c77648de5860a4cc508cd0818c85b8b8a1ab4ceeef8d981c8956a6846200016a565b506200015e7f8619cecd8b9e095ab43867f5b69d492180450fe862e6b50bfbfb24b75dd84c8a826200016a565b5050505050506200041b565b60008281526005602090815260408083206001600160a01b038516845290915281205460ff16620002135760008381526005602090815260408083206001600160a01b03861684529091529020805460ff19166001179055620001ca3390565b6001600160a01b0316826001600160a01b0316847f2f8788117e7eff1d82e926ec794901d17c78024a50270940304540a733656f0d60405160405180910390a450600162000217565b5060005b92915050565b80516001600160a01b03811681146200023557600080fd5b919050565b600080600080600060a086880312156200025357600080fd5b6200025e866200021d565b94506200026e602087016200021d565b93506200027e604087016200021d565b92506200028e606087016200021d565b91506200029e608087016200021d565b90509295509295909350565b634e487b7160e01b600052604160045260246000fd5b600181811c90821680620002d557607f821691505b602082108103620002f657634e487b7160e01b600052602260045260246000fd5b50919050565b601f8211156200034a57600081815260208120601f850160051c81016020861015620003255750805b601f850160051c820191505b81811015620003465782815560010162000331565b5050505b505050565b81516001600160401b038111156200036b576200036b620002aa565b62000383816200037c8454620002c0565b84620002fc565b602080601f831160018114620003bb5760008415620003a25750858301515b600019600386901b1c1916600185901b17855562000346565b600085815260208120601f198616915b82811015620003ec57888601518255948401946001909101908401620003cb565b50858210156200040b5787850151600019600388901b60f8161c191681555b5050505050600190811b01905550565b6126a4806200042b6000396000f3fe608060405234801561001057600080fd5b50600436106102745760003560e01c80638456cb5911610151578063c697e4a3116100c3578063d9ba32fc11610087578063d9ba32fc146105e8578063db0cc92a14610614578063dd62ed3e14610627578063e2ab691d14610660578063e63ab1e914610673578063eac449d91461069a57600080fd5b8063c697e4a314610560578063c93d0b1e14610573578063d4ce14151461059b578063d5391393146105ae578063d547741f146105d557600080fd5b806399da091d1161011557806399da091d146104d15780639b19251a146104fe5780639dc29fac1461051f578063a217fddf14610532578063a9059cbb1461053a578063c3c5a5471461054d57600080fd5b80638456cb59146104885780638b3f863f1461049057806391d14854146104a3578063929ec537146104b657806395d89b41146104c957600080fd5b806332434a2e116101ea5780635c975abb116101ae5780635c975abb146103e05780636626ffca146103eb57806368aa9813146104125780636dc5d2481461042557806370a082311461044c5780637f4ab1dd1461047557600080fd5b806332434a2e1461037857806336568abe1461038b5780633f4ba83a1461039e57806340c10f19146103a6578063570618e1146103b957600080fd5b806318160ddd1161023c57806318160ddd1461030157806323b872dd14610313578063248a9ca31461032657806327ac1975146103495780632f2ff15d1461035c578063313ce5671461037157600080fd5b806301ffc9a7146102795780630357371d146102a157806306fdde03146102b45780630754cede146102c9578063095ea7b3146102ee575b600080fd5b61028c610287366004611ea4565b6106ad565b60405190151581526020015b60405180910390f35b61028c6102af366004611eea565b6106e4565b6102bc61090d565b6040516102989190611f64565b6102dc6102d7366004611f77565b61099f565b60405160ff9091168152602001610298565b61028c6102fc366004611eea565b610a58565b6002545b604051908152602001610298565b61028c610321366004611fc2565b610a70565b610305610334366004611ffe565b60009081526005602052604090206001015490565b61028c610357366004612086565b610c2d565b61036f61036a36600461212e565b610cf2565b005b60126102dc565b61036f61038636600461215a565b610d1d565b61036f61039936600461212e565b610e33565b61036f610e6b565b61036f6103b4366004611eea565b610ea0565b6103057f8619cecd8b9e095ab43867f5b69d492180450fe862e6b50bfbfb24b75dd84c8a81565b60085460ff1661028c565b6103057f8e011e025847d9fd71c1d4698fcea4a047c303cb00ecc469fcc698787446e0f381565b6102bc6104203660046121dd565b610ed4565b6103057f518a492b51bf88c1be675ab97647d88d770fcd201b74de363b9b137e6d641b2081565b61030561045a3660046121dd565b6001600160a01b031660009081526020819052604090205490565b6102bc610483366004612207565b610f83565b61036f610ff7565b6102bc61049e3660046121dd565b611029565b61028c6104b136600461212e565b611050565b6103056104c43660046121dd565b61107b565b6102bc611118565b61028c6104df366004612224565b506001600160a01b031660009081526006602052604090205460ff1690565b61051161050c3660046121dd565b611127565b60405161029892919061224e565b61028c61052d366004611eea565b6111d0565b610305600081565b61028c610548366004611eea565b6111e6565b61028c61055b3660046121dd565b611394565b61028c61056e366004612269565b6113c0565b610586610581366004611eea565b6113fb565b60408051928352602083019190915201610298565b6102dc6105a9366004611fc2565b611437565b6103057f9f2df0fed2c77648de5860a4cc508cd0818c85b8b8a1ab4ceeef8d981c8956a681565b61036f6105e336600461212e565b6114e7565b61028c6105f63660046121dd565b6001600160a01b031660009081526006602052604090205460ff1690565b61028c6106223660046121dd565b61150c565b610305610635366004612224565b6001600160a01b03918216600090815260016020908152604080832093909416825291909152205490565b61028c61066e366004612269565b611579565b6103057f65d7a28e3265b37a6474929f336521b332c1681b933f6cb9f3376673440d862a81565b61028c6106a8366004611eea565b611586565b60006001600160e01b03198216637965db0b60e01b14806106de57506301ffc9a760e01b6001600160e01b03198316145b92915050565b60007f518a492b51bf88c1be675ab97647d88d770fcd201b74de363b9b137e6d641b20610710816115e7565b6001600160a01b03841661075d5760405162461bcd60e51b815260206004820152600f60248201526e496e76616c6964206164647265737360881b60448201526064015b60405180910390fd5b6001600160a01b0384166000908152600760205260408120815b81548110156108bd57428282815481106107935761079361229c565b906000526020600020906002020160010154111580156107b257508583105b156108ab5760006107c384886122c8565b9050808383815481106107d8576107d861229c565b9060005260206000209060020201600001541161084a578282815481106108015761080161229c565b9060005260206000209060020201600001548461081e91906122db565b935060008383815481106108345761083461229c565b60009182526020909120600290910201556108a9565b8083838154811061085d5761085d61229c565b90600052602060002090600202016000015461087991906122c8565b83838154811061088b5761088b61229c565b60009182526020909120600290910201556108a681856122db565b93505b505b806108b5816122ee565b915050610777565b50856001600160a01b03167f784c9f4cec58b38461217a62f8f9c0f2cac7b46c0ed23bd1a7f4a5376ac787e1836040516108f991815260200190565b60405180910390a250600195945050505050565b60606003805461091c90612307565b80601f016020809104026020016040519081016040528092919081815260200182805461094890612307565b80156109955780601f1061096a57610100808354040283529160200191610995565b820191906000526020600020905b81548152906001019060200180831161097857829003601f168201915b5050505050905090565b600a546000906001600160a01b03166109ca5760405162461bcd60e51b81526004016107549061233b565b600a546040516303aa676f60e11b81526001600160a01b038781166004830152868116602483015285811660448301526064820185905290911690630754cede90608401602060405180830381865afa158015610a2b573d6000803e3d6000fd5b505050506040513d601f19601f82011682018060405250810190610a4f9190612384565b95945050505050565b600033610a668185856115f1565b5060019392505050565b600a546040516303aa676f60e11b815233600482018190526001600160a01b038087166024840152808616604484015260648301859052600093919287928792879287929190911690630754cede90608401602060405180830381865afa158015610adf573d6000803e3d6000fd5b505050506040513d601f19601f82011682018060405250810190610b039190612384565b9050600a60009054906101000a90046001600160a01b03166001600160a01b0316635ec647596040518163ffffffff1660e01b8152600401602060405180830381865afa158015610b58573d6000803e3d6000fd5b505050506040513d601f19601f82011682018060405250810190610b7c91906123a1565b600a54604051637f4ab1dd60e01b815260ff84166004820181905292909214916001600160a01b0390911690637f4ab1dd90602401600060405180830381865afa158015610bce573d6000803e3d6000fd5b505050506040513d6000823e601f3d908101601f19168201604052610bf691908101906123ba565b90610c145760405162461bcd60e51b81526004016107549190611f64565b50610c208989896115fe565b9998505050505050505050565b60007f8619cecd8b9e095ab43867f5b69d492180450fe862e6b50bfbfb24b75dd84c8a610c59816115e7565b604080518082018252851515815260208082018681526001600160a01b038916600090815260069092529290208151815460ff191690151517815591519091906001820190610ca89082612476565b509050507f461193ae6c23672174f7a3ea35649aacdc857bfcae58cd12d61ea432c05bcbd5858585604051610cdf93929190612536565b60405180910390a1506001949350505050565b600082815260056020526040902060010154610d0d816115e7565b610d178383611622565b50505050565b7f8e011e025847d9fd71c1d4698fcea4a047c303cb00ecc469fcc698787446e0f3610d47816115e7565b610d8683838080601f0160208091040260200160405190810160405280939291908181526020018383808284376000920191909152506116b692505050565b610dc65760405162461bcd60e51b8152602060048201526011602482015270496e76616c69642075736572207479706560781b6044820152606401610754565b6001600160a01b0384166000908152600960205260409020610de9838583612562565b50836001600160a01b03167f48cac28ad4dc618e15f4c2dd5e97751182f166de97b25618318b2112aa951a2f8484604051610e25929190612623565b60405180910390a250505050565b6001600160a01b0381163314610e5c5760405163334bd91960e11b815260040160405180910390fd5b610e668282611892565b505050565b7f65d7a28e3265b37a6474929f336521b332c1681b933f6cb9f3376673440d862a610e95816115e7565b610e9d6118ff565b50565b7f9f2df0fed2c77648de5860a4cc508cd0818c85b8b8a1ab4ceeef8d981c8956a6610eca816115e7565b610e668383611951565b6001600160a01b0381166000908152600660205260409020600101805460609190610efe90612307565b80601f0160208091040260200160405190810160405280929190818152602001828054610f2a90612307565b8015610f775780601f10610f4c57610100808354040283529160200191610f77565b820191906000526020600020905b815481529060010190602001808311610f5a57829003601f168201915b50505050509050919050565b600a54604051637f4ab1dd60e01b815260ff831660048201526060916001600160a01b031690637f4ab1dd90602401600060405180830381865afa158015610fcf573d6000803e3d6000fd5b505050506040513d6000823e601f3d908101601f191682016040526106de91908101906123ba565b7f65d7a28e3265b37a6474929f336521b332c1681b933f6cb9f3376673440d862a611021816115e7565b610e9d61198b565b6001600160a01b0381166000908152600960205260409020805460609190610efe90612307565b60009182526005602090815260408084206001600160a01b0393909316845291905290205460ff1690565b6001600160a01b03811660009081526007602052604081208190815b815481101561110f578181815481106110b2576110b261229c565b9060005260206000209060020201600101544210156110fd578181815481106110dd576110dd61229c565b906000526020600020906002020160000154836110fa91906122db565b92505b80611107816122ee565b915050611097565b50909392505050565b60606004805461091c90612307565b6006602052600090815260409020805460018201805460ff909216929161114d90612307565b80601f016020809104026020016040519081016040528092919081815260200182805461117990612307565b80156111c65780601f1061119b576101008083540402835291602001916111c6565b820191906000526020600020905b8154815290600101906020018083116111a957829003601f168201915b5050505050905082565b6000806111dc816115e7565b610a6684846119c8565b600a5460405163d4ce141560e01b815233600482018190526001600160a01b03808616602484015260448301859052600093919286928692869291169063d4ce141590606401602060405180830381865afa158015611249573d6000803e3d6000fd5b505050506040513d601f19601f8201168201806040525081019061126d9190612384565b9050600a60009054906101000a90046001600160a01b03166001600160a01b0316635ec647596040518163ffffffff1660e01b8152600401602060405180830381865afa1580156112c2573d6000803e3d6000fd5b505050506040513d601f19601f820116820180604052508101906112e691906123a1565b600a54604051637f4ab1dd60e01b815260ff84166004820181905292909214916001600160a01b0390911690637f4ab1dd90602401600060405180830381865afa158015611338573d6000803e3d6000fd5b505050506040513d6000823e601f3d908101601f1916820160405261136091908101906123ba565b9061137e5760405162461bcd60e51b81526004016107549190611f64565b5061138987876119fe565b979650505050505050565b6001600160a01b038116600090815260096020526040812080546113b790612307565b15159392505050565b6000806113cc8561107b565b9050838310156113e05760009150506113f4565b60006113ec82856122db565b851115925050505b9392505050565b6007602052816000526040600020818154811061141757600080fd5b600091825260209091206002909102018054600190910154909250905082565b600a546000906001600160a01b03166114625760405162461bcd60e51b81526004016107549061233b565b600a5460405163d4ce141560e01b81526001600160a01b0386811660048301528581166024830152604482018590529091169063d4ce141590606401602060405180830381865afa1580156114bb573d6000803e3d6000fd5b505050506040513d601f19601f820116820180604052508101906114df9190612384565b949350505050565b600082815260056020526040902060010154611502816115e7565b610d178383611892565b600080611518816115e7565b600a80546001600160a01b0319166001600160a01b038516908117909155604080519182523360208301527f6c0cb4cdcdbedb9d71fdb2e31e3ad5a42fc2cffc2642730034017c04192e3afe910160405180910390a1600191505b50919050565b6000610a66848484611a0c565b600080611592816115e7565b61159d843385611b33565b6040518381526001600160a01b0385169033907fb698e31a2abee5824d0d7bcfd2339aead7f9e9ae413fba50bf554ff3fa470b7b9060200160405180910390a35060019392505050565b610e9d8133611b92565b610e668383836001611bcb565b60003361160c858285611ca0565b611617858585611b33565b506001949350505050565b600061162e8383611050565b6116ae5760008381526005602090815260408083206001600160a01b03861684529091529020805460ff191660011790556116663390565b6001600160a01b0316826001600160a01b0316847f2f8788117e7eff1d82e926ec794901d17c78024a50270940304540a733656f0d60405160405180910390a45060016106de565b5060006106de565b6000604051806040016040528060058152602001644e6f6e555360d81b8152506040516020016116e69190612652565b604051602081830303815290604052805190602001208260405160200161170d9190612652565b60405160208183030381529060405280519060200120148061179c57506040518060400160405280600a8152602001691058d8dc99591a5d195960b21b81525060405160200161175d9190612652565b60405160208183030381529060405280519060200120826040516020016117849190612652565b60405160208183030381529060405280519060200120145b8061181257506040518060400160405280600881526020016710dbdb9d1c9858dd60c21b8152506040516020016117d39190612652565b60405160208183030381529060405280519060200120826040516020016117fa9190612652565b60405160208183030381529060405280519060200120145b806106de57506040518060400160405280600d81526020016c125b9cdd1a5d1d5d1a5bdb985b609a1b81525060405160200161184e9190612652565b60405160208183030381529060405280519060200120826040516020016118759190612652565b604051602081830303815290604052805190602001201492915050565b600061189e8383611050565b156116ae5760008381526005602090815260408083206001600160a01b0386168085529252808320805460ff1916905551339286917ff6391f5c32d9c69d2a47ea670b442974b53935d1edc7fd64eb21e047a839171b9190a45060016106de565b611907611d18565b6008805460ff191690557f5db9ee0a495bf2e6ff9c91a7834c1ba4fdd244a5e8aa4e537bd38aeae4b073aa335b6040516001600160a01b03909116815260200160405180910390a1565b6001600160a01b03821661197b5760405163ec442f0560e01b815260006004820152602401610754565b61198760008383611d3d565b5050565b611993611d48565b6008805460ff191660011790557f62e78cea01bee320cd4e420270b5ea74000d11b0c9f74754ebdbfc544b05a2586119343390565b6001600160a01b0382166119f257604051634b637e8f60e11b815260006004820152602401610754565b61198782600083611d3d565b600033610a66818585611b33565b428111611a5b5760405162461bcd60e51b815260206004820152601a60248201527f52656c656173652074696d6520696e20746865206675747572650000000000006044820152606401610754565b6001600160a01b038316611aa95760405162461bcd60e51b81526020600482015260156024820152741059191c995cdcc81b5d5cdd081899481d985b1a59605a1b6044820152606401610754565b6001600160a01b03831660008181526007602090815260408083208151808301835287815280840187815282546001808201855593875295859020915160029096029091019485555193019290925581518581529081018490527fd204e81d84b52b5a19d16a46f86c9a7d66d37c207b982c21d8d1810757b61bae910160405180910390a2505050565b6001600160a01b038316611b5d57604051634b637e8f60e11b815260006004820152602401610754565b6001600160a01b038216611b875760405163ec442f0560e01b815260006004820152602401610754565b610e66838383611d3d565b611b9c8282611050565b6119875760405163e2517d3f60e01b81526001600160a01b038216600482015260248101839052604401610754565b6001600160a01b038416611bf55760405163e602df0560e01b815260006004820152602401610754565b6001600160a01b038316611c1f57604051634a1406b160e11b815260006004820152602401610754565b6001600160a01b0380851660009081526001602090815260408083209387168352929052208290558015610d1757826001600160a01b0316846001600160a01b03167f8c5be1e5ebec7d5bd14f71427d1e84f3dd0314c0f7b2291e5b200ac8c7c3b92584604051611c9291815260200190565b60405180910390a350505050565b6001600160a01b038381166000908152600160209081526040808320938616835292905220546000198114610d175781811015611d0957604051637dc7a0d960e11b81526001600160a01b03841660048201526024810182905260448101839052606401610754565b610d1784848484036000611bcb565b60085460ff16611d3b57604051638dfc202b60e01b815260040160405180910390fd5b565b610e66838383611d6c565b60085460ff1615611d3b5760405163d93c066560e01b815260040160405180910390fd5b611d74611d48565b610e668383836001600160a01b038316611da5578060026000828254611d9a91906122db565b90915550611e179050565b6001600160a01b03831660009081526020819052604090205481811015611df85760405163391434e360e21b81526001600160a01b03851660048201526024810182905260448101839052606401610754565b6001600160a01b03841660009081526020819052604090209082900390555b6001600160a01b038216611e3357600280548290039055611e52565b6001600160a01b03821660009081526020819052604090208054820190555b816001600160a01b0316836001600160a01b03167fddf252ad1be2c89b69c2b068fc378daa952ba7f163c4a11628f55a4df523b3ef83604051611e9791815260200190565b60405180910390a3505050565b600060208284031215611eb657600080fd5b81356001600160e01b0319811681146113f457600080fd5b80356001600160a01b0381168114611ee557600080fd5b919050565b60008060408385031215611efd57600080fd5b611f0683611ece565b946020939093013593505050565b60005b83811015611f2f578181015183820152602001611f17565b50506000910152565b60008151808452611f50816020860160208601611f14565b601f01601f19169290920160200192915050565b6020815260006113f46020830184611f38565b60008060008060808587031215611f8d57600080fd5b611f9685611ece565b9350611fa460208601611ece565b9250611fb260408601611ece565b9396929550929360600135925050565b600080600060608486031215611fd757600080fd5b611fe084611ece565b9250611fee60208501611ece565b9150604084013590509250925092565b60006020828403121561201057600080fd5b5035919050565b634e487b7160e01b600052604160045260246000fd5b604051601f8201601f1916810167ffffffffffffffff8111828210171561205657612056612017565b604052919050565b600067ffffffffffffffff82111561207857612078612017565b50601f01601f191660200190565b60008060006060848603121561209b57600080fd5b6120a484611ece565b9250602084013580151581146120b957600080fd5b9150604084013567ffffffffffffffff8111156120d557600080fd5b8401601f810186136120e657600080fd5b80356120f96120f48261205e565b61202d565b81815287602083850101111561210e57600080fd5b816020840160208301376000602083830101528093505050509250925092565b6000806040838503121561214157600080fd5b8235915061215160208401611ece565b90509250929050565b60008060006040848603121561216f57600080fd5b61217884611ece565b9250602084013567ffffffffffffffff8082111561219557600080fd5b818601915086601f8301126121a957600080fd5b8135818111156121b857600080fd5b8760208285010111156121ca57600080fd5b6020830194508093505050509250925092565b6000602082840312156121ef57600080fd5b6113f482611ece565b60ff81168114610e9d57600080fd5b60006020828403121561221957600080fd5b81356113f4816121f8565b6000806040838503121561223757600080fd5b61224083611ece565b915061215160208401611ece565b82151581526040602082015260006114df6040830184611f38565b60008060006060848603121561227e57600080fd5b61228784611ece565b95602085013595506040909401359392505050565b634e487b7160e01b600052603260045260246000fd5b634e487b7160e01b600052601160045260246000fd5b818103818111156106de576106de6122b2565b808201808211156106de576106de6122b2565b600060018201612300576123006122b2565b5060010190565b600181811c9082168061231b57607f821691505b60208210810361157357634e487b7160e01b600052602260045260246000fd5b60208082526029908201527f5472616e736665725265737472696374696f6e7320636f6e7472616374206d756040820152681cdd081899481cd95d60ba1b606082015260800190565b60006020828403121561239657600080fd5b81516113f4816121f8565b6000602082840312156123b357600080fd5b5051919050565b6000602082840312156123cc57600080fd5b815167ffffffffffffffff8111156123e357600080fd5b8201601f810184136123f457600080fd5b80516124026120f48261205e565b81815285602083850101111561241757600080fd5b610a4f826020830160208601611f14565b601f821115610e6657600081815260208120601f850160051c8101602086101561244f5750805b601f850160051c820191505b8181101561246e5782815560010161245b565b505050505050565b815167ffffffffffffffff81111561249057612490612017565b6124a48161249e8454612307565b84612428565b602080601f8311600181146124d957600084156124c15750858301515b600019600386901b1c1916600185901b17855561246e565b600085815260208120601f198616915b82811015612508578886015182559484019460019091019084016124e9565b50858210156125265787850151600019600388901b60f8161c191681555b5050505050600190811b01905550565b6001600160a01b03841681528215156020820152606060408201819052600090610a4f90830184611f38565b67ffffffffffffffff83111561257a5761257a612017565b61258e836125888354612307565b83612428565b6000601f8411600181146125c257600085156125aa5750838201355b600019600387901b1c1916600186901b17835561261c565b600083815260209020601f19861690835b828110156125f357868501358255602094850194600190920191016125d3565b50868210156126105760001960f88860031b161c19848701351681555b505060018560011b0183555b5050505050565b60208152816020820152818360408301376000818301604090810191909152601f909201601f19160101919050565b60008251612664818460208701611f14565b919091019291505056fea264697066735822122094b131eb68ad4ae21c9b25a3002b2d99409de5ce842de8626156457e3ebcb4b664736f6c63430008140033","linkReferences":{}},"methodIdentifiers":{"DEFAULT_ADMIN_ROLE()":"a217fddf","MINTER_ROLE()":"d5391393","PAUSER_ROLE()":"e63ab1e9","TIMELOCKER_ROLE()":"6dc5d248","USER_REGISTRAR_ROLE()":"6626ffca","WHITELISTER_ROLE()":"570618e1","allowance(address,address)":"dd62ed3e","approve(address,uint256)":"095ea7b3","balanceOf(address)":"70a08231","burn(address,uint256)":"9dc29fac","checkTimelock(address,uint256,uint256)":"c697e4a3","checkWhitelists(address,address)":"99da091d","decimals()":"313ce567","detectTransferFromRestriction(address,address,address,uint256)":"0754cede","detectTransferRestriction(address,address,uint256)":"d4ce1415","getLockedAmount(address)":"929ec537","getRoleAdmin(bytes32)":"248a9ca3","getUserType(address)":"8b3f863f","getWhitelistData(address)":"68aa9813","getWhitelistStatus(address)":"d9ba32fc","grantRole(bytes32,address)":"2f2ff15d","hasRole(bytes32,address)":"91d14854","isRegistered(address)":"c3c5a547","lock(address,uint256,uint256)":"e2ab691d","lockups(address,uint256)":"c93d0b1e","messageForTransferRestriction(uint8)":"7f4ab1dd","mint(address,uint256)":"40c10f19","name()":"06fdde03","pause()":"8456cb59","paused()":"5c975abb","register(address,string)":"32434a2e","release(address,uint256)":"0357371d","renounceRole(bytes32,address)":"36568abe","revoke(address,uint256)":"eac449d9","revokeRole(bytes32,address)":"d547741f","setWhitelist(address,bool,string)":"27ac1975","supportsInterface(bytes4)":"01ffc9a7","symbol()":"95d89b41","totalSupply()":"18160ddd","transfer(address,uint256)":"a9059cbb","transferFrom(address,address,uint256)":"23b872dd","unpause()":"3f4ba83a","updateTransferRestrictions(address)":"db0cc92a","whitelist(address)":"9b19251a"},"id":41}