{"abi":[{"type":"function","name":"DEFAULT_ADMIN_ROLE","inputs":[],"outputs":[{"name":"","type":"bytes32","internalType":"bytes32"}],"stateMutability":"view"},{"type":"function","name":"TIMELOCKER_ROLE","inputs":[],"outputs":[{"name":"","type":"bytes32","internalType":"bytes32"}],"stateMutability":"view"},{"type":"function","name":"checkTimelock","inputs":[{"name":"_address","type":"address","internalType":"address"},{"name":"amount","type":"uint256","internalType":"uint256"},{"name":"balance","type":"uint256","internalType":"uint256"}],"outputs":[{"name":"","type":"bool","internalType":"bool"}],"stateMutability":"view"},{"type":"function","name":"getLockedAmount","inputs":[{"name":"_address","type":"address","internalType":"address"}],"outputs":[{"name":"","type":"uint256","internalType":"uint256"}],"stateMutability":"view"},{"type":"function","name":"getRoleAdmin","inputs":[{"name":"role","type":"bytes32","internalType":"bytes32"}],"outputs":[{"name":"","type":"bytes32","internalType":"bytes32"}],"stateMutability":"view"},{"type":"function","name":"grantRole","inputs":[{"name":"role","type":"bytes32","internalType":"bytes32"},{"name":"account","type":"address","internalType":"address"}],"outputs":[],"stateMutability":"nonpayable"},{"type":"function","name":"hasRole","inputs":[{"name":"role","type":"bytes32","internalType":"bytes32"},{"name":"account","type":"address","internalType":"address"}],"outputs":[{"name":"","type":"bool","internalType":"bool"}],"stateMutability":"view"},{"type":"function","name":"lock","inputs":[{"name":"_address","type":"address","internalType":"address"},{"name":"amount","type":"uint256","internalType":"uint256"},{"name":"releaseTime","type":"uint256","internalType":"uint256"}],"outputs":[{"name":"","type":"bool","internalType":"bool"}],"stateMutability":"nonpayable"},{"type":"function","name":"lockups","inputs":[{"name":"","type":"address","internalType":"address"},{"name":"","type":"uint256","internalType":"uint256"}],"outputs":[{"name":"amount","type":"uint256","internalType":"uint256"},{"name":"releaseTime","type":"uint256","internalType":"uint256"}],"stateMutability":"view"},{"type":"function","name":"release","inputs":[{"name":"_address","type":"address","internalType":"address"},{"name":"amountToRelease","type":"uint256","internalType":"uint256"}],"outputs":[{"name":"","type":"bool","internalType":"bool"}],"stateMutability":"nonpayable"},{"type":"function","name":"renounceRole","inputs":[{"name":"role","type":"bytes32","internalType":"bytes32"},{"name":"callerConfirmation","type":"address","internalType":"address"}],"outputs":[],"stateMutability":"nonpayable"},{"type":"function","name":"revokeRole","inputs":[{"name":"role","type":"bytes32","internalType":"bytes32"},{"name":"account","type":"address","internalType":"address"}],"outputs":[],"stateMutability":"nonpayable"},{"type":"function","name":"supportsInterface","inputs":[{"name":"interfaceId","type":"bytes4","internalType":"bytes4"}],"outputs":[{"name":"","type":"bool","internalType":"bool"}],"stateMutability":"view"},{"type":"event","name":"AccountLock","inputs":[{"name":"_address","type":"address","indexed":true,"internalType":"address"},{"name":"amount","type":"uint256","indexed":false,"internalType":"uint256"},{"name":"releaseTime","type":"uint256","indexed":false,"internalType":"uint256"}],"anonymous":false},{"type":"event","name":"AccountRelease","inputs":[{"name":"_address","type":"address","indexed":true,"internalType":"address"},{"name":"amount","type":"uint256","indexed":false,"internalType":"uint256"}],"anonymous":false},{"type":"event","name":"RoleAdminChanged","inputs":[{"name":"role","type":"bytes32","indexed":true,"internalType":"bytes32"},{"name":"previousAdminRole","type":"bytes32","indexed":true,"internalType":"bytes32"},{"name":"newAdminRole","type":"bytes32","indexed":true,"internalType":"bytes32"}],"anonymous":false},{"type":"event","name":"RoleGranted","inputs":[{"name":"role","type":"bytes32","indexed":true,"internalType":"bytes32"},{"name":"account","type":"address","indexed":true,"internalType":"address"},{"name":"sender","type":"address","indexed":true,"internalType":"address"}],"anonymous":false},{"type":"event","name":"RoleRevoked","inputs":[{"name":"role","type":"bytes32","indexed":true,"internalType":"bytes32"},{"name":"account","type":"address","indexed":true,"internalType":"address"},{"name":"sender","type":"address","indexed":true,"internalType":"address"}],"anonymous":false},{"type":"error","name":"AccessControlBadConfirmation","inputs":[]},{"type":"error","name":"AccessControlUnauthorizedAccount","inputs":[{"name":"account","type":"address","internalType":"address"},{"name":"neededRole","type":"bytes32","internalType":"bytes32"}]}],"bytecode":{"object":"0x608060405234801561001057600080fd5b50610a6b806100206000396000f3fe608060405234801561001057600080fd5b50600436106100cf5760003560e01c806391d148541161008c578063c697e4a311610066578063c697e4a3146101bd578063c93d0b1e146101d0578063d547741f146101f8578063e2ab691d1461020b57600080fd5b806391d148541461018f578063929ec537146101a2578063a217fddf146101b557600080fd5b806301ffc9a7146100d45780630357371d146100fc578063248a9ca31461010f5780632f2ff15d1461014057806336568abe146101555780636dc5d24814610168575b600080fd5b6100e76100e23660046108c7565b61021e565b60405190151581526020015b60405180910390f35b6100e761010a36600461090d565b610255565b61013261011d366004610937565b60009081526020819052604090206001015490565b6040519081526020016100f3565b61015361014e366004610950565b61047e565b005b610153610163366004610950565b6104a9565b6101327f518a492b51bf88c1be675ab97647d88d770fcd201b74de363b9b137e6d641b2081565b6100e761019d366004610950565b6104e1565b6101326101b036600461097c565b61050a565b610132600081565b6100e76101cb366004610997565b6105a7565b6101e36101de36600461090d565b6105e2565b604080519283526020830191909152016100f3565b610153610206366004610950565b61061e565b6100e7610219366004610997565b610643565b60006001600160e01b03198216637965db0b60e01b148061024f57506301ffc9a760e01b6001600160e01b03198316145b92915050565b60007f518a492b51bf88c1be675ab97647d88d770fcd201b74de363b9b137e6d641b206102818161065a565b6001600160a01b0384166102ce5760405162461bcd60e51b815260206004820152600f60248201526e496e76616c6964206164647265737360881b60448201526064015b60405180910390fd5b6001600160a01b0384166000908152600160205260408120815b815481101561042e5742828281548110610304576103046109ca565b9060005260206000209060020201600101541115801561032357508583105b1561041c57600061033484886109f6565b905080838381548110610349576103496109ca565b906000526020600020906002020160000154116103bb57828281548110610372576103726109ca565b9060005260206000209060020201600001548461038f9190610a09565b935060008383815481106103a5576103a56109ca565b600091825260209091206002909102015561041a565b808383815481106103ce576103ce6109ca565b9060005260206000209060020201600001546103ea91906109f6565b8383815481106103fc576103fc6109ca565b60009182526020909120600290910201556104178185610a09565b93505b505b8061042681610a1c565b9150506102e8565b50856001600160a01b03167f784c9f4cec58b38461217a62f8f9c0f2cac7b46c0ed23bd1a7f4a5376ac787e18360405161046a91815260200190565b60405180910390a250600195945050505050565b6000828152602081905260409020600101546104998161065a565b6104a38383610667565b50505050565b6001600160a01b03811633146104d25760405163334bd91960e11b815260040160405180910390fd5b6104dc82826106f9565b505050565b6000918252602082815260408084206001600160a01b0393909316845291905290205460ff1690565b6001600160a01b03811660009081526001602052604081208190815b815481101561059e57818181548110610541576105416109ca565b90600052602060002090600202016001015442101561058c5781818154811061056c5761056c6109ca565b906000526020600020906002020160000154836105899190610a09565b92505b8061059681610a1c565b915050610526565b50909392505050565b6000806105b38561050a565b9050838310156105c75760009150506105db565b60006105d38285610a09565b851115925050505b9392505050565b600160205281600052604060002081815481106105fe57600080fd5b600091825260209091206002909102018054600190910154909250905082565b6000828152602081905260409020600101546106398161065a565b6104a383836106f9565b6000610650848484610764565b5060019392505050565b610664813361088a565b50565b600061067383836104e1565b6106f1576000838152602081815260408083206001600160a01b03861684529091529020805460ff191660011790556106a93390565b6001600160a01b0316826001600160a01b0316847f2f8788117e7eff1d82e926ec794901d17c78024a50270940304540a733656f0d60405160405180910390a450600161024f565b50600061024f565b600061070583836104e1565b156106f1576000838152602081815260408083206001600160a01b0386168085529252808320805460ff1916905551339286917ff6391f5c32d9c69d2a47ea670b442974b53935d1edc7fd64eb21e047a839171b9190a450600161024f565b4281116107b35760405162461bcd60e51b815260206004820152601a60248201527f52656c656173652074696d6520696e207468652066757475726500000000000060448201526064016102c5565b6001600160a01b0383166108015760405162461bcd60e51b81526020600482015260156024820152741059191c995cdcc81b5d5cdd081899481d985b1a59605a1b60448201526064016102c5565b6001600160a01b038316600081815260016020818152604080842081518083018352888152808401888152825480870184559287529584902090516002909202019081559351939092019290925580518581529182018490527fd204e81d84b52b5a19d16a46f86c9a7d66d37c207b982c21d8d1810757b61bae910160405180910390a2505050565b61089482826104e1565b6108c35760405163e2517d3f60e01b81526001600160a01b0382166004820152602481018390526044016102c5565b5050565b6000602082840312156108d957600080fd5b81356001600160e01b0319811681146105db57600080fd5b80356001600160a01b038116811461090857600080fd5b919050565b6000806040838503121561092057600080fd5b610929836108f1565b946020939093013593505050565b60006020828403121561094957600080fd5b5035919050565b6000806040838503121561096357600080fd5b82359150610973602084016108f1565b90509250929050565b60006020828403121561098e57600080fd5b6105db826108f1565b6000806000606084860312156109ac57600080fd5b6109b5846108f1565b95602085013595506040909401359392505050565b634e487b7160e01b600052603260045260246000fd5b634e487b7160e01b600052601160045260246000fd5b8181038181111561024f5761024f6109e0565b8082018082111561024f5761024f6109e0565b600060018201610a2e57610a2e6109e0565b506001019056fea2646970667358221220c6c941030b6712541ece9c5473b4586df4391f76336986df0ce53252f9c48e5264736f6c63430008140033","linkReferences":{}},"methodIdentifiers":{"DEFAULT_ADMIN_ROLE()":"a217fddf","TIMELOCKER_ROLE()":"6dc5d248","checkTimelock(address,uint256,uint256)":"c697e4a3","getLockedAmount(address)":"929ec537","getRoleAdmin(bytes32)":"248a9ca3","grantRole(bytes32,address)":"2f2ff15d","hasRole(bytes32,address)":"91d14854","lock(address,uint256,uint256)":"e2ab691d","lockups(address,uint256)":"c93d0b1e","release(address,uint256)":"0357371d","renounceRole(bytes32,address)":"36568abe","revokeRole(bytes32,address)":"d547741f","supportsInterface(bytes4)":"01ffc9a7"},"id":41}