{"abi":[{"type":"function","name":"DEFAULT_ADMIN_ROLE","inputs":[],"outputs":[{"name":"","type":"bytes32","internalType":"bytes32"}],"stateMutability":"view"},{"type":"function","name":"USER_REGISTRAR_ROLE","inputs":[],"outputs":[{"name":"","type":"bytes32","internalType":"bytes32"}],"stateMutability":"view"},{"type":"function","name":"getRoleAdmin","inputs":[{"name":"role","type":"bytes32","internalType":"bytes32"}],"outputs":[{"name":"","type":"bytes32","internalType":"bytes32"}],"stateMutability":"view"},{"type":"function","name":"getUserType","inputs":[{"name":"_user","type":"address","internalType":"address"}],"outputs":[{"name":"","type":"string","internalType":"string"}],"stateMutability":"view"},{"type":"function","name":"grantRole","inputs":[{"name":"role","type":"bytes32","internalType":"bytes32"},{"name":"account","type":"address","internalType":"address"}],"outputs":[],"stateMutability":"nonpayable"},{"type":"function","name":"hasRole","inputs":[{"name":"role","type":"bytes32","internalType":"bytes32"},{"name":"account","type":"address","internalType":"address"}],"outputs":[{"name":"","type":"bool","internalType":"bool"}],"stateMutability":"view"},{"type":"function","name":"isRegistered","inputs":[{"name":"_user","type":"address","internalType":"address"}],"outputs":[{"name":"","type":"bool","internalType":"bool"}],"stateMutability":"view"},{"type":"function","name":"register","inputs":[{"name":"_user","type":"address","internalType":"address"},{"name":"_userType","type":"string","internalType":"string"}],"outputs":[],"stateMutability":"nonpayable"},{"type":"function","name":"renounceRole","inputs":[{"name":"role","type":"bytes32","internalType":"bytes32"},{"name":"callerConfirmation","type":"address","internalType":"address"}],"outputs":[],"stateMutability":"nonpayable"},{"type":"function","name":"revokeRole","inputs":[{"name":"role","type":"bytes32","internalType":"bytes32"},{"name":"account","type":"address","internalType":"address"}],"outputs":[],"stateMutability":"nonpayable"},{"type":"function","name":"supportsInterface","inputs":[{"name":"interfaceId","type":"bytes4","internalType":"bytes4"}],"outputs":[{"name":"","type":"bool","internalType":"bool"}],"stateMutability":"view"},{"type":"event","name":"RoleAdminChanged","inputs":[{"name":"role","type":"bytes32","indexed":true,"internalType":"bytes32"},{"name":"previousAdminRole","type":"bytes32","indexed":true,"internalType":"bytes32"},{"name":"newAdminRole","type":"bytes32","indexed":true,"internalType":"bytes32"}],"anonymous":false},{"type":"event","name":"RoleGranted","inputs":[{"name":"role","type":"bytes32","indexed":true,"internalType":"bytes32"},{"name":"account","type":"address","indexed":true,"internalType":"address"},{"name":"sender","type":"address","indexed":true,"internalType":"address"}],"anonymous":false},{"type":"event","name":"RoleRevoked","inputs":[{"name":"role","type":"bytes32","indexed":true,"internalType":"bytes32"},{"name":"account","type":"address","indexed":true,"internalType":"address"},{"name":"sender","type":"address","indexed":true,"internalType":"address"}],"anonymous":false},{"type":"event","name":"UserRegistered","inputs":[{"name":"user","type":"address","indexed":true,"internalType":"address"},{"name":"userType","type":"string","indexed":false,"internalType":"string"}],"anonymous":false},{"type":"error","name":"AccessControlBadConfirmation","inputs":[]},{"type":"error","name":"AccessControlUnauthorizedAccount","inputs":[{"name":"account","type":"address","internalType":"address"},{"name":"neededRole","type":"bytes32","internalType":"bytes32"}]}],"bytecode":{"object":"0x608060405234801561001057600080fd5b50610b2f806100206000396000f3fe608060405234801561001057600080fd5b50600436106100a95760003560e01c80636626ffca116100715780636626ffca146101425780638b3f863f1461016957806391d1485414610189578063a217fddf1461019c578063c3c5a547146101a4578063d547741f146101b757600080fd5b806301ffc9a7146100ae578063248a9ca3146100d65780632f2ff15d1461010757806332434a2e1461011c57806336568abe1461012f575b600080fd5b6100c16100bc3660046107c8565b6101ca565b60405190151581526020015b60405180910390f35b6100f96100e43660046107f9565b60009081526020819052604090206001015490565b6040519081526020016100cd565b61011a61011536600461082e565b610201565b005b61011a61012a36600461085a565b61022c565b61011a61013d36600461082e565b610347565b6100f97f8e011e025847d9fd71c1d4698fcea4a047c303cb00ecc469fcc698787446e0f381565b61017c6101773660046108dd565b61037f565b6040516100cd919061091c565b6100c161019736600461082e565b61042b565b6100f9600081565b6100c16101b23660046108dd565b610454565b61011a6101c536600461082e565b610480565b60006001600160e01b03198216637965db0b60e01b14806101fb57506301ffc9a760e01b6001600160e01b03198316145b92915050565b60008281526020819052604090206001015461021c816104a5565b61022683836104b2565b50505050565b7f8e011e025847d9fd71c1d4698fcea4a047c303cb00ecc469fcc698787446e0f3610256816104a5565b61029583838080601f01602080910402602001604051908101604052809392919081815260200183838082843760009201919091525061054492505050565b6102da5760405162461bcd60e51b8152602060048201526011602482015270496e76616c69642075736572207479706560781b60448201526064015b60405180910390fd5b6001600160a01b03841660009081526001602052604090206102fd8385836109ed565b50836001600160a01b03167f48cac28ad4dc618e15f4c2dd5e97751182f166de97b25618318b2112aa951a2f8484604051610339929190610aae565b60405180910390a250505050565b6001600160a01b03811633146103705760405163334bd91960e11b815260040160405180910390fd5b61037a8282610720565b505050565b6001600160a01b03811660009081526001602052604090208054606091906103a690610965565b80601f01602080910402602001604051908101604052809291908181526020018280546103d290610965565b801561041f5780601f106103f45761010080835404028352916020019161041f565b820191906000526020600020905b81548152906001019060200180831161040257829003601f168201915b50505050509050919050565b6000918252602082815260408084206001600160a01b0393909316845291905290205460ff1690565b6001600160a01b0381166000908152600160205260408120805461047790610965565b15159392505050565b60008281526020819052604090206001015461049b816104a5565b6102268383610720565b6104af813361078b565b50565b60006104be838361042b565b61053c576000838152602081815260408083206001600160a01b03861684529091529020805460ff191660011790556104f43390565b6001600160a01b0316826001600160a01b0316847f2f8788117e7eff1d82e926ec794901d17c78024a50270940304540a733656f0d60405160405180910390a45060016101fb565b5060006101fb565b6000604051806040016040528060058152602001644e6f6e555360d81b8152506040516020016105749190610add565b604051602081830303815290604052805190602001208260405160200161059b9190610add565b60405160208183030381529060405280519060200120148061062a57506040518060400160405280600a8152602001691058d8dc99591a5d195960b21b8152506040516020016105eb9190610add565b60405160208183030381529060405280519060200120826040516020016106129190610add565b60405160208183030381529060405280519060200120145b806106a057506040518060400160405280600881526020016710dbdb9d1c9858dd60c21b8152506040516020016106619190610add565b60405160208183030381529060405280519060200120826040516020016106889190610add565b60405160208183030381529060405280519060200120145b806101fb57506040518060400160405280600d81526020016c125b9cdd1a5d1d5d1a5bdb985b609a1b8152506040516020016106dc9190610add565b60405160208183030381529060405280519060200120826040516020016107039190610add565b604051602081830303815290604052805190602001201492915050565b600061072c838361042b565b1561053c576000838152602081815260408083206001600160a01b0386168085529252808320805460ff1916905551339286917ff6391f5c32d9c69d2a47ea670b442974b53935d1edc7fd64eb21e047a839171b9190a45060016101fb565b610795828261042b565b6107c45760405163e2517d3f60e01b81526001600160a01b0382166004820152602481018390526044016102d1565b5050565b6000602082840312156107da57600080fd5b81356001600160e01b0319811681146107f257600080fd5b9392505050565b60006020828403121561080b57600080fd5b5035919050565b80356001600160a01b038116811461082957600080fd5b919050565b6000806040838503121561084157600080fd5b8235915061085160208401610812565b90509250929050565b60008060006040848603121561086f57600080fd5b61087884610812565b9250602084013567ffffffffffffffff8082111561089557600080fd5b818601915086601f8301126108a957600080fd5b8135818111156108b857600080fd5b8760208285010111156108ca57600080fd5b6020830194508093505050509250925092565b6000602082840312156108ef57600080fd5b6107f282610812565b60005b838110156109135781810151838201526020016108fb565b50506000910152565b602081526000825180602084015261093b8160408501602087016108f8565b601f01601f19169190910160400192915050565b634e487b7160e01b600052604160045260246000fd5b600181811c9082168061097957607f821691505b60208210810361099957634e487b7160e01b600052602260045260246000fd5b50919050565b601f82111561037a57600081815260208120601f850160051c810160208610156109c65750805b601f850160051c820191505b818110156109e5578281556001016109d2565b505050505050565b67ffffffffffffffff831115610a0557610a0561094f565b610a1983610a138354610965565b8361099f565b6000601f841160018114610a4d5760008515610a355750838201355b600019600387901b1c1916600186901b178355610aa7565b600083815260209020601f19861690835b82811015610a7e5786850135825560209485019460019092019101610a5e565b5086821015610a9b5760001960f88860031b161c19848701351681555b505060018560011b0183555b5050505050565b60208152816020820152818360408301376000818301604090810191909152601f909201601f19160101919050565b60008251610aef8184602087016108f8565b919091019291505056fea2646970667358221220e2d237d8b47c8bd61a441a6840673550364bd3d75bd363b5249d6795b8818ad164736f6c63430008140033","linkReferences":{}},"methodIdentifiers":{"DEFAULT_ADMIN_ROLE()":"a217fddf","USER_REGISTRAR_ROLE()":"6626ffca","getRoleAdmin(bytes32)":"248a9ca3","getUserType(address)":"8b3f863f","grantRole(bytes32,address)":"2f2ff15d","hasRole(bytes32,address)":"91d14854","isRegistered(address)":"c3c5a547","register(address,string)":"32434a2e","renounceRole(bytes32,address)":"36568abe","revokeRole(bytes32,address)":"d547741f","supportsInterface(bytes4)":"01ffc9a7"},"id":41}