{"abi":[{"type":"function","name":"addOwner","inputs":[{"name":"account","type":"address","internalType":"address"}],"outputs":[],"stateMutability":"nonpayable"},{"type":"function","name":"addRevoker","inputs":[{"name":"account","type":"address","internalType":"address"}],"outputs":[],"stateMutability":"nonpayable"},{"type":"function","name":"isOwner","inputs":[{"name":"account","type":"address","internalType":"address"}],"outputs":[{"name":"","type":"bool","internalType":"bool"}],"stateMutability":"view"},{"type":"function","name":"isRevoker","inputs":[{"name":"account","type":"address","internalType":"address"}],"outputs":[{"name":"","type":"bool","internalType":"bool"}],"stateMutability":"view"},{"type":"function","name":"removeOwner","inputs":[{"name":"account","type":"address","internalType":"address"}],"outputs":[],"stateMutability":"nonpayable"},{"type":"function","name":"removeRevoker","inputs":[{"name":"account","type":"address","internalType":"address"}],"outputs":[],"stateMutability":"nonpayable"},{"type":"event","name":"OwnerAdded","inputs":[{"name":"addedOwner","type":"address","indexed":true,"internalType":"address"},{"name":"addedBy","type":"address","indexed":true,"internalType":"address"}],"anonymous":false},{"type":"event","name":"OwnerRemoved","inputs":[{"name":"removedOwner","type":"address","indexed":true,"internalType":"address"},{"name":"removedBy","type":"address","indexed":true,"internalType":"address"}],"anonymous":false},{"type":"event","name":"RevokerAdded","inputs":[{"name":"addedRevoker","type":"address","indexed":true,"internalType":"address"},{"name":"addedBy","type":"address","indexed":true,"internalType":"address"}],"anonymous":false},{"type":"event","name":"RevokerRemoved","inputs":[{"name":"removedRevoker","type":"address","indexed":true,"internalType":"address"},{"name":"removedBy","type":"address","indexed":true,"internalType":"address"}],"anonymous":false}],"bytecode":{"object":"0x608060405234801561001057600080fd5b50610580806100206000396000f3fe608060405234801561001057600080fd5b50600436106100625760003560e01c8063173825d9146100675780632f54bf6e1461007c5780637065cb48146100a3578063961a66f6146100b6578063c06f8b94146100c9578063f6c4b01f146100dc575b600080fd5b61007a6100753660046104cc565b6100ef565b005b61008f61008a3660046104cc565b610192565b604051901515815260200160405180910390f35b61007a6100b13660046104cc565b6101a4565b61007a6100c43660046104cc565b6101d2565b61007a6100d73660046104cc565b610200565b61008f6100ea3660046104cc565b61022e565b6100f833610192565b61011d5760405162461bcd60e51b8152600401610114906104fc565b60405180910390fd5b6001600160a01b03811633036101865760405162461bcd60e51b815260206004820152602860248201527f4f776e6572732063616e6e6f742072656d6f7665207468656d73656c7665732060448201526730b99037bbb732b960c11b6064820152608401610114565b61018f8161023b565b50565b600061019e818361027f565b92915050565b6101ad33610192565b6101c95760405162461bcd60e51b8152600401610114906104fc565b61018f81610302565b6101db33610192565b6101f75760405162461bcd60e51b8152600401610114906104fc565b61018f81610346565b61020933610192565b6102255760405162461bcd60e51b8152600401610114906104fc565b61018f8161038a565b600061019e60018361027f565b6102466000826103ce565b60405133906001600160a01b038316907fe594d081b4382713733fe631966432c9cea5199afb2db5c3c1931f9f9300367990600090a350565b60006001600160a01b0382166102e25760405162461bcd60e51b815260206004820152602260248201527f526f6c65733a206163636f756e7420697320746865207a65726f206164647265604482015261737360f01b6064820152608401610114565b506001600160a01b03166000908152602091909152604090205460ff1690565b61030d600082610450565b60405133906001600160a01b038316907fc82bdbbf677a2462f2a7e22e4ba9abd209496b69cd7b868b3b1d28f76e09a40a90600090a350565b610351600182610450565b60405133906001600160a01b038316907f2b5f18afd9a7b21f41bf023b012b3d4c8a22a21b79fa425cd4494ecbe297019690600090a350565b6103956001826103ce565b60405133906001600160a01b038316907fb6fe3ab11eb9ab1d9f1d41c8f42a5d72d10122099ba1548e4a6d1a4d8cefec4b90600090a350565b6103d8828261027f565b61042e5760405162461bcd60e51b815260206004820152602160248201527f526f6c65733a206163636f756e7420646f6573206e6f74206861766520726f6c6044820152606560f81b6064820152608401610114565b6001600160a01b0316600090815260209190915260409020805460ff19169055565b61045a828261027f565b156104a75760405162461bcd60e51b815260206004820152601f60248201527f526f6c65733a206163636f756e7420616c72656164792068617320726f6c65006044820152606401610114565b6001600160a01b0316600090815260209190915260409020805460ff19166001179055565b6000602082840312156104de57600080fd5b81356001600160a01b03811681146104f557600080fd5b9392505050565b6020808252602e908201527f4f776e6572526f6c653a2063616c6c657220646f6573206e6f7420686176652060408201526d746865204f776e657220726f6c6560901b60608201526080019056fea26469706673582212208ce339f648017e0b8439bd06add5529586d3c89cd2b9295679dd6955b3dd7f6c64736f6c63430008140033","linkReferences":{}},"methodIdentifiers":{"addOwner(address)":"7065cb48","addRevoker(address)":"961a66f6","isOwner(address)":"2f54bf6e","isRevoker(address)":"f6c4b01f","removeOwner(address)":"173825d9","removeRevoker(address)":"c06f8b94"},"id":38}