{"abi":[{"type":"function","name":"addOwner","inputs":[{"name":"account","type":"address","internalType":"address"}],"outputs":[],"stateMutability":"nonpayable"},{"type":"function","name":"addTimelocker","inputs":[{"name":"account","type":"address","internalType":"address"}],"outputs":[],"stateMutability":"nonpayable"},{"type":"function","name":"isOwner","inputs":[{"name":"account","type":"address","internalType":"address"}],"outputs":[{"name":"","type":"bool","internalType":"bool"}],"stateMutability":"view"},{"type":"function","name":"isTimelocker","inputs":[{"name":"account","type":"address","internalType":"address"}],"outputs":[{"name":"","type":"bool","internalType":"bool"}],"stateMutability":"view"},{"type":"function","name":"removeOwner","inputs":[{"name":"account","type":"address","internalType":"address"}],"outputs":[],"stateMutability":"nonpayable"},{"type":"function","name":"removeTimelocker","inputs":[{"name":"account","type":"address","internalType":"address"}],"outputs":[],"stateMutability":"nonpayable"},{"type":"event","name":"OwnerAdded","inputs":[{"name":"addedOwner","type":"address","indexed":true,"internalType":"address"},{"name":"addedBy","type":"address","indexed":true,"internalType":"address"}],"anonymous":false},{"type":"event","name":"OwnerRemoved","inputs":[{"name":"removedOwner","type":"address","indexed":true,"internalType":"address"},{"name":"removedBy","type":"address","indexed":true,"internalType":"address"}],"anonymous":false},{"type":"event","name":"TimelockerAdded","inputs":[{"name":"addedTimelocker","type":"address","indexed":true,"internalType":"address"},{"name":"addedBy","type":"address","indexed":true,"internalType":"address"}],"anonymous":false},{"type":"event","name":"TimelockerRemoved","inputs":[{"name":"removedTimelocker","type":"address","indexed":true,"internalType":"address"},{"name":"removedBy","type":"address","indexed":true,"internalType":"address"}],"anonymous":false}],"bytecode":{"object":"0x608060405234801561001057600080fd5b50610580806100206000396000f3fe608060405234801561001057600080fd5b50600436106100625760003560e01c8063031d4053146100675780630c57133f1461007c578063173825d9146100a35780632f54bf6e146100b65780637065cb48146100c9578063841aca44146100dc575b600080fd5b61007a6100753660046104cc565b6100ef565b005b61008f61008a3660046104cc565b610129565b604051901515815260200160405180910390f35b61007a6100b13660046104cc565b61013c565b61008f6100c43660046104cc565b6101d3565b61007a6100d73660046104cc565b6101df565b61007a6100ea3660046104cc565b61020d565b6100f8336101d3565b61011d5760405162461bcd60e51b8152600401610114906104fc565b60405180910390fd5b6101268161023b565b50565b600061013660018361027f565b92915050565b610145336101d3565b6101615760405162461bcd60e51b8152600401610114906104fc565b6001600160a01b03811633036101ca5760405162461bcd60e51b815260206004820152602860248201527f4f776e6572732063616e6e6f742072656d6f7665207468656d73656c7665732060448201526730b99037bbb732b960c11b6064820152608401610114565b61012681610302565b6000610136818361027f565b6101e8336101d3565b6102045760405162461bcd60e51b8152600401610114906104fc565b61012681610346565b610216336101d3565b6102325760405162461bcd60e51b8152600401610114906104fc565b6101268161038a565b6102466001826103ce565b60405133906001600160a01b038316907f28f069fa8730ef5d44b24faedbcabf2b254c53f4e02a953476a4015e3067714190600090a350565b60006001600160a01b0382166102e25760405162461bcd60e51b815260206004820152602260248201527f526f6c65733a206163636f756e7420697320746865207a65726f206164647265604482015261737360f01b6064820152608401610114565b506001600160a01b03166000908152602091909152604090205460ff1690565b61030d60008261044a565b60405133906001600160a01b038316907fe594d081b4382713733fe631966432c9cea5199afb2db5c3c1931f9f9300367990600090a350565b6103516000826103ce565b60405133906001600160a01b038316907fc82bdbbf677a2462f2a7e22e4ba9abd209496b69cd7b868b3b1d28f76e09a40a90600090a350565b61039560018261044a565b60405133906001600160a01b038316907f1bac2ef39c5011bb7c20ecf6bc7cb986695b3f432a149d898c0ed368e55c780690600090a350565b6103d8828261027f565b156104255760405162461bcd60e51b815260206004820152601f60248201527f526f6c65733a206163636f756e7420616c72656164792068617320726f6c65006044820152606401610114565b6001600160a01b0316600090815260209190915260409020805460ff19166001179055565b610454828261027f565b6104aa5760405162461bcd60e51b815260206004820152602160248201527f526f6c65733a206163636f756e7420646f6573206e6f74206861766520726f6c6044820152606560f81b6064820152608401610114565b6001600160a01b0316600090815260209190915260409020805460ff19169055565b6000602082840312156104de57600080fd5b81356001600160a01b03811681146104f557600080fd5b9392505050565b6020808252602e908201527f4f776e6572526f6c653a2063616c6c657220646f6573206e6f7420686176652060408201526d746865204f776e657220726f6c6560901b60608201526080019056fea26469706673582212208d478b675ac6bcbc69f8a29a4d1dcc0c20269f7048d3c55e8040a703b7e7279d64736f6c63430008140033","linkReferences":{}},"methodIdentifiers":{"addOwner(address)":"7065cb48","addTimelocker(address)":"031d4053","isOwner(address)":"2f54bf6e","isTimelocker(address)":"0c57133f","removeOwner(address)":"173825d9","removeTimelocker(address)":"841aca44"},"id":38}