{"abi":[{"type":"function","name":"addOwner","inputs":[{"name":"account","type":"address","internalType":"address"}],"outputs":[],"stateMutability":"nonpayable"},{"type":"function","name":"getUserType","inputs":[{"name":"_user","type":"address","internalType":"address"}],"outputs":[{"name":"","type":"string","internalType":"string"}],"stateMutability":"view"},{"type":"function","name":"isOwner","inputs":[{"name":"account","type":"address","internalType":"address"}],"outputs":[{"name":"","type":"bool","internalType":"bool"}],"stateMutability":"view"},{"type":"function","name":"isRegistered","inputs":[{"name":"_user","type":"address","internalType":"address"}],"outputs":[{"name":"","type":"bool","internalType":"bool"}],"stateMutability":"view"},{"type":"function","name":"register","inputs":[{"name":"_user","type":"address","internalType":"address"},{"name":"_userType","type":"string","internalType":"string"}],"outputs":[],"stateMutability":"nonpayable"},{"type":"function","name":"removeOwner","inputs":[{"name":"account","type":"address","internalType":"address"}],"outputs":[],"stateMutability":"nonpayable"},{"type":"event","name":"OwnerAdded","inputs":[{"name":"addedOwner","type":"address","indexed":true,"internalType":"address"},{"name":"addedBy","type":"address","indexed":true,"internalType":"address"}],"anonymous":false},{"type":"event","name":"OwnerRemoved","inputs":[{"name":"removedOwner","type":"address","indexed":true,"internalType":"address"},{"name":"removedBy","type":"address","indexed":true,"internalType":"address"}],"anonymous":false},{"type":"event","name":"UserRegistered","inputs":[{"name":"user","type":"address","indexed":true,"internalType":"address"},{"name":"userType","type":"string","indexed":false,"internalType":"string"}],"anonymous":false}],"bytecode":{"object":"0x608060405234801561001057600080fd5b50610bcd806100206000396000f3fe608060405234801561001057600080fd5b50600436106100625760003560e01c8063173825d9146100675780632f54bf6e1461007c57806332434a2e146100a45780637065cb48146100b75780638b3f863f146100ca578063c3c5a547146100ea575b600080fd5b61007a6100753660046108a8565b6100fd565b005b61008f61008a3660046108a8565b6101a0565b60405190151581526020015b60405180910390f35b61007a6100b23660046108ca565b6101b2565b61007a6100c53660046108a8565b610334565b6100dd6100d83660046108a8565b610362565b60405161009b9190610971565b61008f6100f83660046108a8565b61047b565b610106336101a0565b61012b5760405162461bcd60e51b8152600401610122906109a4565b60405180910390fd5b6001600160a01b03811633036101945760405162461bcd60e51b815260206004820152602860248201527f4f776e6572732063616e6e6f742072656d6f7665207468656d73656c7665732060448201526730b99037bbb732b960c11b6064820152608401610122565b61019d816104a7565b50565b60006101ac81836104eb565b92915050565b6101bb336101a0565b6101d75760405162461bcd60e51b8152600401610122906109a4565b6001600160a01b038316600090815260016020526040902080546101fa906109f2565b1590506102495760405162461bcd60e51b815260206004820152601760248201527f5573657220616c726561647920726567697374657265640000000000000000006044820152606401610122565b61028882828080601f01602080910402602001604051908101604052809392919081815260200183838082843760009201919091525061056e92505050565b6102c85760405162461bcd60e51b8152602060048201526011602482015270496e76616c69642075736572207479706560781b6044820152606401610122565b6001600160a01b03831660009081526001602052604090206102eb828483610a8b565b50826001600160a01b03167f48cac28ad4dc618e15f4c2dd5e97751182f166de97b25618318b2112aa951a2f8383604051610327929190610b4c565b60405180910390a2505050565b61033d336101a0565b6103595760405162461bcd60e51b8152600401610122906109a4565b61019d8161074a565b6001600160a01b03811660009081526001602052604090208054606091839161038a906109f2565b90506000036103d15760405162461bcd60e51b8152602060048201526013602482015272155cd95c881b9bdd081c9959da5cdd195c9959606a1b6044820152606401610122565b6001600160a01b038316600090815260016020526040902080546103f4906109f2565b80601f0160208091040260200160405190810160405280929190818152602001828054610420906109f2565b801561046d5780601f106104425761010080835404028352916020019161046d565b820191906000526020600020905b81548152906001019060200180831161045057829003601f168201915b505050505091505b50919050565b6001600160a01b0381166000908152600160205260408120805461049e906109f2565b15159392505050565b6104b260008261078e565b60405133906001600160a01b038316907fe594d081b4382713733fe631966432c9cea5199afb2db5c3c1931f9f9300367990600090a350565b60006001600160a01b03821661054e5760405162461bcd60e51b815260206004820152602260248201527f526f6c65733a206163636f756e7420697320746865207a65726f206164647265604482015261737360f01b6064820152608401610122565b506001600160a01b03166000908152602091909152604090205460ff1690565b6000604051806040016040528060058152602001644e6f6e555360d81b81525060405160200161059e9190610b7b565b60405160208183030381529060405280519060200120826040516020016105c59190610b7b565b60405160208183030381529060405280519060200120148061065457506040518060400160405280600a8152602001691058d8dc99591a5d195960b21b8152506040516020016106159190610b7b565b604051602081830303815290604052805190602001208260405160200161063c9190610b7b565b60405160208183030381529060405280519060200120145b806106ca57506040518060400160405280600881526020016710dbdb9d1c9858dd60c21b81525060405160200161068b9190610b7b565b60405160208183030381529060405280519060200120826040516020016106b29190610b7b565b60405160208183030381529060405280519060200120145b806101ac57506040518060400160405280600d81526020016c125b9cdd1a5d1d5d1a5bdb985b609a1b8152506040516020016107069190610b7b565b604051602081830303815290604052805190602001208260405160200161072d9190610b7b565b604051602081830303815290604052805190602001201492915050565b610755600082610810565b60405133906001600160a01b038316907fc82bdbbf677a2462f2a7e22e4ba9abd209496b69cd7b868b3b1d28f76e09a40a90600090a350565b61079882826104eb565b6107ee5760405162461bcd60e51b815260206004820152602160248201527f526f6c65733a206163636f756e7420646f6573206e6f74206861766520726f6c6044820152606560f81b6064820152608401610122565b6001600160a01b0316600090815260209190915260409020805460ff19169055565b61081a82826104eb565b156108675760405162461bcd60e51b815260206004820152601f60248201527f526f6c65733a206163636f756e7420616c72656164792068617320726f6c65006044820152606401610122565b6001600160a01b0316600090815260209190915260409020805460ff19166001179055565b80356001600160a01b03811681146108a357600080fd5b919050565b6000602082840312156108ba57600080fd5b6108c38261088c565b9392505050565b6000806000604084860312156108df57600080fd5b6108e88461088c565b9250602084013567ffffffffffffffff8082111561090557600080fd5b818601915086601f83011261091957600080fd5b81358181111561092857600080fd5b87602082850101111561093a57600080fd5b6020830194508093505050509250925092565b60005b83811015610968578181015183820152602001610950565b50506000910152565b602081526000825180602084015261099081604085016020870161094d565b601f01601f19169190910160400192915050565b6020808252602e908201527f4f776e6572526f6c653a2063616c6c657220646f6573206e6f7420686176652060408201526d746865204f776e657220726f6c6560901b606082015260800190565b600181811c90821680610a0657607f821691505b60208210810361047557634e487b7160e01b600052602260045260246000fd5b634e487b7160e01b600052604160045260246000fd5b601f821115610a8657600081815260208120601f850160051c81016020861015610a635750805b601f850160051c820191505b81811015610a8257828155600101610a6f565b5050505b505050565b67ffffffffffffffff831115610aa357610aa3610a26565b610ab783610ab183546109f2565b83610a3c565b6000601f841160018114610aeb5760008515610ad35750838201355b600019600387901b1c1916600186901b178355610b45565b600083815260209020601f19861690835b82811015610b1c5786850135825560209485019460019092019101610afc565b5086821015610b395760001960f88860031b161c19848701351681555b505060018560011b0183555b5050505050565b60208152816020820152818360408301376000818301604090810191909152601f909201601f19160101919050565b60008251610b8d81846020870161094d565b919091019291505056fea2646970667358221220a8884ca6f2ffda0664ac3f0de26525406053d597d0ef904686a68cd0ef86348064736f6c63430008140033","linkReferences":{}},"methodIdentifiers":{"addOwner(address)":"7065cb48","getUserType(address)":"8b3f863f","isOwner(address)":"2f54bf6e","isRegistered(address)":"c3c5a547","register(address,string)":"32434a2e","removeOwner(address)":"173825d9"},"id":38}