{"abi":[{"type":"function","name":"addOwner","inputs":[{"name":"account","type":"address","internalType":"address"}],"outputs":[],"stateMutability":"nonpayable"},{"type":"function","name":"addWhitelister","inputs":[{"name":"account","type":"address","internalType":"address"}],"outputs":[],"stateMutability":"nonpayable"},{"type":"function","name":"checkWhitelists","inputs":[{"name":"from","type":"address","internalType":"address"},{"name":"to","type":"address","internalType":"address"}],"outputs":[{"name":"","type":"bool","internalType":"bool"}],"stateMutability":"view"},{"type":"function","name":"getWhitelistData","inputs":[{"name":"_address","type":"address","internalType":"address"}],"outputs":[{"name":"","type":"string","internalType":"string"}],"stateMutability":"view"},{"type":"function","name":"getWhitelistStatus","inputs":[{"name":"_address","type":"address","internalType":"address"}],"outputs":[{"name":"","type":"bool","internalType":"bool"}],"stateMutability":"view"},{"type":"function","name":"isOwner","inputs":[{"name":"account","type":"address","internalType":"address"}],"outputs":[{"name":"","type":"bool","internalType":"bool"}],"stateMutability":"view"},{"type":"function","name":"isWhitelister","inputs":[{"name":"account","type":"address","internalType":"address"}],"outputs":[{"name":"","type":"bool","internalType":"bool"}],"stateMutability":"view"},{"type":"function","name":"removeOwner","inputs":[{"name":"account","type":"address","internalType":"address"}],"outputs":[],"stateMutability":"nonpayable"},{"type":"function","name":"removeWhitelister","inputs":[{"name":"account","type":"address","internalType":"address"}],"outputs":[],"stateMutability":"nonpayable"},{"type":"function","name":"setWhitelist","inputs":[{"name":"to","type":"address","internalType":"address"},{"name":"status","type":"bool","internalType":"bool"},{"name":"data","type":"string","internalType":"string"}],"outputs":[{"name":"","type":"bool","internalType":"bool"}],"stateMutability":"nonpayable"},{"type":"function","name":"whitelist","inputs":[{"name":"","type":"address","internalType":"address"}],"outputs":[{"name":"status","type":"bool","internalType":"bool"},{"name":"data","type":"string","internalType":"string"}],"stateMutability":"view"},{"type":"event","name":"OwnerAdded","inputs":[{"name":"addedOwner","type":"address","indexed":true,"internalType":"address"},{"name":"addedBy","type":"address","indexed":true,"internalType":"address"}],"anonymous":false},{"type":"event","name":"OwnerRemoved","inputs":[{"name":"removedOwner","type":"address","indexed":true,"internalType":"address"},{"name":"removedBy","type":"address","indexed":true,"internalType":"address"}],"anonymous":false},{"type":"event","name":"WhitelistUpdate","inputs":[{"name":"_address","type":"address","indexed":false,"internalType":"address"},{"name":"status","type":"bool","indexed":false,"internalType":"bool"},{"name":"data","type":"string","indexed":false,"internalType":"string"}],"anonymous":false},{"type":"event","name":"WhitelisterAdded","inputs":[{"name":"addedWhitelister","type":"address","indexed":true,"internalType":"address"},{"name":"addedBy","type":"address","indexed":true,"internalType":"address"}],"anonymous":false},{"type":"event","name":"WhitelisterRemoved","inputs":[{"name":"removedWhitelister","type":"address","indexed":true,"internalType":"address"},{"name":"removedBy","type":"address","indexed":true,"internalType":"address"}],"anonymous":false}],"bytecode":{"object":"0x608060405234801561001057600080fd5b50610c9f806100206000396000f3fe608060405234801561001057600080fd5b50600436106100a95760003560e01c80637d0c269f116100715780637d0c269f1461013157806382c3f79c1461014457806399da091d146101575780639b19251a1461016a578063d9ba32fc1461018b578063eaf9144a146101b757600080fd5b8063173825d9146100ae57806327ac1975146100c35780632f54bf6e146100eb57806368aa9813146100fe5780637065cb481461011e575b600080fd5b6100c16100bc3660046108e4565b6101ca565b005b6100d66100d1366004610915565b61026d565b60405190151581526020015b60405180910390f35b6100d66100f93660046108e4565b6103ef565b61011161010c3660046108e4565b610401565b6040516100e29190610a34565b6100c161012c3660046108e4565b6104b0565b6100d661013f3660046108e4565b6104de565b6100c16101523660046108e4565b6104eb565b6100d6610165366004610a47565b610519565b61017d6101783660046108e4565b610560565b6040516100e2929190610a7a565b6100d66101993660046108e4565b6001600160a01b031660009081526002602052604090205460ff1690565b6100c16101c53660046108e4565b610609565b6101d3336103ef565b6101f85760405162461bcd60e51b81526004016101ef90610a9d565b60405180910390fd5b6001600160a01b03811633036102615760405162461bcd60e51b815260206004820152602860248201527f4f776e6572732063616e6e6f742072656d6f7665207468656d73656c7665732060448201526730b99037bbb732b960c11b60648201526084016101ef565b61026a81610637565b50565b6000610278336104de565b6102ea5760405162461bcd60e51b815260206004820152603a60248201527f57686974656c6973746572526f6c653a2063616c6c657220646f6573206e6f7460448201527f2068617665207468652057686974656c697374657220726f6c6500000000000060648201526084016101ef565b6102f3336103ef565b61030f5760405162461bcd60e51b81526004016101ef90610a9d565b610318846104de565b6103575760405162461bcd60e51b815260206004820152601060248201526f105919081d1bc81dda1a5d195b1a5cdd60821b60448201526064016101ef565b604080518082018252841515815260208082018581526001600160a01b038816600090815260029092529290208151815460ff1916901515178155915190919060018201906103a69082610b74565b509050507f461193ae6c23672174f7a3ea35649aacdc857bfcae58cd12d61ea432c05bcbd58484846040516103dd93929190610c34565b60405180910390a15060019392505050565b60006103fb818361067b565b92915050565b6001600160a01b038116600090815260026020526040902060010180546060919061042b90610aeb565b80601f016020809104026020016040519081016040528092919081815260200182805461045790610aeb565b80156104a45780601f10610479576101008083540402835291602001916104a4565b820191906000526020600020905b81548152906001019060200180831161048757829003601f168201915b50505050509050919050565b6104b9336103ef565b6104d55760405162461bcd60e51b81526004016101ef90610a9d565b61026a816106fe565b60006103fb60018361067b565b6104f4336103ef565b6105105760405162461bcd60e51b81526004016101ef90610a9d565b61026a81610742565b6001600160a01b03821660009081526002602052604081205460ff16801561055957506001600160a01b03821660009081526002602052604090205460ff165b9392505050565b6002602052600090815260409020805460018201805460ff909216929161058690610aeb565b80601f01602080910402602001604051908101604052809291908181526020018280546105b290610aeb565b80156105ff5780601f106105d4576101008083540402835291602001916105ff565b820191906000526020600020905b8154815290600101906020018083116105e257829003601f168201915b5050505050905082565b610612336103ef565b61062e5760405162461bcd60e51b81526004016101ef90610a9d565b61026a81610786565b6106426000826107ca565b60405133906001600160a01b038316907fe594d081b4382713733fe631966432c9cea5199afb2db5c3c1931f9f9300367990600090a350565b60006001600160a01b0382166106de5760405162461bcd60e51b815260206004820152602260248201527f526f6c65733a206163636f756e7420697320746865207a65726f206164647265604482015261737360f01b60648201526084016101ef565b506001600160a01b03166000908152602091909152604090205460ff1690565b61070960008261084c565b60405133906001600160a01b038316907fc82bdbbf677a2462f2a7e22e4ba9abd209496b69cd7b868b3b1d28f76e09a40a90600090a350565b61074d6001826107ca565b60405133906001600160a01b038316907f3ed21605dd544629fb45f2ccaedcc095ba1dbea540fb6eaf5493a7479856b0be90600090a350565b61079160018261084c565b60405133906001600160a01b038316907f5f36f4f5999f34947706fca376b955319b858573bf9d6bc59303c9a4cd80ced090600090a350565b6107d4828261067b565b61082a5760405162461bcd60e51b815260206004820152602160248201527f526f6c65733a206163636f756e7420646f6573206e6f74206861766520726f6c6044820152606560f81b60648201526084016101ef565b6001600160a01b0316600090815260209190915260409020805460ff19169055565b610856828261067b565b156108a35760405162461bcd60e51b815260206004820152601f60248201527f526f6c65733a206163636f756e7420616c72656164792068617320726f6c650060448201526064016101ef565b6001600160a01b0316600090815260209190915260409020805460ff19166001179055565b80356001600160a01b03811681146108df57600080fd5b919050565b6000602082840312156108f657600080fd5b610559826108c8565b634e487b7160e01b600052604160045260246000fd5b60008060006060848603121561092a57600080fd5b610933846108c8565b92506020840135801515811461094857600080fd5b9150604084013567ffffffffffffffff8082111561096557600080fd5b818601915086601f83011261097957600080fd5b81358181111561098b5761098b6108ff565b604051601f8201601f19908116603f011681019083821181831017156109b3576109b36108ff565b816040528281528960208487010111156109cc57600080fd5b8260208601602083013760006020848301015280955050505050509250925092565b6000815180845260005b81811015610a14576020818501810151868301820152016109f8565b506000602082860101526020601f19601f83011685010191505092915050565b60208152600061055960208301846109ee565b60008060408385031215610a5a57600080fd5b610a63836108c8565b9150610a71602084016108c8565b90509250929050565b8215158152604060208201526000610a9560408301846109ee565b949350505050565b6020808252602e908201527f4f776e6572526f6c653a2063616c6c657220646f6573206e6f7420686176652060408201526d746865204f776e657220726f6c6560901b606082015260800190565b600181811c90821680610aff57607f821691505b602082108103610b1f57634e487b7160e01b600052602260045260246000fd5b50919050565b601f821115610b6f57600081815260208120601f850160051c81016020861015610b4c5750805b601f850160051c820191505b81811015610b6b57828155600101610b58565b5050505b505050565b815167ffffffffffffffff811115610b8e57610b8e6108ff565b610ba281610b9c8454610aeb565b84610b25565b602080601f831160018114610bd75760008415610bbf5750858301515b600019600386901b1c1916600185901b178555610b6b565b600085815260208120601f198616915b82811015610c0657888601518255948401946001909101908401610be7565b5085821015610c245787850151600019600388901b60f8161c191681555b5050505050600190811b01905550565b6001600160a01b03841681528215156020820152606060408201819052600090610c60908301846109ee565b9594505050505056fea26469706673582212205322deb871c071bd95ec92b0159368a89a9024b96079ee908418372f4a7cdfba64736f6c63430008140033","linkReferences":{}},"methodIdentifiers":{"addOwner(address)":"7065cb48","addWhitelister(address)":"eaf9144a","checkWhitelists(address,address)":"99da091d","getWhitelistData(address)":"68aa9813","getWhitelistStatus(address)":"d9ba32fc","isOwner(address)":"2f54bf6e","isWhitelister(address)":"7d0c269f","removeOwner(address)":"173825d9","removeWhitelister(address)":"82c3f79c","setWhitelist(address,bool,string)":"27ac1975","whitelist(address)":"9b19251a"},"id":38}