{"abi":[{"type":"function","name":"addOwner","inputs":[{"name":"account","type":"address","internalType":"address"}],"outputs":[],"stateMutability":"nonpayable"},{"type":"function","name":"addWhitelister","inputs":[{"name":"account","type":"address","internalType":"address"}],"outputs":[],"stateMutability":"nonpayable"},{"type":"function","name":"isOwner","inputs":[{"name":"account","type":"address","internalType":"address"}],"outputs":[{"name":"","type":"bool","internalType":"bool"}],"stateMutability":"view"},{"type":"function","name":"isWhitelister","inputs":[{"name":"account","type":"address","internalType":"address"}],"outputs":[{"name":"","type":"bool","internalType":"bool"}],"stateMutability":"view"},{"type":"function","name":"removeOwner","inputs":[{"name":"account","type":"address","internalType":"address"}],"outputs":[],"stateMutability":"nonpayable"},{"type":"function","name":"removeWhitelister","inputs":[{"name":"account","type":"address","internalType":"address"}],"outputs":[],"stateMutability":"nonpayable"},{"type":"event","name":"OwnerAdded","inputs":[{"name":"addedOwner","type":"address","indexed":true,"internalType":"address"},{"name":"addedBy","type":"address","indexed":true,"internalType":"address"}],"anonymous":false},{"type":"event","name":"OwnerRemoved","inputs":[{"name":"removedOwner","type":"address","indexed":true,"internalType":"address"},{"name":"removedBy","type":"address","indexed":true,"internalType":"address"}],"anonymous":false},{"type":"event","name":"WhitelisterAdded","inputs":[{"name":"addedWhitelister","type":"address","indexed":true,"internalType":"address"},{"name":"addedBy","type":"address","indexed":true,"internalType":"address"}],"anonymous":false},{"type":"event","name":"WhitelisterRemoved","inputs":[{"name":"removedWhitelister","type":"address","indexed":true,"internalType":"address"},{"name":"removedBy","type":"address","indexed":true,"internalType":"address"}],"anonymous":false}],"bytecode":{"object":"0x608060405234801561001057600080fd5b50610580806100206000396000f3fe608060405234801561001057600080fd5b50600436106100625760003560e01c8063173825d9146100675780632f54bf6e1461007c5780637065cb48146100a35780637d0c269f146100b657806382c3f79c146100c9578063eaf9144a146100dc575b600080fd5b61007a6100753660046104cc565b6100ef565b005b61008f61008a3660046104cc565b610192565b604051901515815260200160405180910390f35b61007a6100b13660046104cc565b6101a4565b61008f6100c43660046104cc565b6101d2565b61007a6100d73660046104cc565b6101df565b61007a6100ea3660046104cc565b61020d565b6100f833610192565b61011d5760405162461bcd60e51b8152600401610114906104fc565b60405180910390fd5b6001600160a01b03811633036101865760405162461bcd60e51b815260206004820152602860248201527f4f776e6572732063616e6e6f742072656d6f7665207468656d73656c7665732060448201526730b99037bbb732b960c11b6064820152608401610114565b61018f8161023b565b50565b600061019e818361027f565b92915050565b6101ad33610192565b6101c95760405162461bcd60e51b8152600401610114906104fc565b61018f81610302565b600061019e60018361027f565b6101e833610192565b6102045760405162461bcd60e51b8152600401610114906104fc565b61018f81610346565b61021633610192565b6102325760405162461bcd60e51b8152600401610114906104fc565b61018f8161038a565b6102466000826103ce565b60405133906001600160a01b038316907fe594d081b4382713733fe631966432c9cea5199afb2db5c3c1931f9f9300367990600090a350565b60006001600160a01b0382166102e25760405162461bcd60e51b815260206004820152602260248201527f526f6c65733a206163636f756e7420697320746865207a65726f206164647265604482015261737360f01b6064820152608401610114565b506001600160a01b03166000908152602091909152604090205460ff1690565b61030d600082610450565b60405133906001600160a01b038316907fc82bdbbf677a2462f2a7e22e4ba9abd209496b69cd7b868b3b1d28f76e09a40a90600090a350565b6103516001826103ce565b60405133906001600160a01b038316907f3ed21605dd544629fb45f2ccaedcc095ba1dbea540fb6eaf5493a7479856b0be90600090a350565b610395600182610450565b60405133906001600160a01b038316907f5f36f4f5999f34947706fca376b955319b858573bf9d6bc59303c9a4cd80ced090600090a350565b6103d8828261027f565b61042e5760405162461bcd60e51b815260206004820152602160248201527f526f6c65733a206163636f756e7420646f6573206e6f74206861766520726f6c6044820152606560f81b6064820152608401610114565b6001600160a01b0316600090815260209190915260409020805460ff19169055565b61045a828261027f565b156104a75760405162461bcd60e51b815260206004820152601f60248201527f526f6c65733a206163636f756e7420616c72656164792068617320726f6c65006044820152606401610114565b6001600160a01b0316600090815260209190915260409020805460ff19166001179055565b6000602082840312156104de57600080fd5b81356001600160a01b03811681146104f557600080fd5b9392505050565b6020808252602e908201527f4f776e6572526f6c653a2063616c6c657220646f6573206e6f7420686176652060408201526d746865204f776e657220726f6c6560901b60608201526080019056fea264697066735822122035d23c135dbdd71aecece48188ea4426a94e8ff9be68dd0b7f0443ec9902b56d64736f6c63430008140033","linkReferences":{}},"methodIdentifiers":{"addOwner(address)":"7065cb48","addWhitelister(address)":"eaf9144a","isOwner(address)":"2f54bf6e","isWhitelister(address)":"7d0c269f","removeOwner(address)":"173825d9","removeWhitelister(address)":"82c3f79c"},"id":38}