{"abi":[{"type":"constructor","inputs":[{"name":"_protonAddress","type":"address","internalType":"address"},{"name":"_fundsWalletAdd","type":"address","internalType":"address"}],"stateMutability":"nonpayable"},{"type":"function","name":"AuctionTime","inputs":[],"outputs":[{"name":"","type":"uint256","internalType":"uint256"},{"name":"","type":"uint256","internalType":"uint256"}],"stateMutability":"view"},{"type":"function","name":"PROTON","inputs":[],"outputs":[{"name":"","type":"address","internalType":"contract IProton"}],"stateMutability":"view"},{"type":"function","name":"auctionStatus","inputs":[{"name":"status","type":"bool","internalType":"bool"}],"outputs":[],"stateMutability":"nonpayable"},{"type":"function","name":"buyTokens","inputs":[{"name":"contractAddress","type":"address","internalType":"contract IERC20"},{"name":"userAddress","type":"address","internalType":"address"},{"name":"_amount","type":"uint256","internalType":"uint256"}],"outputs":[],"stateMutability":"nonpayable"},{"type":"function","name":"calculateTokenAmount","inputs":[{"name":"_usdtAmount","type":"uint256","internalType":"uint256"}],"outputs":[{"name":"","type":"uint256","internalType":"uint256"}],"stateMutability":"view"},{"type":"function","name":"claimReward","inputs":[{"name":"user","type":"address","internalType":"address"},{"name":"_usdtAmount","type":"uint256","internalType":"uint256"}],"outputs":[{"name":"","type":"bool","internalType":"bool"}],"stateMutability":"nonpayable"},{"type":"function","name":"currentRoundEnd","inputs":[],"outputs":[{"name":"","type":"uint256","internalType":"uint256"}],"stateMutability":"view"},{"type":"function","name":"currentRoundStart","inputs":[],"outputs":[{"name":"","type":"uint256","internalType":"uint256"}],"stateMutability":"view"},{"type":"function","name":"dailyAuctions","inputs":[{"name":"","type":"uint256","internalType":"uint256"}],"outputs":[{"name":"tokensDaily","type":"uint256","internalType":"uint256"},{"name":"tokensSold","type":"uint256","internalType":"uint256"},{"name":"oversubscribed","type":"uint256","internalType":"uint256"},{"name":"bonusMultiplier","type":"uint256","internalType":"uint256"}],"stateMutability":"view"},{"type":"function","name":"dailySupply","inputs":[],"outputs":[{"name":"","type":"uint256","internalType":"uint256"}],"stateMutability":"view"},{"type":"function","name":"fundsWallet","inputs":[],"outputs":[{"name":"","type":"address","internalType":"address"}],"stateMutability":"view"},{"type":"function","name":"getCurrentDay","inputs":[],"outputs":[{"name":"","type":"uint256","internalType":"uint256"}],"stateMutability":"view"},{"type":"function","name":"getDailyAuction","inputs":[{"name":"_currentDay","type":"uint256","internalType":"uint256"}],"outputs":[{"name":"","type":"uint256","internalType":"uint256"},{"name":"","type":"uint256","internalType":"uint256"},{"name":"","type":"uint256","internalType":"uint256"}],"stateMutability":"view"},{"type":"function","name":"isPaused","inputs":[],"outputs":[{"name":"","type":"bool","internalType":"bool"}],"stateMutability":"view"},{"type":"function","name":"lockingDay","inputs":[],"outputs":[{"name":"","type":"uint256","internalType":"uint256"}],"stateMutability":"view"},{"type":"function","name":"maxOversubscription","inputs":[],"outputs":[{"name":"","type":"uint256","internalType":"uint256"}],"stateMutability":"view"},{"type":"function","name":"maxOversubscriptionlimit","inputs":[],"outputs":[{"name":"","type":"uint256","internalType":"uint256"}],"stateMutability":"view"},{"type":"function","name":"owner","inputs":[],"outputs":[{"name":"","type":"address","internalType":"address"}],"stateMutability":"view"},{"type":"function","name":"renounceOwnership","inputs":[],"outputs":[],"stateMutability":"nonpayable"},{"type":"function","name":"resetAuction","inputs":[],"outputs":[],"stateMutability":"nonpayable"},{"type":"function","name":"setDailyDetails","inputs":[{"name":"day","type":"uint256","internalType":"uint256"},{"name":"tokensDaily","type":"uint256","internalType":"uint256"},{"name":"bonusMultiplier","type":"uint256","internalType":"uint256"}],"outputs":[],"stateMutability":"nonpayable"},{"type":"function","name":"setFundsWallet","inputs":[{"name":"_fundsWalletAddr","type":"address","internalType":"address"}],"outputs":[],"stateMutability":"nonpayable"},{"type":"function","name":"setPrice","inputs":[{"name":"_tokenPrice","type":"uint256","internalType":"uint256"}],"outputs":[],"stateMutability":"nonpayable"},{"type":"function","name":"startAuction","inputs":[],"outputs":[],"stateMutability":"nonpayable"},{"type":"function","name":"tokenPrice","inputs":[],"outputs":[{"name":"","type":"uint256","internalType":"uint256"}],"stateMutability":"view"},{"type":"function","name":"totalSell","inputs":[],"outputs":[{"name":"","type":"uint256","internalType":"uint256"}],"stateMutability":"view"},{"type":"function","name":"transferOwnership","inputs":[{"name":"newOwner","type":"address","internalType":"address"}],"outputs":[],"stateMutability":"nonpayable"},{"type":"function","name":"userDetail","inputs":[{"name":"","type":"address","internalType":"address"}],"outputs":[{"name":"reward","type":"uint256","internalType":"uint256"},{"name":"buyTotal","type":"uint256","internalType":"uint256"}],"stateMutability":"view"},{"type":"event","name":"OwnershipTransferred","inputs":[{"name":"previousOwner","type":"address","indexed":true,"internalType":"address"},{"name":"newOwner","type":"address","indexed":true,"internalType":"address"}],"anonymous":false},{"type":"event","name":"TokensPurchased","inputs":[{"name":"buyer","type":"address","indexed":true,"internalType":"address"},{"name":"usdtAmount","type":"uint256","indexed":false,"internalType":"uint256"},{"name":"amount","type":"uint256","indexed":false,"internalType":"uint256"},{"name":"lockTime","type":"uint256","indexed":false,"internalType":"uint256"}],"anonymous":false},{"type":"error","name":"OwnableInvalidOwner","inputs":[{"name":"owner","type":"address","internalType":"address"}]},{"type":"error","name":"OwnableUnauthorizedAccount","inputs":[{"name":"account","type":"address","internalType":"address"}]}],"bytecode":{"object":"0x6080604052670de0b6b3a76400006002556a01a784379d99db420000006003556a0422ca8b0a00a42500000060045569d3c21bcecceda1000000600555610e10600855600a805460ff191660011790553480156200005c57600080fd5b5060405162001883380380620018838339810160408190526200007f9162000167565b3380620000a657604051631e4fbdf760e01b81526000600482015260240160405180910390fd5b620000b181620000fa565b50600180546001600160a01b0319166001600160a01b03938416178155600a80546001600160a81b031916610100939094169290920260ff19169290921790911790556200019f565b600080546001600160a01b038381166001600160a01b0319831681178455604051919092169283917f8be0079c531659141344cd1fd0a4f28419497f9722a3daafe3b4186f6b6457e09190a35050565b80516001600160a01b03811681146200016257600080fd5b919050565b600080604083850312156200017b57600080fd5b62000186836200014a565b915062000196602084016200014a565b90509250929050565b6116d480620001af6000396000f3fe608060405234801561001057600080fd5b50600436106101c45760003560e01c80637ff9b596116100f9578063bf4dd13111610097578063e0202f8711610071578063e0202f871461042f578063e8b611d614610438578063f2fde38b14610441578063fa6770b31461045457600080fd5b8063bf4dd13114610400578063d358aa2014610409578063dcefa5381461041c57600080fd5b80639f7f9da2116100d35780639f7f9da2146103ce578063a24bcf46146103d7578063b187bd26146103ea578063bb4d5e7c146103f757600080fd5b80637ff9b596146103a15780638da5cb5b146103aa57806391b7f5ed146103bb57600080fd5b80633e6968b61161016657806364e39b871161014057806364e39b87146103765780636b64c76914610389578063715018a6146103915780637d3504531461039957600080fd5b80633e6968b6146102be5780635b10493f146102c657806362e00dd51461030257600080fd5b8063222d7e34116101a2578063222d7e3414610236578063224a80571461024d57806330db6f95146102565780633c830a381461026957600080fd5b8063174e31c4146101c957806318d7fa46146101f15780632194f3a214610206575b600080fd5b6101dc6101d73660046113d6565b61045f565b60405190151581526020015b60405180910390f35b6102046101ff366004611402565b610681565b005b600a5461021e9061010090046001600160a01b031681565b6040516001600160a01b0390911681526020016101e8565b61023f60095481565b6040519081526020016101e8565b61023f60055481565b61020461026436600461143c565b6106f3565b61029e610277366004611460565b600b6020526000908152604090208054600182015460028301546003909301549192909184565b6040805194855260208501939093529183015260608201526080016101e8565b61023f61070e565b6102ed6102d4366004611479565b600c602052600090815260409020805460019091015482565b604080519283526020830191909152016101e8565b61035b610310366004611460565b6000818152600b602090815260409182902082516080810184528154808252600183015493820184905260028301549482019490945260039091015460609091018190529193909250565b604080519384526020840192909252908201526060016101e8565b610204610384366004611479565b61076e565b61020461079e565b61020461088e565b6102046108a2565b61023f60025481565b6000546001600160a01b031661021e565b6102046103c9366004611460565b610ac2565b61023f60065481565b61023f6103e5366004611460565b610acf565b600a546101dc9060ff1681565b61023f60045481565b61023f60085481565b60015461021e906001600160a01b031681565b61020461042a366004611496565b610af1565b61023f60075481565b61023f60035481565b61020461044f366004611479565b611309565b6009546006546102ed565b600a5460009060ff166104b95760405162461bcd60e51b815260206004820152601760248201527f41756374696f6e206973207374696c6c2061637469766500000000000000000060448201526064015b60405180910390fd5b600654421161050a5760405162461bcd60e51b815260206004820152601d60248201527f41756374696f6e206461797320617265206e6f7420636f6d706c65746500000060448201526064016104b0565b6001600160a01b0383166000908152600c60205260409020541580159061054957506001600160a01b0383166000908152600c60205260409020548211155b6105875760405162461bcd60e51b815260206004820152600f60248201526e496e636f72726563742076616c756560881b60448201526064016104b0565b6001600160a01b0383166000908152600c6020526040812080548492906105af9084906114ed565b909155505060015460405163a9059cbb60e01b81526001600160a01b038581166004830152602482018590529091169063a9059cbb906044016020604051808303816000875af1158015610607573d6000803e3d6000fd5b505050506040513d601f19601f8201168201806040525081019061062b9190611500565b6106775760405162461bcd60e51b815260206004820152601c60248201527f50726f746f6e20746f6b656e207472616e73666572206661696c65640000000060448201526064016104b0565b5060015b92915050565b610689611344565b6007831080156106995750600083115b6106d85760405162461bcd60e51b815260206004820152601060248201526f4552524f523a204441592076616c756560801b60448201526064016104b0565b6000928352600b602052604090922060038101929092559055565b6106fb611344565b600a805460ff1916911515919091179055565b600a5460009060ff1680610723575060065442115b1561072e5750600890565b60006009544261073e91906114ed565b9050600061074f620151808361151d565b61075a90600161153f565b9050600781111561067b5760079250505090565b610776611344565b600a80546001600160a01b0390921661010002610100600160a81b0319909216919091179055565b6107a6611344565b600a5460ff166107f85760405162461bcd60e51b815260206004820152601760248201527f41756374696f6e20616c7265616479207374617274656400000000000000000060448201526064016104b0565b600a805460ff1916905561080f4262093a8061153f565b6006554260095560015b6007811161088b576000818152600b602052604090206a01a784379d99db420000009055600581111561085c578060061461085557600161085f565b600261085f565b60035b6000828152600b6020526040902060ff919091166003909101558061088381611552565b915050610819565b50565b610896611344565b6108a06000611371565b565b6108aa611344565b600a805460ff19166001179055600060068181556009829055600b6020527f72c6bfb7988af3a1efa6568f02a999bc52252641c659d85961ca3d372b57d5d08290557fa50eece07c7db1631545c0069bd8f5f54d5935e215d59097edf258a44ba916358290557f64c15cc42be7899b001f818cf4433057002112c418d1d3a67cd5cb453051d33f8290557f12d0c11577e2f0950f57c455c117796550b79f444811db8ba2f69c57b646c7858290557febae6141bae5521e99e0a8d610356b0f501fea54980b59c84841db43ba7204f58290557f0387e9d1203691d8e3362a7e4c6723de358a4010d7f31ecbec3fbfc61d1c75fd8290557ff5559028dc9ba50d75343c779b2f75e13a84a14662932fc67a486f263ca31a978290557fa50eece07c7db1631545c0069bd8f5f54d5935e215d59097edf258a44ba916368290557f72c6bfb7988af3a1efa6568f02a999bc52252641c659d85961ca3d372b57d5d18290557f64c15cc42be7899b001f818cf4433057002112c418d1d3a67cd5cb453051d3408290557f12d0c11577e2f0950f57c455c117796550b79f444811db8ba2f69c57b646c7868290557febae6141bae5521e99e0a8d610356b0f501fea54980b59c84841db43ba7204f68290557ff5559028dc9ba50d75343c779b2f75e13a84a14662932fc67a486f263ca31a9882905581527f0387e9d1203691d8e3362a7e4c6723de358a4010d7f31ecbec3fbfc61d1c75fe55565b610aca611344565b600255565b600254600090610ae783670de0b6b3a764000061156b565b61067b919061151d565b600a5460ff1615610b385760405162461bcd60e51b8152602060048201526011602482015270105d58dd1a5bdb881a5cc81c185d5cd959607a1b60448201526064016104b0565b600654421115610b8a5760405162461bcd60e51b815260206004820152601760248201527f43757272656e7420726f756e642068617320656e64656400000000000000000060448201526064016104b0565b6000610b9461070e565b90506007811115610be75760405162461bcd60e51b815260206004820152601960248201527f41756374696f6e20646179732061726520636f6d706c6574650000000000000060448201526064016104b0565b6000818152600b602052604090206007829003610c5057600654421115610c505760405162461bcd60e51b815260206004820152601760248201527f41756374696f6e20726f756e642068617320656e64656400000000000000000060448201526064016104b0565b8160061480610c5f5750816007145b15610cd3576001546040516370a0823160e01b81523060048201526001600160a01b03909116906370a0823190602401602060405180830381865afa158015610cac573d6000803e3d6000fd5b505050506040513d601f19601f82011682018060405250810190610cd09190611582565b81555b600a5460ff1615610d175760405162461bcd60e51b815260206004820152600e60248201526d105d58dd1a5bdb8814185d5cd95960921b60448201526064016104b0565b600454816001015410610d625760405162461bcd60e51b8152602060048201526013602482015272139bdd081b5bdc99481d1a185b881b1a5b5a5d606a1b60448201526064016104b0565b600554816002015410610dad5760405162461bcd60e51b8152602060048201526013602482015272139bdd081b5bdc99481d1a185b881b1a5b5a5d606a1b60448201526064016104b0565b6000670de0b6b3a764000060025485610dc6919061156b565b610dd0919061151d565b600a546040516323b872dd60e01b81523360048201526001600160a01b0361010090920482166024820152604481018390529192508716906323b872dd906064016020604051808303816000875af1158015610e30573d6000803e3d6000fd5b505050506040513d601f19601f82011682018060405250810190610e549190611500565b610e975760405162461bcd60e51b81526020600482015260146024820152731554d115081d1c985b9cd9995c8819985a5b195960621b60448201526064016104b0565b60008260000154858460010154610eae919061153f565b1115610f8657825460018401541115610ee1576001830154610ed0868261153f565b610eda91906114ed565b9050610f00565b82546001840154610ef390879061153f565b610efd91906114ed565b90505b80836002016000828254610f14919061153f565b90915550506001600160a01b0386166000908152600c602052604081206001018054839290610f4490849061153f565b90915550506003830154610f58908261156b565b6001600160a01b0387166000908152600c602052604081208054909190610f8090849061153f565b90915550505b8460076000828254610f98919061153f565b9250508190555084836001016000828254610fb3919061153f565b9091555050600154604051638b3f863f60e01b81526001600160a01b0388811660048301526000928392911690638b3f863f90602401600060405180830381865afa158015611006573d6000803e3d6000fd5b505050506040513d6000823e601f3d908101601f1916820160405261102e91908101906115d5565b604051691058d8dc99591a5d195960b21b6020820152909150602a0160405160208183030381529060405280519060200120816040516020016110719190611682565b604051602081830303815290604052805190602001200361109c57600854611099904261153f565b91505b604051644e6f6e555360d81b602082015260250160405160208183030381529060405280519060200120816040516020016110d79190611682565b6040516020818303038152906040528051906020012003611102576008546110ff904261153f565b91505b6040516c125b9cdd1a5d1d5d1a5bdb985b609a1b6020820152602d0160405160208183030381529060405280519060200120816040516020016111459190611682565b60405160208183030381529060405280519060200120036111705760085461116d904261153f565b91505b60015460405163e2ab691d60e01b81526001600160a01b038a81166004830152602482018a9052604482018590529091169063e2ab691d906064016020604051808303816000875af11580156111ca573d6000803e3d6000fd5b505050506040513d601f19601f820116820180604052508101906111ee9190611500565b5060015460405163a9059cbb60e01b81526001600160a01b038a81166004830152602482018a90529091169063a9059cbb906044016020604051808303816000875af1158015611242573d6000803e3d6000fd5b505050506040513d601f19601f820116820180604052508101906112669190611500565b6112b25760405162461bcd60e51b815260206004820152601c60248201527f50726f746f6e20746f6b656e207472616e73666572206661696c65640000000060448201526064016104b0565b60408051858152602081018990529081018390526001600160a01b038916907f0d1a0d5e3d583a0e92588799dd06e50fd78c07daf05f0cc06d7b848b1ca445f19060600160405180910390a2505050505050505050565b611311611344565b6001600160a01b03811661133b57604051631e4fbdf760e01b8152600060048201526024016104b0565b61088b81611371565b6000546001600160a01b031633146108a05760405163118cdaa760e01b81523360048201526024016104b0565b600080546001600160a01b038381166001600160a01b0319831681178455604051919092169283917f8be0079c531659141344cd1fd0a4f28419497f9722a3daafe3b4186f6b6457e09190a35050565b6001600160a01b038116811461088b57600080fd5b600080604083850312156113e957600080fd5b82356113f4816113c1565b946020939093013593505050565b60008060006060848603121561141757600080fd5b505081359360208301359350604090920135919050565b801515811461088b57600080fd5b60006020828403121561144e57600080fd5b81356114598161142e565b9392505050565b60006020828403121561147257600080fd5b5035919050565b60006020828403121561148b57600080fd5b8135611459816113c1565b6000806000606084860312156114ab57600080fd5b83356114b6816113c1565b925060208401356114c6816113c1565b929592945050506040919091013590565b634e487b7160e01b600052601160045260246000fd5b8181038181111561067b5761067b6114d7565b60006020828403121561151257600080fd5b81516114598161142e565b60008261153a57634e487b7160e01b600052601260045260246000fd5b500490565b8082018082111561067b5761067b6114d7565b600060018201611564576115646114d7565b5060010190565b808202811582820484141761067b5761067b6114d7565b60006020828403121561159457600080fd5b5051919050565b634e487b7160e01b600052604160045260246000fd5b60005b838110156115cc5781810151838201526020016115b4565b50506000910152565b6000602082840312156115e757600080fd5b815167ffffffffffffffff808211156115ff57600080fd5b818401915084601f83011261161357600080fd5b8151818111156116255761162561159b565b604051601f8201601f19908116603f0116810190838211818310171561164d5761164d61159b565b8160405282815287602084870101111561166657600080fd5b6116778360208301602088016115b1565b979650505050505050565b600082516116948184602087016115b1565b919091019291505056fea2646970667358221220d8d6041c151074551f1261d2f5966f29d8ada26157204bad830c1d40f64491c264736f6c63430008140033","linkReferences":{}},"methodIdentifiers":{"AuctionTime()":"fa6770b3","PROTON()":"d358aa20","auctionStatus(bool)":"30db6f95","buyTokens(address,address,uint256)":"dcefa538","calculateTokenAmount(uint256)":"a24bcf46","claimReward(address,uint256)":"174e31c4","currentRoundEnd()":"9f7f9da2","currentRoundStart()":"222d7e34","dailyAuctions(uint256)":"3c830a38","dailySupply()":"e8b611d6","fundsWallet()":"2194f3a2","getCurrentDay()":"3e6968b6","getDailyAuction(uint256)":"62e00dd5","isPaused()":"b187bd26","lockingDay()":"bf4dd131","maxOversubscription()":"bb4d5e7c","maxOversubscriptionlimit()":"224a8057","owner()":"8da5cb5b","renounceOwnership()":"715018a6","resetAuction()":"7d350453","setDailyDetails(uint256,uint256,uint256)":"18d7fa46","setFundsWallet(address)":"64e39b87","setPrice(uint256)":"91b7f5ed","startAuction()":"6b64c769","tokenPrice()":"7ff9b596","totalSell()":"e0202f87","transferOwnership(address)":"f2fde38b","userDetail(address)":"5b10493f"},"id":25}