{
	"Auction/auction1404.sol": {
		"ProtonAuction": {
			"abi": [
				{
					"inputs": [
						{
							"internalType": "address",
							"name": "_protonAddress",
							"type": "address"
						},
						{
							"internalType": "address",
							"name": "_fundsWalletAdd",
							"type": "address"
						}
					],
					"stateMutability": "nonpayable",
					"type": "constructor"
				},
				{
					"inputs": [
						{
							"internalType": "address",
							"name": "owner",
							"type": "address"
						}
					],
					"name": "OwnableInvalidOwner",
					"type": "error"
				},
				{
					"inputs": [
						{
							"internalType": "address",
							"name": "account",
							"type": "address"
						}
					],
					"name": "OwnableUnauthorizedAccount",
					"type": "error"
				},
				{
					"anonymous": false,
					"inputs": [
						{
							"indexed": true,
							"internalType": "address",
							"name": "previousOwner",
							"type": "address"
						},
						{
							"indexed": true,
							"internalType": "address",
							"name": "newOwner",
							"type": "address"
						}
					],
					"name": "OwnershipTransferred",
					"type": "event"
				},
				{
					"anonymous": false,
					"inputs": [
						{
							"indexed": true,
							"internalType": "address",
							"name": "buyer",
							"type": "address"
						},
						{
							"indexed": false,
							"internalType": "uint256",
							"name": "usdtAmount",
							"type": "uint256"
						},
						{
							"indexed": false,
							"internalType": "uint256",
							"name": "amount",
							"type": "uint256"
						},
						{
							"indexed": false,
							"internalType": "uint256",
							"name": "lockTime",
							"type": "uint256"
						}
					],
					"name": "TokensPurchased",
					"type": "event"
				},
				{
					"inputs": [],
					"name": "AuctionTime",
					"outputs": [
						{
							"internalType": "uint256",
							"name": "",
							"type": "uint256"
						},
						{
							"internalType": "uint256",
							"name": "",
							"type": "uint256"
						}
					],
					"stateMutability": "view",
					"type": "function"
				},
				{
					"inputs": [],
					"name": "PROTON",
					"outputs": [
						{
							"internalType": "contract IProton",
							"name": "",
							"type": "address"
						}
					],
					"stateMutability": "view",
					"type": "function"
				},
				{
					"inputs": [],
					"name": "USDT",
					"outputs": [
						{
							"internalType": "contract IERC20",
							"name": "",
							"type": "address"
						}
					],
					"stateMutability": "view",
					"type": "function"
				},
				{
					"inputs": [
						{
							"internalType": "bool",
							"name": "status",
							"type": "bool"
						}
					],
					"name": "auctionStatus",
					"outputs": [],
					"stateMutability": "nonpayable",
					"type": "function"
				},
				{
					"inputs": [
						{
							"internalType": "contract IERC20",
							"name": "contractAddress",
							"type": "address"
						},
						{
							"internalType": "address",
							"name": "userAddress",
							"type": "address"
						},
						{
							"internalType": "uint256",
							"name": "_amount",
							"type": "uint256"
						}
					],
					"name": "buyTokens",
					"outputs": [],
					"stateMutability": "nonpayable",
					"type": "function"
				},
				{
					"inputs": [
						{
							"internalType": "uint256",
							"name": "_usdtAmount",
							"type": "uint256"
						}
					],
					"name": "calculateTokenAmount",
					"outputs": [
						{
							"internalType": "uint256",
							"name": "",
							"type": "uint256"
						}
					],
					"stateMutability": "view",
					"type": "function"
				},
				{
					"inputs": [
						{
							"internalType": "address",
							"name": "user",
							"type": "address"
						},
						{
							"internalType": "uint256",
							"name": "_usdtAmount",
							"type": "uint256"
						}
					],
					"name": "claimReward",
					"outputs": [
						{
							"internalType": "bool",
							"name": "",
							"type": "bool"
						}
					],
					"stateMutability": "nonpayable",
					"type": "function"
				},
				{
					"inputs": [],
					"name": "currentRoundEnd",
					"outputs": [
						{
							"internalType": "uint256",
							"name": "",
							"type": "uint256"
						}
					],
					"stateMutability": "view",
					"type": "function"
				},
				{
					"inputs": [],
					"name": "currentRoundStart",
					"outputs": [
						{
							"internalType": "uint256",
							"name": "",
							"type": "uint256"
						}
					],
					"stateMutability": "view",
					"type": "function"
				},
				{
					"inputs": [
						{
							"internalType": "uint256",
							"name": "",
							"type": "uint256"
						}
					],
					"name": "dailyAuctions",
					"outputs": [
						{
							"internalType": "uint256",
							"name": "tokensDaily",
							"type": "uint256"
						},
						{
							"internalType": "uint256",
							"name": "tokensSold",
							"type": "uint256"
						},
						{
							"internalType": "uint256",
							"name": "oversubscribed",
							"type": "uint256"
						},
						{
							"internalType": "uint256",
							"name": "bonusMultiplier",
							"type": "uint256"
						}
					],
					"stateMutability": "view",
					"type": "function"
				},
				{
					"inputs": [],
					"name": "dailySupply",
					"outputs": [
						{
							"internalType": "uint256",
							"name": "",
							"type": "uint256"
						}
					],
					"stateMutability": "view",
					"type": "function"
				},
				{
					"inputs": [],
					"name": "fundsWallet",
					"outputs": [
						{
							"internalType": "address",
							"name": "",
							"type": "address"
						}
					],
					"stateMutability": "view",
					"type": "function"
				},
				{
					"inputs": [],
					"name": "getCurrentDay",
					"outputs": [
						{
							"internalType": "uint256",
							"name": "",
							"type": "uint256"
						}
					],
					"stateMutability": "view",
					"type": "function"
				},
				{
					"inputs": [
						{
							"internalType": "uint256",
							"name": "_currentDay",
							"type": "uint256"
						}
					],
					"name": "getDailyAuction",
					"outputs": [
						{
							"internalType": "uint256",
							"name": "",
							"type": "uint256"
						},
						{
							"internalType": "uint256",
							"name": "",
							"type": "uint256"
						},
						{
							"internalType": "uint256",
							"name": "",
							"type": "uint256"
						}
					],
					"stateMutability": "view",
					"type": "function"
				},
				{
					"inputs": [],
					"name": "isPaused",
					"outputs": [
						{
							"internalType": "bool",
							"name": "",
							"type": "bool"
						}
					],
					"stateMutability": "view",
					"type": "function"
				},
				{
					"inputs": [],
					"name": "lockingDay",
					"outputs": [
						{
							"internalType": "uint256",
							"name": "",
							"type": "uint256"
						}
					],
					"stateMutability": "view",
					"type": "function"
				},
				{
					"inputs": [],
					"name": "maxOversubscription",
					"outputs": [
						{
							"internalType": "uint256",
							"name": "",
							"type": "uint256"
						}
					],
					"stateMutability": "view",
					"type": "function"
				},
				{
					"inputs": [],
					"name": "maxOversubscriptionlimit",
					"outputs": [
						{
							"internalType": "uint256",
							"name": "",
							"type": "uint256"
						}
					],
					"stateMutability": "view",
					"type": "function"
				},
				{
					"inputs": [],
					"name": "owner",
					"outputs": [
						{
							"internalType": "address",
							"name": "",
							"type": "address"
						}
					],
					"stateMutability": "view",
					"type": "function"
				},
				{
					"inputs": [],
					"name": "renounceOwnership",
					"outputs": [],
					"stateMutability": "nonpayable",
					"type": "function"
				},
				{
					"inputs": [],
					"name": "resetAuction",
					"outputs": [],
					"stateMutability": "nonpayable",
					"type": "function"
				},
				{
					"inputs": [
						{
							"internalType": "uint256",
							"name": "day",
							"type": "uint256"
						},
						{
							"internalType": "uint256",
							"name": "tokensDaily",
							"type": "uint256"
						},
						{
							"internalType": "uint256",
							"name": "bonusMultiplier",
							"type": "uint256"
						}
					],
					"name": "setDailyDetails",
					"outputs": [],
					"stateMutability": "nonpayable",
					"type": "function"
				},
				{
					"inputs": [
						{
							"internalType": "address",
							"name": "_fundsWalletAddr",
							"type": "address"
						}
					],
					"name": "setFundsWallet",
					"outputs": [],
					"stateMutability": "nonpayable",
					"type": "function"
				},
				{
					"inputs": [
						{
							"internalType": "uint256",
							"name": "_tokenPrice",
							"type": "uint256"
						}
					],
					"name": "setPrice",
					"outputs": [],
					"stateMutability": "nonpayable",
					"type": "function"
				},
				{
					"inputs": [],
					"name": "startAuction",
					"outputs": [],
					"stateMutability": "nonpayable",
					"type": "function"
				},
				{
					"inputs": [],
					"name": "tokenPrice",
					"outputs": [
						{
							"internalType": "uint256",
							"name": "",
							"type": "uint256"
						}
					],
					"stateMutability": "view",
					"type": "function"
				},
				{
					"inputs": [],
					"name": "totalSell",
					"outputs": [
						{
							"internalType": "uint256",
							"name": "",
							"type": "uint256"
						}
					],
					"stateMutability": "view",
					"type": "function"
				},
				{
					"inputs": [
						{
							"internalType": "address",
							"name": "newOwner",
							"type": "address"
						}
					],
					"name": "transferOwnership",
					"outputs": [],
					"stateMutability": "nonpayable",
					"type": "function"
				},
				{
					"inputs": [
						{
							"internalType": "address",
							"name": "",
							"type": "address"
						}
					],
					"name": "userDetail",
					"outputs": [
						{
							"internalType": "uint256",
							"name": "reward",
							"type": "uint256"
						},
						{
							"internalType": "uint256",
							"name": "buyTotal",
							"type": "uint256"
						}
					],
					"stateMutability": "view",
					"type": "function"
				}
			],
			"devdoc": {
				"errors": {
					"OwnableInvalidOwner(address)": [
						{
							"details": "The owner is not a valid owner account. (eg. `address(0)`)"
						}
					],
					"OwnableUnauthorizedAccount(address)": [
						{
							"details": "The caller account is not authorized to perform an operation."
						}
					]
				},
				"kind": "dev",
				"methods": {
					"owner()": {
						"details": "Returns the address of the current owner."
					},
					"renounceOwnership()": {
						"details": "Leaves the contract without owner. It will not be possible to call `onlyOwner` functions. Can only be called by the current owner. NOTE: Renouncing ownership will leave the contract without an owner, thereby disabling any functionality that is only available to the owner."
					},
					"transferOwnership(address)": {
						"details": "Transfers ownership of the contract to a new account (`newOwner`). Can only be called by the current owner."
					}
				},
				"version": 1
			},
			"evm": {
				"assembly": "    /* \"Auction/auction1404.sol\":23280:32121  contract ProtonAuction is Ownable {... */\n  mstore(0x40, 0x80)\n    /* \"Auction/auction1404.sol\":23399:23411  1 * 10 ** 18 */\n  0x0de0b6b3a7640000\n    /* \"Auction/auction1404.sol\":23371:23411  uint256 public tokenPrice = 1 * 10 ** 18 */\n  0x03\n  sstore\n    /* \"Auction/auction1404.sol\":23473:23491  2000000 * 10 ** 18 */\n  0x01a784379d99db42000000\n    /* \"Auction/auction1404.sol\":23444:23491  uint256 public dailySupply = 2000000 * 10 ** 18 */\n  0x04\n  sstore\n    /* \"Auction/auction1404.sol\":23534:23552  5000000 * 10 ** 18 */\n  0x0422ca8b0a00a425000000\n    /* \"Auction/auction1404.sol\":23497:23552  uint256 public maxOversubscription = 5000000 * 10 ** 18 */\n  0x05\n  sstore\n    /* \"Auction/auction1404.sol\":23600:23618  1000000 * 10 ** 18 */\n  0xd3c21bcecceda1000000\n    /* \"Auction/auction1404.sol\":23558:23618  uint256 public maxOversubscriptionlimit = 1000000 * 10 ** 18 */\n  0x06\n  sstore\n    /* \"Auction/auction1404.sol\":23718:23721  180 */\n  0xb4\n    /* \"Auction/auction1404.sol\":23690:23721  uint256 public lockingDay = 180 */\n  0x09\n  sstore\n    /* \"Auction/auction1404.sol\":23792:23796  true */\n  0x01\n    /* \"Auction/auction1404.sol\":23766:23796  bool    public isPaused = true */\n  0x0b\n  exp(0x0100, 0x00)\n  dup2\n  sload\n  dup2\n  0xff\n  mul\n  not\n  and\n  swap1\n  dup4\n  iszero\n  iszero\n  mul\n  or\n  swap1\n  sstore\n  pop\n    /* \"Auction/auction1404.sol\":24322:24586  constructor(... */\n  callvalue\n  dup1\n  iszero\n  tag_1\n  jumpi\n  0x00\n  dup1\n  revert\ntag_1:\n  pop\n  mload(0x40)\n  sub(codesize, bytecodeSize)\n  dup1\n  bytecodeSize\n  dup4\n  codecopy\n  dup2\n  dup2\n  add\n  0x40\n  mstore\n  dup2\n  add\n  swap1\n  tag_2\n  swap2\n  swap1\n  tag_3\n  jump\t// in\ntag_2:\n    /* \"Auction/auction1404.sol\":24414:24424  msg.sender */\n  caller\n    /* \"Auction/auction1404.sol\":1593:1594  0 */\n  0x00\n    /* \"Auction/auction1404.sol\":1569:1595  initialOwner == address(0) */\n  0xffffffffffffffffffffffffffffffffffffffff\n  and\n    /* \"Auction/auction1404.sol\":1569:1581  initialOwner */\n  dup2\n    /* \"Auction/auction1404.sol\":1569:1595  initialOwner == address(0) */\n  0xffffffffffffffffffffffffffffffffffffffff\n  and\n  sub\n    /* \"Auction/auction1404.sol\":1565:1660  if (initialOwner == address(0)) {... */\n  tag_7\n  jumpi\n    /* \"Auction/auction1404.sol\":1646:1647  0 */\n  0x00\n    /* \"Auction/auction1404.sol\":1618:1649  OwnableInvalidOwner(address(0)) */\n  mload(0x40)\n  0x1e4fbdf700000000000000000000000000000000000000000000000000000000\n  dup2\n  mstore\n  0x04\n  add\n  tag_8\n  swap2\n  swap1\n  tag_9\n  jump\t// in\ntag_8:\n  mload(0x40)\n  dup1\n  swap2\n  sub\n  swap1\n  revert\n    /* \"Auction/auction1404.sol\":1565:1660  if (initialOwner == address(0)) {... */\ntag_7:\n    /* \"Auction/auction1404.sol\":1669:1701  _transferOwnership(initialOwner) */\n  tag_10\n    /* \"Auction/auction1404.sol\":1688:1700  initialOwner */\n  dup2\n    /* \"Auction/auction1404.sol\":1669:1687  _transferOwnership */\n  shl(0x20, tag_11)\n    /* \"Auction/auction1404.sol\":1669:1701  _transferOwnership(initialOwner) */\n  0x20\n  shr\n  jump\t// in\ntag_10:\n    /* \"Auction/auction1404.sol\":1521:1708  constructor(address initialOwner) {... */\n  pop\n    /* \"Auction/auction1404.sol\":24493:24507  _protonAddress */\n  dup2\n    /* \"Auction/auction1404.sol\":24476:24482  PROTON */\n  0x02\n  0x00\n    /* \"Auction/auction1404.sol\":24476:24508  PROTON = IProton(_protonAddress) */\n  0x0100\n  exp\n  dup2\n  sload\n  dup2\n  0xffffffffffffffffffffffffffffffffffffffff\n  mul\n  not\n  and\n  swap1\n  dup4\n  0xffffffffffffffffffffffffffffffffffffffff\n  and\n  mul\n  or\n  swap1\n  sstore\n  pop\n    /* \"Auction/auction1404.sol\":24532:24547  _fundsWalletAdd */\n  dup1\n    /* \"Auction/auction1404.sol\":24518:24529  fundsWallet */\n  0x0b\n  0x01\n    /* \"Auction/auction1404.sol\":24518:24547  fundsWallet = _fundsWalletAdd */\n  0x0100\n  exp\n  dup2\n  sload\n  dup2\n  0xffffffffffffffffffffffffffffffffffffffff\n  mul\n  not\n  and\n  swap1\n  dup4\n  0xffffffffffffffffffffffffffffffffffffffff\n  and\n  mul\n  or\n  swap1\n  sstore\n  pop\n    /* \"Auction/auction1404.sol\":24568:24572  true */\n  0x01\n    /* \"Auction/auction1404.sol\":24557:24565  isPaused */\n  0x0b\n  0x00\n    /* \"Auction/auction1404.sol\":24557:24572  isPaused = true */\n  0x0100\n  exp\n  dup2\n  sload\n  dup2\n  0xff\n  mul\n  not\n  and\n  swap1\n  dup4\n  iszero\n  iszero\n  mul\n  or\n  swap1\n  sstore\n  pop\n    /* \"Auction/auction1404.sol\":24322:24586  constructor(... */\n  pop\n  pop\n    /* \"Auction/auction1404.sol\":23280:32121  contract ProtonAuction is Ownable {... */\n  jump(tag_13)\n    /* \"Auction/auction1404.sol\":3208:3395  function _transferOwnership(address newOwner) internal virtual {... */\ntag_11:\n    /* \"Auction/auction1404.sol\":3281:3297  address oldOwner */\n  0x00\n    /* \"Auction/auction1404.sol\":3300:3306  _owner */\n  dup1\n  0x00\n  swap1\n  sload\n  swap1\n  0x0100\n  exp\n  swap1\n  div\n  0xffffffffffffffffffffffffffffffffffffffff\n  and\n    /* \"Auction/auction1404.sol\":3281:3306  address oldOwner = _owner */\n  swap1\n  pop\n    /* \"Auction/auction1404.sol\":3325:3333  newOwner */\n  dup2\n    /* \"Auction/auction1404.sol\":3316:3322  _owner */\n  0x00\n  dup1\n    /* \"Auction/auction1404.sol\":3316:3333  _owner = newOwner */\n  0x0100\n  exp\n  dup2\n  sload\n  dup2\n  0xffffffffffffffffffffffffffffffffffffffff\n  mul\n  not\n  and\n  swap1\n  dup4\n  0xffffffffffffffffffffffffffffffffffffffff\n  and\n  mul\n  or\n  swap1\n  sstore\n  pop\n    /* \"Auction/auction1404.sol\":3379:3387  newOwner */\n  dup2\n    /* \"Auction/auction1404.sol\":3348:3388  OwnershipTransferred(oldOwner, newOwner) */\n  0xffffffffffffffffffffffffffffffffffffffff\n  and\n    /* \"Auction/auction1404.sol\":3369:3377  oldOwner */\n  dup2\n    /* \"Auction/auction1404.sol\":3348:3388  OwnershipTransferred(oldOwner, newOwner) */\n  0xffffffffffffffffffffffffffffffffffffffff\n  and\n  0x8be0079c531659141344cd1fd0a4f28419497f9722a3daafe3b4186f6b6457e0\n  mload(0x40)\n  mload(0x40)\n  dup1\n  swap2\n  sub\n  swap1\n  log3\n    /* \"Auction/auction1404.sol\":3271:3395  {... */\n  pop\n    /* \"Auction/auction1404.sol\":3208:3395  function _transferOwnership(address newOwner) internal virtual {... */\n  pop\n  jump\t// out\n    /* \"#utility.yul\":88:205   */\ntag_16:\n    /* \"#utility.yul\":197:198   */\n  0x00\n    /* \"#utility.yul\":194:195   */\n  dup1\n    /* \"#utility.yul\":187:199   */\n  revert\n    /* \"#utility.yul\":334:460   */\ntag_18:\n    /* \"#utility.yul\":371:378   */\n  0x00\n    /* \"#utility.yul\":411:453   */\n  0xffffffffffffffffffffffffffffffffffffffff\n    /* \"#utility.yul\":404:409   */\n  dup3\n    /* \"#utility.yul\":400:454   */\n  and\n    /* \"#utility.yul\":389:454   */\n  swap1\n  pop\n    /* \"#utility.yul\":334:460   */\n  swap2\n  swap1\n  pop\n  jump\t// out\n    /* \"#utility.yul\":466:562   */\ntag_19:\n    /* \"#utility.yul\":503:510   */\n  0x00\n    /* \"#utility.yul\":532:556   */\n  tag_29\n    /* \"#utility.yul\":550:555   */\n  dup3\n    /* \"#utility.yul\":532:556   */\n  tag_18\n  jump\t// in\ntag_29:\n    /* \"#utility.yul\":521:556   */\n  swap1\n  pop\n    /* \"#utility.yul\":466:562   */\n  swap2\n  swap1\n  pop\n  jump\t// out\n    /* \"#utility.yul\":568:690   */\ntag_20:\n    /* \"#utility.yul\":641:665   */\n  tag_31\n    /* \"#utility.yul\":659:664   */\n  dup2\n    /* \"#utility.yul\":641:665   */\n  tag_19\n  jump\t// in\ntag_31:\n    /* \"#utility.yul\":634:639   */\n  dup2\n    /* \"#utility.yul\":631:666   */\n  eq\n    /* \"#utility.yul\":621:684   */\n  tag_32\n  jumpi\n    /* \"#utility.yul\":680:681   */\n  0x00\n    /* \"#utility.yul\":677:678   */\n  dup1\n    /* \"#utility.yul\":670:682   */\n  revert\n    /* \"#utility.yul\":621:684   */\ntag_32:\n    /* \"#utility.yul\":568:690   */\n  pop\n  jump\t// out\n    /* \"#utility.yul\":696:839   */\ntag_21:\n    /* \"#utility.yul\":753:758   */\n  0x00\n    /* \"#utility.yul\":784:790   */\n  dup2\n    /* \"#utility.yul\":778:791   */\n  mload\n    /* \"#utility.yul\":769:791   */\n  swap1\n  pop\n    /* \"#utility.yul\":800:833   */\n  tag_34\n    /* \"#utility.yul\":827:832   */\n  dup2\n    /* \"#utility.yul\":800:833   */\n  tag_20\n  jump\t// in\ntag_34:\n    /* \"#utility.yul\":696:839   */\n  swap3\n  swap2\n  pop\n  pop\n  jump\t// out\n    /* \"#utility.yul\":845:1352   */\ntag_3:\n    /* \"#utility.yul\":924:930   */\n  0x00\n    /* \"#utility.yul\":932:938   */\n  dup1\n    /* \"#utility.yul\":981:983   */\n  0x40\n    /* \"#utility.yul\":969:978   */\n  dup4\n    /* \"#utility.yul\":960:967   */\n  dup6\n    /* \"#utility.yul\":956:979   */\n  sub\n    /* \"#utility.yul\":952:984   */\n  slt\n    /* \"#utility.yul\":949:1068   */\n  iszero\n  tag_36\n  jumpi\n    /* \"#utility.yul\":987:1066   */\n  tag_37\n  tag_16\n  jump\t// in\ntag_37:\n    /* \"#utility.yul\":949:1068   */\ntag_36:\n    /* \"#utility.yul\":1107:1108   */\n  0x00\n    /* \"#utility.yul\":1132:1196   */\n  tag_38\n    /* \"#utility.yul\":1188:1195   */\n  dup6\n    /* \"#utility.yul\":1179:1185   */\n  dup3\n    /* \"#utility.yul\":1168:1177   */\n  dup7\n    /* \"#utility.yul\":1164:1186   */\n  add\n    /* \"#utility.yul\":1132:1196   */\n  tag_21\n  jump\t// in\ntag_38:\n    /* \"#utility.yul\":1122:1196   */\n  swap3\n  pop\n    /* \"#utility.yul\":1078:1206   */\n  pop\n    /* \"#utility.yul\":1245:1247   */\n  0x20\n    /* \"#utility.yul\":1271:1335   */\n  tag_39\n    /* \"#utility.yul\":1327:1334   */\n  dup6\n    /* \"#utility.yul\":1318:1324   */\n  dup3\n    /* \"#utility.yul\":1307:1316   */\n  dup7\n    /* \"#utility.yul\":1303:1325   */\n  add\n    /* \"#utility.yul\":1271:1335   */\n  tag_21\n  jump\t// in\ntag_39:\n    /* \"#utility.yul\":1261:1335   */\n  swap2\n  pop\n    /* \"#utility.yul\":1216:1345   */\n  pop\n    /* \"#utility.yul\":845:1352   */\n  swap3\n  pop\n  swap3\n  swap1\n  pop\n  jump\t// out\n    /* \"#utility.yul\":1358:1476   */\ntag_22:\n    /* \"#utility.yul\":1445:1469   */\n  tag_41\n    /* \"#utility.yul\":1463:1468   */\n  dup2\n    /* \"#utility.yul\":1445:1469   */\n  tag_19\n  jump\t// in\ntag_41:\n    /* \"#utility.yul\":1440:1443   */\n  dup3\n    /* \"#utility.yul\":1433:1470   */\n  mstore\n    /* \"#utility.yul\":1358:1476   */\n  pop\n  pop\n  jump\t// out\n    /* \"#utility.yul\":1482:1704   */\ntag_9:\n    /* \"#utility.yul\":1575:1579   */\n  0x00\n    /* \"#utility.yul\":1613:1615   */\n  0x20\n    /* \"#utility.yul\":1602:1611   */\n  dup3\n    /* \"#utility.yul\":1598:1616   */\n  add\n    /* \"#utility.yul\":1590:1616   */\n  swap1\n  pop\n    /* \"#utility.yul\":1626:1697   */\n  tag_43\n    /* \"#utility.yul\":1694:1695   */\n  0x00\n    /* \"#utility.yul\":1683:1692   */\n  dup4\n    /* \"#utility.yul\":1679:1696   */\n  add\n    /* \"#utility.yul\":1670:1676   */\n  dup5\n    /* \"#utility.yul\":1626:1697   */\n  tag_22\n  jump\t// in\ntag_43:\n    /* \"#utility.yul\":1482:1704   */\n  swap3\n  swap2\n  pop\n  pop\n  jump\t// out\n    /* \"Auction/auction1404.sol\":23280:32121  contract ProtonAuction is Ownable {... */\ntag_13:\n  dataSize(sub_0)\n  dup1\n  dataOffset(sub_0)\n  0x00\n  codecopy\n  0x00\n  return\nstop\n\nsub_0: assembly {\n        /* \"Auction/auction1404.sol\":23280:32121  contract ProtonAuction is Ownable {... */\n      mstore(0x40, 0x80)\n      callvalue\n      dup1\n      iszero\n      tag_1\n      jumpi\n      0x00\n      dup1\n      revert\n    tag_1:\n      pop\n      jumpi(tag_2, lt(calldatasize, 0x04))\n      shr(0xe0, calldataload(0x00))\n      dup1\n      0x7ff9b596\n      gt\n      tag_32\n      jumpi\n      dup1\n      0xbf4dd131\n      gt\n      tag_33\n      jumpi\n      dup1\n      0xe0202f87\n      gt\n      tag_34\n      jumpi\n      dup1\n      0xe0202f87\n      eq\n      tag_28\n      jumpi\n      dup1\n      0xe8b611d6\n      eq\n      tag_29\n      jumpi\n      dup1\n      0xf2fde38b\n      eq\n      tag_30\n      jumpi\n      dup1\n      0xfa6770b3\n      eq\n      tag_31\n      jumpi\n      jump(tag_2)\n    tag_34:\n      dup1\n      0xbf4dd131\n      eq\n      tag_24\n      jumpi\n      dup1\n      0xc54e44eb\n      eq\n      tag_25\n      jumpi\n      dup1\n      0xd358aa20\n      eq\n      tag_26\n      jumpi\n      dup1\n      0xdcefa538\n      eq\n      tag_27\n      jumpi\n      jump(tag_2)\n    tag_33:\n      dup1\n      0x9f7f9da2\n      gt\n      tag_35\n      jumpi\n      dup1\n      0x9f7f9da2\n      eq\n      tag_20\n      jumpi\n      dup1\n      0xa24bcf46\n      eq\n      tag_21\n      jumpi\n      dup1\n      0xb187bd26\n      eq\n      tag_22\n      jumpi\n      dup1\n      0xbb4d5e7c\n      eq\n      tag_23\n      jumpi\n      jump(tag_2)\n    tag_35:\n      dup1\n      0x7ff9b596\n      eq\n      tag_17\n      jumpi\n      dup1\n      0x8da5cb5b\n      eq\n      tag_18\n      jumpi\n      dup1\n      0x91b7f5ed\n      eq\n      tag_19\n      jumpi\n      jump(tag_2)\n    tag_32:\n      dup1\n      0x3e6968b6\n      gt\n      tag_36\n      jumpi\n      dup1\n      0x64e39b87\n      gt\n      tag_37\n      jumpi\n      dup1\n      0x64e39b87\n      eq\n      tag_13\n      jumpi\n      dup1\n      0x6b64c769\n      eq\n      tag_14\n      jumpi\n      dup1\n      0x715018a6\n      eq\n      tag_15\n      jumpi\n      dup1\n      0x7d350453\n      eq\n      tag_16\n      jumpi\n      jump(tag_2)\n    tag_37:\n      dup1\n      0x3e6968b6\n      eq\n      tag_10\n      jumpi\n      dup1\n      0x5b10493f\n      eq\n      tag_11\n      jumpi\n      dup1\n      0x62e00dd5\n      eq\n      tag_12\n      jumpi\n      jump(tag_2)\n    tag_36:\n      dup1\n      0x222d7e34\n      gt\n      tag_38\n      jumpi\n      dup1\n      0x222d7e34\n      eq\n      tag_6\n      jumpi\n      dup1\n      0x224a8057\n      eq\n      tag_7\n      jumpi\n      dup1\n      0x30db6f95\n      eq\n      tag_8\n      jumpi\n      dup1\n      0x3c830a38\n      eq\n      tag_9\n      jumpi\n      jump(tag_2)\n    tag_38:\n      dup1\n      0x174e31c4\n      eq\n      tag_3\n      jumpi\n      dup1\n      0x18d7fa46\n      eq\n      tag_4\n      jumpi\n      dup1\n      0x2194f3a2\n      eq\n      tag_5\n      jumpi\n    tag_2:\n      0x00\n      dup1\n      revert\n        /* \"Auction/auction1404.sol\":31539:32001  function claimReward(... */\n    tag_3:\n      tag_39\n      0x04\n      dup1\n      calldatasize\n      sub\n      dup2\n      add\n      swap1\n      tag_40\n      swap2\n      swap1\n      tag_41\n      jump\t// in\n    tag_40:\n      tag_42\n      jump\t// in\n    tag_39:\n      mload(0x40)\n      tag_43\n      swap2\n      swap1\n      tag_44\n      jump\t// in\n    tag_43:\n      mload(0x40)\n      dup1\n      swap2\n      sub\n      swap1\n      return\n        /* \"Auction/auction1404.sol\":25781:26089  function setDailyDetails(... */\n    tag_4:\n      tag_45\n      0x04\n      dup1\n      calldatasize\n      sub\n      dup2\n      add\n      swap1\n      tag_46\n      swap2\n      swap1\n      tag_47\n      jump\t// in\n    tag_46:\n      tag_48\n      jump\t// in\n    tag_45:\n      stop\n        /* \"Auction/auction1404.sol\":23802:23828  address public fundsWallet */\n    tag_5:\n      tag_49\n      tag_50\n      jump\t// in\n    tag_49:\n      mload(0x40)\n      tag_51\n      swap2\n      swap1\n      tag_52\n      jump\t// in\n    tag_51:\n      mload(0x40)\n      dup1\n      swap2\n      sub\n      swap1\n      return\n        /* \"Auction/auction1404.sol\":23728:23760  uint256 public currentRoundStart */\n    tag_6:\n      tag_53\n      tag_54\n      jump\t// in\n    tag_53:\n      mload(0x40)\n      tag_55\n      swap2\n      swap1\n      tag_56\n      jump\t// in\n    tag_55:\n      mload(0x40)\n      dup1\n      swap2\n      sub\n      swap1\n      return\n        /* \"Auction/auction1404.sol\":23558:23618  uint256 public maxOversubscriptionlimit = 1000000 * 10 ** 18 */\n    tag_7:\n      tag_57\n      tag_58\n      jump\t// in\n    tag_57:\n      mload(0x40)\n      tag_59\n      swap2\n      swap1\n      tag_56\n      jump\t// in\n    tag_59:\n      mload(0x40)\n      dup1\n      swap2\n      sub\n      swap1\n      return\n        /* \"Auction/auction1404.sol\":30962:31051  function auctionStatus(bool status) external onlyOwner {... */\n    tag_8:\n      tag_60\n      0x04\n      dup1\n      calldatasize\n      sub\n      dup2\n      add\n      swap1\n      tag_61\n      swap2\n      swap1\n      tag_62\n      jump\t// in\n    tag_61:\n      tag_63\n      jump\t// in\n    tag_60:\n      stop\n        /* \"Auction/auction1404.sol\":24067:24115  mapping(uint256 => Auction) public dailyAuctions */\n    tag_9:\n      tag_64\n      0x04\n      dup1\n      calldatasize\n      sub\n      dup2\n      add\n      swap1\n      tag_65\n      swap2\n      swap1\n      tag_66\n      jump\t// in\n    tag_65:\n      tag_67\n      jump\t// in\n    tag_64:\n      mload(0x40)\n      tag_68\n      swap5\n      swap4\n      swap3\n      swap2\n      swap1\n      tag_69\n      jump\t// in\n    tag_68:\n      mload(0x40)\n      dup1\n      swap2\n      sub\n      swap1\n      return\n        /* \"Auction/auction1404.sol\":26216:26649  function getCurrentDay() public view returns (uint256) {... */\n    tag_10:\n      tag_70\n      tag_71\n      jump\t// in\n    tag_70:\n      mload(0x40)\n      tag_72\n      swap2\n      swap1\n      tag_56\n      jump\t// in\n    tag_72:\n      mload(0x40)\n      dup1\n      swap2\n      sub\n      swap1\n      return\n        /* \"Auction/auction1404.sol\":24121:24170  mapping(address => UserDetails) public userDetail */\n    tag_11:\n      tag_73\n      0x04\n      dup1\n      calldatasize\n      sub\n      dup2\n      add\n      swap1\n      tag_74\n      swap2\n      swap1\n      tag_75\n      jump\t// in\n    tag_74:\n      tag_76\n      jump\t// in\n    tag_73:\n      mload(0x40)\n      tag_77\n      swap3\n      swap2\n      swap1\n      tag_78\n      jump\t// in\n    tag_77:\n      mload(0x40)\n      dup1\n      swap2\n      sub\n      swap1\n      return\n        /* \"Auction/auction1404.sol\":31218:31521  function getDailyAuction(... */\n    tag_12:\n      tag_79\n      0x04\n      dup1\n      calldatasize\n      sub\n      dup2\n      add\n      swap1\n      tag_80\n      swap2\n      swap1\n      tag_66\n      jump\t// in\n    tag_80:\n      tag_81\n      jump\t// in\n    tag_79:\n      mload(0x40)\n      tag_82\n      swap4\n      swap3\n      swap2\n      swap1\n      tag_83\n      jump\t// in\n    tag_82:\n      mload(0x40)\n      dup1\n      swap2\n      sub\n      swap1\n      return\n        /* \"Auction/auction1404.sol\":25646:25762  function setFundsWallet(address _fundsWalletAddr) external onlyOwner {... */\n    tag_13:\n      tag_84\n      0x04\n      dup1\n      calldatasize\n      sub\n      dup2\n      add\n      swap1\n      tag_85\n      swap2\n      swap1\n      tag_75\n      jump\t// in\n    tag_85:\n      tag_86\n      jump\t// in\n    tag_84:\n      stop\n        /* \"Auction/auction1404.sol\":24991:25535  function startAuction() external onlyOwner {... */\n    tag_14:\n      tag_87\n      tag_88\n      jump\t// in\n    tag_87:\n      stop\n        /* \"Auction/auction1404.sol\":2589:2690  function renounceOwnership() public virtual onlyOwner {... */\n    tag_15:\n      tag_89\n      tag_90\n      jump\t// in\n    tag_89:\n      stop\n        /* \"Auction/auction1404.sol\":29806:30956  function resetAuction() external onlyOwner {... */\n    tag_16:\n      tag_91\n      tag_92\n      jump\t// in\n    tag_91:\n      stop\n        /* \"Auction/auction1404.sol\":23371:23411  uint256 public tokenPrice = 1 * 10 ** 18 */\n    tag_17:\n      tag_93\n      tag_94\n      jump\t// in\n    tag_93:\n      mload(0x40)\n      tag_95\n      swap2\n      swap1\n      tag_56\n      jump\t// in\n    tag_95:\n      mload(0x40)\n      dup1\n      swap2\n      sub\n      swap1\n      return\n        /* \"Auction/auction1404.sol\":1934:2019  function owner() public view virtual returns (address) {... */\n    tag_18:\n      tag_96\n      tag_97\n      jump\t// in\n    tag_96:\n      mload(0x40)\n      tag_98\n      swap2\n      swap1\n      tag_52\n      jump\t// in\n    tag_98:\n      mload(0x40)\n      dup1\n      swap2\n      sub\n      swap1\n      return\n        /* \"Auction/auction1404.sol\":25541:25640  function setPrice(uint256 _tokenPrice) external onlyOwner {... */\n    tag_19:\n      tag_99\n      0x04\n      dup1\n      calldatasize\n      sub\n      dup2\n      add\n      swap1\n      tag_100\n      swap2\n      swap1\n      tag_66\n      jump\t// in\n    tag_100:\n      tag_101\n      jump\t// in\n    tag_99:\n      stop\n        /* \"Auction/auction1404.sol\":23624:23654  uint256 public currentRoundEnd */\n    tag_20:\n      tag_102\n      tag_103\n      jump\t// in\n    tag_102:\n      mload(0x40)\n      tag_104\n      swap2\n      swap1\n      tag_56\n      jump\t// in\n    tag_104:\n      mload(0x40)\n      dup1\n      swap2\n      sub\n      swap1\n      return\n        /* \"Auction/auction1404.sol\":31057:31212  function calculateTokenAmount(... */\n    tag_21:\n      tag_105\n      0x04\n      dup1\n      calldatasize\n      sub\n      dup2\n      add\n      swap1\n      tag_106\n      swap2\n      swap1\n      tag_66\n      jump\t// in\n    tag_106:\n      tag_107\n      jump\t// in\n    tag_105:\n      mload(0x40)\n      tag_108\n      swap2\n      swap1\n      tag_56\n      jump\t// in\n    tag_108:\n      mload(0x40)\n      dup1\n      swap2\n      sub\n      swap1\n      return\n        /* \"Auction/auction1404.sol\":23766:23796  bool    public isPaused = true */\n    tag_22:\n      tag_109\n      tag_110\n      jump\t// in\n    tag_109:\n      mload(0x40)\n      tag_111\n      swap2\n      swap1\n      tag_44\n      jump\t// in\n    tag_111:\n      mload(0x40)\n      dup1\n      swap2\n      sub\n      swap1\n      return\n        /* \"Auction/auction1404.sol\":23497:23552  uint256 public maxOversubscription = 5000000 * 10 ** 18 */\n    tag_23:\n      tag_112\n      tag_113\n      jump\t// in\n    tag_112:\n      mload(0x40)\n      tag_114\n      swap2\n      swap1\n      tag_56\n      jump\t// in\n    tag_114:\n      mload(0x40)\n      dup1\n      swap2\n      sub\n      swap1\n      return\n        /* \"Auction/auction1404.sol\":23690:23721  uint256 public lockingDay = 180 */\n    tag_24:\n      tag_115\n      tag_116\n      jump\t// in\n    tag_115:\n      mload(0x40)\n      tag_117\n      swap2\n      swap1\n      tag_56\n      jump\t// in\n    tag_117:\n      mload(0x40)\n      dup1\n      swap2\n      sub\n      swap1\n      return\n        /* \"Auction/auction1404.sol\":23320:23338  IERC20 public USDT */\n    tag_25:\n      tag_118\n      tag_119\n      jump\t// in\n    tag_118:\n      mload(0x40)\n      tag_120\n      swap2\n      swap1\n      tag_121\n      jump\t// in\n    tag_120:\n      mload(0x40)\n      dup1\n      swap2\n      sub\n      swap1\n      return\n        /* \"Auction/auction1404.sol\":23344:23365  IProton public PROTON */\n    tag_26:\n      tag_122\n      tag_123\n      jump\t// in\n    tag_122:\n      mload(0x40)\n      tag_124\n      swap2\n      swap1\n      tag_125\n      jump\t// in\n    tag_124:\n      mload(0x40)\n      dup1\n      swap2\n      sub\n      swap1\n      return\n        /* \"Auction/auction1404.sol\":26655:29800  function buyTokens(... */\n    tag_27:\n      tag_126\n      0x04\n      dup1\n      calldatasize\n      sub\n      dup2\n      add\n      swap1\n      tag_127\n      swap2\n      swap1\n      tag_128\n      jump\t// in\n    tag_127:\n      tag_129\n      jump\t// in\n    tag_126:\n      stop\n        /* \"Auction/auction1404.sol\":23660:23684  uint256 public totalSell */\n    tag_28:\n      tag_130\n      tag_131\n      jump\t// in\n    tag_130:\n      mload(0x40)\n      tag_132\n      swap2\n      swap1\n      tag_56\n      jump\t// in\n    tag_132:\n      mload(0x40)\n      dup1\n      swap2\n      sub\n      swap1\n      return\n        /* \"Auction/auction1404.sol\":23444:23491  uint256 public dailySupply = 2000000 * 10 ** 18 */\n    tag_29:\n      tag_133\n      tag_134\n      jump\t// in\n    tag_133:\n      mload(0x40)\n      tag_135\n      swap2\n      swap1\n      tag_56\n      jump\t// in\n    tag_135:\n      mload(0x40)\n      dup1\n      swap2\n      sub\n      swap1\n      return\n        /* \"Auction/auction1404.sol\":2839:3054  function transferOwnership(address newOwner) public virtual onlyOwner {... */\n    tag_30:\n      tag_136\n      0x04\n      dup1\n      calldatasize\n      sub\n      dup2\n      add\n      swap1\n      tag_137\n      swap2\n      swap1\n      tag_75\n      jump\t// in\n    tag_137:\n      tag_138\n      jump\t// in\n    tag_136:\n      stop\n        /* \"Auction/auction1404.sol\":26095:26213  function AuctionTime() external view returns (uint, uint) {... */\n    tag_31:\n      tag_139\n      tag_140\n      jump\t// in\n    tag_139:\n      mload(0x40)\n      tag_141\n      swap3\n      swap2\n      swap1\n      tag_78\n      jump\t// in\n    tag_141:\n      mload(0x40)\n      dup1\n      swap2\n      sub\n      swap1\n      return\n        /* \"Auction/auction1404.sol\":31539:32001  function claimReward(... */\n    tag_42:\n        /* \"Auction/auction1404.sol\":31643:31647  bool */\n      0x00\n        /* \"Auction/auction1404.sol\":24812:24820  isPaused */\n      0x0b\n      0x00\n      swap1\n      sload\n      swap1\n      0x0100\n      exp\n      swap1\n      div\n      0xff\n      and\n        /* \"Auction/auction1404.sol\":24804:24848  require(isPaused, \"Auction is still active\") */\n      tag_143\n      jumpi\n      mload(0x40)\n      0x08c379a000000000000000000000000000000000000000000000000000000000\n      dup2\n      mstore\n      0x04\n      add\n      tag_144\n      swap1\n      tag_145\n      jump\t// in\n    tag_144:\n      mload(0x40)\n      dup1\n      swap2\n      sub\n      swap1\n      revert\n    tag_143:\n        /* \"Auction/auction1404.sol\":24897:24912  currentRoundEnd */\n      sload(0x07)\n        /* \"Auction/auction1404.sol\":24879:24894  block.timestamp */\n      timestamp\n        /* \"Auction/auction1404.sol\":24879:24912  block.timestamp > currentRoundEnd */\n      gt\n        /* \"Auction/auction1404.sol\":24858:24967  require(... */\n      tag_146\n      jumpi\n      mload(0x40)\n      0x08c379a000000000000000000000000000000000000000000000000000000000\n      dup2\n      mstore\n      0x04\n      add\n      tag_147\n      swap1\n      tag_148\n      jump\t// in\n    tag_147:\n      mload(0x40)\n      dup1\n      swap2\n      sub\n      swap1\n      revert\n    tag_146:\n        /* \"Auction/auction1404.sol\":31706:31707  0 */\n      0x00\n        /* \"Auction/auction1404.sol\":31680:31690  userDetail */\n      0x0d\n        /* \"Auction/auction1404.sol\":31680:31696  userDetail[user] */\n      0x00\n        /* \"Auction/auction1404.sol\":31691:31695  user */\n      dup6\n        /* \"Auction/auction1404.sol\":31680:31696  userDetail[user] */\n      0xffffffffffffffffffffffffffffffffffffffff\n      and\n      0xffffffffffffffffffffffffffffffffffffffff\n      and\n      dup2\n      mstore\n      0x20\n      add\n      swap1\n      dup2\n      mstore\n      0x20\n      add\n      0x00\n      keccak256\n        /* \"Auction/auction1404.sol\":31680:31703  userDetail[user].reward */\n      0x00\n      add\n      sload\n        /* \"Auction/auction1404.sol\":31680:31707  userDetail[user].reward > 0 */\n      gt\n        /* \"Auction/auction1404.sol\":31680:31765  userDetail[user].reward > 0 &&... */\n      dup1\n      iszero\n      tag_150\n      jumpi\n      pop\n        /* \"Auction/auction1404.sol\":31742:31752  userDetail */\n      0x0d\n        /* \"Auction/auction1404.sol\":31742:31758  userDetail[user] */\n      0x00\n        /* \"Auction/auction1404.sol\":31753:31757  user */\n      dup5\n        /* \"Auction/auction1404.sol\":31742:31758  userDetail[user] */\n      0xffffffffffffffffffffffffffffffffffffffff\n      and\n      0xffffffffffffffffffffffffffffffffffffffff\n      and\n      dup2\n      mstore\n      0x20\n      add\n      swap1\n      dup2\n      mstore\n      0x20\n      add\n      0x00\n      keccak256\n        /* \"Auction/auction1404.sol\":31742:31765  userDetail[user].reward */\n      0x00\n      add\n      sload\n        /* \"Auction/auction1404.sol\":31727:31738  _usdtAmount */\n      dup3\n        /* \"Auction/auction1404.sol\":31727:31765  _usdtAmount <= userDetail[user].reward */\n      gt\n      iszero\n        /* \"Auction/auction1404.sol\":31680:31765  userDetail[user].reward > 0 &&... */\n    tag_150:\n        /* \"Auction/auction1404.sol\":31659:31806  require(... */\n      tag_151\n      jumpi\n      mload(0x40)\n      0x08c379a000000000000000000000000000000000000000000000000000000000\n      dup2\n      mstore\n      0x04\n      add\n      tag_152\n      swap1\n      tag_153\n      jump\t// in\n    tag_152:\n      mload(0x40)\n      dup1\n      swap2\n      sub\n      swap1\n      revert\n    tag_151:\n        /* \"Auction/auction1404.sol\":31843:31854  _usdtAmount */\n      dup2\n        /* \"Auction/auction1404.sol\":31816:31826  userDetail */\n      0x0d\n        /* \"Auction/auction1404.sol\":31816:31832  userDetail[user] */\n      0x00\n        /* \"Auction/auction1404.sol\":31827:31831  user */\n      dup6\n        /* \"Auction/auction1404.sol\":31816:31832  userDetail[user] */\n      0xffffffffffffffffffffffffffffffffffffffff\n      and\n      0xffffffffffffffffffffffffffffffffffffffff\n      and\n      dup2\n      mstore\n      0x20\n      add\n      swap1\n      dup2\n      mstore\n      0x20\n      add\n      0x00\n      keccak256\n        /* \"Auction/auction1404.sol\":31816:31839  userDetail[user].reward */\n      0x00\n      add\n      0x00\n        /* \"Auction/auction1404.sol\":31816:31854  userDetail[user].reward -= _usdtAmount */\n      dup3\n      dup3\n      sload\n      tag_154\n      swap2\n      swap1\n      tag_155\n      jump\t// in\n    tag_154:\n      swap3\n      pop\n      pop\n      dup2\n      swap1\n      sstore\n      pop\n        /* \"Auction/auction1404.sol\":31885:31891  PROTON */\n      0x02\n      0x00\n      swap1\n      sload\n      swap1\n      0x0100\n      exp\n      swap1\n      div\n      0xffffffffffffffffffffffffffffffffffffffff\n      and\n        /* \"Auction/auction1404.sol\":31885:31900  PROTON.transfer */\n      0xffffffffffffffffffffffffffffffffffffffff\n      and\n      0xa9059cbb\n        /* \"Auction/auction1404.sol\":31901:31905  user */\n      dup5\n        /* \"Auction/auction1404.sol\":31907:31918  _usdtAmount */\n      dup5\n        /* \"Auction/auction1404.sol\":31885:31919  PROTON.transfer(user, _usdtAmount) */\n      mload(0x40)\n      dup4\n      0xffffffff\n      and\n      0xe0\n      shl\n      dup2\n      mstore\n      0x04\n      add\n      tag_156\n      swap3\n      swap2\n      swap1\n      tag_157\n      jump\t// in\n    tag_156:\n      0x20\n      mload(0x40)\n      dup1\n      dup4\n      sub\n      dup2\n      0x00\n      dup8\n      gas\n      call\n      iszero\n      dup1\n      iszero\n      tag_159\n      jumpi\n      returndatasize\n      0x00\n      dup1\n      returndatacopy\n      revert(0x00, returndatasize)\n    tag_159:\n      pop\n      pop\n      pop\n      pop\n      mload(0x40)\n      returndatasize\n      not(0x1f)\n      0x1f\n      dup3\n      add\n      and\n      dup3\n      add\n      dup1\n      0x40\n      mstore\n      pop\n      dup2\n      add\n      swap1\n      tag_160\n      swap2\n      swap1\n      tag_161\n      jump\t// in\n    tag_160:\n        /* \"Auction/auction1404.sol\":31864:31973  require(... */\n      tag_162\n      jumpi\n      mload(0x40)\n      0x08c379a000000000000000000000000000000000000000000000000000000000\n      dup2\n      mstore\n      0x04\n      add\n      tag_163\n      swap1\n      tag_164\n      jump\t// in\n    tag_163:\n      mload(0x40)\n      dup1\n      swap2\n      sub\n      swap1\n      revert\n    tag_162:\n        /* \"Auction/auction1404.sol\":31990:31994  true */\n      0x01\n        /* \"Auction/auction1404.sol\":31983:31994  return true */\n      swap1\n      pop\n        /* \"Auction/auction1404.sol\":31539:32001  function claimReward(... */\n      swap3\n      swap2\n      pop\n      pop\n      jump\t// out\n        /* \"Auction/auction1404.sol\":25781:26089  function setDailyDetails(... */\n    tag_48:\n        /* \"Auction/auction1404.sol\":1827:1840  _checkOwner() */\n      tag_166\n        /* \"Auction/auction1404.sol\":1827:1838  _checkOwner */\n      tag_167\n        /* \"Auction/auction1404.sol\":1827:1840  _checkOwner() */\n      jump\t// in\n    tag_166:\n        /* \"Auction/auction1404.sol\":25933:25934  7 */\n      0x07\n        /* \"Auction/auction1404.sol\":25927:25930  day */\n      dup4\n        /* \"Auction/auction1404.sol\":25927:25934  day < 7 */\n      lt\n        /* \"Auction/auction1404.sol\":25927:25945  day < 7 && day > 0 */\n      dup1\n      iszero\n      tag_169\n      jumpi\n      pop\n        /* \"Auction/auction1404.sol\":25944:25945  0 */\n      0x00\n        /* \"Auction/auction1404.sol\":25938:25941  day */\n      dup4\n        /* \"Auction/auction1404.sol\":25938:25945  day > 0 */\n      gt\n        /* \"Auction/auction1404.sol\":25927:25945  day < 7 && day > 0 */\n    tag_169:\n        /* \"Auction/auction1404.sol\":25919:25966  require(day < 7 && day > 0, \"ERROR: DAY value\") */\n      tag_170\n      jumpi\n      mload(0x40)\n      0x08c379a000000000000000000000000000000000000000000000000000000000\n      dup2\n      mstore\n      0x04\n      add\n      tag_171\n      swap1\n      tag_172\n      jump\t// in\n    tag_171:\n      mload(0x40)\n      dup1\n      swap2\n      sub\n      swap1\n      revert\n    tag_170:\n        /* \"Auction/auction1404.sol\":26013:26028  bonusMultiplier */\n      dup1\n        /* \"Auction/auction1404.sol\":25976:25989  dailyAuctions */\n      0x0c\n        /* \"Auction/auction1404.sol\":25976:25994  dailyAuctions[day] */\n      0x00\n        /* \"Auction/auction1404.sol\":25990:25993  day */\n      dup6\n        /* \"Auction/auction1404.sol\":25976:25994  dailyAuctions[day] */\n      dup2\n      mstore\n      0x20\n      add\n      swap1\n      dup2\n      mstore\n      0x20\n      add\n      0x00\n      keccak256\n        /* \"Auction/auction1404.sol\":25976:26010  dailyAuctions[day].bonusMultiplier */\n      0x03\n      add\n        /* \"Auction/auction1404.sol\":25976:26028  dailyAuctions[day].bonusMultiplier = bonusMultiplier */\n      dup2\n      swap1\n      sstore\n      pop\n        /* \"Auction/auction1404.sol\":26071:26082  tokensDaily */\n      dup2\n        /* \"Auction/auction1404.sol\":26038:26051  dailyAuctions */\n      0x0c\n        /* \"Auction/auction1404.sol\":26038:26056  dailyAuctions[day] */\n      0x00\n        /* \"Auction/auction1404.sol\":26052:26055  day */\n      dup6\n        /* \"Auction/auction1404.sol\":26038:26056  dailyAuctions[day] */\n      dup2\n      mstore\n      0x20\n      add\n      swap1\n      dup2\n      mstore\n      0x20\n      add\n      0x00\n      keccak256\n        /* \"Auction/auction1404.sol\":26038:26068  dailyAuctions[day].tokensDaily */\n      0x00\n      add\n        /* \"Auction/auction1404.sol\":26038:26082  dailyAuctions[day].tokensDaily = tokensDaily */\n      dup2\n      swap1\n      sstore\n      pop\n        /* \"Auction/auction1404.sol\":25781:26089  function setDailyDetails(... */\n      pop\n      pop\n      pop\n      jump\t// out\n        /* \"Auction/auction1404.sol\":23802:23828  address public fundsWallet */\n    tag_50:\n      0x0b\n      0x01\n      swap1\n      sload\n      swap1\n      0x0100\n      exp\n      swap1\n      div\n      0xffffffffffffffffffffffffffffffffffffffff\n      and\n      dup2\n      jump\t// out\n        /* \"Auction/auction1404.sol\":23728:23760  uint256 public currentRoundStart */\n    tag_54:\n      sload(0x0a)\n      dup2\n      jump\t// out\n        /* \"Auction/auction1404.sol\":23558:23618  uint256 public maxOversubscriptionlimit = 1000000 * 10 ** 18 */\n    tag_58:\n      sload(0x06)\n      dup2\n      jump\t// out\n        /* \"Auction/auction1404.sol\":30962:31051  function auctionStatus(bool status) external onlyOwner {... */\n    tag_63:\n        /* \"Auction/auction1404.sol\":1827:1840  _checkOwner() */\n      tag_174\n        /* \"Auction/auction1404.sol\":1827:1838  _checkOwner */\n      tag_167\n        /* \"Auction/auction1404.sol\":1827:1840  _checkOwner() */\n      jump\t// in\n    tag_174:\n        /* \"Auction/auction1404.sol\":31038:31044  status */\n      dup1\n        /* \"Auction/auction1404.sol\":31027:31035  isPaused */\n      0x0b\n      0x00\n        /* \"Auction/auction1404.sol\":31027:31044  isPaused = status */\n      0x0100\n      exp\n      dup2\n      sload\n      dup2\n      0xff\n      mul\n      not\n      and\n      swap1\n      dup4\n      iszero\n      iszero\n      mul\n      or\n      swap1\n      sstore\n      pop\n        /* \"Auction/auction1404.sol\":30962:31051  function auctionStatus(bool status) external onlyOwner {... */\n      pop\n      jump\t// out\n        /* \"Auction/auction1404.sol\":24067:24115  mapping(uint256 => Auction) public dailyAuctions */\n    tag_67:\n      mstore(0x20, 0x0c)\n      dup1\n      0x00\n      mstore\n      keccak256(0x00, 0x40)\n      0x00\n      swap2\n      pop\n      swap1\n      pop\n      dup1\n      0x00\n      add\n      sload\n      swap1\n      dup1\n      0x01\n      add\n      sload\n      swap1\n      dup1\n      0x02\n      add\n      sload\n      swap1\n      dup1\n      0x03\n      add\n      sload\n      swap1\n      pop\n      dup5\n      jump\t// out\n        /* \"Auction/auction1404.sol\":26216:26649  function getCurrentDay() public view returns (uint256) {... */\n    tag_71:\n        /* \"Auction/auction1404.sol\":26262:26269  uint256 */\n      0x00\n        /* \"Auction/auction1404.sol\":26281:26289  isPaused */\n      0x0b\n      0x00\n      swap1\n      sload\n      swap1\n      0x0100\n      exp\n      swap1\n      div\n      0xff\n      and\n        /* \"Auction/auction1404.sol\":26281:26326  isPaused || block.timestamp > currentRoundEnd */\n      dup1\n      tag_177\n      jumpi\n      pop\n        /* \"Auction/auction1404.sol\":26311:26326  currentRoundEnd */\n      sload(0x07)\n        /* \"Auction/auction1404.sol\":26293:26308  block.timestamp */\n      timestamp\n        /* \"Auction/auction1404.sol\":26293:26326  block.timestamp > currentRoundEnd */\n      gt\n        /* \"Auction/auction1404.sol\":26281:26326  isPaused || block.timestamp > currentRoundEnd */\n    tag_177:\n        /* \"Auction/auction1404.sol\":26277:26390  if (isPaused || block.timestamp > currentRoundEnd) {... */\n      iszero\n      tag_178\n      jumpi\n        /* \"Auction/auction1404.sol\":26345:26346  8 */\n      0x08\n        /* \"Auction/auction1404.sol\":26338:26346  return 8 */\n      swap1\n      pop\n      jump(tag_176)\n        /* \"Auction/auction1404.sol\":26277:26390  if (isPaused || block.timestamp > currentRoundEnd) {... */\n    tag_178:\n        /* \"Auction/auction1404.sol\":26395:26410  uint256 elapsed */\n      0x00\n        /* \"Auction/auction1404.sol\":26431:26448  currentRoundStart */\n      sload(0x0a)\n        /* \"Auction/auction1404.sol\":26413:26428  block.timestamp */\n      timestamp\n        /* \"Auction/auction1404.sol\":26413:26448  block.timestamp - currentRoundStart */\n      tag_179\n      swap2\n      swap1\n      tag_155\n      jump\t// in\n    tag_179:\n        /* \"Auction/auction1404.sol\":26395:26448  uint256 elapsed = block.timestamp - currentRoundStart */\n      swap1\n      pop\n        /* \"Auction/auction1404.sol\":26454:26465  uint256 day */\n      0x00\n        /* \"Auction/auction1404.sol\":26489:26490  1 */\n      0x01\n        /* \"Auction/auction1404.sol\":26479:26485  1 days */\n      0x015180\n        /* \"Auction/auction1404.sol\":26469:26476  elapsed */\n      dup4\n        /* \"Auction/auction1404.sol\":26469:26485  elapsed / 1 days */\n      tag_180\n      swap2\n      swap1\n      tag_181\n      jump\t// in\n    tag_180:\n        /* \"Auction/auction1404.sol\":26468:26490  (elapsed / 1 days) + 1 */\n      tag_182\n      swap2\n      swap1\n      tag_183\n      jump\t// in\n    tag_182:\n        /* \"Auction/auction1404.sol\":26454:26490  uint256 day = (elapsed / 1 days) + 1 */\n      swap1\n      pop\n        /* \"Auction/auction1404.sol\":26602:26603  7 */\n      0x07\n        /* \"Auction/auction1404.sol\":26596:26599  day */\n      dup2\n        /* \"Auction/auction1404.sol\":26596:26603  day > 7 */\n      gt\n        /* \"Auction/auction1404.sol\":26592:26630  if (day > 7) {... */\n      iszero\n      tag_184\n      jumpi\n        /* \"Auction/auction1404.sol\":26622:26623  7 */\n      0x07\n        /* \"Auction/auction1404.sol\":26615:26623  return 7 */\n      swap3\n      pop\n      pop\n      pop\n      jump(tag_176)\n        /* \"Auction/auction1404.sol\":26592:26630  if (day > 7) {... */\n    tag_184:\n        /* \"Auction/auction1404.sol\":26643:26646  day */\n      dup1\n        /* \"Auction/auction1404.sol\":26636:26646  return day */\n      swap3\n      pop\n      pop\n      pop\n        /* \"Auction/auction1404.sol\":26216:26649  function getCurrentDay() public view returns (uint256) {... */\n    tag_176:\n      swap1\n      jump\t// out\n        /* \"Auction/auction1404.sol\":24121:24170  mapping(address => UserDetails) public userDetail */\n    tag_76:\n      mstore(0x20, 0x0d)\n      dup1\n      0x00\n      mstore\n      keccak256(0x00, 0x40)\n      0x00\n      swap2\n      pop\n      swap1\n      pop\n      dup1\n      0x00\n      add\n      sload\n      swap1\n      dup1\n      0x01\n      add\n      sload\n      swap1\n      pop\n      dup3\n      jump\t// out\n        /* \"Auction/auction1404.sol\":31218:31521  function getDailyAuction(... */\n    tag_81:\n        /* \"Auction/auction1404.sol\":31297:31304  uint256 */\n      0x00\n        /* \"Auction/auction1404.sol\":31306:31313  uint256 */\n      dup1\n        /* \"Auction/auction1404.sol\":31315:31322  uint256 */\n      0x00\n        /* \"Auction/auction1404.sol\":31334:31356  Auction memory auction */\n      dup1\n        /* \"Auction/auction1404.sol\":31359:31372  dailyAuctions */\n      0x0c\n        /* \"Auction/auction1404.sol\":31359:31385  dailyAuctions[_currentDay] */\n      0x00\n        /* \"Auction/auction1404.sol\":31373:31384  _currentDay */\n      dup7\n        /* \"Auction/auction1404.sol\":31359:31385  dailyAuctions[_currentDay] */\n      dup2\n      mstore\n      0x20\n      add\n      swap1\n      dup2\n      mstore\n      0x20\n      add\n      0x00\n      keccak256\n        /* \"Auction/auction1404.sol\":31334:31385  Auction memory auction = dailyAuctions[_currentDay] */\n      mload(0x40)\n      dup1\n      0x80\n      add\n      0x40\n      mstore\n      swap1\n      dup2\n      0x00\n      dup3\n      add\n      sload\n      dup2\n      mstore\n      0x20\n      add\n      0x01\n      dup3\n      add\n      sload\n      dup2\n      mstore\n      0x20\n      add\n      0x02\n      dup3\n      add\n      sload\n      dup2\n      mstore\n      0x20\n      add\n      0x03\n      dup3\n      add\n      sload\n      dup2\n      mstore\n      pop\n      pop\n      swap1\n      pop\n        /* \"Auction/auction1404.sol\":31416:31423  auction */\n      dup1\n        /* \"Auction/auction1404.sol\":31416:31435  auction.tokensDaily */\n      0x00\n      add\n      mload\n        /* \"Auction/auction1404.sol\":31449:31456  auction */\n      dup2\n        /* \"Auction/auction1404.sol\":31449:31467  auction.tokensSold */\n      0x20\n      add\n      mload\n        /* \"Auction/auction1404.sol\":31481:31488  auction */\n      dup3\n        /* \"Auction/auction1404.sol\":31481:31504  auction.bonusMultiplier */\n      0x60\n      add\n      mload\n        /* \"Auction/auction1404.sol\":31395:31514  return (... */\n      swap4\n      pop\n      swap4\n      pop\n      swap4\n      pop\n      pop\n        /* \"Auction/auction1404.sol\":31218:31521  function getDailyAuction(... */\n      swap2\n      swap4\n      swap1\n      swap3\n      pop\n      jump\t// out\n        /* \"Auction/auction1404.sol\":25646:25762  function setFundsWallet(address _fundsWalletAddr) external onlyOwner {... */\n    tag_86:\n        /* \"Auction/auction1404.sol\":1827:1840  _checkOwner() */\n      tag_187\n        /* \"Auction/auction1404.sol\":1827:1838  _checkOwner */\n      tag_167\n        /* \"Auction/auction1404.sol\":1827:1840  _checkOwner() */\n      jump\t// in\n    tag_187:\n        /* \"Auction/auction1404.sol\":25739:25755  _fundsWalletAddr */\n      dup1\n        /* \"Auction/auction1404.sol\":25725:25736  fundsWallet */\n      0x0b\n      0x01\n        /* \"Auction/auction1404.sol\":25725:25755  fundsWallet = _fundsWalletAddr */\n      0x0100\n      exp\n      dup2\n      sload\n      dup2\n      0xffffffffffffffffffffffffffffffffffffffff\n      mul\n      not\n      and\n      swap1\n      dup4\n      0xffffffffffffffffffffffffffffffffffffffff\n      and\n      mul\n      or\n      swap1\n      sstore\n      pop\n        /* \"Auction/auction1404.sol\":25646:25762  function setFundsWallet(address _fundsWalletAddr) external onlyOwner {... */\n      pop\n      jump\t// out\n        /* \"Auction/auction1404.sol\":24991:25535  function startAuction() external onlyOwner {... */\n    tag_88:\n        /* \"Auction/auction1404.sol\":1827:1840  _checkOwner() */\n      tag_190\n        /* \"Auction/auction1404.sol\":1827:1838  _checkOwner */\n      tag_167\n        /* \"Auction/auction1404.sol\":1827:1840  _checkOwner() */\n      jump\t// in\n    tag_190:\n        /* \"Auction/auction1404.sol\":25052:25060  isPaused */\n      0x0b\n      0x00\n      swap1\n      sload\n      swap1\n      0x0100\n      exp\n      swap1\n      div\n      0xff\n      and\n        /* \"Auction/auction1404.sol\":25044:25088  require(isPaused, \"Auction already started\") */\n      tag_192\n      jumpi\n      mload(0x40)\n      0x08c379a000000000000000000000000000000000000000000000000000000000\n      dup2\n      mstore\n      0x04\n      add\n      tag_193\n      swap1\n      tag_194\n      jump\t// in\n    tag_193:\n      mload(0x40)\n      dup1\n      swap2\n      sub\n      swap1\n      revert\n    tag_192:\n        /* \"Auction/auction1404.sol\":25109:25114  false */\n      0x00\n        /* \"Auction/auction1404.sol\":25098:25106  isPaused */\n      0x0b\n      0x00\n        /* \"Auction/auction1404.sol\":25098:25114  isPaused = false */\n      0x0100\n      exp\n      dup2\n      sload\n      dup2\n      0xff\n      mul\n      not\n      and\n      swap1\n      dup4\n      iszero\n      iszero\n      mul\n      or\n      swap1\n      sstore\n      pop\n        /* \"Auction/auction1404.sol\":25161:25167  7 days */\n      0x093a80\n        /* \"Auction/auction1404.sol\":25142:25157  block.timestamp */\n      timestamp\n        /* \"Auction/auction1404.sol\":25142:25168  block.timestamp + (7 days) */\n      tag_195\n      swap2\n      swap1\n      tag_183\n      jump\t// in\n    tag_195:\n        /* \"Auction/auction1404.sol\":25124:25139  currentRoundEnd */\n      0x07\n        /* \"Auction/auction1404.sol\":25124:25168  currentRoundEnd = block.timestamp + (7 days) */\n      dup2\n      swap1\n      sstore\n      pop\n        /* \"Auction/auction1404.sol\":25198:25213  block.timestamp */\n      timestamp\n        /* \"Auction/auction1404.sol\":25178:25195  currentRoundStart */\n      0x0a\n        /* \"Auction/auction1404.sol\":25178:25213  currentRoundStart = block.timestamp */\n      dup2\n      swap1\n      sstore\n      pop\n        /* \"Auction/auction1404.sol\":25273:25282  uint256 i */\n      0x00\n        /* \"Auction/auction1404.sol\":25285:25286  1 */\n      0x01\n        /* \"Auction/auction1404.sol\":25273:25286  uint256 i = 1 */\n      swap1\n      pop\n        /* \"Auction/auction1404.sol\":25268:25529  for (uint256 i = 1; i <= 7; i++) {... */\n    tag_196:\n        /* \"Auction/auction1404.sol\":25293:25294  7 */\n      0x07\n        /* \"Auction/auction1404.sol\":25288:25289  i */\n      dup2\n        /* \"Auction/auction1404.sol\":25288:25294  i <= 7 */\n      gt\n        /* \"Auction/auction1404.sol\":25268:25529  for (uint256 i = 1; i <= 7; i++) {... */\n      tag_197\n      jumpi\n        /* \"Auction/auction1404.sol\":25346:25366  2_000_000 * 10 ** 18 */\n      0x01a784379d99db42000000\n        /* \"Auction/auction1404.sol\":25315:25328  dailyAuctions */\n      0x0c\n        /* \"Auction/auction1404.sol\":25315:25331  dailyAuctions[i] */\n      0x00\n        /* \"Auction/auction1404.sol\":25329:25330  i */\n      dup4\n        /* \"Auction/auction1404.sol\":25315:25331  dailyAuctions[i] */\n      dup2\n      mstore\n      0x20\n      add\n      swap1\n      dup2\n      mstore\n      0x20\n      add\n      0x00\n      keccak256\n        /* \"Auction/auction1404.sol\":25315:25343  dailyAuctions[i].tokensDaily */\n      0x00\n      add\n        /* \"Auction/auction1404.sol\":25315:25366  dailyAuctions[i].tokensDaily = 2_000_000 * 10 ** 18 */\n      dup2\n      swap1\n      sstore\n      pop\n        /* \"Auction/auction1404.sol\":25421:25422  5 */\n      0x05\n        /* \"Auction/auction1404.sol\":25416:25417  i */\n      dup2\n        /* \"Auction/auction1404.sol\":25416:25422  i <= 5 */\n      gt\n      iszero\n        /* \"Auction/auction1404.sol\":25415:25518  (i <= 5)... */\n      tag_199\n      jumpi\n        /* \"Auction/auction1404.sol\":25468:25469  6 */\n      0x06\n        /* \"Auction/auction1404.sol\":25463:25464  i */\n      dup2\n        /* \"Auction/auction1404.sol\":25463:25469  i == 6 */\n      eq\n        /* \"Auction/auction1404.sol\":25462:25518  (i == 6)... */\n      tag_200\n      jumpi\n        /* \"Auction/auction1404.sol\":25517:25518  1 */\n      0x01\n        /* \"Auction/auction1404.sol\":25462:25518  (i == 6)... */\n      jump(tag_201)\n    tag_200:\n        /* \"Auction/auction1404.sol\":25493:25494  2 */\n      0x02\n        /* \"Auction/auction1404.sol\":25462:25518  (i == 6)... */\n    tag_201:\n        /* \"Auction/auction1404.sol\":25415:25518  (i <= 5)... */\n      jump(tag_202)\n    tag_199:\n        /* \"Auction/auction1404.sol\":25442:25443  3 */\n      0x03\n        /* \"Auction/auction1404.sol\":25415:25518  (i <= 5)... */\n    tag_202:\n        /* \"Auction/auction1404.sol\":25380:25518  dailyAuctions[i].bonusMultiplier = (i <= 5)... */\n      0xff\n      and\n        /* \"Auction/auction1404.sol\":25380:25393  dailyAuctions */\n      0x0c\n        /* \"Auction/auction1404.sol\":25380:25396  dailyAuctions[i] */\n      0x00\n        /* \"Auction/auction1404.sol\":25394:25395  i */\n      dup4\n        /* \"Auction/auction1404.sol\":25380:25396  dailyAuctions[i] */\n      dup2\n      mstore\n      0x20\n      add\n      swap1\n      dup2\n      mstore\n      0x20\n      add\n      0x00\n      keccak256\n        /* \"Auction/auction1404.sol\":25380:25412  dailyAuctions[i].bonusMultiplier */\n      0x03\n      add\n        /* \"Auction/auction1404.sol\":25380:25518  dailyAuctions[i].bonusMultiplier = (i <= 5)... */\n      dup2\n      swap1\n      sstore\n      pop\n        /* \"Auction/auction1404.sol\":25296:25299  i++ */\n      dup1\n      dup1\n      tag_203\n      swap1\n      tag_204\n      jump\t// in\n    tag_203:\n      swap2\n      pop\n      pop\n        /* \"Auction/auction1404.sol\":25268:25529  for (uint256 i = 1; i <= 7; i++) {... */\n      jump(tag_196)\n    tag_197:\n      pop\n        /* \"Auction/auction1404.sol\":24991:25535  function startAuction() external onlyOwner {... */\n      jump\t// out\n        /* \"Auction/auction1404.sol\":2589:2690  function renounceOwnership() public virtual onlyOwner {... */\n    tag_90:\n        /* \"Auction/auction1404.sol\":1827:1840  _checkOwner() */\n      tag_206\n        /* \"Auction/auction1404.sol\":1827:1838  _checkOwner */\n      tag_167\n        /* \"Auction/auction1404.sol\":1827:1840  _checkOwner() */\n      jump\t// in\n    tag_206:\n        /* \"Auction/auction1404.sol\":2653:2683  _transferOwnership(address(0)) */\n      tag_208\n        /* \"Auction/auction1404.sol\":2680:2681  0 */\n      0x00\n        /* \"Auction/auction1404.sol\":2653:2671  _transferOwnership */\n      tag_209\n        /* \"Auction/auction1404.sol\":2653:2683  _transferOwnership(address(0)) */\n      jump\t// in\n    tag_208:\n        /* \"Auction/auction1404.sol\":2589:2690  function renounceOwnership() public virtual onlyOwner {... */\n      jump\t// out\n        /* \"Auction/auction1404.sol\":29806:30956  function resetAuction() external onlyOwner {... */\n    tag_92:\n        /* \"Auction/auction1404.sol\":1827:1840  _checkOwner() */\n      tag_211\n        /* \"Auction/auction1404.sol\":1827:1838  _checkOwner */\n      tag_167\n        /* \"Auction/auction1404.sol\":1827:1840  _checkOwner() */\n      jump\t// in\n    tag_211:\n        /* \"Auction/auction1404.sol\":29870:29874  true */\n      0x01\n        /* \"Auction/auction1404.sol\":29859:29867  isPaused */\n      0x0b\n      0x00\n        /* \"Auction/auction1404.sol\":29859:29874  isPaused = true */\n      0x0100\n      exp\n      dup2\n      sload\n      dup2\n      0xff\n      mul\n      not\n      and\n      swap1\n      dup4\n      iszero\n      iszero\n      mul\n      or\n      swap1\n      sstore\n      pop\n        /* \"Auction/auction1404.sol\":29909:29910  0 */\n      0x00\n        /* \"Auction/auction1404.sol\":29891:29906  currentRoundEnd */\n      0x07\n        /* \"Auction/auction1404.sol\":29891:29910  currentRoundEnd = 0 */\n      dup2\n      swap1\n      sstore\n      pop\n        /* \"Auction/auction1404.sol\":29940:29941  0 */\n      0x00\n        /* \"Auction/auction1404.sol\":29920:29937  currentRoundStart */\n      0x0a\n        /* \"Auction/auction1404.sol\":29920:29941  currentRoundStart = 0 */\n      dup2\n      swap1\n      sstore\n      pop\n        /* \"Auction/auction1404.sol\":29958:29971  dailyAuctions */\n      0x0c\n        /* \"Auction/auction1404.sol\":29958:29974  dailyAuctions[1] */\n      0x00\n        /* \"Auction/auction1404.sol\":29972:29973  1 */\n      0x01\n        /* \"Auction/auction1404.sol\":29958:29974  dailyAuctions[1] */\n      dup2\n      mstore\n      0x20\n      add\n      swap1\n      dup2\n      mstore\n      0x20\n      add\n      0x00\n      keccak256\n        /* \"Auction/auction1404.sol\":29958:29985  dailyAuctions[1].tokensSold */\n      0x01\n      add\n        /* \"Auction/auction1404.sol\":29951:29985  delete dailyAuctions[1].tokensSold */\n      0x00\n      swap1\n      sstore\n        /* \"Auction/auction1404.sol\":30002:30015  dailyAuctions */\n      0x0c\n        /* \"Auction/auction1404.sol\":30002:30018  dailyAuctions[2] */\n      0x00\n        /* \"Auction/auction1404.sol\":30016:30017  2 */\n      0x02\n        /* \"Auction/auction1404.sol\":30002:30018  dailyAuctions[2] */\n      dup2\n      mstore\n      0x20\n      add\n      swap1\n      dup2\n      mstore\n      0x20\n      add\n      0x00\n      keccak256\n        /* \"Auction/auction1404.sol\":30002:30029  dailyAuctions[2].tokensSold */\n      0x01\n      add\n        /* \"Auction/auction1404.sol\":29995:30029  delete dailyAuctions[2].tokensSold */\n      0x00\n      swap1\n      sstore\n        /* \"Auction/auction1404.sol\":30046:30059  dailyAuctions */\n      0x0c\n        /* \"Auction/auction1404.sol\":30046:30062  dailyAuctions[3] */\n      0x00\n        /* \"Auction/auction1404.sol\":30060:30061  3 */\n      0x03\n        /* \"Auction/auction1404.sol\":30046:30062  dailyAuctions[3] */\n      dup2\n      mstore\n      0x20\n      add\n      swap1\n      dup2\n      mstore\n      0x20\n      add\n      0x00\n      keccak256\n        /* \"Auction/auction1404.sol\":30046:30073  dailyAuctions[3].tokensSold */\n      0x01\n      add\n        /* \"Auction/auction1404.sol\":30039:30073  delete dailyAuctions[3].tokensSold */\n      0x00\n      swap1\n      sstore\n        /* \"Auction/auction1404.sol\":30090:30103  dailyAuctions */\n      0x0c\n        /* \"Auction/auction1404.sol\":30090:30106  dailyAuctions[4] */\n      0x00\n        /* \"Auction/auction1404.sol\":30104:30105  4 */\n      0x04\n        /* \"Auction/auction1404.sol\":30090:30106  dailyAuctions[4] */\n      dup2\n      mstore\n      0x20\n      add\n      swap1\n      dup2\n      mstore\n      0x20\n      add\n      0x00\n      keccak256\n        /* \"Auction/auction1404.sol\":30090:30117  dailyAuctions[4].tokensSold */\n      0x01\n      add\n        /* \"Auction/auction1404.sol\":30083:30117  delete dailyAuctions[4].tokensSold */\n      0x00\n      swap1\n      sstore\n        /* \"Auction/auction1404.sol\":30134:30147  dailyAuctions */\n      0x0c\n        /* \"Auction/auction1404.sol\":30134:30150  dailyAuctions[5] */\n      0x00\n        /* \"Auction/auction1404.sol\":30148:30149  5 */\n      0x05\n        /* \"Auction/auction1404.sol\":30134:30150  dailyAuctions[5] */\n      dup2\n      mstore\n      0x20\n      add\n      swap1\n      dup2\n      mstore\n      0x20\n      add\n      0x00\n      keccak256\n        /* \"Auction/auction1404.sol\":30134:30161  dailyAuctions[5].tokensSold */\n      0x01\n      add\n        /* \"Auction/auction1404.sol\":30127:30161  delete dailyAuctions[5].tokensSold */\n      0x00\n      swap1\n      sstore\n        /* \"Auction/auction1404.sol\":30178:30191  dailyAuctions */\n      0x0c\n        /* \"Auction/auction1404.sol\":30178:30194  dailyAuctions[6] */\n      0x00\n        /* \"Auction/auction1404.sol\":30192:30193  6 */\n      0x06\n        /* \"Auction/auction1404.sol\":30178:30194  dailyAuctions[6] */\n      dup2\n      mstore\n      0x20\n      add\n      swap1\n      dup2\n      mstore\n      0x20\n      add\n      0x00\n      keccak256\n        /* \"Auction/auction1404.sol\":30178:30205  dailyAuctions[6].tokensSold */\n      0x01\n      add\n        /* \"Auction/auction1404.sol\":30171:30205  delete dailyAuctions[6].tokensSold */\n      0x00\n      swap1\n      sstore\n        /* \"Auction/auction1404.sol\":30222:30235  dailyAuctions */\n      0x0c\n        /* \"Auction/auction1404.sol\":30222:30238  dailyAuctions[7] */\n      0x00\n        /* \"Auction/auction1404.sol\":30236:30237  7 */\n      0x07\n        /* \"Auction/auction1404.sol\":30222:30238  dailyAuctions[7] */\n      dup2\n      mstore\n      0x20\n      add\n      swap1\n      dup2\n      mstore\n      0x20\n      add\n      0x00\n      keccak256\n        /* \"Auction/auction1404.sol\":30222:30249  dailyAuctions[7].tokensSold */\n      0x01\n      add\n        /* \"Auction/auction1404.sol\":30215:30249  delete dailyAuctions[7].tokensSold */\n      0x00\n      swap1\n      sstore\n        /* \"Auction/auction1404.sol\":30266:30279  dailyAuctions */\n      0x0c\n        /* \"Auction/auction1404.sol\":30266:30282  dailyAuctions[2] */\n      0x00\n        /* \"Auction/auction1404.sol\":30280:30281  2 */\n      0x02\n        /* \"Auction/auction1404.sol\":30266:30282  dailyAuctions[2] */\n      dup2\n      mstore\n      0x20\n      add\n      swap1\n      dup2\n      mstore\n      0x20\n      add\n      0x00\n      keccak256\n        /* \"Auction/auction1404.sol\":30266:30297  dailyAuctions[2].oversubscribed */\n      0x02\n      add\n        /* \"Auction/auction1404.sol\":30259:30297  delete dailyAuctions[2].oversubscribed */\n      0x00\n      swap1\n      sstore\n        /* \"Auction/auction1404.sol\":30314:30327  dailyAuctions */\n      0x0c\n        /* \"Auction/auction1404.sol\":30314:30330  dailyAuctions[1] */\n      0x00\n        /* \"Auction/auction1404.sol\":30328:30329  1 */\n      0x01\n        /* \"Auction/auction1404.sol\":30314:30330  dailyAuctions[1] */\n      dup2\n      mstore\n      0x20\n      add\n      swap1\n      dup2\n      mstore\n      0x20\n      add\n      0x00\n      keccak256\n        /* \"Auction/auction1404.sol\":30314:30345  dailyAuctions[1].oversubscribed */\n      0x02\n      add\n        /* \"Auction/auction1404.sol\":30307:30345  delete dailyAuctions[1].oversubscribed */\n      0x00\n      swap1\n      sstore\n        /* \"Auction/auction1404.sol\":30362:30375  dailyAuctions */\n      0x0c\n        /* \"Auction/auction1404.sol\":30362:30378  dailyAuctions[3] */\n      0x00\n        /* \"Auction/auction1404.sol\":30376:30377  3 */\n      0x03\n        /* \"Auction/auction1404.sol\":30362:30378  dailyAuctions[3] */\n      dup2\n      mstore\n      0x20\n      add\n      swap1\n      dup2\n      mstore\n      0x20\n      add\n      0x00\n      keccak256\n        /* \"Auction/auction1404.sol\":30362:30393  dailyAuctions[3].oversubscribed */\n      0x02\n      add\n        /* \"Auction/auction1404.sol\":30355:30393  delete dailyAuctions[3].oversubscribed */\n      0x00\n      swap1\n      sstore\n        /* \"Auction/auction1404.sol\":30410:30423  dailyAuctions */\n      0x0c\n        /* \"Auction/auction1404.sol\":30410:30426  dailyAuctions[4] */\n      0x00\n        /* \"Auction/auction1404.sol\":30424:30425  4 */\n      0x04\n        /* \"Auction/auction1404.sol\":30410:30426  dailyAuctions[4] */\n      dup2\n      mstore\n      0x20\n      add\n      swap1\n      dup2\n      mstore\n      0x20\n      add\n      0x00\n      keccak256\n        /* \"Auction/auction1404.sol\":30410:30441  dailyAuctions[4].oversubscribed */\n      0x02\n      add\n        /* \"Auction/auction1404.sol\":30403:30441  delete dailyAuctions[4].oversubscribed */\n      0x00\n      swap1\n      sstore\n        /* \"Auction/auction1404.sol\":30458:30471  dailyAuctions */\n      0x0c\n        /* \"Auction/auction1404.sol\":30458:30474  dailyAuctions[5] */\n      0x00\n        /* \"Auction/auction1404.sol\":30472:30473  5 */\n      0x05\n        /* \"Auction/auction1404.sol\":30458:30474  dailyAuctions[5] */\n      dup2\n      mstore\n      0x20\n      add\n      swap1\n      dup2\n      mstore\n      0x20\n      add\n      0x00\n      keccak256\n        /* \"Auction/auction1404.sol\":30458:30489  dailyAuctions[5].oversubscribed */\n      0x02\n      add\n        /* \"Auction/auction1404.sol\":30451:30489  delete dailyAuctions[5].oversubscribed */\n      0x00\n      swap1\n      sstore\n        /* \"Auction/auction1404.sol\":30506:30519  dailyAuctions */\n      0x0c\n        /* \"Auction/auction1404.sol\":30506:30522  dailyAuctions[7] */\n      0x00\n        /* \"Auction/auction1404.sol\":30520:30521  7 */\n      0x07\n        /* \"Auction/auction1404.sol\":30506:30522  dailyAuctions[7] */\n      dup2\n      mstore\n      0x20\n      add\n      swap1\n      dup2\n      mstore\n      0x20\n      add\n      0x00\n      keccak256\n        /* \"Auction/auction1404.sol\":30506:30537  dailyAuctions[7].oversubscribed */\n      0x02\n      add\n        /* \"Auction/auction1404.sol\":30499:30537  delete dailyAuctions[7].oversubscribed */\n      0x00\n      swap1\n      sstore\n        /* \"Auction/auction1404.sol\":30554:30567  dailyAuctions */\n      0x0c\n        /* \"Auction/auction1404.sol\":30554:30570  dailyAuctions[6] */\n      0x00\n        /* \"Auction/auction1404.sol\":30568:30569  6 */\n      0x06\n        /* \"Auction/auction1404.sol\":30554:30570  dailyAuctions[6] */\n      dup2\n      mstore\n      0x20\n      add\n      swap1\n      dup2\n      mstore\n      0x20\n      add\n      0x00\n      keccak256\n        /* \"Auction/auction1404.sol\":30554:30585  dailyAuctions[6].oversubscribed */\n      0x02\n      add\n        /* \"Auction/auction1404.sol\":30547:30585  delete dailyAuctions[6].oversubscribed */\n      0x00\n      swap1\n      sstore\n        /* \"Auction/auction1404.sol\":29806:30956  function resetAuction() external onlyOwner {... */\n      jump\t// out\n        /* \"Auction/auction1404.sol\":23371:23411  uint256 public tokenPrice = 1 * 10 ** 18 */\n    tag_94:\n      sload(0x03)\n      dup2\n      jump\t// out\n        /* \"Auction/auction1404.sol\":1934:2019  function owner() public view virtual returns (address) {... */\n    tag_97:\n        /* \"Auction/auction1404.sol\":1980:1987  address */\n      0x00\n        /* \"Auction/auction1404.sol\":2006:2012  _owner */\n      dup1\n      0x00\n      swap1\n      sload\n      swap1\n      0x0100\n      exp\n      swap1\n      div\n      0xffffffffffffffffffffffffffffffffffffffff\n      and\n        /* \"Auction/auction1404.sol\":1999:2012  return _owner */\n      swap1\n      pop\n        /* \"Auction/auction1404.sol\":1934:2019  function owner() public view virtual returns (address) {... */\n      swap1\n      jump\t// out\n        /* \"Auction/auction1404.sol\":25541:25640  function setPrice(uint256 _tokenPrice) external onlyOwner {... */\n    tag_101:\n        /* \"Auction/auction1404.sol\":1827:1840  _checkOwner() */\n      tag_215\n        /* \"Auction/auction1404.sol\":1827:1838  _checkOwner */\n      tag_167\n        /* \"Auction/auction1404.sol\":1827:1840  _checkOwner() */\n      jump\t// in\n    tag_215:\n        /* \"Auction/auction1404.sol\":25622:25633  _tokenPrice */\n      dup1\n        /* \"Auction/auction1404.sol\":25609:25619  tokenPrice */\n      0x03\n        /* \"Auction/auction1404.sol\":25609:25633  tokenPrice = _tokenPrice */\n      dup2\n      swap1\n      sstore\n      pop\n        /* \"Auction/auction1404.sol\":25541:25640  function setPrice(uint256 _tokenPrice) external onlyOwner {... */\n      pop\n      jump\t// out\n        /* \"Auction/auction1404.sol\":23624:23654  uint256 public currentRoundEnd */\n    tag_103:\n      sload(0x07)\n      dup2\n      jump\t// out\n        /* \"Auction/auction1404.sol\":31057:31212  function calculateTokenAmount(... */\n    tag_107:\n        /* \"Auction/auction1404.sol\":31140:31147  uint256 */\n      0x00\n        /* \"Auction/auction1404.sol\":31195:31205  tokenPrice */\n      sload(0x03)\n        /* \"Auction/auction1404.sol\":31182:31190  10 ** 18 */\n      0x0de0b6b3a7640000\n        /* \"Auction/auction1404.sol\":31167:31178  _usdtAmount */\n      dup4\n        /* \"Auction/auction1404.sol\":31167:31191  _usdtAmount * (10 ** 18) */\n      tag_218\n      swap2\n      swap1\n      tag_219\n      jump\t// in\n    tag_218:\n        /* \"Auction/auction1404.sol\":31166:31205  (_usdtAmount * (10 ** 18)) / tokenPrice */\n      tag_220\n      swap2\n      swap1\n      tag_181\n      jump\t// in\n    tag_220:\n        /* \"Auction/auction1404.sol\":31159:31205  return (_usdtAmount * (10 ** 18)) / tokenPrice */\n      swap1\n      pop\n        /* \"Auction/auction1404.sol\":31057:31212  function calculateTokenAmount(... */\n      swap2\n      swap1\n      pop\n      jump\t// out\n        /* \"Auction/auction1404.sol\":23766:23796  bool    public isPaused = true */\n    tag_110:\n      0x0b\n      0x00\n      swap1\n      sload\n      swap1\n      0x0100\n      exp\n      swap1\n      div\n      0xff\n      and\n      dup2\n      jump\t// out\n        /* \"Auction/auction1404.sol\":23497:23552  uint256 public maxOversubscription = 5000000 * 10 ** 18 */\n    tag_113:\n      sload(0x05)\n      dup2\n      jump\t// out\n        /* \"Auction/auction1404.sol\":23690:23721  uint256 public lockingDay = 180 */\n    tag_116:\n      sload(0x09)\n      dup2\n      jump\t// out\n        /* \"Auction/auction1404.sol\":23320:23338  IERC20 public USDT */\n    tag_119:\n      0x01\n      0x00\n      swap1\n      sload\n      swap1\n      0x0100\n      exp\n      swap1\n      div\n      0xffffffffffffffffffffffffffffffffffffffff\n      and\n      dup2\n      jump\t// out\n        /* \"Auction/auction1404.sol\":23344:23365  IProton public PROTON */\n    tag_123:\n      0x02\n      0x00\n      swap1\n      sload\n      swap1\n      0x0100\n      exp\n      swap1\n      div\n      0xffffffffffffffffffffffffffffffffffffffff\n      and\n      dup2\n      jump\t// out\n        /* \"Auction/auction1404.sol\":26655:29800  function buyTokens(... */\n    tag_129:\n        /* \"Auction/auction1404.sol\":24636:24644  isPaused */\n      0x0b\n      0x00\n      swap1\n      sload\n      swap1\n      0x0100\n      exp\n      swap1\n      div\n      0xff\n      and\n        /* \"Auction/auction1404.sol\":24635:24644  !isPaused */\n      iszero\n        /* \"Auction/auction1404.sol\":24627:24666  require(!isPaused, \"Auction is paused\") */\n      tag_222\n      jumpi\n      mload(0x40)\n      0x08c379a000000000000000000000000000000000000000000000000000000000\n      dup2\n      mstore\n      0x04\n      add\n      tag_223\n      swap1\n      tag_224\n      jump\t// in\n    tag_223:\n      mload(0x40)\n      dup1\n      swap2\n      sub\n      swap1\n      revert\n    tag_222:\n        /* \"Auction/auction1404.sol\":24703:24718  currentRoundEnd */\n      sload(0x07)\n        /* \"Auction/auction1404.sol\":24684:24699  block.timestamp */\n      timestamp\n        /* \"Auction/auction1404.sol\":24684:24718  block.timestamp <= currentRoundEnd */\n      gt\n      iszero\n        /* \"Auction/auction1404.sol\":24676:24746  require(block.timestamp <= currentRoundEnd, \"Current round has ended\") */\n      tag_225\n      jumpi\n      mload(0x40)\n      0x08c379a000000000000000000000000000000000000000000000000000000000\n      dup2\n      mstore\n      0x04\n      add\n      tag_226\n      swap1\n      tag_227\n      jump\t// in\n    tag_226:\n      mload(0x40)\n      dup1\n      swap2\n      sub\n      swap1\n      revert\n    tag_225:\n        /* \"Auction/auction1404.sol\":26794:26812  uint256 currentDay */\n      0x00\n        /* \"Auction/auction1404.sol\":26815:26830  getCurrentDay() */\n      tag_229\n        /* \"Auction/auction1404.sol\":26815:26828  getCurrentDay */\n      tag_71\n        /* \"Auction/auction1404.sol\":26815:26830  getCurrentDay() */\n      jump\t// in\n    tag_229:\n        /* \"Auction/auction1404.sol\":26794:26830  uint256 currentDay = getCurrentDay() */\n      swap1\n      pop\n        /* \"Auction/auction1404.sol\":26862:26863  7 */\n      0x07\n        /* \"Auction/auction1404.sol\":26848:26858  currentDay */\n      dup2\n        /* \"Auction/auction1404.sol\":26848:26863  currentDay <= 7 */\n      gt\n      iszero\n        /* \"Auction/auction1404.sol\":26840:26893  require(currentDay <= 7, \"Auction days are complete\") */\n      tag_230\n      jumpi\n      mload(0x40)\n      0x08c379a000000000000000000000000000000000000000000000000000000000\n      dup2\n      mstore\n      0x04\n      add\n      tag_231\n      swap1\n      tag_232\n      jump\t// in\n    tag_231:\n      mload(0x40)\n      dup1\n      swap2\n      sub\n      swap1\n      revert\n    tag_230:\n        /* \"Auction/auction1404.sol\":26899:26922  Auction storage auction */\n      0x00\n        /* \"Auction/auction1404.sol\":26925:26938  dailyAuctions */\n      0x0c\n        /* \"Auction/auction1404.sol\":26925:26950  dailyAuctions[currentDay] */\n      0x00\n        /* \"Auction/auction1404.sol\":26939:26949  currentDay */\n      dup4\n        /* \"Auction/auction1404.sol\":26925:26950  dailyAuctions[currentDay] */\n      dup2\n      mstore\n      0x20\n      add\n      swap1\n      dup2\n      mstore\n      0x20\n      add\n      0x00\n      keccak256\n        /* \"Auction/auction1404.sol\":26899:26950  Auction storage auction = dailyAuctions[currentDay] */\n      swap1\n      pop\n        /* \"Auction/auction1404.sol\":26979:26980  7 */\n      0x07\n        /* \"Auction/auction1404.sol\":26965:26975  currentDay */\n      dup3\n        /* \"Auction/auction1404.sol\":26965:26980  currentDay == 7 */\n      sub\n        /* \"Auction/auction1404.sol\":26961:27077  if (currentDay == 7) {... */\n      tag_233\n      jumpi\n        /* \"Auction/auction1404.sol\":27023:27038  currentRoundEnd */\n      sload(0x07)\n        /* \"Auction/auction1404.sol\":27004:27019  block.timestamp */\n      timestamp\n        /* \"Auction/auction1404.sol\":27004:27038  block.timestamp <= currentRoundEnd */\n      gt\n      iszero\n        /* \"Auction/auction1404.sol\":26996:27066  require(block.timestamp <= currentRoundEnd, \"Auction round has ended\") */\n      tag_234\n      jumpi\n      mload(0x40)\n      0x08c379a000000000000000000000000000000000000000000000000000000000\n      dup2\n      mstore\n      0x04\n      add\n      tag_235\n      swap1\n      tag_236\n      jump\t// in\n    tag_235:\n      mload(0x40)\n      dup1\n      swap2\n      sub\n      swap1\n      revert\n    tag_234:\n        /* \"Auction/auction1404.sol\":26961:27077  if (currentDay == 7) {... */\n    tag_233:\n        /* \"Auction/auction1404.sol\":27105:27106  6 */\n      0x06\n        /* \"Auction/auction1404.sol\":27091:27101  currentDay */\n      dup3\n        /* \"Auction/auction1404.sol\":27091:27106  currentDay == 6 */\n      eq\n        /* \"Auction/auction1404.sol\":27091:27125  currentDay == 6 || currentDay == 7 */\n      dup1\n      tag_237\n      jumpi\n      pop\n        /* \"Auction/auction1404.sol\":27124:27125  7 */\n      0x07\n        /* \"Auction/auction1404.sol\":27110:27120  currentDay */\n      dup3\n        /* \"Auction/auction1404.sol\":27110:27125  currentDay == 7 */\n      eq\n        /* \"Auction/auction1404.sol\":27091:27125  currentDay == 6 || currentDay == 7 */\n    tag_237:\n        /* \"Auction/auction1404.sol\":27087:27205  if (currentDay == 6 || currentDay == 7) {... */\n      iszero\n      tag_238\n      jumpi\n        /* \"Auction/auction1404.sol\":27163:27169  PROTON */\n      0x02\n      0x00\n      swap1\n      sload\n      swap1\n      0x0100\n      exp\n      swap1\n      div\n      0xffffffffffffffffffffffffffffffffffffffff\n      and\n        /* \"Auction/auction1404.sol\":27163:27179  PROTON.balanceOf */\n      0xffffffffffffffffffffffffffffffffffffffff\n      and\n      0x70a08231\n        /* \"Auction/auction1404.sol\":27188:27192  this */\n      address\n        /* \"Auction/auction1404.sol\":27163:27194  PROTON.balanceOf(address(this)) */\n      mload(0x40)\n      dup3\n      0xffffffff\n      and\n      0xe0\n      shl\n      dup2\n      mstore\n      0x04\n      add\n      tag_239\n      swap2\n      swap1\n      tag_52\n      jump\t// in\n    tag_239:\n      0x20\n      mload(0x40)\n      dup1\n      dup4\n      sub\n      dup2\n      dup7\n      gas\n      staticcall\n      iszero\n      dup1\n      iszero\n      tag_241\n      jumpi\n      returndatasize\n      0x00\n      dup1\n      returndatacopy\n      revert(0x00, returndatasize)\n    tag_241:\n      pop\n      pop\n      pop\n      pop\n      mload(0x40)\n      returndatasize\n      not(0x1f)\n      0x1f\n      dup3\n      add\n      and\n      dup3\n      add\n      dup1\n      0x40\n      mstore\n      pop\n      dup2\n      add\n      swap1\n      tag_242\n      swap2\n      swap1\n      tag_243\n      jump\t// in\n    tag_242:\n        /* \"Auction/auction1404.sol\":27141:27148  auction */\n      dup2\n        /* \"Auction/auction1404.sol\":27141:27160  auction.tokensDaily */\n      0x00\n      add\n        /* \"Auction/auction1404.sol\":27141:27194  auction.tokensDaily = PROTON.balanceOf(address(this)) */\n      dup2\n      swap1\n      sstore\n      pop\n        /* \"Auction/auction1404.sol\":27087:27205  if (currentDay == 6 || currentDay == 7) {... */\n    tag_238:\n        /* \"Auction/auction1404.sol\":27227:27235  isPaused */\n      0x0b\n      0x00\n      swap1\n      sload\n      swap1\n      0x0100\n      exp\n      swap1\n      div\n      0xff\n      and\n        /* \"Auction/auction1404.sol\":27226:27235  !isPaused */\n      iszero\n        /* \"Auction/auction1404.sol\":27218:27254  require(!isPaused, \"Auction Paused\") */\n      tag_244\n      jumpi\n      mload(0x40)\n      0x08c379a000000000000000000000000000000000000000000000000000000000\n      dup2\n      mstore\n      0x04\n      add\n      tag_245\n      swap1\n      tag_246\n      jump\t// in\n    tag_245:\n      mload(0x40)\n      dup1\n      swap2\n      sub\n      swap1\n      revert\n    tag_244:\n        /* \"Auction/auction1404.sol\":27410:27429  maxOversubscription */\n      sload(0x05)\n        /* \"Auction/auction1404.sol\":27389:27396  auction */\n      dup2\n        /* \"Auction/auction1404.sol\":27389:27407  auction.tokensSold */\n      0x01\n      add\n      sload\n        /* \"Auction/auction1404.sol\":27389:27429  auction.tokensSold < maxOversubscription */\n      lt\n        /* \"Auction/auction1404.sol\":27368:27474  require(... */\n      tag_247\n      jumpi\n      mload(0x40)\n      0x08c379a000000000000000000000000000000000000000000000000000000000\n      dup2\n      mstore\n      0x04\n      add\n      tag_248\n      swap1\n      tag_249\n      jump\t// in\n    tag_248:\n      mload(0x40)\n      dup1\n      swap2\n      sub\n      swap1\n      revert\n    tag_247:\n        /* \"Auction/auction1404.sol\":27530:27554  maxOversubscriptionlimit */\n      sload(0x06)\n        /* \"Auction/auction1404.sol\":27505:27512  auction */\n      dup2\n        /* \"Auction/auction1404.sol\":27505:27527  auction.oversubscribed */\n      0x02\n      add\n      sload\n        /* \"Auction/auction1404.sol\":27505:27554  auction.oversubscribed < maxOversubscriptionlimit */\n      lt\n        /* \"Auction/auction1404.sol\":27484:27599  require(... */\n      tag_250\n      jumpi\n      mload(0x40)\n      0x08c379a000000000000000000000000000000000000000000000000000000000\n      dup2\n      mstore\n      0x04\n      add\n      tag_251\n      swap1\n      tag_249\n      jump\t// in\n    tag_251:\n      mload(0x40)\n      dup1\n      swap2\n      sub\n      swap1\n      revert\n    tag_250:\n        /* \"Auction/auction1404.sol\":27668:27686  uint256 usdtAmount */\n      0x00\n        /* \"Auction/auction1404.sol\":27715:27723  10 ** 18 */\n      0x0de0b6b3a7640000\n        /* \"Auction/auction1404.sol\":27700:27710  tokenPrice */\n      sload(0x03)\n        /* \"Auction/auction1404.sol\":27690:27697  _amount */\n      dup6\n        /* \"Auction/auction1404.sol\":27690:27710  _amount * tokenPrice */\n      tag_252\n      swap2\n      swap1\n      tag_219\n      jump\t// in\n    tag_252:\n        /* \"Auction/auction1404.sol\":27689:27724  (_amount * tokenPrice) / (10 ** 18) */\n      tag_253\n      swap2\n      swap1\n      tag_181\n      jump\t// in\n    tag_253:\n        /* \"Auction/auction1404.sol\":27668:27724  uint256 usdtAmount = (_amount * tokenPrice) / (10 ** 18) */\n      swap1\n      pop\n        /* \"Auction/auction1404.sol\":27790:27805  contractAddress */\n      dup6\n        /* \"Auction/auction1404.sol\":27790:27818  contractAddress.transferFrom */\n      0xffffffffffffffffffffffffffffffffffffffff\n      and\n      0x23b872dd\n        /* \"Auction/auction1404.sol\":27819:27829  msg.sender */\n      caller\n        /* \"Auction/auction1404.sol\":27831:27842  fundsWallet */\n      0x0b\n      0x01\n      swap1\n      sload\n      swap1\n      0x0100\n      exp\n      swap1\n      div\n      0xffffffffffffffffffffffffffffffffffffffff\n      and\n        /* \"Auction/auction1404.sol\":27844:27854  usdtAmount */\n      dup5\n        /* \"Auction/auction1404.sol\":27790:27855  contractAddress.transferFrom(msg.sender, fundsWallet, usdtAmount) */\n      mload(0x40)\n      dup5\n      0xffffffff\n      and\n      0xe0\n      shl\n      dup2\n      mstore\n      0x04\n      add\n      tag_254\n      swap4\n      swap3\n      swap2\n      swap1\n      tag_255\n      jump\t// in\n    tag_254:\n      0x20\n      mload(0x40)\n      dup1\n      dup4\n      sub\n      dup2\n      0x00\n      dup8\n      gas\n      call\n      iszero\n      dup1\n      iszero\n      tag_257\n      jumpi\n      returndatasize\n      0x00\n      dup1\n      returndatacopy\n      revert(0x00, returndatasize)\n    tag_257:\n      pop\n      pop\n      pop\n      pop\n      mload(0x40)\n      returndatasize\n      not(0x1f)\n      0x1f\n      dup3\n      add\n      and\n      dup3\n      add\n      dup1\n      0x40\n      mstore\n      pop\n      dup2\n      add\n      swap1\n      tag_258\n      swap2\n      swap1\n      tag_161\n      jump\t// in\n    tag_258:\n        /* \"Auction/auction1404.sol\":27769:27901  require(... */\n      tag_259\n      jumpi\n      mload(0x40)\n      0x08c379a000000000000000000000000000000000000000000000000000000000\n      dup2\n      mstore\n      0x04\n      add\n      tag_260\n      swap1\n      tag_261\n      jump\t// in\n    tag_260:\n      mload(0x40)\n      dup1\n      swap2\n      sub\n      swap1\n      revert\n    tag_259:\n        /* \"Auction/auction1404.sol\":27912:27926  uint256 amount */\n      0x00\n        /* \"Auction/auction1404.sol\":28053:28060  auction */\n      dup3\n        /* \"Auction/auction1404.sol\":28053:28072  auction.tokensDaily */\n      0x00\n      add\n      sload\n        /* \"Auction/auction1404.sol\":28043:28050  _amount */\n      dup6\n        /* \"Auction/auction1404.sol\":28022:28029  auction */\n      dup5\n        /* \"Auction/auction1404.sol\":28022:28040  auction.tokensSold */\n      0x01\n      add\n      sload\n        /* \"Auction/auction1404.sol\":28022:28050  auction.tokensSold + _amount */\n      tag_262\n      swap2\n      swap1\n      tag_183\n      jump\t// in\n    tag_262:\n        /* \"Auction/auction1404.sol\":28022:28072  auction.tokensSold + _amount > auction.tokensDaily */\n      gt\n        /* \"Auction/auction1404.sol\":28018:28520  if (auction.tokensSold + _amount > auction.tokensDaily) {... */\n      iszero\n      tag_263\n      jumpi\n        /* \"Auction/auction1404.sol\":28113:28120  auction */\n      dup3\n        /* \"Auction/auction1404.sol\":28113:28132  auction.tokensDaily */\n      0x00\n      add\n      sload\n        /* \"Auction/auction1404.sol\":28092:28099  auction */\n      dup4\n        /* \"Auction/auction1404.sol\":28092:28110  auction.tokensSold */\n      0x01\n      add\n      sload\n        /* \"Auction/auction1404.sol\":28092:28132  auction.tokensSold > auction.tokensDaily */\n      gt\n        /* \"Auction/auction1404.sol\":28088:28327  if (auction.tokensSold > auction.tokensDaily) {... */\n      iszero\n      tag_264\n      jumpi\n        /* \"Auction/auction1404.sol\":28194:28201  auction */\n      dup3\n        /* \"Auction/auction1404.sol\":28194:28212  auction.tokensSold */\n      0x01\n      add\n      sload\n        /* \"Auction/auction1404.sol\":28183:28190  _amount */\n      dup6\n        /* \"Auction/auction1404.sol\":28162:28169  auction */\n      dup5\n        /* \"Auction/auction1404.sol\":28162:28180  auction.tokensSold */\n      0x01\n      add\n      sload\n        /* \"Auction/auction1404.sol\":28162:28190  auction.tokensSold + _amount */\n      tag_265\n      swap2\n      swap1\n      tag_183\n      jump\t// in\n    tag_265:\n        /* \"Auction/auction1404.sol\":28161:28212  (auction.tokensSold + _amount) - auction.tokensSold */\n      tag_266\n      swap2\n      swap1\n      tag_155\n      jump\t// in\n    tag_266:\n        /* \"Auction/auction1404.sol\":28152:28212  amount = (auction.tokensSold + _amount) - auction.tokensSold */\n      swap1\n      pop\n        /* \"Auction/auction1404.sol\":28088:28327  if (auction.tokensSold > auction.tokensDaily) {... */\n      jump(tag_267)\n    tag_264:\n        /* \"Auction/auction1404.sol\":28293:28300  auction */\n      dup3\n        /* \"Auction/auction1404.sol\":28293:28312  auction.tokensDaily */\n      0x00\n      add\n      sload\n        /* \"Auction/auction1404.sol\":28282:28289  _amount */\n      dup6\n        /* \"Auction/auction1404.sol\":28261:28268  auction */\n      dup5\n        /* \"Auction/auction1404.sol\":28261:28279  auction.tokensSold */\n      0x01\n      add\n      sload\n        /* \"Auction/auction1404.sol\":28261:28289  auction.tokensSold + _amount */\n      tag_268\n      swap2\n      swap1\n      tag_183\n      jump\t// in\n    tag_268:\n        /* \"Auction/auction1404.sol\":28260:28312  (auction.tokensSold + _amount) - auction.tokensDaily */\n      tag_269\n      swap2\n      swap1\n      tag_155\n      jump\t// in\n    tag_269:\n        /* \"Auction/auction1404.sol\":28251:28312  amount = (auction.tokensSold + _amount) - auction.tokensDaily */\n      swap1\n      pop\n        /* \"Auction/auction1404.sol\":28088:28327  if (auction.tokensSold > auction.tokensDaily) {... */\n    tag_267:\n        /* \"Auction/auction1404.sol\":28367:28373  amount */\n      dup1\n        /* \"Auction/auction1404.sol\":28341:28348  auction */\n      dup4\n        /* \"Auction/auction1404.sol\":28341:28363  auction.oversubscribed */\n      0x02\n      add\n      0x00\n        /* \"Auction/auction1404.sol\":28341:28373  auction.oversubscribed += amount */\n      dup3\n      dup3\n      sload\n      tag_270\n      swap2\n      swap1\n      tag_183\n      jump\t// in\n    tag_270:\n      swap3\n      pop\n      pop\n      dup2\n      swap1\n      sstore\n      pop\n        /* \"Auction/auction1404.sol\":28423:28429  amount */\n      dup1\n        /* \"Auction/auction1404.sol\":28387:28397  userDetail */\n      0x0d\n        /* \"Auction/auction1404.sol\":28387:28410  userDetail[userAddress] */\n      0x00\n        /* \"Auction/auction1404.sol\":28398:28409  userAddress */\n      dup9\n        /* \"Auction/auction1404.sol\":28387:28410  userDetail[userAddress] */\n      0xffffffffffffffffffffffffffffffffffffffff\n      and\n      0xffffffffffffffffffffffffffffffffffffffff\n      and\n      dup2\n      mstore\n      0x20\n      add\n      swap1\n      dup2\n      mstore\n      0x20\n      add\n      0x00\n      keccak256\n        /* \"Auction/auction1404.sol\":28387:28419  userDetail[userAddress].buyTotal */\n      0x01\n      add\n      0x00\n        /* \"Auction/auction1404.sol\":28387:28429  userDetail[userAddress].buyTotal += amount */\n      dup3\n      dup3\n      sload\n      tag_271\n      swap2\n      swap1\n      tag_183\n      jump\t// in\n    tag_271:\n      swap3\n      pop\n      pop\n      dup2\n      swap1\n      sstore\n      pop\n        /* \"Auction/auction1404.sol\":28486:28493  auction */\n      dup3\n        /* \"Auction/auction1404.sol\":28486:28509  auction.bonusMultiplier */\n      0x03\n      add\n      sload\n        /* \"Auction/auction1404.sol\":28477:28483  amount */\n      dup2\n        /* \"Auction/auction1404.sol\":28477:28509  amount * auction.bonusMultiplier */\n      tag_272\n      swap2\n      swap1\n      tag_219\n      jump\t// in\n    tag_272:\n        /* \"Auction/auction1404.sol\":28443:28453  userDetail */\n      0x0d\n        /* \"Auction/auction1404.sol\":28443:28466  userDetail[userAddress] */\n      0x00\n        /* \"Auction/auction1404.sol\":28454:28465  userAddress */\n      dup9\n        /* \"Auction/auction1404.sol\":28443:28466  userDetail[userAddress] */\n      0xffffffffffffffffffffffffffffffffffffffff\n      and\n      0xffffffffffffffffffffffffffffffffffffffff\n      and\n      dup2\n      mstore\n      0x20\n      add\n      swap1\n      dup2\n      mstore\n      0x20\n      add\n      0x00\n      keccak256\n        /* \"Auction/auction1404.sol\":28443:28473  userDetail[userAddress].reward */\n      0x00\n      add\n      0x00\n        /* \"Auction/auction1404.sol\":28443:28509  userDetail[userAddress].reward += amount * auction.bonusMultiplier */\n      dup3\n      dup3\n      sload\n      tag_273\n      swap2\n      swap1\n      tag_183\n      jump\t// in\n    tag_273:\n      swap3\n      pop\n      pop\n      dup2\n      swap1\n      sstore\n      pop\n        /* \"Auction/auction1404.sol\":28018:28520  if (auction.tokensSold + _amount > auction.tokensDaily) {... */\n    tag_263:\n        /* \"Auction/auction1404.sol\":28543:28550  _amount */\n      dup5\n        /* \"Auction/auction1404.sol\":28530:28539  totalSell */\n      0x08\n      0x00\n        /* \"Auction/auction1404.sol\":28530:28550  totalSell += _amount */\n      dup3\n      dup3\n      sload\n      tag_274\n      swap2\n      swap1\n      tag_183\n      jump\t// in\n    tag_274:\n      swap3\n      pop\n      pop\n      dup2\n      swap1\n      sstore\n      pop\n        /* \"Auction/auction1404.sol\":28582:28589  _amount */\n      dup5\n        /* \"Auction/auction1404.sol\":28560:28567  auction */\n      dup4\n        /* \"Auction/auction1404.sol\":28560:28578  auction.tokensSold */\n      0x01\n      add\n      0x00\n        /* \"Auction/auction1404.sol\":28560:28589  auction.tokensSold += _amount */\n      dup3\n      dup3\n      sload\n      tag_275\n      swap2\n      swap1\n      tag_183\n      jump\t// in\n    tag_275:\n      swap3\n      pop\n      pop\n      dup2\n      swap1\n      sstore\n      pop\n        /* \"Auction/auction1404.sol\":28608:28624  uint256 lockTime */\n      0x00\n        /* \"Auction/auction1404.sol\":28679:28702  string memory _userType */\n      dup1\n        /* \"Auction/auction1404.sol\":28705:28711  PROTON */\n      0x02\n      0x00\n      swap1\n      sload\n      swap1\n      0x0100\n      exp\n      swap1\n      div\n      0xffffffffffffffffffffffffffffffffffffffff\n      and\n        /* \"Auction/auction1404.sol\":28705:28723  PROTON.getUserType */\n      0xffffffffffffffffffffffffffffffffffffffff\n      and\n      0x8b3f863f\n        /* \"Auction/auction1404.sol\":28724:28735  userAddress */\n      dup10\n        /* \"Auction/auction1404.sol\":28705:28736  PROTON.getUserType(userAddress) */\n      mload(0x40)\n      dup3\n      0xffffffff\n      and\n      0xe0\n      shl\n      dup2\n      mstore\n      0x04\n      add\n      tag_276\n      swap2\n      swap1\n      tag_52\n      jump\t// in\n    tag_276:\n      0x00\n      mload(0x40)\n      dup1\n      dup4\n      sub\n      dup2\n      dup7\n      gas\n      staticcall\n      iszero\n      dup1\n      iszero\n      tag_278\n      jumpi\n      returndatasize\n      0x00\n      dup1\n      returndatacopy\n      revert(0x00, returndatasize)\n    tag_278:\n      pop\n      pop\n      pop\n      pop\n      mload(0x40)\n      returndatasize\n      0x00\n      dup3\n      returndatacopy\n      returndatasize\n      not(0x1f)\n      0x1f\n      dup3\n      add\n      and\n      dup3\n      add\n      dup1\n      0x40\n      mstore\n      pop\n      dup2\n      add\n      swap1\n      tag_279\n      swap2\n      swap1\n      tag_280\n      jump\t// in\n    tag_279:\n        /* \"Auction/auction1404.sol\":28679:28736  string memory _userType = PROTON.getUserType(userAddress) */\n      swap1\n      pop\n        /* \"Auction/auction1404.sol\":28861:28891  abi.encodePacked(\"Accredited\") */\n      add(0x20, mload(0x40))\n      tag_281\n      swap1\n      tag_282\n      jump\t// in\n    tag_281:\n      mload(0x40)\n      0x20\n      dup2\n      dup4\n      sub\n      sub\n      dup2\n      mstore\n      swap1\n      0x40\n      mstore\n        /* \"Auction/auction1404.sol\":28851:28892  keccak256(abi.encodePacked(\"Accredited\")) */\n      dup1\n      mload\n      swap1\n      0x20\n      add\n      keccak256\n        /* \"Auction/auction1404.sol\":28824:28833  _userType */\n      dup2\n        /* \"Auction/auction1404.sol\":28807:28834  abi.encodePacked(_userType) */\n      add(0x20, mload(0x40))\n      tag_283\n      swap2\n      swap1\n      tag_284\n      jump\t// in\n    tag_283:\n      mload(0x40)\n      0x20\n      dup2\n      dup4\n      sub\n      sub\n      dup2\n      mstore\n      swap1\n      0x40\n      mstore\n        /* \"Auction/auction1404.sol\":28797:28835  keccak256(abi.encodePacked(_userType)) */\n      dup1\n      mload\n      swap1\n      0x20\n      add\n      keccak256\n        /* \"Auction/auction1404.sol\":28797:28892  keccak256(abi.encodePacked(_userType)) ==... */\n      sub\n        /* \"Auction/auction1404.sol\":28780:29013  if (... */\n      tag_285\n      jumpi\n        /* \"Auction/auction1404.sol\":28944:28954  lockingDay */\n      sload(0x09)\n        /* \"Auction/auction1404.sol\":28926:28941  block.timestamp */\n      timestamp\n        /* \"Auction/auction1404.sol\":28926:28954  block.timestamp + lockingDay */\n      tag_286\n      swap2\n      swap1\n      tag_183\n      jump\t// in\n    tag_286:\n        /* \"Auction/auction1404.sol\":28915:28954  lockTime = block.timestamp + lockingDay */\n      swap2\n      pop\n        /* \"Auction/auction1404.sol\":28780:29013  if (... */\n    tag_285:\n        /* \"Auction/auction1404.sol\":29103:29128  abi.encodePacked(\"NonUS\") */\n      add(0x20, mload(0x40))\n      tag_287\n      swap1\n      tag_288\n      jump\t// in\n    tag_287:\n      mload(0x40)\n      0x20\n      dup2\n      dup4\n      sub\n      sub\n      dup2\n      mstore\n      swap1\n      0x40\n      mstore\n        /* \"Auction/auction1404.sol\":29093:29129  keccak256(abi.encodePacked(\"NonUS\")) */\n      dup1\n      mload\n      swap1\n      0x20\n      add\n      keccak256\n        /* \"Auction/auction1404.sol\":29066:29075  _userType */\n      dup2\n        /* \"Auction/auction1404.sol\":29049:29076  abi.encodePacked(_userType) */\n      add(0x20, mload(0x40))\n      tag_289\n      swap2\n      swap1\n      tag_284\n      jump\t// in\n    tag_289:\n      mload(0x40)\n      0x20\n      dup2\n      dup4\n      sub\n      sub\n      dup2\n      mstore\n      swap1\n      0x40\n      mstore\n        /* \"Auction/auction1404.sol\":29039:29077  keccak256(abi.encodePacked(_userType)) */\n      dup1\n      mload\n      swap1\n      0x20\n      add\n      keccak256\n        /* \"Auction/auction1404.sol\":29039:29129  keccak256(abi.encodePacked(_userType)) ==... */\n      sub\n        /* \"Auction/auction1404.sol\":29022:29250  if (... */\n      tag_290\n      jumpi\n        /* \"Auction/auction1404.sol\":29177:29187  lockingDay */\n      sload(0x09)\n        /* \"Auction/auction1404.sol\":29159:29174  block.timestamp */\n      timestamp\n        /* \"Auction/auction1404.sol\":29159:29187  block.timestamp + lockingDay */\n      tag_291\n      swap2\n      swap1\n      tag_183\n      jump\t// in\n    tag_291:\n        /* \"Auction/auction1404.sol\":29148:29187  lockTime = block.timestamp + lockingDay */\n      swap2\n      pop\n        /* \"Auction/auction1404.sol\":29022:29250  if (... */\n    tag_290:\n        /* \"Auction/auction1404.sol\":29340:29373  abi.encodePacked(\"Institutional\") */\n      add(0x20, mload(0x40))\n      tag_292\n      swap1\n      tag_293\n      jump\t// in\n    tag_292:\n      mload(0x40)\n      0x20\n      dup2\n      dup4\n      sub\n      sub\n      dup2\n      mstore\n      swap1\n      0x40\n      mstore\n        /* \"Auction/auction1404.sol\":29330:29374  keccak256(abi.encodePacked(\"Institutional\")) */\n      dup1\n      mload\n      swap1\n      0x20\n      add\n      keccak256\n        /* \"Auction/auction1404.sol\":29303:29312  _userType */\n      dup2\n        /* \"Auction/auction1404.sol\":29286:29313  abi.encodePacked(_userType) */\n      add(0x20, mload(0x40))\n      tag_294\n      swap2\n      swap1\n      tag_284\n      jump\t// in\n    tag_294:\n      mload(0x40)\n      0x20\n      dup2\n      dup4\n      sub\n      sub\n      dup2\n      mstore\n      swap1\n      0x40\n      mstore\n        /* \"Auction/auction1404.sol\":29276:29314  keccak256(abi.encodePacked(_userType)) */\n      dup1\n      mload\n      swap1\n      0x20\n      add\n      keccak256\n        /* \"Auction/auction1404.sol\":29276:29374  keccak256(abi.encodePacked(_userType)) ==... */\n      sub\n        /* \"Auction/auction1404.sol\":29259:29493  if (... */\n      tag_295\n      jumpi\n        /* \"Auction/auction1404.sol\":29421:29431  lockingDay */\n      sload(0x09)\n        /* \"Auction/auction1404.sol\":29403:29418  block.timestamp */\n      timestamp\n        /* \"Auction/auction1404.sol\":29403:29431  block.timestamp + lockingDay */\n      tag_296\n      swap2\n      swap1\n      tag_183\n      jump\t// in\n    tag_296:\n        /* \"Auction/auction1404.sol\":29392:29431  lockTime = block.timestamp + lockingDay */\n      swap2\n      pop\n        /* \"Auction/auction1404.sol\":29259:29493  if (... */\n    tag_295:\n        /* \"Auction/auction1404.sol\":29502:29508  PROTON */\n      0x02\n      0x00\n      swap1\n      sload\n      swap1\n      0x0100\n      exp\n      swap1\n      div\n      0xffffffffffffffffffffffffffffffffffffffff\n      and\n        /* \"Auction/auction1404.sol\":29502:29513  PROTON.lock */\n      0xffffffffffffffffffffffffffffffffffffffff\n      and\n      0xe2ab691d\n        /* \"Auction/auction1404.sol\":29514:29525  userAddress */\n      dup10\n        /* \"Auction/auction1404.sol\":29527:29534  _amount */\n      dup10\n        /* \"Auction/auction1404.sol\":29536:29544  lockTime */\n      dup6\n        /* \"Auction/auction1404.sol\":29502:29545  PROTON.lock(userAddress, _amount, lockTime) */\n      mload(0x40)\n      dup5\n      0xffffffff\n      and\n      0xe0\n      shl\n      dup2\n      mstore\n      0x04\n      add\n      tag_297\n      swap4\n      swap3\n      swap2\n      swap1\n      tag_298\n      jump\t// in\n    tag_297:\n      0x20\n      mload(0x40)\n      dup1\n      dup4\n      sub\n      dup2\n      0x00\n      dup8\n      gas\n      call\n      iszero\n      dup1\n      iszero\n      tag_300\n      jumpi\n      returndatasize\n      0x00\n      dup1\n      returndatacopy\n      revert(0x00, returndatasize)\n    tag_300:\n      pop\n      pop\n      pop\n      pop\n      mload(0x40)\n      returndatasize\n      not(0x1f)\n      0x1f\n      dup3\n      add\n      and\n      dup3\n      add\n      dup1\n      0x40\n      mstore\n      pop\n      dup2\n      add\n      swap1\n      tag_301\n      swap2\n      swap1\n      tag_161\n      jump\t// in\n    tag_301:\n      pop\n        /* \"Auction/auction1404.sol\":29623:29629  PROTON */\n      0x02\n      0x00\n      swap1\n      sload\n      swap1\n      0x0100\n      exp\n      swap1\n      div\n      0xffffffffffffffffffffffffffffffffffffffff\n      and\n        /* \"Auction/auction1404.sol\":29623:29638  PROTON.transfer */\n      0xffffffffffffffffffffffffffffffffffffffff\n      and\n      0xa9059cbb\n        /* \"Auction/auction1404.sol\":29639:29650  userAddress */\n      dup10\n        /* \"Auction/auction1404.sol\":29652:29659  _amount */\n      dup10\n        /* \"Auction/auction1404.sol\":29623:29660  PROTON.transfer(userAddress, _amount) */\n      mload(0x40)\n      dup4\n      0xffffffff\n      and\n      0xe0\n      shl\n      dup2\n      mstore\n      0x04\n      add\n      tag_302\n      swap3\n      swap2\n      swap1\n      tag_157\n      jump\t// in\n    tag_302:\n      0x20\n      mload(0x40)\n      dup1\n      dup4\n      sub\n      dup2\n      0x00\n      dup8\n      gas\n      call\n      iszero\n      dup1\n      iszero\n      tag_304\n      jumpi\n      returndatasize\n      0x00\n      dup1\n      returndatacopy\n      revert(0x00, returndatasize)\n    tag_304:\n      pop\n      pop\n      pop\n      pop\n      mload(0x40)\n      returndatasize\n      not(0x1f)\n      0x1f\n      dup3\n      add\n      and\n      dup3\n      add\n      dup1\n      0x40\n      mstore\n      pop\n      dup2\n      add\n      swap1\n      tag_305\n      swap2\n      swap1\n      tag_161\n      jump\t// in\n    tag_305:\n        /* \"Auction/auction1404.sol\":29602:29714  require(... */\n      tag_306\n      jumpi\n      mload(0x40)\n      0x08c379a000000000000000000000000000000000000000000000000000000000\n      dup2\n      mstore\n      0x04\n      add\n      tag_307\n      swap1\n      tag_164\n      jump\t// in\n    tag_307:\n      mload(0x40)\n      dup1\n      swap2\n      sub\n      swap1\n      revert\n    tag_306:\n        /* \"Auction/auction1404.sol\":26784:29800  {... */\n      pop\n      pop\n      pop\n      pop\n      pop\n      pop\n        /* \"Auction/auction1404.sol\":26655:29800  function buyTokens(... */\n      pop\n      pop\n      pop\n      jump\t// out\n        /* \"Auction/auction1404.sol\":23660:23684  uint256 public totalSell */\n    tag_131:\n      sload(0x08)\n      dup2\n      jump\t// out\n        /* \"Auction/auction1404.sol\":23444:23491  uint256 public dailySupply = 2000000 * 10 ** 18 */\n    tag_134:\n      sload(0x04)\n      dup2\n      jump\t// out\n        /* \"Auction/auction1404.sol\":2839:3054  function transferOwnership(address newOwner) public virtual onlyOwner {... */\n    tag_138:\n        /* \"Auction/auction1404.sol\":1827:1840  _checkOwner() */\n      tag_309\n        /* \"Auction/auction1404.sol\":1827:1838  _checkOwner */\n      tag_167\n        /* \"Auction/auction1404.sol\":1827:1840  _checkOwner() */\n      jump\t// in\n    tag_309:\n        /* \"Auction/auction1404.sol\":2943:2944  0 */\n      0x00\n        /* \"Auction/auction1404.sol\":2923:2945  newOwner == address(0) */\n      0xffffffffffffffffffffffffffffffffffffffff\n      and\n        /* \"Auction/auction1404.sol\":2923:2931  newOwner */\n      dup2\n        /* \"Auction/auction1404.sol\":2923:2945  newOwner == address(0) */\n      0xffffffffffffffffffffffffffffffffffffffff\n      and\n      sub\n        /* \"Auction/auction1404.sol\":2919:3010  if (newOwner == address(0)) {... */\n      tag_311\n      jumpi\n        /* \"Auction/auction1404.sol\":2996:2997  0 */\n      0x00\n        /* \"Auction/auction1404.sol\":2968:2999  OwnableInvalidOwner(address(0)) */\n      mload(0x40)\n      0x1e4fbdf700000000000000000000000000000000000000000000000000000000\n      dup2\n      mstore\n      0x04\n      add\n      tag_312\n      swap2\n      swap1\n      tag_52\n      jump\t// in\n    tag_312:\n      mload(0x40)\n      dup1\n      swap2\n      sub\n      swap1\n      revert\n        /* \"Auction/auction1404.sol\":2919:3010  if (newOwner == address(0)) {... */\n    tag_311:\n        /* \"Auction/auction1404.sol\":3019:3047  _transferOwnership(newOwner) */\n      tag_313\n        /* \"Auction/auction1404.sol\":3038:3046  newOwner */\n      dup2\n        /* \"Auction/auction1404.sol\":3019:3037  _transferOwnership */\n      tag_209\n        /* \"Auction/auction1404.sol\":3019:3047  _transferOwnership(newOwner) */\n      jump\t// in\n    tag_313:\n        /* \"Auction/auction1404.sol\":2839:3054  function transferOwnership(address newOwner) public virtual onlyOwner {... */\n      pop\n      jump\t// out\n        /* \"Auction/auction1404.sol\":26095:26213  function AuctionTime() external view returns (uint, uint) {... */\n    tag_140:\n        /* \"Auction/auction1404.sol\":26141:26145  uint */\n      0x00\n        /* \"Auction/auction1404.sol\":26147:26151  uint */\n      dup1\n        /* \"Auction/auction1404.sol\":26171:26188  currentRoundStart */\n      sload(0x0a)\n        /* \"Auction/auction1404.sol\":26190:26205  currentRoundEnd */\n      sload(0x07)\n        /* \"Auction/auction1404.sol\":26163:26206  return (currentRoundStart, currentRoundEnd) */\n      swap2\n      pop\n      swap2\n      pop\n        /* \"Auction/auction1404.sol\":26095:26213  function AuctionTime() external view returns (uint, uint) {... */\n      swap1\n      swap2\n      jump\t// out\n        /* \"Auction/auction1404.sol\":2092:2254  function _checkOwner() internal view virtual {... */\n    tag_167:\n        /* \"Auction/auction1404.sol\":2162:2174  _msgSender() */\n      tag_316\n        /* \"Auction/auction1404.sol\":2162:2172  _msgSender */\n      tag_317\n        /* \"Auction/auction1404.sol\":2162:2174  _msgSender() */\n      jump\t// in\n    tag_316:\n        /* \"Auction/auction1404.sol\":2151:2174  owner() != _msgSender() */\n      0xffffffffffffffffffffffffffffffffffffffff\n      and\n        /* \"Auction/auction1404.sol\":2151:2158  owner() */\n      tag_318\n        /* \"Auction/auction1404.sol\":2151:2156  owner */\n      tag_97\n        /* \"Auction/auction1404.sol\":2151:2158  owner() */\n      jump\t// in\n    tag_318:\n        /* \"Auction/auction1404.sol\":2151:2174  owner() != _msgSender() */\n      0xffffffffffffffffffffffffffffffffffffffff\n      and\n      eq\n        /* \"Auction/auction1404.sol\":2147:2248  if (owner() != _msgSender()) {... */\n      tag_319\n      jumpi\n        /* \"Auction/auction1404.sol\":2224:2236  _msgSender() */\n      tag_320\n        /* \"Auction/auction1404.sol\":2224:2234  _msgSender */\n      tag_317\n        /* \"Auction/auction1404.sol\":2224:2236  _msgSender() */\n      jump\t// in\n    tag_320:\n        /* \"Auction/auction1404.sol\":2197:2237  OwnableUnauthorizedAccount(_msgSender()) */\n      mload(0x40)\n      0x118cdaa700000000000000000000000000000000000000000000000000000000\n      dup2\n      mstore\n      0x04\n      add\n      tag_321\n      swap2\n      swap1\n      tag_52\n      jump\t// in\n    tag_321:\n      mload(0x40)\n      dup1\n      swap2\n      sub\n      swap1\n      revert\n        /* \"Auction/auction1404.sol\":2147:2248  if (owner() != _msgSender()) {... */\n    tag_319:\n        /* \"Auction/auction1404.sol\":2092:2254  function _checkOwner() internal view virtual {... */\n      jump\t// out\n        /* \"Auction/auction1404.sol\":3208:3395  function _transferOwnership(address newOwner) internal virtual {... */\n    tag_209:\n        /* \"Auction/auction1404.sol\":3281:3297  address oldOwner */\n      0x00\n        /* \"Auction/auction1404.sol\":3300:3306  _owner */\n      dup1\n      0x00\n      swap1\n      sload\n      swap1\n      0x0100\n      exp\n      swap1\n      div\n      0xffffffffffffffffffffffffffffffffffffffff\n      and\n        /* \"Auction/auction1404.sol\":3281:3306  address oldOwner = _owner */\n      swap1\n      pop\n        /* \"Auction/auction1404.sol\":3325:3333  newOwner */\n      dup2\n        /* \"Auction/auction1404.sol\":3316:3322  _owner */\n      0x00\n      dup1\n        /* \"Auction/auction1404.sol\":3316:3333  _owner = newOwner */\n      0x0100\n      exp\n      dup2\n      sload\n      dup2\n      0xffffffffffffffffffffffffffffffffffffffff\n      mul\n      not\n      and\n      swap1\n      dup4\n      0xffffffffffffffffffffffffffffffffffffffff\n      and\n      mul\n      or\n      swap1\n      sstore\n      pop\n        /* \"Auction/auction1404.sol\":3379:3387  newOwner */\n      dup2\n        /* \"Auction/auction1404.sol\":3348:3388  OwnershipTransferred(oldOwner, newOwner) */\n      0xffffffffffffffffffffffffffffffffffffffff\n      and\n        /* \"Auction/auction1404.sol\":3369:3377  oldOwner */\n      dup2\n        /* \"Auction/auction1404.sol\":3348:3388  OwnershipTransferred(oldOwner, newOwner) */\n      0xffffffffffffffffffffffffffffffffffffffff\n      and\n      0x8be0079c531659141344cd1fd0a4f28419497f9722a3daafe3b4186f6b6457e0\n      mload(0x40)\n      mload(0x40)\n      dup1\n      swap2\n      sub\n      swap1\n      log3\n        /* \"Auction/auction1404.sol\":3271:3395  {... */\n      pop\n        /* \"Auction/auction1404.sol\":3208:3395  function _transferOwnership(address newOwner) internal virtual {... */\n      pop\n      jump\t// out\n        /* \"Auction/auction1404.sol\":629:725  function _msgSender() internal view virtual returns (address) {... */\n    tag_317:\n        /* \"Auction/auction1404.sol\":682:689  address */\n      0x00\n        /* \"Auction/auction1404.sol\":708:718  msg.sender */\n      caller\n        /* \"Auction/auction1404.sol\":701:718  return msg.sender */\n      swap1\n      pop\n        /* \"Auction/auction1404.sol\":629:725  function _msgSender() internal view virtual returns (address) {... */\n      swap1\n      jump\t// out\n        /* \"#utility.yul\":7:82   */\n    tag_324:\n        /* \"#utility.yul\":40:46   */\n      0x00\n        /* \"#utility.yul\":73:75   */\n      0x40\n        /* \"#utility.yul\":67:76   */\n      mload\n        /* \"#utility.yul\":57:76   */\n      swap1\n      pop\n        /* \"#utility.yul\":7:82   */\n      swap1\n      jump\t// out\n        /* \"#utility.yul\":88:205   */\n    tag_325:\n        /* \"#utility.yul\":197:198   */\n      0x00\n        /* \"#utility.yul\":194:195   */\n      dup1\n        /* \"#utility.yul\":187:199   */\n      revert\n        /* \"#utility.yul\":211:328   */\n    tag_326:\n        /* \"#utility.yul\":320:321   */\n      0x00\n        /* \"#utility.yul\":317:318   */\n      dup1\n        /* \"#utility.yul\":310:322   */\n      revert\n        /* \"#utility.yul\":334:460   */\n    tag_327:\n        /* \"#utility.yul\":371:378   */\n      0x00\n        /* \"#utility.yul\":411:453   */\n      0xffffffffffffffffffffffffffffffffffffffff\n        /* \"#utility.yul\":404:409   */\n      dup3\n        /* \"#utility.yul\":400:454   */\n      and\n        /* \"#utility.yul\":389:454   */\n      swap1\n      pop\n        /* \"#utility.yul\":334:460   */\n      swap2\n      swap1\n      pop\n      jump\t// out\n        /* \"#utility.yul\":466:562   */\n    tag_328:\n        /* \"#utility.yul\":503:510   */\n      0x00\n        /* \"#utility.yul\":532:556   */\n      tag_406\n        /* \"#utility.yul\":550:555   */\n      dup3\n        /* \"#utility.yul\":532:556   */\n      tag_327\n      jump\t// in\n    tag_406:\n        /* \"#utility.yul\":521:556   */\n      swap1\n      pop\n        /* \"#utility.yul\":466:562   */\n      swap2\n      swap1\n      pop\n      jump\t// out\n        /* \"#utility.yul\":568:690   */\n    tag_329:\n        /* \"#utility.yul\":641:665   */\n      tag_408\n        /* \"#utility.yul\":659:664   */\n      dup2\n        /* \"#utility.yul\":641:665   */\n      tag_328\n      jump\t// in\n    tag_408:\n        /* \"#utility.yul\":634:639   */\n      dup2\n        /* \"#utility.yul\":631:666   */\n      eq\n        /* \"#utility.yul\":621:684   */\n      tag_409\n      jumpi\n        /* \"#utility.yul\":680:681   */\n      0x00\n        /* \"#utility.yul\":677:678   */\n      dup1\n        /* \"#utility.yul\":670:682   */\n      revert\n        /* \"#utility.yul\":621:684   */\n    tag_409:\n        /* \"#utility.yul\":568:690   */\n      pop\n      jump\t// out\n        /* \"#utility.yul\":696:835   */\n    tag_330:\n        /* \"#utility.yul\":742:747   */\n      0x00\n        /* \"#utility.yul\":780:786   */\n      dup2\n        /* \"#utility.yul\":767:787   */\n      calldataload\n        /* \"#utility.yul\":758:787   */\n      swap1\n      pop\n        /* \"#utility.yul\":796:829   */\n      tag_411\n        /* \"#utility.yul\":823:828   */\n      dup2\n        /* \"#utility.yul\":796:829   */\n      tag_329\n      jump\t// in\n    tag_411:\n        /* \"#utility.yul\":696:835   */\n      swap3\n      swap2\n      pop\n      pop\n      jump\t// out\n        /* \"#utility.yul\":841:918   */\n    tag_331:\n        /* \"#utility.yul\":878:885   */\n      0x00\n        /* \"#utility.yul\":907:912   */\n      dup2\n        /* \"#utility.yul\":896:912   */\n      swap1\n      pop\n        /* \"#utility.yul\":841:918   */\n      swap2\n      swap1\n      pop\n      jump\t// out\n        /* \"#utility.yul\":924:1046   */\n    tag_332:\n        /* \"#utility.yul\":997:1021   */\n      tag_414\n        /* \"#utility.yul\":1015:1020   */\n      dup2\n        /* \"#utility.yul\":997:1021   */\n      tag_331\n      jump\t// in\n    tag_414:\n        /* \"#utility.yul\":990:995   */\n      dup2\n        /* \"#utility.yul\":987:1022   */\n      eq\n        /* \"#utility.yul\":977:1040   */\n      tag_415\n      jumpi\n        /* \"#utility.yul\":1036:1037   */\n      0x00\n        /* \"#utility.yul\":1033:1034   */\n      dup1\n        /* \"#utility.yul\":1026:1038   */\n      revert\n        /* \"#utility.yul\":977:1040   */\n    tag_415:\n        /* \"#utility.yul\":924:1046   */\n      pop\n      jump\t// out\n        /* \"#utility.yul\":1052:1191   */\n    tag_333:\n        /* \"#utility.yul\":1098:1103   */\n      0x00\n        /* \"#utility.yul\":1136:1142   */\n      dup2\n        /* \"#utility.yul\":1123:1143   */\n      calldataload\n        /* \"#utility.yul\":1114:1143   */\n      swap1\n      pop\n        /* \"#utility.yul\":1152:1185   */\n      tag_417\n        /* \"#utility.yul\":1179:1184   */\n      dup2\n        /* \"#utility.yul\":1152:1185   */\n      tag_332\n      jump\t// in\n    tag_417:\n        /* \"#utility.yul\":1052:1191   */\n      swap3\n      swap2\n      pop\n      pop\n      jump\t// out\n        /* \"#utility.yul\":1197:1671   */\n    tag_41:\n        /* \"#utility.yul\":1265:1271   */\n      0x00\n        /* \"#utility.yul\":1273:1279   */\n      dup1\n        /* \"#utility.yul\":1322:1324   */\n      0x40\n        /* \"#utility.yul\":1310:1319   */\n      dup4\n        /* \"#utility.yul\":1301:1308   */\n      dup6\n        /* \"#utility.yul\":1297:1320   */\n      sub\n        /* \"#utility.yul\":1293:1325   */\n      slt\n        /* \"#utility.yul\":1290:1409   */\n      iszero\n      tag_419\n      jumpi\n        /* \"#utility.yul\":1328:1407   */\n      tag_420\n      tag_325\n      jump\t// in\n    tag_420:\n        /* \"#utility.yul\":1290:1409   */\n    tag_419:\n        /* \"#utility.yul\":1448:1449   */\n      0x00\n        /* \"#utility.yul\":1473:1526   */\n      tag_421\n        /* \"#utility.yul\":1518:1525   */\n      dup6\n        /* \"#utility.yul\":1509:1515   */\n      dup3\n        /* \"#utility.yul\":1498:1507   */\n      dup7\n        /* \"#utility.yul\":1494:1516   */\n      add\n        /* \"#utility.yul\":1473:1526   */\n      tag_330\n      jump\t// in\n    tag_421:\n        /* \"#utility.yul\":1463:1526   */\n      swap3\n      pop\n        /* \"#utility.yul\":1419:1536   */\n      pop\n        /* \"#utility.yul\":1575:1577   */\n      0x20\n        /* \"#utility.yul\":1601:1654   */\n      tag_422\n        /* \"#utility.yul\":1646:1653   */\n      dup6\n        /* \"#utility.yul\":1637:1643   */\n      dup3\n        /* \"#utility.yul\":1626:1635   */\n      dup7\n        /* \"#utility.yul\":1622:1644   */\n      add\n        /* \"#utility.yul\":1601:1654   */\n      tag_333\n      jump\t// in\n    tag_422:\n        /* \"#utility.yul\":1591:1654   */\n      swap2\n      pop\n        /* \"#utility.yul\":1546:1664   */\n      pop\n        /* \"#utility.yul\":1197:1671   */\n      swap3\n      pop\n      swap3\n      swap1\n      pop\n      jump\t// out\n        /* \"#utility.yul\":1677:1767   */\n    tag_334:\n        /* \"#utility.yul\":1711:1718   */\n      0x00\n        /* \"#utility.yul\":1754:1759   */\n      dup2\n        /* \"#utility.yul\":1747:1760   */\n      iszero\n        /* \"#utility.yul\":1740:1761   */\n      iszero\n        /* \"#utility.yul\":1729:1761   */\n      swap1\n      pop\n        /* \"#utility.yul\":1677:1767   */\n      swap2\n      swap1\n      pop\n      jump\t// out\n        /* \"#utility.yul\":1773:1882   */\n    tag_335:\n        /* \"#utility.yul\":1854:1875   */\n      tag_425\n        /* \"#utility.yul\":1869:1874   */\n      dup2\n        /* \"#utility.yul\":1854:1875   */\n      tag_334\n      jump\t// in\n    tag_425:\n        /* \"#utility.yul\":1849:1852   */\n      dup3\n        /* \"#utility.yul\":1842:1876   */\n      mstore\n        /* \"#utility.yul\":1773:1882   */\n      pop\n      pop\n      jump\t// out\n        /* \"#utility.yul\":1888:2098   */\n    tag_44:\n        /* \"#utility.yul\":1975:1979   */\n      0x00\n        /* \"#utility.yul\":2013:2015   */\n      0x20\n        /* \"#utility.yul\":2002:2011   */\n      dup3\n        /* \"#utility.yul\":1998:2016   */\n      add\n        /* \"#utility.yul\":1990:2016   */\n      swap1\n      pop\n        /* \"#utility.yul\":2026:2091   */\n      tag_427\n        /* \"#utility.yul\":2088:2089   */\n      0x00\n        /* \"#utility.yul\":2077:2086   */\n      dup4\n        /* \"#utility.yul\":2073:2090   */\n      add\n        /* \"#utility.yul\":2064:2070   */\n      dup5\n        /* \"#utility.yul\":2026:2091   */\n      tag_335\n      jump\t// in\n    tag_427:\n        /* \"#utility.yul\":1888:2098   */\n      swap3\n      swap2\n      pop\n      pop\n      jump\t// out\n        /* \"#utility.yul\":2104:2723   */\n    tag_47:\n        /* \"#utility.yul\":2181:2187   */\n      0x00\n        /* \"#utility.yul\":2189:2195   */\n      dup1\n        /* \"#utility.yul\":2197:2203   */\n      0x00\n        /* \"#utility.yul\":2246:2248   */\n      0x60\n        /* \"#utility.yul\":2234:2243   */\n      dup5\n        /* \"#utility.yul\":2225:2232   */\n      dup7\n        /* \"#utility.yul\":2221:2244   */\n      sub\n        /* \"#utility.yul\":2217:2249   */\n      slt\n        /* \"#utility.yul\":2214:2333   */\n      iszero\n      tag_429\n      jumpi\n        /* \"#utility.yul\":2252:2331   */\n      tag_430\n      tag_325\n      jump\t// in\n    tag_430:\n        /* \"#utility.yul\":2214:2333   */\n    tag_429:\n        /* \"#utility.yul\":2372:2373   */\n      0x00\n        /* \"#utility.yul\":2397:2450   */\n      tag_431\n        /* \"#utility.yul\":2442:2449   */\n      dup7\n        /* \"#utility.yul\":2433:2439   */\n      dup3\n        /* \"#utility.yul\":2422:2431   */\n      dup8\n        /* \"#utility.yul\":2418:2440   */\n      add\n        /* \"#utility.yul\":2397:2450   */\n      tag_333\n      jump\t// in\n    tag_431:\n        /* \"#utility.yul\":2387:2450   */\n      swap4\n      pop\n        /* \"#utility.yul\":2343:2460   */\n      pop\n        /* \"#utility.yul\":2499:2501   */\n      0x20\n        /* \"#utility.yul\":2525:2578   */\n      tag_432\n        /* \"#utility.yul\":2570:2577   */\n      dup7\n        /* \"#utility.yul\":2561:2567   */\n      dup3\n        /* \"#utility.yul\":2550:2559   */\n      dup8\n        /* \"#utility.yul\":2546:2568   */\n      add\n        /* \"#utility.yul\":2525:2578   */\n      tag_333\n      jump\t// in\n    tag_432:\n        /* \"#utility.yul\":2515:2578   */\n      swap3\n      pop\n        /* \"#utility.yul\":2470:2588   */\n      pop\n        /* \"#utility.yul\":2627:2629   */\n      0x40\n        /* \"#utility.yul\":2653:2706   */\n      tag_433\n        /* \"#utility.yul\":2698:2705   */\n      dup7\n        /* \"#utility.yul\":2689:2695   */\n      dup3\n        /* \"#utility.yul\":2678:2687   */\n      dup8\n        /* \"#utility.yul\":2674:2696   */\n      add\n        /* \"#utility.yul\":2653:2706   */\n      tag_333\n      jump\t// in\n    tag_433:\n        /* \"#utility.yul\":2643:2706   */\n      swap2\n      pop\n        /* \"#utility.yul\":2598:2716   */\n      pop\n        /* \"#utility.yul\":2104:2723   */\n      swap3\n      pop\n      swap3\n      pop\n      swap3\n      jump\t// out\n        /* \"#utility.yul\":2729:2847   */\n    tag_336:\n        /* \"#utility.yul\":2816:2840   */\n      tag_435\n        /* \"#utility.yul\":2834:2839   */\n      dup2\n        /* \"#utility.yul\":2816:2840   */\n      tag_328\n      jump\t// in\n    tag_435:\n        /* \"#utility.yul\":2811:2814   */\n      dup3\n        /* \"#utility.yul\":2804:2841   */\n      mstore\n        /* \"#utility.yul\":2729:2847   */\n      pop\n      pop\n      jump\t// out\n        /* \"#utility.yul\":2853:3075   */\n    tag_52:\n        /* \"#utility.yul\":2946:2950   */\n      0x00\n        /* \"#utility.yul\":2984:2986   */\n      0x20\n        /* \"#utility.yul\":2973:2982   */\n      dup3\n        /* \"#utility.yul\":2969:2987   */\n      add\n        /* \"#utility.yul\":2961:2987   */\n      swap1\n      pop\n        /* \"#utility.yul\":2997:3068   */\n      tag_437\n        /* \"#utility.yul\":3065:3066   */\n      0x00\n        /* \"#utility.yul\":3054:3063   */\n      dup4\n        /* \"#utility.yul\":3050:3067   */\n      add\n        /* \"#utility.yul\":3041:3047   */\n      dup5\n        /* \"#utility.yul\":2997:3068   */\n      tag_336\n      jump\t// in\n    tag_437:\n        /* \"#utility.yul\":2853:3075   */\n      swap3\n      swap2\n      pop\n      pop\n      jump\t// out\n        /* \"#utility.yul\":3081:3199   */\n    tag_337:\n        /* \"#utility.yul\":3168:3192   */\n      tag_439\n        /* \"#utility.yul\":3186:3191   */\n      dup2\n        /* \"#utility.yul\":3168:3192   */\n      tag_331\n      jump\t// in\n    tag_439:\n        /* \"#utility.yul\":3163:3166   */\n      dup3\n        /* \"#utility.yul\":3156:3193   */\n      mstore\n        /* \"#utility.yul\":3081:3199   */\n      pop\n      pop\n      jump\t// out\n        /* \"#utility.yul\":3205:3427   */\n    tag_56:\n        /* \"#utility.yul\":3298:3302   */\n      0x00\n        /* \"#utility.yul\":3336:3338   */\n      0x20\n        /* \"#utility.yul\":3325:3334   */\n      dup3\n        /* \"#utility.yul\":3321:3339   */\n      add\n        /* \"#utility.yul\":3313:3339   */\n      swap1\n      pop\n        /* \"#utility.yul\":3349:3420   */\n      tag_441\n        /* \"#utility.yul\":3417:3418   */\n      0x00\n        /* \"#utility.yul\":3406:3415   */\n      dup4\n        /* \"#utility.yul\":3402:3419   */\n      add\n        /* \"#utility.yul\":3393:3399   */\n      dup5\n        /* \"#utility.yul\":3349:3420   */\n      tag_337\n      jump\t// in\n    tag_441:\n        /* \"#utility.yul\":3205:3427   */\n      swap3\n      swap2\n      pop\n      pop\n      jump\t// out\n        /* \"#utility.yul\":3433:3549   */\n    tag_338:\n        /* \"#utility.yul\":3503:3524   */\n      tag_443\n        /* \"#utility.yul\":3518:3523   */\n      dup2\n        /* \"#utility.yul\":3503:3524   */\n      tag_334\n      jump\t// in\n    tag_443:\n        /* \"#utility.yul\":3496:3501   */\n      dup2\n        /* \"#utility.yul\":3493:3525   */\n      eq\n        /* \"#utility.yul\":3483:3543   */\n      tag_444\n      jumpi\n        /* \"#utility.yul\":3539:3540   */\n      0x00\n        /* \"#utility.yul\":3536:3537   */\n      dup1\n        /* \"#utility.yul\":3529:3541   */\n      revert\n        /* \"#utility.yul\":3483:3543   */\n    tag_444:\n        /* \"#utility.yul\":3433:3549   */\n      pop\n      jump\t// out\n        /* \"#utility.yul\":3555:3688   */\n    tag_339:\n        /* \"#utility.yul\":3598:3603   */\n      0x00\n        /* \"#utility.yul\":3636:3642   */\n      dup2\n        /* \"#utility.yul\":3623:3643   */\n      calldataload\n        /* \"#utility.yul\":3614:3643   */\n      swap1\n      pop\n        /* \"#utility.yul\":3652:3682   */\n      tag_446\n        /* \"#utility.yul\":3676:3681   */\n      dup2\n        /* \"#utility.yul\":3652:3682   */\n      tag_338\n      jump\t// in\n    tag_446:\n        /* \"#utility.yul\":3555:3688   */\n      swap3\n      swap2\n      pop\n      pop\n      jump\t// out\n        /* \"#utility.yul\":3694:4017   */\n    tag_62:\n        /* \"#utility.yul\":3750:3756   */\n      0x00\n        /* \"#utility.yul\":3799:3801   */\n      0x20\n        /* \"#utility.yul\":3787:3796   */\n      dup3\n        /* \"#utility.yul\":3778:3785   */\n      dup5\n        /* \"#utility.yul\":3774:3797   */\n      sub\n        /* \"#utility.yul\":3770:3802   */\n      slt\n        /* \"#utility.yul\":3767:3886   */\n      iszero\n      tag_448\n      jumpi\n        /* \"#utility.yul\":3805:3884   */\n      tag_449\n      tag_325\n      jump\t// in\n    tag_449:\n        /* \"#utility.yul\":3767:3886   */\n    tag_448:\n        /* \"#utility.yul\":3925:3926   */\n      0x00\n        /* \"#utility.yul\":3950:4000   */\n      tag_450\n        /* \"#utility.yul\":3992:3999   */\n      dup5\n        /* \"#utility.yul\":3983:3989   */\n      dup3\n        /* \"#utility.yul\":3972:3981   */\n      dup6\n        /* \"#utility.yul\":3968:3990   */\n      add\n        /* \"#utility.yul\":3950:4000   */\n      tag_339\n      jump\t// in\n    tag_450:\n        /* \"#utility.yul\":3940:4000   */\n      swap2\n      pop\n        /* \"#utility.yul\":3896:4010   */\n      pop\n        /* \"#utility.yul\":3694:4017   */\n      swap3\n      swap2\n      pop\n      pop\n      jump\t// out\n        /* \"#utility.yul\":4023:4352   */\n    tag_66:\n        /* \"#utility.yul\":4082:4088   */\n      0x00\n        /* \"#utility.yul\":4131:4133   */\n      0x20\n        /* \"#utility.yul\":4119:4128   */\n      dup3\n        /* \"#utility.yul\":4110:4117   */\n      dup5\n        /* \"#utility.yul\":4106:4129   */\n      sub\n        /* \"#utility.yul\":4102:4134   */\n      slt\n        /* \"#utility.yul\":4099:4218   */\n      iszero\n      tag_452\n      jumpi\n        /* \"#utility.yul\":4137:4216   */\n      tag_453\n      tag_325\n      jump\t// in\n    tag_453:\n        /* \"#utility.yul\":4099:4218   */\n    tag_452:\n        /* \"#utility.yul\":4257:4258   */\n      0x00\n        /* \"#utility.yul\":4282:4335   */\n      tag_454\n        /* \"#utility.yul\":4327:4334   */\n      dup5\n        /* \"#utility.yul\":4318:4324   */\n      dup3\n        /* \"#utility.yul\":4307:4316   */\n      dup6\n        /* \"#utility.yul\":4303:4325   */\n      add\n        /* \"#utility.yul\":4282:4335   */\n      tag_333\n      jump\t// in\n    tag_454:\n        /* \"#utility.yul\":4272:4335   */\n      swap2\n      pop\n        /* \"#utility.yul\":4228:4345   */\n      pop\n        /* \"#utility.yul\":4023:4352   */\n      swap3\n      swap2\n      pop\n      pop\n      jump\t// out\n        /* \"#utility.yul\":4358:4911   */\n    tag_69:\n        /* \"#utility.yul\":4535:4539   */\n      0x00\n        /* \"#utility.yul\":4573:4576   */\n      0x80\n        /* \"#utility.yul\":4562:4571   */\n      dup3\n        /* \"#utility.yul\":4558:4577   */\n      add\n        /* \"#utility.yul\":4550:4577   */\n      swap1\n      pop\n        /* \"#utility.yul\":4587:4658   */\n      tag_456\n        /* \"#utility.yul\":4655:4656   */\n      0x00\n        /* \"#utility.yul\":4644:4653   */\n      dup4\n        /* \"#utility.yul\":4640:4657   */\n      add\n        /* \"#utility.yul\":4631:4637   */\n      dup8\n        /* \"#utility.yul\":4587:4658   */\n      tag_337\n      jump\t// in\n    tag_456:\n        /* \"#utility.yul\":4668:4740   */\n      tag_457\n        /* \"#utility.yul\":4736:4738   */\n      0x20\n        /* \"#utility.yul\":4725:4734   */\n      dup4\n        /* \"#utility.yul\":4721:4739   */\n      add\n        /* \"#utility.yul\":4712:4718   */\n      dup7\n        /* \"#utility.yul\":4668:4740   */\n      tag_337\n      jump\t// in\n    tag_457:\n        /* \"#utility.yul\":4750:4822   */\n      tag_458\n        /* \"#utility.yul\":4818:4820   */\n      0x40\n        /* \"#utility.yul\":4807:4816   */\n      dup4\n        /* \"#utility.yul\":4803:4821   */\n      add\n        /* \"#utility.yul\":4794:4800   */\n      dup6\n        /* \"#utility.yul\":4750:4822   */\n      tag_337\n      jump\t// in\n    tag_458:\n        /* \"#utility.yul\":4832:4904   */\n      tag_459\n        /* \"#utility.yul\":4900:4902   */\n      0x60\n        /* \"#utility.yul\":4889:4898   */\n      dup4\n        /* \"#utility.yul\":4885:4903   */\n      add\n        /* \"#utility.yul\":4876:4882   */\n      dup5\n        /* \"#utility.yul\":4832:4904   */\n      tag_337\n      jump\t// in\n    tag_459:\n        /* \"#utility.yul\":4358:4911   */\n      swap6\n      swap5\n      pop\n      pop\n      pop\n      pop\n      pop\n      jump\t// out\n        /* \"#utility.yul\":4917:5246   */\n    tag_75:\n        /* \"#utility.yul\":4976:4982   */\n      0x00\n        /* \"#utility.yul\":5025:5027   */\n      0x20\n        /* \"#utility.yul\":5013:5022   */\n      dup3\n        /* \"#utility.yul\":5004:5011   */\n      dup5\n        /* \"#utility.yul\":5000:5023   */\n      sub\n        /* \"#utility.yul\":4996:5028   */\n      slt\n        /* \"#utility.yul\":4993:5112   */\n      iszero\n      tag_461\n      jumpi\n        /* \"#utility.yul\":5031:5110   */\n      tag_462\n      tag_325\n      jump\t// in\n    tag_462:\n        /* \"#utility.yul\":4993:5112   */\n    tag_461:\n        /* \"#utility.yul\":5151:5152   */\n      0x00\n        /* \"#utility.yul\":5176:5229   */\n      tag_463\n        /* \"#utility.yul\":5221:5228   */\n      dup5\n        /* \"#utility.yul\":5212:5218   */\n      dup3\n        /* \"#utility.yul\":5201:5210   */\n      dup6\n        /* \"#utility.yul\":5197:5219   */\n      add\n        /* \"#utility.yul\":5176:5229   */\n      tag_330\n      jump\t// in\n    tag_463:\n        /* \"#utility.yul\":5166:5229   */\n      swap2\n      pop\n        /* \"#utility.yul\":5122:5239   */\n      pop\n        /* \"#utility.yul\":4917:5246   */\n      swap3\n      swap2\n      pop\n      pop\n      jump\t// out\n        /* \"#utility.yul\":5252:5584   */\n    tag_78:\n        /* \"#utility.yul\":5373:5377   */\n      0x00\n        /* \"#utility.yul\":5411:5413   */\n      0x40\n        /* \"#utility.yul\":5400:5409   */\n      dup3\n        /* \"#utility.yul\":5396:5414   */\n      add\n        /* \"#utility.yul\":5388:5414   */\n      swap1\n      pop\n        /* \"#utility.yul\":5424:5495   */\n      tag_465\n        /* \"#utility.yul\":5492:5493   */\n      0x00\n        /* \"#utility.yul\":5481:5490   */\n      dup4\n        /* \"#utility.yul\":5477:5494   */\n      add\n        /* \"#utility.yul\":5468:5474   */\n      dup6\n        /* \"#utility.yul\":5424:5495   */\n      tag_337\n      jump\t// in\n    tag_465:\n        /* \"#utility.yul\":5505:5577   */\n      tag_466\n        /* \"#utility.yul\":5573:5575   */\n      0x20\n        /* \"#utility.yul\":5562:5571   */\n      dup4\n        /* \"#utility.yul\":5558:5576   */\n      add\n        /* \"#utility.yul\":5549:5555   */\n      dup5\n        /* \"#utility.yul\":5505:5577   */\n      tag_337\n      jump\t// in\n    tag_466:\n        /* \"#utility.yul\":5252:5584   */\n      swap4\n      swap3\n      pop\n      pop\n      pop\n      jump\t// out\n        /* \"#utility.yul\":5590:6032   */\n    tag_83:\n        /* \"#utility.yul\":5739:5743   */\n      0x00\n        /* \"#utility.yul\":5777:5779   */\n      0x60\n        /* \"#utility.yul\":5766:5775   */\n      dup3\n        /* \"#utility.yul\":5762:5780   */\n      add\n        /* \"#utility.yul\":5754:5780   */\n      swap1\n      pop\n        /* \"#utility.yul\":5790:5861   */\n      tag_468\n        /* \"#utility.yul\":5858:5859   */\n      0x00\n        /* \"#utility.yul\":5847:5856   */\n      dup4\n        /* \"#utility.yul\":5843:5860   */\n      add\n        /* \"#utility.yul\":5834:5840   */\n      dup7\n        /* \"#utility.yul\":5790:5861   */\n      tag_337\n      jump\t// in\n    tag_468:\n        /* \"#utility.yul\":5871:5943   */\n      tag_469\n        /* \"#utility.yul\":5939:5941   */\n      0x20\n        /* \"#utility.yul\":5928:5937   */\n      dup4\n        /* \"#utility.yul\":5924:5942   */\n      add\n        /* \"#utility.yul\":5915:5921   */\n      dup6\n        /* \"#utility.yul\":5871:5943   */\n      tag_337\n      jump\t// in\n    tag_469:\n        /* \"#utility.yul\":5953:6025   */\n      tag_470\n        /* \"#utility.yul\":6021:6023   */\n      0x40\n        /* \"#utility.yul\":6010:6019   */\n      dup4\n        /* \"#utility.yul\":6006:6024   */\n      add\n        /* \"#utility.yul\":5997:6003   */\n      dup5\n        /* \"#utility.yul\":5953:6025   */\n      tag_337\n      jump\t// in\n    tag_470:\n        /* \"#utility.yul\":5590:6032   */\n      swap5\n      swap4\n      pop\n      pop\n      pop\n      pop\n      jump\t// out\n        /* \"#utility.yul\":6038:6098   */\n    tag_340:\n        /* \"#utility.yul\":6066:6069   */\n      0x00\n        /* \"#utility.yul\":6087:6092   */\n      dup2\n        /* \"#utility.yul\":6080:6092   */\n      swap1\n      pop\n        /* \"#utility.yul\":6038:6098   */\n      swap2\n      swap1\n      pop\n      jump\t// out\n        /* \"#utility.yul\":6104:6246   */\n    tag_341:\n        /* \"#utility.yul\":6154:6163   */\n      0x00\n        /* \"#utility.yul\":6187:6240   */\n      tag_473\n        /* \"#utility.yul\":6205:6239   */\n      tag_474\n        /* \"#utility.yul\":6214:6238   */\n      tag_475\n        /* \"#utility.yul\":6232:6237   */\n      dup5\n        /* \"#utility.yul\":6214:6238   */\n      tag_327\n      jump\t// in\n    tag_475:\n        /* \"#utility.yul\":6205:6239   */\n      tag_340\n      jump\t// in\n    tag_474:\n        /* \"#utility.yul\":6187:6240   */\n      tag_327\n      jump\t// in\n    tag_473:\n        /* \"#utility.yul\":6174:6240   */\n      swap1\n      pop\n        /* \"#utility.yul\":6104:6246   */\n      swap2\n      swap1\n      pop\n      jump\t// out\n        /* \"#utility.yul\":6252:6378   */\n    tag_342:\n        /* \"#utility.yul\":6302:6311   */\n      0x00\n        /* \"#utility.yul\":6335:6372   */\n      tag_477\n        /* \"#utility.yul\":6366:6371   */\n      dup3\n        /* \"#utility.yul\":6335:6372   */\n      tag_341\n      jump\t// in\n    tag_477:\n        /* \"#utility.yul\":6322:6372   */\n      swap1\n      pop\n        /* \"#utility.yul\":6252:6378   */\n      swap2\n      swap1\n      pop\n      jump\t// out\n        /* \"#utility.yul\":6384:6524   */\n    tag_343:\n        /* \"#utility.yul\":6448:6457   */\n      0x00\n        /* \"#utility.yul\":6481:6518   */\n      tag_479\n        /* \"#utility.yul\":6512:6517   */\n      dup3\n        /* \"#utility.yul\":6481:6518   */\n      tag_342\n      jump\t// in\n    tag_479:\n        /* \"#utility.yul\":6468:6518   */\n      swap1\n      pop\n        /* \"#utility.yul\":6384:6524   */\n      swap2\n      swap1\n      pop\n      jump\t// out\n        /* \"#utility.yul\":6530:6689   */\n    tag_344:\n        /* \"#utility.yul\":6631:6682   */\n      tag_481\n        /* \"#utility.yul\":6676:6681   */\n      dup2\n        /* \"#utility.yul\":6631:6682   */\n      tag_343\n      jump\t// in\n    tag_481:\n        /* \"#utility.yul\":6626:6629   */\n      dup3\n        /* \"#utility.yul\":6619:6683   */\n      mstore\n        /* \"#utility.yul\":6530:6689   */\n      pop\n      pop\n      jump\t// out\n        /* \"#utility.yul\":6695:6945   */\n    tag_121:\n        /* \"#utility.yul\":6802:6806   */\n      0x00\n        /* \"#utility.yul\":6840:6842   */\n      0x20\n        /* \"#utility.yul\":6829:6838   */\n      dup3\n        /* \"#utility.yul\":6825:6843   */\n      add\n        /* \"#utility.yul\":6817:6843   */\n      swap1\n      pop\n        /* \"#utility.yul\":6853:6938   */\n      tag_483\n        /* \"#utility.yul\":6935:6936   */\n      0x00\n        /* \"#utility.yul\":6924:6933   */\n      dup4\n        /* \"#utility.yul\":6920:6937   */\n      add\n        /* \"#utility.yul\":6911:6917   */\n      dup5\n        /* \"#utility.yul\":6853:6938   */\n      tag_344\n      jump\t// in\n    tag_483:\n        /* \"#utility.yul\":6695:6945   */\n      swap3\n      swap2\n      pop\n      pop\n      jump\t// out\n        /* \"#utility.yul\":6951:7092   */\n    tag_345:\n        /* \"#utility.yul\":7016:7025   */\n      0x00\n        /* \"#utility.yul\":7049:7086   */\n      tag_485\n        /* \"#utility.yul\":7080:7085   */\n      dup3\n        /* \"#utility.yul\":7049:7086   */\n      tag_342\n      jump\t// in\n    tag_485:\n        /* \"#utility.yul\":7036:7086   */\n      swap1\n      pop\n        /* \"#utility.yul\":6951:7092   */\n      swap2\n      swap1\n      pop\n      jump\t// out\n        /* \"#utility.yul\":7098:7259   */\n    tag_346:\n        /* \"#utility.yul\":7200:7252   */\n      tag_487\n        /* \"#utility.yul\":7246:7251   */\n      dup2\n        /* \"#utility.yul\":7200:7252   */\n      tag_345\n      jump\t// in\n    tag_487:\n        /* \"#utility.yul\":7195:7198   */\n      dup3\n        /* \"#utility.yul\":7188:7253   */\n      mstore\n        /* \"#utility.yul\":7098:7259   */\n      pop\n      pop\n      jump\t// out\n        /* \"#utility.yul\":7265:7517   */\n    tag_125:\n        /* \"#utility.yul\":7373:7377   */\n      0x00\n        /* \"#utility.yul\":7411:7413   */\n      0x20\n        /* \"#utility.yul\":7400:7409   */\n      dup3\n        /* \"#utility.yul\":7396:7414   */\n      add\n        /* \"#utility.yul\":7388:7414   */\n      swap1\n      pop\n        /* \"#utility.yul\":7424:7510   */\n      tag_489\n        /* \"#utility.yul\":7507:7508   */\n      0x00\n        /* \"#utility.yul\":7496:7505   */\n      dup4\n        /* \"#utility.yul\":7492:7509   */\n      add\n        /* \"#utility.yul\":7483:7489   */\n      dup5\n        /* \"#utility.yul\":7424:7510   */\n      tag_346\n      jump\t// in\n    tag_489:\n        /* \"#utility.yul\":7265:7517   */\n      swap3\n      swap2\n      pop\n      pop\n      jump\t// out\n        /* \"#utility.yul\":7523:7633   */\n    tag_347:\n        /* \"#utility.yul\":7574:7581   */\n      0x00\n        /* \"#utility.yul\":7603:7627   */\n      tag_491\n        /* \"#utility.yul\":7621:7626   */\n      dup3\n        /* \"#utility.yul\":7603:7627   */\n      tag_328\n      jump\t// in\n    tag_491:\n        /* \"#utility.yul\":7592:7627   */\n      swap1\n      pop\n        /* \"#utility.yul\":7523:7633   */\n      swap2\n      swap1\n      pop\n      jump\t// out\n        /* \"#utility.yul\":7639:7789   */\n    tag_348:\n        /* \"#utility.yul\":7726:7764   */\n      tag_493\n        /* \"#utility.yul\":7758:7763   */\n      dup2\n        /* \"#utility.yul\":7726:7764   */\n      tag_347\n      jump\t// in\n    tag_493:\n        /* \"#utility.yul\":7719:7724   */\n      dup2\n        /* \"#utility.yul\":7716:7765   */\n      eq\n        /* \"#utility.yul\":7706:7783   */\n      tag_494\n      jumpi\n        /* \"#utility.yul\":7779:7780   */\n      0x00\n        /* \"#utility.yul\":7776:7777   */\n      dup1\n        /* \"#utility.yul\":7769:7781   */\n      revert\n        /* \"#utility.yul\":7706:7783   */\n    tag_494:\n        /* \"#utility.yul\":7639:7789   */\n      pop\n      jump\t// out\n        /* \"#utility.yul\":7795:7962   */\n    tag_349:\n        /* \"#utility.yul\":7855:7860   */\n      0x00\n        /* \"#utility.yul\":7893:7899   */\n      dup2\n        /* \"#utility.yul\":7880:7900   */\n      calldataload\n        /* \"#utility.yul\":7871:7900   */\n      swap1\n      pop\n        /* \"#utility.yul\":7909:7956   */\n      tag_496\n        /* \"#utility.yul\":7950:7955   */\n      dup2\n        /* \"#utility.yul\":7909:7956   */\n      tag_348\n      jump\t// in\n    tag_496:\n        /* \"#utility.yul\":7795:7962   */\n      swap3\n      swap2\n      pop\n      pop\n      jump\t// out\n        /* \"#utility.yul\":7968:8615   */\n    tag_128:\n        /* \"#utility.yul\":8059:8065   */\n      0x00\n        /* \"#utility.yul\":8067:8073   */\n      dup1\n        /* \"#utility.yul\":8075:8081   */\n      0x00\n        /* \"#utility.yul\":8124:8126   */\n      0x60\n        /* \"#utility.yul\":8112:8121   */\n      dup5\n        /* \"#utility.yul\":8103:8110   */\n      dup7\n        /* \"#utility.yul\":8099:8122   */\n      sub\n        /* \"#utility.yul\":8095:8127   */\n      slt\n        /* \"#utility.yul\":8092:8211   */\n      iszero\n      tag_498\n      jumpi\n        /* \"#utility.yul\":8130:8209   */\n      tag_499\n      tag_325\n      jump\t// in\n    tag_499:\n        /* \"#utility.yul\":8092:8211   */\n    tag_498:\n        /* \"#utility.yul\":8250:8251   */\n      0x00\n        /* \"#utility.yul\":8275:8342   */\n      tag_500\n        /* \"#utility.yul\":8334:8341   */\n      dup7\n        /* \"#utility.yul\":8325:8331   */\n      dup3\n        /* \"#utility.yul\":8314:8323   */\n      dup8\n        /* \"#utility.yul\":8310:8332   */\n      add\n        /* \"#utility.yul\":8275:8342   */\n      tag_349\n      jump\t// in\n    tag_500:\n        /* \"#utility.yul\":8265:8342   */\n      swap4\n      pop\n        /* \"#utility.yul\":8221:8352   */\n      pop\n        /* \"#utility.yul\":8391:8393   */\n      0x20\n        /* \"#utility.yul\":8417:8470   */\n      tag_501\n        /* \"#utility.yul\":8462:8469   */\n      dup7\n        /* \"#utility.yul\":8453:8459   */\n      dup3\n        /* \"#utility.yul\":8442:8451   */\n      dup8\n        /* \"#utility.yul\":8438:8460   */\n      add\n        /* \"#utility.yul\":8417:8470   */\n      tag_330\n      jump\t// in\n    tag_501:\n        /* \"#utility.yul\":8407:8470   */\n      swap3\n      pop\n        /* \"#utility.yul\":8362:8480   */\n      pop\n        /* \"#utility.yul\":8519:8521   */\n      0x40\n        /* \"#utility.yul\":8545:8598   */\n      tag_502\n        /* \"#utility.yul\":8590:8597   */\n      dup7\n        /* \"#utility.yul\":8581:8587   */\n      dup3\n        /* \"#utility.yul\":8570:8579   */\n      dup8\n        /* \"#utility.yul\":8566:8588   */\n      add\n        /* \"#utility.yul\":8545:8598   */\n      tag_333\n      jump\t// in\n    tag_502:\n        /* \"#utility.yul\":8535:8598   */\n      swap2\n      pop\n        /* \"#utility.yul\":8490:8608   */\n      pop\n        /* \"#utility.yul\":7968:8615   */\n      swap3\n      pop\n      swap3\n      pop\n      swap3\n      jump\t// out\n        /* \"#utility.yul\":8621:8790   */\n    tag_350:\n        /* \"#utility.yul\":8705:8716   */\n      0x00\n        /* \"#utility.yul\":8739:8745   */\n      dup3\n        /* \"#utility.yul\":8734:8737   */\n      dup3\n        /* \"#utility.yul\":8727:8746   */\n      mstore\n        /* \"#utility.yul\":8779:8783   */\n      0x20\n        /* \"#utility.yul\":8774:8777   */\n      dup3\n        /* \"#utility.yul\":8770:8784   */\n      add\n        /* \"#utility.yul\":8755:8784   */\n      swap1\n      pop\n        /* \"#utility.yul\":8621:8790   */\n      swap3\n      swap2\n      pop\n      pop\n      jump\t// out\n        /* \"#utility.yul\":8796:8969   */\n    tag_351:\n        /* \"#utility.yul\":8936:8961   */\n      0x41756374696f6e206973207374696c6c20616374697665000000000000000000\n        /* \"#utility.yul\":8932:8933   */\n      0x00\n        /* \"#utility.yul\":8924:8930   */\n      dup3\n        /* \"#utility.yul\":8920:8934   */\n      add\n        /* \"#utility.yul\":8913:8962   */\n      mstore\n        /* \"#utility.yul\":8796:8969   */\n      pop\n      jump\t// out\n        /* \"#utility.yul\":8975:9341   */\n    tag_352:\n        /* \"#utility.yul\":9117:9120   */\n      0x00\n        /* \"#utility.yul\":9138:9205   */\n      tag_506\n        /* \"#utility.yul\":9202:9204   */\n      0x17\n        /* \"#utility.yul\":9197:9200   */\n      dup4\n        /* \"#utility.yul\":9138:9205   */\n      tag_350\n      jump\t// in\n    tag_506:\n        /* \"#utility.yul\":9131:9205   */\n      swap2\n      pop\n        /* \"#utility.yul\":9214:9307   */\n      tag_507\n        /* \"#utility.yul\":9303:9306   */\n      dup3\n        /* \"#utility.yul\":9214:9307   */\n      tag_351\n      jump\t// in\n    tag_507:\n        /* \"#utility.yul\":9332:9334   */\n      0x20\n        /* \"#utility.yul\":9327:9330   */\n      dup3\n        /* \"#utility.yul\":9323:9335   */\n      add\n        /* \"#utility.yul\":9316:9335   */\n      swap1\n      pop\n        /* \"#utility.yul\":8975:9341   */\n      swap2\n      swap1\n      pop\n      jump\t// out\n        /* \"#utility.yul\":9347:9766   */\n    tag_145:\n        /* \"#utility.yul\":9513:9517   */\n      0x00\n        /* \"#utility.yul\":9551:9553   */\n      0x20\n        /* \"#utility.yul\":9540:9549   */\n      dup3\n        /* \"#utility.yul\":9536:9554   */\n      add\n        /* \"#utility.yul\":9528:9554   */\n      swap1\n      pop\n        /* \"#utility.yul\":9600:9609   */\n      dup2\n        /* \"#utility.yul\":9594:9598   */\n      dup2\n        /* \"#utility.yul\":9590:9610   */\n      sub\n        /* \"#utility.yul\":9586:9587   */\n      0x00\n        /* \"#utility.yul\":9575:9584   */\n      dup4\n        /* \"#utility.yul\":9571:9588   */\n      add\n        /* \"#utility.yul\":9564:9611   */\n      mstore\n        /* \"#utility.yul\":9628:9759   */\n      tag_509\n        /* \"#utility.yul\":9754:9758   */\n      dup2\n        /* \"#utility.yul\":9628:9759   */\n      tag_352\n      jump\t// in\n    tag_509:\n        /* \"#utility.yul\":9620:9759   */\n      swap1\n      pop\n        /* \"#utility.yul\":9347:9766   */\n      swap2\n      swap1\n      pop\n      jump\t// out\n        /* \"#utility.yul\":9772:9951   */\n    tag_353:\n        /* \"#utility.yul\":9912:9943   */\n      0x41756374696f6e206461797320617265206e6f7420636f6d706c657465000000\n        /* \"#utility.yul\":9908:9909   */\n      0x00\n        /* \"#utility.yul\":9900:9906   */\n      dup3\n        /* \"#utility.yul\":9896:9910   */\n      add\n        /* \"#utility.yul\":9889:9944   */\n      mstore\n        /* \"#utility.yul\":9772:9951   */\n      pop\n      jump\t// out\n        /* \"#utility.yul\":9957:10323   */\n    tag_354:\n        /* \"#utility.yul\":10099:10102   */\n      0x00\n        /* \"#utility.yul\":10120:10187   */\n      tag_512\n        /* \"#utility.yul\":10184:10186   */\n      0x1d\n        /* \"#utility.yul\":10179:10182   */\n      dup4\n        /* \"#utility.yul\":10120:10187   */\n      tag_350\n      jump\t// in\n    tag_512:\n        /* \"#utility.yul\":10113:10187   */\n      swap2\n      pop\n        /* \"#utility.yul\":10196:10289   */\n      tag_513\n        /* \"#utility.yul\":10285:10288   */\n      dup3\n        /* \"#utility.yul\":10196:10289   */\n      tag_353\n      jump\t// in\n    tag_513:\n        /* \"#utility.yul\":10314:10316   */\n      0x20\n        /* \"#utility.yul\":10309:10312   */\n      dup3\n        /* \"#utility.yul\":10305:10317   */\n      add\n        /* \"#utility.yul\":10298:10317   */\n      swap1\n      pop\n        /* \"#utility.yul\":9957:10323   */\n      swap2\n      swap1\n      pop\n      jump\t// out\n        /* \"#utility.yul\":10329:10748   */\n    tag_148:\n        /* \"#utility.yul\":10495:10499   */\n      0x00\n        /* \"#utility.yul\":10533:10535   */\n      0x20\n        /* \"#utility.yul\":10522:10531   */\n      dup3\n        /* \"#utility.yul\":10518:10536   */\n      add\n        /* \"#utility.yul\":10510:10536   */\n      swap1\n      pop\n        /* \"#utility.yul\":10582:10591   */\n      dup2\n        /* \"#utility.yul\":10576:10580   */\n      dup2\n        /* \"#utility.yul\":10572:10592   */\n      sub\n        /* \"#utility.yul\":10568:10569   */\n      0x00\n        /* \"#utility.yul\":10557:10566   */\n      dup4\n        /* \"#utility.yul\":10553:10570   */\n      add\n        /* \"#utility.yul\":10546:10593   */\n      mstore\n        /* \"#utility.yul\":10610:10741   */\n      tag_515\n        /* \"#utility.yul\":10736:10740   */\n      dup2\n        /* \"#utility.yul\":10610:10741   */\n      tag_354\n      jump\t// in\n    tag_515:\n        /* \"#utility.yul\":10602:10741   */\n      swap1\n      pop\n        /* \"#utility.yul\":10329:10748   */\n      swap2\n      swap1\n      pop\n      jump\t// out\n        /* \"#utility.yul\":10754:10919   */\n    tag_355:\n        /* \"#utility.yul\":10894:10911   */\n      0x496e636f72726563742076616c75650000000000000000000000000000000000\n        /* \"#utility.yul\":10890:10891   */\n      0x00\n        /* \"#utility.yul\":10882:10888   */\n      dup3\n        /* \"#utility.yul\":10878:10892   */\n      add\n        /* \"#utility.yul\":10871:10912   */\n      mstore\n        /* \"#utility.yul\":10754:10919   */\n      pop\n      jump\t// out\n        /* \"#utility.yul\":10925:11291   */\n    tag_356:\n        /* \"#utility.yul\":11067:11070   */\n      0x00\n        /* \"#utility.yul\":11088:11155   */\n      tag_518\n        /* \"#utility.yul\":11152:11154   */\n      0x0f\n        /* \"#utility.yul\":11147:11150   */\n      dup4\n        /* \"#utility.yul\":11088:11155   */\n      tag_350\n      jump\t// in\n    tag_518:\n        /* \"#utility.yul\":11081:11155   */\n      swap2\n      pop\n        /* \"#utility.yul\":11164:11257   */\n      tag_519\n        /* \"#utility.yul\":11253:11256   */\n      dup3\n        /* \"#utility.yul\":11164:11257   */\n      tag_355\n      jump\t// in\n    tag_519:\n        /* \"#utility.yul\":11282:11284   */\n      0x20\n        /* \"#utility.yul\":11277:11280   */\n      dup3\n        /* \"#utility.yul\":11273:11285   */\n      add\n        /* \"#utility.yul\":11266:11285   */\n      swap1\n      pop\n        /* \"#utility.yul\":10925:11291   */\n      swap2\n      swap1\n      pop\n      jump\t// out\n        /* \"#utility.yul\":11297:11716   */\n    tag_153:\n        /* \"#utility.yul\":11463:11467   */\n      0x00\n        /* \"#utility.yul\":11501:11503   */\n      0x20\n        /* \"#utility.yul\":11490:11499   */\n      dup3\n        /* \"#utility.yul\":11486:11504   */\n      add\n        /* \"#utility.yul\":11478:11504   */\n      swap1\n      pop\n        /* \"#utility.yul\":11550:11559   */\n      dup2\n        /* \"#utility.yul\":11544:11548   */\n      dup2\n        /* \"#utility.yul\":11540:11560   */\n      sub\n        /* \"#utility.yul\":11536:11537   */\n      0x00\n        /* \"#utility.yul\":11525:11534   */\n      dup4\n        /* \"#utility.yul\":11521:11538   */\n      add\n        /* \"#utility.yul\":11514:11561   */\n      mstore\n        /* \"#utility.yul\":11578:11709   */\n      tag_521\n        /* \"#utility.yul\":11704:11708   */\n      dup2\n        /* \"#utility.yul\":11578:11709   */\n      tag_356\n      jump\t// in\n    tag_521:\n        /* \"#utility.yul\":11570:11709   */\n      swap1\n      pop\n        /* \"#utility.yul\":11297:11716   */\n      swap2\n      swap1\n      pop\n      jump\t// out\n        /* \"#utility.yul\":11722:11902   */\n    tag_357:\n        /* \"#utility.yul\":11770:11847   */\n      0x4e487b7100000000000000000000000000000000000000000000000000000000\n        /* \"#utility.yul\":11767:11768   */\n      0x00\n        /* \"#utility.yul\":11760:11848   */\n      mstore\n        /* \"#utility.yul\":11867:11871   */\n      0x11\n        /* \"#utility.yul\":11864:11865   */\n      0x04\n        /* \"#utility.yul\":11857:11872   */\n      mstore\n        /* \"#utility.yul\":11891:11895   */\n      0x24\n        /* \"#utility.yul\":11888:11889   */\n      0x00\n        /* \"#utility.yul\":11881:11896   */\n      revert\n        /* \"#utility.yul\":11908:12102   */\n    tag_155:\n        /* \"#utility.yul\":11948:11952   */\n      0x00\n        /* \"#utility.yul\":11968:11988   */\n      tag_524\n        /* \"#utility.yul\":11986:11987   */\n      dup3\n        /* \"#utility.yul\":11968:11988   */\n      tag_331\n      jump\t// in\n    tag_524:\n        /* \"#utility.yul\":11963:11988   */\n      swap2\n      pop\n        /* \"#utility.yul\":12002:12022   */\n      tag_525\n        /* \"#utility.yul\":12020:12021   */\n      dup4\n        /* \"#utility.yul\":12002:12022   */\n      tag_331\n      jump\t// in\n    tag_525:\n        /* \"#utility.yul\":11997:12022   */\n      swap3\n      pop\n        /* \"#utility.yul\":12046:12047   */\n      dup3\n        /* \"#utility.yul\":12043:12044   */\n      dup3\n        /* \"#utility.yul\":12039:12048   */\n      sub\n        /* \"#utility.yul\":12031:12048   */\n      swap1\n      pop\n        /* \"#utility.yul\":12070:12071   */\n      dup2\n        /* \"#utility.yul\":12064:12068   */\n      dup2\n        /* \"#utility.yul\":12061:12072   */\n      gt\n        /* \"#utility.yul\":12058:12095   */\n      iszero\n      tag_526\n      jumpi\n        /* \"#utility.yul\":12075:12093   */\n      tag_527\n      tag_357\n      jump\t// in\n    tag_527:\n        /* \"#utility.yul\":12058:12095   */\n    tag_526:\n        /* \"#utility.yul\":11908:12102   */\n      swap3\n      swap2\n      pop\n      pop\n      jump\t// out\n        /* \"#utility.yul\":12108:12440   */\n    tag_157:\n        /* \"#utility.yul\":12229:12233   */\n      0x00\n        /* \"#utility.yul\":12267:12269   */\n      0x40\n        /* \"#utility.yul\":12256:12265   */\n      dup3\n        /* \"#utility.yul\":12252:12270   */\n      add\n        /* \"#utility.yul\":12244:12270   */\n      swap1\n      pop\n        /* \"#utility.yul\":12280:12351   */\n      tag_529\n        /* \"#utility.yul\":12348:12349   */\n      0x00\n        /* \"#utility.yul\":12337:12346   */\n      dup4\n        /* \"#utility.yul\":12333:12350   */\n      add\n        /* \"#utility.yul\":12324:12330   */\n      dup6\n        /* \"#utility.yul\":12280:12351   */\n      tag_336\n      jump\t// in\n    tag_529:\n        /* \"#utility.yul\":12361:12433   */\n      tag_530\n        /* \"#utility.yul\":12429:12431   */\n      0x20\n        /* \"#utility.yul\":12418:12427   */\n      dup4\n        /* \"#utility.yul\":12414:12432   */\n      add\n        /* \"#utility.yul\":12405:12411   */\n      dup5\n        /* \"#utility.yul\":12361:12433   */\n      tag_337\n      jump\t// in\n    tag_530:\n        /* \"#utility.yul\":12108:12440   */\n      swap4\n      swap3\n      pop\n      pop\n      pop\n      jump\t// out\n        /* \"#utility.yul\":12446:12583   */\n    tag_358:\n        /* \"#utility.yul\":12500:12505   */\n      0x00\n        /* \"#utility.yul\":12531:12537   */\n      dup2\n        /* \"#utility.yul\":12525:12538   */\n      mload\n        /* \"#utility.yul\":12516:12538   */\n      swap1\n      pop\n        /* \"#utility.yul\":12547:12577   */\n      tag_532\n        /* \"#utility.yul\":12571:12576   */\n      dup2\n        /* \"#utility.yul\":12547:12577   */\n      tag_338\n      jump\t// in\n    tag_532:\n        /* \"#utility.yul\":12446:12583   */\n      swap3\n      swap2\n      pop\n      pop\n      jump\t// out\n        /* \"#utility.yul\":12589:12934   */\n    tag_161:\n        /* \"#utility.yul\":12656:12662   */\n      0x00\n        /* \"#utility.yul\":12705:12707   */\n      0x20\n        /* \"#utility.yul\":12693:12702   */\n      dup3\n        /* \"#utility.yul\":12684:12691   */\n      dup5\n        /* \"#utility.yul\":12680:12703   */\n      sub\n        /* \"#utility.yul\":12676:12708   */\n      slt\n        /* \"#utility.yul\":12673:12792   */\n      iszero\n      tag_534\n      jumpi\n        /* \"#utility.yul\":12711:12790   */\n      tag_535\n      tag_325\n      jump\t// in\n    tag_535:\n        /* \"#utility.yul\":12673:12792   */\n    tag_534:\n        /* \"#utility.yul\":12831:12832   */\n      0x00\n        /* \"#utility.yul\":12856:12917   */\n      tag_536\n        /* \"#utility.yul\":12909:12916   */\n      dup5\n        /* \"#utility.yul\":12900:12906   */\n      dup3\n        /* \"#utility.yul\":12889:12898   */\n      dup6\n        /* \"#utility.yul\":12885:12907   */\n      add\n        /* \"#utility.yul\":12856:12917   */\n      tag_358\n      jump\t// in\n    tag_536:\n        /* \"#utility.yul\":12846:12917   */\n      swap2\n      pop\n        /* \"#utility.yul\":12802:12927   */\n      pop\n        /* \"#utility.yul\":12589:12934   */\n      swap3\n      swap2\n      pop\n      pop\n      jump\t// out\n        /* \"#utility.yul\":12940:13118   */\n    tag_359:\n        /* \"#utility.yul\":13080:13110   */\n      0x50726f746f6e20746f6b656e207472616e73666572206661696c656400000000\n        /* \"#utility.yul\":13076:13077   */\n      0x00\n        /* \"#utility.yul\":13068:13074   */\n      dup3\n        /* \"#utility.yul\":13064:13078   */\n      add\n        /* \"#utility.yul\":13057:13111   */\n      mstore\n        /* \"#utility.yul\":12940:13118   */\n      pop\n      jump\t// out\n        /* \"#utility.yul\":13124:13490   */\n    tag_360:\n        /* \"#utility.yul\":13266:13269   */\n      0x00\n        /* \"#utility.yul\":13287:13354   */\n      tag_539\n        /* \"#utility.yul\":13351:13353   */\n      0x1c\n        /* \"#utility.yul\":13346:13349   */\n      dup4\n        /* \"#utility.yul\":13287:13354   */\n      tag_350\n      jump\t// in\n    tag_539:\n        /* \"#utility.yul\":13280:13354   */\n      swap2\n      pop\n        /* \"#utility.yul\":13363:13456   */\n      tag_540\n        /* \"#utility.yul\":13452:13455   */\n      dup3\n        /* \"#utility.yul\":13363:13456   */\n      tag_359\n      jump\t// in\n    tag_540:\n        /* \"#utility.yul\":13481:13483   */\n      0x20\n        /* \"#utility.yul\":13476:13479   */\n      dup3\n        /* \"#utility.yul\":13472:13484   */\n      add\n        /* \"#utility.yul\":13465:13484   */\n      swap1\n      pop\n        /* \"#utility.yul\":13124:13490   */\n      swap2\n      swap1\n      pop\n      jump\t// out\n        /* \"#utility.yul\":13496:13915   */\n    tag_164:\n        /* \"#utility.yul\":13662:13666   */\n      0x00\n        /* \"#utility.yul\":13700:13702   */\n      0x20\n        /* \"#utility.yul\":13689:13698   */\n      dup3\n        /* \"#utility.yul\":13685:13703   */\n      add\n        /* \"#utility.yul\":13677:13703   */\n      swap1\n      pop\n        /* \"#utility.yul\":13749:13758   */\n      dup2\n        /* \"#utility.yul\":13743:13747   */\n      dup2\n        /* \"#utility.yul\":13739:13759   */\n      sub\n        /* \"#utility.yul\":13735:13736   */\n      0x00\n        /* \"#utility.yul\":13724:13733   */\n      dup4\n        /* \"#utility.yul\":13720:13737   */\n      add\n        /* \"#utility.yul\":13713:13760   */\n      mstore\n        /* \"#utility.yul\":13777:13908   */\n      tag_542\n        /* \"#utility.yul\":13903:13907   */\n      dup2\n        /* \"#utility.yul\":13777:13908   */\n      tag_360\n      jump\t// in\n    tag_542:\n        /* \"#utility.yul\":13769:13908   */\n      swap1\n      pop\n        /* \"#utility.yul\":13496:13915   */\n      swap2\n      swap1\n      pop\n      jump\t// out\n        /* \"#utility.yul\":13921:14087   */\n    tag_361:\n        /* \"#utility.yul\":14061:14079   */\n      0x4552524f523a204441592076616c756500000000000000000000000000000000\n        /* \"#utility.yul\":14057:14058   */\n      0x00\n        /* \"#utility.yul\":14049:14055   */\n      dup3\n        /* \"#utility.yul\":14045:14059   */\n      add\n        /* \"#utility.yul\":14038:14080   */\n      mstore\n        /* \"#utility.yul\":13921:14087   */\n      pop\n      jump\t// out\n        /* \"#utility.yul\":14093:14459   */\n    tag_362:\n        /* \"#utility.yul\":14235:14238   */\n      0x00\n        /* \"#utility.yul\":14256:14323   */\n      tag_545\n        /* \"#utility.yul\":14320:14322   */\n      0x10\n        /* \"#utility.yul\":14315:14318   */\n      dup4\n        /* \"#utility.yul\":14256:14323   */\n      tag_350\n      jump\t// in\n    tag_545:\n        /* \"#utility.yul\":14249:14323   */\n      swap2\n      pop\n        /* \"#utility.yul\":14332:14425   */\n      tag_546\n        /* \"#utility.yul\":14421:14424   */\n      dup3\n        /* \"#utility.yul\":14332:14425   */\n      tag_361\n      jump\t// in\n    tag_546:\n        /* \"#utility.yul\":14450:14452   */\n      0x20\n        /* \"#utility.yul\":14445:14448   */\n      dup3\n        /* \"#utility.yul\":14441:14453   */\n      add\n        /* \"#utility.yul\":14434:14453   */\n      swap1\n      pop\n        /* \"#utility.yul\":14093:14459   */\n      swap2\n      swap1\n      pop\n      jump\t// out\n        /* \"#utility.yul\":14465:14884   */\n    tag_172:\n        /* \"#utility.yul\":14631:14635   */\n      0x00\n        /* \"#utility.yul\":14669:14671   */\n      0x20\n        /* \"#utility.yul\":14658:14667   */\n      dup3\n        /* \"#utility.yul\":14654:14672   */\n      add\n        /* \"#utility.yul\":14646:14672   */\n      swap1\n      pop\n        /* \"#utility.yul\":14718:14727   */\n      dup2\n        /* \"#utility.yul\":14712:14716   */\n      dup2\n        /* \"#utility.yul\":14708:14728   */\n      sub\n        /* \"#utility.yul\":14704:14705   */\n      0x00\n        /* \"#utility.yul\":14693:14702   */\n      dup4\n        /* \"#utility.yul\":14689:14706   */\n      add\n        /* \"#utility.yul\":14682:14729   */\n      mstore\n        /* \"#utility.yul\":14746:14877   */\n      tag_548\n        /* \"#utility.yul\":14872:14876   */\n      dup2\n        /* \"#utility.yul\":14746:14877   */\n      tag_362\n      jump\t// in\n    tag_548:\n        /* \"#utility.yul\":14738:14877   */\n      swap1\n      pop\n        /* \"#utility.yul\":14465:14884   */\n      swap2\n      swap1\n      pop\n      jump\t// out\n        /* \"#utility.yul\":14890:15070   */\n    tag_363:\n        /* \"#utility.yul\":14938:15015   */\n      0x4e487b7100000000000000000000000000000000000000000000000000000000\n        /* \"#utility.yul\":14935:14936   */\n      0x00\n        /* \"#utility.yul\":14928:15016   */\n      mstore\n        /* \"#utility.yul\":15035:15039   */\n      0x12\n        /* \"#utility.yul\":15032:15033   */\n      0x04\n        /* \"#utility.yul\":15025:15040   */\n      mstore\n        /* \"#utility.yul\":15059:15063   */\n      0x24\n        /* \"#utility.yul\":15056:15057   */\n      0x00\n        /* \"#utility.yul\":15049:15064   */\n      revert\n        /* \"#utility.yul\":15076:15261   */\n    tag_181:\n        /* \"#utility.yul\":15116:15117   */\n      0x00\n        /* \"#utility.yul\":15133:15153   */\n      tag_551\n        /* \"#utility.yul\":15151:15152   */\n      dup3\n        /* \"#utility.yul\":15133:15153   */\n      tag_331\n      jump\t// in\n    tag_551:\n        /* \"#utility.yul\":15128:15153   */\n      swap2\n      pop\n        /* \"#utility.yul\":15167:15187   */\n      tag_552\n        /* \"#utility.yul\":15185:15186   */\n      dup4\n        /* \"#utility.yul\":15167:15187   */\n      tag_331\n      jump\t// in\n    tag_552:\n        /* \"#utility.yul\":15162:15187   */\n      swap3\n      pop\n        /* \"#utility.yul\":15206:15207   */\n      dup3\n        /* \"#utility.yul\":15196:15231   */\n      tag_553\n      jumpi\n        /* \"#utility.yul\":15211:15229   */\n      tag_554\n      tag_363\n      jump\t// in\n    tag_554:\n        /* \"#utility.yul\":15196:15231   */\n    tag_553:\n        /* \"#utility.yul\":15253:15254   */\n      dup3\n        /* \"#utility.yul\":15250:15251   */\n      dup3\n        /* \"#utility.yul\":15246:15255   */\n      div\n        /* \"#utility.yul\":15241:15255   */\n      swap1\n      pop\n        /* \"#utility.yul\":15076:15261   */\n      swap3\n      swap2\n      pop\n      pop\n      jump\t// out\n        /* \"#utility.yul\":15267:15458   */\n    tag_183:\n        /* \"#utility.yul\":15307:15310   */\n      0x00\n        /* \"#utility.yul\":15326:15346   */\n      tag_556\n        /* \"#utility.yul\":15344:15345   */\n      dup3\n        /* \"#utility.yul\":15326:15346   */\n      tag_331\n      jump\t// in\n    tag_556:\n        /* \"#utility.yul\":15321:15346   */\n      swap2\n      pop\n        /* \"#utility.yul\":15360:15380   */\n      tag_557\n        /* \"#utility.yul\":15378:15379   */\n      dup4\n        /* \"#utility.yul\":15360:15380   */\n      tag_331\n      jump\t// in\n    tag_557:\n        /* \"#utility.yul\":15355:15380   */\n      swap3\n      pop\n        /* \"#utility.yul\":15403:15404   */\n      dup3\n        /* \"#utility.yul\":15400:15401   */\n      dup3\n        /* \"#utility.yul\":15396:15405   */\n      add\n        /* \"#utility.yul\":15389:15405   */\n      swap1\n      pop\n        /* \"#utility.yul\":15424:15427   */\n      dup1\n        /* \"#utility.yul\":15421:15422   */\n      dup3\n        /* \"#utility.yul\":15418:15428   */\n      gt\n        /* \"#utility.yul\":15415:15451   */\n      iszero\n      tag_558\n      jumpi\n        /* \"#utility.yul\":15431:15449   */\n      tag_559\n      tag_357\n      jump\t// in\n    tag_559:\n        /* \"#utility.yul\":15415:15451   */\n    tag_558:\n        /* \"#utility.yul\":15267:15458   */\n      swap3\n      swap2\n      pop\n      pop\n      jump\t// out\n        /* \"#utility.yul\":15464:15637   */\n    tag_364:\n        /* \"#utility.yul\":15604:15629   */\n      0x41756374696f6e20616c72656164792073746172746564000000000000000000\n        /* \"#utility.yul\":15600:15601   */\n      0x00\n        /* \"#utility.yul\":15592:15598   */\n      dup3\n        /* \"#utility.yul\":15588:15602   */\n      add\n        /* \"#utility.yul\":15581:15630   */\n      mstore\n        /* \"#utility.yul\":15464:15637   */\n      pop\n      jump\t// out\n        /* \"#utility.yul\":15643:16009   */\n    tag_365:\n        /* \"#utility.yul\":15785:15788   */\n      0x00\n        /* \"#utility.yul\":15806:15873   */\n      tag_562\n        /* \"#utility.yul\":15870:15872   */\n      0x17\n        /* \"#utility.yul\":15865:15868   */\n      dup4\n        /* \"#utility.yul\":15806:15873   */\n      tag_350\n      jump\t// in\n    tag_562:\n        /* \"#utility.yul\":15799:15873   */\n      swap2\n      pop\n        /* \"#utility.yul\":15882:15975   */\n      tag_563\n        /* \"#utility.yul\":15971:15974   */\n      dup3\n        /* \"#utility.yul\":15882:15975   */\n      tag_364\n      jump\t// in\n    tag_563:\n        /* \"#utility.yul\":16000:16002   */\n      0x20\n        /* \"#utility.yul\":15995:15998   */\n      dup3\n        /* \"#utility.yul\":15991:16003   */\n      add\n        /* \"#utility.yul\":15984:16003   */\n      swap1\n      pop\n        /* \"#utility.yul\":15643:16009   */\n      swap2\n      swap1\n      pop\n      jump\t// out\n        /* \"#utility.yul\":16015:16434   */\n    tag_194:\n        /* \"#utility.yul\":16181:16185   */\n      0x00\n        /* \"#utility.yul\":16219:16221   */\n      0x20\n        /* \"#utility.yul\":16208:16217   */\n      dup3\n        /* \"#utility.yul\":16204:16222   */\n      add\n        /* \"#utility.yul\":16196:16222   */\n      swap1\n      pop\n        /* \"#utility.yul\":16268:16277   */\n      dup2\n        /* \"#utility.yul\":16262:16266   */\n      dup2\n        /* \"#utility.yul\":16258:16278   */\n      sub\n        /* \"#utility.yul\":16254:16255   */\n      0x00\n        /* \"#utility.yul\":16243:16252   */\n      dup4\n        /* \"#utility.yul\":16239:16256   */\n      add\n        /* \"#utility.yul\":16232:16279   */\n      mstore\n        /* \"#utility.yul\":16296:16427   */\n      tag_565\n        /* \"#utility.yul\":16422:16426   */\n      dup2\n        /* \"#utility.yul\":16296:16427   */\n      tag_365\n      jump\t// in\n    tag_565:\n        /* \"#utility.yul\":16288:16427   */\n      swap1\n      pop\n        /* \"#utility.yul\":16015:16434   */\n      swap2\n      swap1\n      pop\n      jump\t// out\n        /* \"#utility.yul\":16440:16673   */\n    tag_204:\n        /* \"#utility.yul\":16479:16482   */\n      0x00\n        /* \"#utility.yul\":16502:16526   */\n      tag_567\n        /* \"#utility.yul\":16520:16525   */\n      dup3\n        /* \"#utility.yul\":16502:16526   */\n      tag_331\n      jump\t// in\n    tag_567:\n        /* \"#utility.yul\":16493:16526   */\n      swap2\n      pop\n        /* \"#utility.yul\":16548:16614   */\n      0xffffffffffffffffffffffffffffffffffffffffffffffffffffffffffffffff\n        /* \"#utility.yul\":16541:16546   */\n      dup3\n        /* \"#utility.yul\":16538:16615   */\n      sub\n        /* \"#utility.yul\":16535:16638   */\n      tag_568\n      jumpi\n        /* \"#utility.yul\":16618:16636   */\n      tag_569\n      tag_357\n      jump\t// in\n    tag_569:\n        /* \"#utility.yul\":16535:16638   */\n    tag_568:\n        /* \"#utility.yul\":16665:16666   */\n      0x01\n        /* \"#utility.yul\":16658:16663   */\n      dup3\n        /* \"#utility.yul\":16654:16667   */\n      add\n        /* \"#utility.yul\":16647:16667   */\n      swap1\n      pop\n        /* \"#utility.yul\":16440:16673   */\n      swap2\n      swap1\n      pop\n      jump\t// out\n        /* \"#utility.yul\":16679:17089   */\n    tag_219:\n        /* \"#utility.yul\":16719:16726   */\n      0x00\n        /* \"#utility.yul\":16742:16762   */\n      tag_571\n        /* \"#utility.yul\":16760:16761   */\n      dup3\n        /* \"#utility.yul\":16742:16762   */\n      tag_331\n      jump\t// in\n    tag_571:\n        /* \"#utility.yul\":16737:16762   */\n      swap2\n      pop\n        /* \"#utility.yul\":16776:16796   */\n      tag_572\n        /* \"#utility.yul\":16794:16795   */\n      dup4\n        /* \"#utility.yul\":16776:16796   */\n      tag_331\n      jump\t// in\n    tag_572:\n        /* \"#utility.yul\":16771:16796   */\n      swap3\n      pop\n        /* \"#utility.yul\":16831:16832   */\n      dup3\n        /* \"#utility.yul\":16828:16829   */\n      dup3\n        /* \"#utility.yul\":16824:16833   */\n      mul\n        /* \"#utility.yul\":16853:16883   */\n      tag_573\n        /* \"#utility.yul\":16871:16882   */\n      dup2\n        /* \"#utility.yul\":16853:16883   */\n      tag_331\n      jump\t// in\n    tag_573:\n        /* \"#utility.yul\":16842:16883   */\n      swap2\n      pop\n        /* \"#utility.yul\":17032:17033   */\n      dup3\n        /* \"#utility.yul\":17023:17030   */\n      dup3\n        /* \"#utility.yul\":17019:17034   */\n      div\n        /* \"#utility.yul\":17016:17017   */\n      dup5\n        /* \"#utility.yul\":17013:17035   */\n      eq\n        /* \"#utility.yul\":16993:16994   */\n      dup4\n        /* \"#utility.yul\":16986:16995   */\n      iszero\n        /* \"#utility.yul\":16966:17049   */\n      or\n        /* \"#utility.yul\":16943:17082   */\n      tag_574\n      jumpi\n        /* \"#utility.yul\":17062:17080   */\n      tag_575\n      tag_357\n      jump\t// in\n    tag_575:\n        /* \"#utility.yul\":16943:17082   */\n    tag_574:\n        /* \"#utility.yul\":16727:17089   */\n      pop\n        /* \"#utility.yul\":16679:17089   */\n      swap3\n      swap2\n      pop\n      pop\n      jump\t// out\n        /* \"#utility.yul\":17095:17262   */\n    tag_366:\n        /* \"#utility.yul\":17235:17254   */\n      0x41756374696f6e20697320706175736564000000000000000000000000000000\n        /* \"#utility.yul\":17231:17232   */\n      0x00\n        /* \"#utility.yul\":17223:17229   */\n      dup3\n        /* \"#utility.yul\":17219:17233   */\n      add\n        /* \"#utility.yul\":17212:17255   */\n      mstore\n        /* \"#utility.yul\":17095:17262   */\n      pop\n      jump\t// out\n        /* \"#utility.yul\":17268:17634   */\n    tag_367:\n        /* \"#utility.yul\":17410:17413   */\n      0x00\n        /* \"#utility.yul\":17431:17498   */\n      tag_578\n        /* \"#utility.yul\":17495:17497   */\n      0x11\n        /* \"#utility.yul\":17490:17493   */\n      dup4\n        /* \"#utility.yul\":17431:17498   */\n      tag_350\n      jump\t// in\n    tag_578:\n        /* \"#utility.yul\":17424:17498   */\n      swap2\n      pop\n        /* \"#utility.yul\":17507:17600   */\n      tag_579\n        /* \"#utility.yul\":17596:17599   */\n      dup3\n        /* \"#utility.yul\":17507:17600   */\n      tag_366\n      jump\t// in\n    tag_579:\n        /* \"#utility.yul\":17625:17627   */\n      0x20\n        /* \"#utility.yul\":17620:17623   */\n      dup3\n        /* \"#utility.yul\":17616:17628   */\n      add\n        /* \"#utility.yul\":17609:17628   */\n      swap1\n      pop\n        /* \"#utility.yul\":17268:17634   */\n      swap2\n      swap1\n      pop\n      jump\t// out\n        /* \"#utility.yul\":17640:18059   */\n    tag_224:\n        /* \"#utility.yul\":17806:17810   */\n      0x00\n        /* \"#utility.yul\":17844:17846   */\n      0x20\n        /* \"#utility.yul\":17833:17842   */\n      dup3\n        /* \"#utility.yul\":17829:17847   */\n      add\n        /* \"#utility.yul\":17821:17847   */\n      swap1\n      pop\n        /* \"#utility.yul\":17893:17902   */\n      dup2\n        /* \"#utility.yul\":17887:17891   */\n      dup2\n        /* \"#utility.yul\":17883:17903   */\n      sub\n        /* \"#utility.yul\":17879:17880   */\n      0x00\n        /* \"#utility.yul\":17868:17877   */\n      dup4\n        /* \"#utility.yul\":17864:17881   */\n      add\n        /* \"#utility.yul\":17857:17904   */\n      mstore\n        /* \"#utility.yul\":17921:18052   */\n      tag_581\n        /* \"#utility.yul\":18047:18051   */\n      dup2\n        /* \"#utility.yul\":17921:18052   */\n      tag_367\n      jump\t// in\n    tag_581:\n        /* \"#utility.yul\":17913:18052   */\n      swap1\n      pop\n        /* \"#utility.yul\":17640:18059   */\n      swap2\n      swap1\n      pop\n      jump\t// out\n        /* \"#utility.yul\":18065:18238   */\n    tag_368:\n        /* \"#utility.yul\":18205:18230   */\n      0x43757272656e7420726f756e642068617320656e646564000000000000000000\n        /* \"#utility.yul\":18201:18202   */\n      0x00\n        /* \"#utility.yul\":18193:18199   */\n      dup3\n        /* \"#utility.yul\":18189:18203   */\n      add\n        /* \"#utility.yul\":18182:18231   */\n      mstore\n        /* \"#utility.yul\":18065:18238   */\n      pop\n      jump\t// out\n        /* \"#utility.yul\":18244:18610   */\n    tag_369:\n        /* \"#utility.yul\":18386:18389   */\n      0x00\n        /* \"#utility.yul\":18407:18474   */\n      tag_584\n        /* \"#utility.yul\":18471:18473   */\n      0x17\n        /* \"#utility.yul\":18466:18469   */\n      dup4\n        /* \"#utility.yul\":18407:18474   */\n      tag_350\n      jump\t// in\n    tag_584:\n        /* \"#utility.yul\":18400:18474   */\n      swap2\n      pop\n        /* \"#utility.yul\":18483:18576   */\n      tag_585\n        /* \"#utility.yul\":18572:18575   */\n      dup3\n        /* \"#utility.yul\":18483:18576   */\n      tag_368\n      jump\t// in\n    tag_585:\n        /* \"#utility.yul\":18601:18603   */\n      0x20\n        /* \"#utility.yul\":18596:18599   */\n      dup3\n        /* \"#utility.yul\":18592:18604   */\n      add\n        /* \"#utility.yul\":18585:18604   */\n      swap1\n      pop\n        /* \"#utility.yul\":18244:18610   */\n      swap2\n      swap1\n      pop\n      jump\t// out\n        /* \"#utility.yul\":18616:19035   */\n    tag_227:\n        /* \"#utility.yul\":18782:18786   */\n      0x00\n        /* \"#utility.yul\":18820:18822   */\n      0x20\n        /* \"#utility.yul\":18809:18818   */\n      dup3\n        /* \"#utility.yul\":18805:18823   */\n      add\n        /* \"#utility.yul\":18797:18823   */\n      swap1\n      pop\n        /* \"#utility.yul\":18869:18878   */\n      dup2\n        /* \"#utility.yul\":18863:18867   */\n      dup2\n        /* \"#utility.yul\":18859:18879   */\n      sub\n        /* \"#utility.yul\":18855:18856   */\n      0x00\n        /* \"#utility.yul\":18844:18853   */\n      dup4\n        /* \"#utility.yul\":18840:18857   */\n      add\n        /* \"#utility.yul\":18833:18880   */\n      mstore\n        /* \"#utility.yul\":18897:19028   */\n      tag_587\n        /* \"#utility.yul\":19023:19027   */\n      dup2\n        /* \"#utility.yul\":18897:19028   */\n      tag_369\n      jump\t// in\n    tag_587:\n        /* \"#utility.yul\":18889:19028   */\n      swap1\n      pop\n        /* \"#utility.yul\":18616:19035   */\n      swap2\n      swap1\n      pop\n      jump\t// out\n        /* \"#utility.yul\":19041:19216   */\n    tag_370:\n        /* \"#utility.yul\":19181:19208   */\n      0x41756374696f6e20646179732061726520636f6d706c65746500000000000000\n        /* \"#utility.yul\":19177:19178   */\n      0x00\n        /* \"#utility.yul\":19169:19175   */\n      dup3\n        /* \"#utility.yul\":19165:19179   */\n      add\n        /* \"#utility.yul\":19158:19209   */\n      mstore\n        /* \"#utility.yul\":19041:19216   */\n      pop\n      jump\t// out\n        /* \"#utility.yul\":19222:19588   */\n    tag_371:\n        /* \"#utility.yul\":19364:19367   */\n      0x00\n        /* \"#utility.yul\":19385:19452   */\n      tag_590\n        /* \"#utility.yul\":19449:19451   */\n      0x19\n        /* \"#utility.yul\":19444:19447   */\n      dup4\n        /* \"#utility.yul\":19385:19452   */\n      tag_350\n      jump\t// in\n    tag_590:\n        /* \"#utility.yul\":19378:19452   */\n      swap2\n      pop\n        /* \"#utility.yul\":19461:19554   */\n      tag_591\n        /* \"#utility.yul\":19550:19553   */\n      dup3\n        /* \"#utility.yul\":19461:19554   */\n      tag_370\n      jump\t// in\n    tag_591:\n        /* \"#utility.yul\":19579:19581   */\n      0x20\n        /* \"#utility.yul\":19574:19577   */\n      dup3\n        /* \"#utility.yul\":19570:19582   */\n      add\n        /* \"#utility.yul\":19563:19582   */\n      swap1\n      pop\n        /* \"#utility.yul\":19222:19588   */\n      swap2\n      swap1\n      pop\n      jump\t// out\n        /* \"#utility.yul\":19594:20013   */\n    tag_232:\n        /* \"#utility.yul\":19760:19764   */\n      0x00\n        /* \"#utility.yul\":19798:19800   */\n      0x20\n        /* \"#utility.yul\":19787:19796   */\n      dup3\n        /* \"#utility.yul\":19783:19801   */\n      add\n        /* \"#utility.yul\":19775:19801   */\n      swap1\n      pop\n        /* \"#utility.yul\":19847:19856   */\n      dup2\n        /* \"#utility.yul\":19841:19845   */\n      dup2\n        /* \"#utility.yul\":19837:19857   */\n      sub\n        /* \"#utility.yul\":19833:19834   */\n      0x00\n        /* \"#utility.yul\":19822:19831   */\n      dup4\n        /* \"#utility.yul\":19818:19835   */\n      add\n        /* \"#utility.yul\":19811:19858   */\n      mstore\n        /* \"#utility.yul\":19875:20006   */\n      tag_593\n        /* \"#utility.yul\":20001:20005   */\n      dup2\n        /* \"#utility.yul\":19875:20006   */\n      tag_371\n      jump\t// in\n    tag_593:\n        /* \"#utility.yul\":19867:20006   */\n      swap1\n      pop\n        /* \"#utility.yul\":19594:20013   */\n      swap2\n      swap1\n      pop\n      jump\t// out\n        /* \"#utility.yul\":20019:20192   */\n    tag_372:\n        /* \"#utility.yul\":20159:20184   */\n      0x41756374696f6e20726f756e642068617320656e646564000000000000000000\n        /* \"#utility.yul\":20155:20156   */\n      0x00\n        /* \"#utility.yul\":20147:20153   */\n      dup3\n        /* \"#utility.yul\":20143:20157   */\n      add\n        /* \"#utility.yul\":20136:20185   */\n      mstore\n        /* \"#utility.yul\":20019:20192   */\n      pop\n      jump\t// out\n        /* \"#utility.yul\":20198:20564   */\n    tag_373:\n        /* \"#utility.yul\":20340:20343   */\n      0x00\n        /* \"#utility.yul\":20361:20428   */\n      tag_596\n        /* \"#utility.yul\":20425:20427   */\n      0x17\n        /* \"#utility.yul\":20420:20423   */\n      dup4\n        /* \"#utility.yul\":20361:20428   */\n      tag_350\n      jump\t// in\n    tag_596:\n        /* \"#utility.yul\":20354:20428   */\n      swap2\n      pop\n        /* \"#utility.yul\":20437:20530   */\n      tag_597\n        /* \"#utility.yul\":20526:20529   */\n      dup3\n        /* \"#utility.yul\":20437:20530   */\n      tag_372\n      jump\t// in\n    tag_597:\n        /* \"#utility.yul\":20555:20557   */\n      0x20\n        /* \"#utility.yul\":20550:20553   */\n      dup3\n        /* \"#utility.yul\":20546:20558   */\n      add\n        /* \"#utility.yul\":20539:20558   */\n      swap1\n      pop\n        /* \"#utility.yul\":20198:20564   */\n      swap2\n      swap1\n      pop\n      jump\t// out\n        /* \"#utility.yul\":20570:20989   */\n    tag_236:\n        /* \"#utility.yul\":20736:20740   */\n      0x00\n        /* \"#utility.yul\":20774:20776   */\n      0x20\n        /* \"#utility.yul\":20763:20772   */\n      dup3\n        /* \"#utility.yul\":20759:20777   */\n      add\n        /* \"#utility.yul\":20751:20777   */\n      swap1\n      pop\n        /* \"#utility.yul\":20823:20832   */\n      dup2\n        /* \"#utility.yul\":20817:20821   */\n      dup2\n        /* \"#utility.yul\":20813:20833   */\n      sub\n        /* \"#utility.yul\":20809:20810   */\n      0x00\n        /* \"#utility.yul\":20798:20807   */\n      dup4\n        /* \"#utility.yul\":20794:20811   */\n      add\n        /* \"#utility.yul\":20787:20834   */\n      mstore\n        /* \"#utility.yul\":20851:20982   */\n      tag_599\n        /* \"#utility.yul\":20977:20981   */\n      dup2\n        /* \"#utility.yul\":20851:20982   */\n      tag_373\n      jump\t// in\n    tag_599:\n        /* \"#utility.yul\":20843:20982   */\n      swap1\n      pop\n        /* \"#utility.yul\":20570:20989   */\n      swap2\n      swap1\n      pop\n      jump\t// out\n        /* \"#utility.yul\":20995:21138   */\n    tag_374:\n        /* \"#utility.yul\":21052:21057   */\n      0x00\n        /* \"#utility.yul\":21083:21089   */\n      dup2\n        /* \"#utility.yul\":21077:21090   */\n      mload\n        /* \"#utility.yul\":21068:21090   */\n      swap1\n      pop\n        /* \"#utility.yul\":21099:21132   */\n      tag_601\n        /* \"#utility.yul\":21126:21131   */\n      dup2\n        /* \"#utility.yul\":21099:21132   */\n      tag_332\n      jump\t// in\n    tag_601:\n        /* \"#utility.yul\":20995:21138   */\n      swap3\n      swap2\n      pop\n      pop\n      jump\t// out\n        /* \"#utility.yul\":21144:21495   */\n    tag_243:\n        /* \"#utility.yul\":21214:21220   */\n      0x00\n        /* \"#utility.yul\":21263:21265   */\n      0x20\n        /* \"#utility.yul\":21251:21260   */\n      dup3\n        /* \"#utility.yul\":21242:21249   */\n      dup5\n        /* \"#utility.yul\":21238:21261   */\n      sub\n        /* \"#utility.yul\":21234:21266   */\n      slt\n        /* \"#utility.yul\":21231:21350   */\n      iszero\n      tag_603\n      jumpi\n        /* \"#utility.yul\":21269:21348   */\n      tag_604\n      tag_325\n      jump\t// in\n    tag_604:\n        /* \"#utility.yul\":21231:21350   */\n    tag_603:\n        /* \"#utility.yul\":21389:21390   */\n      0x00\n        /* \"#utility.yul\":21414:21478   */\n      tag_605\n        /* \"#utility.yul\":21470:21477   */\n      dup5\n        /* \"#utility.yul\":21461:21467   */\n      dup3\n        /* \"#utility.yul\":21450:21459   */\n      dup6\n        /* \"#utility.yul\":21446:21468   */\n      add\n        /* \"#utility.yul\":21414:21478   */\n      tag_374\n      jump\t// in\n    tag_605:\n        /* \"#utility.yul\":21404:21478   */\n      swap2\n      pop\n        /* \"#utility.yul\":21360:21488   */\n      pop\n        /* \"#utility.yul\":21144:21495   */\n      swap3\n      swap2\n      pop\n      pop\n      jump\t// out\n        /* \"#utility.yul\":21501:21665   */\n    tag_375:\n        /* \"#utility.yul\":21641:21657   */\n      0x41756374696f6e20506175736564000000000000000000000000000000000000\n        /* \"#utility.yul\":21637:21638   */\n      0x00\n        /* \"#utility.yul\":21629:21635   */\n      dup3\n        /* \"#utility.yul\":21625:21639   */\n      add\n        /* \"#utility.yul\":21618:21658   */\n      mstore\n        /* \"#utility.yul\":21501:21665   */\n      pop\n      jump\t// out\n        /* \"#utility.yul\":21671:22037   */\n    tag_376:\n        /* \"#utility.yul\":21813:21816   */\n      0x00\n        /* \"#utility.yul\":21834:21901   */\n      tag_608\n        /* \"#utility.yul\":21898:21900   */\n      0x0e\n        /* \"#utility.yul\":21893:21896   */\n      dup4\n        /* \"#utility.yul\":21834:21901   */\n      tag_350\n      jump\t// in\n    tag_608:\n        /* \"#utility.yul\":21827:21901   */\n      swap2\n      pop\n        /* \"#utility.yul\":21910:22003   */\n      tag_609\n        /* \"#utility.yul\":21999:22002   */\n      dup3\n        /* \"#utility.yul\":21910:22003   */\n      tag_375\n      jump\t// in\n    tag_609:\n        /* \"#utility.yul\":22028:22030   */\n      0x20\n        /* \"#utility.yul\":22023:22026   */\n      dup3\n        /* \"#utility.yul\":22019:22031   */\n      add\n        /* \"#utility.yul\":22012:22031   */\n      swap1\n      pop\n        /* \"#utility.yul\":21671:22037   */\n      swap2\n      swap1\n      pop\n      jump\t// out\n        /* \"#utility.yul\":22043:22462   */\n    tag_246:\n        /* \"#utility.yul\":22209:22213   */\n      0x00\n        /* \"#utility.yul\":22247:22249   */\n      0x20\n        /* \"#utility.yul\":22236:22245   */\n      dup3\n        /* \"#utility.yul\":22232:22250   */\n      add\n        /* \"#utility.yul\":22224:22250   */\n      swap1\n      pop\n        /* \"#utility.yul\":22296:22305   */\n      dup2\n        /* \"#utility.yul\":22290:22294   */\n      dup2\n        /* \"#utility.yul\":22286:22306   */\n      sub\n        /* \"#utility.yul\":22282:22283   */\n      0x00\n        /* \"#utility.yul\":22271:22280   */\n      dup4\n        /* \"#utility.yul\":22267:22284   */\n      add\n        /* \"#utility.yul\":22260:22307   */\n      mstore\n        /* \"#utility.yul\":22324:22455   */\n      tag_611\n        /* \"#utility.yul\":22450:22454   */\n      dup2\n        /* \"#utility.yul\":22324:22455   */\n      tag_376\n      jump\t// in\n    tag_611:\n        /* \"#utility.yul\":22316:22455   */\n      swap1\n      pop\n        /* \"#utility.yul\":22043:22462   */\n      swap2\n      swap1\n      pop\n      jump\t// out\n        /* \"#utility.yul\":22468:22637   */\n    tag_377:\n        /* \"#utility.yul\":22608:22629   */\n      0x4e6f74206d6f7265207468616e206c696d697400000000000000000000000000\n        /* \"#utility.yul\":22604:22605   */\n      0x00\n        /* \"#utility.yul\":22596:22602   */\n      dup3\n        /* \"#utility.yul\":22592:22606   */\n      add\n        /* \"#utility.yul\":22585:22630   */\n      mstore\n        /* \"#utility.yul\":22468:22637   */\n      pop\n      jump\t// out\n        /* \"#utility.yul\":22643:23009   */\n    tag_378:\n        /* \"#utility.yul\":22785:22788   */\n      0x00\n        /* \"#utility.yul\":22806:22873   */\n      tag_614\n        /* \"#utility.yul\":22870:22872   */\n      0x13\n        /* \"#utility.yul\":22865:22868   */\n      dup4\n        /* \"#utility.yul\":22806:22873   */\n      tag_350\n      jump\t// in\n    tag_614:\n        /* \"#utility.yul\":22799:22873   */\n      swap2\n      pop\n        /* \"#utility.yul\":22882:22975   */\n      tag_615\n        /* \"#utility.yul\":22971:22974   */\n      dup3\n        /* \"#utility.yul\":22882:22975   */\n      tag_377\n      jump\t// in\n    tag_615:\n        /* \"#utility.yul\":23000:23002   */\n      0x20\n        /* \"#utility.yul\":22995:22998   */\n      dup3\n        /* \"#utility.yul\":22991:23003   */\n      add\n        /* \"#utility.yul\":22984:23003   */\n      swap1\n      pop\n        /* \"#utility.yul\":22643:23009   */\n      swap2\n      swap1\n      pop\n      jump\t// out\n        /* \"#utility.yul\":23015:23434   */\n    tag_249:\n        /* \"#utility.yul\":23181:23185   */\n      0x00\n        /* \"#utility.yul\":23219:23221   */\n      0x20\n        /* \"#utility.yul\":23208:23217   */\n      dup3\n        /* \"#utility.yul\":23204:23222   */\n      add\n        /* \"#utility.yul\":23196:23222   */\n      swap1\n      pop\n        /* \"#utility.yul\":23268:23277   */\n      dup2\n        /* \"#utility.yul\":23262:23266   */\n      dup2\n        /* \"#utility.yul\":23258:23278   */\n      sub\n        /* \"#utility.yul\":23254:23255   */\n      0x00\n        /* \"#utility.yul\":23243:23252   */\n      dup4\n        /* \"#utility.yul\":23239:23256   */\n      add\n        /* \"#utility.yul\":23232:23279   */\n      mstore\n        /* \"#utility.yul\":23296:23427   */\n      tag_617\n        /* \"#utility.yul\":23422:23426   */\n      dup2\n        /* \"#utility.yul\":23296:23427   */\n      tag_378\n      jump\t// in\n    tag_617:\n        /* \"#utility.yul\":23288:23427   */\n      swap1\n      pop\n        /* \"#utility.yul\":23015:23434   */\n      swap2\n      swap1\n      pop\n      jump\t// out\n        /* \"#utility.yul\":23440:23882   */\n    tag_255:\n        /* \"#utility.yul\":23589:23593   */\n      0x00\n        /* \"#utility.yul\":23627:23629   */\n      0x60\n        /* \"#utility.yul\":23616:23625   */\n      dup3\n        /* \"#utility.yul\":23612:23630   */\n      add\n        /* \"#utility.yul\":23604:23630   */\n      swap1\n      pop\n        /* \"#utility.yul\":23640:23711   */\n      tag_619\n        /* \"#utility.yul\":23708:23709   */\n      0x00\n        /* \"#utility.yul\":23697:23706   */\n      dup4\n        /* \"#utility.yul\":23693:23710   */\n      add\n        /* \"#utility.yul\":23684:23690   */\n      dup7\n        /* \"#utility.yul\":23640:23711   */\n      tag_336\n      jump\t// in\n    tag_619:\n        /* \"#utility.yul\":23721:23793   */\n      tag_620\n        /* \"#utility.yul\":23789:23791   */\n      0x20\n        /* \"#utility.yul\":23778:23787   */\n      dup4\n        /* \"#utility.yul\":23774:23792   */\n      add\n        /* \"#utility.yul\":23765:23771   */\n      dup6\n        /* \"#utility.yul\":23721:23793   */\n      tag_336\n      jump\t// in\n    tag_620:\n        /* \"#utility.yul\":23803:23875   */\n      tag_621\n        /* \"#utility.yul\":23871:23873   */\n      0x40\n        /* \"#utility.yul\":23860:23869   */\n      dup4\n        /* \"#utility.yul\":23856:23874   */\n      add\n        /* \"#utility.yul\":23847:23853   */\n      dup5\n        /* \"#utility.yul\":23803:23875   */\n      tag_337\n      jump\t// in\n    tag_621:\n        /* \"#utility.yul\":23440:23882   */\n      swap5\n      swap4\n      pop\n      pop\n      pop\n      pop\n      jump\t// out\n        /* \"#utility.yul\":23888:24058   */\n    tag_379:\n        /* \"#utility.yul\":24028:24050   */\n      0x55534454207472616e73666572206661696c6564000000000000000000000000\n        /* \"#utility.yul\":24024:24025   */\n      0x00\n        /* \"#utility.yul\":24016:24022   */\n      dup3\n        /* \"#utility.yul\":24012:24026   */\n      add\n        /* \"#utility.yul\":24005:24051   */\n      mstore\n        /* \"#utility.yul\":23888:24058   */\n      pop\n      jump\t// out\n        /* \"#utility.yul\":24064:24430   */\n    tag_380:\n        /* \"#utility.yul\":24206:24209   */\n      0x00\n        /* \"#utility.yul\":24227:24294   */\n      tag_624\n        /* \"#utility.yul\":24291:24293   */\n      0x14\n        /* \"#utility.yul\":24286:24289   */\n      dup4\n        /* \"#utility.yul\":24227:24294   */\n      tag_350\n      jump\t// in\n    tag_624:\n        /* \"#utility.yul\":24220:24294   */\n      swap2\n      pop\n        /* \"#utility.yul\":24303:24396   */\n      tag_625\n        /* \"#utility.yul\":24392:24395   */\n      dup3\n        /* \"#utility.yul\":24303:24396   */\n      tag_379\n      jump\t// in\n    tag_625:\n        /* \"#utility.yul\":24421:24423   */\n      0x20\n        /* \"#utility.yul\":24416:24419   */\n      dup3\n        /* \"#utility.yul\":24412:24424   */\n      add\n        /* \"#utility.yul\":24405:24424   */\n      swap1\n      pop\n        /* \"#utility.yul\":24064:24430   */\n      swap2\n      swap1\n      pop\n      jump\t// out\n        /* \"#utility.yul\":24436:24855   */\n    tag_261:\n        /* \"#utility.yul\":24602:24606   */\n      0x00\n        /* \"#utility.yul\":24640:24642   */\n      0x20\n        /* \"#utility.yul\":24629:24638   */\n      dup3\n        /* \"#utility.yul\":24625:24643   */\n      add\n        /* \"#utility.yul\":24617:24643   */\n      swap1\n      pop\n        /* \"#utility.yul\":24689:24698   */\n      dup2\n        /* \"#utility.yul\":24683:24687   */\n      dup2\n        /* \"#utility.yul\":24679:24699   */\n      sub\n        /* \"#utility.yul\":24675:24676   */\n      0x00\n        /* \"#utility.yul\":24664:24673   */\n      dup4\n        /* \"#utility.yul\":24660:24677   */\n      add\n        /* \"#utility.yul\":24653:24700   */\n      mstore\n        /* \"#utility.yul\":24717:24848   */\n      tag_627\n        /* \"#utility.yul\":24843:24847   */\n      dup2\n        /* \"#utility.yul\":24717:24848   */\n      tag_380\n      jump\t// in\n    tag_627:\n        /* \"#utility.yul\":24709:24848   */\n      swap1\n      pop\n        /* \"#utility.yul\":24436:24855   */\n      swap2\n      swap1\n      pop\n      jump\t// out\n        /* \"#utility.yul\":24861:24978   */\n    tag_381:\n        /* \"#utility.yul\":24970:24971   */\n      0x00\n        /* \"#utility.yul\":24967:24968   */\n      dup1\n        /* \"#utility.yul\":24960:24972   */\n      revert\n        /* \"#utility.yul\":24984:25101   */\n    tag_382:\n        /* \"#utility.yul\":25093:25094   */\n      0x00\n        /* \"#utility.yul\":25090:25091   */\n      dup1\n        /* \"#utility.yul\":25083:25095   */\n      revert\n        /* \"#utility.yul\":25107:25209   */\n    tag_383:\n        /* \"#utility.yul\":25148:25154   */\n      0x00\n        /* \"#utility.yul\":25199:25201   */\n      0x1f\n        /* \"#utility.yul\":25195:25202   */\n      not\n        /* \"#utility.yul\":25190:25192   */\n      0x1f\n        /* \"#utility.yul\":25183:25188   */\n      dup4\n        /* \"#utility.yul\":25179:25193   */\n      add\n        /* \"#utility.yul\":25175:25203   */\n      and\n        /* \"#utility.yul\":25165:25203   */\n      swap1\n      pop\n        /* \"#utility.yul\":25107:25209   */\n      swap2\n      swap1\n      pop\n      jump\t// out\n        /* \"#utility.yul\":25215:25395   */\n    tag_384:\n        /* \"#utility.yul\":25263:25340   */\n      0x4e487b7100000000000000000000000000000000000000000000000000000000\n        /* \"#utility.yul\":25260:25261   */\n      0x00\n        /* \"#utility.yul\":25253:25341   */\n      mstore\n        /* \"#utility.yul\":25360:25364   */\n      0x41\n        /* \"#utility.yul\":25357:25358   */\n      0x04\n        /* \"#utility.yul\":25350:25365   */\n      mstore\n        /* \"#utility.yul\":25384:25388   */\n      0x24\n        /* \"#utility.yul\":25381:25382   */\n      0x00\n        /* \"#utility.yul\":25374:25389   */\n      revert\n        /* \"#utility.yul\":25401:25682   */\n    tag_385:\n        /* \"#utility.yul\":25484:25511   */\n      tag_633\n        /* \"#utility.yul\":25506:25510   */\n      dup3\n        /* \"#utility.yul\":25484:25511   */\n      tag_383\n      jump\t// in\n    tag_633:\n        /* \"#utility.yul\":25476:25482   */\n      dup2\n        /* \"#utility.yul\":25472:25512   */\n      add\n        /* \"#utility.yul\":25614:25620   */\n      dup2\n        /* \"#utility.yul\":25602:25612   */\n      dup2\n        /* \"#utility.yul\":25599:25621   */\n      lt\n        /* \"#utility.yul\":25578:25596   */\n      0xffffffffffffffff\n        /* \"#utility.yul\":25566:25576   */\n      dup3\n        /* \"#utility.yul\":25563:25597   */\n      gt\n        /* \"#utility.yul\":25560:25622   */\n      or\n        /* \"#utility.yul\":25557:25645   */\n      iszero\n      tag_634\n      jumpi\n        /* \"#utility.yul\":25625:25643   */\n      tag_635\n      tag_384\n      jump\t// in\n    tag_635:\n        /* \"#utility.yul\":25557:25645   */\n    tag_634:\n        /* \"#utility.yul\":25665:25675   */\n      dup1\n        /* \"#utility.yul\":25661:25663   */\n      0x40\n        /* \"#utility.yul\":25654:25676   */\n      mstore\n        /* \"#utility.yul\":25444:25682   */\n      pop\n        /* \"#utility.yul\":25401:25682   */\n      pop\n      pop\n      jump\t// out\n        /* \"#utility.yul\":25688:25817   */\n    tag_386:\n        /* \"#utility.yul\":25722:25728   */\n      0x00\n        /* \"#utility.yul\":25749:25769   */\n      tag_637\n      tag_324\n      jump\t// in\n    tag_637:\n        /* \"#utility.yul\":25739:25769   */\n      swap1\n      pop\n        /* \"#utility.yul\":25778:25811   */\n      tag_638\n        /* \"#utility.yul\":25806:25810   */\n      dup3\n        /* \"#utility.yul\":25798:25804   */\n      dup3\n        /* \"#utility.yul\":25778:25811   */\n      tag_385\n      jump\t// in\n    tag_638:\n        /* \"#utility.yul\":25688:25817   */\n      swap2\n      swap1\n      pop\n      jump\t// out\n        /* \"#utility.yul\":25823:26131   */\n    tag_387:\n        /* \"#utility.yul\":25885:25889   */\n      0x00\n        /* \"#utility.yul\":25975:25993   */\n      0xffffffffffffffff\n        /* \"#utility.yul\":25967:25973   */\n      dup3\n        /* \"#utility.yul\":25964:25994   */\n      gt\n        /* \"#utility.yul\":25961:26017   */\n      iszero\n      tag_640\n      jumpi\n        /* \"#utility.yul\":25997:26015   */\n      tag_641\n      tag_384\n      jump\t// in\n    tag_641:\n        /* \"#utility.yul\":25961:26017   */\n    tag_640:\n        /* \"#utility.yul\":26035:26064   */\n      tag_642\n        /* \"#utility.yul\":26057:26063   */\n      dup3\n        /* \"#utility.yul\":26035:26064   */\n      tag_383\n      jump\t// in\n    tag_642:\n        /* \"#utility.yul\":26027:26064   */\n      swap1\n      pop\n        /* \"#utility.yul\":26119:26123   */\n      0x20\n        /* \"#utility.yul\":26113:26117   */\n      dup2\n        /* \"#utility.yul\":26109:26124   */\n      add\n        /* \"#utility.yul\":26101:26124   */\n      swap1\n      pop\n        /* \"#utility.yul\":25823:26131   */\n      swap2\n      swap1\n      pop\n      jump\t// out\n        /* \"#utility.yul\":26137:26276   */\n    tag_388:\n        /* \"#utility.yul\":26226:26232   */\n      dup3\n        /* \"#utility.yul\":26221:26224   */\n      dup2\n        /* \"#utility.yul\":26216:26219   */\n      dup4\n        /* \"#utility.yul\":26210:26233   */\n      mcopy\n        /* \"#utility.yul\":26267:26268   */\n      0x00\n        /* \"#utility.yul\":26258:26264   */\n      dup4\n        /* \"#utility.yul\":26253:26256   */\n      dup4\n        /* \"#utility.yul\":26249:26265   */\n      add\n        /* \"#utility.yul\":26242:26269   */\n      mstore\n        /* \"#utility.yul\":26137:26276   */\n      pop\n      pop\n      pop\n      jump\t// out\n        /* \"#utility.yul\":26282:26716   */\n    tag_389:\n        /* \"#utility.yul\":26371:26376   */\n      0x00\n        /* \"#utility.yul\":26396:26462   */\n      tag_645\n        /* \"#utility.yul\":26412:26461   */\n      tag_646\n        /* \"#utility.yul\":26454:26460   */\n      dup5\n        /* \"#utility.yul\":26412:26461   */\n      tag_387\n      jump\t// in\n    tag_646:\n        /* \"#utility.yul\":26396:26462   */\n      tag_386\n      jump\t// in\n    tag_645:\n        /* \"#utility.yul\":26387:26462   */\n      swap1\n      pop\n        /* \"#utility.yul\":26485:26491   */\n      dup3\n        /* \"#utility.yul\":26478:26483   */\n      dup2\n        /* \"#utility.yul\":26471:26492   */\n      mstore\n        /* \"#utility.yul\":26523:26527   */\n      0x20\n        /* \"#utility.yul\":26516:26521   */\n      dup2\n        /* \"#utility.yul\":26512:26528   */\n      add\n        /* \"#utility.yul\":26561:26564   */\n      dup5\n        /* \"#utility.yul\":26552:26558   */\n      dup5\n        /* \"#utility.yul\":26547:26550   */\n      dup5\n        /* \"#utility.yul\":26543:26559   */\n      add\n        /* \"#utility.yul\":26540:26565   */\n      gt\n        /* \"#utility.yul\":26537:26649   */\n      iszero\n      tag_647\n      jumpi\n        /* \"#utility.yul\":26568:26647   */\n      tag_648\n      tag_382\n      jump\t// in\n    tag_648:\n        /* \"#utility.yul\":26537:26649   */\n    tag_647:\n        /* \"#utility.yul\":26658:26710   */\n      tag_649\n        /* \"#utility.yul\":26703:26709   */\n      dup5\n        /* \"#utility.yul\":26698:26701   */\n      dup3\n        /* \"#utility.yul\":26693:26696   */\n      dup6\n        /* \"#utility.yul\":26658:26710   */\n      tag_388\n      jump\t// in\n    tag_649:\n        /* \"#utility.yul\":26377:26716   */\n      pop\n        /* \"#utility.yul\":26282:26716   */\n      swap4\n      swap3\n      pop\n      pop\n      pop\n      jump\t// out\n        /* \"#utility.yul\":26736:27091   */\n    tag_390:\n        /* \"#utility.yul\":26803:26808   */\n      0x00\n        /* \"#utility.yul\":26852:26855   */\n      dup3\n        /* \"#utility.yul\":26845:26849   */\n      0x1f\n        /* \"#utility.yul\":26837:26843   */\n      dup4\n        /* \"#utility.yul\":26833:26850   */\n      add\n        /* \"#utility.yul\":26829:26856   */\n      slt\n        /* \"#utility.yul\":26819:26941   */\n      tag_651\n      jumpi\n        /* \"#utility.yul\":26860:26939   */\n      tag_652\n      tag_381\n      jump\t// in\n    tag_652:\n        /* \"#utility.yul\":26819:26941   */\n    tag_651:\n        /* \"#utility.yul\":26970:26976   */\n      dup2\n        /* \"#utility.yul\":26964:26977   */\n      mload\n        /* \"#utility.yul\":26995:27085   */\n      tag_653\n        /* \"#utility.yul\":27081:27084   */\n      dup5\n        /* \"#utility.yul\":27073:27079   */\n      dup3\n        /* \"#utility.yul\":27066:27070   */\n      0x20\n        /* \"#utility.yul\":27058:27064   */\n      dup7\n        /* \"#utility.yul\":27054:27071   */\n      add\n        /* \"#utility.yul\":26995:27085   */\n      tag_389\n      jump\t// in\n    tag_653:\n        /* \"#utility.yul\":26986:27085   */\n      swap2\n      pop\n        /* \"#utility.yul\":26809:27091   */\n      pop\n        /* \"#utility.yul\":26736:27091   */\n      swap3\n      swap2\n      pop\n      pop\n      jump\t// out\n        /* \"#utility.yul\":27097:27621   */\n    tag_280:\n        /* \"#utility.yul\":27177:27183   */\n      0x00\n        /* \"#utility.yul\":27226:27228   */\n      0x20\n        /* \"#utility.yul\":27214:27223   */\n      dup3\n        /* \"#utility.yul\":27205:27212   */\n      dup5\n        /* \"#utility.yul\":27201:27224   */\n      sub\n        /* \"#utility.yul\":27197:27229   */\n      slt\n        /* \"#utility.yul\":27194:27313   */\n      iszero\n      tag_655\n      jumpi\n        /* \"#utility.yul\":27232:27311   */\n      tag_656\n      tag_325\n      jump\t// in\n    tag_656:\n        /* \"#utility.yul\":27194:27313   */\n    tag_655:\n        /* \"#utility.yul\":27373:27374   */\n      0x00\n        /* \"#utility.yul\":27362:27371   */\n      dup3\n        /* \"#utility.yul\":27358:27375   */\n      add\n        /* \"#utility.yul\":27352:27376   */\n      mload\n        /* \"#utility.yul\":27403:27421   */\n      0xffffffffffffffff\n        /* \"#utility.yul\":27395:27401   */\n      dup2\n        /* \"#utility.yul\":27392:27422   */\n      gt\n        /* \"#utility.yul\":27389:27506   */\n      iszero\n      tag_657\n      jumpi\n        /* \"#utility.yul\":27425:27504   */\n      tag_658\n      tag_326\n      jump\t// in\n    tag_658:\n        /* \"#utility.yul\":27389:27506   */\n    tag_657:\n        /* \"#utility.yul\":27530:27604   */\n      tag_659\n        /* \"#utility.yul\":27596:27603   */\n      dup5\n        /* \"#utility.yul\":27587:27593   */\n      dup3\n        /* \"#utility.yul\":27576:27585   */\n      dup6\n        /* \"#utility.yul\":27572:27594   */\n      add\n        /* \"#utility.yul\":27530:27604   */\n      tag_390\n      jump\t// in\n    tag_659:\n        /* \"#utility.yul\":27520:27604   */\n      swap2\n      pop\n        /* \"#utility.yul\":27323:27614   */\n      pop\n        /* \"#utility.yul\":27097:27621   */\n      swap3\n      swap2\n      pop\n      pop\n      jump\t// out\n        /* \"#utility.yul\":27627:27775   */\n    tag_391:\n        /* \"#utility.yul\":27729:27740   */\n      0x00\n        /* \"#utility.yul\":27766:27769   */\n      dup2\n        /* \"#utility.yul\":27751:27769   */\n      swap1\n      pop\n        /* \"#utility.yul\":27627:27775   */\n      swap3\n      swap2\n      pop\n      pop\n      jump\t// out\n        /* \"#utility.yul\":27781:27941   */\n    tag_392:\n        /* \"#utility.yul\":27921:27933   */\n      0x4163637265646974656400000000000000000000000000000000000000000000\n        /* \"#utility.yul\":27917:27918   */\n      0x00\n        /* \"#utility.yul\":27909:27915   */\n      dup3\n        /* \"#utility.yul\":27905:27919   */\n      add\n        /* \"#utility.yul\":27898:27934   */\n      mstore\n        /* \"#utility.yul\":27781:27941   */\n      pop\n      jump\t// out\n        /* \"#utility.yul\":27947:28349   */\n    tag_393:\n        /* \"#utility.yul\":28107:28110   */\n      0x00\n        /* \"#utility.yul\":28128:28213   */\n      tag_663\n        /* \"#utility.yul\":28210:28212   */\n      0x0a\n        /* \"#utility.yul\":28205:28208   */\n      dup4\n        /* \"#utility.yul\":28128:28213   */\n      tag_391\n      jump\t// in\n    tag_663:\n        /* \"#utility.yul\":28121:28213   */\n      swap2\n      pop\n        /* \"#utility.yul\":28222:28315   */\n      tag_664\n        /* \"#utility.yul\":28311:28314   */\n      dup3\n        /* \"#utility.yul\":28222:28315   */\n      tag_392\n      jump\t// in\n    tag_664:\n        /* \"#utility.yul\":28340:28342   */\n      0x0a\n        /* \"#utility.yul\":28335:28338   */\n      dup3\n        /* \"#utility.yul\":28331:28343   */\n      add\n        /* \"#utility.yul\":28324:28343   */\n      swap1\n      pop\n        /* \"#utility.yul\":27947:28349   */\n      swap2\n      swap1\n      pop\n      jump\t// out\n        /* \"#utility.yul\":28355:28736   */\n    tag_282:\n        /* \"#utility.yul\":28540:28543   */\n      0x00\n        /* \"#utility.yul\":28562:28710   */\n      tag_666\n        /* \"#utility.yul\":28706:28709   */\n      dup3\n        /* \"#utility.yul\":28562:28710   */\n      tag_393\n      jump\t// in\n    tag_666:\n        /* \"#utility.yul\":28555:28710   */\n      swap2\n      pop\n        /* \"#utility.yul\":28727:28730   */\n      dup2\n        /* \"#utility.yul\":28720:28730   */\n      swap1\n      pop\n        /* \"#utility.yul\":28355:28736   */\n      swap2\n      swap1\n      pop\n      jump\t// out\n        /* \"#utility.yul\":28742:28841   */\n    tag_394:\n        /* \"#utility.yul\":28794:28800   */\n      0x00\n        /* \"#utility.yul\":28828:28833   */\n      dup2\n        /* \"#utility.yul\":28822:28834   */\n      mload\n        /* \"#utility.yul\":28812:28834   */\n      swap1\n      pop\n        /* \"#utility.yul\":28742:28841   */\n      swap2\n      swap1\n      pop\n      jump\t// out\n        /* \"#utility.yul\":28847:29237   */\n    tag_395:\n        /* \"#utility.yul\":28953:28956   */\n      0x00\n        /* \"#utility.yul\":28981:29020   */\n      tag_669\n        /* \"#utility.yul\":29014:29019   */\n      dup3\n        /* \"#utility.yul\":28981:29020   */\n      tag_394\n      jump\t// in\n    tag_669:\n        /* \"#utility.yul\":29036:29125   */\n      tag_670\n        /* \"#utility.yul\":29118:29124   */\n      dup2\n        /* \"#utility.yul\":29113:29116   */\n      dup6\n        /* \"#utility.yul\":29036:29125   */\n      tag_391\n      jump\t// in\n    tag_670:\n        /* \"#utility.yul\":29029:29125   */\n      swap4\n      pop\n        /* \"#utility.yul\":29134:29199   */\n      tag_671\n        /* \"#utility.yul\":29192:29198   */\n      dup2\n        /* \"#utility.yul\":29187:29190   */\n      dup6\n        /* \"#utility.yul\":29180:29184   */\n      0x20\n        /* \"#utility.yul\":29173:29178   */\n      dup7\n        /* \"#utility.yul\":29169:29185   */\n      add\n        /* \"#utility.yul\":29134:29199   */\n      tag_388\n      jump\t// in\n    tag_671:\n        /* \"#utility.yul\":29224:29230   */\n      dup1\n        /* \"#utility.yul\":29219:29222   */\n      dup5\n        /* \"#utility.yul\":29215:29231   */\n      add\n        /* \"#utility.yul\":29208:29231   */\n      swap2\n      pop\n        /* \"#utility.yul\":28957:29237   */\n      pop\n        /* \"#utility.yul\":28847:29237   */\n      swap3\n      swap2\n      pop\n      pop\n      jump\t// out\n        /* \"#utility.yul\":29243:29518   */\n    tag_284:\n        /* \"#utility.yul\":29375:29378   */\n      0x00\n        /* \"#utility.yul\":29397:29492   */\n      tag_673\n        /* \"#utility.yul\":29488:29491   */\n      dup3\n        /* \"#utility.yul\":29479:29485   */\n      dup5\n        /* \"#utility.yul\":29397:29492   */\n      tag_395\n      jump\t// in\n    tag_673:\n        /* \"#utility.yul\":29390:29492   */\n      swap2\n      pop\n        /* \"#utility.yul\":29509:29512   */\n      dup2\n        /* \"#utility.yul\":29502:29512   */\n      swap1\n      pop\n        /* \"#utility.yul\":29243:29518   */\n      swap3\n      swap2\n      pop\n      pop\n      jump\t// out\n        /* \"#utility.yul\":29524:29679   */\n    tag_396:\n        /* \"#utility.yul\":29664:29671   */\n      0x4e6f6e5553000000000000000000000000000000000000000000000000000000\n        /* \"#utility.yul\":29660:29661   */\n      0x00\n        /* \"#utility.yul\":29652:29658   */\n      dup3\n        /* \"#utility.yul\":29648:29662   */\n      add\n        /* \"#utility.yul\":29641:29672   */\n      mstore\n        /* \"#utility.yul\":29524:29679   */\n      pop\n      jump\t// out\n        /* \"#utility.yul\":29685:30085   */\n    tag_397:\n        /* \"#utility.yul\":29845:29848   */\n      0x00\n        /* \"#utility.yul\":29866:29950   */\n      tag_676\n        /* \"#utility.yul\":29948:29949   */\n      0x05\n        /* \"#utility.yul\":29943:29946   */\n      dup4\n        /* \"#utility.yul\":29866:29950   */\n      tag_391\n      jump\t// in\n    tag_676:\n        /* \"#utility.yul\":29859:29950   */\n      swap2\n      pop\n        /* \"#utility.yul\":29959:30052   */\n      tag_677\n        /* \"#utility.yul\":30048:30051   */\n      dup3\n        /* \"#utility.yul\":29959:30052   */\n      tag_396\n      jump\t// in\n    tag_677:\n        /* \"#utility.yul\":30077:30078   */\n      0x05\n        /* \"#utility.yul\":30072:30075   */\n      dup3\n        /* \"#utility.yul\":30068:30079   */\n      add\n        /* \"#utility.yul\":30061:30079   */\n      swap1\n      pop\n        /* \"#utility.yul\":29685:30085   */\n      swap2\n      swap1\n      pop\n      jump\t// out\n        /* \"#utility.yul\":30091:30472   */\n    tag_288:\n        /* \"#utility.yul\":30276:30279   */\n      0x00\n        /* \"#utility.yul\":30298:30446   */\n      tag_679\n        /* \"#utility.yul\":30442:30445   */\n      dup3\n        /* \"#utility.yul\":30298:30446   */\n      tag_397\n      jump\t// in\n    tag_679:\n        /* \"#utility.yul\":30291:30446   */\n      swap2\n      pop\n        /* \"#utility.yul\":30463:30466   */\n      dup2\n        /* \"#utility.yul\":30456:30466   */\n      swap1\n      pop\n        /* \"#utility.yul\":30091:30472   */\n      swap2\n      swap1\n      pop\n      jump\t// out\n        /* \"#utility.yul\":30478:30641   */\n    tag_398:\n        /* \"#utility.yul\":30618:30633   */\n      0x496e737469747574696f6e616c00000000000000000000000000000000000000\n        /* \"#utility.yul\":30614:30615   */\n      0x00\n        /* \"#utility.yul\":30606:30612   */\n      dup3\n        /* \"#utility.yul\":30602:30616   */\n      add\n        /* \"#utility.yul\":30595:30634   */\n      mstore\n        /* \"#utility.yul\":30478:30641   */\n      pop\n      jump\t// out\n        /* \"#utility.yul\":30647:31049   */\n    tag_399:\n        /* \"#utility.yul\":30807:30810   */\n      0x00\n        /* \"#utility.yul\":30828:30913   */\n      tag_682\n        /* \"#utility.yul\":30910:30912   */\n      0x0d\n        /* \"#utility.yul\":30905:30908   */\n      dup4\n        /* \"#utility.yul\":30828:30913   */\n      tag_391\n      jump\t// in\n    tag_682:\n        /* \"#utility.yul\":30821:30913   */\n      swap2\n      pop\n        /* \"#utility.yul\":30922:31015   */\n      tag_683\n        /* \"#utility.yul\":31011:31014   */\n      dup3\n        /* \"#utility.yul\":30922:31015   */\n      tag_398\n      jump\t// in\n    tag_683:\n        /* \"#utility.yul\":31040:31042   */\n      0x0d\n        /* \"#utility.yul\":31035:31038   */\n      dup3\n        /* \"#utility.yul\":31031:31043   */\n      add\n        /* \"#utility.yul\":31024:31043   */\n      swap1\n      pop\n        /* \"#utility.yul\":30647:31049   */\n      swap2\n      swap1\n      pop\n      jump\t// out\n        /* \"#utility.yul\":31055:31436   */\n    tag_293:\n        /* \"#utility.yul\":31240:31243   */\n      0x00\n        /* \"#utility.yul\":31262:31410   */\n      tag_685\n        /* \"#utility.yul\":31406:31409   */\n      dup3\n        /* \"#utility.yul\":31262:31410   */\n      tag_399\n      jump\t// in\n    tag_685:\n        /* \"#utility.yul\":31255:31410   */\n      swap2\n      pop\n        /* \"#utility.yul\":31427:31430   */\n      dup2\n        /* \"#utility.yul\":31420:31430   */\n      swap1\n      pop\n        /* \"#utility.yul\":31055:31436   */\n      swap2\n      swap1\n      pop\n      jump\t// out\n        /* \"#utility.yul\":31442:31884   */\n    tag_298:\n        /* \"#utility.yul\":31591:31595   */\n      0x00\n        /* \"#utility.yul\":31629:31631   */\n      0x60\n        /* \"#utility.yul\":31618:31627   */\n      dup3\n        /* \"#utility.yul\":31614:31632   */\n      add\n        /* \"#utility.yul\":31606:31632   */\n      swap1\n      pop\n        /* \"#utility.yul\":31642:31713   */\n      tag_687\n        /* \"#utility.yul\":31710:31711   */\n      0x00\n        /* \"#utility.yul\":31699:31708   */\n      dup4\n        /* \"#utility.yul\":31695:31712   */\n      add\n        /* \"#utility.yul\":31686:31692   */\n      dup7\n        /* \"#utility.yul\":31642:31713   */\n      tag_336\n      jump\t// in\n    tag_687:\n        /* \"#utility.yul\":31723:31795   */\n      tag_688\n        /* \"#utility.yul\":31791:31793   */\n      0x20\n        /* \"#utility.yul\":31780:31789   */\n      dup4\n        /* \"#utility.yul\":31776:31794   */\n      add\n        /* \"#utility.yul\":31767:31773   */\n      dup6\n        /* \"#utility.yul\":31723:31795   */\n      tag_337\n      jump\t// in\n    tag_688:\n        /* \"#utility.yul\":31805:31877   */\n      tag_689\n        /* \"#utility.yul\":31873:31875   */\n      0x40\n        /* \"#utility.yul\":31862:31871   */\n      dup4\n        /* \"#utility.yul\":31858:31876   */\n      add\n        /* \"#utility.yul\":31849:31855   */\n      dup5\n        /* \"#utility.yul\":31805:31877   */\n      tag_337\n      jump\t// in\n    tag_689:\n        /* \"#utility.yul\":31442:31884   */\n      swap5\n      swap4\n      pop\n      pop\n      pop\n      pop\n      jump\t// out\n\n    auxdata: 0xa2646970667358221220ef30683296452a1ca42564d2ca72364d4046ddafd963bbc19b13b865ecfdb74264736f6c63430008190033\n}\n",
				"bytecode": {
					"linkReferences": {},
					"object": "6080604052670de0b6b3a76400006003556a01a784379d99db420000006004556a0422ca8b0a00a42500000060055569d3c21bcecceda100000060065560b46009556001600b5f6101000a81548160ff021916908315150217905550348015610066575f80fd5b50604051612ac0380380612ac0833981810160405281019061008891906102ca565b335f73ffffffffffffffffffffffffffffffffffffffff168173ffffffffffffffffffffffffffffffffffffffff16036100f9575f6040517f1e4fbdf70000000000000000000000000000000000000000000000000000000081526004016100f09190610317565b60405180910390fd5b610108816101ab60201b60201c565b508160025f6101000a81548173ffffffffffffffffffffffffffffffffffffffff021916908373ffffffffffffffffffffffffffffffffffffffff16021790555080600b60016101000a81548173ffffffffffffffffffffffffffffffffffffffff021916908373ffffffffffffffffffffffffffffffffffffffff1602179055506001600b5f6101000a81548160ff0219169083151502179055505050610330565b5f805f9054906101000a900473ffffffffffffffffffffffffffffffffffffffff169050815f806101000a81548173ffffffffffffffffffffffffffffffffffffffff021916908373ffffffffffffffffffffffffffffffffffffffff1602179055508173ffffffffffffffffffffffffffffffffffffffff168173ffffffffffffffffffffffffffffffffffffffff167f8be0079c531659141344cd1fd0a4f28419497f9722a3daafe3b4186f6b6457e060405160405180910390a35050565b5f80fd5b5f73ffffffffffffffffffffffffffffffffffffffff82169050919050565b5f61029982610270565b9050919050565b6102a98161028f565b81146102b3575f80fd5b50565b5f815190506102c4816102a0565b92915050565b5f80604083850312156102e0576102df61026c565b5b5f6102ed858286016102b6565b92505060206102fe858286016102b6565b9150509250929050565b6103118161028f565b82525050565b5f60208201905061032a5f830184610308565b92915050565b6127838061033d5f395ff3fe608060405234801561000f575f80fd5b50600436106101cd575f3560e01c80637ff9b59611610102578063bf4dd131116100a0578063e0202f871161006f578063e0202f87146104d9578063e8b611d6146104f7578063f2fde38b14610515578063fa6770b314610531576101cd565b8063bf4dd13114610463578063c54e44eb14610481578063d358aa201461049f578063dcefa538146104bd576101cd565b80639f7f9da2116100dc5780639f7f9da2146103d9578063a24bcf46146103f7578063b187bd2614610427578063bb4d5e7c14610445576101cd565b80637ff9b596146103815780638da5cb5b1461039f57806391b7f5ed146103bd576101cd565b80633e6968b61161016f57806364e39b871161014957806364e39b87146103475780636b64c76914610363578063715018a61461036d5780637d35045314610377576101cd565b80633e6968b6146102c65780635b10493f146102e457806362e00dd514610315576101cd565b8063222d7e34116101ab578063222d7e341461023b578063224a80571461025957806330db6f95146102775780633c830a3814610293576101cd565b8063174e31c4146101d157806318d7fa46146102015780632194f3a21461021d575b5f80fd5b6101eb60048036038101906101e691906118e4565b610550565b6040516101f8919061193c565b60405180910390f35b61021b60048036038101906102169190611955565b6107e9565b005b610225610875565b60405161023291906119b4565b60405180910390f35b61024361089b565b60405161025091906119dc565b60405180910390f35b6102616108a1565b60405161026e91906119dc565b60405180910390f35b610291600480360381019061028c9190611a1f565b6108a7565b005b6102ad60048036038101906102a89190611a4a565b6108cb565b6040516102bd9493929190611a75565b60405180910390f35b6102ce6108f7565b6040516102db91906119dc565b60405180910390f35b6102fe60048036038101906102f99190611ab8565b61096d565b60405161030c929190611ae3565b60405180910390f35b61032f600480360381019061032a9190611a4a565b61098d565b60405161033e93929190611b0a565b60405180910390f35b610361600480360381019061035c9190611ab8565b6109f2565b005b61036b610a3e565b005b610375610b4e565b005b61037f610b61565b005b610389610ce3565b60405161039691906119dc565b60405180910390f35b6103a7610ce9565b6040516103b491906119b4565b60405180910390f35b6103d760048036038101906103d29190611a4a565b610d10565b005b6103e1610d22565b6040516103ee91906119dc565b60405180910390f35b610411600480360381019061040c9190611a4a565b610d28565b60405161041e91906119dc565b60405180910390f35b61042f610d51565b60405161043c919061193c565b60405180910390f35b61044d610d63565b60405161045a91906119dc565b60405180910390f35b61046b610d69565b60405161047891906119dc565b60405180910390f35b610489610d6f565b6040516104969190611b9a565b60405180910390f35b6104a7610d94565b6040516104b49190611bd3565b60405180910390f35b6104d760048036038101906104d29190611c27565b610db9565b005b6104e1611657565b6040516104ee91906119dc565b60405180910390f35b6104ff61165d565b60405161050c91906119dc565b60405180910390f35b61052f600480360381019061052a9190611ab8565b611663565b005b6105396116e7565b604051610547929190611ae3565b60405180910390f35b5f600b5f9054906101000a900460ff1661059f576040517f08c379a000000000000000000000000000000000000000000000000000000000815260040161059690611cd1565b60405180910390fd5b60075442116105e3576040517f08c379a00000000000000000000000000000000000000000000000000000000081526004016105da90611d39565b60405180910390fd5b5f600d5f8573ffffffffffffffffffffffffffffffffffffffff1673ffffffffffffffffffffffffffffffffffffffff1681526020019081526020015f205f01541180156106705750600d5f8473ffffffffffffffffffffffffffffffffffffffff1673ffffffffffffffffffffffffffffffffffffffff1681526020019081526020015f205f01548211155b6106af576040517f08c379a00000000000000000000000000000000000000000000000000000000081526004016106a690611da1565b60405180910390fd5b81600d5f8573ffffffffffffffffffffffffffffffffffffffff1673ffffffffffffffffffffffffffffffffffffffff1681526020019081526020015f205f015f8282546106fd9190611dec565b9250508190555060025f9054906101000a900473ffffffffffffffffffffffffffffffffffffffff1673ffffffffffffffffffffffffffffffffffffffff1663a9059cbb84846040518363ffffffff1660e01b8152600401610760929190611e1f565b6020604051808303815f875af115801561077c573d5f803e3d5ffd5b505050506040513d601f19601f820116820180604052508101906107a09190611e5a565b6107df576040517f08c379a00000000000000000000000000000000000000000000000000000000081526004016107d690611ecf565b60405180910390fd5b6001905092915050565b6107f16116f7565b60078310801561080057505f83115b61083f576040517f08c379a000000000000000000000000000000000000000000000000000000000815260040161083690611f37565b60405180910390fd5b80600c5f8581526020019081526020015f206003018190555081600c5f8581526020019081526020015f205f0181905550505050565b600b60019054906101000a900473ffffffffffffffffffffffffffffffffffffffff1681565b600a5481565b60065481565b6108af6116f7565b80600b5f6101000a81548160ff02191690831515021790555050565b600c602052805f5260405f205f91509050805f0154908060010154908060020154908060030154905084565b5f600b5f9054906101000a900460ff1680610913575060075442115b15610921576008905061096a565b5f600a54426109309190611dec565b90505f600162015180836109449190611f82565b61094e9190611fb2565b905060078111156109645760079250505061096a565b80925050505b90565b600d602052805f5260405f205f91509050805f0154908060010154905082565b5f805f80600c5f8681526020019081526020015f206040518060800160405290815f820154815260200160018201548152602001600282015481526020016003820154815250509050805f015181602001518260600151935093509350509193909250565b6109fa6116f7565b80600b60016101000a81548173ffffffffffffffffffffffffffffffffffffffff021916908373ffffffffffffffffffffffffffffffffffffffff16021790555050565b610a466116f7565b600b5f9054906101000a900460ff16610a94576040517f08c379a0000000000000000000000000000000000000000000000000000000008152600401610a8b9061202f565b60405180910390fd5b5f600b5f6101000a81548160ff02191690831515021790555062093a8042610abc9190611fb2565b60078190555042600a819055505f600190505b60078111610b4b576a01a784379d99db42000000600c5f8381526020019081526020015f205f01819055506005811115610b1a5760068114610b12576001610b15565b60025b610b1d565b60035b60ff16600c5f8381526020019081526020015f20600301819055508080610b439061204d565b915050610acf565b50565b610b566116f7565b610b5f5f61177e565b565b610b696116f7565b6001600b5f6101000a81548160ff0219169083151502179055505f6007819055505f600a81905550600c5f600181526020019081526020015f206001015f9055600c5f600281526020019081526020015f206001015f9055600c5f600381526020019081526020015f206001015f9055600c5f600481526020019081526020015f206001015f9055600c5f600581526020019081526020015f206001015f9055600c5f600681526020019081526020015f206001015f9055600c5f600781526020019081526020015f206001015f9055600c5f600281526020019081526020015f206002015f9055600c5f600181526020019081526020015f206002015f9055600c5f600381526020019081526020015f206002015f9055600c5f600481526020019081526020015f206002015f9055600c5f600581526020019081526020015f206002015f9055600c5f600781526020019081526020015f206002015f9055600c5f600681526020019081526020015f206002015f9055565b60035481565b5f805f9054906101000a900473ffffffffffffffffffffffffffffffffffffffff16905090565b610d186116f7565b8060038190555050565b60075481565b5f600354670de0b6b3a764000083610d409190612094565b610d4a9190611f82565b9050919050565b600b5f9054906101000a900460ff1681565b60055481565b60095481565b60015f9054906101000a900473ffffffffffffffffffffffffffffffffffffffff1681565b60025f9054906101000a900473ffffffffffffffffffffffffffffffffffffffff1681565b600b5f9054906101000a900460ff1615610e08576040517f08c379a0000000000000000000000000000000000000000000000000000000008152600401610dff9061211f565b60405180910390fd5b600754421115610e4d576040517f08c379a0000000000000000000000000000000000000000000000000000000008152600401610e4490612187565b60405180910390fd5b5f610e566108f7565b90506007811115610e9c576040517f08c379a0000000000000000000000000000000000000000000000000000000008152600401610e93906121ef565b60405180910390fd5b5f600c5f8381526020019081526020015f20905060078203610efe57600754421115610efd576040517f08c379a0000000000000000000000000000000000000000000000000000000008152600401610ef490612257565b60405180910390fd5b5b6006821480610f0d5750600782145b15610fb35760025f9054906101000a900473ffffffffffffffffffffffffffffffffffffffff1673ffffffffffffffffffffffffffffffffffffffff166370a08231306040518263ffffffff1660e01b8152600401610f6c91906119b4565b602060405180830381865afa158015610f87573d5f803e3d5ffd5b505050506040513d601f19601f82011682018060405250810190610fab9190612289565b815f01819055505b600b5f9054906101000a900460ff1615611002576040517f08c379a0000000000000000000000000000000000000000000000000000000008152600401610ff9906122fe565b60405180910390fd5b60055481600101541061104a576040517f08c379a000000000000000000000000000000000000000000000000000000000815260040161104190612366565b60405180910390fd5b600654816002015410611092576040517f08c379a000000000000000000000000000000000000000000000000000000000815260040161108990612366565b60405180910390fd5b5f670de0b6b3a7640000600354856110aa9190612094565b6110b49190611f82565b90508573ffffffffffffffffffffffffffffffffffffffff166323b872dd33600b60019054906101000a900473ffffffffffffffffffffffffffffffffffffffff16846040518463ffffffff1660e01b815260040161111593929190612384565b6020604051808303815f875af1158015611131573d5f803e3d5ffd5b505050506040513d601f19601f820116820180604052508101906111559190611e5a565b611194576040517f08c379a000000000000000000000000000000000000000000000000000000000815260040161118b90612403565b60405180910390fd5b5f825f01548584600101546111a99190611fb2565b11156112da57825f0154836001015411156111e45782600101548584600101546111d39190611fb2565b6111dd9190611dec565b9050611205565b825f01548584600101546111f89190611fb2565b6112029190611dec565b90505b80836002015f8282546112189190611fb2565b9250508190555080600d5f8873ffffffffffffffffffffffffffffffffffffffff1673ffffffffffffffffffffffffffffffffffffffff1681526020019081526020015f206001015f82825461126e9190611fb2565b925050819055508260030154816112859190612094565b600d5f8873ffffffffffffffffffffffffffffffffffffffff1673ffffffffffffffffffffffffffffffffffffffff1681526020019081526020015f205f015f8282546112d29190611fb2565b925050819055505b8460085f8282546112eb9190611fb2565b9250508190555084836001015f8282546113059190611fb2565b925050819055505f8060025f9054906101000a900473ffffffffffffffffffffffffffffffffffffffff1673ffffffffffffffffffffffffffffffffffffffff16638b3f863f896040518263ffffffff1660e01b815260040161136891906119b4565b5f60405180830381865afa158015611382573d5f803e3d5ffd5b505050506040513d5f823e3d601f19601f820116820180604052508101906113aa919061255d565b90506040516020016113bb906125f8565b60405160208183030381529060405280519060200120816040516020016113e29190612646565b604051602081830303815290604052805190602001200361140e576009544261140b9190611fb2565b91505b60405160200161141d906126a6565b60405160208183030381529060405280519060200120816040516020016114449190612646565b6040516020818303038152906040528051906020012003611470576009544261146d9190611fb2565b91505b60405160200161147f90612704565b60405160208183030381529060405280519060200120816040516020016114a69190612646565b60405160208183030381529060405280519060200120036114d257600954426114cf9190611fb2565b91505b60025f9054906101000a900473ffffffffffffffffffffffffffffffffffffffff1673ffffffffffffffffffffffffffffffffffffffff1663e2ab691d8989856040518463ffffffff1660e01b815260040161153093929190612718565b6020604051808303815f875af115801561154c573d5f803e3d5ffd5b505050506040513d601f19601f820116820180604052508101906115709190611e5a565b5060025f9054906101000a900473ffffffffffffffffffffffffffffffffffffffff1673ffffffffffffffffffffffffffffffffffffffff1663a9059cbb89896040518363ffffffff1660e01b81526004016115cd929190611e1f565b6020604051808303815f875af11580156115e9573d5f803e3d5ffd5b505050506040513d601f19601f8201168201806040525081019061160d9190611e5a565b61164c576040517f08c379a000000000000000000000000000000000000000000000000000000000815260040161164390611ecf565b60405180910390fd5b505050505050505050565b60085481565b60045481565b61166b6116f7565b5f73ffffffffffffffffffffffffffffffffffffffff168173ffffffffffffffffffffffffffffffffffffffff16036116db575f6040517f1e4fbdf70000000000000000000000000000000000000000000000000000000081526004016116d291906119b4565b60405180910390fd5b6116e48161177e565b50565b5f80600a54600754915091509091565b6116ff61183f565b73ffffffffffffffffffffffffffffffffffffffff1661171d610ce9565b73ffffffffffffffffffffffffffffffffffffffff161461177c5761174061183f565b6040517f118cdaa700000000000000000000000000000000000000000000000000000000815260040161177391906119b4565b60405180910390fd5b565b5f805f9054906101000a900473ffffffffffffffffffffffffffffffffffffffff169050815f806101000a81548173ffffffffffffffffffffffffffffffffffffffff021916908373ffffffffffffffffffffffffffffffffffffffff1602179055508173ffffffffffffffffffffffffffffffffffffffff168173ffffffffffffffffffffffffffffffffffffffff167f8be0079c531659141344cd1fd0a4f28419497f9722a3daafe3b4186f6b6457e060405160405180910390a35050565b5f33905090565b5f604051905090565b5f80fd5b5f80fd5b5f73ffffffffffffffffffffffffffffffffffffffff82169050919050565b5f61188082611857565b9050919050565b61189081611876565b811461189a575f80fd5b50565b5f813590506118ab81611887565b92915050565b5f819050919050565b6118c3816118b1565b81146118cd575f80fd5b50565b5f813590506118de816118ba565b92915050565b5f80604083850312156118fa576118f961184f565b5b5f6119078582860161189d565b9250506020611918858286016118d0565b9150509250929050565b5f8115159050919050565b61193681611922565b82525050565b5f60208201905061194f5f83018461192d565b92915050565b5f805f6060848603121561196c5761196b61184f565b5b5f611979868287016118d0565b935050602061198a868287016118d0565b925050604061199b868287016118d0565b9150509250925092565b6119ae81611876565b82525050565b5f6020820190506119c75f8301846119a5565b92915050565b6119d6816118b1565b82525050565b5f6020820190506119ef5f8301846119cd565b92915050565b6119fe81611922565b8114611a08575f80fd5b50565b5f81359050611a19816119f5565b92915050565b5f60208284031215611a3457611a3361184f565b5b5f611a4184828501611a0b565b91505092915050565b5f60208284031215611a5f57611a5e61184f565b5b5f611a6c848285016118d0565b91505092915050565b5f608082019050611a885f8301876119cd565b611a9560208301866119cd565b611aa260408301856119cd565b611aaf60608301846119cd565b95945050505050565b5f60208284031215611acd57611acc61184f565b5b5f611ada8482850161189d565b91505092915050565b5f604082019050611af65f8301856119cd565b611b0360208301846119cd565b9392505050565b5f606082019050611b1d5f8301866119cd565b611b2a60208301856119cd565b611b3760408301846119cd565b949350505050565b5f819050919050565b5f611b62611b5d611b5884611857565b611b3f565b611857565b9050919050565b5f611b7382611b48565b9050919050565b5f611b8482611b69565b9050919050565b611b9481611b7a565b82525050565b5f602082019050611bad5f830184611b8b565b92915050565b5f611bbd82611b69565b9050919050565b611bcd81611bb3565b82525050565b5f602082019050611be65f830184611bc4565b92915050565b5f611bf682611876565b9050919050565b611c0681611bec565b8114611c10575f80fd5b50565b5f81359050611c2181611bfd565b92915050565b5f805f60608486031215611c3e57611c3d61184f565b5b5f611c4b86828701611c13565b9350506020611c5c8682870161189d565b9250506040611c6d868287016118d0565b9150509250925092565b5f82825260208201905092915050565b7f41756374696f6e206973207374696c6c206163746976650000000000000000005f82015250565b5f611cbb601783611c77565b9150611cc682611c87565b602082019050919050565b5f6020820190508181035f830152611ce881611caf565b9050919050565b7f41756374696f6e206461797320617265206e6f7420636f6d706c6574650000005f82015250565b5f611d23601d83611c77565b9150611d2e82611cef565b602082019050919050565b5f6020820190508181035f830152611d5081611d17565b9050919050565b7f496e636f72726563742076616c756500000000000000000000000000000000005f82015250565b5f611d8b600f83611c77565b9150611d9682611d57565b602082019050919050565b5f6020820190508181035f830152611db881611d7f565b9050919050565b7f4e487b71000000000000000000000000000000000000000000000000000000005f52601160045260245ffd5b5f611df6826118b1565b9150611e01836118b1565b9250828203905081811115611e1957611e18611dbf565b5b92915050565b5f604082019050611e325f8301856119a5565b611e3f60208301846119cd565b9392505050565b5f81519050611e54816119f5565b92915050565b5f60208284031215611e6f57611e6e61184f565b5b5f611e7c84828501611e46565b91505092915050565b7f50726f746f6e20746f6b656e207472616e73666572206661696c6564000000005f82015250565b5f611eb9601c83611c77565b9150611ec482611e85565b602082019050919050565b5f6020820190508181035f830152611ee681611ead565b9050919050565b7f4552524f523a204441592076616c7565000000000000000000000000000000005f82015250565b5f611f21601083611c77565b9150611f2c82611eed565b602082019050919050565b5f6020820190508181035f830152611f4e81611f15565b9050919050565b7f4e487b71000000000000000000000000000000000000000000000000000000005f52601260045260245ffd5b5f611f8c826118b1565b9150611f97836118b1565b925082611fa757611fa6611f55565b5b828204905092915050565b5f611fbc826118b1565b9150611fc7836118b1565b9250828201905080821115611fdf57611fde611dbf565b5b92915050565b7f41756374696f6e20616c726561647920737461727465640000000000000000005f82015250565b5f612019601783611c77565b915061202482611fe5565b602082019050919050565b5f6020820190508181035f8301526120468161200d565b9050919050565b5f612057826118b1565b91507fffffffffffffffffffffffffffffffffffffffffffffffffffffffffffffffff820361208957612088611dbf565b5b600182019050919050565b5f61209e826118b1565b91506120a9836118b1565b92508282026120b7816118b1565b915082820484148315176120ce576120cd611dbf565b5b5092915050565b7f41756374696f6e206973207061757365640000000000000000000000000000005f82015250565b5f612109601183611c77565b9150612114826120d5565b602082019050919050565b5f6020820190508181035f830152612136816120fd565b9050919050565b7f43757272656e7420726f756e642068617320656e6465640000000000000000005f82015250565b5f612171601783611c77565b915061217c8261213d565b602082019050919050565b5f6020820190508181035f83015261219e81612165565b9050919050565b7f41756374696f6e20646179732061726520636f6d706c657465000000000000005f82015250565b5f6121d9601983611c77565b91506121e4826121a5565b602082019050919050565b5f6020820190508181035f830152612206816121cd565b9050919050565b7f41756374696f6e20726f756e642068617320656e6465640000000000000000005f82015250565b5f612241601783611c77565b915061224c8261220d565b602082019050919050565b5f6020820190508181035f83015261226e81612235565b9050919050565b5f81519050612283816118ba565b92915050565b5f6020828403121561229e5761229d61184f565b5b5f6122ab84828501612275565b91505092915050565b7f41756374696f6e205061757365640000000000000000000000000000000000005f82015250565b5f6122e8600e83611c77565b91506122f3826122b4565b602082019050919050565b5f6020820190508181035f830152612315816122dc565b9050919050565b7f4e6f74206d6f7265207468616e206c696d6974000000000000000000000000005f82015250565b5f612350601383611c77565b915061235b8261231c565b602082019050919050565b5f6020820190508181035f83015261237d81612344565b9050919050565b5f6060820190506123975f8301866119a5565b6123a460208301856119a5565b6123b160408301846119cd565b949350505050565b7f55534454207472616e73666572206661696c65640000000000000000000000005f82015250565b5f6123ed601483611c77565b91506123f8826123b9565b602082019050919050565b5f6020820190508181035f83015261241a816123e1565b9050919050565b5f80fd5b5f80fd5b5f601f19601f8301169050919050565b7f4e487b71000000000000000000000000000000000000000000000000000000005f52604160045260245ffd5b61246f82612429565b810181811067ffffffffffffffff8211171561248e5761248d612439565b5b80604052505050565b5f6124a0611846565b90506124ac8282612466565b919050565b5f67ffffffffffffffff8211156124cb576124ca612439565b5b6124d482612429565b9050602081019050919050565b8281835e5f83830152505050565b5f6125016124fc846124b1565b612497565b90508281526020810184848401111561251d5761251c612425565b5b6125288482856124e1565b509392505050565b5f82601f83011261254457612543612421565b5b81516125548482602086016124ef565b91505092915050565b5f602082840312156125725761257161184f565b5b5f82015167ffffffffffffffff81111561258f5761258e611853565b5b61259b84828501612530565b91505092915050565b5f81905092915050565b7f41636372656469746564000000000000000000000000000000000000000000005f82015250565b5f6125e2600a836125a4565b91506125ed826125ae565b600a82019050919050565b5f612602826125d6565b9150819050919050565b5f81519050919050565b5f6126208261260c565b61262a81856125a4565b935061263a8185602086016124e1565b80840191505092915050565b5f6126518284612616565b915081905092915050565b7f4e6f6e55530000000000000000000000000000000000000000000000000000005f82015250565b5f6126906005836125a4565b915061269b8261265c565b600582019050919050565b5f6126b082612684565b9150819050919050565b7f496e737469747574696f6e616c000000000000000000000000000000000000005f82015250565b5f6126ee600d836125a4565b91506126f9826126ba565b600d82019050919050565b5f61270e826126e2565b9150819050919050565b5f60608201905061272b5f8301866119a5565b61273860208301856119cd565b61274560408301846119cd565b94935050505056fea2646970667358221220ef30683296452a1ca42564d2ca72364d4046ddafd963bbc19b13b865ecfdb74264736f6c63430008190033",
					"opcodes": "PUSH1 0x80 PUSH1 0x40 MSTORE PUSH8 0xDE0B6B3A7640000 PUSH1 0x3 SSTORE PUSH11 0x1A784379D99DB42000000 PUSH1 0x4 SSTORE PUSH11 0x422CA8B0A00A425000000 PUSH1 0x5 SSTORE PUSH10 0xD3C21BCECCEDA1000000 PUSH1 0x6 SSTORE PUSH1 0xB4 PUSH1 0x9 SSTORE PUSH1 0x1 PUSH1 0xB PUSH0 PUSH2 0x100 EXP DUP2 SLOAD DUP2 PUSH1 0xFF MUL NOT AND SWAP1 DUP4 ISZERO ISZERO MUL OR SWAP1 SSTORE POP CALLVALUE DUP1 ISZERO PUSH2 0x66 JUMPI PUSH0 DUP1 REVERT JUMPDEST POP PUSH1 0x40 MLOAD PUSH2 0x2AC0 CODESIZE SUB DUP1 PUSH2 0x2AC0 DUP4 CODECOPY DUP2 DUP2 ADD PUSH1 0x40 MSTORE DUP2 ADD SWAP1 PUSH2 0x88 SWAP2 SWAP1 PUSH2 0x2CA JUMP JUMPDEST CALLER PUSH0 PUSH20 0xFFFFFFFFFFFFFFFFFFFFFFFFFFFFFFFFFFFFFFFF AND DUP2 PUSH20 0xFFFFFFFFFFFFFFFFFFFFFFFFFFFFFFFFFFFFFFFF AND SUB PUSH2 0xF9 JUMPI PUSH0 PUSH1 0x40 MLOAD PUSH32 0x1E4FBDF700000000000000000000000000000000000000000000000000000000 DUP2 MSTORE PUSH1 0x4 ADD PUSH2 0xF0 SWAP2 SWAP1 PUSH2 0x317 JUMP JUMPDEST PUSH1 0x40 MLOAD DUP1 SWAP2 SUB SWAP1 REVERT JUMPDEST PUSH2 0x108 DUP2 PUSH2 0x1AB PUSH1 0x20 SHL PUSH1 0x20 SHR JUMP JUMPDEST POP DUP2 PUSH1 0x2 PUSH0 PUSH2 0x100 EXP DUP2 SLOAD DUP2 PUSH20 0xFFFFFFFFFFFFFFFFFFFFFFFFFFFFFFFFFFFFFFFF MUL NOT AND SWAP1 DUP4 PUSH20 0xFFFFFFFFFFFFFFFFFFFFFFFFFFFFFFFFFFFFFFFF AND MUL OR SWAP1 SSTORE POP DUP1 PUSH1 0xB PUSH1 0x1 PUSH2 0x100 EXP DUP2 SLOAD DUP2 PUSH20 0xFFFFFFFFFFFFFFFFFFFFFFFFFFFFFFFFFFFFFFFF MUL NOT AND SWAP1 DUP4 PUSH20 0xFFFFFFFFFFFFFFFFFFFFFFFFFFFFFFFFFFFFFFFF AND MUL OR SWAP1 SSTORE POP PUSH1 0x1 PUSH1 0xB PUSH0 PUSH2 0x100 EXP DUP2 SLOAD DUP2 PUSH1 0xFF MUL NOT AND SWAP1 DUP4 ISZERO ISZERO MUL OR SWAP1 SSTORE POP POP POP PUSH2 0x330 JUMP JUMPDEST PUSH0 DUP1 PUSH0 SWAP1 SLOAD SWAP1 PUSH2 0x100 EXP SWAP1 DIV PUSH20 0xFFFFFFFFFFFFFFFFFFFFFFFFFFFFFFFFFFFFFFFF AND SWAP1 POP DUP2 PUSH0 DUP1 PUSH2 0x100 EXP DUP2 SLOAD DUP2 PUSH20 0xFFFFFFFFFFFFFFFFFFFFFFFFFFFFFFFFFFFFFFFF MUL NOT AND SWAP1 DUP4 PUSH20 0xFFFFFFFFFFFFFFFFFFFFFFFFFFFFFFFFFFFFFFFF AND MUL OR SWAP1 SSTORE POP DUP2 PUSH20 0xFFFFFFFFFFFFFFFFFFFFFFFFFFFFFFFFFFFFFFFF AND DUP2 PUSH20 0xFFFFFFFFFFFFFFFFFFFFFFFFFFFFFFFFFFFFFFFF AND PUSH32 0x8BE0079C531659141344CD1FD0A4F28419497F9722A3DAAFE3B4186F6B6457E0 PUSH1 0x40 MLOAD PUSH1 0x40 MLOAD DUP1 SWAP2 SUB SWAP1 LOG3 POP POP JUMP JUMPDEST PUSH0 DUP1 REVERT JUMPDEST PUSH0 PUSH20 0xFFFFFFFFFFFFFFFFFFFFFFFFFFFFFFFFFFFFFFFF DUP3 AND SWAP1 POP SWAP2 SWAP1 POP JUMP JUMPDEST PUSH0 PUSH2 0x299 DUP3 PUSH2 0x270 JUMP JUMPDEST SWAP1 POP SWAP2 SWAP1 POP JUMP JUMPDEST PUSH2 0x2A9 DUP2 PUSH2 0x28F JUMP JUMPDEST DUP2 EQ PUSH2 0x2B3 JUMPI PUSH0 DUP1 REVERT JUMPDEST POP JUMP JUMPDEST PUSH0 DUP2 MLOAD SWAP1 POP PUSH2 0x2C4 DUP2 PUSH2 0x2A0 JUMP JUMPDEST SWAP3 SWAP2 POP POP JUMP JUMPDEST PUSH0 DUP1 PUSH1 0x40 DUP4 DUP6 SUB SLT ISZERO PUSH2 0x2E0 JUMPI PUSH2 0x2DF PUSH2 0x26C JUMP JUMPDEST JUMPDEST PUSH0 PUSH2 0x2ED DUP6 DUP3 DUP7 ADD PUSH2 0x2B6 JUMP JUMPDEST SWAP3 POP POP PUSH1 0x20 PUSH2 0x2FE DUP6 DUP3 DUP7 ADD PUSH2 0x2B6 JUMP JUMPDEST SWAP2 POP POP SWAP3 POP SWAP3 SWAP1 POP JUMP JUMPDEST PUSH2 0x311 DUP2 PUSH2 0x28F JUMP JUMPDEST DUP3 MSTORE POP POP JUMP JUMPDEST PUSH0 PUSH1 0x20 DUP3 ADD SWAP1 POP PUSH2 0x32A PUSH0 DUP4 ADD DUP5 PUSH2 0x308 JUMP JUMPDEST SWAP3 SWAP2 POP POP JUMP JUMPDEST PUSH2 0x2783 DUP1 PUSH2 0x33D PUSH0 CODECOPY PUSH0 RETURN INVALID PUSH1 0x80 PUSH1 0x40 MSTORE CALLVALUE DUP1 ISZERO PUSH2 0xF JUMPI PUSH0 DUP1 REVERT JUMPDEST POP PUSH1 0x4 CALLDATASIZE LT PUSH2 0x1CD JUMPI PUSH0 CALLDATALOAD PUSH1 0xE0 SHR DUP1 PUSH4 0x7FF9B596 GT PUSH2 0x102 JUMPI DUP1 PUSH4 0xBF4DD131 GT PUSH2 0xA0 JUMPI DUP1 PUSH4 0xE0202F87 GT PUSH2 0x6F JUMPI DUP1 PUSH4 0xE0202F87 EQ PUSH2 0x4D9 JUMPI DUP1 PUSH4 0xE8B611D6 EQ PUSH2 0x4F7 JUMPI DUP1 PUSH4 0xF2FDE38B EQ PUSH2 0x515 JUMPI DUP1 PUSH4 0xFA6770B3 EQ PUSH2 0x531 JUMPI PUSH2 0x1CD JUMP JUMPDEST DUP1 PUSH4 0xBF4DD131 EQ PUSH2 0x463 JUMPI DUP1 PUSH4 0xC54E44EB EQ PUSH2 0x481 JUMPI DUP1 PUSH4 0xD358AA20 EQ PUSH2 0x49F JUMPI DUP1 PUSH4 0xDCEFA538 EQ PUSH2 0x4BD JUMPI PUSH2 0x1CD JUMP JUMPDEST DUP1 PUSH4 0x9F7F9DA2 GT PUSH2 0xDC JUMPI DUP1 PUSH4 0x9F7F9DA2 EQ PUSH2 0x3D9 JUMPI DUP1 PUSH4 0xA24BCF46 EQ PUSH2 0x3F7 JUMPI DUP1 PUSH4 0xB187BD26 EQ PUSH2 0x427 JUMPI DUP1 PUSH4 0xBB4D5E7C EQ PUSH2 0x445 JUMPI PUSH2 0x1CD JUMP JUMPDEST DUP1 PUSH4 0x7FF9B596 EQ PUSH2 0x381 JUMPI DUP1 PUSH4 0x8DA5CB5B EQ PUSH2 0x39F JUMPI DUP1 PUSH4 0x91B7F5ED EQ PUSH2 0x3BD JUMPI PUSH2 0x1CD JUMP JUMPDEST DUP1 PUSH4 0x3E6968B6 GT PUSH2 0x16F JUMPI DUP1 PUSH4 0x64E39B87 GT PUSH2 0x149 JUMPI DUP1 PUSH4 0x64E39B87 EQ PUSH2 0x347 JUMPI DUP1 PUSH4 0x6B64C769 EQ PUSH2 0x363 JUMPI DUP1 PUSH4 0x715018A6 EQ PUSH2 0x36D JUMPI DUP1 PUSH4 0x7D350453 EQ PUSH2 0x377 JUMPI PUSH2 0x1CD JUMP JUMPDEST DUP1 PUSH4 0x3E6968B6 EQ PUSH2 0x2C6 JUMPI DUP1 PUSH4 0x5B10493F EQ PUSH2 0x2E4 JUMPI DUP1 PUSH4 0x62E00DD5 EQ PUSH2 0x315 JUMPI PUSH2 0x1CD JUMP JUMPDEST DUP1 PUSH4 0x222D7E34 GT PUSH2 0x1AB JUMPI DUP1 PUSH4 0x222D7E34 EQ PUSH2 0x23B JUMPI DUP1 PUSH4 0x224A8057 EQ PUSH2 0x259 JUMPI DUP1 PUSH4 0x30DB6F95 EQ PUSH2 0x277 JUMPI DUP1 PUSH4 0x3C830A38 EQ PUSH2 0x293 JUMPI PUSH2 0x1CD JUMP JUMPDEST DUP1 PUSH4 0x174E31C4 EQ PUSH2 0x1D1 JUMPI DUP1 PUSH4 0x18D7FA46 EQ PUSH2 0x201 JUMPI DUP1 PUSH4 0x2194F3A2 EQ PUSH2 0x21D JUMPI JUMPDEST PUSH0 DUP1 REVERT JUMPDEST PUSH2 0x1EB PUSH1 0x4 DUP1 CALLDATASIZE SUB DUP2 ADD SWAP1 PUSH2 0x1E6 SWAP2 SWAP1 PUSH2 0x18E4 JUMP JUMPDEST PUSH2 0x550 JUMP JUMPDEST PUSH1 0x40 MLOAD PUSH2 0x1F8 SWAP2 SWAP1 PUSH2 0x193C JUMP JUMPDEST PUSH1 0x40 MLOAD DUP1 SWAP2 SUB SWAP1 RETURN JUMPDEST PUSH2 0x21B PUSH1 0x4 DUP1 CALLDATASIZE SUB DUP2 ADD SWAP1 PUSH2 0x216 SWAP2 SWAP1 PUSH2 0x1955 JUMP JUMPDEST PUSH2 0x7E9 JUMP JUMPDEST STOP JUMPDEST PUSH2 0x225 PUSH2 0x875 JUMP JUMPDEST PUSH1 0x40 MLOAD PUSH2 0x232 SWAP2 SWAP1 PUSH2 0x19B4 JUMP JUMPDEST PUSH1 0x40 MLOAD DUP1 SWAP2 SUB SWAP1 RETURN JUMPDEST PUSH2 0x243 PUSH2 0x89B JUMP JUMPDEST PUSH1 0x40 MLOAD PUSH2 0x250 SWAP2 SWAP1 PUSH2 0x19DC JUMP JUMPDEST PUSH1 0x40 MLOAD DUP1 SWAP2 SUB SWAP1 RETURN JUMPDEST PUSH2 0x261 PUSH2 0x8A1 JUMP JUMPDEST PUSH1 0x40 MLOAD PUSH2 0x26E SWAP2 SWAP1 PUSH2 0x19DC JUMP JUMPDEST PUSH1 0x40 MLOAD DUP1 SWAP2 SUB SWAP1 RETURN JUMPDEST PUSH2 0x291 PUSH1 0x4 DUP1 CALLDATASIZE SUB DUP2 ADD SWAP1 PUSH2 0x28C SWAP2 SWAP1 PUSH2 0x1A1F JUMP JUMPDEST PUSH2 0x8A7 JUMP JUMPDEST STOP JUMPDEST PUSH2 0x2AD PUSH1 0x4 DUP1 CALLDATASIZE SUB DUP2 ADD SWAP1 PUSH2 0x2A8 SWAP2 SWAP1 PUSH2 0x1A4A JUMP JUMPDEST PUSH2 0x8CB JUMP JUMPDEST PUSH1 0x40 MLOAD PUSH2 0x2BD SWAP5 SWAP4 SWAP3 SWAP2 SWAP1 PUSH2 0x1A75 JUMP JUMPDEST PUSH1 0x40 MLOAD DUP1 SWAP2 SUB SWAP1 RETURN JUMPDEST PUSH2 0x2CE PUSH2 0x8F7 JUMP JUMPDEST PUSH1 0x40 MLOAD PUSH2 0x2DB SWAP2 SWAP1 PUSH2 0x19DC JUMP JUMPDEST PUSH1 0x40 MLOAD DUP1 SWAP2 SUB SWAP1 RETURN JUMPDEST PUSH2 0x2FE PUSH1 0x4 DUP1 CALLDATASIZE SUB DUP2 ADD SWAP1 PUSH2 0x2F9 SWAP2 SWAP1 PUSH2 0x1AB8 JUMP JUMPDEST PUSH2 0x96D JUMP JUMPDEST PUSH1 0x40 MLOAD PUSH2 0x30C SWAP3 SWAP2 SWAP1 PUSH2 0x1AE3 JUMP JUMPDEST PUSH1 0x40 MLOAD DUP1 SWAP2 SUB SWAP1 RETURN JUMPDEST PUSH2 0x32F PUSH1 0x4 DUP1 CALLDATASIZE SUB DUP2 ADD SWAP1 PUSH2 0x32A SWAP2 SWAP1 PUSH2 0x1A4A JUMP JUMPDEST PUSH2 0x98D JUMP JUMPDEST PUSH1 0x40 MLOAD PUSH2 0x33E SWAP4 SWAP3 SWAP2 SWAP1 PUSH2 0x1B0A JUMP JUMPDEST PUSH1 0x40 MLOAD DUP1 SWAP2 SUB SWAP1 RETURN JUMPDEST PUSH2 0x361 PUSH1 0x4 DUP1 CALLDATASIZE SUB DUP2 ADD SWAP1 PUSH2 0x35C SWAP2 SWAP1 PUSH2 0x1AB8 JUMP JUMPDEST PUSH2 0x9F2 JUMP JUMPDEST STOP JUMPDEST PUSH2 0x36B PUSH2 0xA3E JUMP JUMPDEST STOP JUMPDEST PUSH2 0x375 PUSH2 0xB4E JUMP JUMPDEST STOP JUMPDEST PUSH2 0x37F PUSH2 0xB61 JUMP JUMPDEST STOP JUMPDEST PUSH2 0x389 PUSH2 0xCE3 JUMP JUMPDEST PUSH1 0x40 MLOAD PUSH2 0x396 SWAP2 SWAP1 PUSH2 0x19DC JUMP JUMPDEST PUSH1 0x40 MLOAD DUP1 SWAP2 SUB SWAP1 RETURN JUMPDEST PUSH2 0x3A7 PUSH2 0xCE9 JUMP JUMPDEST PUSH1 0x40 MLOAD PUSH2 0x3B4 SWAP2 SWAP1 PUSH2 0x19B4 JUMP JUMPDEST PUSH1 0x40 MLOAD DUP1 SWAP2 SUB SWAP1 RETURN JUMPDEST PUSH2 0x3D7 PUSH1 0x4 DUP1 CALLDATASIZE SUB DUP2 ADD SWAP1 PUSH2 0x3D2 SWAP2 SWAP1 PUSH2 0x1A4A JUMP JUMPDEST PUSH2 0xD10 JUMP JUMPDEST STOP JUMPDEST PUSH2 0x3E1 PUSH2 0xD22 JUMP JUMPDEST PUSH1 0x40 MLOAD PUSH2 0x3EE SWAP2 SWAP1 PUSH2 0x19DC JUMP JUMPDEST PUSH1 0x40 MLOAD DUP1 SWAP2 SUB SWAP1 RETURN JUMPDEST PUSH2 0x411 PUSH1 0x4 DUP1 CALLDATASIZE SUB DUP2 ADD SWAP1 PUSH2 0x40C SWAP2 SWAP1 PUSH2 0x1A4A JUMP JUMPDEST PUSH2 0xD28 JUMP JUMPDEST PUSH1 0x40 MLOAD PUSH2 0x41E SWAP2 SWAP1 PUSH2 0x19DC JUMP JUMPDEST PUSH1 0x40 MLOAD DUP1 SWAP2 SUB SWAP1 RETURN JUMPDEST PUSH2 0x42F PUSH2 0xD51 JUMP JUMPDEST PUSH1 0x40 MLOAD PUSH2 0x43C SWAP2 SWAP1 PUSH2 0x193C JUMP JUMPDEST PUSH1 0x40 MLOAD DUP1 SWAP2 SUB SWAP1 RETURN JUMPDEST PUSH2 0x44D PUSH2 0xD63 JUMP JUMPDEST PUSH1 0x40 MLOAD PUSH2 0x45A SWAP2 SWAP1 PUSH2 0x19DC JUMP JUMPDEST PUSH1 0x40 MLOAD DUP1 SWAP2 SUB SWAP1 RETURN JUMPDEST PUSH2 0x46B PUSH2 0xD69 JUMP JUMPDEST PUSH1 0x40 MLOAD PUSH2 0x478 SWAP2 SWAP1 PUSH2 0x19DC JUMP JUMPDEST PUSH1 0x40 MLOAD DUP1 SWAP2 SUB SWAP1 RETURN JUMPDEST PUSH2 0x489 PUSH2 0xD6F JUMP JUMPDEST PUSH1 0x40 MLOAD PUSH2 0x496 SWAP2 SWAP1 PUSH2 0x1B9A JUMP JUMPDEST PUSH1 0x40 MLOAD DUP1 SWAP2 SUB SWAP1 RETURN JUMPDEST PUSH2 0x4A7 PUSH2 0xD94 JUMP JUMPDEST PUSH1 0x40 MLOAD PUSH2 0x4B4 SWAP2 SWAP1 PUSH2 0x1BD3 JUMP JUMPDEST PUSH1 0x40 MLOAD DUP1 SWAP2 SUB SWAP1 RETURN JUMPDEST PUSH2 0x4D7 PUSH1 0x4 DUP1 CALLDATASIZE SUB DUP2 ADD SWAP1 PUSH2 0x4D2 SWAP2 SWAP1 PUSH2 0x1C27 JUMP JUMPDEST PUSH2 0xDB9 JUMP JUMPDEST STOP JUMPDEST PUSH2 0x4E1 PUSH2 0x1657 JUMP JUMPDEST PUSH1 0x40 MLOAD PUSH2 0x4EE SWAP2 SWAP1 PUSH2 0x19DC JUMP JUMPDEST PUSH1 0x40 MLOAD DUP1 SWAP2 SUB SWAP1 RETURN JUMPDEST PUSH2 0x4FF PUSH2 0x165D JUMP JUMPDEST PUSH1 0x40 MLOAD PUSH2 0x50C SWAP2 SWAP1 PUSH2 0x19DC JUMP JUMPDEST PUSH1 0x40 MLOAD DUP1 SWAP2 SUB SWAP1 RETURN JUMPDEST PUSH2 0x52F PUSH1 0x4 DUP1 CALLDATASIZE SUB DUP2 ADD SWAP1 PUSH2 0x52A SWAP2 SWAP1 PUSH2 0x1AB8 JUMP JUMPDEST PUSH2 0x1663 JUMP JUMPDEST STOP JUMPDEST PUSH2 0x539 PUSH2 0x16E7 JUMP JUMPDEST PUSH1 0x40 MLOAD PUSH2 0x547 SWAP3 SWAP2 SWAP1 PUSH2 0x1AE3 JUMP JUMPDEST PUSH1 0x40 MLOAD DUP1 SWAP2 SUB SWAP1 RETURN JUMPDEST PUSH0 PUSH1 0xB PUSH0 SWAP1 SLOAD SWAP1 PUSH2 0x100 EXP SWAP1 DIV PUSH1 0xFF AND PUSH2 0x59F JUMPI PUSH1 0x40 MLOAD PUSH32 0x8C379A000000000000000000000000000000000000000000000000000000000 DUP2 MSTORE PUSH1 0x4 ADD PUSH2 0x596 SWAP1 PUSH2 0x1CD1 JUMP JUMPDEST PUSH1 0x40 MLOAD DUP1 SWAP2 SUB SWAP1 REVERT JUMPDEST PUSH1 0x7 SLOAD TIMESTAMP GT PUSH2 0x5E3 JUMPI PUSH1 0x40 MLOAD PUSH32 0x8C379A000000000000000000000000000000000000000000000000000000000 DUP2 MSTORE PUSH1 0x4 ADD PUSH2 0x5DA SWAP1 PUSH2 0x1D39 JUMP JUMPDEST PUSH1 0x40 MLOAD DUP1 SWAP2 SUB SWAP1 REVERT JUMPDEST PUSH0 PUSH1 0xD PUSH0 DUP6 PUSH20 0xFFFFFFFFFFFFFFFFFFFFFFFFFFFFFFFFFFFFFFFF AND PUSH20 0xFFFFFFFFFFFFFFFFFFFFFFFFFFFFFFFFFFFFFFFF AND DUP2 MSTORE PUSH1 0x20 ADD SWAP1 DUP2 MSTORE PUSH1 0x20 ADD PUSH0 KECCAK256 PUSH0 ADD SLOAD GT DUP1 ISZERO PUSH2 0x670 JUMPI POP PUSH1 0xD PUSH0 DUP5 PUSH20 0xFFFFFFFFFFFFFFFFFFFFFFFFFFFFFFFFFFFFFFFF AND PUSH20 0xFFFFFFFFFFFFFFFFFFFFFFFFFFFFFFFFFFFFFFFF AND DUP2 MSTORE PUSH1 0x20 ADD SWAP1 DUP2 MSTORE PUSH1 0x20 ADD PUSH0 KECCAK256 PUSH0 ADD SLOAD DUP3 GT ISZERO JUMPDEST PUSH2 0x6AF JUMPI PUSH1 0x40 MLOAD PUSH32 0x8C379A000000000000000000000000000000000000000000000000000000000 DUP2 MSTORE PUSH1 0x4 ADD PUSH2 0x6A6 SWAP1 PUSH2 0x1DA1 JUMP JUMPDEST PUSH1 0x40 MLOAD DUP1 SWAP2 SUB SWAP1 REVERT JUMPDEST DUP2 PUSH1 0xD PUSH0 DUP6 PUSH20 0xFFFFFFFFFFFFFFFFFFFFFFFFFFFFFFFFFFFFFFFF AND PUSH20 0xFFFFFFFFFFFFFFFFFFFFFFFFFFFFFFFFFFFFFFFF AND DUP2 MSTORE PUSH1 0x20 ADD SWAP1 DUP2 MSTORE PUSH1 0x20 ADD PUSH0 KECCAK256 PUSH0 ADD PUSH0 DUP3 DUP3 SLOAD PUSH2 0x6FD SWAP2 SWAP1 PUSH2 0x1DEC JUMP JUMPDEST SWAP3 POP POP DUP2 SWAP1 SSTORE POP PUSH1 0x2 PUSH0 SWAP1 SLOAD SWAP1 PUSH2 0x100 EXP SWAP1 DIV PUSH20 0xFFFFFFFFFFFFFFFFFFFFFFFFFFFFFFFFFFFFFFFF AND PUSH20 0xFFFFFFFFFFFFFFFFFFFFFFFFFFFFFFFFFFFFFFFF AND PUSH4 0xA9059CBB DUP5 DUP5 PUSH1 0x40 MLOAD DUP4 PUSH4 0xFFFFFFFF AND PUSH1 0xE0 SHL DUP2 MSTORE PUSH1 0x4 ADD PUSH2 0x760 SWAP3 SWAP2 SWAP1 PUSH2 0x1E1F JUMP JUMPDEST PUSH1 0x20 PUSH1 0x40 MLOAD DUP1 DUP4 SUB DUP2 PUSH0 DUP8 GAS CALL ISZERO DUP1 ISZERO PUSH2 0x77C JUMPI RETURNDATASIZE PUSH0 DUP1 RETURNDATACOPY RETURNDATASIZE PUSH0 REVERT JUMPDEST POP POP POP POP PUSH1 0x40 MLOAD RETURNDATASIZE PUSH1 0x1F NOT PUSH1 0x1F DUP3 ADD AND DUP3 ADD DUP1 PUSH1 0x40 MSTORE POP DUP2 ADD SWAP1 PUSH2 0x7A0 SWAP2 SWAP1 PUSH2 0x1E5A JUMP JUMPDEST PUSH2 0x7DF JUMPI PUSH1 0x40 MLOAD PUSH32 0x8C379A000000000000000000000000000000000000000000000000000000000 DUP2 MSTORE PUSH1 0x4 ADD PUSH2 0x7D6 SWAP1 PUSH2 0x1ECF JUMP JUMPDEST PUSH1 0x40 MLOAD DUP1 SWAP2 SUB SWAP1 REVERT JUMPDEST PUSH1 0x1 SWAP1 POP SWAP3 SWAP2 POP POP JUMP JUMPDEST PUSH2 0x7F1 PUSH2 0x16F7 JUMP JUMPDEST PUSH1 0x7 DUP4 LT DUP1 ISZERO PUSH2 0x800 JUMPI POP PUSH0 DUP4 GT JUMPDEST PUSH2 0x83F JUMPI PUSH1 0x40 MLOAD PUSH32 0x8C379A000000000000000000000000000000000000000000000000000000000 DUP2 MSTORE PUSH1 0x4 ADD PUSH2 0x836 SWAP1 PUSH2 0x1F37 JUMP JUMPDEST PUSH1 0x40 MLOAD DUP1 SWAP2 SUB SWAP1 REVERT JUMPDEST DUP1 PUSH1 0xC PUSH0 DUP6 DUP2 MSTORE PUSH1 0x20 ADD SWAP1 DUP2 MSTORE PUSH1 0x20 ADD PUSH0 KECCAK256 PUSH1 0x3 ADD DUP2 SWAP1 SSTORE POP DUP2 PUSH1 0xC PUSH0 DUP6 DUP2 MSTORE PUSH1 0x20 ADD SWAP1 DUP2 MSTORE PUSH1 0x20 ADD PUSH0 KECCAK256 PUSH0 ADD DUP2 SWAP1 SSTORE POP POP POP POP JUMP JUMPDEST PUSH1 0xB PUSH1 0x1 SWAP1 SLOAD SWAP1 PUSH2 0x100 EXP SWAP1 DIV PUSH20 0xFFFFFFFFFFFFFFFFFFFFFFFFFFFFFFFFFFFFFFFF AND DUP2 JUMP JUMPDEST PUSH1 0xA SLOAD DUP2 JUMP JUMPDEST PUSH1 0x6 SLOAD DUP2 JUMP JUMPDEST PUSH2 0x8AF PUSH2 0x16F7 JUMP JUMPDEST DUP1 PUSH1 0xB PUSH0 PUSH2 0x100 EXP DUP2 SLOAD DUP2 PUSH1 0xFF MUL NOT AND SWAP1 DUP4 ISZERO ISZERO MUL OR SWAP1 SSTORE POP POP JUMP JUMPDEST PUSH1 0xC PUSH1 0x20 MSTORE DUP1 PUSH0 MSTORE PUSH1 0x40 PUSH0 KECCAK256 PUSH0 SWAP2 POP SWAP1 POP DUP1 PUSH0 ADD SLOAD SWAP1 DUP1 PUSH1 0x1 ADD SLOAD SWAP1 DUP1 PUSH1 0x2 ADD SLOAD SWAP1 DUP1 PUSH1 0x3 ADD SLOAD SWAP1 POP DUP5 JUMP JUMPDEST PUSH0 PUSH1 0xB PUSH0 SWAP1 SLOAD SWAP1 PUSH2 0x100 EXP SWAP1 DIV PUSH1 0xFF AND DUP1 PUSH2 0x913 JUMPI POP PUSH1 0x7 SLOAD TIMESTAMP GT JUMPDEST ISZERO PUSH2 0x921 JUMPI PUSH1 0x8 SWAP1 POP PUSH2 0x96A JUMP JUMPDEST PUSH0 PUSH1 0xA SLOAD TIMESTAMP PUSH2 0x930 SWAP2 SWAP1 PUSH2 0x1DEC JUMP JUMPDEST SWAP1 POP PUSH0 PUSH1 0x1 PUSH3 0x15180 DUP4 PUSH2 0x944 SWAP2 SWAP1 PUSH2 0x1F82 JUMP JUMPDEST PUSH2 0x94E SWAP2 SWAP1 PUSH2 0x1FB2 JUMP JUMPDEST SWAP1 POP PUSH1 0x7 DUP2 GT ISZERO PUSH2 0x964 JUMPI PUSH1 0x7 SWAP3 POP POP POP PUSH2 0x96A JUMP JUMPDEST DUP1 SWAP3 POP POP POP JUMPDEST SWAP1 JUMP JUMPDEST PUSH1 0xD PUSH1 0x20 MSTORE DUP1 PUSH0 MSTORE PUSH1 0x40 PUSH0 KECCAK256 PUSH0 SWAP2 POP SWAP1 POP DUP1 PUSH0 ADD SLOAD SWAP1 DUP1 PUSH1 0x1 ADD SLOAD SWAP1 POP DUP3 JUMP JUMPDEST PUSH0 DUP1 PUSH0 DUP1 PUSH1 0xC PUSH0 DUP7 DUP2 MSTORE PUSH1 0x20 ADD SWAP1 DUP2 MSTORE PUSH1 0x20 ADD PUSH0 KECCAK256 PUSH1 0x40 MLOAD DUP1 PUSH1 0x80 ADD PUSH1 0x40 MSTORE SWAP1 DUP2 PUSH0 DUP3 ADD SLOAD DUP2 MSTORE PUSH1 0x20 ADD PUSH1 0x1 DUP3 ADD SLOAD DUP2 MSTORE PUSH1 0x20 ADD PUSH1 0x2 DUP3 ADD SLOAD DUP2 MSTORE PUSH1 0x20 ADD PUSH1 0x3 DUP3 ADD SLOAD DUP2 MSTORE POP POP SWAP1 POP DUP1 PUSH0 ADD MLOAD DUP2 PUSH1 0x20 ADD MLOAD DUP3 PUSH1 0x60 ADD MLOAD SWAP4 POP SWAP4 POP SWAP4 POP POP SWAP2 SWAP4 SWAP1 SWAP3 POP JUMP JUMPDEST PUSH2 0x9FA PUSH2 0x16F7 JUMP JUMPDEST DUP1 PUSH1 0xB PUSH1 0x1 PUSH2 0x100 EXP DUP2 SLOAD DUP2 PUSH20 0xFFFFFFFFFFFFFFFFFFFFFFFFFFFFFFFFFFFFFFFF MUL NOT AND SWAP1 DUP4 PUSH20 0xFFFFFFFFFFFFFFFFFFFFFFFFFFFFFFFFFFFFFFFF AND MUL OR SWAP1 SSTORE POP POP JUMP JUMPDEST PUSH2 0xA46 PUSH2 0x16F7 JUMP JUMPDEST PUSH1 0xB PUSH0 SWAP1 SLOAD SWAP1 PUSH2 0x100 EXP SWAP1 DIV PUSH1 0xFF AND PUSH2 0xA94 JUMPI PUSH1 0x40 MLOAD PUSH32 0x8C379A000000000000000000000000000000000000000000000000000000000 DUP2 MSTORE PUSH1 0x4 ADD PUSH2 0xA8B SWAP1 PUSH2 0x202F JUMP JUMPDEST PUSH1 0x40 MLOAD DUP1 SWAP2 SUB SWAP1 REVERT JUMPDEST PUSH0 PUSH1 0xB PUSH0 PUSH2 0x100 EXP DUP2 SLOAD DUP2 PUSH1 0xFF MUL NOT AND SWAP1 DUP4 ISZERO ISZERO MUL OR SWAP1 SSTORE POP PUSH3 0x93A80 TIMESTAMP PUSH2 0xABC SWAP2 SWAP1 PUSH2 0x1FB2 JUMP JUMPDEST PUSH1 0x7 DUP2 SWAP1 SSTORE POP TIMESTAMP PUSH1 0xA DUP2 SWAP1 SSTORE POP PUSH0 PUSH1 0x1 SWAP1 POP JUMPDEST PUSH1 0x7 DUP2 GT PUSH2 0xB4B JUMPI PUSH11 0x1A784379D99DB42000000 PUSH1 0xC PUSH0 DUP4 DUP2 MSTORE PUSH1 0x20 ADD SWAP1 DUP2 MSTORE PUSH1 0x20 ADD PUSH0 KECCAK256 PUSH0 ADD DUP2 SWAP1 SSTORE POP PUSH1 0x5 DUP2 GT ISZERO PUSH2 0xB1A JUMPI PUSH1 0x6 DUP2 EQ PUSH2 0xB12 JUMPI PUSH1 0x1 PUSH2 0xB15 JUMP JUMPDEST PUSH1 0x2 JUMPDEST PUSH2 0xB1D JUMP JUMPDEST PUSH1 0x3 JUMPDEST PUSH1 0xFF AND PUSH1 0xC PUSH0 DUP4 DUP2 MSTORE PUSH1 0x20 ADD SWAP1 DUP2 MSTORE PUSH1 0x20 ADD PUSH0 KECCAK256 PUSH1 0x3 ADD DUP2 SWAP1 SSTORE POP DUP1 DUP1 PUSH2 0xB43 SWAP1 PUSH2 0x204D JUMP JUMPDEST SWAP2 POP POP PUSH2 0xACF JUMP JUMPDEST POP JUMP JUMPDEST PUSH2 0xB56 PUSH2 0x16F7 JUMP JUMPDEST PUSH2 0xB5F PUSH0 PUSH2 0x177E JUMP JUMPDEST JUMP JUMPDEST PUSH2 0xB69 PUSH2 0x16F7 JUMP JUMPDEST PUSH1 0x1 PUSH1 0xB PUSH0 PUSH2 0x100 EXP DUP2 SLOAD DUP2 PUSH1 0xFF MUL NOT AND SWAP1 DUP4 ISZERO ISZERO MUL OR SWAP1 SSTORE POP PUSH0 PUSH1 0x7 DUP2 SWAP1 SSTORE POP PUSH0 PUSH1 0xA DUP2 SWAP1 SSTORE POP PUSH1 0xC PUSH0 PUSH1 0x1 DUP2 MSTORE PUSH1 0x20 ADD SWAP1 DUP2 MSTORE PUSH1 0x20 ADD PUSH0 KECCAK256 PUSH1 0x1 ADD PUSH0 SWAP1 SSTORE PUSH1 0xC PUSH0 PUSH1 0x2 DUP2 MSTORE PUSH1 0x20 ADD SWAP1 DUP2 MSTORE PUSH1 0x20 ADD PUSH0 KECCAK256 PUSH1 0x1 ADD PUSH0 SWAP1 SSTORE PUSH1 0xC PUSH0 PUSH1 0x3 DUP2 MSTORE PUSH1 0x20 ADD SWAP1 DUP2 MSTORE PUSH1 0x20 ADD PUSH0 KECCAK256 PUSH1 0x1 ADD PUSH0 SWAP1 SSTORE PUSH1 0xC PUSH0 PUSH1 0x4 DUP2 MSTORE PUSH1 0x20 ADD SWAP1 DUP2 MSTORE PUSH1 0x20 ADD PUSH0 KECCAK256 PUSH1 0x1 ADD PUSH0 SWAP1 SSTORE PUSH1 0xC PUSH0 PUSH1 0x5 DUP2 MSTORE PUSH1 0x20 ADD SWAP1 DUP2 MSTORE PUSH1 0x20 ADD PUSH0 KECCAK256 PUSH1 0x1 ADD PUSH0 SWAP1 SSTORE PUSH1 0xC PUSH0 PUSH1 0x6 DUP2 MSTORE PUSH1 0x20 ADD SWAP1 DUP2 MSTORE PUSH1 0x20 ADD PUSH0 KECCAK256 PUSH1 0x1 ADD PUSH0 SWAP1 SSTORE PUSH1 0xC PUSH0 PUSH1 0x7 DUP2 MSTORE PUSH1 0x20 ADD SWAP1 DUP2 MSTORE PUSH1 0x20 ADD PUSH0 KECCAK256 PUSH1 0x1 ADD PUSH0 SWAP1 SSTORE PUSH1 0xC PUSH0 PUSH1 0x2 DUP2 MSTORE PUSH1 0x20 ADD SWAP1 DUP2 MSTORE PUSH1 0x20 ADD PUSH0 KECCAK256 PUSH1 0x2 ADD PUSH0 SWAP1 SSTORE PUSH1 0xC PUSH0 PUSH1 0x1 DUP2 MSTORE PUSH1 0x20 ADD SWAP1 DUP2 MSTORE PUSH1 0x20 ADD PUSH0 KECCAK256 PUSH1 0x2 ADD PUSH0 SWAP1 SSTORE PUSH1 0xC PUSH0 PUSH1 0x3 DUP2 MSTORE PUSH1 0x20 ADD SWAP1 DUP2 MSTORE PUSH1 0x20 ADD PUSH0 KECCAK256 PUSH1 0x2 ADD PUSH0 SWAP1 SSTORE PUSH1 0xC PUSH0 PUSH1 0x4 DUP2 MSTORE PUSH1 0x20 ADD SWAP1 DUP2 MSTORE PUSH1 0x20 ADD PUSH0 KECCAK256 PUSH1 0x2 ADD PUSH0 SWAP1 SSTORE PUSH1 0xC PUSH0 PUSH1 0x5 DUP2 MSTORE PUSH1 0x20 ADD SWAP1 DUP2 MSTORE PUSH1 0x20 ADD PUSH0 KECCAK256 PUSH1 0x2 ADD PUSH0 SWAP1 SSTORE PUSH1 0xC PUSH0 PUSH1 0x7 DUP2 MSTORE PUSH1 0x20 ADD SWAP1 DUP2 MSTORE PUSH1 0x20 ADD PUSH0 KECCAK256 PUSH1 0x2 ADD PUSH0 SWAP1 SSTORE PUSH1 0xC PUSH0 PUSH1 0x6 DUP2 MSTORE PUSH1 0x20 ADD SWAP1 DUP2 MSTORE PUSH1 0x20 ADD PUSH0 KECCAK256 PUSH1 0x2 ADD PUSH0 SWAP1 SSTORE JUMP JUMPDEST PUSH1 0x3 SLOAD DUP2 JUMP JUMPDEST PUSH0 DUP1 PUSH0 SWAP1 SLOAD SWAP1 PUSH2 0x100 EXP SWAP1 DIV PUSH20 0xFFFFFFFFFFFFFFFFFFFFFFFFFFFFFFFFFFFFFFFF AND SWAP1 POP SWAP1 JUMP JUMPDEST PUSH2 0xD18 PUSH2 0x16F7 JUMP JUMPDEST DUP1 PUSH1 0x3 DUP2 SWAP1 SSTORE POP POP JUMP JUMPDEST PUSH1 0x7 SLOAD DUP2 JUMP JUMPDEST PUSH0 PUSH1 0x3 SLOAD PUSH8 0xDE0B6B3A7640000 DUP4 PUSH2 0xD40 SWAP2 SWAP1 PUSH2 0x2094 JUMP JUMPDEST PUSH2 0xD4A SWAP2 SWAP1 PUSH2 0x1F82 JUMP JUMPDEST SWAP1 POP SWAP2 SWAP1 POP JUMP JUMPDEST PUSH1 0xB PUSH0 SWAP1 SLOAD SWAP1 PUSH2 0x100 EXP SWAP1 DIV PUSH1 0xFF AND DUP2 JUMP JUMPDEST PUSH1 0x5 SLOAD DUP2 JUMP JUMPDEST PUSH1 0x9 SLOAD DUP2 JUMP JUMPDEST PUSH1 0x1 PUSH0 SWAP1 SLOAD SWAP1 PUSH2 0x100 EXP SWAP1 DIV PUSH20 0xFFFFFFFFFFFFFFFFFFFFFFFFFFFFFFFFFFFFFFFF AND DUP2 JUMP JUMPDEST PUSH1 0x2 PUSH0 SWAP1 SLOAD SWAP1 PUSH2 0x100 EXP SWAP1 DIV PUSH20 0xFFFFFFFFFFFFFFFFFFFFFFFFFFFFFFFFFFFFFFFF AND DUP2 JUMP JUMPDEST PUSH1 0xB PUSH0 SWAP1 SLOAD SWAP1 PUSH2 0x100 EXP SWAP1 DIV PUSH1 0xFF AND ISZERO PUSH2 0xE08 JUMPI PUSH1 0x40 MLOAD PUSH32 0x8C379A000000000000000000000000000000000000000000000000000000000 DUP2 MSTORE PUSH1 0x4 ADD PUSH2 0xDFF SWAP1 PUSH2 0x211F JUMP JUMPDEST PUSH1 0x40 MLOAD DUP1 SWAP2 SUB SWAP1 REVERT JUMPDEST PUSH1 0x7 SLOAD TIMESTAMP GT ISZERO PUSH2 0xE4D JUMPI PUSH1 0x40 MLOAD PUSH32 0x8C379A000000000000000000000000000000000000000000000000000000000 DUP2 MSTORE PUSH1 0x4 ADD PUSH2 0xE44 SWAP1 PUSH2 0x2187 JUMP JUMPDEST PUSH1 0x40 MLOAD DUP1 SWAP2 SUB SWAP1 REVERT JUMPDEST PUSH0 PUSH2 0xE56 PUSH2 0x8F7 JUMP JUMPDEST SWAP1 POP PUSH1 0x7 DUP2 GT ISZERO PUSH2 0xE9C JUMPI PUSH1 0x40 MLOAD PUSH32 0x8C379A000000000000000000000000000000000000000000000000000000000 DUP2 MSTORE PUSH1 0x4 ADD PUSH2 0xE93 SWAP1 PUSH2 0x21EF JUMP JUMPDEST PUSH1 0x40 MLOAD DUP1 SWAP2 SUB SWAP1 REVERT JUMPDEST PUSH0 PUSH1 0xC PUSH0 DUP4 DUP2 MSTORE PUSH1 0x20 ADD SWAP1 DUP2 MSTORE PUSH1 0x20 ADD PUSH0 KECCAK256 SWAP1 POP PUSH1 0x7 DUP3 SUB PUSH2 0xEFE JUMPI PUSH1 0x7 SLOAD TIMESTAMP GT ISZERO PUSH2 0xEFD JUMPI PUSH1 0x40 MLOAD PUSH32 0x8C379A000000000000000000000000000000000000000000000000000000000 DUP2 MSTORE PUSH1 0x4 ADD PUSH2 0xEF4 SWAP1 PUSH2 0x2257 JUMP JUMPDEST PUSH1 0x40 MLOAD DUP1 SWAP2 SUB SWAP1 REVERT JUMPDEST JUMPDEST PUSH1 0x6 DUP3 EQ DUP1 PUSH2 0xF0D JUMPI POP PUSH1 0x7 DUP3 EQ JUMPDEST ISZERO PUSH2 0xFB3 JUMPI PUSH1 0x2 PUSH0 SWAP1 SLOAD SWAP1 PUSH2 0x100 EXP SWAP1 DIV PUSH20 0xFFFFFFFFFFFFFFFFFFFFFFFFFFFFFFFFFFFFFFFF AND PUSH20 0xFFFFFFFFFFFFFFFFFFFFFFFFFFFFFFFFFFFFFFFF AND PUSH4 0x70A08231 ADDRESS PUSH1 0x40 MLOAD DUP3 PUSH4 0xFFFFFFFF AND PUSH1 0xE0 SHL DUP2 MSTORE PUSH1 0x4 ADD PUSH2 0xF6C SWAP2 SWAP1 PUSH2 0x19B4 JUMP JUMPDEST PUSH1 0x20 PUSH1 0x40 MLOAD DUP1 DUP4 SUB DUP2 DUP7 GAS STATICCALL ISZERO DUP1 ISZERO PUSH2 0xF87 JUMPI RETURNDATASIZE PUSH0 DUP1 RETURNDATACOPY RETURNDATASIZE PUSH0 REVERT JUMPDEST POP POP POP POP PUSH1 0x40 MLOAD RETURNDATASIZE PUSH1 0x1F NOT PUSH1 0x1F DUP3 ADD AND DUP3 ADD DUP1 PUSH1 0x40 MSTORE POP DUP2 ADD SWAP1 PUSH2 0xFAB SWAP2 SWAP1 PUSH2 0x2289 JUMP JUMPDEST DUP2 PUSH0 ADD DUP2 SWAP1 SSTORE POP JUMPDEST PUSH1 0xB PUSH0 SWAP1 SLOAD SWAP1 PUSH2 0x100 EXP SWAP1 DIV PUSH1 0xFF AND ISZERO PUSH2 0x1002 JUMPI PUSH1 0x40 MLOAD PUSH32 0x8C379A000000000000000000000000000000000000000000000000000000000 DUP2 MSTORE PUSH1 0x4 ADD PUSH2 0xFF9 SWAP1 PUSH2 0x22FE JUMP JUMPDEST PUSH1 0x40 MLOAD DUP1 SWAP2 SUB SWAP1 REVERT JUMPDEST PUSH1 0x5 SLOAD DUP2 PUSH1 0x1 ADD SLOAD LT PUSH2 0x104A JUMPI PUSH1 0x40 MLOAD PUSH32 0x8C379A000000000000000000000000000000000000000000000000000000000 DUP2 MSTORE PUSH1 0x4 ADD PUSH2 0x1041 SWAP1 PUSH2 0x2366 JUMP JUMPDEST PUSH1 0x40 MLOAD DUP1 SWAP2 SUB SWAP1 REVERT JUMPDEST PUSH1 0x6 SLOAD DUP2 PUSH1 0x2 ADD SLOAD LT PUSH2 0x1092 JUMPI PUSH1 0x40 MLOAD PUSH32 0x8C379A000000000000000000000000000000000000000000000000000000000 DUP2 MSTORE PUSH1 0x4 ADD PUSH2 0x1089 SWAP1 PUSH2 0x2366 JUMP JUMPDEST PUSH1 0x40 MLOAD DUP1 SWAP2 SUB SWAP1 REVERT JUMPDEST PUSH0 PUSH8 0xDE0B6B3A7640000 PUSH1 0x3 SLOAD DUP6 PUSH2 0x10AA SWAP2 SWAP1 PUSH2 0x2094 JUMP JUMPDEST PUSH2 0x10B4 SWAP2 SWAP1 PUSH2 0x1F82 JUMP JUMPDEST SWAP1 POP DUP6 PUSH20 0xFFFFFFFFFFFFFFFFFFFFFFFFFFFFFFFFFFFFFFFF AND PUSH4 0x23B872DD CALLER PUSH1 0xB PUSH1 0x1 SWAP1 SLOAD SWAP1 PUSH2 0x100 EXP SWAP1 DIV PUSH20 0xFFFFFFFFFFFFFFFFFFFFFFFFFFFFFFFFFFFFFFFF AND DUP5 PUSH1 0x40 MLOAD DUP5 PUSH4 0xFFFFFFFF AND PUSH1 0xE0 SHL DUP2 MSTORE PUSH1 0x4 ADD PUSH2 0x1115 SWAP4 SWAP3 SWAP2 SWAP1 PUSH2 0x2384 JUMP JUMPDEST PUSH1 0x20 PUSH1 0x40 MLOAD DUP1 DUP4 SUB DUP2 PUSH0 DUP8 GAS CALL ISZERO DUP1 ISZERO PUSH2 0x1131 JUMPI RETURNDATASIZE PUSH0 DUP1 RETURNDATACOPY RETURNDATASIZE PUSH0 REVERT JUMPDEST POP POP POP POP PUSH1 0x40 MLOAD RETURNDATASIZE PUSH1 0x1F NOT PUSH1 0x1F DUP3 ADD AND DUP3 ADD DUP1 PUSH1 0x40 MSTORE POP DUP2 ADD SWAP1 PUSH2 0x1155 SWAP2 SWAP1 PUSH2 0x1E5A JUMP JUMPDEST PUSH2 0x1194 JUMPI PUSH1 0x40 MLOAD PUSH32 0x8C379A000000000000000000000000000000000000000000000000000000000 DUP2 MSTORE PUSH1 0x4 ADD PUSH2 0x118B SWAP1 PUSH2 0x2403 JUMP JUMPDEST PUSH1 0x40 MLOAD DUP1 SWAP2 SUB SWAP1 REVERT JUMPDEST PUSH0 DUP3 PUSH0 ADD SLOAD DUP6 DUP5 PUSH1 0x1 ADD SLOAD PUSH2 0x11A9 SWAP2 SWAP1 PUSH2 0x1FB2 JUMP JUMPDEST GT ISZERO PUSH2 0x12DA JUMPI DUP3 PUSH0 ADD SLOAD DUP4 PUSH1 0x1 ADD SLOAD GT ISZERO PUSH2 0x11E4 JUMPI DUP3 PUSH1 0x1 ADD SLOAD DUP6 DUP5 PUSH1 0x1 ADD SLOAD PUSH2 0x11D3 SWAP2 SWAP1 PUSH2 0x1FB2 JUMP JUMPDEST PUSH2 0x11DD SWAP2 SWAP1 PUSH2 0x1DEC JUMP JUMPDEST SWAP1 POP PUSH2 0x1205 JUMP JUMPDEST DUP3 PUSH0 ADD SLOAD DUP6 DUP5 PUSH1 0x1 ADD SLOAD PUSH2 0x11F8 SWAP2 SWAP1 PUSH2 0x1FB2 JUMP JUMPDEST PUSH2 0x1202 SWAP2 SWAP1 PUSH2 0x1DEC JUMP JUMPDEST SWAP1 POP JUMPDEST DUP1 DUP4 PUSH1 0x2 ADD PUSH0 DUP3 DUP3 SLOAD PUSH2 0x1218 SWAP2 SWAP1 PUSH2 0x1FB2 JUMP JUMPDEST SWAP3 POP POP DUP2 SWAP1 SSTORE POP DUP1 PUSH1 0xD PUSH0 DUP9 PUSH20 0xFFFFFFFFFFFFFFFFFFFFFFFFFFFFFFFFFFFFFFFF AND PUSH20 0xFFFFFFFFFFFFFFFFFFFFFFFFFFFFFFFFFFFFFFFF AND DUP2 MSTORE PUSH1 0x20 ADD SWAP1 DUP2 MSTORE PUSH1 0x20 ADD PUSH0 KECCAK256 PUSH1 0x1 ADD PUSH0 DUP3 DUP3 SLOAD PUSH2 0x126E SWAP2 SWAP1 PUSH2 0x1FB2 JUMP JUMPDEST SWAP3 POP POP DUP2 SWAP1 SSTORE POP DUP3 PUSH1 0x3 ADD SLOAD DUP2 PUSH2 0x1285 SWAP2 SWAP1 PUSH2 0x2094 JUMP JUMPDEST PUSH1 0xD PUSH0 DUP9 PUSH20 0xFFFFFFFFFFFFFFFFFFFFFFFFFFFFFFFFFFFFFFFF AND PUSH20 0xFFFFFFFFFFFFFFFFFFFFFFFFFFFFFFFFFFFFFFFF AND DUP2 MSTORE PUSH1 0x20 ADD SWAP1 DUP2 MSTORE PUSH1 0x20 ADD PUSH0 KECCAK256 PUSH0 ADD PUSH0 DUP3 DUP3 SLOAD PUSH2 0x12D2 SWAP2 SWAP1 PUSH2 0x1FB2 JUMP JUMPDEST SWAP3 POP POP DUP2 SWAP1 SSTORE POP JUMPDEST DUP5 PUSH1 0x8 PUSH0 DUP3 DUP3 SLOAD PUSH2 0x12EB SWAP2 SWAP1 PUSH2 0x1FB2 JUMP JUMPDEST SWAP3 POP POP DUP2 SWAP1 SSTORE POP DUP5 DUP4 PUSH1 0x1 ADD PUSH0 DUP3 DUP3 SLOAD PUSH2 0x1305 SWAP2 SWAP1 PUSH2 0x1FB2 JUMP JUMPDEST SWAP3 POP POP DUP2 SWAP1 SSTORE POP PUSH0 DUP1 PUSH1 0x2 PUSH0 SWAP1 SLOAD SWAP1 PUSH2 0x100 EXP SWAP1 DIV PUSH20 0xFFFFFFFFFFFFFFFFFFFFFFFFFFFFFFFFFFFFFFFF AND PUSH20 0xFFFFFFFFFFFFFFFFFFFFFFFFFFFFFFFFFFFFFFFF AND PUSH4 0x8B3F863F DUP10 PUSH1 0x40 MLOAD DUP3 PUSH4 0xFFFFFFFF AND PUSH1 0xE0 SHL DUP2 MSTORE PUSH1 0x4 ADD PUSH2 0x1368 SWAP2 SWAP1 PUSH2 0x19B4 JUMP JUMPDEST PUSH0 PUSH1 0x40 MLOAD DUP1 DUP4 SUB DUP2 DUP7 GAS STATICCALL ISZERO DUP1 ISZERO PUSH2 0x1382 JUMPI RETURNDATASIZE PUSH0 DUP1 RETURNDATACOPY RETURNDATASIZE PUSH0 REVERT JUMPDEST POP POP POP POP PUSH1 0x40 MLOAD RETURNDATASIZE PUSH0 DUP3 RETURNDATACOPY RETURNDATASIZE PUSH1 0x1F NOT PUSH1 0x1F DUP3 ADD AND DUP3 ADD DUP1 PUSH1 0x40 MSTORE POP DUP2 ADD SWAP1 PUSH2 0x13AA SWAP2 SWAP1 PUSH2 0x255D JUMP JUMPDEST SWAP1 POP PUSH1 0x40 MLOAD PUSH1 0x20 ADD PUSH2 0x13BB SWAP1 PUSH2 0x25F8 JUMP JUMPDEST PUSH1 0x40 MLOAD PUSH1 0x20 DUP2 DUP4 SUB SUB DUP2 MSTORE SWAP1 PUSH1 0x40 MSTORE DUP1 MLOAD SWAP1 PUSH1 0x20 ADD KECCAK256 DUP2 PUSH1 0x40 MLOAD PUSH1 0x20 ADD PUSH2 0x13E2 SWAP2 SWAP1 PUSH2 0x2646 JUMP JUMPDEST PUSH1 0x40 MLOAD PUSH1 0x20 DUP2 DUP4 SUB SUB DUP2 MSTORE SWAP1 PUSH1 0x40 MSTORE DUP1 MLOAD SWAP1 PUSH1 0x20 ADD KECCAK256 SUB PUSH2 0x140E JUMPI PUSH1 0x9 SLOAD TIMESTAMP PUSH2 0x140B SWAP2 SWAP1 PUSH2 0x1FB2 JUMP JUMPDEST SWAP2 POP JUMPDEST PUSH1 0x40 MLOAD PUSH1 0x20 ADD PUSH2 0x141D SWAP1 PUSH2 0x26A6 JUMP JUMPDEST PUSH1 0x40 MLOAD PUSH1 0x20 DUP2 DUP4 SUB SUB DUP2 MSTORE SWAP1 PUSH1 0x40 MSTORE DUP1 MLOAD SWAP1 PUSH1 0x20 ADD KECCAK256 DUP2 PUSH1 0x40 MLOAD PUSH1 0x20 ADD PUSH2 0x1444 SWAP2 SWAP1 PUSH2 0x2646 JUMP JUMPDEST PUSH1 0x40 MLOAD PUSH1 0x20 DUP2 DUP4 SUB SUB DUP2 MSTORE SWAP1 PUSH1 0x40 MSTORE DUP1 MLOAD SWAP1 PUSH1 0x20 ADD KECCAK256 SUB PUSH2 0x1470 JUMPI PUSH1 0x9 SLOAD TIMESTAMP PUSH2 0x146D SWAP2 SWAP1 PUSH2 0x1FB2 JUMP JUMPDEST SWAP2 POP JUMPDEST PUSH1 0x40 MLOAD PUSH1 0x20 ADD PUSH2 0x147F SWAP1 PUSH2 0x2704 JUMP JUMPDEST PUSH1 0x40 MLOAD PUSH1 0x20 DUP2 DUP4 SUB SUB DUP2 MSTORE SWAP1 PUSH1 0x40 MSTORE DUP1 MLOAD SWAP1 PUSH1 0x20 ADD KECCAK256 DUP2 PUSH1 0x40 MLOAD PUSH1 0x20 ADD PUSH2 0x14A6 SWAP2 SWAP1 PUSH2 0x2646 JUMP JUMPDEST PUSH1 0x40 MLOAD PUSH1 0x20 DUP2 DUP4 SUB SUB DUP2 MSTORE SWAP1 PUSH1 0x40 MSTORE DUP1 MLOAD SWAP1 PUSH1 0x20 ADD KECCAK256 SUB PUSH2 0x14D2 JUMPI PUSH1 0x9 SLOAD TIMESTAMP PUSH2 0x14CF SWAP2 SWAP1 PUSH2 0x1FB2 JUMP JUMPDEST SWAP2 POP JUMPDEST PUSH1 0x2 PUSH0 SWAP1 SLOAD SWAP1 PUSH2 0x100 EXP SWAP1 DIV PUSH20 0xFFFFFFFFFFFFFFFFFFFFFFFFFFFFFFFFFFFFFFFF AND PUSH20 0xFFFFFFFFFFFFFFFFFFFFFFFFFFFFFFFFFFFFFFFF AND PUSH4 0xE2AB691D DUP10 DUP10 DUP6 PUSH1 0x40 MLOAD DUP5 PUSH4 0xFFFFFFFF AND PUSH1 0xE0 SHL DUP2 MSTORE PUSH1 0x4 ADD PUSH2 0x1530 SWAP4 SWAP3 SWAP2 SWAP1 PUSH2 0x2718 JUMP JUMPDEST PUSH1 0x20 PUSH1 0x40 MLOAD DUP1 DUP4 SUB DUP2 PUSH0 DUP8 GAS CALL ISZERO DUP1 ISZERO PUSH2 0x154C JUMPI RETURNDATASIZE PUSH0 DUP1 RETURNDATACOPY RETURNDATASIZE PUSH0 REVERT JUMPDEST POP POP POP POP PUSH1 0x40 MLOAD RETURNDATASIZE PUSH1 0x1F NOT PUSH1 0x1F DUP3 ADD AND DUP3 ADD DUP1 PUSH1 0x40 MSTORE POP DUP2 ADD SWAP1 PUSH2 0x1570 SWAP2 SWAP1 PUSH2 0x1E5A JUMP JUMPDEST POP PUSH1 0x2 PUSH0 SWAP1 SLOAD SWAP1 PUSH2 0x100 EXP SWAP1 DIV PUSH20 0xFFFFFFFFFFFFFFFFFFFFFFFFFFFFFFFFFFFFFFFF AND PUSH20 0xFFFFFFFFFFFFFFFFFFFFFFFFFFFFFFFFFFFFFFFF AND PUSH4 0xA9059CBB DUP10 DUP10 PUSH1 0x40 MLOAD DUP4 PUSH4 0xFFFFFFFF AND PUSH1 0xE0 SHL DUP2 MSTORE PUSH1 0x4 ADD PUSH2 0x15CD SWAP3 SWAP2 SWAP1 PUSH2 0x1E1F JUMP JUMPDEST PUSH1 0x20 PUSH1 0x40 MLOAD DUP1 DUP4 SUB DUP2 PUSH0 DUP8 GAS CALL ISZERO DUP1 ISZERO PUSH2 0x15E9 JUMPI RETURNDATASIZE PUSH0 DUP1 RETURNDATACOPY RETURNDATASIZE PUSH0 REVERT JUMPDEST POP POP POP POP PUSH1 0x40 MLOAD RETURNDATASIZE PUSH1 0x1F NOT PUSH1 0x1F DUP3 ADD AND DUP3 ADD DUP1 PUSH1 0x40 MSTORE POP DUP2 ADD SWAP1 PUSH2 0x160D SWAP2 SWAP1 PUSH2 0x1E5A JUMP JUMPDEST PUSH2 0x164C JUMPI PUSH1 0x40 MLOAD PUSH32 0x8C379A000000000000000000000000000000000000000000000000000000000 DUP2 MSTORE PUSH1 0x4 ADD PUSH2 0x1643 SWAP1 PUSH2 0x1ECF JUMP JUMPDEST PUSH1 0x40 MLOAD DUP1 SWAP2 SUB SWAP1 REVERT JUMPDEST POP POP POP POP POP POP POP POP POP JUMP JUMPDEST PUSH1 0x8 SLOAD DUP2 JUMP JUMPDEST PUSH1 0x4 SLOAD DUP2 JUMP JUMPDEST PUSH2 0x166B PUSH2 0x16F7 JUMP JUMPDEST PUSH0 PUSH20 0xFFFFFFFFFFFFFFFFFFFFFFFFFFFFFFFFFFFFFFFF AND DUP2 PUSH20 0xFFFFFFFFFFFFFFFFFFFFFFFFFFFFFFFFFFFFFFFF AND SUB PUSH2 0x16DB JUMPI PUSH0 PUSH1 0x40 MLOAD PUSH32 0x1E4FBDF700000000000000000000000000000000000000000000000000000000 DUP2 MSTORE PUSH1 0x4 ADD PUSH2 0x16D2 SWAP2 SWAP1 PUSH2 0x19B4 JUMP JUMPDEST PUSH1 0x40 MLOAD DUP1 SWAP2 SUB SWAP1 REVERT JUMPDEST PUSH2 0x16E4 DUP2 PUSH2 0x177E JUMP JUMPDEST POP JUMP JUMPDEST PUSH0 DUP1 PUSH1 0xA SLOAD PUSH1 0x7 SLOAD SWAP2 POP SWAP2 POP SWAP1 SWAP2 JUMP JUMPDEST PUSH2 0x16FF PUSH2 0x183F JUMP JUMPDEST PUSH20 0xFFFFFFFFFFFFFFFFFFFFFFFFFFFFFFFFFFFFFFFF AND PUSH2 0x171D PUSH2 0xCE9 JUMP JUMPDEST PUSH20 0xFFFFFFFFFFFFFFFFFFFFFFFFFFFFFFFFFFFFFFFF AND EQ PUSH2 0x177C JUMPI PUSH2 0x1740 PUSH2 0x183F JUMP JUMPDEST PUSH1 0x40 MLOAD PUSH32 0x118CDAA700000000000000000000000000000000000000000000000000000000 DUP2 MSTORE PUSH1 0x4 ADD PUSH2 0x1773 SWAP2 SWAP1 PUSH2 0x19B4 JUMP JUMPDEST PUSH1 0x40 MLOAD DUP1 SWAP2 SUB SWAP1 REVERT JUMPDEST JUMP JUMPDEST PUSH0 DUP1 PUSH0 SWAP1 SLOAD SWAP1 PUSH2 0x100 EXP SWAP1 DIV PUSH20 0xFFFFFFFFFFFFFFFFFFFFFFFFFFFFFFFFFFFFFFFF AND SWAP1 POP DUP2 PUSH0 DUP1 PUSH2 0x100 EXP DUP2 SLOAD DUP2 PUSH20 0xFFFFFFFFFFFFFFFFFFFFFFFFFFFFFFFFFFFFFFFF MUL NOT AND SWAP1 DUP4 PUSH20 0xFFFFFFFFFFFFFFFFFFFFFFFFFFFFFFFFFFFFFFFF AND MUL OR SWAP1 SSTORE POP DUP2 PUSH20 0xFFFFFFFFFFFFFFFFFFFFFFFFFFFFFFFFFFFFFFFF AND DUP2 PUSH20 0xFFFFFFFFFFFFFFFFFFFFFFFFFFFFFFFFFFFFFFFF AND PUSH32 0x8BE0079C531659141344CD1FD0A4F28419497F9722A3DAAFE3B4186F6B6457E0 PUSH1 0x40 MLOAD PUSH1 0x40 MLOAD DUP1 SWAP2 SUB SWAP1 LOG3 POP POP JUMP JUMPDEST PUSH0 CALLER SWAP1 POP SWAP1 JUMP JUMPDEST PUSH0 PUSH1 0x40 MLOAD SWAP1 POP SWAP1 JUMP JUMPDEST PUSH0 DUP1 REVERT JUMPDEST PUSH0 DUP1 REVERT JUMPDEST PUSH0 PUSH20 0xFFFFFFFFFFFFFFFFFFFFFFFFFFFFFFFFFFFFFFFF DUP3 AND SWAP1 POP SWAP2 SWAP1 POP JUMP JUMPDEST PUSH0 PUSH2 0x1880 DUP3 PUSH2 0x1857 JUMP JUMPDEST SWAP1 POP SWAP2 SWAP1 POP JUMP JUMPDEST PUSH2 0x1890 DUP2 PUSH2 0x1876 JUMP JUMPDEST DUP2 EQ PUSH2 0x189A JUMPI PUSH0 DUP1 REVERT JUMPDEST POP JUMP JUMPDEST PUSH0 DUP2 CALLDATALOAD SWAP1 POP PUSH2 0x18AB DUP2 PUSH2 0x1887 JUMP JUMPDEST SWAP3 SWAP2 POP POP JUMP JUMPDEST PUSH0 DUP2 SWAP1 POP SWAP2 SWAP1 POP JUMP JUMPDEST PUSH2 0x18C3 DUP2 PUSH2 0x18B1 JUMP JUMPDEST DUP2 EQ PUSH2 0x18CD JUMPI PUSH0 DUP1 REVERT JUMPDEST POP JUMP JUMPDEST PUSH0 DUP2 CALLDATALOAD SWAP1 POP PUSH2 0x18DE DUP2 PUSH2 0x18BA JUMP JUMPDEST SWAP3 SWAP2 POP POP JUMP JUMPDEST PUSH0 DUP1 PUSH1 0x40 DUP4 DUP6 SUB SLT ISZERO PUSH2 0x18FA JUMPI PUSH2 0x18F9 PUSH2 0x184F JUMP JUMPDEST JUMPDEST PUSH0 PUSH2 0x1907 DUP6 DUP3 DUP7 ADD PUSH2 0x189D JUMP JUMPDEST SWAP3 POP POP PUSH1 0x20 PUSH2 0x1918 DUP6 DUP3 DUP7 ADD PUSH2 0x18D0 JUMP JUMPDEST SWAP2 POP POP SWAP3 POP SWAP3 SWAP1 POP JUMP JUMPDEST PUSH0 DUP2 ISZERO ISZERO SWAP1 POP SWAP2 SWAP1 POP JUMP JUMPDEST PUSH2 0x1936 DUP2 PUSH2 0x1922 JUMP JUMPDEST DUP3 MSTORE POP POP JUMP JUMPDEST PUSH0 PUSH1 0x20 DUP3 ADD SWAP1 POP PUSH2 0x194F PUSH0 DUP4 ADD DUP5 PUSH2 0x192D JUMP JUMPDEST SWAP3 SWAP2 POP POP JUMP JUMPDEST PUSH0 DUP1 PUSH0 PUSH1 0x60 DUP5 DUP7 SUB SLT ISZERO PUSH2 0x196C JUMPI PUSH2 0x196B PUSH2 0x184F JUMP JUMPDEST JUMPDEST PUSH0 PUSH2 0x1979 DUP7 DUP3 DUP8 ADD PUSH2 0x18D0 JUMP JUMPDEST SWAP4 POP POP PUSH1 0x20 PUSH2 0x198A DUP7 DUP3 DUP8 ADD PUSH2 0x18D0 JUMP JUMPDEST SWAP3 POP POP PUSH1 0x40 PUSH2 0x199B DUP7 DUP3 DUP8 ADD PUSH2 0x18D0 JUMP JUMPDEST SWAP2 POP POP SWAP3 POP SWAP3 POP SWAP3 JUMP JUMPDEST PUSH2 0x19AE DUP2 PUSH2 0x1876 JUMP JUMPDEST DUP3 MSTORE POP POP JUMP JUMPDEST PUSH0 PUSH1 0x20 DUP3 ADD SWAP1 POP PUSH2 0x19C7 PUSH0 DUP4 ADD DUP5 PUSH2 0x19A5 JUMP JUMPDEST SWAP3 SWAP2 POP POP JUMP JUMPDEST PUSH2 0x19D6 DUP2 PUSH2 0x18B1 JUMP JUMPDEST DUP3 MSTORE POP POP JUMP JUMPDEST PUSH0 PUSH1 0x20 DUP3 ADD SWAP1 POP PUSH2 0x19EF PUSH0 DUP4 ADD DUP5 PUSH2 0x19CD JUMP JUMPDEST SWAP3 SWAP2 POP POP JUMP JUMPDEST PUSH2 0x19FE DUP2 PUSH2 0x1922 JUMP JUMPDEST DUP2 EQ PUSH2 0x1A08 JUMPI PUSH0 DUP1 REVERT JUMPDEST POP JUMP JUMPDEST PUSH0 DUP2 CALLDATALOAD SWAP1 POP PUSH2 0x1A19 DUP2 PUSH2 0x19F5 JUMP JUMPDEST SWAP3 SWAP2 POP POP JUMP JUMPDEST PUSH0 PUSH1 0x20 DUP3 DUP5 SUB SLT ISZERO PUSH2 0x1A34 JUMPI PUSH2 0x1A33 PUSH2 0x184F JUMP JUMPDEST JUMPDEST PUSH0 PUSH2 0x1A41 DUP5 DUP3 DUP6 ADD PUSH2 0x1A0B JUMP JUMPDEST SWAP2 POP POP SWAP3 SWAP2 POP POP JUMP JUMPDEST PUSH0 PUSH1 0x20 DUP3 DUP5 SUB SLT ISZERO PUSH2 0x1A5F JUMPI PUSH2 0x1A5E PUSH2 0x184F JUMP JUMPDEST JUMPDEST PUSH0 PUSH2 0x1A6C DUP5 DUP3 DUP6 ADD PUSH2 0x18D0 JUMP JUMPDEST SWAP2 POP POP SWAP3 SWAP2 POP POP JUMP JUMPDEST PUSH0 PUSH1 0x80 DUP3 ADD SWAP1 POP PUSH2 0x1A88 PUSH0 DUP4 ADD DUP8 PUSH2 0x19CD JUMP JUMPDEST PUSH2 0x1A95 PUSH1 0x20 DUP4 ADD DUP7 PUSH2 0x19CD JUMP JUMPDEST PUSH2 0x1AA2 PUSH1 0x40 DUP4 ADD DUP6 PUSH2 0x19CD JUMP JUMPDEST PUSH2 0x1AAF PUSH1 0x60 DUP4 ADD DUP5 PUSH2 0x19CD JUMP JUMPDEST SWAP6 SWAP5 POP POP POP POP POP JUMP JUMPDEST PUSH0 PUSH1 0x20 DUP3 DUP5 SUB SLT ISZERO PUSH2 0x1ACD JUMPI PUSH2 0x1ACC PUSH2 0x184F JUMP JUMPDEST JUMPDEST PUSH0 PUSH2 0x1ADA DUP5 DUP3 DUP6 ADD PUSH2 0x189D JUMP JUMPDEST SWAP2 POP POP SWAP3 SWAP2 POP POP JUMP JUMPDEST PUSH0 PUSH1 0x40 DUP3 ADD SWAP1 POP PUSH2 0x1AF6 PUSH0 DUP4 ADD DUP6 PUSH2 0x19CD JUMP JUMPDEST PUSH2 0x1B03 PUSH1 0x20 DUP4 ADD DUP5 PUSH2 0x19CD JUMP JUMPDEST SWAP4 SWAP3 POP POP POP JUMP JUMPDEST PUSH0 PUSH1 0x60 DUP3 ADD SWAP1 POP PUSH2 0x1B1D PUSH0 DUP4 ADD DUP7 PUSH2 0x19CD JUMP JUMPDEST PUSH2 0x1B2A PUSH1 0x20 DUP4 ADD DUP6 PUSH2 0x19CD JUMP JUMPDEST PUSH2 0x1B37 PUSH1 0x40 DUP4 ADD DUP5 PUSH2 0x19CD JUMP JUMPDEST SWAP5 SWAP4 POP POP POP POP JUMP JUMPDEST PUSH0 DUP2 SWAP1 POP SWAP2 SWAP1 POP JUMP JUMPDEST PUSH0 PUSH2 0x1B62 PUSH2 0x1B5D PUSH2 0x1B58 DUP5 PUSH2 0x1857 JUMP JUMPDEST PUSH2 0x1B3F JUMP JUMPDEST PUSH2 0x1857 JUMP JUMPDEST SWAP1 POP SWAP2 SWAP1 POP JUMP JUMPDEST PUSH0 PUSH2 0x1B73 DUP3 PUSH2 0x1B48 JUMP JUMPDEST SWAP1 POP SWAP2 SWAP1 POP JUMP JUMPDEST PUSH0 PUSH2 0x1B84 DUP3 PUSH2 0x1B69 JUMP JUMPDEST SWAP1 POP SWAP2 SWAP1 POP JUMP JUMPDEST PUSH2 0x1B94 DUP2 PUSH2 0x1B7A JUMP JUMPDEST DUP3 MSTORE POP POP JUMP JUMPDEST PUSH0 PUSH1 0x20 DUP3 ADD SWAP1 POP PUSH2 0x1BAD PUSH0 DUP4 ADD DUP5 PUSH2 0x1B8B JUMP JUMPDEST SWAP3 SWAP2 POP POP JUMP JUMPDEST PUSH0 PUSH2 0x1BBD DUP3 PUSH2 0x1B69 JUMP JUMPDEST SWAP1 POP SWAP2 SWAP1 POP JUMP JUMPDEST PUSH2 0x1BCD DUP2 PUSH2 0x1BB3 JUMP JUMPDEST DUP3 MSTORE POP POP JUMP JUMPDEST PUSH0 PUSH1 0x20 DUP3 ADD SWAP1 POP PUSH2 0x1BE6 PUSH0 DUP4 ADD DUP5 PUSH2 0x1BC4 JUMP JUMPDEST SWAP3 SWAP2 POP POP JUMP JUMPDEST PUSH0 PUSH2 0x1BF6 DUP3 PUSH2 0x1876 JUMP JUMPDEST SWAP1 POP SWAP2 SWAP1 POP JUMP JUMPDEST PUSH2 0x1C06 DUP2 PUSH2 0x1BEC JUMP JUMPDEST DUP2 EQ PUSH2 0x1C10 JUMPI PUSH0 DUP1 REVERT JUMPDEST POP JUMP JUMPDEST PUSH0 DUP2 CALLDATALOAD SWAP1 POP PUSH2 0x1C21 DUP2 PUSH2 0x1BFD JUMP JUMPDEST SWAP3 SWAP2 POP POP JUMP JUMPDEST PUSH0 DUP1 PUSH0 PUSH1 0x60 DUP5 DUP7 SUB SLT ISZERO PUSH2 0x1C3E JUMPI PUSH2 0x1C3D PUSH2 0x184F JUMP JUMPDEST JUMPDEST PUSH0 PUSH2 0x1C4B DUP7 DUP3 DUP8 ADD PUSH2 0x1C13 JUMP JUMPDEST SWAP4 POP POP PUSH1 0x20 PUSH2 0x1C5C DUP7 DUP3 DUP8 ADD PUSH2 0x189D JUMP JUMPDEST SWAP3 POP POP PUSH1 0x40 PUSH2 0x1C6D DUP7 DUP3 DUP8 ADD PUSH2 0x18D0 JUMP JUMPDEST SWAP2 POP POP SWAP3 POP SWAP3 POP SWAP3 JUMP JUMPDEST PUSH0 DUP3 DUP3 MSTORE PUSH1 0x20 DUP3 ADD SWAP1 POP SWAP3 SWAP2 POP POP JUMP JUMPDEST PUSH32 0x41756374696F6E206973207374696C6C20616374697665000000000000000000 PUSH0 DUP3 ADD MSTORE POP JUMP JUMPDEST PUSH0 PUSH2 0x1CBB PUSH1 0x17 DUP4 PUSH2 0x1C77 JUMP JUMPDEST SWAP2 POP PUSH2 0x1CC6 DUP3 PUSH2 0x1C87 JUMP JUMPDEST PUSH1 0x20 DUP3 ADD SWAP1 POP SWAP2 SWAP1 POP JUMP JUMPDEST PUSH0 PUSH1 0x20 DUP3 ADD SWAP1 POP DUP2 DUP2 SUB PUSH0 DUP4 ADD MSTORE PUSH2 0x1CE8 DUP2 PUSH2 0x1CAF JUMP JUMPDEST SWAP1 POP SWAP2 SWAP1 POP JUMP JUMPDEST PUSH32 0x41756374696F6E206461797320617265206E6F7420636F6D706C657465000000 PUSH0 DUP3 ADD MSTORE POP JUMP JUMPDEST PUSH0 PUSH2 0x1D23 PUSH1 0x1D DUP4 PUSH2 0x1C77 JUMP JUMPDEST SWAP2 POP PUSH2 0x1D2E DUP3 PUSH2 0x1CEF JUMP JUMPDEST PUSH1 0x20 DUP3 ADD SWAP1 POP SWAP2 SWAP1 POP JUMP JUMPDEST PUSH0 PUSH1 0x20 DUP3 ADD SWAP1 POP DUP2 DUP2 SUB PUSH0 DUP4 ADD MSTORE PUSH2 0x1D50 DUP2 PUSH2 0x1D17 JUMP JUMPDEST SWAP1 POP SWAP2 SWAP1 POP JUMP JUMPDEST PUSH32 0x496E636F72726563742076616C75650000000000000000000000000000000000 PUSH0 DUP3 ADD MSTORE POP JUMP JUMPDEST PUSH0 PUSH2 0x1D8B PUSH1 0xF DUP4 PUSH2 0x1C77 JUMP JUMPDEST SWAP2 POP PUSH2 0x1D96 DUP3 PUSH2 0x1D57 JUMP JUMPDEST PUSH1 0x20 DUP3 ADD SWAP1 POP SWAP2 SWAP1 POP JUMP JUMPDEST PUSH0 PUSH1 0x20 DUP3 ADD SWAP1 POP DUP2 DUP2 SUB PUSH0 DUP4 ADD MSTORE PUSH2 0x1DB8 DUP2 PUSH2 0x1D7F JUMP JUMPDEST SWAP1 POP SWAP2 SWAP1 POP JUMP JUMPDEST PUSH32 0x4E487B7100000000000000000000000000000000000000000000000000000000 PUSH0 MSTORE PUSH1 0x11 PUSH1 0x4 MSTORE PUSH1 0x24 PUSH0 REVERT JUMPDEST PUSH0 PUSH2 0x1DF6 DUP3 PUSH2 0x18B1 JUMP JUMPDEST SWAP2 POP PUSH2 0x1E01 DUP4 PUSH2 0x18B1 JUMP JUMPDEST SWAP3 POP DUP3 DUP3 SUB SWAP1 POP DUP2 DUP2 GT ISZERO PUSH2 0x1E19 JUMPI PUSH2 0x1E18 PUSH2 0x1DBF JUMP JUMPDEST JUMPDEST SWAP3 SWAP2 POP POP JUMP JUMPDEST PUSH0 PUSH1 0x40 DUP3 ADD SWAP1 POP PUSH2 0x1E32 PUSH0 DUP4 ADD DUP6 PUSH2 0x19A5 JUMP JUMPDEST PUSH2 0x1E3F PUSH1 0x20 DUP4 ADD DUP5 PUSH2 0x19CD JUMP JUMPDEST SWAP4 SWAP3 POP POP POP JUMP JUMPDEST PUSH0 DUP2 MLOAD SWAP1 POP PUSH2 0x1E54 DUP2 PUSH2 0x19F5 JUMP JUMPDEST SWAP3 SWAP2 POP POP JUMP JUMPDEST PUSH0 PUSH1 0x20 DUP3 DUP5 SUB SLT ISZERO PUSH2 0x1E6F JUMPI PUSH2 0x1E6E PUSH2 0x184F JUMP JUMPDEST JUMPDEST PUSH0 PUSH2 0x1E7C DUP5 DUP3 DUP6 ADD PUSH2 0x1E46 JUMP JUMPDEST SWAP2 POP POP SWAP3 SWAP2 POP POP JUMP JUMPDEST PUSH32 0x50726F746F6E20746F6B656E207472616E73666572206661696C656400000000 PUSH0 DUP3 ADD MSTORE POP JUMP JUMPDEST PUSH0 PUSH2 0x1EB9 PUSH1 0x1C DUP4 PUSH2 0x1C77 JUMP JUMPDEST SWAP2 POP PUSH2 0x1EC4 DUP3 PUSH2 0x1E85 JUMP JUMPDEST PUSH1 0x20 DUP3 ADD SWAP1 POP SWAP2 SWAP1 POP JUMP JUMPDEST PUSH0 PUSH1 0x20 DUP3 ADD SWAP1 POP DUP2 DUP2 SUB PUSH0 DUP4 ADD MSTORE PUSH2 0x1EE6 DUP2 PUSH2 0x1EAD JUMP JUMPDEST SWAP1 POP SWAP2 SWAP1 POP JUMP JUMPDEST PUSH32 0x4552524F523A204441592076616C756500000000000000000000000000000000 PUSH0 DUP3 ADD MSTORE POP JUMP JUMPDEST PUSH0 PUSH2 0x1F21 PUSH1 0x10 DUP4 PUSH2 0x1C77 JUMP JUMPDEST SWAP2 POP PUSH2 0x1F2C DUP3 PUSH2 0x1EED JUMP JUMPDEST PUSH1 0x20 DUP3 ADD SWAP1 POP SWAP2 SWAP1 POP JUMP JUMPDEST PUSH0 PUSH1 0x20 DUP3 ADD SWAP1 POP DUP2 DUP2 SUB PUSH0 DUP4 ADD MSTORE PUSH2 0x1F4E DUP2 PUSH2 0x1F15 JUMP JUMPDEST SWAP1 POP SWAP2 SWAP1 POP JUMP JUMPDEST PUSH32 0x4E487B7100000000000000000000000000000000000000000000000000000000 PUSH0 MSTORE PUSH1 0x12 PUSH1 0x4 MSTORE PUSH1 0x24 PUSH0 REVERT JUMPDEST PUSH0 PUSH2 0x1F8C DUP3 PUSH2 0x18B1 JUMP JUMPDEST SWAP2 POP PUSH2 0x1F97 DUP4 PUSH2 0x18B1 JUMP JUMPDEST SWAP3 POP DUP3 PUSH2 0x1FA7 JUMPI PUSH2 0x1FA6 PUSH2 0x1F55 JUMP JUMPDEST JUMPDEST DUP3 DUP3 DIV SWAP1 POP SWAP3 SWAP2 POP POP JUMP JUMPDEST PUSH0 PUSH2 0x1FBC DUP3 PUSH2 0x18B1 JUMP JUMPDEST SWAP2 POP PUSH2 0x1FC7 DUP4 PUSH2 0x18B1 JUMP JUMPDEST SWAP3 POP DUP3 DUP3 ADD SWAP1 POP DUP1 DUP3 GT ISZERO PUSH2 0x1FDF JUMPI PUSH2 0x1FDE PUSH2 0x1DBF JUMP JUMPDEST JUMPDEST SWAP3 SWAP2 POP POP JUMP JUMPDEST PUSH32 0x41756374696F6E20616C72656164792073746172746564000000000000000000 PUSH0 DUP3 ADD MSTORE POP JUMP JUMPDEST PUSH0 PUSH2 0x2019 PUSH1 0x17 DUP4 PUSH2 0x1C77 JUMP JUMPDEST SWAP2 POP PUSH2 0x2024 DUP3 PUSH2 0x1FE5 JUMP JUMPDEST PUSH1 0x20 DUP3 ADD SWAP1 POP SWAP2 SWAP1 POP JUMP JUMPDEST PUSH0 PUSH1 0x20 DUP3 ADD SWAP1 POP DUP2 DUP2 SUB PUSH0 DUP4 ADD MSTORE PUSH2 0x2046 DUP2 PUSH2 0x200D JUMP JUMPDEST SWAP1 POP SWAP2 SWAP1 POP JUMP JUMPDEST PUSH0 PUSH2 0x2057 DUP3 PUSH2 0x18B1 JUMP JUMPDEST SWAP2 POP PUSH32 0xFFFFFFFFFFFFFFFFFFFFFFFFFFFFFFFFFFFFFFFFFFFFFFFFFFFFFFFFFFFFFFFF DUP3 SUB PUSH2 0x2089 JUMPI PUSH2 0x2088 PUSH2 0x1DBF JUMP JUMPDEST JUMPDEST PUSH1 0x1 DUP3 ADD SWAP1 POP SWAP2 SWAP1 POP JUMP JUMPDEST PUSH0 PUSH2 0x209E DUP3 PUSH2 0x18B1 JUMP JUMPDEST SWAP2 POP PUSH2 0x20A9 DUP4 PUSH2 0x18B1 JUMP JUMPDEST SWAP3 POP DUP3 DUP3 MUL PUSH2 0x20B7 DUP2 PUSH2 0x18B1 JUMP JUMPDEST SWAP2 POP DUP3 DUP3 DIV DUP5 EQ DUP4 ISZERO OR PUSH2 0x20CE JUMPI PUSH2 0x20CD PUSH2 0x1DBF JUMP JUMPDEST JUMPDEST POP SWAP3 SWAP2 POP POP JUMP JUMPDEST PUSH32 0x41756374696F6E20697320706175736564000000000000000000000000000000 PUSH0 DUP3 ADD MSTORE POP JUMP JUMPDEST PUSH0 PUSH2 0x2109 PUSH1 0x11 DUP4 PUSH2 0x1C77 JUMP JUMPDEST SWAP2 POP PUSH2 0x2114 DUP3 PUSH2 0x20D5 JUMP JUMPDEST PUSH1 0x20 DUP3 ADD SWAP1 POP SWAP2 SWAP1 POP JUMP JUMPDEST PUSH0 PUSH1 0x20 DUP3 ADD SWAP1 POP DUP2 DUP2 SUB PUSH0 DUP4 ADD MSTORE PUSH2 0x2136 DUP2 PUSH2 0x20FD JUMP JUMPDEST SWAP1 POP SWAP2 SWAP1 POP JUMP JUMPDEST PUSH32 0x43757272656E7420726F756E642068617320656E646564000000000000000000 PUSH0 DUP3 ADD MSTORE POP JUMP JUMPDEST PUSH0 PUSH2 0x2171 PUSH1 0x17 DUP4 PUSH2 0x1C77 JUMP JUMPDEST SWAP2 POP PUSH2 0x217C DUP3 PUSH2 0x213D JUMP JUMPDEST PUSH1 0x20 DUP3 ADD SWAP1 POP SWAP2 SWAP1 POP JUMP JUMPDEST PUSH0 PUSH1 0x20 DUP3 ADD SWAP1 POP DUP2 DUP2 SUB PUSH0 DUP4 ADD MSTORE PUSH2 0x219E DUP2 PUSH2 0x2165 JUMP JUMPDEST SWAP1 POP SWAP2 SWAP1 POP JUMP JUMPDEST PUSH32 0x41756374696F6E20646179732061726520636F6D706C65746500000000000000 PUSH0 DUP3 ADD MSTORE POP JUMP JUMPDEST PUSH0 PUSH2 0x21D9 PUSH1 0x19 DUP4 PUSH2 0x1C77 JUMP JUMPDEST SWAP2 POP PUSH2 0x21E4 DUP3 PUSH2 0x21A5 JUMP JUMPDEST PUSH1 0x20 DUP3 ADD SWAP1 POP SWAP2 SWAP1 POP JUMP JUMPDEST PUSH0 PUSH1 0x20 DUP3 ADD SWAP1 POP DUP2 DUP2 SUB PUSH0 DUP4 ADD MSTORE PUSH2 0x2206 DUP2 PUSH2 0x21CD JUMP JUMPDEST SWAP1 POP SWAP2 SWAP1 POP JUMP JUMPDEST PUSH32 0x41756374696F6E20726F756E642068617320656E646564000000000000000000 PUSH0 DUP3 ADD MSTORE POP JUMP JUMPDEST PUSH0 PUSH2 0x2241 PUSH1 0x17 DUP4 PUSH2 0x1C77 JUMP JUMPDEST SWAP2 POP PUSH2 0x224C DUP3 PUSH2 0x220D JUMP JUMPDEST PUSH1 0x20 DUP3 ADD SWAP1 POP SWAP2 SWAP1 POP JUMP JUMPDEST PUSH0 PUSH1 0x20 DUP3 ADD SWAP1 POP DUP2 DUP2 SUB PUSH0 DUP4 ADD MSTORE PUSH2 0x226E DUP2 PUSH2 0x2235 JUMP JUMPDEST SWAP1 POP SWAP2 SWAP1 POP JUMP JUMPDEST PUSH0 DUP2 MLOAD SWAP1 POP PUSH2 0x2283 DUP2 PUSH2 0x18BA JUMP JUMPDEST SWAP3 SWAP2 POP POP JUMP JUMPDEST PUSH0 PUSH1 0x20 DUP3 DUP5 SUB SLT ISZERO PUSH2 0x229E JUMPI PUSH2 0x229D PUSH2 0x184F JUMP JUMPDEST JUMPDEST PUSH0 PUSH2 0x22AB DUP5 DUP3 DUP6 ADD PUSH2 0x2275 JUMP JUMPDEST SWAP2 POP POP SWAP3 SWAP2 POP POP JUMP JUMPDEST PUSH32 0x41756374696F6E20506175736564000000000000000000000000000000000000 PUSH0 DUP3 ADD MSTORE POP JUMP JUMPDEST PUSH0 PUSH2 0x22E8 PUSH1 0xE DUP4 PUSH2 0x1C77 JUMP JUMPDEST SWAP2 POP PUSH2 0x22F3 DUP3 PUSH2 0x22B4 JUMP JUMPDEST PUSH1 0x20 DUP3 ADD SWAP1 POP SWAP2 SWAP1 POP JUMP JUMPDEST PUSH0 PUSH1 0x20 DUP3 ADD SWAP1 POP DUP2 DUP2 SUB PUSH0 DUP4 ADD MSTORE PUSH2 0x2315 DUP2 PUSH2 0x22DC JUMP JUMPDEST SWAP1 POP SWAP2 SWAP1 POP JUMP JUMPDEST PUSH32 0x4E6F74206D6F7265207468616E206C696D697400000000000000000000000000 PUSH0 DUP3 ADD MSTORE POP JUMP JUMPDEST PUSH0 PUSH2 0x2350 PUSH1 0x13 DUP4 PUSH2 0x1C77 JUMP JUMPDEST SWAP2 POP PUSH2 0x235B DUP3 PUSH2 0x231C JUMP JUMPDEST PUSH1 0x20 DUP3 ADD SWAP1 POP SWAP2 SWAP1 POP JUMP JUMPDEST PUSH0 PUSH1 0x20 DUP3 ADD SWAP1 POP DUP2 DUP2 SUB PUSH0 DUP4 ADD MSTORE PUSH2 0x237D DUP2 PUSH2 0x2344 JUMP JUMPDEST SWAP1 POP SWAP2 SWAP1 POP JUMP JUMPDEST PUSH0 PUSH1 0x60 DUP3 ADD SWAP1 POP PUSH2 0x2397 PUSH0 DUP4 ADD DUP7 PUSH2 0x19A5 JUMP JUMPDEST PUSH2 0x23A4 PUSH1 0x20 DUP4 ADD DUP6 PUSH2 0x19A5 JUMP JUMPDEST PUSH2 0x23B1 PUSH1 0x40 DUP4 ADD DUP5 PUSH2 0x19CD JUMP JUMPDEST SWAP5 SWAP4 POP POP POP POP JUMP JUMPDEST PUSH32 0x55534454207472616E73666572206661696C6564000000000000000000000000 PUSH0 DUP3 ADD MSTORE POP JUMP JUMPDEST PUSH0 PUSH2 0x23ED PUSH1 0x14 DUP4 PUSH2 0x1C77 JUMP JUMPDEST SWAP2 POP PUSH2 0x23F8 DUP3 PUSH2 0x23B9 JUMP JUMPDEST PUSH1 0x20 DUP3 ADD SWAP1 POP SWAP2 SWAP1 POP JUMP JUMPDEST PUSH0 PUSH1 0x20 DUP3 ADD SWAP1 POP DUP2 DUP2 SUB PUSH0 DUP4 ADD MSTORE PUSH2 0x241A DUP2 PUSH2 0x23E1 JUMP JUMPDEST SWAP1 POP SWAP2 SWAP1 POP JUMP JUMPDEST PUSH0 DUP1 REVERT JUMPDEST PUSH0 DUP1 REVERT JUMPDEST PUSH0 PUSH1 0x1F NOT PUSH1 0x1F DUP4 ADD AND SWAP1 POP SWAP2 SWAP1 POP JUMP JUMPDEST PUSH32 0x4E487B7100000000000000000000000000000000000000000000000000000000 PUSH0 MSTORE PUSH1 0x41 PUSH1 0x4 MSTORE PUSH1 0x24 PUSH0 REVERT JUMPDEST PUSH2 0x246F DUP3 PUSH2 0x2429 JUMP JUMPDEST DUP2 ADD DUP2 DUP2 LT PUSH8 0xFFFFFFFFFFFFFFFF DUP3 GT OR ISZERO PUSH2 0x248E JUMPI PUSH2 0x248D PUSH2 0x2439 JUMP JUMPDEST JUMPDEST DUP1 PUSH1 0x40 MSTORE POP POP POP JUMP JUMPDEST PUSH0 PUSH2 0x24A0 PUSH2 0x1846 JUMP JUMPDEST SWAP1 POP PUSH2 0x24AC DUP3 DUP3 PUSH2 0x2466 JUMP JUMPDEST SWAP2 SWAP1 POP JUMP JUMPDEST PUSH0 PUSH8 0xFFFFFFFFFFFFFFFF DUP3 GT ISZERO PUSH2 0x24CB JUMPI PUSH2 0x24CA PUSH2 0x2439 JUMP JUMPDEST JUMPDEST PUSH2 0x24D4 DUP3 PUSH2 0x2429 JUMP JUMPDEST SWAP1 POP PUSH1 0x20 DUP2 ADD SWAP1 POP SWAP2 SWAP1 POP JUMP JUMPDEST DUP3 DUP2 DUP4 MCOPY PUSH0 DUP4 DUP4 ADD MSTORE POP POP POP JUMP JUMPDEST PUSH0 PUSH2 0x2501 PUSH2 0x24FC DUP5 PUSH2 0x24B1 JUMP JUMPDEST PUSH2 0x2497 JUMP JUMPDEST SWAP1 POP DUP3 DUP2 MSTORE PUSH1 0x20 DUP2 ADD DUP5 DUP5 DUP5 ADD GT ISZERO PUSH2 0x251D JUMPI PUSH2 0x251C PUSH2 0x2425 JUMP JUMPDEST JUMPDEST PUSH2 0x2528 DUP5 DUP3 DUP6 PUSH2 0x24E1 JUMP JUMPDEST POP SWAP4 SWAP3 POP POP POP JUMP JUMPDEST PUSH0 DUP3 PUSH1 0x1F DUP4 ADD SLT PUSH2 0x2544 JUMPI PUSH2 0x2543 PUSH2 0x2421 JUMP JUMPDEST JUMPDEST DUP2 MLOAD PUSH2 0x2554 DUP5 DUP3 PUSH1 0x20 DUP7 ADD PUSH2 0x24EF JUMP JUMPDEST SWAP2 POP POP SWAP3 SWAP2 POP POP JUMP JUMPDEST PUSH0 PUSH1 0x20 DUP3 DUP5 SUB SLT ISZERO PUSH2 0x2572 JUMPI PUSH2 0x2571 PUSH2 0x184F JUMP JUMPDEST JUMPDEST PUSH0 DUP3 ADD MLOAD PUSH8 0xFFFFFFFFFFFFFFFF DUP2 GT ISZERO PUSH2 0x258F JUMPI PUSH2 0x258E PUSH2 0x1853 JUMP JUMPDEST JUMPDEST PUSH2 0x259B DUP5 DUP3 DUP6 ADD PUSH2 0x2530 JUMP JUMPDEST SWAP2 POP POP SWAP3 SWAP2 POP POP JUMP JUMPDEST PUSH0 DUP2 SWAP1 POP SWAP3 SWAP2 POP POP JUMP JUMPDEST PUSH32 0x4163637265646974656400000000000000000000000000000000000000000000 PUSH0 DUP3 ADD MSTORE POP JUMP JUMPDEST PUSH0 PUSH2 0x25E2 PUSH1 0xA DUP4 PUSH2 0x25A4 JUMP JUMPDEST SWAP2 POP PUSH2 0x25ED DUP3 PUSH2 0x25AE JUMP JUMPDEST PUSH1 0xA DUP3 ADD SWAP1 POP SWAP2 SWAP1 POP JUMP JUMPDEST PUSH0 PUSH2 0x2602 DUP3 PUSH2 0x25D6 JUMP JUMPDEST SWAP2 POP DUP2 SWAP1 POP SWAP2 SWAP1 POP JUMP JUMPDEST PUSH0 DUP2 MLOAD SWAP1 POP SWAP2 SWAP1 POP JUMP JUMPDEST PUSH0 PUSH2 0x2620 DUP3 PUSH2 0x260C JUMP JUMPDEST PUSH2 0x262A DUP2 DUP6 PUSH2 0x25A4 JUMP JUMPDEST SWAP4 POP PUSH2 0x263A DUP2 DUP6 PUSH1 0x20 DUP7 ADD PUSH2 0x24E1 JUMP JUMPDEST DUP1 DUP5 ADD SWAP2 POP POP SWAP3 SWAP2 POP POP JUMP JUMPDEST PUSH0 PUSH2 0x2651 DUP3 DUP5 PUSH2 0x2616 JUMP JUMPDEST SWAP2 POP DUP2 SWAP1 POP SWAP3 SWAP2 POP POP JUMP JUMPDEST PUSH32 0x4E6F6E5553000000000000000000000000000000000000000000000000000000 PUSH0 DUP3 ADD MSTORE POP JUMP JUMPDEST PUSH0 PUSH2 0x2690 PUSH1 0x5 DUP4 PUSH2 0x25A4 JUMP JUMPDEST SWAP2 POP PUSH2 0x269B DUP3 PUSH2 0x265C JUMP JUMPDEST PUSH1 0x5 DUP3 ADD SWAP1 POP SWAP2 SWAP1 POP JUMP JUMPDEST PUSH0 PUSH2 0x26B0 DUP3 PUSH2 0x2684 JUMP JUMPDEST SWAP2 POP DUP2 SWAP1 POP SWAP2 SWAP1 POP JUMP JUMPDEST PUSH32 0x496E737469747574696F6E616C00000000000000000000000000000000000000 PUSH0 DUP3 ADD MSTORE POP JUMP JUMPDEST PUSH0 PUSH2 0x26EE PUSH1 0xD DUP4 PUSH2 0x25A4 JUMP JUMPDEST SWAP2 POP PUSH2 0x26F9 DUP3 PUSH2 0x26BA JUMP JUMPDEST PUSH1 0xD DUP3 ADD SWAP1 POP SWAP2 SWAP1 POP JUMP JUMPDEST PUSH0 PUSH2 0x270E DUP3 PUSH2 0x26E2 JUMP JUMPDEST SWAP2 POP DUP2 SWAP1 POP SWAP2 SWAP1 POP JUMP JUMPDEST PUSH0 PUSH1 0x60 DUP3 ADD SWAP1 POP PUSH2 0x272B PUSH0 DUP4 ADD DUP7 PUSH2 0x19A5 JUMP JUMPDEST PUSH2 0x2738 PUSH1 0x20 DUP4 ADD DUP6 PUSH2 0x19CD JUMP JUMPDEST PUSH2 0x2745 PUSH1 0x40 DUP4 ADD DUP5 PUSH2 0x19CD JUMP JUMPDEST SWAP5 SWAP4 POP POP POP POP JUMP INVALID LOG2 PUSH5 0x6970667358 0x22 SLT KECCAK256 0xEF ADDRESS PUSH9 0x3296452A1CA42564D2 0xCA PUSH19 0x364D4046DDAFD963BBC19B13B865ECFDB74264 PUSH20 0x6F6C634300081900330000000000000000000000 "
				},
				"gasEstimates": {
					"creation": {
						"codeDepositCost": "2023000",
						"executionCost": "infinite",
						"totalCost": "infinite"
					},
					"external": {
						"AuctionTime()": "infinite",
						"PROTON()": "infinite",
						"USDT()": "infinite",
						"auctionStatus(bool)": "infinite",
						"buyTokens(address,address,uint256)": "infinite",
						"calculateTokenAmount(uint256)": "infinite",
						"claimReward(address,uint256)": "infinite",
						"currentRoundEnd()": "2470",
						"currentRoundStart()": "2471",
						"dailyAuctions(uint256)": "infinite",
						"dailySupply()": "2491",
						"fundsWallet()": "2650",
						"getCurrentDay()": "infinite",
						"getDailyAuction(uint256)": "infinite",
						"isPaused()": "2555",
						"lockingDay()": "2470",
						"maxOversubscription()": "2536",
						"maxOversubscriptionlimit()": "2493",
						"owner()": "2583",
						"renounceOwnership()": "infinite",
						"resetAuction()": "infinite",
						"setDailyDetails(uint256,uint256,uint256)": "infinite",
						"setFundsWallet(address)": "infinite",
						"setPrice(uint256)": "infinite",
						"startAuction()": "infinite",
						"tokenPrice()": "2471",
						"totalSell()": "2469",
						"transferOwnership(address)": "infinite",
						"userDetail(address)": "infinite"
					},
					"internal": {
						"remainingToken()": "infinite"
					}
				},
				"methodIdentifiers": {
					"AuctionTime()": "fa6770b3",
					"PROTON()": "d358aa20",
					"USDT()": "c54e44eb",
					"auctionStatus(bool)": "30db6f95",
					"buyTokens(address,address,uint256)": "dcefa538",
					"calculateTokenAmount(uint256)": "a24bcf46",
					"claimReward(address,uint256)": "174e31c4",
					"currentRoundEnd()": "9f7f9da2",
					"currentRoundStart()": "222d7e34",
					"dailyAuctions(uint256)": "3c830a38",
					"dailySupply()": "e8b611d6",
					"fundsWallet()": "2194f3a2",
					"getCurrentDay()": "3e6968b6",
					"getDailyAuction(uint256)": "62e00dd5",
					"isPaused()": "b187bd26",
					"lockingDay()": "bf4dd131",
					"maxOversubscription()": "bb4d5e7c",
					"maxOversubscriptionlimit()": "224a8057",
					"owner()": "8da5cb5b",
					"renounceOwnership()": "715018a6",
					"resetAuction()": "7d350453",
					"setDailyDetails(uint256,uint256,uint256)": "18d7fa46",
					"setFundsWallet(address)": "64e39b87",
					"setPrice(uint256)": "91b7f5ed",
					"startAuction()": "6b64c769",
					"tokenPrice()": "7ff9b596",
					"totalSell()": "e0202f87",
					"transferOwnership(address)": "f2fde38b",
					"userDetail(address)": "5b10493f"
				}
			},
			"storageLayout": {
				"storage": [
					{
						"astId": 33,
						"contract": "Auction/auction1404.sol:ProtonAuction",
						"label": "_owner",
						"offset": 0,
						"slot": "0",
						"type": "t_address"
					},
					{
						"astId": 990,
						"contract": "Auction/auction1404.sol:ProtonAuction",
						"label": "USDT",
						"offset": 0,
						"slot": "1",
						"type": "t_contract(IERC20)378"
					},
					{
						"astId": 993,
						"contract": "Auction/auction1404.sol:ProtonAuction",
						"label": "PROTON",
						"offset": 0,
						"slot": "2",
						"type": "t_contract(IProton)985"
					},
					{
						"astId": 1000,
						"contract": "Auction/auction1404.sol:ProtonAuction",
						"label": "tokenPrice",
						"offset": 0,
						"slot": "3",
						"type": "t_uint256"
					},
					{
						"astId": 1007,
						"contract": "Auction/auction1404.sol:ProtonAuction",
						"label": "dailySupply",
						"offset": 0,
						"slot": "4",
						"type": "t_uint256"
					},
					{
						"astId": 1014,
						"contract": "Auction/auction1404.sol:ProtonAuction",
						"label": "maxOversubscription",
						"offset": 0,
						"slot": "5",
						"type": "t_uint256"
					},
					{
						"astId": 1021,
						"contract": "Auction/auction1404.sol:ProtonAuction",
						"label": "maxOversubscriptionlimit",
						"offset": 0,
						"slot": "6",
						"type": "t_uint256"
					},
					{
						"astId": 1023,
						"contract": "Auction/auction1404.sol:ProtonAuction",
						"label": "currentRoundEnd",
						"offset": 0,
						"slot": "7",
						"type": "t_uint256"
					},
					{
						"astId": 1025,
						"contract": "Auction/auction1404.sol:ProtonAuction",
						"label": "totalSell",
						"offset": 0,
						"slot": "8",
						"type": "t_uint256"
					},
					{
						"astId": 1028,
						"contract": "Auction/auction1404.sol:ProtonAuction",
						"label": "lockingDay",
						"offset": 0,
						"slot": "9",
						"type": "t_uint256"
					},
					{
						"astId": 1030,
						"contract": "Auction/auction1404.sol:ProtonAuction",
						"label": "currentRoundStart",
						"offset": 0,
						"slot": "10",
						"type": "t_uint256"
					},
					{
						"astId": 1033,
						"contract": "Auction/auction1404.sol:ProtonAuction",
						"label": "isPaused",
						"offset": 0,
						"slot": "11",
						"type": "t_bool"
					},
					{
						"astId": 1035,
						"contract": "Auction/auction1404.sol:ProtonAuction",
						"label": "fundsWallet",
						"offset": 1,
						"slot": "11",
						"type": "t_address"
					},
					{
						"astId": 1054,
						"contract": "Auction/auction1404.sol:ProtonAuction",
						"label": "dailyAuctions",
						"offset": 0,
						"slot": "12",
						"type": "t_mapping(t_uint256,t_struct(Auction)1044_storage)"
					},
					{
						"astId": 1059,
						"contract": "Auction/auction1404.sol:ProtonAuction",
						"label": "userDetail",
						"offset": 0,
						"slot": "13",
						"type": "t_mapping(t_address,t_struct(UserDetails)1049_storage)"
					}
				],
				"types": {
					"t_address": {
						"encoding": "inplace",
						"label": "address",
						"numberOfBytes": "20"
					},
					"t_bool": {
						"encoding": "inplace",
						"label": "bool",
						"numberOfBytes": "1"
					},
					"t_contract(IERC20)378": {
						"encoding": "inplace",
						"label": "contract IERC20",
						"numberOfBytes": "20"
					},
					"t_contract(IProton)985": {
						"encoding": "inplace",
						"label": "contract IProton",
						"numberOfBytes": "20"
					},
					"t_mapping(t_address,t_struct(UserDetails)1049_storage)": {
						"encoding": "mapping",
						"key": "t_address",
						"label": "mapping(address => struct ProtonAuction.UserDetails)",
						"numberOfBytes": "32",
						"value": "t_struct(UserDetails)1049_storage"
					},
					"t_mapping(t_uint256,t_struct(Auction)1044_storage)": {
						"encoding": "mapping",
						"key": "t_uint256",
						"label": "mapping(uint256 => struct ProtonAuction.Auction)",
						"numberOfBytes": "32",
						"value": "t_struct(Auction)1044_storage"
					},
					"t_struct(Auction)1044_storage": {
						"encoding": "inplace",
						"label": "struct ProtonAuction.Auction",
						"members": [
							{
								"astId": 1037,
								"contract": "Auction/auction1404.sol:ProtonAuction",
								"label": "tokensDaily",
								"offset": 0,
								"slot": "0",
								"type": "t_uint256"
							},
							{
								"astId": 1039,
								"contract": "Auction/auction1404.sol:ProtonAuction",
								"label": "tokensSold",
								"offset": 0,
								"slot": "1",
								"type": "t_uint256"
							},
							{
								"astId": 1041,
								"contract": "Auction/auction1404.sol:ProtonAuction",
								"label": "oversubscribed",
								"offset": 0,
								"slot": "2",
								"type": "t_uint256"
							},
							{
								"astId": 1043,
								"contract": "Auction/auction1404.sol:ProtonAuction",
								"label": "bonusMultiplier",
								"offset": 0,
								"slot": "3",
								"type": "t_uint256"
							}
						],
						"numberOfBytes": "128"
					},
					"t_struct(UserDetails)1049_storage": {
						"encoding": "inplace",
						"label": "struct ProtonAuction.UserDetails",
						"members": [
							{
								"astId": 1046,
								"contract": "Auction/auction1404.sol:ProtonAuction",
								"label": "reward",
								"offset": 0,
								"slot": "0",
								"type": "t_uint256"
							},
							{
								"astId": 1048,
								"contract": "Auction/auction1404.sol:ProtonAuction",
								"label": "buyTotal",
								"offset": 0,
								"slot": "1",
								"type": "t_uint256"
							}
						],
						"numberOfBytes": "64"
					},
					"t_uint256": {
						"encoding": "inplace",
						"label": "uint256",
						"numberOfBytes": "32"
					}
				}
			},
			"userdoc": {
				"kind": "user",
				"methods": {},
				"version": 1
			}
		}
	}
}