{"abi":[{"type":"constructor","inputs":[{"name":"admin","type":"address","internalType":"address"},{"name":"pauser","type":"address","internalType":"address"},{"name":"minter","type":"address","internalType":"address"},{"name":"registrar","type":"address","internalType":"address"},{"name":"whitelister","type":"address","internalType":"address"}],"stateMutability":"nonpayable"},{"type":"function","name":"DEFAULT_ADMIN_ROLE","inputs":[],"outputs":[{"name":"","type":"bytes32","internalType":"bytes32"}],"stateMutability":"view"},{"type":"function","name":"MINTER_ROLE","inputs":[],"outputs":[{"name":"","type":"bytes32","internalType":"bytes32"}],"stateMutability":"view"},{"type":"function","name":"PAUSER_ROLE","inputs":[],"outputs":[{"name":"","type":"bytes32","internalType":"bytes32"}],"stateMutability":"view"},{"type":"function","name":"TIMELOCKER_ROLE","inputs":[],"outputs":[{"name":"","type":"bytes32","internalType":"bytes32"}],"stateMutability":"view"},{"type":"function","name":"USER_REGISTRAR_ROLE","inputs":[],"outputs":[{"name":"","type":"bytes32","internalType":"bytes32"}],"stateMutability":"view"},{"type":"function","name":"WHITELISTER_ROLE","inputs":[],"outputs":[{"name":"","type":"bytes32","internalType":"bytes32"}],"stateMutability":"view"},{"type":"function","name":"allowance","inputs":[{"name":"owner","type":"address","internalType":"address"},{"name":"spender","type":"address","internalType":"address"}],"outputs":[{"name":"","type":"uint256","internalType":"uint256"}],"stateMutability":"view"},{"type":"function","name":"approve","inputs":[{"name":"spender","type":"address","internalType":"address"},{"name":"value","type":"uint256","internalType":"uint256"}],"outputs":[{"name":"","type":"bool","internalType":"bool"}],"stateMutability":"nonpayable"},{"type":"function","name":"balanceOf","inputs":[{"name":"account","type":"address","internalType":"address"}],"outputs":[{"name":"","type":"uint256","internalType":"uint256"}],"stateMutability":"view"},{"type":"function","name":"burn","inputs":[{"name":"_from","type":"address","internalType":"address"},{"name":"_amount","type":"uint256","internalType":"uint256"}],"outputs":[{"name":"","type":"bool","internalType":"bool"}],"stateMutability":"nonpayable"},{"type":"function","name":"checkLockup","inputs":[{"name":"_address","type":"address","internalType":"address"}],"outputs":[{"name":"","type":"uint256[]","internalType":"uint256[]"},{"name":"","type":"uint256[]","internalType":"uint256[]"}],"stateMutability":"view"},{"type":"function","name":"checkTimelock","inputs":[{"name":"_address","type":"address","internalType":"address"},{"name":"amount","type":"uint256","internalType":"uint256"},{"name":"balance","type":"uint256","internalType":"uint256"}],"outputs":[{"name":"","type":"bool","internalType":"bool"}],"stateMutability":"view"},{"type":"function","name":"checkWhitelists","inputs":[{"name":"from","type":"address","internalType":"address"},{"name":"to","type":"address","internalType":"address"}],"outputs":[{"name":"","type":"bool","internalType":"bool"}],"stateMutability":"view"},{"type":"function","name":"decimals","inputs":[],"outputs":[{"name":"","type":"uint8","internalType":"uint8"}],"stateMutability":"view"},{"type":"function","name":"detectTransferFromRestriction","inputs":[{"name":"sender","type":"address","internalType":"address"},{"name":"from","type":"address","internalType":"address"},{"name":"to","type":"address","internalType":"address"},{"name":"amount","type":"uint256","internalType":"uint256"}],"outputs":[{"name":"","type":"uint8","internalType":"uint8"}],"stateMutability":"view"},{"type":"function","name":"detectTransferRestriction","inputs":[{"name":"from","type":"address","internalType":"address"},{"name":"to","type":"address","internalType":"address"},{"name":"amount","type":"uint256","internalType":"uint256"}],"outputs":[{"name":"","type":"uint8","internalType":"uint8"}],"stateMutability":"view"},{"type":"function","name":"getLockedAmount","inputs":[{"name":"_address","type":"address","internalType":"address"}],"outputs":[{"name":"","type":"uint256","internalType":"uint256"}],"stateMutability":"view"},{"type":"function","name":"getRoleAdmin","inputs":[{"name":"role","type":"bytes32","internalType":"bytes32"}],"outputs":[{"name":"","type":"bytes32","internalType":"bytes32"}],"stateMutability":"view"},{"type":"function","name":"getUserType","inputs":[{"name":"_user","type":"address","internalType":"address"}],"outputs":[{"name":"","type":"string","internalType":"string"}],"stateMutability":"view"},{"type":"function","name":"getWhitelistData","inputs":[{"name":"_address","type":"address","internalType":"address"}],"outputs":[{"name":"","type":"string","internalType":"string"}],"stateMutability":"view"},{"type":"function","name":"getWhitelistStatus","inputs":[{"name":"_address","type":"address","internalType":"address"}],"outputs":[{"name":"","type":"bool","internalType":"bool"}],"stateMutability":"view"},{"type":"function","name":"grantRole","inputs":[{"name":"role","type":"bytes32","internalType":"bytes32"},{"name":"account","type":"address","internalType":"address"}],"outputs":[],"stateMutability":"nonpayable"},{"type":"function","name":"hasRole","inputs":[{"name":"role","type":"bytes32","internalType":"bytes32"},{"name":"account","type":"address","internalType":"address"}],"outputs":[{"name":"","type":"bool","internalType":"bool"}],"stateMutability":"view"},{"type":"function","name":"isRegistered","inputs":[{"name":"_user","type":"address","internalType":"address"}],"outputs":[{"name":"","type":"bool","internalType":"bool"}],"stateMutability":"view"},{"type":"function","name":"lock","inputs":[{"name":"_address","type":"address","internalType":"address"},{"name":"amount","type":"uint256","internalType":"uint256"},{"name":"releaseTime","type":"uint256","internalType":"uint256"}],"outputs":[{"name":"","type":"bool","internalType":"bool"}],"stateMutability":"nonpayable"},{"type":"function","name":"lockups","inputs":[{"name":"","type":"address","internalType":"address"},{"name":"","type":"uint256","internalType":"uint256"}],"outputs":[{"name":"amount","type":"uint256","internalType":"uint256"},{"name":"releaseTime","type":"uint256","internalType":"uint256"}],"stateMutability":"view"},{"type":"function","name":"messageForTransferRestriction","inputs":[{"name":"restrictionCode","type":"uint8","internalType":"uint8"}],"outputs":[{"name":"","type":"string","internalType":"string"}],"stateMutability":"view"},{"type":"function","name":"mint","inputs":[{"name":"to","type":"address","internalType":"address"},{"name":"amount","type":"uint256","internalType":"uint256"}],"outputs":[],"stateMutability":"nonpayable"},{"type":"function","name":"name","inputs":[],"outputs":[{"name":"","type":"string","internalType":"string"}],"stateMutability":"view"},{"type":"function","name":"pause","inputs":[],"outputs":[],"stateMutability":"nonpayable"},{"type":"function","name":"paused","inputs":[],"outputs":[{"name":"","type":"bool","internalType":"bool"}],"stateMutability":"view"},{"type":"function","name":"register","inputs":[{"name":"_user","type":"address","internalType":"address"},{"name":"_userType","type":"string","internalType":"string"}],"outputs":[],"stateMutability":"nonpayable"},{"type":"function","name":"release","inputs":[{"name":"_address","type":"address","internalType":"address"},{"name":"amountToRelease","type":"uint256","internalType":"uint256"}],"outputs":[{"name":"","type":"bool","internalType":"bool"}],"stateMutability":"nonpayable"},{"type":"function","name":"renounceRole","inputs":[{"name":"role","type":"bytes32","internalType":"bytes32"},{"name":"callerConfirmation","type":"address","internalType":"address"}],"outputs":[],"stateMutability":"nonpayable"},{"type":"function","name":"revoke","inputs":[{"name":"_from","type":"address","internalType":"address"},{"name":"_amount","type":"uint256","internalType":"uint256"}],"outputs":[{"name":"","type":"bool","internalType":"bool"}],"stateMutability":"nonpayable"},{"type":"function","name":"revokeRole","inputs":[{"name":"role","type":"bytes32","internalType":"bytes32"},{"name":"account","type":"address","internalType":"address"}],"outputs":[],"stateMutability":"nonpayable"},{"type":"function","name":"setWhitelist","inputs":[{"name":"to","type":"address","internalType":"address"},{"name":"status","type":"bool","internalType":"bool"},{"name":"data","type":"string","internalType":"string"}],"outputs":[{"name":"","type":"bool","internalType":"bool"}],"stateMutability":"nonpayable"},{"type":"function","name":"supportsInterface","inputs":[{"name":"interfaceId","type":"bytes4","internalType":"bytes4"}],"outputs":[{"name":"","type":"bool","internalType":"bool"}],"stateMutability":"view"},{"type":"function","name":"symbol","inputs":[],"outputs":[{"name":"","type":"string","internalType":"string"}],"stateMutability":"view"},{"type":"function","name":"totalSupply","inputs":[],"outputs":[{"name":"","type":"uint256","internalType":"uint256"}],"stateMutability":"view"},{"type":"function","name":"transfer","inputs":[{"name":"to","type":"address","internalType":"address"},{"name":"value","type":"uint256","internalType":"uint256"}],"outputs":[{"name":"success","type":"bool","internalType":"bool"}],"stateMutability":"nonpayable"},{"type":"function","name":"transferFrom","inputs":[{"name":"from","type":"address","internalType":"address"},{"name":"to","type":"address","internalType":"address"},{"name":"value","type":"uint256","internalType":"uint256"}],"outputs":[{"name":"success","type":"bool","internalType":"bool"}],"stateMutability":"nonpayable"},{"type":"function","name":"unpause","inputs":[],"outputs":[],"stateMutability":"nonpayable"},{"type":"function","name":"updateTransferRestrictions","inputs":[{"name":"_newRestrictionsAddress","type":"address","internalType":"address"}],"outputs":[{"name":"","type":"bool","internalType":"bool"}],"stateMutability":"nonpayable"},{"type":"function","name":"whitelist","inputs":[{"name":"","type":"address","internalType":"address"}],"outputs":[{"name":"status","type":"bool","internalType":"bool"},{"name":"data","type":"string","internalType":"string"}],"stateMutability":"view"},{"type":"event","name":"AccountLock","inputs":[{"name":"_address","type":"address","indexed":true,"internalType":"address"},{"name":"amount","type":"uint256","indexed":false,"internalType":"uint256"},{"name":"releaseTime","type":"uint256","indexed":false,"internalType":"uint256"}],"anonymous":false},{"type":"event","name":"AccountRelease","inputs":[{"name":"_address","type":"address","indexed":true,"internalType":"address"},{"name":"amount","type":"uint256","indexed":false,"internalType":"uint256"}],"anonymous":false},{"type":"event","name":"Approval","inputs":[{"name":"owner","type":"address","indexed":true,"internalType":"address"},{"name":"spender","type":"address","indexed":true,"internalType":"address"},{"name":"value","type":"uint256","indexed":false,"internalType":"uint256"}],"anonymous":false},{"type":"event","name":"Paused","inputs":[{"name":"account","type":"address","indexed":false,"internalType":"address"}],"anonymous":false},{"type":"event","name":"RestrictionsUpdated","inputs":[{"name":"newRestrictionsAddress","type":"address","indexed":false,"internalType":"address"},{"name":"updatedBy","type":"address","indexed":false,"internalType":"address"}],"anonymous":false},{"type":"event","name":"Revoke","inputs":[{"name":"revoker","type":"address","indexed":true,"internalType":"address"},{"name":"from","type":"address","indexed":true,"internalType":"address"},{"name":"amount","type":"uint256","indexed":false,"internalType":"uint256"}],"anonymous":false},{"type":"event","name":"RoleAdminChanged","inputs":[{"name":"role","type":"bytes32","indexed":true,"internalType":"bytes32"},{"name":"previousAdminRole","type":"bytes32","indexed":true,"internalType":"bytes32"},{"name":"newAdminRole","type":"bytes32","indexed":true,"internalType":"bytes32"}],"anonymous":false},{"type":"event","name":"RoleGranted","inputs":[{"name":"role","type":"bytes32","indexed":true,"internalType":"bytes32"},{"name":"account","type":"address","indexed":true,"internalType":"address"},{"name":"sender","type":"address","indexed":true,"internalType":"address"}],"anonymous":false},{"type":"event","name":"RoleRevoked","inputs":[{"name":"role","type":"bytes32","indexed":true,"internalType":"bytes32"},{"name":"account","type":"address","indexed":true,"internalType":"address"},{"name":"sender","type":"address","indexed":true,"internalType":"address"}],"anonymous":false},{"type":"event","name":"Transfer","inputs":[{"name":"from","type":"address","indexed":true,"internalType":"address"},{"name":"to","type":"address","indexed":true,"internalType":"address"},{"name":"value","type":"uint256","indexed":false,"internalType":"uint256"}],"anonymous":false},{"type":"event","name":"Unpaused","inputs":[{"name":"account","type":"address","indexed":false,"internalType":"address"}],"anonymous":false},{"type":"event","name":"UserRegistered","inputs":[{"name":"user","type":"address","indexed":true,"internalType":"address"},{"name":"userType","type":"string","indexed":false,"internalType":"string"}],"anonymous":false},{"type":"event","name":"WhitelistUpdate","inputs":[{"name":"_address","type":"address","indexed":false,"internalType":"address"},{"name":"status","type":"bool","indexed":false,"internalType":"bool"},{"name":"data","type":"string","indexed":false,"internalType":"string"}],"anonymous":false},{"type":"error","name":"AccessControlBadConfirmation","inputs":[]},{"type":"error","name":"AccessControlUnauthorizedAccount","inputs":[{"name":"account","type":"address","internalType":"address"},{"name":"neededRole","type":"bytes32","internalType":"bytes32"}]},{"type":"error","name":"ERC20InsufficientAllowance","inputs":[{"name":"spender","type":"address","internalType":"address"},{"name":"allowance","type":"uint256","internalType":"uint256"},{"name":"needed","type":"uint256","internalType":"uint256"}]},{"type":"error","name":"ERC20InsufficientBalance","inputs":[{"name":"sender","type":"address","internalType":"address"},{"name":"balance","type":"uint256","internalType":"uint256"},{"name":"needed","type":"uint256","internalType":"uint256"}]},{"type":"error","name":"ERC20InvalidApprover","inputs":[{"name":"approver","type":"address","internalType":"address"}]},{"type":"error","name":"ERC20InvalidReceiver","inputs":[{"name":"receiver","type":"address","internalType":"address"}]},{"type":"error","name":"ERC20InvalidSender","inputs":[{"name":"sender","type":"address","internalType":"address"}]},{"type":"error","name":"ERC20InvalidSpender","inputs":[{"name":"spender","type":"address","internalType":"address"}]},{"type":"error","name":"EnforcedPause","inputs":[]},{"type":"error","name":"ExpectedPause","inputs":[]}],"bytecode":{"object":"0x60806040523480156200001157600080fd5b5060405162002cb638038062002cb683398101604081905262000034916200023a565b60405180604001604052806006815260200165282927aa27a760d11b8152506040518060400160405280600481526020016328292a2760e11b81525081600390816200008191906200034f565b5060046200009082826200034f565b50506008805460ff1916905550620000c97f8e011e025847d9fd71c1d4698fcea4a047c303cb00ecc469fcc698787446e0f3836200016a565b50620000d76000866200016a565b50620001047f65d7a28e3265b37a6474929f336521b332c1681b933f6cb9f3376673440d862a856200016a565b50620001317f9f2df0fed2c77648de5860a4cc508cd0818c85b8b8a1ab4ceeef8d981c8956a6846200016a565b506200015e7f8619cecd8b9e095ab43867f5b69d492180450fe862e6b50bfbfb24b75dd84c8a826200016a565b5050505050506200041b565b60008281526005602090815260408083206001600160a01b038516845290915281205460ff16620002135760008381526005602090815260408083206001600160a01b03861684529091529020805460ff19166001179055620001ca3390565b6001600160a01b0316826001600160a01b0316847f2f8788117e7eff1d82e926ec794901d17c78024a50270940304540a733656f0d60405160405180910390a450600162000217565b5060005b92915050565b80516001600160a01b03811681146200023557600080fd5b919050565b600080600080600060a086880312156200025357600080fd5b6200025e866200021d565b94506200026e602087016200021d565b93506200027e604087016200021d565b92506200028e606087016200021d565b91506200029e608087016200021d565b90509295509295909350565b634e487b7160e01b600052604160045260246000fd5b600181811c90821680620002d557607f821691505b602082108103620002f657634e487b7160e01b600052602260045260246000fd5b50919050565b601f8211156200034a57600081815260208120601f850160051c81016020861015620003255750805b601f850160051c820191505b81811015620003465782815560010162000331565b5050505b505050565b81516001600160401b038111156200036b576200036b620002aa565b62000383816200037c8454620002c0565b84620002fc565b602080601f831160018114620003bb5760008415620003a25750858301515b600019600386901b1c1916600185901b17855562000346565b600085815260208120601f198616915b82811015620003ec57888601518255948401946001909101908401620003cb565b50858210156200040b5787850151600019600388901b60f8161c191681555b5050505050600190811b01905550565b61288b806200042b6000396000f3fe608060405234801561001057600080fd5b506004361061027f5760003560e01c80638456cb591161015c578063c3c5a547116100ce578063d9ba32fc11610087578063d9ba32fc14610614578063db0cc92a14610640578063dd62ed3e14610653578063e2ab691d1461068c578063e63ab1e91461069f578063eac449d9146106c657600080fd5b8063c3c5a54714610579578063c697e4a31461058c578063c93d0b1e1461059f578063d4ce1415146105c7578063d5391393146105da578063d547741f1461060157600080fd5b806399da091d1161012057806399da091d146104dc5780639a6e292f146105095780639b19251a1461052a5780639dc29fac1461054b578063a217fddf1461055e578063a9059cbb1461056657600080fd5b80638456cb59146104935780638b3f863f1461049b57806391d14854146104ae578063929ec537146104c157806395d89b41146104d457600080fd5b806332434a2e116101f55780635c975abb116101b95780635c975abb146103eb5780636626ffca146103f657806368aa98131461041d5780636dc5d2481461043057806370a08231146104575780637f4ab1dd1461048057600080fd5b806332434a2e1461038357806336568abe146103965780633f4ba83a146103a957806340c10f19146103b1578063570618e1146103c457600080fd5b806318160ddd1161024757806318160ddd1461030c57806323b872dd1461031e578063248a9ca31461033157806327ac1975146103545780632f2ff15d14610367578063313ce5671461037c57600080fd5b806301ffc9a7146102845780630357371d146102ac57806306fdde03146102bf5780630754cede146102d4578063095ea7b3146102f9575b600080fd5b61029761029236600461202b565b6106d9565b60405190151581526020015b60405180910390f35b6102976102ba366004612071565b610710565b6102c7610939565b6040516102a391906120eb565b6102e76102e23660046120fe565b6109cb565b60405160ff90911681526020016102a3565b610297610307366004612071565b610a84565b6002545b6040519081526020016102a3565b61029761032c366004612149565b610a9c565b61031061033f366004612185565b60009081526005602052604090206001015490565b61029761036236600461220d565b610c59565b61037a6103753660046122b5565b610d1e565b005b60126102e7565b61037a6103913660046122e1565b610d49565b61037a6103a43660046122b5565b610e5f565b61037a610e97565b61037a6103bf366004612071565b610ecc565b6103107f8619cecd8b9e095ab43867f5b69d492180450fe862e6b50bfbfb24b75dd84c8a81565b60085460ff16610297565b6103107f8e011e025847d9fd71c1d4698fcea4a047c303cb00ecc469fcc698787446e0f381565b6102c761042b366004612364565b610f00565b6103107f518a492b51bf88c1be675ab97647d88d770fcd201b74de363b9b137e6d641b2081565b610310610465366004612364565b6001600160a01b031660009081526020819052604090205490565b6102c761048e36600461238e565b610faf565b61037a611023565b6102c76104a9366004612364565b611055565b6102976104bc3660046122b5565b61107c565b6103106104cf366004612364565b6110a7565b6102c7611144565b6102976104ea3660046123ab565b506001600160a01b031660009081526006602052604090205460ff1690565b61051c610517366004612364565b611153565b6040516102a3929190612410565b61053d610538366004612364565b6112ae565b6040516102a3929190612435565b610297610559366004612071565b611357565b610310600081565b610297610574366004612071565b61136d565b610297610587366004612364565b61151b565b61029761059a366004612450565b611547565b6105b26105ad366004612071565b611582565b604080519283526020830191909152016102a3565b6102e76105d5366004612149565b6115be565b6103107f9f2df0fed2c77648de5860a4cc508cd0818c85b8b8a1ab4ceeef8d981c8956a681565b61037a61060f3660046122b5565b61166e565b610297610622366004612364565b6001600160a01b031660009081526006602052604090205460ff1690565b61029761064e366004612364565b611693565b6103106106613660046123ab565b6001600160a01b03918216600090815260016020908152604080832093909416825291909152205490565b61029761069a366004612450565b611700565b6103107f65d7a28e3265b37a6474929f336521b332c1681b933f6cb9f3376673440d862a81565b6102976106d4366004612071565b61170d565b60006001600160e01b03198216637965db0b60e01b148061070a57506301ffc9a760e01b6001600160e01b03198316145b92915050565b60007f518a492b51bf88c1be675ab97647d88d770fcd201b74de363b9b137e6d641b2061073c8161176e565b6001600160a01b0384166107895760405162461bcd60e51b815260206004820152600f60248201526e496e76616c6964206164647265737360881b60448201526064015b60405180910390fd5b6001600160a01b0384166000908152600760205260408120815b81548110156108e957428282815481106107bf576107bf612483565b906000526020600020906002020160010154111580156107de57508583105b156108d75760006107ef84886124af565b90508083838154811061080457610804612483565b906000526020600020906002020160000154116108765782828154811061082d5761082d612483565b9060005260206000209060020201600001548461084a91906124c2565b9350600083838154811061086057610860612483565b60009182526020909120600290910201556108d5565b8083838154811061088957610889612483565b9060005260206000209060020201600001546108a591906124af565b8383815481106108b7576108b7612483565b60009182526020909120600290910201556108d281856124c2565b93505b505b806108e1816124d5565b9150506107a3565b50856001600160a01b03167f784c9f4cec58b38461217a62f8f9c0f2cac7b46c0ed23bd1a7f4a5376ac787e18360405161092591815260200190565b60405180910390a250600195945050505050565b606060038054610948906124ee565b80601f0160208091040260200160405190810160405280929190818152602001828054610974906124ee565b80156109c15780601f10610996576101008083540402835291602001916109c1565b820191906000526020600020905b8154815290600101906020018083116109a457829003601f168201915b5050505050905090565b600a546000906001600160a01b03166109f65760405162461bcd60e51b815260040161078090612522565b600a546040516303aa676f60e11b81526001600160a01b038781166004830152868116602483015285811660448301526064820185905290911690630754cede90608401602060405180830381865afa158015610a57573d6000803e3d6000fd5b505050506040513d601f19601f82011682018060405250810190610a7b919061256b565b95945050505050565b600033610a92818585611778565b5060019392505050565b600a546040516303aa676f60e11b815233600482018190526001600160a01b038087166024840152808616604484015260648301859052600093919287928792879287929190911690630754cede90608401602060405180830381865afa158015610b0b573d6000803e3d6000fd5b505050506040513d601f19601f82011682018060405250810190610b2f919061256b565b9050600a60009054906101000a90046001600160a01b03166001600160a01b0316635ec647596040518163ffffffff1660e01b8152600401602060405180830381865afa158015610b84573d6000803e3d6000fd5b505050506040513d601f19601f82011682018060405250810190610ba89190612588565b600a54604051637f4ab1dd60e01b815260ff84166004820181905292909214916001600160a01b0390911690637f4ab1dd90602401600060405180830381865afa158015610bfa573d6000803e3d6000fd5b505050506040513d6000823e601f3d908101601f19168201604052610c2291908101906125a1565b90610c405760405162461bcd60e51b815260040161078091906120eb565b50610c4c898989611785565b9998505050505050505050565b60007f8619cecd8b9e095ab43867f5b69d492180450fe862e6b50bfbfb24b75dd84c8a610c858161176e565b604080518082018252851515815260208082018681526001600160a01b038916600090815260069092529290208151815460ff191690151517815591519091906001820190610cd4908261265d565b509050507f461193ae6c23672174f7a3ea35649aacdc857bfcae58cd12d61ea432c05bcbd5858585604051610d0b9392919061271d565b60405180910390a1506001949350505050565b600082815260056020526040902060010154610d398161176e565b610d4383836117a9565b50505050565b7f8e011e025847d9fd71c1d4698fcea4a047c303cb00ecc469fcc698787446e0f3610d738161176e565b610db283838080601f01602080910402602001604051908101604052809392919081815260200183838082843760009201919091525061183d92505050565b610df25760405162461bcd60e51b8152602060048201526011602482015270496e76616c69642075736572207479706560781b6044820152606401610780565b6001600160a01b0384166000908152600960205260409020610e15838583612749565b50836001600160a01b03167f48cac28ad4dc618e15f4c2dd5e97751182f166de97b25618318b2112aa951a2f8484604051610e5192919061280a565b60405180910390a250505050565b6001600160a01b0381163314610e885760405163334bd91960e11b815260040160405180910390fd5b610e928282611a19565b505050565b7f65d7a28e3265b37a6474929f336521b332c1681b933f6cb9f3376673440d862a610ec18161176e565b610ec9611a86565b50565b7f9f2df0fed2c77648de5860a4cc508cd0818c85b8b8a1ab4ceeef8d981c8956a6610ef68161176e565b610e928383611ad8565b6001600160a01b0381166000908152600660205260409020600101805460609190610f2a906124ee565b80601f0160208091040260200160405190810160405280929190818152602001828054610f56906124ee565b8015610fa35780601f10610f7857610100808354040283529160200191610fa3565b820191906000526020600020905b815481529060010190602001808311610f8657829003601f168201915b50505050509050919050565b600a54604051637f4ab1dd60e01b815260ff831660048201526060916001600160a01b031690637f4ab1dd90602401600060405180830381865afa158015610ffb573d6000803e3d6000fd5b505050506040513d6000823e601f3d908101601f1916820160405261070a91908101906125a1565b7f65d7a28e3265b37a6474929f336521b332c1681b933f6cb9f3376673440d862a61104d8161176e565b610ec9611b12565b6001600160a01b0381166000908152600960205260409020805460609190610f2a906124ee565b60009182526005602090815260408084206001600160a01b0393909316845291905290205460ff1690565b6001600160a01b03811660009081526007602052604081208190815b815481101561113b578181815481106110de576110de612483565b9060005260206000209060020201600101544210156111295781818154811061110957611109612483565b9060005260206000209060020201600001548361112691906124c2565b92505b80611133816124d5565b9150506110c3565b50909392505050565b606060048054610948906124ee565b6001600160a01b0381166000908152600760205260408120805460609283929167ffffffffffffffff81111561118b5761118b61219e565b6040519080825280602002602001820160405280156111b4578160200160208202803683370190505b50825490915060009067ffffffffffffffff8111156111d5576111d561219e565b6040519080825280602002602001820160405280156111fe578160200160208202803683370190505b50905060005b83548110156112a25783818154811061121f5761121f612483565b90600052602060002090600202016000015483828151811061124357611243612483565b60200260200101818152505083818154811061126157611261612483565b90600052602060002090600202016001015482828151811061128557611285612483565b60209081029190910101528061129a816124d5565b915050611204565b50909590945092505050565b6006602052600090815260409020805460018201805460ff90921692916112d4906124ee565b80601f0160208091040260200160405190810160405280929190818152602001828054611300906124ee565b801561134d5780601f106113225761010080835404028352916020019161134d565b820191906000526020600020905b81548152906001019060200180831161133057829003601f168201915b5050505050905082565b6000806113638161176e565b610a928484611b4f565b600a5460405163d4ce141560e01b815233600482018190526001600160a01b03808616602484015260448301859052600093919286928692869291169063d4ce141590606401602060405180830381865afa1580156113d0573d6000803e3d6000fd5b505050506040513d601f19601f820116820180604052508101906113f4919061256b565b9050600a60009054906101000a90046001600160a01b03166001600160a01b0316635ec647596040518163ffffffff1660e01b8152600401602060405180830381865afa158015611449573d6000803e3d6000fd5b505050506040513d601f19601f8201168201806040525081019061146d9190612588565b600a54604051637f4ab1dd60e01b815260ff84166004820181905292909214916001600160a01b0390911690637f4ab1dd90602401600060405180830381865afa1580156114bf573d6000803e3d6000fd5b505050506040513d6000823e601f3d908101601f191682016040526114e791908101906125a1565b906115055760405162461bcd60e51b815260040161078091906120eb565b506115108787611b85565b979650505050505050565b6001600160a01b0381166000908152600960205260408120805461153e906124ee565b15159392505050565b600080611553856110a7565b90508383101561156757600091505061157b565b600061157382856124af565b851115925050505b9392505050565b6007602052816000526040600020818154811061159e57600080fd5b600091825260209091206002909102018054600190910154909250905082565b600a546000906001600160a01b03166115e95760405162461bcd60e51b815260040161078090612522565b600a5460405163d4ce141560e01b81526001600160a01b0386811660048301528581166024830152604482018590529091169063d4ce141590606401602060405180830381865afa158015611642573d6000803e3d6000fd5b505050506040513d601f19601f82011682018060405250810190611666919061256b565b949350505050565b6000828152600560205260409020600101546116898161176e565b610d438383611a19565b60008061169f8161176e565b600a80546001600160a01b0319166001600160a01b038516908117909155604080519182523360208301527f6c0cb4cdcdbedb9d71fdb2e31e3ad5a42fc2cffc2642730034017c04192e3afe910160405180910390a1600191505b50919050565b6000610a92848484611b93565b6000806117198161176e565b611724843385611cba565b6040518381526001600160a01b0385169033907fb698e31a2abee5824d0d7bcfd2339aead7f9e9ae413fba50bf554ff3fa470b7b9060200160405180910390a35060019392505050565b610ec98133611d19565b610e928383836001611d52565b600033611793858285611e27565b61179e858585611cba565b506001949350505050565b60006117b5838361107c565b6118355760008381526005602090815260408083206001600160a01b03861684529091529020805460ff191660011790556117ed3390565b6001600160a01b0316826001600160a01b0316847f2f8788117e7eff1d82e926ec794901d17c78024a50270940304540a733656f0d60405160405180910390a450600161070a565b50600061070a565b6000604051806040016040528060058152602001644e6f6e555360d81b81525060405160200161186d9190612839565b60405160208183030381529060405280519060200120826040516020016118949190612839565b60405160208183030381529060405280519060200120148061192357506040518060400160405280600a8152602001691058d8dc99591a5d195960b21b8152506040516020016118e49190612839565b604051602081830303815290604052805190602001208260405160200161190b9190612839565b60405160208183030381529060405280519060200120145b8061199957506040518060400160405280600881526020016710dbdb9d1c9858dd60c21b81525060405160200161195a9190612839565b60405160208183030381529060405280519060200120826040516020016119819190612839565b60405160208183030381529060405280519060200120145b8061070a57506040518060400160405280600d81526020016c125b9cdd1a5d1d5d1a5bdb985b609a1b8152506040516020016119d59190612839565b60405160208183030381529060405280519060200120826040516020016119fc9190612839565b604051602081830303815290604052805190602001201492915050565b6000611a25838361107c565b156118355760008381526005602090815260408083206001600160a01b0386168085529252808320805460ff1916905551339286917ff6391f5c32d9c69d2a47ea670b442974b53935d1edc7fd64eb21e047a839171b9190a450600161070a565b611a8e611e9f565b6008805460ff191690557f5db9ee0a495bf2e6ff9c91a7834c1ba4fdd244a5e8aa4e537bd38aeae4b073aa335b6040516001600160a01b03909116815260200160405180910390a1565b6001600160a01b038216611b025760405163ec442f0560e01b815260006004820152602401610780565b611b0e60008383611ec4565b5050565b611b1a611ecf565b6008805460ff191660011790557f62e78cea01bee320cd4e420270b5ea74000d11b0c9f74754ebdbfc544b05a258611abb3390565b6001600160a01b038216611b7957604051634b637e8f60e11b815260006004820152602401610780565b611b0e82600083611ec4565b600033610a92818585611cba565b428111611be25760405162461bcd60e51b815260206004820152601a60248201527f52656c656173652074696d6520696e20746865206675747572650000000000006044820152606401610780565b6001600160a01b038316611c305760405162461bcd60e51b81526020600482015260156024820152741059191c995cdcc81b5d5cdd081899481d985b1a59605a1b6044820152606401610780565b6001600160a01b03831660008181526007602090815260408083208151808301835287815280840187815282546001808201855593875295859020915160029096029091019485555193019290925581518581529081018490527fd204e81d84b52b5a19d16a46f86c9a7d66d37c207b982c21d8d1810757b61bae910160405180910390a2505050565b6001600160a01b038316611ce457604051634b637e8f60e11b815260006004820152602401610780565b6001600160a01b038216611d0e5760405163ec442f0560e01b815260006004820152602401610780565b610e92838383611ec4565b611d23828261107c565b611b0e5760405163e2517d3f60e01b81526001600160a01b038216600482015260248101839052604401610780565b6001600160a01b038416611d7c5760405163e602df0560e01b815260006004820152602401610780565b6001600160a01b038316611da657604051634a1406b160e11b815260006004820152602401610780565b6001600160a01b0380851660009081526001602090815260408083209387168352929052208290558015610d4357826001600160a01b0316846001600160a01b03167f8c5be1e5ebec7d5bd14f71427d1e84f3dd0314c0f7b2291e5b200ac8c7c3b92584604051611e1991815260200190565b60405180910390a350505050565b6001600160a01b038381166000908152600160209081526040808320938616835292905220546000198114610d435781811015611e9057604051637dc7a0d960e11b81526001600160a01b03841660048201526024810182905260448101839052606401610780565b610d4384848484036000611d52565b60085460ff16611ec257604051638dfc202b60e01b815260040160405180910390fd5b565b610e92838383611ef3565b60085460ff1615611ec25760405163d93c066560e01b815260040160405180910390fd5b611efb611ecf565b610e928383836001600160a01b038316611f2c578060026000828254611f2191906124c2565b90915550611f9e9050565b6001600160a01b03831660009081526020819052604090205481811015611f7f5760405163391434e360e21b81526001600160a01b03851660048201526024810182905260448101839052606401610780565b6001600160a01b03841660009081526020819052604090209082900390555b6001600160a01b038216611fba57600280548290039055611fd9565b6001600160a01b03821660009081526020819052604090208054820190555b816001600160a01b0316836001600160a01b03167fddf252ad1be2c89b69c2b068fc378daa952ba7f163c4a11628f55a4df523b3ef8360405161201e91815260200190565b60405180910390a3505050565b60006020828403121561203d57600080fd5b81356001600160e01b03198116811461157b57600080fd5b80356001600160a01b038116811461206c57600080fd5b919050565b6000806040838503121561208457600080fd5b61208d83612055565b946020939093013593505050565b60005b838110156120b657818101518382015260200161209e565b50506000910152565b600081518084526120d781602086016020860161209b565b601f01601f19169290920160200192915050565b60208152600061157b60208301846120bf565b6000806000806080858703121561211457600080fd5b61211d85612055565b935061212b60208601612055565b925061213960408601612055565b9396929550929360600135925050565b60008060006060848603121561215e57600080fd5b61216784612055565b925061217560208501612055565b9150604084013590509250925092565b60006020828403121561219757600080fd5b5035919050565b634e487b7160e01b600052604160045260246000fd5b604051601f8201601f1916810167ffffffffffffffff811182821017156121dd576121dd61219e565b604052919050565b600067ffffffffffffffff8211156121ff576121ff61219e565b50601f01601f191660200190565b60008060006060848603121561222257600080fd5b61222b84612055565b92506020840135801515811461224057600080fd5b9150604084013567ffffffffffffffff81111561225c57600080fd5b8401601f8101861361226d57600080fd5b803561228061227b826121e5565b6121b4565b81815287602083850101111561229557600080fd5b816020840160208301376000602083830101528093505050509250925092565b600080604083850312156122c857600080fd5b823591506122d860208401612055565b90509250929050565b6000806000604084860312156122f657600080fd5b6122ff84612055565b9250602084013567ffffffffffffffff8082111561231c57600080fd5b818601915086601f83011261233057600080fd5b81358181111561233f57600080fd5b87602082850101111561235157600080fd5b6020830194508093505050509250925092565b60006020828403121561237657600080fd5b61157b82612055565b60ff81168114610ec957600080fd5b6000602082840312156123a057600080fd5b813561157b8161237f565b600080604083850312156123be57600080fd5b6123c783612055565b91506122d860208401612055565b600081518084526020808501945080840160005b83811015612405578151875295820195908201906001016123e9565b509495945050505050565b60408152600061242360408301856123d5565b8281036020840152610a7b81856123d5565b821515815260406020820152600061166660408301846120bf565b60008060006060848603121561246557600080fd5b61246e84612055565b95602085013595506040909401359392505050565b634e487b7160e01b600052603260045260246000fd5b634e487b7160e01b600052601160045260246000fd5b8181038181111561070a5761070a612499565b8082018082111561070a5761070a612499565b6000600182016124e7576124e7612499565b5060010190565b600181811c9082168061250257607f821691505b6020821081036116fa57634e487b7160e01b600052602260045260246000fd5b60208082526029908201527f5472616e736665725265737472696374696f6e7320636f6e7472616374206d756040820152681cdd081899481cd95d60ba1b606082015260800190565b60006020828403121561257d57600080fd5b815161157b8161237f565b60006020828403121561259a57600080fd5b5051919050565b6000602082840312156125b357600080fd5b815167ffffffffffffffff8111156125ca57600080fd5b8201601f810184136125db57600080fd5b80516125e961227b826121e5565b8181528560208385010111156125fe57600080fd5b610a7b82602083016020860161209b565b601f821115610e9257600081815260208120601f850160051c810160208610156126365750805b601f850160051c820191505b8181101561265557828155600101612642565b505050505050565b815167ffffffffffffffff8111156126775761267761219e565b61268b8161268584546124ee565b8461260f565b602080601f8311600181146126c057600084156126a85750858301515b600019600386901b1c1916600185901b178555612655565b600085815260208120601f198616915b828110156126ef578886015182559484019460019091019084016126d0565b508582101561270d5787850151600019600388901b60f8161c191681555b5050505050600190811b01905550565b6001600160a01b03841681528215156020820152606060408201819052600090610a7b908301846120bf565b67ffffffffffffffff8311156127615761276161219e565b6127758361276f83546124ee565b8361260f565b6000601f8411600181146127a957600085156127915750838201355b600019600387901b1c1916600186901b178355612803565b600083815260209020601f19861690835b828110156127da57868501358255602094850194600190920191016127ba565b50868210156127f75760001960f88860031b161c19848701351681555b505060018560011b0183555b5050505050565b60208152816020820152818360408301376000818301604090810191909152601f909201601f19160101919050565b6000825161284b81846020870161209b565b919091019291505056fea26469706673582212202cf9207f7ea6049452bd18dcfec8d997d02a7ca8d4730f90b1c2ae607123c6f764736f6c63430008140033","linkReferences":{}},"methodIdentifiers":{"DEFAULT_ADMIN_ROLE()":"a217fddf","MINTER_ROLE()":"d5391393","PAUSER_ROLE()":"e63ab1e9","TIMELOCKER_ROLE()":"6dc5d248","USER_REGISTRAR_ROLE()":"6626ffca","WHITELISTER_ROLE()":"570618e1","allowance(address,address)":"dd62ed3e","approve(address,uint256)":"095ea7b3","balanceOf(address)":"70a08231","burn(address,uint256)":"9dc29fac","checkLockup(address)":"9a6e292f","checkTimelock(address,uint256,uint256)":"c697e4a3","checkWhitelists(address,address)":"99da091d","decimals()":"313ce567","detectTransferFromRestriction(address,address,address,uint256)":"0754cede","detectTransferRestriction(address,address,uint256)":"d4ce1415","getLockedAmount(address)":"929ec537","getRoleAdmin(bytes32)":"248a9ca3","getUserType(address)":"8b3f863f","getWhitelistData(address)":"68aa9813","getWhitelistStatus(address)":"d9ba32fc","grantRole(bytes32,address)":"2f2ff15d","hasRole(bytes32,address)":"91d14854","isRegistered(address)":"c3c5a547","lock(address,uint256,uint256)":"e2ab691d","lockups(address,uint256)":"c93d0b1e","messageForTransferRestriction(uint8)":"7f4ab1dd","mint(address,uint256)":"40c10f19","name()":"06fdde03","pause()":"8456cb59","paused()":"5c975abb","register(address,string)":"32434a2e","release(address,uint256)":"0357371d","renounceRole(bytes32,address)":"36568abe","revoke(address,uint256)":"eac449d9","revokeRole(bytes32,address)":"d547741f","setWhitelist(address,bool,string)":"27ac1975","supportsInterface(bytes4)":"01ffc9a7","symbol()":"95d89b41","totalSupply()":"18160ddd","transfer(address,uint256)":"a9059cbb","transferFrom(address,address,uint256)":"23b872dd","unpause()":"3f4ba83a","updateTransferRestrictions(address)":"db0cc92a","whitelist(address)":"9b19251a"},"id":36}