{"abi":[{"type":"function","name":"DEFAULT_ADMIN_ROLE","inputs":[],"outputs":[{"name":"","type":"bytes32","internalType":"bytes32"}],"stateMutability":"view"},{"type":"function","name":"TIMELOCKER_ROLE","inputs":[],"outputs":[{"name":"","type":"bytes32","internalType":"bytes32"}],"stateMutability":"view"},{"type":"function","name":"checkLockup","inputs":[{"name":"_address","type":"address","internalType":"address"}],"outputs":[{"name":"","type":"uint256[]","internalType":"uint256[]"},{"name":"","type":"uint256[]","internalType":"uint256[]"}],"stateMutability":"view"},{"type":"function","name":"checkTimelock","inputs":[{"name":"_address","type":"address","internalType":"address"},{"name":"amount","type":"uint256","internalType":"uint256"},{"name":"balance","type":"uint256","internalType":"uint256"}],"outputs":[{"name":"","type":"bool","internalType":"bool"}],"stateMutability":"view"},{"type":"function","name":"getLockedAmount","inputs":[{"name":"_address","type":"address","internalType":"address"}],"outputs":[{"name":"","type":"uint256","internalType":"uint256"}],"stateMutability":"view"},{"type":"function","name":"getRoleAdmin","inputs":[{"name":"role","type":"bytes32","internalType":"bytes32"}],"outputs":[{"name":"","type":"bytes32","internalType":"bytes32"}],"stateMutability":"view"},{"type":"function","name":"grantRole","inputs":[{"name":"role","type":"bytes32","internalType":"bytes32"},{"name":"account","type":"address","internalType":"address"}],"outputs":[],"stateMutability":"nonpayable"},{"type":"function","name":"hasRole","inputs":[{"name":"role","type":"bytes32","internalType":"bytes32"},{"name":"account","type":"address","internalType":"address"}],"outputs":[{"name":"","type":"bool","internalType":"bool"}],"stateMutability":"view"},{"type":"function","name":"lock","inputs":[{"name":"_address","type":"address","internalType":"address"},{"name":"amount","type":"uint256","internalType":"uint256"},{"name":"releaseTime","type":"uint256","internalType":"uint256"}],"outputs":[{"name":"","type":"bool","internalType":"bool"}],"stateMutability":"nonpayable"},{"type":"function","name":"lockups","inputs":[{"name":"","type":"address","internalType":"address"},{"name":"","type":"uint256","internalType":"uint256"}],"outputs":[{"name":"amount","type":"uint256","internalType":"uint256"},{"name":"releaseTime","type":"uint256","internalType":"uint256"}],"stateMutability":"view"},{"type":"function","name":"release","inputs":[{"name":"_address","type":"address","internalType":"address"},{"name":"amountToRelease","type":"uint256","internalType":"uint256"}],"outputs":[{"name":"","type":"bool","internalType":"bool"}],"stateMutability":"nonpayable"},{"type":"function","name":"renounceRole","inputs":[{"name":"role","type":"bytes32","internalType":"bytes32"},{"name":"callerConfirmation","type":"address","internalType":"address"}],"outputs":[],"stateMutability":"nonpayable"},{"type":"function","name":"revokeRole","inputs":[{"name":"role","type":"bytes32","internalType":"bytes32"},{"name":"account","type":"address","internalType":"address"}],"outputs":[],"stateMutability":"nonpayable"},{"type":"function","name":"supportsInterface","inputs":[{"name":"interfaceId","type":"bytes4","internalType":"bytes4"}],"outputs":[{"name":"","type":"bool","internalType":"bool"}],"stateMutability":"view"},{"type":"event","name":"AccountLock","inputs":[{"name":"_address","type":"address","indexed":true,"internalType":"address"},{"name":"amount","type":"uint256","indexed":false,"internalType":"uint256"},{"name":"releaseTime","type":"uint256","indexed":false,"internalType":"uint256"}],"anonymous":false},{"type":"event","name":"AccountRelease","inputs":[{"name":"_address","type":"address","indexed":true,"internalType":"address"},{"name":"amount","type":"uint256","indexed":false,"internalType":"uint256"}],"anonymous":false},{"type":"event","name":"RoleAdminChanged","inputs":[{"name":"role","type":"bytes32","indexed":true,"internalType":"bytes32"},{"name":"previousAdminRole","type":"bytes32","indexed":true,"internalType":"bytes32"},{"name":"newAdminRole","type":"bytes32","indexed":true,"internalType":"bytes32"}],"anonymous":false},{"type":"event","name":"RoleGranted","inputs":[{"name":"role","type":"bytes32","indexed":true,"internalType":"bytes32"},{"name":"account","type":"address","indexed":true,"internalType":"address"},{"name":"sender","type":"address","indexed":true,"internalType":"address"}],"anonymous":false},{"type":"event","name":"RoleRevoked","inputs":[{"name":"role","type":"bytes32","indexed":true,"internalType":"bytes32"},{"name":"account","type":"address","indexed":true,"internalType":"address"},{"name":"sender","type":"address","indexed":true,"internalType":"address"}],"anonymous":false},{"type":"error","name":"AccessControlBadConfirmation","inputs":[]},{"type":"error","name":"AccessControlUnauthorizedAccount","inputs":[{"name":"account","type":"address","internalType":"address"},{"name":"neededRole","type":"bytes32","internalType":"bytes32"}]}],"bytecode":{"object":"0x608060405234801561001057600080fd5b50610c81806100206000396000f3fe608060405234801561001057600080fd5b50600436106100ea5760003560e01c8063929ec5371161008c578063c697e4a311610066578063c697e4a3146101f9578063c93d0b1e1461020c578063d547741f14610234578063e2ab691d1461024757600080fd5b8063929ec537146101bd5780639a6e292f146101d0578063a217fddf146101f157600080fd5b80632f2ff15d116100c85780632f2ff15d1461015b57806336568abe146101705780636dc5d2481461018357806391d14854146101aa57600080fd5b806301ffc9a7146100ef5780630357371d14610117578063248a9ca31461012a575b600080fd5b6101026100fd366004610a5e565b61025a565b60405190151581526020015b60405180910390f35b610102610125366004610aa4565b610291565b61014d610138366004610ace565b60009081526020819052604090206001015490565b60405190815260200161010e565b61016e610169366004610ae7565b6104ba565b005b61016e61017e366004610ae7565b6104e5565b61014d7f518a492b51bf88c1be675ab97647d88d770fcd201b74de363b9b137e6d641b2081565b6101026101b8366004610ae7565b61051d565b61014d6101cb366004610b13565b610546565b6101e36101de366004610b13565b6105e3565b60405161010e929190610b69565b61014d600081565b610102610207366004610b97565b61073e565b61021f61021a366004610aa4565b610779565b6040805192835260208301919091520161010e565b61016e610242366004610ae7565b6107b5565b610102610255366004610b97565b6107da565b60006001600160e01b03198216637965db0b60e01b148061028b57506301ffc9a760e01b6001600160e01b03198316145b92915050565b60007f518a492b51bf88c1be675ab97647d88d770fcd201b74de363b9b137e6d641b206102bd816107f1565b6001600160a01b03841661030a5760405162461bcd60e51b815260206004820152600f60248201526e496e76616c6964206164647265737360881b60448201526064015b60405180910390fd5b6001600160a01b0384166000908152600160205260408120815b815481101561046a574282828154811061034057610340610bca565b9060005260206000209060020201600101541115801561035f57508583105b156104585760006103708488610bf6565b90508083838154811061038557610385610bca565b906000526020600020906002020160000154116103f7578282815481106103ae576103ae610bca565b906000526020600020906002020160000154846103cb9190610c09565b935060008383815481106103e1576103e1610bca565b6000918252602090912060029091020155610456565b8083838154811061040a5761040a610bca565b9060005260206000209060020201600001546104269190610bf6565b83838154811061043857610438610bca565b60009182526020909120600290910201556104538185610c09565b93505b505b8061046281610c1c565b915050610324565b50856001600160a01b03167f784c9f4cec58b38461217a62f8f9c0f2cac7b46c0ed23bd1a7f4a5376ac787e1836040516104a691815260200190565b60405180910390a250600195945050505050565b6000828152602081905260409020600101546104d5816107f1565b6104df83836107fe565b50505050565b6001600160a01b038116331461050e5760405163334bd91960e11b815260040160405180910390fd5b6105188282610890565b505050565b6000918252602082815260408084206001600160a01b0393909316845291905290205460ff1690565b6001600160a01b03811660009081526001602052604081208190815b81548110156105da5781818154811061057d5761057d610bca565b9060005260206000209060020201600101544210156105c8578181815481106105a8576105a8610bca565b906000526020600020906002020160000154836105c59190610c09565b92505b806105d281610c1c565b915050610562565b50909392505050565b6001600160a01b0381166000908152600160205260408120805460609283929167ffffffffffffffff81111561061b5761061b610c35565b604051908082528060200260200182016040528015610644578160200160208202803683370190505b50825490915060009067ffffffffffffffff81111561066557610665610c35565b60405190808252806020026020018201604052801561068e578160200160208202803683370190505b50905060005b8354811015610732578381815481106106af576106af610bca565b9060005260206000209060020201600001548382815181106106d3576106d3610bca565b6020026020010181815250508381815481106106f1576106f1610bca565b90600052602060002090600202016001015482828151811061071557610715610bca565b60209081029190910101528061072a81610c1c565b915050610694565b50909590945092505050565b60008061074a85610546565b90508383101561075e576000915050610772565b600061076a8285610bf6565b851115925050505b9392505050565b6001602052816000526040600020818154811061079557600080fd5b600091825260209091206002909102018054600190910154909250905082565b6000828152602081905260409020600101546107d0816107f1565b6104df8383610890565b60006107e78484846108fb565b5060019392505050565b6107fb8133610a21565b50565b600061080a838361051d565b610888576000838152602081815260408083206001600160a01b03861684529091529020805460ff191660011790556108403390565b6001600160a01b0316826001600160a01b0316847f2f8788117e7eff1d82e926ec794901d17c78024a50270940304540a733656f0d60405160405180910390a450600161028b565b50600061028b565b600061089c838361051d565b15610888576000838152602081815260408083206001600160a01b0386168085529252808320805460ff1916905551339286917ff6391f5c32d9c69d2a47ea670b442974b53935d1edc7fd64eb21e047a839171b9190a450600161028b565b42811161094a5760405162461bcd60e51b815260206004820152601a60248201527f52656c656173652074696d6520696e20746865206675747572650000000000006044820152606401610301565b6001600160a01b0383166109985760405162461bcd60e51b81526020600482015260156024820152741059191c995cdcc81b5d5cdd081899481d985b1a59605a1b6044820152606401610301565b6001600160a01b038316600081815260016020818152604080842081518083018352888152808401888152825480870184559287529584902090516002909202019081559351939092019290925580518581529182018490527fd204e81d84b52b5a19d16a46f86c9a7d66d37c207b982c21d8d1810757b61bae910160405180910390a2505050565b610a2b828261051d565b610a5a5760405163e2517d3f60e01b81526001600160a01b038216600482015260248101839052604401610301565b5050565b600060208284031215610a7057600080fd5b81356001600160e01b03198116811461077257600080fd5b80356001600160a01b0381168114610a9f57600080fd5b919050565b60008060408385031215610ab757600080fd5b610ac083610a88565b946020939093013593505050565b600060208284031215610ae057600080fd5b5035919050565b60008060408385031215610afa57600080fd5b82359150610b0a60208401610a88565b90509250929050565b600060208284031215610b2557600080fd5b61077282610a88565b600081518084526020808501945080840160005b83811015610b5e57815187529582019590820190600101610b42565b509495945050505050565b604081526000610b7c6040830185610b2e565b8281036020840152610b8e8185610b2e565b95945050505050565b600080600060608486031215610bac57600080fd5b610bb584610a88565b95602085013595506040909401359392505050565b634e487b7160e01b600052603260045260246000fd5b634e487b7160e01b600052601160045260246000fd5b8181038181111561028b5761028b610be0565b8082018082111561028b5761028b610be0565b600060018201610c2e57610c2e610be0565b5060010190565b634e487b7160e01b600052604160045260246000fdfea26469706673582212201d6951e4da05bcc08ff910047356af2a09b82f5d405e97485da02ad8db7d968764736f6c63430008140033","linkReferences":{}},"methodIdentifiers":{"DEFAULT_ADMIN_ROLE()":"a217fddf","TIMELOCKER_ROLE()":"6dc5d248","checkLockup(address)":"9a6e292f","checkTimelock(address,uint256,uint256)":"c697e4a3","getLockedAmount(address)":"929ec537","getRoleAdmin(bytes32)":"248a9ca3","grantRole(bytes32,address)":"2f2ff15d","hasRole(bytes32,address)":"91d14854","lock(address,uint256,uint256)":"e2ab691d","lockups(address,uint256)":"c93d0b1e","release(address,uint256)":"0357371d","renounceRole(bytes32,address)":"36568abe","revokeRole(bytes32,address)":"d547741f","supportsInterface(bytes4)":"01ffc9a7"},"id":36}