{"abi":[{"type":"function","name":"DEFAULT_ADMIN_ROLE","inputs":[],"outputs":[{"name":"","type":"bytes32","internalType":"bytes32"}],"stateMutability":"view"},{"type":"function","name":"WHITELISTER_ROLE","inputs":[],"outputs":[{"name":"","type":"bytes32","internalType":"bytes32"}],"stateMutability":"view"},{"type":"function","name":"checkWhitelists","inputs":[{"name":"from","type":"address","internalType":"address"},{"name":"to","type":"address","internalType":"address"}],"outputs":[{"name":"","type":"bool","internalType":"bool"}],"stateMutability":"view"},{"type":"function","name":"getRoleAdmin","inputs":[{"name":"role","type":"bytes32","internalType":"bytes32"}],"outputs":[{"name":"","type":"bytes32","internalType":"bytes32"}],"stateMutability":"view"},{"type":"function","name":"getWhitelistData","inputs":[{"name":"_address","type":"address","internalType":"address"}],"outputs":[{"name":"","type":"string","internalType":"string"}],"stateMutability":"view"},{"type":"function","name":"getWhitelistStatus","inputs":[{"name":"_address","type":"address","internalType":"address"}],"outputs":[{"name":"","type":"bool","internalType":"bool"}],"stateMutability":"view"},{"type":"function","name":"grantRole","inputs":[{"name":"role","type":"bytes32","internalType":"bytes32"},{"name":"account","type":"address","internalType":"address"}],"outputs":[],"stateMutability":"nonpayable"},{"type":"function","name":"hasRole","inputs":[{"name":"role","type":"bytes32","internalType":"bytes32"},{"name":"account","type":"address","internalType":"address"}],"outputs":[{"name":"","type":"bool","internalType":"bool"}],"stateMutability":"view"},{"type":"function","name":"renounceRole","inputs":[{"name":"role","type":"bytes32","internalType":"bytes32"},{"name":"callerConfirmation","type":"address","internalType":"address"}],"outputs":[],"stateMutability":"nonpayable"},{"type":"function","name":"revokeRole","inputs":[{"name":"role","type":"bytes32","internalType":"bytes32"},{"name":"account","type":"address","internalType":"address"}],"outputs":[],"stateMutability":"nonpayable"},{"type":"function","name":"setWhitelist","inputs":[{"name":"to","type":"address","internalType":"address"},{"name":"status","type":"bool","internalType":"bool"},{"name":"data","type":"string","internalType":"string"}],"outputs":[{"name":"","type":"bool","internalType":"bool"}],"stateMutability":"nonpayable"},{"type":"function","name":"supportsInterface","inputs":[{"name":"interfaceId","type":"bytes4","internalType":"bytes4"}],"outputs":[{"name":"","type":"bool","internalType":"bool"}],"stateMutability":"view"},{"type":"function","name":"whitelist","inputs":[{"name":"","type":"address","internalType":"address"}],"outputs":[{"name":"status","type":"bool","internalType":"bool"},{"name":"data","type":"string","internalType":"string"}],"stateMutability":"view"},{"type":"event","name":"RoleAdminChanged","inputs":[{"name":"role","type":"bytes32","indexed":true,"internalType":"bytes32"},{"name":"previousAdminRole","type":"bytes32","indexed":true,"internalType":"bytes32"},{"name":"newAdminRole","type":"bytes32","indexed":true,"internalType":"bytes32"}],"anonymous":false},{"type":"event","name":"RoleGranted","inputs":[{"name":"role","type":"bytes32","indexed":true,"internalType":"bytes32"},{"name":"account","type":"address","indexed":true,"internalType":"address"},{"name":"sender","type":"address","indexed":true,"internalType":"address"}],"anonymous":false},{"type":"event","name":"RoleRevoked","inputs":[{"name":"role","type":"bytes32","indexed":true,"internalType":"bytes32"},{"name":"account","type":"address","indexed":true,"internalType":"address"},{"name":"sender","type":"address","indexed":true,"internalType":"address"}],"anonymous":false},{"type":"event","name":"WhitelistUpdate","inputs":[{"name":"_address","type":"address","indexed":false,"internalType":"address"},{"name":"status","type":"bool","indexed":false,"internalType":"bool"},{"name":"data","type":"string","indexed":false,"internalType":"string"}],"anonymous":false},{"type":"error","name":"AccessControlBadConfirmation","inputs":[]},{"type":"error","name":"AccessControlUnauthorizedAccount","inputs":[{"name":"account","type":"address","internalType":"address"},{"name":"neededRole","type":"bytes32","internalType":"bytes32"}]}],"bytecode":{"object":"0x608060405234801561001057600080fd5b50610a9f806100206000396000f3fe608060405234801561001057600080fd5b50600436106100cf5760003560e01c806368aa98131161008c5780639b19251a116100665780639b19251a146101ef578063a217fddf14610210578063d547741f14610218578063d9ba32fc1461022b57600080fd5b806368aa98131461018f57806391d14854146101af57806399da091d146101c257600080fd5b806301ffc9a7146100d4578063248a9ca3146100fc57806327ac19751461012d5780632f2ff15d1461014057806336568abe14610155578063570618e114610168575b600080fd5b6100e76100e23660046106aa565b610257565b60405190151581526020015b60405180910390f35b61011f61010a3660046106db565b60009081526020819052604090206001015490565b6040519081526020016100f3565b6100e761013b366004610726565b61028e565b61015361014e3660046107ff565b610354565b005b6101536101633660046107ff565b61037f565b61011f7f8619cecd8b9e095ab43867f5b69d492180450fe862e6b50bfbfb24b75dd84c8a81565b6101a261019d36600461082b565b6103b7565b6040516100f3919061088c565b6100e76101bd3660046107ff565b610467565b6100e76101d036600461089f565b506001600160a01b031660009081526001602052604090205460ff1690565b6102026101fd36600461082b565b610490565b6040516100f39291906108c9565b61011f600081565b6101536102263660046107ff565b61053a565b6100e761023936600461082b565b6001600160a01b031660009081526001602052604090205460ff1690565b60006001600160e01b03198216637965db0b60e01b148061028857506301ffc9a760e01b6001600160e01b03198316145b92915050565b60007f8619cecd8b9e095ab43867f5b69d492180450fe862e6b50bfbfb24b75dd84c8a6102ba8161055f565b604080518082018252851515815260208082018681526001600160a01b0389166000908152600192839052939093208251815460ff191690151517815592519192919082019061030a9082610974565b509050507f461193ae6c23672174f7a3ea35649aacdc857bfcae58cd12d61ea432c05bcbd585858560405161034193929190610a34565b60405180910390a1506001949350505050565b60008281526020819052604090206001015461036f8161055f565b610379838361056c565b50505050565b6001600160a01b03811633146103a85760405163334bd91960e11b815260040160405180910390fd5b6103b282826105fe565b505050565b6001600160a01b0381166000908152600160208190526040909120018054606091906103e2906108ec565b80601f016020809104026020016040519081016040528092919081815260200182805461040e906108ec565b801561045b5780601f106104305761010080835404028352916020019161045b565b820191906000526020600020905b81548152906001019060200180831161043e57829003601f168201915b50505050509050919050565b6000918252602082815260408084206001600160a01b0393909316845291905290205460ff1690565b60016020819052600091825260409091208054918101805460ff909316926104b7906108ec565b80601f01602080910402602001604051908101604052809291908181526020018280546104e3906108ec565b80156105305780601f1061050557610100808354040283529160200191610530565b820191906000526020600020905b81548152906001019060200180831161051357829003601f168201915b5050505050905082565b6000828152602081905260409020600101546105558161055f565b61037983836105fe565b6105698133610669565b50565b60006105788383610467565b6105f6576000838152602081815260408083206001600160a01b03861684529091529020805460ff191660011790556105ae3390565b6001600160a01b0316826001600160a01b0316847f2f8788117e7eff1d82e926ec794901d17c78024a50270940304540a733656f0d60405160405180910390a4506001610288565b506000610288565b600061060a8383610467565b156105f6576000838152602081815260408083206001600160a01b0386168085529252808320805460ff1916905551339286917ff6391f5c32d9c69d2a47ea670b442974b53935d1edc7fd64eb21e047a839171b9190a4506001610288565b6106738282610467565b6106a65760405163e2517d3f60e01b81526001600160a01b03821660048201526024810183905260440160405180910390fd5b5050565b6000602082840312156106bc57600080fd5b81356001600160e01b0319811681146106d457600080fd5b9392505050565b6000602082840312156106ed57600080fd5b5035919050565b80356001600160a01b038116811461070b57600080fd5b919050565b634e487b7160e01b600052604160045260246000fd5b60008060006060848603121561073b57600080fd5b610744846106f4565b92506020840135801515811461075957600080fd5b9150604084013567ffffffffffffffff8082111561077657600080fd5b818601915086601f83011261078a57600080fd5b81358181111561079c5761079c610710565b604051601f8201601f19908116603f011681019083821181831017156107c4576107c4610710565b816040528281528960208487010111156107dd57600080fd5b8260208601602083013760006020848301015280955050505050509250925092565b6000806040838503121561081257600080fd5b82359150610822602084016106f4565b90509250929050565b60006020828403121561083d57600080fd5b6106d4826106f4565b6000815180845260005b8181101561086c57602081850181015186830182015201610850565b506000602082860101526020601f19601f83011685010191505092915050565b6020815260006106d46020830184610846565b600080604083850312156108b257600080fd5b6108bb836106f4565b9150610822602084016106f4565b82151581526040602082015260006108e46040830184610846565b949350505050565b600181811c9082168061090057607f821691505b60208210810361092057634e487b7160e01b600052602260045260246000fd5b50919050565b601f8211156103b257600081815260208120601f850160051c8101602086101561094d5750805b601f850160051c820191505b8181101561096c57828155600101610959565b505050505050565b815167ffffffffffffffff81111561098e5761098e610710565b6109a28161099c84546108ec565b84610926565b602080601f8311600181146109d757600084156109bf5750858301515b600019600386901b1c1916600185901b17855561096c565b600085815260208120601f198616915b82811015610a06578886015182559484019460019091019084016109e7565b5085821015610a245787850151600019600388901b60f8161c191681555b5050505050600190811b01905550565b6001600160a01b03841681528215156020820152606060408201819052600090610a6090830184610846565b9594505050505056fea264697066735822122037ebc3ef0bcd863b6cb3391a14eecae1ba7dd2b4d3cf4c137fcb387deea4c5f264736f6c63430008140033","linkReferences":{}},"methodIdentifiers":{"DEFAULT_ADMIN_ROLE()":"a217fddf","WHITELISTER_ROLE()":"570618e1","checkWhitelists(address,address)":"99da091d","getRoleAdmin(bytes32)":"248a9ca3","getWhitelistData(address)":"68aa9813","getWhitelistStatus(address)":"d9ba32fc","grantRole(bytes32,address)":"2f2ff15d","hasRole(bytes32,address)":"91d14854","renounceRole(bytes32,address)":"36568abe","revokeRole(bytes32,address)":"d547741f","setWhitelist(address,bool,string)":"27ac1975","supportsInterface(bytes4)":"01ffc9a7","whitelist(address)":"9b19251a"},"id":36}