{
	"data": {
		"bytecode": {
			"linkReferences": {},
			"object": "6080604052670de0b6b3a76400006003556a01a784379d99db420000006004556a0422ca8b0a00a42500000060055569d3c21bcecceda100000060065560b46009556001600b5f6101000a81548160ff021916908315150217905550348015610066575f80fd5b50604051612ac0380380612ac0833981810160405281019061008891906102ca565b335f73ffffffffffffffffffffffffffffffffffffffff168173ffffffffffffffffffffffffffffffffffffffff16036100f9575f6040517f1e4fbdf70000000000000000000000000000000000000000000000000000000081526004016100f09190610317565b60405180910390fd5b610108816101ab60201b60201c565b508160025f6101000a81548173ffffffffffffffffffffffffffffffffffffffff021916908373ffffffffffffffffffffffffffffffffffffffff16021790555080600b60016101000a81548173ffffffffffffffffffffffffffffffffffffffff021916908373ffffffffffffffffffffffffffffffffffffffff1602179055506001600b5f6101000a81548160ff0219169083151502179055505050610330565b5f805f9054906101000a900473ffffffffffffffffffffffffffffffffffffffff169050815f806101000a81548173ffffffffffffffffffffffffffffffffffffffff021916908373ffffffffffffffffffffffffffffffffffffffff1602179055508173ffffffffffffffffffffffffffffffffffffffff168173ffffffffffffffffffffffffffffffffffffffff167f8be0079c531659141344cd1fd0a4f28419497f9722a3daafe3b4186f6b6457e060405160405180910390a35050565b5f80fd5b5f73ffffffffffffffffffffffffffffffffffffffff82169050919050565b5f61029982610270565b9050919050565b6102a98161028f565b81146102b3575f80fd5b50565b5f815190506102c4816102a0565b92915050565b5f80604083850312156102e0576102df61026c565b5b5f6102ed858286016102b6565b92505060206102fe858286016102b6565b9150509250929050565b6103118161028f565b82525050565b5f60208201905061032a5f830184610308565b92915050565b6127838061033d5f395ff3fe608060405234801561000f575f80fd5b50600436106101cd575f3560e01c80637ff9b59611610102578063bf4dd131116100a0578063e0202f871161006f578063e0202f87146104d9578063e8b611d6146104f7578063f2fde38b14610515578063fa6770b314610531576101cd565b8063bf4dd13114610463578063c54e44eb14610481578063d358aa201461049f578063dcefa538146104bd576101cd565b80639f7f9da2116100dc5780639f7f9da2146103d9578063a24bcf46146103f7578063b187bd2614610427578063bb4d5e7c14610445576101cd565b80637ff9b596146103815780638da5cb5b1461039f57806391b7f5ed146103bd576101cd565b80633e6968b61161016f57806364e39b871161014957806364e39b87146103475780636b64c76914610363578063715018a61461036d5780637d35045314610377576101cd565b80633e6968b6146102c65780635b10493f146102e457806362e00dd514610315576101cd565b8063222d7e34116101ab578063222d7e341461023b578063224a80571461025957806330db6f95146102775780633c830a3814610293576101cd565b8063174e31c4146101d157806318d7fa46146102015780632194f3a21461021d575b5f80fd5b6101eb60048036038101906101e691906118e4565b610550565b6040516101f8919061193c565b60405180910390f35b61021b60048036038101906102169190611955565b6107e9565b005b610225610875565b60405161023291906119b4565b60405180910390f35b61024361089b565b60405161025091906119dc565b60405180910390f35b6102616108a1565b60405161026e91906119dc565b60405180910390f35b610291600480360381019061028c9190611a1f565b6108a7565b005b6102ad60048036038101906102a89190611a4a565b6108cb565b6040516102bd9493929190611a75565b60405180910390f35b6102ce6108f7565b6040516102db91906119dc565b60405180910390f35b6102fe60048036038101906102f99190611ab8565b61096d565b60405161030c929190611ae3565b60405180910390f35b61032f600480360381019061032a9190611a4a565b61098d565b60405161033e93929190611b0a565b60405180910390f35b610361600480360381019061035c9190611ab8565b6109f2565b005b61036b610a3e565b005b610375610b4e565b005b61037f610b61565b005b610389610ce3565b60405161039691906119dc565b60405180910390f35b6103a7610ce9565b6040516103b491906119b4565b60405180910390f35b6103d760048036038101906103d29190611a4a565b610d10565b005b6103e1610d22565b6040516103ee91906119dc565b60405180910390f35b610411600480360381019061040c9190611a4a565b610d28565b60405161041e91906119dc565b60405180910390f35b61042f610d51565b60405161043c919061193c565b60405180910390f35b61044d610d63565b60405161045a91906119dc565b60405180910390f35b61046b610d69565b60405161047891906119dc565b60405180910390f35b610489610d6f565b6040516104969190611b9a565b60405180910390f35b6104a7610d94565b6040516104b49190611bd3565b60405180910390f35b6104d760048036038101906104d29190611c27565b610db9565b005b6104e1611657565b6040516104ee91906119dc565b60405180910390f35b6104ff61165d565b60405161050c91906119dc565b60405180910390f35b61052f600480360381019061052a9190611ab8565b611663565b005b6105396116e7565b604051610547929190611ae3565b60405180910390f35b5f600b5f9054906101000a900460ff1661059f576040517f08c379a000000000000000000000000000000000000000000000000000000000815260040161059690611cd1565b60405180910390fd5b60075442116105e3576040517f08c379a00000000000000000000000000000000000000000000000000000000081526004016105da90611d39565b60405180910390fd5b5f600d5f8573ffffffffffffffffffffffffffffffffffffffff1673ffffffffffffffffffffffffffffffffffffffff1681526020019081526020015f205f01541180156106705750600d5f8473ffffffffffffffffffffffffffffffffffffffff1673ffffffffffffffffffffffffffffffffffffffff1681526020019081526020015f205f01548211155b6106af576040517f08c379a00000000000000000000000000000000000000000000000000000000081526004016106a690611da1565b60405180910390fd5b81600d5f8573ffffffffffffffffffffffffffffffffffffffff1673ffffffffffffffffffffffffffffffffffffffff1681526020019081526020015f205f015f8282546106fd9190611dec565b9250508190555060025f9054906101000a900473ffffffffffffffffffffffffffffffffffffffff1673ffffffffffffffffffffffffffffffffffffffff1663a9059cbb84846040518363ffffffff1660e01b8152600401610760929190611e1f565b6020604051808303815f875af115801561077c573d5f803e3d5ffd5b505050506040513d601f19601f820116820180604052508101906107a09190611e5a565b6107df576040517f08c379a00000000000000000000000000000000000000000000000000000000081526004016107d690611ecf565b60405180910390fd5b6001905092915050565b6107f16116f7565b60078310801561080057505f83115b61083f576040517f08c379a000000000000000000000000000000000000000000000000000000000815260040161083690611f37565b60405180910390fd5b80600c5f8581526020019081526020015f206003018190555081600c5f8581526020019081526020015f205f0181905550505050565b600b60019054906101000a900473ffffffffffffffffffffffffffffffffffffffff1681565b600a5481565b60065481565b6108af6116f7565b80600b5f6101000a81548160ff02191690831515021790555050565b600c602052805f5260405f205f91509050805f0154908060010154908060020154908060030154905084565b5f600b5f9054906101000a900460ff1680610913575060075442115b15610921576008905061096a565b5f600a54426109309190611dec565b90505f600162015180836109449190611f82565b61094e9190611fb2565b905060078111156109645760079250505061096a565b80925050505b90565b600d602052805f5260405f205f91509050805f0154908060010154905082565b5f805f80600c5f8681526020019081526020015f206040518060800160405290815f820154815260200160018201548152602001600282015481526020016003820154815250509050805f015181602001518260600151935093509350509193909250565b6109fa6116f7565b80600b60016101000a81548173ffffffffffffffffffffffffffffffffffffffff021916908373ffffffffffffffffffffffffffffffffffffffff16021790555050565b610a466116f7565b600b5f9054906101000a900460ff16610a94576040517f08c379a0000000000000000000000000000000000000000000000000000000008152600401610a8b9061202f565b60405180910390fd5b5f600b5f6101000a81548160ff02191690831515021790555062093a8042610abc9190611fb2565b60078190555042600a819055505f600190505b60078111610b4b576a01a784379d99db42000000600c5f8381526020019081526020015f205f01819055506005811115610b1a5760068114610b12576001610b15565b60025b610b1d565b60035b60ff16600c5f8381526020019081526020015f20600301819055508080610b439061204d565b915050610acf565b50565b610b566116f7565b610b5f5f61177e565b565b610b696116f7565b6001600b5f6101000a81548160ff0219169083151502179055505f6007819055505f600a81905550600c5f600181526020019081526020015f206001015f9055600c5f600281526020019081526020015f206001015f9055600c5f600381526020019081526020015f206001015f9055600c5f600481526020019081526020015f206001015f9055600c5f600581526020019081526020015f206001015f9055600c5f600681526020019081526020015f206001015f9055600c5f600781526020019081526020015f206001015f9055600c5f600281526020019081526020015f206002015f9055600c5f600181526020019081526020015f206002015f9055600c5f600381526020019081526020015f206002015f9055600c5f600481526020019081526020015f206002015f9055600c5f600581526020019081526020015f206002015f9055600c5f600781526020019081526020015f206002015f9055600c5f600681526020019081526020015f206002015f9055565b60035481565b5f805f9054906101000a900473ffffffffffffffffffffffffffffffffffffffff16905090565b610d186116f7565b8060038190555050565b60075481565b5f600354670de0b6b3a764000083610d409190612094565b610d4a9190611f82565b9050919050565b600b5f9054906101000a900460ff1681565b60055481565b60095481565b60015f9054906101000a900473ffffffffffffffffffffffffffffffffffffffff1681565b60025f9054906101000a900473ffffffffffffffffffffffffffffffffffffffff1681565b600b5f9054906101000a900460ff1615610e08576040517f08c379a0000000000000000000000000000000000000000000000000000000008152600401610dff9061211f565b60405180910390fd5b600754421115610e4d576040517f08c379a0000000000000000000000000000000000000000000000000000000008152600401610e4490612187565b60405180910390fd5b5f610e566108f7565b90506007811115610e9c576040517f08c379a0000000000000000000000000000000000000000000000000000000008152600401610e93906121ef565b60405180910390fd5b5f600c5f8381526020019081526020015f20905060078203610efe57600754421115610efd576040517f08c379a0000000000000000000000000000000000000000000000000000000008152600401610ef490612257565b60405180910390fd5b5b6006821480610f0d5750600782145b15610fb35760025f9054906101000a900473ffffffffffffffffffffffffffffffffffffffff1673ffffffffffffffffffffffffffffffffffffffff166370a08231306040518263ffffffff1660e01b8152600401610f6c91906119b4565b602060405180830381865afa158015610f87573d5f803e3d5ffd5b505050506040513d601f19601f82011682018060405250810190610fab9190612289565b815f01819055505b600b5f9054906101000a900460ff1615611002576040517f08c379a0000000000000000000000000000000000000000000000000000000008152600401610ff9906122fe565b60405180910390fd5b60055481600101541061104a576040517f08c379a000000000000000000000000000000000000000000000000000000000815260040161104190612366565b60405180910390fd5b600654816002015410611092576040517f08c379a000000000000000000000000000000000000000000000000000000000815260040161108990612366565b60405180910390fd5b5f670de0b6b3a7640000600354856110aa9190612094565b6110b49190611f82565b90508573ffffffffffffffffffffffffffffffffffffffff166323b872dd33600b60019054906101000a900473ffffffffffffffffffffffffffffffffffffffff16846040518463ffffffff1660e01b815260040161111593929190612384565b6020604051808303815f875af1158015611131573d5f803e3d5ffd5b505050506040513d601f19601f820116820180604052508101906111559190611e5a565b611194576040517f08c379a000000000000000000000000000000000000000000000000000000000815260040161118b90612403565b60405180910390fd5b5f825f01548584600101546111a99190611fb2565b11156112da57825f0154836001015411156111e45782600101548584600101546111d39190611fb2565b6111dd9190611dec565b9050611205565b825f01548584600101546111f89190611fb2565b6112029190611dec565b90505b80836002015f8282546112189190611fb2565b9250508190555080600d5f8873ffffffffffffffffffffffffffffffffffffffff1673ffffffffffffffffffffffffffffffffffffffff1681526020019081526020015f206001015f82825461126e9190611fb2565b925050819055508260030154816112859190612094565b600d5f8873ffffffffffffffffffffffffffffffffffffffff1673ffffffffffffffffffffffffffffffffffffffff1681526020019081526020015f205f015f8282546112d29190611fb2565b925050819055505b8460085f8282546112eb9190611fb2565b9250508190555084836001015f8282546113059190611fb2565b925050819055505f8060025f9054906101000a900473ffffffffffffffffffffffffffffffffffffffff1673ffffffffffffffffffffffffffffffffffffffff16638b3f863f896040518263ffffffff1660e01b815260040161136891906119b4565b5f60405180830381865afa158015611382573d5f803e3d5ffd5b505050506040513d5f823e3d601f19601f820116820180604052508101906113aa919061255d565b90506040516020016113bb906125f8565b60405160208183030381529060405280519060200120816040516020016113e29190612646565b604051602081830303815290604052805190602001200361140e576009544261140b9190611fb2565b91505b60405160200161141d906126a6565b60405160208183030381529060405280519060200120816040516020016114449190612646565b6040516020818303038152906040528051906020012003611470576009544261146d9190611fb2565b91505b60405160200161147f90612704565b60405160208183030381529060405280519060200120816040516020016114a69190612646565b60405160208183030381529060405280519060200120036114d257600954426114cf9190611fb2565b91505b60025f9054906101000a900473ffffffffffffffffffffffffffffffffffffffff1673ffffffffffffffffffffffffffffffffffffffff1663e2ab691d8989856040518463ffffffff1660e01b815260040161153093929190612718565b6020604051808303815f875af115801561154c573d5f803e3d5ffd5b505050506040513d601f19601f820116820180604052508101906115709190611e5a565b5060025f9054906101000a900473ffffffffffffffffffffffffffffffffffffffff1673ffffffffffffffffffffffffffffffffffffffff1663a9059cbb89896040518363ffffffff1660e01b81526004016115cd929190611e1f565b6020604051808303815f875af11580156115e9573d5f803e3d5ffd5b505050506040513d601f19601f8201168201806040525081019061160d9190611e5a565b61164c576040517f08c379a000000000000000000000000000000000000000000000000000000000815260040161164390611ecf565b60405180910390fd5b505050505050505050565b60085481565b60045481565b61166b6116f7565b5f73ffffffffffffffffffffffffffffffffffffffff168173ffffffffffffffffffffffffffffffffffffffff16036116db575f6040517f1e4fbdf70000000000000000000000000000000000000000000000000000000081526004016116d291906119b4565b60405180910390fd5b6116e48161177e565b50565b5f80600a54600754915091509091565b6116ff61183f565b73ffffffffffffffffffffffffffffffffffffffff1661171d610ce9565b73ffffffffffffffffffffffffffffffffffffffff161461177c5761174061183f565b6040517f118cdaa700000000000000000000000000000000000000000000000000000000815260040161177391906119b4565b60405180910390fd5b565b5f805f9054906101000a900473ffffffffffffffffffffffffffffffffffffffff169050815f806101000a81548173ffffffffffffffffffffffffffffffffffffffff021916908373ffffffffffffffffffffffffffffffffffffffff1602179055508173ffffffffffffffffffffffffffffffffffffffff168173ffffffffffffffffffffffffffffffffffffffff167f8be0079c531659141344cd1fd0a4f28419497f9722a3daafe3b4186f6b6457e060405160405180910390a35050565b5f33905090565b5f604051905090565b5f80fd5b5f80fd5b5f73ffffffffffffffffffffffffffffffffffffffff82169050919050565b5f61188082611857565b9050919050565b61189081611876565b811461189a575f80fd5b50565b5f813590506118ab81611887565b92915050565b5f819050919050565b6118c3816118b1565b81146118cd575f80fd5b50565b5f813590506118de816118ba565b92915050565b5f80604083850312156118fa576118f961184f565b5b5f6119078582860161189d565b9250506020611918858286016118d0565b9150509250929050565b5f8115159050919050565b61193681611922565b82525050565b5f60208201905061194f5f83018461192d565b92915050565b5f805f6060848603121561196c5761196b61184f565b5b5f611979868287016118d0565b935050602061198a868287016118d0565b925050604061199b868287016118d0565b9150509250925092565b6119ae81611876565b82525050565b5f6020820190506119c75f8301846119a5565b92915050565b6119d6816118b1565b82525050565b5f6020820190506119ef5f8301846119cd565b92915050565b6119fe81611922565b8114611a08575f80fd5b50565b5f81359050611a19816119f5565b92915050565b5f60208284031215611a3457611a3361184f565b5b5f611a4184828501611a0b565b91505092915050565b5f60208284031215611a5f57611a5e61184f565b5b5f611a6c848285016118d0565b91505092915050565b5f608082019050611a885f8301876119cd565b611a9560208301866119cd565b611aa260408301856119cd565b611aaf60608301846119cd565b95945050505050565b5f60208284031215611acd57611acc61184f565b5b5f611ada8482850161189d565b91505092915050565b5f604082019050611af65f8301856119cd565b611b0360208301846119cd565b9392505050565b5f606082019050611b1d5f8301866119cd565b611b2a60208301856119cd565b611b3760408301846119cd565b949350505050565b5f819050919050565b5f611b62611b5d611b5884611857565b611b3f565b611857565b9050919050565b5f611b7382611b48565b9050919050565b5f611b8482611b69565b9050919050565b611b9481611b7a565b82525050565b5f602082019050611bad5f830184611b8b565b92915050565b5f611bbd82611b69565b9050919050565b611bcd81611bb3565b82525050565b5f602082019050611be65f830184611bc4565b92915050565b5f611bf682611876565b9050919050565b611c0681611bec565b8114611c10575f80fd5b50565b5f81359050611c2181611bfd565b92915050565b5f805f60608486031215611c3e57611c3d61184f565b5b5f611c4b86828701611c13565b9350506020611c5c8682870161189d565b9250506040611c6d868287016118d0565b9150509250925092565b5f82825260208201905092915050565b7f41756374696f6e206973207374696c6c206163746976650000000000000000005f82015250565b5f611cbb601783611c77565b9150611cc682611c87565b602082019050919050565b5f6020820190508181035f830152611ce881611caf565b9050919050565b7f41756374696f6e206461797320617265206e6f7420636f6d706c6574650000005f82015250565b5f611d23601d83611c77565b9150611d2e82611cef565b602082019050919050565b5f6020820190508181035f830152611d5081611d17565b9050919050565b7f496e636f72726563742076616c756500000000000000000000000000000000005f82015250565b5f611d8b600f83611c77565b9150611d9682611d57565b602082019050919050565b5f6020820190508181035f830152611db881611d7f565b9050919050565b7f4e487b71000000000000000000000000000000000000000000000000000000005f52601160045260245ffd5b5f611df6826118b1565b9150611e01836118b1565b9250828203905081811115611e1957611e18611dbf565b5b92915050565b5f604082019050611e325f8301856119a5565b611e3f60208301846119cd565b9392505050565b5f81519050611e54816119f5565b92915050565b5f60208284031215611e6f57611e6e61184f565b5b5f611e7c84828501611e46565b91505092915050565b7f50726f746f6e20746f6b656e207472616e73666572206661696c6564000000005f82015250565b5f611eb9601c83611c77565b9150611ec482611e85565b602082019050919050565b5f6020820190508181035f830152611ee681611ead565b9050919050565b7f4552524f523a204441592076616c7565000000000000000000000000000000005f82015250565b5f611f21601083611c77565b9150611f2c82611eed565b602082019050919050565b5f6020820190508181035f830152611f4e81611f15565b9050919050565b7f4e487b71000000000000000000000000000000000000000000000000000000005f52601260045260245ffd5b5f611f8c826118b1565b9150611f97836118b1565b925082611fa757611fa6611f55565b5b828204905092915050565b5f611fbc826118b1565b9150611fc7836118b1565b9250828201905080821115611fdf57611fde611dbf565b5b92915050565b7f41756374696f6e20616c726561647920737461727465640000000000000000005f82015250565b5f612019601783611c77565b915061202482611fe5565b602082019050919050565b5f6020820190508181035f8301526120468161200d565b9050919050565b5f612057826118b1565b91507fffffffffffffffffffffffffffffffffffffffffffffffffffffffffffffffff820361208957612088611dbf565b5b600182019050919050565b5f61209e826118b1565b91506120a9836118b1565b92508282026120b7816118b1565b915082820484148315176120ce576120cd611dbf565b5b5092915050565b7f41756374696f6e206973207061757365640000000000000000000000000000005f82015250565b5f612109601183611c77565b9150612114826120d5565b602082019050919050565b5f6020820190508181035f830152612136816120fd565b9050919050565b7f43757272656e7420726f756e642068617320656e6465640000000000000000005f82015250565b5f612171601783611c77565b915061217c8261213d565b602082019050919050565b5f6020820190508181035f83015261219e81612165565b9050919050565b7f41756374696f6e20646179732061726520636f6d706c657465000000000000005f82015250565b5f6121d9601983611c77565b91506121e4826121a5565b602082019050919050565b5f6020820190508181035f830152612206816121cd565b9050919050565b7f41756374696f6e20726f756e642068617320656e6465640000000000000000005f82015250565b5f612241601783611c77565b915061224c8261220d565b602082019050919050565b5f6020820190508181035f83015261226e81612235565b9050919050565b5f81519050612283816118ba565b92915050565b5f6020828403121561229e5761229d61184f565b5b5f6122ab84828501612275565b91505092915050565b7f41756374696f6e205061757365640000000000000000000000000000000000005f82015250565b5f6122e8600e83611c77565b91506122f3826122b4565b602082019050919050565b5f6020820190508181035f830152612315816122dc565b9050919050565b7f4e6f74206d6f7265207468616e206c696d6974000000000000000000000000005f82015250565b5f612350601383611c77565b915061235b8261231c565b602082019050919050565b5f6020820190508181035f83015261237d81612344565b9050919050565b5f6060820190506123975f8301866119a5565b6123a460208301856119a5565b6123b160408301846119cd565b949350505050565b7f55534454207472616e73666572206661696c65640000000000000000000000005f82015250565b5f6123ed601483611c77565b91506123f8826123b9565b602082019050919050565b5f6020820190508181035f83015261241a816123e1565b9050919050565b5f80fd5b5f80fd5b5f601f19601f8301169050919050565b7f4e487b71000000000000000000000000000000000000000000000000000000005f52604160045260245ffd5b61246f82612429565b810181811067ffffffffffffffff8211171561248e5761248d612439565b5b80604052505050565b5f6124a0611846565b90506124ac8282612466565b919050565b5f67ffffffffffffffff8211156124cb576124ca612439565b5b6124d482612429565b9050602081019050919050565b8281835e5f83830152505050565b5f6125016124fc846124b1565b612497565b90508281526020810184848401111561251d5761251c612425565b5b6125288482856124e1565b509392505050565b5f82601f83011261254457612543612421565b5b81516125548482602086016124ef565b91505092915050565b5f602082840312156125725761257161184f565b5b5f82015167ffffffffffffffff81111561258f5761258e611853565b5b61259b84828501612530565b91505092915050565b5f81905092915050565b7f41636372656469746564000000000000000000000000000000000000000000005f82015250565b5f6125e2600a836125a4565b91506125ed826125ae565b600a82019050919050565b5f612602826125d6565b9150819050919050565b5f81519050919050565b5f6126208261260c565b61262a81856125a4565b935061263a8185602086016124e1565b80840191505092915050565b5f6126518284612616565b915081905092915050565b7f4e6f6e55530000000000000000000000000000000000000000000000000000005f82015250565b5f6126906005836125a4565b915061269b8261265c565b600582019050919050565b5f6126b082612684565b9150819050919050565b7f496e737469747574696f6e616c000000000000000000000000000000000000005f82015250565b5f6126ee600d836125a4565b91506126f9826126ba565b600d82019050919050565b5f61270e826126e2565b9150819050919050565b5f60608201905061272b5f8301866119a5565b61273860208301856119cd565b61274560408301846119cd565b94935050505056fea2646970667358221220ef30683296452a1ca42564d2ca72364d4046ddafd963bbc19b13b865ecfdb74264736f6c63430008190033",
			"opcodes": "PUSH1 0x80 PUSH1 0x40 MSTORE PUSH8 0xDE0B6B3A7640000 PUSH1 0x3 SSTORE PUSH11 0x1A784379D99DB42000000 PUSH1 0x4 SSTORE PUSH11 0x422CA8B0A00A425000000 PUSH1 0x5 SSTORE PUSH10 0xD3C21BCECCEDA1000000 PUSH1 0x6 SSTORE PUSH1 0xB4 PUSH1 0x9 SSTORE PUSH1 0x1 PUSH1 0xB PUSH0 PUSH2 0x100 EXP DUP2 SLOAD DUP2 PUSH1 0xFF MUL NOT AND SWAP1 DUP4 ISZERO ISZERO MUL OR SWAP1 SSTORE POP CALLVALUE DUP1 ISZERO PUSH2 0x66 JUMPI PUSH0 DUP1 REVERT JUMPDEST POP PUSH1 0x40 MLOAD PUSH2 0x2AC0 CODESIZE SUB DUP1 PUSH2 0x2AC0 DUP4 CODECOPY DUP2 DUP2 ADD PUSH1 0x40 MSTORE DUP2 ADD SWAP1 PUSH2 0x88 SWAP2 SWAP1 PUSH2 0x2CA JUMP JUMPDEST CALLER PUSH0 PUSH20 0xFFFFFFFFFFFFFFFFFFFFFFFFFFFFFFFFFFFFFFFF AND DUP2 PUSH20 0xFFFFFFFFFFFFFFFFFFFFFFFFFFFFFFFFFFFFFFFF AND SUB PUSH2 0xF9 JUMPI PUSH0 PUSH1 0x40 MLOAD PUSH32 0x1E4FBDF700000000000000000000000000000000000000000000000000000000 DUP2 MSTORE PUSH1 0x4 ADD PUSH2 0xF0 SWAP2 SWAP1 PUSH2 0x317 JUMP JUMPDEST PUSH1 0x40 MLOAD DUP1 SWAP2 SUB SWAP1 REVERT JUMPDEST PUSH2 0x108 DUP2 PUSH2 0x1AB PUSH1 0x20 SHL PUSH1 0x20 SHR JUMP JUMPDEST POP DUP2 PUSH1 0x2 PUSH0 PUSH2 0x100 EXP DUP2 SLOAD DUP2 PUSH20 0xFFFFFFFFFFFFFFFFFFFFFFFFFFFFFFFFFFFFFFFF MUL NOT AND SWAP1 DUP4 PUSH20 0xFFFFFFFFFFFFFFFFFFFFFFFFFFFFFFFFFFFFFFFF AND MUL OR SWAP1 SSTORE POP DUP1 PUSH1 0xB PUSH1 0x1 PUSH2 0x100 EXP DUP2 SLOAD DUP2 PUSH20 0xFFFFFFFFFFFFFFFFFFFFFFFFFFFFFFFFFFFFFFFF MUL NOT AND SWAP1 DUP4 PUSH20 0xFFFFFFFFFFFFFFFFFFFFFFFFFFFFFFFFFFFFFFFF AND MUL OR SWAP1 SSTORE POP PUSH1 0x1 PUSH1 0xB PUSH0 PUSH2 0x100 EXP DUP2 SLOAD DUP2 PUSH1 0xFF MUL NOT AND SWAP1 DUP4 ISZERO ISZERO MUL OR SWAP1 SSTORE POP POP POP PUSH2 0x330 JUMP JUMPDEST PUSH0 DUP1 PUSH0 SWAP1 SLOAD SWAP1 PUSH2 0x100 EXP SWAP1 DIV PUSH20 0xFFFFFFFFFFFFFFFFFFFFFFFFFFFFFFFFFFFFFFFF AND SWAP1 POP DUP2 PUSH0 DUP1 PUSH2 0x100 EXP DUP2 SLOAD DUP2 PUSH20 0xFFFFFFFFFFFFFFFFFFFFFFFFFFFFFFFFFFFFFFFF MUL NOT AND SWAP1 DUP4 PUSH20 0xFFFFFFFFFFFFFFFFFFFFFFFFFFFFFFFFFFFFFFFF AND MUL OR SWAP1 SSTORE POP DUP2 PUSH20 0xFFFFFFFFFFFFFFFFFFFFFFFFFFFFFFFFFFFFFFFF AND DUP2 PUSH20 0xFFFFFFFFFFFFFFFFFFFFFFFFFFFFFFFFFFFFFFFF AND PUSH32 0x8BE0079C531659141344CD1FD0A4F28419497F9722A3DAAFE3B4186F6B6457E0 PUSH1 0x40 MLOAD PUSH1 0x40 MLOAD DUP1 SWAP2 SUB SWAP1 LOG3 POP POP JUMP JUMPDEST PUSH0 DUP1 REVERT JUMPDEST PUSH0 PUSH20 0xFFFFFFFFFFFFFFFFFFFFFFFFFFFFFFFFFFFFFFFF DUP3 AND SWAP1 POP SWAP2 SWAP1 POP JUMP JUMPDEST PUSH0 PUSH2 0x299 DUP3 PUSH2 0x270 JUMP JUMPDEST SWAP1 POP SWAP2 SWAP1 POP JUMP JUMPDEST PUSH2 0x2A9 DUP2 PUSH2 0x28F JUMP JUMPDEST DUP2 EQ PUSH2 0x2B3 JUMPI PUSH0 DUP1 REVERT JUMPDEST POP JUMP JUMPDEST PUSH0 DUP2 MLOAD SWAP1 POP PUSH2 0x2C4 DUP2 PUSH2 0x2A0 JUMP JUMPDEST SWAP3 SWAP2 POP POP JUMP JUMPDEST PUSH0 DUP1 PUSH1 0x40 DUP4 DUP6 SUB SLT ISZERO PUSH2 0x2E0 JUMPI PUSH2 0x2DF PUSH2 0x26C JUMP JUMPDEST JUMPDEST PUSH0 PUSH2 0x2ED DUP6 DUP3 DUP7 ADD PUSH2 0x2B6 JUMP JUMPDEST SWAP3 POP POP PUSH1 0x20 PUSH2 0x2FE DUP6 DUP3 DUP7 ADD PUSH2 0x2B6 JUMP JUMPDEST SWAP2 POP POP SWAP3 POP SWAP3 SWAP1 POP JUMP JUMPDEST PUSH2 0x311 DUP2 PUSH2 0x28F JUMP JUMPDEST DUP3 MSTORE POP POP JUMP JUMPDEST PUSH0 PUSH1 0x20 DUP3 ADD SWAP1 POP PUSH2 0x32A PUSH0 DUP4 ADD DUP5 PUSH2 0x308 JUMP JUMPDEST SWAP3 SWAP2 POP POP JUMP JUMPDEST PUSH2 0x2783 DUP1 PUSH2 0x33D PUSH0 CODECOPY PUSH0 RETURN INVALID PUSH1 0x80 PUSH1 0x40 MSTORE CALLVALUE DUP1 ISZERO PUSH2 0xF JUMPI PUSH0 DUP1 REVERT JUMPDEST POP PUSH1 0x4 CALLDATASIZE LT PUSH2 0x1CD JUMPI PUSH0 CALLDATALOAD PUSH1 0xE0 SHR DUP1 PUSH4 0x7FF9B596 GT PUSH2 0x102 JUMPI DUP1 PUSH4 0xBF4DD131 GT PUSH2 0xA0 JUMPI DUP1 PUSH4 0xE0202F87 GT PUSH2 0x6F JUMPI DUP1 PUSH4 0xE0202F87 EQ PUSH2 0x4D9 JUMPI DUP1 PUSH4 0xE8B611D6 EQ PUSH2 0x4F7 JUMPI DUP1 PUSH4 0xF2FDE38B EQ PUSH2 0x515 JUMPI DUP1 PUSH4 0xFA6770B3 EQ PUSH2 0x531 JUMPI PUSH2 0x1CD JUMP JUMPDEST DUP1 PUSH4 0xBF4DD131 EQ PUSH2 0x463 JUMPI DUP1 PUSH4 0xC54E44EB EQ PUSH2 0x481 JUMPI DUP1 PUSH4 0xD358AA20 EQ PUSH2 0x49F JUMPI DUP1 PUSH4 0xDCEFA538 EQ PUSH2 0x4BD JUMPI PUSH2 0x1CD JUMP JUMPDEST DUP1 PUSH4 0x9F7F9DA2 GT PUSH2 0xDC JUMPI DUP1 PUSH4 0x9F7F9DA2 EQ PUSH2 0x3D9 JUMPI DUP1 PUSH4 0xA24BCF46 EQ PUSH2 0x3F7 JUMPI DUP1 PUSH4 0xB187BD26 EQ PUSH2 0x427 JUMPI DUP1 PUSH4 0xBB4D5E7C EQ PUSH2 0x445 JUMPI PUSH2 0x1CD JUMP JUMPDEST DUP1 PUSH4 0x7FF9B596 EQ PUSH2 0x381 JUMPI DUP1 PUSH4 0x8DA5CB5B EQ PUSH2 0x39F JUMPI DUP1 PUSH4 0x91B7F5ED EQ PUSH2 0x3BD JUMPI PUSH2 0x1CD JUMP JUMPDEST DUP1 PUSH4 0x3E6968B6 GT PUSH2 0x16F JUMPI DUP1 PUSH4 0x64E39B87 GT PUSH2 0x149 JUMPI DUP1 PUSH4 0x64E39B87 EQ PUSH2 0x347 JUMPI DUP1 PUSH4 0x6B64C769 EQ PUSH2 0x363 JUMPI DUP1 PUSH4 0x715018A6 EQ PUSH2 0x36D JUMPI DUP1 PUSH4 0x7D350453 EQ PUSH2 0x377 JUMPI PUSH2 0x1CD JUMP JUMPDEST DUP1 PUSH4 0x3E6968B6 EQ PUSH2 0x2C6 JUMPI DUP1 PUSH4 0x5B10493F EQ PUSH2 0x2E4 JUMPI DUP1 PUSH4 0x62E00DD5 EQ PUSH2 0x315 JUMPI PUSH2 0x1CD JUMP JUMPDEST DUP1 PUSH4 0x222D7E34 GT PUSH2 0x1AB JUMPI DUP1 PUSH4 0x222D7E34 EQ PUSH2 0x23B JUMPI DUP1 PUSH4 0x224A8057 EQ PUSH2 0x259 JUMPI DUP1 PUSH4 0x30DB6F95 EQ PUSH2 0x277 JUMPI DUP1 PUSH4 0x3C830A38 EQ PUSH2 0x293 JUMPI PUSH2 0x1CD JUMP JUMPDEST DUP1 PUSH4 0x174E31C4 EQ PUSH2 0x1D1 JUMPI DUP1 PUSH4 0x18D7FA46 EQ PUSH2 0x201 JUMPI DUP1 PUSH4 0x2194F3A2 EQ PUSH2 0x21D JUMPI JUMPDEST PUSH0 DUP1 REVERT JUMPDEST PUSH2 0x1EB PUSH1 0x4 DUP1 CALLDATASIZE SUB DUP2 ADD SWAP1 PUSH2 0x1E6 SWAP2 SWAP1 PUSH2 0x18E4 JUMP JUMPDEST PUSH2 0x550 JUMP JUMPDEST PUSH1 0x40 MLOAD PUSH2 0x1F8 SWAP2 SWAP1 PUSH2 0x193C JUMP JUMPDEST PUSH1 0x40 MLOAD DUP1 SWAP2 SUB SWAP1 RETURN JUMPDEST PUSH2 0x21B PUSH1 0x4 DUP1 CALLDATASIZE SUB DUP2 ADD SWAP1 PUSH2 0x216 SWAP2 SWAP1 PUSH2 0x1955 JUMP JUMPDEST PUSH2 0x7E9 JUMP JUMPDEST STOP JUMPDEST PUSH2 0x225 PUSH2 0x875 JUMP JUMPDEST PUSH1 0x40 MLOAD PUSH2 0x232 SWAP2 SWAP1 PUSH2 0x19B4 JUMP JUMPDEST PUSH1 0x40 MLOAD DUP1 SWAP2 SUB SWAP1 RETURN JUMPDEST PUSH2 0x243 PUSH2 0x89B JUMP JUMPDEST PUSH1 0x40 MLOAD PUSH2 0x250 SWAP2 SWAP1 PUSH2 0x19DC JUMP JUMPDEST PUSH1 0x40 MLOAD DUP1 SWAP2 SUB SWAP1 RETURN JUMPDEST PUSH2 0x261 PUSH2 0x8A1 JUMP JUMPDEST PUSH1 0x40 MLOAD PUSH2 0x26E SWAP2 SWAP1 PUSH2 0x19DC JUMP JUMPDEST PUSH1 0x40 MLOAD DUP1 SWAP2 SUB SWAP1 RETURN JUMPDEST PUSH2 0x291 PUSH1 0x4 DUP1 CALLDATASIZE SUB DUP2 ADD SWAP1 PUSH2 0x28C SWAP2 SWAP1 PUSH2 0x1A1F JUMP JUMPDEST PUSH2 0x8A7 JUMP JUMPDEST STOP JUMPDEST PUSH2 0x2AD PUSH1 0x4 DUP1 CALLDATASIZE SUB DUP2 ADD SWAP1 PUSH2 0x2A8 SWAP2 SWAP1 PUSH2 0x1A4A JUMP JUMPDEST PUSH2 0x8CB JUMP JUMPDEST PUSH1 0x40 MLOAD PUSH2 0x2BD SWAP5 SWAP4 SWAP3 SWAP2 SWAP1 PUSH2 0x1A75 JUMP JUMPDEST PUSH1 0x40 MLOAD DUP1 SWAP2 SUB SWAP1 RETURN JUMPDEST PUSH2 0x2CE PUSH2 0x8F7 JUMP JUMPDEST PUSH1 0x40 MLOAD PUSH2 0x2DB SWAP2 SWAP1 PUSH2 0x19DC JUMP JUMPDEST PUSH1 0x40 MLOAD DUP1 SWAP2 SUB SWAP1 RETURN JUMPDEST PUSH2 0x2FE PUSH1 0x4 DUP1 CALLDATASIZE SUB DUP2 ADD SWAP1 PUSH2 0x2F9 SWAP2 SWAP1 PUSH2 0x1AB8 JUMP JUMPDEST PUSH2 0x96D JUMP JUMPDEST PUSH1 0x40 MLOAD PUSH2 0x30C SWAP3 SWAP2 SWAP1 PUSH2 0x1AE3 JUMP JUMPDEST PUSH1 0x40 MLOAD DUP1 SWAP2 SUB SWAP1 RETURN JUMPDEST PUSH2 0x32F PUSH1 0x4 DUP1 CALLDATASIZE SUB DUP2 ADD SWAP1 PUSH2 0x32A SWAP2 SWAP1 PUSH2 0x1A4A JUMP JUMPDEST PUSH2 0x98D JUMP JUMPDEST PUSH1 0x40 MLOAD PUSH2 0x33E SWAP4 SWAP3 SWAP2 SWAP1 PUSH2 0x1B0A JUMP JUMPDEST PUSH1 0x40 MLOAD DUP1 SWAP2 SUB SWAP1 RETURN JUMPDEST PUSH2 0x361 PUSH1 0x4 DUP1 CALLDATASIZE SUB DUP2 ADD SWAP1 PUSH2 0x35C SWAP2 SWAP1 PUSH2 0x1AB8 JUMP JUMPDEST PUSH2 0x9F2 JUMP JUMPDEST STOP JUMPDEST PUSH2 0x36B PUSH2 0xA3E JUMP JUMPDEST STOP JUMPDEST PUSH2 0x375 PUSH2 0xB4E JUMP JUMPDEST STOP JUMPDEST PUSH2 0x37F PUSH2 0xB61 JUMP JUMPDEST STOP JUMPDEST PUSH2 0x389 PUSH2 0xCE3 JUMP JUMPDEST PUSH1 0x40 MLOAD PUSH2 0x396 SWAP2 SWAP1 PUSH2 0x19DC JUMP JUMPDEST PUSH1 0x40 MLOAD DUP1 SWAP2 SUB SWAP1 RETURN JUMPDEST PUSH2 0x3A7 PUSH2 0xCE9 JUMP JUMPDEST PUSH1 0x40 MLOAD PUSH2 0x3B4 SWAP2 SWAP1 PUSH2 0x19B4 JUMP JUMPDEST PUSH1 0x40 MLOAD DUP1 SWAP2 SUB SWAP1 RETURN JUMPDEST PUSH2 0x3D7 PUSH1 0x4 DUP1 CALLDATASIZE SUB DUP2 ADD SWAP1 PUSH2 0x3D2 SWAP2 SWAP1 PUSH2 0x1A4A JUMP JUMPDEST PUSH2 0xD10 JUMP JUMPDEST STOP JUMPDEST PUSH2 0x3E1 PUSH2 0xD22 JUMP JUMPDEST PUSH1 0x40 MLOAD PUSH2 0x3EE SWAP2 SWAP1 PUSH2 0x19DC JUMP JUMPDEST PUSH1 0x40 MLOAD DUP1 SWAP2 SUB SWAP1 RETURN JUMPDEST PUSH2 0x411 PUSH1 0x4 DUP1 CALLDATASIZE SUB DUP2 ADD SWAP1 PUSH2 0x40C SWAP2 SWAP1 PUSH2 0x1A4A JUMP JUMPDEST PUSH2 0xD28 JUMP JUMPDEST PUSH1 0x40 MLOAD PUSH2 0x41E SWAP2 SWAP1 PUSH2 0x19DC JUMP JUMPDEST PUSH1 0x40 MLOAD DUP1 SWAP2 SUB SWAP1 RETURN JUMPDEST PUSH2 0x42F PUSH2 0xD51 JUMP JUMPDEST PUSH1 0x40 MLOAD PUSH2 0x43C SWAP2 SWAP1 PUSH2 0x193C JUMP JUMPDEST PUSH1 0x40 MLOAD DUP1 SWAP2 SUB SWAP1 RETURN JUMPDEST PUSH2 0x44D PUSH2 0xD63 JUMP JUMPDEST PUSH1 0x40 MLOAD PUSH2 0x45A SWAP2 SWAP1 PUSH2 0x19DC JUMP JUMPDEST PUSH1 0x40 MLOAD DUP1 SWAP2 SUB SWAP1 RETURN JUMPDEST PUSH2 0x46B PUSH2 0xD69 JUMP JUMPDEST PUSH1 0x40 MLOAD PUSH2 0x478 SWAP2 SWAP1 PUSH2 0x19DC JUMP JUMPDEST PUSH1 0x40 MLOAD DUP1 SWAP2 SUB SWAP1 RETURN JUMPDEST PUSH2 0x489 PUSH2 0xD6F JUMP JUMPDEST PUSH1 0x40 MLOAD PUSH2 0x496 SWAP2 SWAP1 PUSH2 0x1B9A JUMP JUMPDEST PUSH1 0x40 MLOAD DUP1 SWAP2 SUB SWAP1 RETURN JUMPDEST PUSH2 0x4A7 PUSH2 0xD94 JUMP JUMPDEST PUSH1 0x40 MLOAD PUSH2 0x4B4 SWAP2 SWAP1 PUSH2 0x1BD3 JUMP JUMPDEST PUSH1 0x40 MLOAD DUP1 SWAP2 SUB SWAP1 RETURN JUMPDEST PUSH2 0x4D7 PUSH1 0x4 DUP1 CALLDATASIZE SUB DUP2 ADD SWAP1 PUSH2 0x4D2 SWAP2 SWAP1 PUSH2 0x1C27 JUMP JUMPDEST PUSH2 0xDB9 JUMP JUMPDEST STOP JUMPDEST PUSH2 0x4E1 PUSH2 0x1657 JUMP JUMPDEST PUSH1 0x40 MLOAD PUSH2 0x4EE SWAP2 SWAP1 PUSH2 0x19DC JUMP JUMPDEST PUSH1 0x40 MLOAD DUP1 SWAP2 SUB SWAP1 RETURN JUMPDEST PUSH2 0x4FF PUSH2 0x165D JUMP JUMPDEST PUSH1 0x40 MLOAD PUSH2 0x50C SWAP2 SWAP1 PUSH2 0x19DC JUMP JUMPDEST PUSH1 0x40 MLOAD DUP1 SWAP2 SUB SWAP1 RETURN JUMPDEST PUSH2 0x52F PUSH1 0x4 DUP1 CALLDATASIZE SUB DUP2 ADD SWAP1 PUSH2 0x52A SWAP2 SWAP1 PUSH2 0x1AB8 JUMP JUMPDEST PUSH2 0x1663 JUMP JUMPDEST STOP JUMPDEST PUSH2 0x539 PUSH2 0x16E7 JUMP JUMPDEST PUSH1 0x40 MLOAD PUSH2 0x547 SWAP3 SWAP2 SWAP1 PUSH2 0x1AE3 JUMP JUMPDEST PUSH1 0x40 MLOAD DUP1 SWAP2 SUB SWAP1 RETURN JUMPDEST PUSH0 PUSH1 0xB PUSH0 SWAP1 SLOAD SWAP1 PUSH2 0x100 EXP SWAP1 DIV PUSH1 0xFF AND PUSH2 0x59F JUMPI PUSH1 0x40 MLOAD PUSH32 0x8C379A000000000000000000000000000000000000000000000000000000000 DUP2 MSTORE PUSH1 0x4 ADD PUSH2 0x596 SWAP1 PUSH2 0x1CD1 JUMP JUMPDEST PUSH1 0x40 MLOAD DUP1 SWAP2 SUB SWAP1 REVERT JUMPDEST PUSH1 0x7 SLOAD TIMESTAMP GT PUSH2 0x5E3 JUMPI PUSH1 0x40 MLOAD PUSH32 0x8C379A000000000000000000000000000000000000000000000000000000000 DUP2 MSTORE PUSH1 0x4 ADD PUSH2 0x5DA SWAP1 PUSH2 0x1D39 JUMP JUMPDEST PUSH1 0x40 MLOAD DUP1 SWAP2 SUB SWAP1 REVERT JUMPDEST PUSH0 PUSH1 0xD PUSH0 DUP6 PUSH20 0xFFFFFFFFFFFFFFFFFFFFFFFFFFFFFFFFFFFFFFFF AND PUSH20 0xFFFFFFFFFFFFFFFFFFFFFFFFFFFFFFFFFFFFFFFF AND DUP2 MSTORE PUSH1 0x20 ADD SWAP1 DUP2 MSTORE PUSH1 0x20 ADD PUSH0 KECCAK256 PUSH0 ADD SLOAD GT DUP1 ISZERO PUSH2 0x670 JUMPI POP PUSH1 0xD PUSH0 DUP5 PUSH20 0xFFFFFFFFFFFFFFFFFFFFFFFFFFFFFFFFFFFFFFFF AND PUSH20 0xFFFFFFFFFFFFFFFFFFFFFFFFFFFFFFFFFFFFFFFF AND DUP2 MSTORE PUSH1 0x20 ADD SWAP1 DUP2 MSTORE PUSH1 0x20 ADD PUSH0 KECCAK256 PUSH0 ADD SLOAD DUP3 GT ISZERO JUMPDEST PUSH2 0x6AF JUMPI PUSH1 0x40 MLOAD PUSH32 0x8C379A000000000000000000000000000000000000000000000000000000000 DUP2 MSTORE PUSH1 0x4 ADD PUSH2 0x6A6 SWAP1 PUSH2 0x1DA1 JUMP JUMPDEST PUSH1 0x40 MLOAD DUP1 SWAP2 SUB SWAP1 REVERT JUMPDEST DUP2 PUSH1 0xD PUSH0 DUP6 PUSH20 0xFFFFFFFFFFFFFFFFFFFFFFFFFFFFFFFFFFFFFFFF AND PUSH20 0xFFFFFFFFFFFFFFFFFFFFFFFFFFFFFFFFFFFFFFFF AND DUP2 MSTORE PUSH1 0x20 ADD SWAP1 DUP2 MSTORE PUSH1 0x20 ADD PUSH0 KECCAK256 PUSH0 ADD PUSH0 DUP3 DUP3 SLOAD PUSH2 0x6FD SWAP2 SWAP1 PUSH2 0x1DEC JUMP JUMPDEST SWAP3 POP POP DUP2 SWAP1 SSTORE POP PUSH1 0x2 PUSH0 SWAP1 SLOAD SWAP1 PUSH2 0x100 EXP SWAP1 DIV PUSH20 0xFFFFFFFFFFFFFFFFFFFFFFFFFFFFFFFFFFFFFFFF AND PUSH20 0xFFFFFFFFFFFFFFFFFFFFFFFFFFFFFFFFFFFFFFFF AND PUSH4 0xA9059CBB DUP5 DUP5 PUSH1 0x40 MLOAD DUP4 PUSH4 0xFFFFFFFF AND PUSH1 0xE0 SHL DUP2 MSTORE PUSH1 0x4 ADD PUSH2 0x760 SWAP3 SWAP2 SWAP1 PUSH2 0x1E1F JUMP JUMPDEST PUSH1 0x20 PUSH1 0x40 MLOAD DUP1 DUP4 SUB DUP2 PUSH0 DUP8 GAS CALL ISZERO DUP1 ISZERO PUSH2 0x77C JUMPI RETURNDATASIZE PUSH0 DUP1 RETURNDATACOPY RETURNDATASIZE PUSH0 REVERT JUMPDEST POP POP POP POP PUSH1 0x40 MLOAD RETURNDATASIZE PUSH1 0x1F NOT PUSH1 0x1F DUP3 ADD AND DUP3 ADD DUP1 PUSH1 0x40 MSTORE POP DUP2 ADD SWAP1 PUSH2 0x7A0 SWAP2 SWAP1 PUSH2 0x1E5A JUMP JUMPDEST PUSH2 0x7DF JUMPI PUSH1 0x40 MLOAD PUSH32 0x8C379A000000000000000000000000000000000000000000000000000000000 DUP2 MSTORE PUSH1 0x4 ADD PUSH2 0x7D6 SWAP1 PUSH2 0x1ECF JUMP JUMPDEST PUSH1 0x40 MLOAD DUP1 SWAP2 SUB SWAP1 REVERT JUMPDEST PUSH1 0x1 SWAP1 POP SWAP3 SWAP2 POP POP JUMP JUMPDEST PUSH2 0x7F1 PUSH2 0x16F7 JUMP JUMPDEST PUSH1 0x7 DUP4 LT DUP1 ISZERO PUSH2 0x800 JUMPI POP PUSH0 DUP4 GT JUMPDEST PUSH2 0x83F JUMPI PUSH1 0x40 MLOAD PUSH32 0x8C379A000000000000000000000000000000000000000000000000000000000 DUP2 MSTORE PUSH1 0x4 ADD PUSH2 0x836 SWAP1 PUSH2 0x1F37 JUMP JUMPDEST PUSH1 0x40 MLOAD DUP1 SWAP2 SUB SWAP1 REVERT JUMPDEST DUP1 PUSH1 0xC PUSH0 DUP6 DUP2 MSTORE PUSH1 0x20 ADD SWAP1 DUP2 MSTORE PUSH1 0x20 ADD PUSH0 KECCAK256 PUSH1 0x3 ADD DUP2 SWAP1 SSTORE POP DUP2 PUSH1 0xC PUSH0 DUP6 DUP2 MSTORE PUSH1 0x20 ADD SWAP1 DUP2 MSTORE PUSH1 0x20 ADD PUSH0 KECCAK256 PUSH0 ADD DUP2 SWAP1 SSTORE POP POP POP POP JUMP JUMPDEST PUSH1 0xB PUSH1 0x1 SWAP1 SLOAD SWAP1 PUSH2 0x100 EXP SWAP1 DIV PUSH20 0xFFFFFFFFFFFFFFFFFFFFFFFFFFFFFFFFFFFFFFFF AND DUP2 JUMP JUMPDEST PUSH1 0xA SLOAD DUP2 JUMP JUMPDEST PUSH1 0x6 SLOAD DUP2 JUMP JUMPDEST PUSH2 0x8AF PUSH2 0x16F7 JUMP JUMPDEST DUP1 PUSH1 0xB PUSH0 PUSH2 0x100 EXP DUP2 SLOAD DUP2 PUSH1 0xFF MUL NOT AND SWAP1 DUP4 ISZERO ISZERO MUL OR SWAP1 SSTORE POP POP JUMP JUMPDEST PUSH1 0xC PUSH1 0x20 MSTORE DUP1 PUSH0 MSTORE PUSH1 0x40 PUSH0 KECCAK256 PUSH0 SWAP2 POP SWAP1 POP DUP1 PUSH0 ADD SLOAD SWAP1 DUP1 PUSH1 0x1 ADD SLOAD SWAP1 DUP1 PUSH1 0x2 ADD SLOAD SWAP1 DUP1 PUSH1 0x3 ADD SLOAD SWAP1 POP DUP5 JUMP JUMPDEST PUSH0 PUSH1 0xB PUSH0 SWAP1 SLOAD SWAP1 PUSH2 0x100 EXP SWAP1 DIV PUSH1 0xFF AND DUP1 PUSH2 0x913 JUMPI POP PUSH1 0x7 SLOAD TIMESTAMP GT JUMPDEST ISZERO PUSH2 0x921 JUMPI PUSH1 0x8 SWAP1 POP PUSH2 0x96A JUMP JUMPDEST PUSH0 PUSH1 0xA SLOAD TIMESTAMP PUSH2 0x930 SWAP2 SWAP1 PUSH2 0x1DEC JUMP JUMPDEST SWAP1 POP PUSH0 PUSH1 0x1 PUSH3 0x15180 DUP4 PUSH2 0x944 SWAP2 SWAP1 PUSH2 0x1F82 JUMP JUMPDEST PUSH2 0x94E SWAP2 SWAP1 PUSH2 0x1FB2 JUMP JUMPDEST SWAP1 POP PUSH1 0x7 DUP2 GT ISZERO PUSH2 0x964 JUMPI PUSH1 0x7 SWAP3 POP POP POP PUSH2 0x96A JUMP JUMPDEST DUP1 SWAP3 POP POP POP JUMPDEST SWAP1 JUMP JUMPDEST PUSH1 0xD PUSH1 0x20 MSTORE DUP1 PUSH0 MSTORE PUSH1 0x40 PUSH0 KECCAK256 PUSH0 SWAP2 POP SWAP1 POP DUP1 PUSH0 ADD SLOAD SWAP1 DUP1 PUSH1 0x1 ADD SLOAD SWAP1 POP DUP3 JUMP JUMPDEST PUSH0 DUP1 PUSH0 DUP1 PUSH1 0xC PUSH0 DUP7 DUP2 MSTORE PUSH1 0x20 ADD SWAP1 DUP2 MSTORE PUSH1 0x20 ADD PUSH0 KECCAK256 PUSH1 0x40 MLOAD DUP1 PUSH1 0x80 ADD PUSH1 0x40 MSTORE SWAP1 DUP2 PUSH0 DUP3 ADD SLOAD DUP2 MSTORE PUSH1 0x20 ADD PUSH1 0x1 DUP3 ADD SLOAD DUP2 MSTORE PUSH1 0x20 ADD PUSH1 0x2 DUP3 ADD SLOAD DUP2 MSTORE PUSH1 0x20 ADD PUSH1 0x3 DUP3 ADD SLOAD DUP2 MSTORE POP POP SWAP1 POP DUP1 PUSH0 ADD MLOAD DUP2 PUSH1 0x20 ADD MLOAD DUP3 PUSH1 0x60 ADD MLOAD SWAP4 POP SWAP4 POP SWAP4 POP POP SWAP2 SWAP4 SWAP1 SWAP3 POP JUMP JUMPDEST PUSH2 0x9FA PUSH2 0x16F7 JUMP JUMPDEST DUP1 PUSH1 0xB PUSH1 0x1 PUSH2 0x100 EXP DUP2 SLOAD DUP2 PUSH20 0xFFFFFFFFFFFFFFFFFFFFFFFFFFFFFFFFFFFFFFFF MUL NOT AND SWAP1 DUP4 PUSH20 0xFFFFFFFFFFFFFFFFFFFFFFFFFFFFFFFFFFFFFFFF AND MUL OR SWAP1 SSTORE POP POP JUMP JUMPDEST PUSH2 0xA46 PUSH2 0x16F7 JUMP JUMPDEST PUSH1 0xB PUSH0 SWAP1 SLOAD SWAP1 PUSH2 0x100 EXP SWAP1 DIV PUSH1 0xFF AND PUSH2 0xA94 JUMPI PUSH1 0x40 MLOAD PUSH32 0x8C379A000000000000000000000000000000000000000000000000000000000 DUP2 MSTORE PUSH1 0x4 ADD PUSH2 0xA8B SWAP1 PUSH2 0x202F JUMP JUMPDEST PUSH1 0x40 MLOAD DUP1 SWAP2 SUB SWAP1 REVERT JUMPDEST PUSH0 PUSH1 0xB PUSH0 PUSH2 0x100 EXP DUP2 SLOAD DUP2 PUSH1 0xFF MUL NOT AND SWAP1 DUP4 ISZERO ISZERO MUL OR SWAP1 SSTORE POP PUSH3 0x93A80 TIMESTAMP PUSH2 0xABC SWAP2 SWAP1 PUSH2 0x1FB2 JUMP JUMPDEST PUSH1 0x7 DUP2 SWAP1 SSTORE POP TIMESTAMP PUSH1 0xA DUP2 SWAP1 SSTORE POP PUSH0 PUSH1 0x1 SWAP1 POP JUMPDEST PUSH1 0x7 DUP2 GT PUSH2 0xB4B JUMPI PUSH11 0x1A784379D99DB42000000 PUSH1 0xC PUSH0 DUP4 DUP2 MSTORE PUSH1 0x20 ADD SWAP1 DUP2 MSTORE PUSH1 0x20 ADD PUSH0 KECCAK256 PUSH0 ADD DUP2 SWAP1 SSTORE POP PUSH1 0x5 DUP2 GT ISZERO PUSH2 0xB1A JUMPI PUSH1 0x6 DUP2 EQ PUSH2 0xB12 JUMPI PUSH1 0x1 PUSH2 0xB15 JUMP JUMPDEST PUSH1 0x2 JUMPDEST PUSH2 0xB1D JUMP JUMPDEST PUSH1 0x3 JUMPDEST PUSH1 0xFF AND PUSH1 0xC PUSH0 DUP4 DUP2 MSTORE PUSH1 0x20 ADD SWAP1 DUP2 MSTORE PUSH1 0x20 ADD PUSH0 KECCAK256 PUSH1 0x3 ADD DUP2 SWAP1 SSTORE POP DUP1 DUP1 PUSH2 0xB43 SWAP1 PUSH2 0x204D JUMP JUMPDEST SWAP2 POP POP PUSH2 0xACF JUMP JUMPDEST POP JUMP JUMPDEST PUSH2 0xB56 PUSH2 0x16F7 JUMP JUMPDEST PUSH2 0xB5F PUSH0 PUSH2 0x177E JUMP JUMPDEST JUMP JUMPDEST PUSH2 0xB69 PUSH2 0x16F7 JUMP JUMPDEST PUSH1 0x1 PUSH1 0xB PUSH0 PUSH2 0x100 EXP DUP2 SLOAD DUP2 PUSH1 0xFF MUL NOT AND SWAP1 DUP4 ISZERO ISZERO MUL OR SWAP1 SSTORE POP PUSH0 PUSH1 0x7 DUP2 SWAP1 SSTORE POP PUSH0 PUSH1 0xA DUP2 SWAP1 SSTORE POP PUSH1 0xC PUSH0 PUSH1 0x1 DUP2 MSTORE PUSH1 0x20 ADD SWAP1 DUP2 MSTORE PUSH1 0x20 ADD PUSH0 KECCAK256 PUSH1 0x1 ADD PUSH0 SWAP1 SSTORE PUSH1 0xC PUSH0 PUSH1 0x2 DUP2 MSTORE PUSH1 0x20 ADD SWAP1 DUP2 MSTORE PUSH1 0x20 ADD PUSH0 KECCAK256 PUSH1 0x1 ADD PUSH0 SWAP1 SSTORE PUSH1 0xC PUSH0 PUSH1 0x3 DUP2 MSTORE PUSH1 0x20 ADD SWAP1 DUP2 MSTORE PUSH1 0x20 ADD PUSH0 KECCAK256 PUSH1 0x1 ADD PUSH0 SWAP1 SSTORE PUSH1 0xC PUSH0 PUSH1 0x4 DUP2 MSTORE PUSH1 0x20 ADD SWAP1 DUP2 MSTORE PUSH1 0x20 ADD PUSH0 KECCAK256 PUSH1 0x1 ADD PUSH0 SWAP1 SSTORE PUSH1 0xC PUSH0 PUSH1 0x5 DUP2 MSTORE PUSH1 0x20 ADD SWAP1 DUP2 MSTORE PUSH1 0x20 ADD PUSH0 KECCAK256 PUSH1 0x1 ADD PUSH0 SWAP1 SSTORE PUSH1 0xC PUSH0 PUSH1 0x6 DUP2 MSTORE PUSH1 0x20 ADD SWAP1 DUP2 MSTORE PUSH1 0x20 ADD PUSH0 KECCAK256 PUSH1 0x1 ADD PUSH0 SWAP1 SSTORE PUSH1 0xC PUSH0 PUSH1 0x7 DUP2 MSTORE PUSH1 0x20 ADD SWAP1 DUP2 MSTORE PUSH1 0x20 ADD PUSH0 KECCAK256 PUSH1 0x1 ADD PUSH0 SWAP1 SSTORE PUSH1 0xC PUSH0 PUSH1 0x2 DUP2 MSTORE PUSH1 0x20 ADD SWAP1 DUP2 MSTORE PUSH1 0x20 ADD PUSH0 KECCAK256 PUSH1 0x2 ADD PUSH0 SWAP1 SSTORE PUSH1 0xC PUSH0 PUSH1 0x1 DUP2 MSTORE PUSH1 0x20 ADD SWAP1 DUP2 MSTORE PUSH1 0x20 ADD PUSH0 KECCAK256 PUSH1 0x2 ADD PUSH0 SWAP1 SSTORE PUSH1 0xC PUSH0 PUSH1 0x3 DUP2 MSTORE PUSH1 0x20 ADD SWAP1 DUP2 MSTORE PUSH1 0x20 ADD PUSH0 KECCAK256 PUSH1 0x2 ADD PUSH0 SWAP1 SSTORE PUSH1 0xC PUSH0 PUSH1 0x4 DUP2 MSTORE PUSH1 0x20 ADD SWAP1 DUP2 MSTORE PUSH1 0x20 ADD PUSH0 KECCAK256 PUSH1 0x2 ADD PUSH0 SWAP1 SSTORE PUSH1 0xC PUSH0 PUSH1 0x5 DUP2 MSTORE PUSH1 0x20 ADD SWAP1 DUP2 MSTORE PUSH1 0x20 ADD PUSH0 KECCAK256 PUSH1 0x2 ADD PUSH0 SWAP1 SSTORE PUSH1 0xC PUSH0 PUSH1 0x7 DUP2 MSTORE PUSH1 0x20 ADD SWAP1 DUP2 MSTORE PUSH1 0x20 ADD PUSH0 KECCAK256 PUSH1 0x2 ADD PUSH0 SWAP1 SSTORE PUSH1 0xC PUSH0 PUSH1 0x6 DUP2 MSTORE PUSH1 0x20 ADD SWAP1 DUP2 MSTORE PUSH1 0x20 ADD PUSH0 KECCAK256 PUSH1 0x2 ADD PUSH0 SWAP1 SSTORE JUMP JUMPDEST PUSH1 0x3 SLOAD DUP2 JUMP JUMPDEST PUSH0 DUP1 PUSH0 SWAP1 SLOAD SWAP1 PUSH2 0x100 EXP SWAP1 DIV PUSH20 0xFFFFFFFFFFFFFFFFFFFFFFFFFFFFFFFFFFFFFFFF AND SWAP1 POP SWAP1 JUMP JUMPDEST PUSH2 0xD18 PUSH2 0x16F7 JUMP JUMPDEST DUP1 PUSH1 0x3 DUP2 SWAP1 SSTORE POP POP JUMP JUMPDEST PUSH1 0x7 SLOAD DUP2 JUMP JUMPDEST PUSH0 PUSH1 0x3 SLOAD PUSH8 0xDE0B6B3A7640000 DUP4 PUSH2 0xD40 SWAP2 SWAP1 PUSH2 0x2094 JUMP JUMPDEST PUSH2 0xD4A SWAP2 SWAP1 PUSH2 0x1F82 JUMP JUMPDEST SWAP1 POP SWAP2 SWAP1 POP JUMP JUMPDEST PUSH1 0xB PUSH0 SWAP1 SLOAD SWAP1 PUSH2 0x100 EXP SWAP1 DIV PUSH1 0xFF AND DUP2 JUMP JUMPDEST PUSH1 0x5 SLOAD DUP2 JUMP JUMPDEST PUSH1 0x9 SLOAD DUP2 JUMP JUMPDEST PUSH1 0x1 PUSH0 SWAP1 SLOAD SWAP1 PUSH2 0x100 EXP SWAP1 DIV PUSH20 0xFFFFFFFFFFFFFFFFFFFFFFFFFFFFFFFFFFFFFFFF AND DUP2 JUMP JUMPDEST PUSH1 0x2 PUSH0 SWAP1 SLOAD SWAP1 PUSH2 0x100 EXP SWAP1 DIV PUSH20 0xFFFFFFFFFFFFFFFFFFFFFFFFFFFFFFFFFFFFFFFF AND DUP2 JUMP JUMPDEST PUSH1 0xB PUSH0 SWAP1 SLOAD SWAP1 PUSH2 0x100 EXP SWAP1 DIV PUSH1 0xFF AND ISZERO PUSH2 0xE08 JUMPI PUSH1 0x40 MLOAD PUSH32 0x8C379A000000000000000000000000000000000000000000000000000000000 DUP2 MSTORE PUSH1 0x4 ADD PUSH2 0xDFF SWAP1 PUSH2 0x211F JUMP JUMPDEST PUSH1 0x40 MLOAD DUP1 SWAP2 SUB SWAP1 REVERT JUMPDEST PUSH1 0x7 SLOAD TIMESTAMP GT ISZERO PUSH2 0xE4D JUMPI PUSH1 0x40 MLOAD PUSH32 0x8C379A000000000000000000000000000000000000000000000000000000000 DUP2 MSTORE PUSH1 0x4 ADD PUSH2 0xE44 SWAP1 PUSH2 0x2187 JUMP JUMPDEST PUSH1 0x40 MLOAD DUP1 SWAP2 SUB SWAP1 REVERT JUMPDEST PUSH0 PUSH2 0xE56 PUSH2 0x8F7 JUMP JUMPDEST SWAP1 POP PUSH1 0x7 DUP2 GT ISZERO PUSH2 0xE9C JUMPI PUSH1 0x40 MLOAD PUSH32 0x8C379A000000000000000000000000000000000000000000000000000000000 DUP2 MSTORE PUSH1 0x4 ADD PUSH2 0xE93 SWAP1 PUSH2 0x21EF JUMP JUMPDEST PUSH1 0x40 MLOAD DUP1 SWAP2 SUB SWAP1 REVERT JUMPDEST PUSH0 PUSH1 0xC PUSH0 DUP4 DUP2 MSTORE PUSH1 0x20 ADD SWAP1 DUP2 MSTORE PUSH1 0x20 ADD PUSH0 KECCAK256 SWAP1 POP PUSH1 0x7 DUP3 SUB PUSH2 0xEFE JUMPI PUSH1 0x7 SLOAD TIMESTAMP GT ISZERO PUSH2 0xEFD JUMPI PUSH1 0x40 MLOAD PUSH32 0x8C379A000000000000000000000000000000000000000000000000000000000 DUP2 MSTORE PUSH1 0x4 ADD PUSH2 0xEF4 SWAP1 PUSH2 0x2257 JUMP JUMPDEST PUSH1 0x40 MLOAD DUP1 SWAP2 SUB SWAP1 REVERT JUMPDEST JUMPDEST PUSH1 0x6 DUP3 EQ DUP1 PUSH2 0xF0D JUMPI POP PUSH1 0x7 DUP3 EQ JUMPDEST ISZERO PUSH2 0xFB3 JUMPI PUSH1 0x2 PUSH0 SWAP1 SLOAD SWAP1 PUSH2 0x100 EXP SWAP1 DIV PUSH20 0xFFFFFFFFFFFFFFFFFFFFFFFFFFFFFFFFFFFFFFFF AND PUSH20 0xFFFFFFFFFFFFFFFFFFFFFFFFFFFFFFFFFFFFFFFF AND PUSH4 0x70A08231 ADDRESS PUSH1 0x40 MLOAD DUP3 PUSH4 0xFFFFFFFF AND PUSH1 0xE0 SHL DUP2 MSTORE PUSH1 0x4 ADD PUSH2 0xF6C SWAP2 SWAP1 PUSH2 0x19B4 JUMP JUMPDEST PUSH1 0x20 PUSH1 0x40 MLOAD DUP1 DUP4 SUB DUP2 DUP7 GAS STATICCALL ISZERO DUP1 ISZERO PUSH2 0xF87 JUMPI RETURNDATASIZE PUSH0 DUP1 RETURNDATACOPY RETURNDATASIZE PUSH0 REVERT JUMPDEST POP POP POP POP PUSH1 0x40 MLOAD RETURNDATASIZE PUSH1 0x1F NOT PUSH1 0x1F DUP3 ADD AND DUP3 ADD DUP1 PUSH1 0x40 MSTORE POP DUP2 ADD SWAP1 PUSH2 0xFAB SWAP2 SWAP1 PUSH2 0x2289 JUMP JUMPDEST DUP2 PUSH0 ADD DUP2 SWAP1 SSTORE POP JUMPDEST PUSH1 0xB PUSH0 SWAP1 SLOAD SWAP1 PUSH2 0x100 EXP SWAP1 DIV PUSH1 0xFF AND ISZERO PUSH2 0x1002 JUMPI PUSH1 0x40 MLOAD PUSH32 0x8C379A000000000000000000000000000000000000000000000000000000000 DUP2 MSTORE PUSH1 0x4 ADD PUSH2 0xFF9 SWAP1 PUSH2 0x22FE JUMP JUMPDEST PUSH1 0x40 MLOAD DUP1 SWAP2 SUB SWAP1 REVERT JUMPDEST PUSH1 0x5 SLOAD DUP2 PUSH1 0x1 ADD SLOAD LT PUSH2 0x104A JUMPI PUSH1 0x40 MLOAD PUSH32 0x8C379A000000000000000000000000000000000000000000000000000000000 DUP2 MSTORE PUSH1 0x4 ADD PUSH2 0x1041 SWAP1 PUSH2 0x2366 JUMP JUMPDEST PUSH1 0x40 MLOAD DUP1 SWAP2 SUB SWAP1 REVERT JUMPDEST PUSH1 0x6 SLOAD DUP2 PUSH1 0x2 ADD SLOAD LT PUSH2 0x1092 JUMPI PUSH1 0x40 MLOAD PUSH32 0x8C379A000000000000000000000000000000000000000000000000000000000 DUP2 MSTORE PUSH1 0x4 ADD PUSH2 0x1089 SWAP1 PUSH2 0x2366 JUMP JUMPDEST PUSH1 0x40 MLOAD DUP1 SWAP2 SUB SWAP1 REVERT JUMPDEST PUSH0 PUSH8 0xDE0B6B3A7640000 PUSH1 0x3 SLOAD DUP6 PUSH2 0x10AA SWAP2 SWAP1 PUSH2 0x2094 JUMP JUMPDEST PUSH2 0x10B4 SWAP2 SWAP1 PUSH2 0x1F82 JUMP JUMPDEST SWAP1 POP DUP6 PUSH20 0xFFFFFFFFFFFFFFFFFFFFFFFFFFFFFFFFFFFFFFFF AND PUSH4 0x23B872DD CALLER PUSH1 0xB PUSH1 0x1 SWAP1 SLOAD SWAP1 PUSH2 0x100 EXP SWAP1 DIV PUSH20 0xFFFFFFFFFFFFFFFFFFFFFFFFFFFFFFFFFFFFFFFF AND DUP5 PUSH1 0x40 MLOAD DUP5 PUSH4 0xFFFFFFFF AND PUSH1 0xE0 SHL DUP2 MSTORE PUSH1 0x4 ADD PUSH2 0x1115 SWAP4 SWAP3 SWAP2 SWAP1 PUSH2 0x2384 JUMP JUMPDEST PUSH1 0x20 PUSH1 0x40 MLOAD DUP1 DUP4 SUB DUP2 PUSH0 DUP8 GAS CALL ISZERO DUP1 ISZERO PUSH2 0x1131 JUMPI RETURNDATASIZE PUSH0 DUP1 RETURNDATACOPY RETURNDATASIZE PUSH0 REVERT JUMPDEST POP POP POP POP PUSH1 0x40 MLOAD RETURNDATASIZE PUSH1 0x1F NOT PUSH1 0x1F DUP3 ADD AND DUP3 ADD DUP1 PUSH1 0x40 MSTORE POP DUP2 ADD SWAP1 PUSH2 0x1155 SWAP2 SWAP1 PUSH2 0x1E5A JUMP JUMPDEST PUSH2 0x1194 JUMPI PUSH1 0x40 MLOAD PUSH32 0x8C379A000000000000000000000000000000000000000000000000000000000 DUP2 MSTORE PUSH1 0x4 ADD PUSH2 0x118B SWAP1 PUSH2 0x2403 JUMP JUMPDEST PUSH1 0x40 MLOAD DUP1 SWAP2 SUB SWAP1 REVERT JUMPDEST PUSH0 DUP3 PUSH0 ADD SLOAD DUP6 DUP5 PUSH1 0x1 ADD SLOAD PUSH2 0x11A9 SWAP2 SWAP1 PUSH2 0x1FB2 JUMP JUMPDEST GT ISZERO PUSH2 0x12DA JUMPI DUP3 PUSH0 ADD SLOAD DUP4 PUSH1 0x1 ADD SLOAD GT ISZERO PUSH2 0x11E4 JUMPI DUP3 PUSH1 0x1 ADD SLOAD DUP6 DUP5 PUSH1 0x1 ADD SLOAD PUSH2 0x11D3 SWAP2 SWAP1 PUSH2 0x1FB2 JUMP JUMPDEST PUSH2 0x11DD SWAP2 SWAP1 PUSH2 0x1DEC JUMP JUMPDEST SWAP1 POP PUSH2 0x1205 JUMP JUMPDEST DUP3 PUSH0 ADD SLOAD DUP6 DUP5 PUSH1 0x1 ADD SLOAD PUSH2 0x11F8 SWAP2 SWAP1 PUSH2 0x1FB2 JUMP JUMPDEST PUSH2 0x1202 SWAP2 SWAP1 PUSH2 0x1DEC JUMP JUMPDEST SWAP1 POP JUMPDEST DUP1 DUP4 PUSH1 0x2 ADD PUSH0 DUP3 DUP3 SLOAD PUSH2 0x1218 SWAP2 SWAP1 PUSH2 0x1FB2 JUMP JUMPDEST SWAP3 POP POP DUP2 SWAP1 SSTORE POP DUP1 PUSH1 0xD PUSH0 DUP9 PUSH20 0xFFFFFFFFFFFFFFFFFFFFFFFFFFFFFFFFFFFFFFFF AND PUSH20 0xFFFFFFFFFFFFFFFFFFFFFFFFFFFFFFFFFFFFFFFF AND DUP2 MSTORE PUSH1 0x20 ADD SWAP1 DUP2 MSTORE PUSH1 0x20 ADD PUSH0 KECCAK256 PUSH1 0x1 ADD PUSH0 DUP3 DUP3 SLOAD PUSH2 0x126E SWAP2 SWAP1 PUSH2 0x1FB2 JUMP JUMPDEST SWAP3 POP POP DUP2 SWAP1 SSTORE POP DUP3 PUSH1 0x3 ADD SLOAD DUP2 PUSH2 0x1285 SWAP2 SWAP1 PUSH2 0x2094 JUMP JUMPDEST PUSH1 0xD PUSH0 DUP9 PUSH20 0xFFFFFFFFFFFFFFFFFFFFFFFFFFFFFFFFFFFFFFFF AND PUSH20 0xFFFFFFFFFFFFFFFFFFFFFFFFFFFFFFFFFFFFFFFF AND DUP2 MSTORE PUSH1 0x20 ADD SWAP1 DUP2 MSTORE PUSH1 0x20 ADD PUSH0 KECCAK256 PUSH0 ADD PUSH0 DUP3 DUP3 SLOAD PUSH2 0x12D2 SWAP2 SWAP1 PUSH2 0x1FB2 JUMP JUMPDEST SWAP3 POP POP DUP2 SWAP1 SSTORE POP JUMPDEST DUP5 PUSH1 0x8 PUSH0 DUP3 DUP3 SLOAD PUSH2 0x12EB SWAP2 SWAP1 PUSH2 0x1FB2 JUMP JUMPDEST SWAP3 POP POP DUP2 SWAP1 SSTORE POP DUP5 DUP4 PUSH1 0x1 ADD PUSH0 DUP3 DUP3 SLOAD PUSH2 0x1305 SWAP2 SWAP1 PUSH2 0x1FB2 JUMP JUMPDEST SWAP3 POP POP DUP2 SWAP1 SSTORE POP PUSH0 DUP1 PUSH1 0x2 PUSH0 SWAP1 SLOAD SWAP1 PUSH2 0x100 EXP SWAP1 DIV PUSH20 0xFFFFFFFFFFFFFFFFFFFFFFFFFFFFFFFFFFFFFFFF AND PUSH20 0xFFFFFFFFFFFFFFFFFFFFFFFFFFFFFFFFFFFFFFFF AND PUSH4 0x8B3F863F DUP10 PUSH1 0x40 MLOAD DUP3 PUSH4 0xFFFFFFFF AND PUSH1 0xE0 SHL DUP2 MSTORE PUSH1 0x4 ADD PUSH2 0x1368 SWAP2 SWAP1 PUSH2 0x19B4 JUMP JUMPDEST PUSH0 PUSH1 0x40 MLOAD DUP1 DUP4 SUB DUP2 DUP7 GAS STATICCALL ISZERO DUP1 ISZERO PUSH2 0x1382 JUMPI RETURNDATASIZE PUSH0 DUP1 RETURNDATACOPY RETURNDATASIZE PUSH0 REVERT JUMPDEST POP POP POP POP PUSH1 0x40 MLOAD RETURNDATASIZE PUSH0 DUP3 RETURNDATACOPY RETURNDATASIZE PUSH1 0x1F NOT PUSH1 0x1F DUP3 ADD AND DUP3 ADD DUP1 PUSH1 0x40 MSTORE POP DUP2 ADD SWAP1 PUSH2 0x13AA SWAP2 SWAP1 PUSH2 0x255D JUMP JUMPDEST SWAP1 POP PUSH1 0x40 MLOAD PUSH1 0x20 ADD PUSH2 0x13BB SWAP1 PUSH2 0x25F8 JUMP JUMPDEST PUSH1 0x40 MLOAD PUSH1 0x20 DUP2 DUP4 SUB SUB DUP2 MSTORE SWAP1 PUSH1 0x40 MSTORE DUP1 MLOAD SWAP1 PUSH1 0x20 ADD KECCAK256 DUP2 PUSH1 0x40 MLOAD PUSH1 0x20 ADD PUSH2 0x13E2 SWAP2 SWAP1 PUSH2 0x2646 JUMP JUMPDEST PUSH1 0x40 MLOAD PUSH1 0x20 DUP2 DUP4 SUB SUB DUP2 MSTORE SWAP1 PUSH1 0x40 MSTORE DUP1 MLOAD SWAP1 PUSH1 0x20 ADD KECCAK256 SUB PUSH2 0x140E JUMPI PUSH1 0x9 SLOAD TIMESTAMP PUSH2 0x140B SWAP2 SWAP1 PUSH2 0x1FB2 JUMP JUMPDEST SWAP2 POP JUMPDEST PUSH1 0x40 MLOAD PUSH1 0x20 ADD PUSH2 0x141D SWAP1 PUSH2 0x26A6 JUMP JUMPDEST PUSH1 0x40 MLOAD PUSH1 0x20 DUP2 DUP4 SUB SUB DUP2 MSTORE SWAP1 PUSH1 0x40 MSTORE DUP1 MLOAD SWAP1 PUSH1 0x20 ADD KECCAK256 DUP2 PUSH1 0x40 MLOAD PUSH1 0x20 ADD PUSH2 0x1444 SWAP2 SWAP1 PUSH2 0x2646 JUMP JUMPDEST PUSH1 0x40 MLOAD PUSH1 0x20 DUP2 DUP4 SUB SUB DUP2 MSTORE SWAP1 PUSH1 0x40 MSTORE DUP1 MLOAD SWAP1 PUSH1 0x20 ADD KECCAK256 SUB PUSH2 0x1470 JUMPI PUSH1 0x9 SLOAD TIMESTAMP PUSH2 0x146D SWAP2 SWAP1 PUSH2 0x1FB2 JUMP JUMPDEST SWAP2 POP JUMPDEST PUSH1 0x40 MLOAD PUSH1 0x20 ADD PUSH2 0x147F SWAP1 PUSH2 0x2704 JUMP JUMPDEST PUSH1 0x40 MLOAD PUSH1 0x20 DUP2 DUP4 SUB SUB DUP2 MSTORE SWAP1 PUSH1 0x40 MSTORE DUP1 MLOAD SWAP1 PUSH1 0x20 ADD KECCAK256 DUP2 PUSH1 0x40 MLOAD PUSH1 0x20 ADD PUSH2 0x14A6 SWAP2 SWAP1 PUSH2 0x2646 JUMP JUMPDEST PUSH1 0x40 MLOAD PUSH1 0x20 DUP2 DUP4 SUB SUB DUP2 MSTORE SWAP1 PUSH1 0x40 MSTORE DUP1 MLOAD SWAP1 PUSH1 0x20 ADD KECCAK256 SUB PUSH2 0x14D2 JUMPI PUSH1 0x9 SLOAD TIMESTAMP PUSH2 0x14CF SWAP2 SWAP1 PUSH2 0x1FB2 JUMP JUMPDEST SWAP2 POP JUMPDEST PUSH1 0x2 PUSH0 SWAP1 SLOAD SWAP1 PUSH2 0x100 EXP SWAP1 DIV PUSH20 0xFFFFFFFFFFFFFFFFFFFFFFFFFFFFFFFFFFFFFFFF AND PUSH20 0xFFFFFFFFFFFFFFFFFFFFFFFFFFFFFFFFFFFFFFFF AND PUSH4 0xE2AB691D DUP10 DUP10 DUP6 PUSH1 0x40 MLOAD DUP5 PUSH4 0xFFFFFFFF AND PUSH1 0xE0 SHL DUP2 MSTORE PUSH1 0x4 ADD PUSH2 0x1530 SWAP4 SWAP3 SWAP2 SWAP1 PUSH2 0x2718 JUMP JUMPDEST PUSH1 0x20 PUSH1 0x40 MLOAD DUP1 DUP4 SUB DUP2 PUSH0 DUP8 GAS CALL ISZERO DUP1 ISZERO PUSH2 0x154C JUMPI RETURNDATASIZE PUSH0 DUP1 RETURNDATACOPY RETURNDATASIZE PUSH0 REVERT JUMPDEST POP POP POP POP PUSH1 0x40 MLOAD RETURNDATASIZE PUSH1 0x1F NOT PUSH1 0x1F DUP3 ADD AND DUP3 ADD DUP1 PUSH1 0x40 MSTORE POP DUP2 ADD SWAP1 PUSH2 0x1570 SWAP2 SWAP1 PUSH2 0x1E5A JUMP JUMPDEST POP PUSH1 0x2 PUSH0 SWAP1 SLOAD SWAP1 PUSH2 0x100 EXP SWAP1 DIV PUSH20 0xFFFFFFFFFFFFFFFFFFFFFFFFFFFFFFFFFFFFFFFF AND PUSH20 0xFFFFFFFFFFFFFFFFFFFFFFFFFFFFFFFFFFFFFFFF AND PUSH4 0xA9059CBB DUP10 DUP10 PUSH1 0x40 MLOAD DUP4 PUSH4 0xFFFFFFFF AND PUSH1 0xE0 SHL DUP2 MSTORE PUSH1 0x4 ADD PUSH2 0x15CD SWAP3 SWAP2 SWAP1 PUSH2 0x1E1F JUMP JUMPDEST PUSH1 0x20 PUSH1 0x40 MLOAD DUP1 DUP4 SUB DUP2 PUSH0 DUP8 GAS CALL ISZERO DUP1 ISZERO PUSH2 0x15E9 JUMPI RETURNDATASIZE PUSH0 DUP1 RETURNDATACOPY RETURNDATASIZE PUSH0 REVERT JUMPDEST POP POP POP POP PUSH1 0x40 MLOAD RETURNDATASIZE PUSH1 0x1F NOT PUSH1 0x1F DUP3 ADD AND DUP3 ADD DUP1 PUSH1 0x40 MSTORE POP DUP2 ADD SWAP1 PUSH2 0x160D SWAP2 SWAP1 PUSH2 0x1E5A JUMP JUMPDEST PUSH2 0x164C JUMPI PUSH1 0x40 MLOAD PUSH32 0x8C379A000000000000000000000000000000000000000000000000000000000 DUP2 MSTORE PUSH1 0x4 ADD PUSH2 0x1643 SWAP1 PUSH2 0x1ECF JUMP JUMPDEST PUSH1 0x40 MLOAD DUP1 SWAP2 SUB SWAP1 REVERT JUMPDEST POP POP POP POP POP POP POP POP POP JUMP JUMPDEST PUSH1 0x8 SLOAD DUP2 JUMP JUMPDEST PUSH1 0x4 SLOAD DUP2 JUMP JUMPDEST PUSH2 0x166B PUSH2 0x16F7 JUMP JUMPDEST PUSH0 PUSH20 0xFFFFFFFFFFFFFFFFFFFFFFFFFFFFFFFFFFFFFFFF AND DUP2 PUSH20 0xFFFFFFFFFFFFFFFFFFFFFFFFFFFFFFFFFFFFFFFF AND SUB PUSH2 0x16DB JUMPI PUSH0 PUSH1 0x40 MLOAD PUSH32 0x1E4FBDF700000000000000000000000000000000000000000000000000000000 DUP2 MSTORE PUSH1 0x4 ADD PUSH2 0x16D2 SWAP2 SWAP1 PUSH2 0x19B4 JUMP JUMPDEST PUSH1 0x40 MLOAD DUP1 SWAP2 SUB SWAP1 REVERT JUMPDEST PUSH2 0x16E4 DUP2 PUSH2 0x177E JUMP JUMPDEST POP JUMP JUMPDEST PUSH0 DUP1 PUSH1 0xA SLOAD PUSH1 0x7 SLOAD SWAP2 POP SWAP2 POP SWAP1 SWAP2 JUMP JUMPDEST PUSH2 0x16FF PUSH2 0x183F JUMP JUMPDEST PUSH20 0xFFFFFFFFFFFFFFFFFFFFFFFFFFFFFFFFFFFFFFFF AND PUSH2 0x171D PUSH2 0xCE9 JUMP JUMPDEST PUSH20 0xFFFFFFFFFFFFFFFFFFFFFFFFFFFFFFFFFFFFFFFF AND EQ PUSH2 0x177C JUMPI PUSH2 0x1740 PUSH2 0x183F JUMP JUMPDEST PUSH1 0x40 MLOAD PUSH32 0x118CDAA700000000000000000000000000000000000000000000000000000000 DUP2 MSTORE PUSH1 0x4 ADD PUSH2 0x1773 SWAP2 SWAP1 PUSH2 0x19B4 JUMP JUMPDEST PUSH1 0x40 MLOAD DUP1 SWAP2 SUB SWAP1 REVERT JUMPDEST JUMP JUMPDEST PUSH0 DUP1 PUSH0 SWAP1 SLOAD SWAP1 PUSH2 0x100 EXP SWAP1 DIV PUSH20 0xFFFFFFFFFFFFFFFFFFFFFFFFFFFFFFFFFFFFFFFF AND SWAP1 POP DUP2 PUSH0 DUP1 PUSH2 0x100 EXP DUP2 SLOAD DUP2 PUSH20 0xFFFFFFFFFFFFFFFFFFFFFFFFFFFFFFFFFFFFFFFF MUL NOT AND SWAP1 DUP4 PUSH20 0xFFFFFFFFFFFFFFFFFFFFFFFFFFFFFFFFFFFFFFFF AND MUL OR SWAP1 SSTORE POP DUP2 PUSH20 0xFFFFFFFFFFFFFFFFFFFFFFFFFFFFFFFFFFFFFFFF AND DUP2 PUSH20 0xFFFFFFFFFFFFFFFFFFFFFFFFFFFFFFFFFFFFFFFF AND PUSH32 0x8BE0079C531659141344CD1FD0A4F28419497F9722A3DAAFE3B4186F6B6457E0 PUSH1 0x40 MLOAD PUSH1 0x40 MLOAD DUP1 SWAP2 SUB SWAP1 LOG3 POP POP JUMP JUMPDEST PUSH0 CALLER SWAP1 POP SWAP1 JUMP JUMPDEST PUSH0 PUSH1 0x40 MLOAD SWAP1 POP SWAP1 JUMP JUMPDEST PUSH0 DUP1 REVERT JUMPDEST PUSH0 DUP1 REVERT JUMPDEST PUSH0 PUSH20 0xFFFFFFFFFFFFFFFFFFFFFFFFFFFFFFFFFFFFFFFF DUP3 AND SWAP1 POP SWAP2 SWAP1 POP JUMP JUMPDEST PUSH0 PUSH2 0x1880 DUP3 PUSH2 0x1857 JUMP JUMPDEST SWAP1 POP SWAP2 SWAP1 POP JUMP JUMPDEST PUSH2 0x1890 DUP2 PUSH2 0x1876 JUMP JUMPDEST DUP2 EQ PUSH2 0x189A JUMPI PUSH0 DUP1 REVERT JUMPDEST POP JUMP JUMPDEST PUSH0 DUP2 CALLDATALOAD SWAP1 POP PUSH2 0x18AB DUP2 PUSH2 0x1887 JUMP JUMPDEST SWAP3 SWAP2 POP POP JUMP JUMPDEST PUSH0 DUP2 SWAP1 POP SWAP2 SWAP1 POP JUMP JUMPDEST PUSH2 0x18C3 DUP2 PUSH2 0x18B1 JUMP JUMPDEST DUP2 EQ PUSH2 0x18CD JUMPI PUSH0 DUP1 REVERT JUMPDEST POP JUMP JUMPDEST PUSH0 DUP2 CALLDATALOAD SWAP1 POP PUSH2 0x18DE DUP2 PUSH2 0x18BA JUMP JUMPDEST SWAP3 SWAP2 POP POP JUMP JUMPDEST PUSH0 DUP1 PUSH1 0x40 DUP4 DUP6 SUB SLT ISZERO PUSH2 0x18FA JUMPI PUSH2 0x18F9 PUSH2 0x184F JUMP JUMPDEST JUMPDEST PUSH0 PUSH2 0x1907 DUP6 DUP3 DUP7 ADD PUSH2 0x189D JUMP JUMPDEST SWAP3 POP POP PUSH1 0x20 PUSH2 0x1918 DUP6 DUP3 DUP7 ADD PUSH2 0x18D0 JUMP JUMPDEST SWAP2 POP POP SWAP3 POP SWAP3 SWAP1 POP JUMP JUMPDEST PUSH0 DUP2 ISZERO ISZERO SWAP1 POP SWAP2 SWAP1 POP JUMP JUMPDEST PUSH2 0x1936 DUP2 PUSH2 0x1922 JUMP JUMPDEST DUP3 MSTORE POP POP JUMP JUMPDEST PUSH0 PUSH1 0x20 DUP3 ADD SWAP1 POP PUSH2 0x194F PUSH0 DUP4 ADD DUP5 PUSH2 0x192D JUMP JUMPDEST SWAP3 SWAP2 POP POP JUMP JUMPDEST PUSH0 DUP1 PUSH0 PUSH1 0x60 DUP5 DUP7 SUB SLT ISZERO PUSH2 0x196C JUMPI PUSH2 0x196B PUSH2 0x184F JUMP JUMPDEST JUMPDEST PUSH0 PUSH2 0x1979 DUP7 DUP3 DUP8 ADD PUSH2 0x18D0 JUMP JUMPDEST SWAP4 POP POP PUSH1 0x20 PUSH2 0x198A DUP7 DUP3 DUP8 ADD PUSH2 0x18D0 JUMP JUMPDEST SWAP3 POP POP PUSH1 0x40 PUSH2 0x199B DUP7 DUP3 DUP8 ADD PUSH2 0x18D0 JUMP JUMPDEST SWAP2 POP POP SWAP3 POP SWAP3 POP SWAP3 JUMP JUMPDEST PUSH2 0x19AE DUP2 PUSH2 0x1876 JUMP JUMPDEST DUP3 MSTORE POP POP JUMP JUMPDEST PUSH0 PUSH1 0x20 DUP3 ADD SWAP1 POP PUSH2 0x19C7 PUSH0 DUP4 ADD DUP5 PUSH2 0x19A5 JUMP JUMPDEST SWAP3 SWAP2 POP POP JUMP JUMPDEST PUSH2 0x19D6 DUP2 PUSH2 0x18B1 JUMP JUMPDEST DUP3 MSTORE POP POP JUMP JUMPDEST PUSH0 PUSH1 0x20 DUP3 ADD SWAP1 POP PUSH2 0x19EF PUSH0 DUP4 ADD DUP5 PUSH2 0x19CD JUMP JUMPDEST SWAP3 SWAP2 POP POP JUMP JUMPDEST PUSH2 0x19FE DUP2 PUSH2 0x1922 JUMP JUMPDEST DUP2 EQ PUSH2 0x1A08 JUMPI PUSH0 DUP1 REVERT JUMPDEST POP JUMP JUMPDEST PUSH0 DUP2 CALLDATALOAD SWAP1 POP PUSH2 0x1A19 DUP2 PUSH2 0x19F5 JUMP JUMPDEST SWAP3 SWAP2 POP POP JUMP JUMPDEST PUSH0 PUSH1 0x20 DUP3 DUP5 SUB SLT ISZERO PUSH2 0x1A34 JUMPI PUSH2 0x1A33 PUSH2 0x184F JUMP JUMPDEST JUMPDEST PUSH0 PUSH2 0x1A41 DUP5 DUP3 DUP6 ADD PUSH2 0x1A0B JUMP JUMPDEST SWAP2 POP POP SWAP3 SWAP2 POP POP JUMP JUMPDEST PUSH0 PUSH1 0x20 DUP3 DUP5 SUB SLT ISZERO PUSH2 0x1A5F JUMPI PUSH2 0x1A5E PUSH2 0x184F JUMP JUMPDEST JUMPDEST PUSH0 PUSH2 0x1A6C DUP5 DUP3 DUP6 ADD PUSH2 0x18D0 JUMP JUMPDEST SWAP2 POP POP SWAP3 SWAP2 POP POP JUMP JUMPDEST PUSH0 PUSH1 0x80 DUP3 ADD SWAP1 POP PUSH2 0x1A88 PUSH0 DUP4 ADD DUP8 PUSH2 0x19CD JUMP JUMPDEST PUSH2 0x1A95 PUSH1 0x20 DUP4 ADD DUP7 PUSH2 0x19CD JUMP JUMPDEST PUSH2 0x1AA2 PUSH1 0x40 DUP4 ADD DUP6 PUSH2 0x19CD JUMP JUMPDEST PUSH2 0x1AAF PUSH1 0x60 DUP4 ADD DUP5 PUSH2 0x19CD JUMP JUMPDEST SWAP6 SWAP5 POP POP POP POP POP JUMP JUMPDEST PUSH0 PUSH1 0x20 DUP3 DUP5 SUB SLT ISZERO PUSH2 0x1ACD JUMPI PUSH2 0x1ACC PUSH2 0x184F JUMP JUMPDEST JUMPDEST PUSH0 PUSH2 0x1ADA DUP5 DUP3 DUP6 ADD PUSH2 0x189D JUMP JUMPDEST SWAP2 POP POP SWAP3 SWAP2 POP POP JUMP JUMPDEST PUSH0 PUSH1 0x40 DUP3 ADD SWAP1 POP PUSH2 0x1AF6 PUSH0 DUP4 ADD DUP6 PUSH2 0x19CD JUMP JUMPDEST PUSH2 0x1B03 PUSH1 0x20 DUP4 ADD DUP5 PUSH2 0x19CD JUMP JUMPDEST SWAP4 SWAP3 POP POP POP JUMP JUMPDEST PUSH0 PUSH1 0x60 DUP3 ADD SWAP1 POP PUSH2 0x1B1D PUSH0 DUP4 ADD DUP7 PUSH2 0x19CD JUMP JUMPDEST PUSH2 0x1B2A PUSH1 0x20 DUP4 ADD DUP6 PUSH2 0x19CD JUMP JUMPDEST PUSH2 0x1B37 PUSH1 0x40 DUP4 ADD DUP5 PUSH2 0x19CD JUMP JUMPDEST SWAP5 SWAP4 POP POP POP POP JUMP JUMPDEST PUSH0 DUP2 SWAP1 POP SWAP2 SWAP1 POP JUMP JUMPDEST PUSH0 PUSH2 0x1B62 PUSH2 0x1B5D PUSH2 0x1B58 DUP5 PUSH2 0x1857 JUMP JUMPDEST PUSH2 0x1B3F JUMP JUMPDEST PUSH2 0x1857 JUMP JUMPDEST SWAP1 POP SWAP2 SWAP1 POP JUMP JUMPDEST PUSH0 PUSH2 0x1B73 DUP3 PUSH2 0x1B48 JUMP JUMPDEST SWAP1 POP SWAP2 SWAP1 POP JUMP JUMPDEST PUSH0 PUSH2 0x1B84 DUP3 PUSH2 0x1B69 JUMP JUMPDEST SWAP1 POP SWAP2 SWAP1 POP JUMP JUMPDEST PUSH2 0x1B94 DUP2 PUSH2 0x1B7A JUMP JUMPDEST DUP3 MSTORE POP POP JUMP JUMPDEST PUSH0 PUSH1 0x20 DUP3 ADD SWAP1 POP PUSH2 0x1BAD PUSH0 DUP4 ADD DUP5 PUSH2 0x1B8B JUMP JUMPDEST SWAP3 SWAP2 POP POP JUMP JUMPDEST PUSH0 PUSH2 0x1BBD DUP3 PUSH2 0x1B69 JUMP JUMPDEST SWAP1 POP SWAP2 SWAP1 POP JUMP JUMPDEST PUSH2 0x1BCD DUP2 PUSH2 0x1BB3 JUMP JUMPDEST DUP3 MSTORE POP POP JUMP JUMPDEST PUSH0 PUSH1 0x20 DUP3 ADD SWAP1 POP PUSH2 0x1BE6 PUSH0 DUP4 ADD DUP5 PUSH2 0x1BC4 JUMP JUMPDEST SWAP3 SWAP2 POP POP JUMP JUMPDEST PUSH0 PUSH2 0x1BF6 DUP3 PUSH2 0x1876 JUMP JUMPDEST SWAP1 POP SWAP2 SWAP1 POP JUMP JUMPDEST PUSH2 0x1C06 DUP2 PUSH2 0x1BEC JUMP JUMPDEST DUP2 EQ PUSH2 0x1C10 JUMPI PUSH0 DUP1 REVERT JUMPDEST POP JUMP JUMPDEST PUSH0 DUP2 CALLDATALOAD SWAP1 POP PUSH2 0x1C21 DUP2 PUSH2 0x1BFD JUMP JUMPDEST SWAP3 SWAP2 POP POP JUMP JUMPDEST PUSH0 DUP1 PUSH0 PUSH1 0x60 DUP5 DUP7 SUB SLT ISZERO PUSH2 0x1C3E JUMPI PUSH2 0x1C3D PUSH2 0x184F JUMP JUMPDEST JUMPDEST PUSH0 PUSH2 0x1C4B DUP7 DUP3 DUP8 ADD PUSH2 0x1C13 JUMP JUMPDEST SWAP4 POP POP PUSH1 0x20 PUSH2 0x1C5C DUP7 DUP3 DUP8 ADD PUSH2 0x189D JUMP JUMPDEST SWAP3 POP POP PUSH1 0x40 PUSH2 0x1C6D DUP7 DUP3 DUP8 ADD PUSH2 0x18D0 JUMP JUMPDEST SWAP2 POP POP SWAP3 POP SWAP3 POP SWAP3 JUMP JUMPDEST PUSH0 DUP3 DUP3 MSTORE PUSH1 0x20 DUP3 ADD SWAP1 POP SWAP3 SWAP2 POP POP JUMP JUMPDEST PUSH32 0x41756374696F6E206973207374696C6C20616374697665000000000000000000 PUSH0 DUP3 ADD MSTORE POP JUMP JUMPDEST PUSH0 PUSH2 0x1CBB PUSH1 0x17 DUP4 PUSH2 0x1C77 JUMP JUMPDEST SWAP2 POP PUSH2 0x1CC6 DUP3 PUSH2 0x1C87 JUMP JUMPDEST PUSH1 0x20 DUP3 ADD SWAP1 POP SWAP2 SWAP1 POP JUMP JUMPDEST PUSH0 PUSH1 0x20 DUP3 ADD SWAP1 POP DUP2 DUP2 SUB PUSH0 DUP4 ADD MSTORE PUSH2 0x1CE8 DUP2 PUSH2 0x1CAF JUMP JUMPDEST SWAP1 POP SWAP2 SWAP1 POP JUMP JUMPDEST PUSH32 0x41756374696F6E206461797320617265206E6F7420636F6D706C657465000000 PUSH0 DUP3 ADD MSTORE POP JUMP JUMPDEST PUSH0 PUSH2 0x1D23 PUSH1 0x1D DUP4 PUSH2 0x1C77 JUMP JUMPDEST SWAP2 POP PUSH2 0x1D2E DUP3 PUSH2 0x1CEF JUMP JUMPDEST PUSH1 0x20 DUP3 ADD SWAP1 POP SWAP2 SWAP1 POP JUMP JUMPDEST PUSH0 PUSH1 0x20 DUP3 ADD SWAP1 POP DUP2 DUP2 SUB PUSH0 DUP4 ADD MSTORE PUSH2 0x1D50 DUP2 PUSH2 0x1D17 JUMP JUMPDEST SWAP1 POP SWAP2 SWAP1 POP JUMP JUMPDEST PUSH32 0x496E636F72726563742076616C75650000000000000000000000000000000000 PUSH0 DUP3 ADD MSTORE POP JUMP JUMPDEST PUSH0 PUSH2 0x1D8B PUSH1 0xF DUP4 PUSH2 0x1C77 JUMP JUMPDEST SWAP2 POP PUSH2 0x1D96 DUP3 PUSH2 0x1D57 JUMP JUMPDEST PUSH1 0x20 DUP3 ADD SWAP1 POP SWAP2 SWAP1 POP JUMP JUMPDEST PUSH0 PUSH1 0x20 DUP3 ADD SWAP1 POP DUP2 DUP2 SUB PUSH0 DUP4 ADD MSTORE PUSH2 0x1DB8 DUP2 PUSH2 0x1D7F JUMP JUMPDEST SWAP1 POP SWAP2 SWAP1 POP JUMP JUMPDEST PUSH32 0x4E487B7100000000000000000000000000000000000000000000000000000000 PUSH0 MSTORE PUSH1 0x11 PUSH1 0x4 MSTORE PUSH1 0x24 PUSH0 REVERT JUMPDEST PUSH0 PUSH2 0x1DF6 DUP3 PUSH2 0x18B1 JUMP JUMPDEST SWAP2 POP PUSH2 0x1E01 DUP4 PUSH2 0x18B1 JUMP JUMPDEST SWAP3 POP DUP3 DUP3 SUB SWAP1 POP DUP2 DUP2 GT ISZERO PUSH2 0x1E19 JUMPI PUSH2 0x1E18 PUSH2 0x1DBF JUMP JUMPDEST JUMPDEST SWAP3 SWAP2 POP POP JUMP JUMPDEST PUSH0 PUSH1 0x40 DUP3 ADD SWAP1 POP PUSH2 0x1E32 PUSH0 DUP4 ADD DUP6 PUSH2 0x19A5 JUMP JUMPDEST PUSH2 0x1E3F PUSH1 0x20 DUP4 ADD DUP5 PUSH2 0x19CD JUMP JUMPDEST SWAP4 SWAP3 POP POP POP JUMP JUMPDEST PUSH0 DUP2 MLOAD SWAP1 POP PUSH2 0x1E54 DUP2 PUSH2 0x19F5 JUMP JUMPDEST SWAP3 SWAP2 POP POP JUMP JUMPDEST PUSH0 PUSH1 0x20 DUP3 DUP5 SUB SLT ISZERO PUSH2 0x1E6F JUMPI PUSH2 0x1E6E PUSH2 0x184F JUMP JUMPDEST JUMPDEST PUSH0 PUSH2 0x1E7C DUP5 DUP3 DUP6 ADD PUSH2 0x1E46 JUMP JUMPDEST SWAP2 POP POP SWAP3 SWAP2 POP POP JUMP JUMPDEST PUSH32 0x50726F746F6E20746F6B656E207472616E73666572206661696C656400000000 PUSH0 DUP3 ADD MSTORE POP JUMP JUMPDEST PUSH0 PUSH2 0x1EB9 PUSH1 0x1C DUP4 PUSH2 0x1C77 JUMP JUMPDEST SWAP2 POP PUSH2 0x1EC4 DUP3 PUSH2 0x1E85 JUMP JUMPDEST PUSH1 0x20 DUP3 ADD SWAP1 POP SWAP2 SWAP1 POP JUMP JUMPDEST PUSH0 PUSH1 0x20 DUP3 ADD SWAP1 POP DUP2 DUP2 SUB PUSH0 DUP4 ADD MSTORE PUSH2 0x1EE6 DUP2 PUSH2 0x1EAD JUMP JUMPDEST SWAP1 POP SWAP2 SWAP1 POP JUMP JUMPDEST PUSH32 0x4552524F523A204441592076616C756500000000000000000000000000000000 PUSH0 DUP3 ADD MSTORE POP JUMP JUMPDEST PUSH0 PUSH2 0x1F21 PUSH1 0x10 DUP4 PUSH2 0x1C77 JUMP JUMPDEST SWAP2 POP PUSH2 0x1F2C DUP3 PUSH2 0x1EED JUMP JUMPDEST PUSH1 0x20 DUP3 ADD SWAP1 POP SWAP2 SWAP1 POP JUMP JUMPDEST PUSH0 PUSH1 0x20 DUP3 ADD SWAP1 POP DUP2 DUP2 SUB PUSH0 DUP4 ADD MSTORE PUSH2 0x1F4E DUP2 PUSH2 0x1F15 JUMP JUMPDEST SWAP1 POP SWAP2 SWAP1 POP JUMP JUMPDEST PUSH32 0x4E487B7100000000000000000000000000000000000000000000000000000000 PUSH0 MSTORE PUSH1 0x12 PUSH1 0x4 MSTORE PUSH1 0x24 PUSH0 REVERT JUMPDEST PUSH0 PUSH2 0x1F8C DUP3 PUSH2 0x18B1 JUMP JUMPDEST SWAP2 POP PUSH2 0x1F97 DUP4 PUSH2 0x18B1 JUMP JUMPDEST SWAP3 POP DUP3 PUSH2 0x1FA7 JUMPI PUSH2 0x1FA6 PUSH2 0x1F55 JUMP JUMPDEST JUMPDEST DUP3 DUP3 DIV SWAP1 POP SWAP3 SWAP2 POP POP JUMP JUMPDEST PUSH0 PUSH2 0x1FBC DUP3 PUSH2 0x18B1 JUMP JUMPDEST SWAP2 POP PUSH2 0x1FC7 DUP4 PUSH2 0x18B1 JUMP JUMPDEST SWAP3 POP DUP3 DUP3 ADD SWAP1 POP DUP1 DUP3 GT ISZERO PUSH2 0x1FDF JUMPI PUSH2 0x1FDE PUSH2 0x1DBF JUMP JUMPDEST JUMPDEST SWAP3 SWAP2 POP POP JUMP JUMPDEST PUSH32 0x41756374696F6E20616C72656164792073746172746564000000000000000000 PUSH0 DUP3 ADD MSTORE POP JUMP JUMPDEST PUSH0 PUSH2 0x2019 PUSH1 0x17 DUP4 PUSH2 0x1C77 JUMP JUMPDEST SWAP2 POP PUSH2 0x2024 DUP3 PUSH2 0x1FE5 JUMP JUMPDEST PUSH1 0x20 DUP3 ADD SWAP1 POP SWAP2 SWAP1 POP JUMP JUMPDEST PUSH0 PUSH1 0x20 DUP3 ADD SWAP1 POP DUP2 DUP2 SUB PUSH0 DUP4 ADD MSTORE PUSH2 0x2046 DUP2 PUSH2 0x200D JUMP JUMPDEST SWAP1 POP SWAP2 SWAP1 POP JUMP JUMPDEST PUSH0 PUSH2 0x2057 DUP3 PUSH2 0x18B1 JUMP JUMPDEST SWAP2 POP PUSH32 0xFFFFFFFFFFFFFFFFFFFFFFFFFFFFFFFFFFFFFFFFFFFFFFFFFFFFFFFFFFFFFFFF DUP3 SUB PUSH2 0x2089 JUMPI PUSH2 0x2088 PUSH2 0x1DBF JUMP JUMPDEST JUMPDEST PUSH1 0x1 DUP3 ADD SWAP1 POP SWAP2 SWAP1 POP JUMP JUMPDEST PUSH0 PUSH2 0x209E DUP3 PUSH2 0x18B1 JUMP JUMPDEST SWAP2 POP PUSH2 0x20A9 DUP4 PUSH2 0x18B1 JUMP JUMPDEST SWAP3 POP DUP3 DUP3 MUL PUSH2 0x20B7 DUP2 PUSH2 0x18B1 JUMP JUMPDEST SWAP2 POP DUP3 DUP3 DIV DUP5 EQ DUP4 ISZERO OR PUSH2 0x20CE JUMPI PUSH2 0x20CD PUSH2 0x1DBF JUMP JUMPDEST JUMPDEST POP SWAP3 SWAP2 POP POP JUMP JUMPDEST PUSH32 0x41756374696F6E20697320706175736564000000000000000000000000000000 PUSH0 DUP3 ADD MSTORE POP JUMP JUMPDEST PUSH0 PUSH2 0x2109 PUSH1 0x11 DUP4 PUSH2 0x1C77 JUMP JUMPDEST SWAP2 POP PUSH2 0x2114 DUP3 PUSH2 0x20D5 JUMP JUMPDEST PUSH1 0x20 DUP3 ADD SWAP1 POP SWAP2 SWAP1 POP JUMP JUMPDEST PUSH0 PUSH1 0x20 DUP3 ADD SWAP1 POP DUP2 DUP2 SUB PUSH0 DUP4 ADD MSTORE PUSH2 0x2136 DUP2 PUSH2 0x20FD JUMP JUMPDEST SWAP1 POP SWAP2 SWAP1 POP JUMP JUMPDEST PUSH32 0x43757272656E7420726F756E642068617320656E646564000000000000000000 PUSH0 DUP3 ADD MSTORE POP JUMP JUMPDEST PUSH0 PUSH2 0x2171 PUSH1 0x17 DUP4 PUSH2 0x1C77 JUMP JUMPDEST SWAP2 POP PUSH2 0x217C DUP3 PUSH2 0x213D JUMP JUMPDEST PUSH1 0x20 DUP3 ADD SWAP1 POP SWAP2 SWAP1 POP JUMP JUMPDEST PUSH0 PUSH1 0x20 DUP3 ADD SWAP1 POP DUP2 DUP2 SUB PUSH0 DUP4 ADD MSTORE PUSH2 0x219E DUP2 PUSH2 0x2165 JUMP JUMPDEST SWAP1 POP SWAP2 SWAP1 POP JUMP JUMPDEST PUSH32 0x41756374696F6E20646179732061726520636F6D706C65746500000000000000 PUSH0 DUP3 ADD MSTORE POP JUMP JUMPDEST PUSH0 PUSH2 0x21D9 PUSH1 0x19 DUP4 PUSH2 0x1C77 JUMP JUMPDEST SWAP2 POP PUSH2 0x21E4 DUP3 PUSH2 0x21A5 JUMP JUMPDEST PUSH1 0x20 DUP3 ADD SWAP1 POP SWAP2 SWAP1 POP JUMP JUMPDEST PUSH0 PUSH1 0x20 DUP3 ADD SWAP1 POP DUP2 DUP2 SUB PUSH0 DUP4 ADD MSTORE PUSH2 0x2206 DUP2 PUSH2 0x21CD JUMP JUMPDEST SWAP1 POP SWAP2 SWAP1 POP JUMP JUMPDEST PUSH32 0x41756374696F6E20726F756E642068617320656E646564000000000000000000 PUSH0 DUP3 ADD MSTORE POP JUMP JUMPDEST PUSH0 PUSH2 0x2241 PUSH1 0x17 DUP4 PUSH2 0x1C77 JUMP JUMPDEST SWAP2 POP PUSH2 0x224C DUP3 PUSH2 0x220D JUMP JUMPDEST PUSH1 0x20 DUP3 ADD SWAP1 POP SWAP2 SWAP1 POP JUMP JUMPDEST PUSH0 PUSH1 0x20 DUP3 ADD SWAP1 POP DUP2 DUP2 SUB PUSH0 DUP4 ADD MSTORE PUSH2 0x226E DUP2 PUSH2 0x2235 JUMP JUMPDEST SWAP1 POP SWAP2 SWAP1 POP JUMP JUMPDEST PUSH0 DUP2 MLOAD SWAP1 POP PUSH2 0x2283 DUP2 PUSH2 0x18BA JUMP JUMPDEST SWAP3 SWAP2 POP POP JUMP JUMPDEST PUSH0 PUSH1 0x20 DUP3 DUP5 SUB SLT ISZERO PUSH2 0x229E JUMPI PUSH2 0x229D PUSH2 0x184F JUMP JUMPDEST JUMPDEST PUSH0 PUSH2 0x22AB DUP5 DUP3 DUP6 ADD PUSH2 0x2275 JUMP JUMPDEST SWAP2 POP POP SWAP3 SWAP2 POP POP JUMP JUMPDEST PUSH32 0x41756374696F6E20506175736564000000000000000000000000000000000000 PUSH0 DUP3 ADD MSTORE POP JUMP JUMPDEST PUSH0 PUSH2 0x22E8 PUSH1 0xE DUP4 PUSH2 0x1C77 JUMP JUMPDEST SWAP2 POP PUSH2 0x22F3 DUP3 PUSH2 0x22B4 JUMP JUMPDEST PUSH1 0x20 DUP3 ADD SWAP1 POP SWAP2 SWAP1 POP JUMP JUMPDEST PUSH0 PUSH1 0x20 DUP3 ADD SWAP1 POP DUP2 DUP2 SUB PUSH0 DUP4 ADD MSTORE PUSH2 0x2315 DUP2 PUSH2 0x22DC JUMP JUMPDEST SWAP1 POP SWAP2 SWAP1 POP JUMP JUMPDEST PUSH32 0x4E6F74206D6F7265207468616E206C696D697400000000000000000000000000 PUSH0 DUP3 ADD MSTORE POP JUMP JUMPDEST PUSH0 PUSH2 0x2350 PUSH1 0x13 DUP4 PUSH2 0x1C77 JUMP JUMPDEST SWAP2 POP PUSH2 0x235B DUP3 PUSH2 0x231C JUMP JUMPDEST PUSH1 0x20 DUP3 ADD SWAP1 POP SWAP2 SWAP1 POP JUMP JUMPDEST PUSH0 PUSH1 0x20 DUP3 ADD SWAP1 POP DUP2 DUP2 SUB PUSH0 DUP4 ADD MSTORE PUSH2 0x237D DUP2 PUSH2 0x2344 JUMP JUMPDEST SWAP1 POP SWAP2 SWAP1 POP JUMP JUMPDEST PUSH0 PUSH1 0x60 DUP3 ADD SWAP1 POP PUSH2 0x2397 PUSH0 DUP4 ADD DUP7 PUSH2 0x19A5 JUMP JUMPDEST PUSH2 0x23A4 PUSH1 0x20 DUP4 ADD DUP6 PUSH2 0x19A5 JUMP JUMPDEST PUSH2 0x23B1 PUSH1 0x40 DUP4 ADD DUP5 PUSH2 0x19CD JUMP JUMPDEST SWAP5 SWAP4 POP POP POP POP JUMP JUMPDEST PUSH32 0x55534454207472616E73666572206661696C6564000000000000000000000000 PUSH0 DUP3 ADD MSTORE POP JUMP JUMPDEST PUSH0 PUSH2 0x23ED PUSH1 0x14 DUP4 PUSH2 0x1C77 JUMP JUMPDEST SWAP2 POP PUSH2 0x23F8 DUP3 PUSH2 0x23B9 JUMP JUMPDEST PUSH1 0x20 DUP3 ADD SWAP1 POP SWAP2 SWAP1 POP JUMP JUMPDEST PUSH0 PUSH1 0x20 DUP3 ADD SWAP1 POP DUP2 DUP2 SUB PUSH0 DUP4 ADD MSTORE PUSH2 0x241A DUP2 PUSH2 0x23E1 JUMP JUMPDEST SWAP1 POP SWAP2 SWAP1 POP JUMP JUMPDEST PUSH0 DUP1 REVERT JUMPDEST PUSH0 DUP1 REVERT JUMPDEST PUSH0 PUSH1 0x1F NOT PUSH1 0x1F DUP4 ADD AND SWAP1 POP SWAP2 SWAP1 POP JUMP JUMPDEST PUSH32 0x4E487B7100000000000000000000000000000000000000000000000000000000 PUSH0 MSTORE PUSH1 0x41 PUSH1 0x4 MSTORE PUSH1 0x24 PUSH0 REVERT JUMPDEST PUSH2 0x246F DUP3 PUSH2 0x2429 JUMP JUMPDEST DUP2 ADD DUP2 DUP2 LT PUSH8 0xFFFFFFFFFFFFFFFF DUP3 GT OR ISZERO PUSH2 0x248E JUMPI PUSH2 0x248D PUSH2 0x2439 JUMP JUMPDEST JUMPDEST DUP1 PUSH1 0x40 MSTORE POP POP POP JUMP JUMPDEST PUSH0 PUSH2 0x24A0 PUSH2 0x1846 JUMP JUMPDEST SWAP1 POP PUSH2 0x24AC DUP3 DUP3 PUSH2 0x2466 JUMP JUMPDEST SWAP2 SWAP1 POP JUMP JUMPDEST PUSH0 PUSH8 0xFFFFFFFFFFFFFFFF DUP3 GT ISZERO PUSH2 0x24CB JUMPI PUSH2 0x24CA PUSH2 0x2439 JUMP JUMPDEST JUMPDEST PUSH2 0x24D4 DUP3 PUSH2 0x2429 JUMP JUMPDEST SWAP1 POP PUSH1 0x20 DUP2 ADD SWAP1 POP SWAP2 SWAP1 POP JUMP JUMPDEST DUP3 DUP2 DUP4 MCOPY PUSH0 DUP4 DUP4 ADD MSTORE POP POP POP JUMP JUMPDEST PUSH0 PUSH2 0x2501 PUSH2 0x24FC DUP5 PUSH2 0x24B1 JUMP JUMPDEST PUSH2 0x2497 JUMP JUMPDEST SWAP1 POP DUP3 DUP2 MSTORE PUSH1 0x20 DUP2 ADD DUP5 DUP5 DUP5 ADD GT ISZERO PUSH2 0x251D JUMPI PUSH2 0x251C PUSH2 0x2425 JUMP JUMPDEST JUMPDEST PUSH2 0x2528 DUP5 DUP3 DUP6 PUSH2 0x24E1 JUMP JUMPDEST POP SWAP4 SWAP3 POP POP POP JUMP JUMPDEST PUSH0 DUP3 PUSH1 0x1F DUP4 ADD SLT PUSH2 0x2544 JUMPI PUSH2 0x2543 PUSH2 0x2421 JUMP JUMPDEST JUMPDEST DUP2 MLOAD PUSH2 0x2554 DUP5 DUP3 PUSH1 0x20 DUP7 ADD PUSH2 0x24EF JUMP JUMPDEST SWAP2 POP POP SWAP3 SWAP2 POP POP JUMP JUMPDEST PUSH0 PUSH1 0x20 DUP3 DUP5 SUB SLT ISZERO PUSH2 0x2572 JUMPI PUSH2 0x2571 PUSH2 0x184F JUMP JUMPDEST JUMPDEST PUSH0 DUP3 ADD MLOAD PUSH8 0xFFFFFFFFFFFFFFFF DUP2 GT ISZERO PUSH2 0x258F JUMPI PUSH2 0x258E PUSH2 0x1853 JUMP JUMPDEST JUMPDEST PUSH2 0x259B DUP5 DUP3 DUP6 ADD PUSH2 0x2530 JUMP JUMPDEST SWAP2 POP POP SWAP3 SWAP2 POP POP JUMP JUMPDEST PUSH0 DUP2 SWAP1 POP SWAP3 SWAP2 POP POP JUMP JUMPDEST PUSH32 0x4163637265646974656400000000000000000000000000000000000000000000 PUSH0 DUP3 ADD MSTORE POP JUMP JUMPDEST PUSH0 PUSH2 0x25E2 PUSH1 0xA DUP4 PUSH2 0x25A4 JUMP JUMPDEST SWAP2 POP PUSH2 0x25ED DUP3 PUSH2 0x25AE JUMP JUMPDEST PUSH1 0xA DUP3 ADD SWAP1 POP SWAP2 SWAP1 POP JUMP JUMPDEST PUSH0 PUSH2 0x2602 DUP3 PUSH2 0x25D6 JUMP JUMPDEST SWAP2 POP DUP2 SWAP1 POP SWAP2 SWAP1 POP JUMP JUMPDEST PUSH0 DUP2 MLOAD SWAP1 POP SWAP2 SWAP1 POP JUMP JUMPDEST PUSH0 PUSH2 0x2620 DUP3 PUSH2 0x260C JUMP JUMPDEST PUSH2 0x262A DUP2 DUP6 PUSH2 0x25A4 JUMP JUMPDEST SWAP4 POP PUSH2 0x263A DUP2 DUP6 PUSH1 0x20 DUP7 ADD PUSH2 0x24E1 JUMP JUMPDEST DUP1 DUP5 ADD SWAP2 POP POP SWAP3 SWAP2 POP POP JUMP JUMPDEST PUSH0 PUSH2 0x2651 DUP3 DUP5 PUSH2 0x2616 JUMP JUMPDEST SWAP2 POP DUP2 SWAP1 POP SWAP3 SWAP2 POP POP JUMP JUMPDEST PUSH32 0x4E6F6E5553000000000000000000000000000000000000000000000000000000 PUSH0 DUP3 ADD MSTORE POP JUMP JUMPDEST PUSH0 PUSH2 0x2690 PUSH1 0x5 DUP4 PUSH2 0x25A4 JUMP JUMPDEST SWAP2 POP PUSH2 0x269B DUP3 PUSH2 0x265C JUMP JUMPDEST PUSH1 0x5 DUP3 ADD SWAP1 POP SWAP2 SWAP1 POP JUMP JUMPDEST PUSH0 PUSH2 0x26B0 DUP3 PUSH2 0x2684 JUMP JUMPDEST SWAP2 POP DUP2 SWAP1 POP SWAP2 SWAP1 POP JUMP JUMPDEST PUSH32 0x496E737469747574696F6E616C00000000000000000000000000000000000000 PUSH0 DUP3 ADD MSTORE POP JUMP JUMPDEST PUSH0 PUSH2 0x26EE PUSH1 0xD DUP4 PUSH2 0x25A4 JUMP JUMPDEST SWAP2 POP PUSH2 0x26F9 DUP3 PUSH2 0x26BA JUMP JUMPDEST PUSH1 0xD DUP3 ADD SWAP1 POP SWAP2 SWAP1 POP JUMP JUMPDEST PUSH0 PUSH2 0x270E DUP3 PUSH2 0x26E2 JUMP JUMPDEST SWAP2 POP DUP2 SWAP1 POP SWAP2 SWAP1 POP JUMP JUMPDEST PUSH0 PUSH1 0x60 DUP3 ADD SWAP1 POP PUSH2 0x272B PUSH0 DUP4 ADD DUP7 PUSH2 0x19A5 JUMP JUMPDEST PUSH2 0x2738 PUSH1 0x20 DUP4 ADD DUP6 PUSH2 0x19CD JUMP JUMPDEST PUSH2 0x2745 PUSH1 0x40 DUP4 ADD DUP5 PUSH2 0x19CD JUMP JUMPDEST SWAP5 SWAP4 POP POP POP POP JUMP INVALID LOG2 PUSH5 0x6970667358 0x22 SLT KECCAK256 0xEF ADDRESS PUSH9 0x3296452A1CA42564D2 0xCA PUSH19 0x364D4046DDAFD963BBC19B13B865ECFDB74264 PUSH20 0x6F6C634300081900330000000000000000000000 "
		},
		"gasEstimates": {
			"creation": {
				"codeDepositCost": "2023000",
				"executionCost": "infinite",
				"totalCost": "infinite"
			},
			"external": {
				"AuctionTime()": "infinite",
				"PROTON()": "infinite",
				"USDT()": "infinite",
				"auctionStatus(bool)": "infinite",
				"buyTokens(address,address,uint256)": "infinite",
				"calculateTokenAmount(uint256)": "infinite",
				"claimReward(address,uint256)": "infinite",
				"currentRoundEnd()": "2470",
				"currentRoundStart()": "2471",
				"dailyAuctions(uint256)": "infinite",
				"dailySupply()": "2491",
				"fundsWallet()": "2650",
				"getCurrentDay()": "infinite",
				"getDailyAuction(uint256)": "infinite",
				"isPaused()": "2555",
				"lockingDay()": "2470",
				"maxOversubscription()": "2536",
				"maxOversubscriptionlimit()": "2493",
				"owner()": "2583",
				"renounceOwnership()": "infinite",
				"resetAuction()": "infinite",
				"setDailyDetails(uint256,uint256,uint256)": "infinite",
				"setFundsWallet(address)": "infinite",
				"setPrice(uint256)": "infinite",
				"startAuction()": "infinite",
				"tokenPrice()": "2471",
				"totalSell()": "2469",
				"transferOwnership(address)": "infinite",
				"userDetail(address)": "infinite"
			},
			"internal": {
				"remainingToken()": "infinite"
			}
		},
		"methodIdentifiers": {
			"AuctionTime()": "fa6770b3",
			"PROTON()": "d358aa20",
			"USDT()": "c54e44eb",
			"auctionStatus(bool)": "30db6f95",
			"buyTokens(address,address,uint256)": "dcefa538",
			"calculateTokenAmount(uint256)": "a24bcf46",
			"claimReward(address,uint256)": "174e31c4",
			"currentRoundEnd()": "9f7f9da2",
			"currentRoundStart()": "222d7e34",
			"dailyAuctions(uint256)": "3c830a38",
			"dailySupply()": "e8b611d6",
			"fundsWallet()": "2194f3a2",
			"getCurrentDay()": "3e6968b6",
			"getDailyAuction(uint256)": "62e00dd5",
			"isPaused()": "b187bd26",
			"lockingDay()": "bf4dd131",
			"maxOversubscription()": "bb4d5e7c",
			"maxOversubscriptionlimit()": "224a8057",
			"owner()": "8da5cb5b",
			"renounceOwnership()": "715018a6",
			"resetAuction()": "7d350453",
			"setDailyDetails(uint256,uint256,uint256)": "18d7fa46",
			"setFundsWallet(address)": "64e39b87",
			"setPrice(uint256)": "91b7f5ed",
			"startAuction()": "6b64c769",
			"tokenPrice()": "7ff9b596",
			"totalSell()": "e0202f87",
			"transferOwnership(address)": "f2fde38b",
			"userDetail(address)": "5b10493f"
		}
	},
	"abi": [
		{
			"inputs": [
				{
					"internalType": "address",
					"name": "_protonAddress",
					"type": "address"
				},
				{
					"internalType": "address",
					"name": "_fundsWalletAdd",
					"type": "address"
				}
			],
			"stateMutability": "nonpayable",
			"type": "constructor"
		},
		{
			"inputs": [
				{
					"internalType": "address",
					"name": "owner",
					"type": "address"
				}
			],
			"name": "OwnableInvalidOwner",
			"type": "error"
		},
		{
			"inputs": [
				{
					"internalType": "address",
					"name": "account",
					"type": "address"
				}
			],
			"name": "OwnableUnauthorizedAccount",
			"type": "error"
		},
		{
			"anonymous": false,
			"inputs": [
				{
					"indexed": true,
					"internalType": "address",
					"name": "previousOwner",
					"type": "address"
				},
				{
					"indexed": true,
					"internalType": "address",
					"name": "newOwner",
					"type": "address"
				}
			],
			"name": "OwnershipTransferred",
			"type": "event"
		},
		{
			"anonymous": false,
			"inputs": [
				{
					"indexed": true,
					"internalType": "address",
					"name": "buyer",
					"type": "address"
				},
				{
					"indexed": false,
					"internalType": "uint256",
					"name": "usdtAmount",
					"type": "uint256"
				},
				{
					"indexed": false,
					"internalType": "uint256",
					"name": "amount",
					"type": "uint256"
				},
				{
					"indexed": false,
					"internalType": "uint256",
					"name": "lockTime",
					"type": "uint256"
				}
			],
			"name": "TokensPurchased",
			"type": "event"
		},
		{
			"inputs": [],
			"name": "AuctionTime",
			"outputs": [
				{
					"internalType": "uint256",
					"name": "",
					"type": "uint256"
				},
				{
					"internalType": "uint256",
					"name": "",
					"type": "uint256"
				}
			],
			"stateMutability": "view",
			"type": "function"
		},
		{
			"inputs": [],
			"name": "PROTON",
			"outputs": [
				{
					"internalType": "contract IProton",
					"name": "",
					"type": "address"
				}
			],
			"stateMutability": "view",
			"type": "function"
		},
		{
			"inputs": [],
			"name": "USDT",
			"outputs": [
				{
					"internalType": "contract IERC20",
					"name": "",
					"type": "address"
				}
			],
			"stateMutability": "view",
			"type": "function"
		},
		{
			"inputs": [
				{
					"internalType": "bool",
					"name": "status",
					"type": "bool"
				}
			],
			"name": "auctionStatus",
			"outputs": [],
			"stateMutability": "nonpayable",
			"type": "function"
		},
		{
			"inputs": [
				{
					"internalType": "contract IERC20",
					"name": "contractAddress",
					"type": "address"
				},
				{
					"internalType": "address",
					"name": "userAddress",
					"type": "address"
				},
				{
					"internalType": "uint256",
					"name": "_amount",
					"type": "uint256"
				}
			],
			"name": "buyTokens",
			"outputs": [],
			"stateMutability": "nonpayable",
			"type": "function"
		},
		{
			"inputs": [
				{
					"internalType": "uint256",
					"name": "_usdtAmount",
					"type": "uint256"
				}
			],
			"name": "calculateTokenAmount",
			"outputs": [
				{
					"internalType": "uint256",
					"name": "",
					"type": "uint256"
				}
			],
			"stateMutability": "view",
			"type": "function"
		},
		{
			"inputs": [
				{
					"internalType": "address",
					"name": "user",
					"type": "address"
				},
				{
					"internalType": "uint256",
					"name": "_usdtAmount",
					"type": "uint256"
				}
			],
			"name": "claimReward",
			"outputs": [
				{
					"internalType": "bool",
					"name": "",
					"type": "bool"
				}
			],
			"stateMutability": "nonpayable",
			"type": "function"
		},
		{
			"inputs": [],
			"name": "currentRoundEnd",
			"outputs": [
				{
					"internalType": "uint256",
					"name": "",
					"type": "uint256"
				}
			],
			"stateMutability": "view",
			"type": "function"
		},
		{
			"inputs": [],
			"name": "currentRoundStart",
			"outputs": [
				{
					"internalType": "uint256",
					"name": "",
					"type": "uint256"
				}
			],
			"stateMutability": "view",
			"type": "function"
		},
		{
			"inputs": [
				{
					"internalType": "uint256",
					"name": "",
					"type": "uint256"
				}
			],
			"name": "dailyAuctions",
			"outputs": [
				{
					"internalType": "uint256",
					"name": "tokensDaily",
					"type": "uint256"
				},
				{
					"internalType": "uint256",
					"name": "tokensSold",
					"type": "uint256"
				},
				{
					"internalType": "uint256",
					"name": "oversubscribed",
					"type": "uint256"
				},
				{
					"internalType": "uint256",
					"name": "bonusMultiplier",
					"type": "uint256"
				}
			],
			"stateMutability": "view",
			"type": "function"
		},
		{
			"inputs": [],
			"name": "dailySupply",
			"outputs": [
				{
					"internalType": "uint256",
					"name": "",
					"type": "uint256"
				}
			],
			"stateMutability": "view",
			"type": "function"
		},
		{
			"inputs": [],
			"name": "fundsWallet",
			"outputs": [
				{
					"internalType": "address",
					"name": "",
					"type": "address"
				}
			],
			"stateMutability": "view",
			"type": "function"
		},
		{
			"inputs": [],
			"name": "getCurrentDay",
			"outputs": [
				{
					"internalType": "uint256",
					"name": "",
					"type": "uint256"
				}
			],
			"stateMutability": "view",
			"type": "function"
		},
		{
			"inputs": [
				{
					"internalType": "uint256",
					"name": "_currentDay",
					"type": "uint256"
				}
			],
			"name": "getDailyAuction",
			"outputs": [
				{
					"internalType": "uint256",
					"name": "",
					"type": "uint256"
				},
				{
					"internalType": "uint256",
					"name": "",
					"type": "uint256"
				},
				{
					"internalType": "uint256",
					"name": "",
					"type": "uint256"
				}
			],
			"stateMutability": "view",
			"type": "function"
		},
		{
			"inputs": [],
			"name": "isPaused",
			"outputs": [
				{
					"internalType": "bool",
					"name": "",
					"type": "bool"
				}
			],
			"stateMutability": "view",
			"type": "function"
		},
		{
			"inputs": [],
			"name": "lockingDay",
			"outputs": [
				{
					"internalType": "uint256",
					"name": "",
					"type": "uint256"
				}
			],
			"stateMutability": "view",
			"type": "function"
		},
		{
			"inputs": [],
			"name": "maxOversubscription",
			"outputs": [
				{
					"internalType": "uint256",
					"name": "",
					"type": "uint256"
				}
			],
			"stateMutability": "view",
			"type": "function"
		},
		{
			"inputs": [],
			"name": "maxOversubscriptionlimit",
			"outputs": [
				{
					"internalType": "uint256",
					"name": "",
					"type": "uint256"
				}
			],
			"stateMutability": "view",
			"type": "function"
		},
		{
			"inputs": [],
			"name": "owner",
			"outputs": [
				{
					"internalType": "address",
					"name": "",
					"type": "address"
				}
			],
			"stateMutability": "view",
			"type": "function"
		},
		{
			"inputs": [],
			"name": "renounceOwnership",
			"outputs": [],
			"stateMutability": "nonpayable",
			"type": "function"
		},
		{
			"inputs": [],
			"name": "resetAuction",
			"outputs": [],
			"stateMutability": "nonpayable",
			"type": "function"
		},
		{
			"inputs": [
				{
					"internalType": "uint256",
					"name": "day",
					"type": "uint256"
				},
				{
					"internalType": "uint256",
					"name": "tokensDaily",
					"type": "uint256"
				},
				{
					"internalType": "uint256",
					"name": "bonusMultiplier",
					"type": "uint256"
				}
			],
			"name": "setDailyDetails",
			"outputs": [],
			"stateMutability": "nonpayable",
			"type": "function"
		},
		{
			"inputs": [
				{
					"internalType": "address",
					"name": "_fundsWalletAddr",
					"type": "address"
				}
			],
			"name": "setFundsWallet",
			"outputs": [],
			"stateMutability": "nonpayable",
			"type": "function"
		},
		{
			"inputs": [
				{
					"internalType": "uint256",
					"name": "_tokenPrice",
					"type": "uint256"
				}
			],
			"name": "setPrice",
			"outputs": [],
			"stateMutability": "nonpayable",
			"type": "function"
		},
		{
			"inputs": [],
			"name": "startAuction",
			"outputs": [],
			"stateMutability": "nonpayable",
			"type": "function"
		},
		{
			"inputs": [],
			"name": "tokenPrice",
			"outputs": [
				{
					"internalType": "uint256",
					"name": "",
					"type": "uint256"
				}
			],
			"stateMutability": "view",
			"type": "function"
		},
		{
			"inputs": [],
			"name": "totalSell",
			"outputs": [
				{
					"internalType": "uint256",
					"name": "",
					"type": "uint256"
				}
			],
			"stateMutability": "view",
			"type": "function"
		},
		{
			"inputs": [
				{
					"internalType": "address",
					"name": "newOwner",
					"type": "address"
				}
			],
			"name": "transferOwnership",
			"outputs": [],
			"stateMutability": "nonpayable",
			"type": "function"
		},
		{
			"inputs": [
				{
					"internalType": "address",
					"name": "",
					"type": "address"
				}
			],
			"name": "userDetail",
			"outputs": [
				{
					"internalType": "uint256",
					"name": "reward",
					"type": "uint256"
				},
				{
					"internalType": "uint256",
					"name": "buyTotal",
					"type": "uint256"
				}
			],
			"stateMutability": "view",
			"type": "function"
		}
	]
}