{"abi":[{"type":"function","name":"addOwner","inputs":[{"name":"account","type":"address","internalType":"address"}],"outputs":[],"stateMutability":"nonpayable"},{"type":"function","name":"addPauser","inputs":[{"name":"account","type":"address","internalType":"address"}],"outputs":[],"stateMutability":"nonpayable"},{"type":"function","name":"isOwner","inputs":[{"name":"account","type":"address","internalType":"address"}],"outputs":[{"name":"","type":"bool","internalType":"bool"}],"stateMutability":"view"},{"type":"function","name":"isPauser","inputs":[{"name":"account","type":"address","internalType":"address"}],"outputs":[{"name":"","type":"bool","internalType":"bool"}],"stateMutability":"view"},{"type":"function","name":"pause","inputs":[],"outputs":[],"stateMutability":"nonpayable"},{"type":"function","name":"paused","inputs":[],"outputs":[{"name":"","type":"bool","internalType":"bool"}],"stateMutability":"view"},{"type":"function","name":"removeOwner","inputs":[{"name":"account","type":"address","internalType":"address"}],"outputs":[],"stateMutability":"nonpayable"},{"type":"function","name":"removePauser","inputs":[{"name":"account","type":"address","internalType":"address"}],"outputs":[],"stateMutability":"nonpayable"},{"type":"function","name":"unpause","inputs":[],"outputs":[],"stateMutability":"nonpayable"},{"type":"event","name":"OwnerAdded","inputs":[{"name":"addedOwner","type":"address","indexed":true,"internalType":"address"},{"name":"addedBy","type":"address","indexed":true,"internalType":"address"}],"anonymous":false},{"type":"event","name":"OwnerRemoved","inputs":[{"name":"removedOwner","type":"address","indexed":true,"internalType":"address"},{"name":"removedBy","type":"address","indexed":true,"internalType":"address"}],"anonymous":false},{"type":"event","name":"Paused","inputs":[],"anonymous":false},{"type":"event","name":"PauserAdded","inputs":[{"name":"addedPauser","type":"address","indexed":true,"internalType":"address"},{"name":"addedBy","type":"address","indexed":true,"internalType":"address"}],"anonymous":false},{"type":"event","name":"PauserRemoved","inputs":[{"name":"removedPauser","type":"address","indexed":true,"internalType":"address"},{"name":"removedBy","type":"address","indexed":true,"internalType":"address"}],"anonymous":false},{"type":"event","name":"Unpaused","inputs":[],"anonymous":false}],"bytecode":{"object":"0x608060405234801561001057600080fd5b506106e5806100206000396000f3fe608060405234801561001057600080fd5b50600436106100935760003560e01c80635c975abb116100665780635c975abb146100ef5780636b2c0f55146100fa5780637065cb481461010d57806382dc1ec4146101205780638456cb591461013357600080fd5b8063173825d9146100985780632f54bf6e146100ad5780633f4ba83a146100d457806346fbf68e146100dc575b600080fd5b6100ab6100a63660046105e1565b61013b565b005b6100c06100bb3660046105e1565b6101de565b604051901515815260200160405180910390f35b6100ab6101f0565b6100c06100ea3660046105e1565b61021f565b60025460ff166100c0565b6100ab6101083660046105e1565b61022c565b6100ab61011b3660046105e1565b61025a565b6100ab61012e3660046105e1565b610288565b6100ab6102b6565b610144336101de565b6101695760405162461bcd60e51b815260040161016090610611565b60405180910390fd5b6001600160a01b03811633036101d25760405162461bcd60e51b815260206004820152602860248201527f4f776e6572732063616e6e6f742072656d6f7665207468656d73656c7665732060448201526730b99037bbb732b960c11b6064820152608401610160565b6101db816102e3565b50565b60006101ea8183610327565b92915050565b6101f93361021f565b6102155760405162461bcd60e51b81526004016101609061065f565b61021d6103aa565b565b60006101ea600183610327565b610235336101de565b6102515760405162461bcd60e51b815260040161016090610611565b6101db816103df565b610263336101de565b61027f5760405162461bcd60e51b815260040161016090610611565b6101db81610423565b610291336101de565b6102ad5760405162461bcd60e51b815260040161016090610611565b6101db81610467565b6102bf3361021f565b6102db5760405162461bcd60e51b81526004016101609061065f565b61021d6104ab565b6102ee6000826104e3565b60405133906001600160a01b038316907fe594d081b4382713733fe631966432c9cea5199afb2db5c3c1931f9f9300367990600090a350565b60006001600160a01b03821661038a5760405162461bcd60e51b815260206004820152602260248201527f526f6c65733a206163636f756e7420697320746865207a65726f206164647265604482015261737360f01b6064820152608401610160565b506001600160a01b03166000908152602091909152604090205460ff1690565b6002805460ff191690556040517fa45f47fdea8a1efdd9029a5691c7f759c32b7c698632b563573e155625d1693390600090a1565b6103ea6001826104e3565b60405133906001600160a01b038316907fb75903ade4a0fdb07d60c882c22c779e2e1c751883c37aecdcc92a8ec72b046e90600090a350565b61042e600082610565565b60405133906001600160a01b038316907fc82bdbbf677a2462f2a7e22e4ba9abd209496b69cd7b868b3b1d28f76e09a40a90600090a350565b610472600182610565565b60405133906001600160a01b038316907fe0953c403a52f9dc1fef4202a8d33975c958b727bee0d7b5b328965ddad98d8190600090a350565b6002805460ff191660011790556040517f9e87fac88ff661f02d44f95383c817fece4bce600a3dab7a54406878b965e75290600090a1565b6104ed8282610327565b6105435760405162461bcd60e51b815260206004820152602160248201527f526f6c65733a206163636f756e7420646f6573206e6f74206861766520726f6c6044820152606560f81b6064820152608401610160565b6001600160a01b0316600090815260209190915260409020805460ff19169055565b61056f8282610327565b156105bc5760405162461bcd60e51b815260206004820152601f60248201527f526f6c65733a206163636f756e7420616c72656164792068617320726f6c65006044820152606401610160565b6001600160a01b0316600090815260209190915260409020805460ff19166001179055565b6000602082840312156105f357600080fd5b81356001600160a01b038116811461060a57600080fd5b9392505050565b6020808252602e908201527f4f776e6572526f6c653a2063616c6c657220646f6573206e6f7420686176652060408201526d746865204f776e657220726f6c6560901b606082015260800190565b60208082526030908201527f506175736572526f6c653a2063616c6c657220646f6573206e6f74206861766560408201526f207468652050617573657220726f6c6560801b60608201526080019056fea264697066735822122012b7284dae1833c465c0d6706d8512a528dca6f9a5f4dc8f0bd5a8e939ecbf0064736f6c63430008140033","linkReferences":{}},"methodIdentifiers":{"addOwner(address)":"7065cb48","addPauser(address)":"82dc1ec4","isOwner(address)":"2f54bf6e","isPauser(address)":"46fbf68e","pause()":"8456cb59","paused()":"5c975abb","removeOwner(address)":"173825d9","removePauser(address)":"6b2c0f55","unpause()":"3f4ba83a"},"id":37}