{"abi":[{"type":"constructor","inputs":[],"stateMutability":"nonpayable"},{"type":"function","name":"addOwner","inputs":[{"name":"account","type":"address","internalType":"address"}],"outputs":[],"stateMutability":"nonpayable"},{"type":"function","name":"addPauser","inputs":[{"name":"account","type":"address","internalType":"address"}],"outputs":[],"stateMutability":"nonpayable"},{"type":"function","name":"addRevoker","inputs":[{"name":"account","type":"address","internalType":"address"}],"outputs":[],"stateMutability":"nonpayable"},{"type":"function","name":"addWhitelister","inputs":[{"name":"account","type":"address","internalType":"address"}],"outputs":[],"stateMutability":"nonpayable"},{"type":"function","name":"allowance","inputs":[{"name":"owner","type":"address","internalType":"address"},{"name":"spender","type":"address","internalType":"address"}],"outputs":[{"name":"","type":"uint256","internalType":"uint256"}],"stateMutability":"view"},{"type":"function","name":"approve","inputs":[{"name":"spender","type":"address","internalType":"address"},{"name":"value","type":"uint256","internalType":"uint256"}],"outputs":[{"name":"","type":"bool","internalType":"bool"}],"stateMutability":"nonpayable"},{"type":"function","name":"balanceOf","inputs":[{"name":"account","type":"address","internalType":"address"}],"outputs":[{"name":"","type":"uint256","internalType":"uint256"}],"stateMutability":"view"},{"type":"function","name":"checkLockup","inputs":[{"name":"_address","type":"address","internalType":"address"}],"outputs":[{"name":"","type":"uint256[]","internalType":"uint256[]"},{"name":"","type":"uint256[]","internalType":"uint256[]"}],"stateMutability":"view"},{"type":"function","name":"checkTimelock","inputs":[{"name":"_address","type":"address","internalType":"address"},{"name":"amount","type":"uint256","internalType":"uint256"},{"name":"balance","type":"uint256","internalType":"uint256"}],"outputs":[{"name":"","type":"bool","internalType":"bool"}],"stateMutability":"view"},{"type":"function","name":"checkWhitelists","inputs":[{"name":"from","type":"address","internalType":"address"},{"name":"to","type":"address","internalType":"address"}],"outputs":[{"name":"","type":"bool","internalType":"bool"}],"stateMutability":"view"},{"type":"function","name":"decimals","inputs":[],"outputs":[{"name":"","type":"uint8","internalType":"uint8"}],"stateMutability":"view"},{"type":"function","name":"detectTransferFromRestriction","inputs":[{"name":"sender","type":"address","internalType":"address"},{"name":"from","type":"address","internalType":"address"},{"name":"to","type":"address","internalType":"address"},{"name":"amount","type":"uint256","internalType":"uint256"}],"outputs":[{"name":"","type":"uint8","internalType":"uint8"}],"stateMutability":"view"},{"type":"function","name":"detectTransferRestriction","inputs":[{"name":"from","type":"address","internalType":"address"},{"name":"to","type":"address","internalType":"address"},{"name":"amount","type":"uint256","internalType":"uint256"}],"outputs":[{"name":"","type":"uint8","internalType":"uint8"}],"stateMutability":"view"},{"type":"function","name":"getLockedAmount","inputs":[{"name":"_address","type":"address","internalType":"address"}],"outputs":[{"name":"","type":"uint256","internalType":"uint256"}],"stateMutability":"view"},{"type":"function","name":"getRestrictionsAddress","inputs":[],"outputs":[{"name":"","type":"address","internalType":"address"}],"stateMutability":"view"},{"type":"function","name":"getUserType","inputs":[{"name":"_user","type":"address","internalType":"address"}],"outputs":[{"name":"","type":"string","internalType":"string"}],"stateMutability":"view"},{"type":"function","name":"getWhitelistData","inputs":[{"name":"_address","type":"address","internalType":"address"}],"outputs":[{"name":"","type":"string","internalType":"string"}],"stateMutability":"view"},{"type":"function","name":"getWhitelistStatus","inputs":[{"name":"_address","type":"address","internalType":"address"}],"outputs":[{"name":"","type":"bool","internalType":"bool"}],"stateMutability":"view"},{"type":"function","name":"isOwner","inputs":[{"name":"account","type":"address","internalType":"address"}],"outputs":[{"name":"","type":"bool","internalType":"bool"}],"stateMutability":"view"},{"type":"function","name":"isPauser","inputs":[{"name":"account","type":"address","internalType":"address"}],"outputs":[{"name":"","type":"bool","internalType":"bool"}],"stateMutability":"view"},{"type":"function","name":"isRegistered","inputs":[{"name":"_user","type":"address","internalType":"address"}],"outputs":[{"name":"","type":"bool","internalType":"bool"}],"stateMutability":"view"},{"type":"function","name":"isRevoker","inputs":[{"name":"account","type":"address","internalType":"address"}],"outputs":[{"name":"","type":"bool","internalType":"bool"}],"stateMutability":"view"},{"type":"function","name":"isWhitelister","inputs":[{"name":"account","type":"address","internalType":"address"}],"outputs":[{"name":"","type":"bool","internalType":"bool"}],"stateMutability":"view"},{"type":"function","name":"lock","inputs":[{"name":"_address","type":"address","internalType":"address"},{"name":"amount","type":"uint256","internalType":"uint256"},{"name":"releaseTime","type":"uint256","internalType":"uint256"}],"outputs":[{"name":"","type":"bool","internalType":"bool"}],"stateMutability":"nonpayable"},{"type":"function","name":"lockups","inputs":[{"name":"","type":"address","internalType":"address"},{"name":"","type":"uint256","internalType":"uint256"}],"outputs":[{"name":"amount","type":"uint256","internalType":"uint256"},{"name":"releaseTime","type":"uint256","internalType":"uint256"}],"stateMutability":"view"},{"type":"function","name":"messageForTransferRestriction","inputs":[{"name":"restrictionCode","type":"uint8","internalType":"uint8"}],"outputs":[{"name":"","type":"string","internalType":"string"}],"stateMutability":"view"},{"type":"function","name":"mint","inputs":[{"name":"user","type":"address","internalType":"address"},{"name":"amount","type":"uint256","internalType":"uint256"}],"outputs":[],"stateMutability":"nonpayable"},{"type":"function","name":"name","inputs":[],"outputs":[{"name":"","type":"string","internalType":"string"}],"stateMutability":"view"},{"type":"function","name":"pause","inputs":[],"outputs":[],"stateMutability":"nonpayable"},{"type":"function","name":"paused","inputs":[],"outputs":[{"name":"","type":"bool","internalType":"bool"}],"stateMutability":"view"},{"type":"function","name":"register","inputs":[{"name":"_user","type":"address","internalType":"address"},{"name":"_userType","type":"string","internalType":"string"}],"outputs":[],"stateMutability":"nonpayable"},{"type":"function","name":"release","inputs":[{"name":"_address","type":"address","internalType":"address"},{"name":"amountToRelease","type":"uint256","internalType":"uint256"}],"outputs":[{"name":"","type":"bool","internalType":"bool"}],"stateMutability":"nonpayable"},{"type":"function","name":"removeOwner","inputs":[{"name":"account","type":"address","internalType":"address"}],"outputs":[],"stateMutability":"nonpayable"},{"type":"function","name":"removePauser","inputs":[{"name":"account","type":"address","internalType":"address"}],"outputs":[],"stateMutability":"nonpayable"},{"type":"function","name":"removeRevoker","inputs":[{"name":"account","type":"address","internalType":"address"}],"outputs":[],"stateMutability":"nonpayable"},{"type":"function","name":"removeWhitelister","inputs":[{"name":"account","type":"address","internalType":"address"}],"outputs":[],"stateMutability":"nonpayable"},{"type":"function","name":"revoke","inputs":[{"name":"_from","type":"address","internalType":"address"},{"name":"_amount","type":"uint256","internalType":"uint256"}],"outputs":[{"name":"","type":"bool","internalType":"bool"}],"stateMutability":"nonpayable"},{"type":"function","name":"setWhitelist","inputs":[{"name":"to","type":"address","internalType":"address"},{"name":"status","type":"bool","internalType":"bool"},{"name":"data","type":"string","internalType":"string"}],"outputs":[{"name":"","type":"bool","internalType":"bool"}],"stateMutability":"nonpayable"},{"type":"function","name":"symbol","inputs":[],"outputs":[{"name":"","type":"string","internalType":"string"}],"stateMutability":"view"},{"type":"function","name":"totalSupply","inputs":[],"outputs":[{"name":"","type":"uint256","internalType":"uint256"}],"stateMutability":"view"},{"type":"function","name":"transfer","inputs":[{"name":"to","type":"address","internalType":"address"},{"name":"value","type":"uint256","internalType":"uint256"}],"outputs":[{"name":"success","type":"bool","internalType":"bool"}],"stateMutability":"nonpayable"},{"type":"function","name":"transferFrom","inputs":[{"name":"from","type":"address","internalType":"address"},{"name":"to","type":"address","internalType":"address"},{"name":"value","type":"uint256","internalType":"uint256"}],"outputs":[{"name":"success","type":"bool","internalType":"bool"}],"stateMutability":"nonpayable"},{"type":"function","name":"unpause","inputs":[],"outputs":[],"stateMutability":"nonpayable"},{"type":"function","name":"updateTransferRestrictions","inputs":[{"name":"_newRestrictionsAddress","type":"address","internalType":"address"}],"outputs":[{"name":"","type":"bool","internalType":"bool"}],"stateMutability":"nonpayable"},{"type":"function","name":"whitelist","inputs":[{"name":"","type":"address","internalType":"address"}],"outputs":[{"name":"status","type":"bool","internalType":"bool"},{"name":"data","type":"string","internalType":"string"}],"stateMutability":"view"},{"type":"event","name":"AccountLock","inputs":[{"name":"_address","type":"address","indexed":true,"internalType":"address"},{"name":"amount","type":"uint256","indexed":false,"internalType":"uint256"},{"name":"releaseTime","type":"uint256","indexed":false,"internalType":"uint256"}],"anonymous":false},{"type":"event","name":"AccountRelease","inputs":[{"name":"_address","type":"address","indexed":true,"internalType":"address"},{"name":"amount","type":"uint256","indexed":false,"internalType":"uint256"}],"anonymous":false},{"type":"event","name":"Approval","inputs":[{"name":"owner","type":"address","indexed":true,"internalType":"address"},{"name":"spender","type":"address","indexed":true,"internalType":"address"},{"name":"value","type":"uint256","indexed":false,"internalType":"uint256"}],"anonymous":false},{"type":"event","name":"OwnerAdded","inputs":[{"name":"addedOwner","type":"address","indexed":true,"internalType":"address"},{"name":"addedBy","type":"address","indexed":true,"internalType":"address"}],"anonymous":false},{"type":"event","name":"OwnerRemoved","inputs":[{"name":"removedOwner","type":"address","indexed":true,"internalType":"address"},{"name":"removedBy","type":"address","indexed":true,"internalType":"address"}],"anonymous":false},{"type":"event","name":"Paused","inputs":[],"anonymous":false},{"type":"event","name":"PauserAdded","inputs":[{"name":"addedPauser","type":"address","indexed":true,"internalType":"address"},{"name":"addedBy","type":"address","indexed":true,"internalType":"address"}],"anonymous":false},{"type":"event","name":"PauserRemoved","inputs":[{"name":"removedPauser","type":"address","indexed":true,"internalType":"address"},{"name":"removedBy","type":"address","indexed":true,"internalType":"address"}],"anonymous":false},{"type":"event","name":"RestrictionsUpdated","inputs":[{"name":"newRestrictionsAddress","type":"address","indexed":false,"internalType":"address"},{"name":"updatedBy","type":"address","indexed":false,"internalType":"address"}],"anonymous":false},{"type":"event","name":"Revoke","inputs":[{"name":"revoker","type":"address","indexed":true,"internalType":"address"},{"name":"from","type":"address","indexed":true,"internalType":"address"},{"name":"amount","type":"uint256","indexed":false,"internalType":"uint256"}],"anonymous":false},{"type":"event","name":"RevokerAdded","inputs":[{"name":"addedRevoker","type":"address","indexed":true,"internalType":"address"},{"name":"addedBy","type":"address","indexed":true,"internalType":"address"}],"anonymous":false},{"type":"event","name":"RevokerRemoved","inputs":[{"name":"removedRevoker","type":"address","indexed":true,"internalType":"address"},{"name":"removedBy","type":"address","indexed":true,"internalType":"address"}],"anonymous":false},{"type":"event","name":"Transfer","inputs":[{"name":"from","type":"address","indexed":true,"internalType":"address"},{"name":"to","type":"address","indexed":true,"internalType":"address"},{"name":"value","type":"uint256","indexed":false,"internalType":"uint256"}],"anonymous":false},{"type":"event","name":"Unpaused","inputs":[],"anonymous":false},{"type":"event","name":"UserRegistered","inputs":[{"name":"user","type":"address","indexed":true,"internalType":"address"},{"name":"userType","type":"string","indexed":false,"internalType":"string"}],"anonymous":false},{"type":"event","name":"WhitelistUpdate","inputs":[{"name":"_address","type":"address","indexed":false,"internalType":"address"},{"name":"status","type":"bool","indexed":false,"internalType":"bool"},{"name":"data","type":"string","indexed":false,"internalType":"string"}],"anonymous":false},{"type":"event","name":"WhitelisterAdded","inputs":[{"name":"addedWhitelister","type":"address","indexed":true,"internalType":"address"},{"name":"addedBy","type":"address","indexed":true,"internalType":"address"}],"anonymous":false},{"type":"event","name":"WhitelisterRemoved","inputs":[{"name":"removedWhitelister","type":"address","indexed":true,"internalType":"address"},{"name":"removedBy","type":"address","indexed":true,"internalType":"address"}],"anonymous":false},{"type":"error","name":"ERC20InsufficientAllowance","inputs":[{"name":"spender","type":"address","internalType":"address"},{"name":"allowance","type":"uint256","internalType":"uint256"},{"name":"needed","type":"uint256","internalType":"uint256"}]},{"type":"error","name":"ERC20InsufficientBalance","inputs":[{"name":"sender","type":"address","internalType":"address"},{"name":"balance","type":"uint256","internalType":"uint256"},{"name":"needed","type":"uint256","internalType":"uint256"}]},{"type":"error","name":"ERC20InvalidApprover","inputs":[{"name":"approver","type":"address","internalType":"address"}]},{"type":"error","name":"ERC20InvalidReceiver","inputs":[{"name":"receiver","type":"address","internalType":"address"}]},{"type":"error","name":"ERC20InvalidSender","inputs":[{"name":"sender","type":"address","internalType":"address"}]},{"type":"error","name":"ERC20InvalidSpender","inputs":[{"name":"spender","type":"address","internalType":"address"}]}],"bytecode":{"object":"0x60806040523480156200001157600080fd5b506040518060400160405280600c81526020016b283937ba37b7102a37b5b2b760a11b8152506040518060400160405280600481526020016328292a2760e11b815250816003908162000065919062000426565b50600462000074828262000426565b50620000ac91503390506200008c6012600a62000605565b6200009a606460026200061a565b620000a691906200061a565b620000bd565b620000b733620000ff565b6200064a565b6001600160a01b038216620000ed5760405163ec442f0560e01b8152600060048201526024015b60405180910390fd5b620000fb6000838362000145565b5050565b6200010c60058262000278565b60405133906001600160a01b038316907fc82bdbbf677a2462f2a7e22e4ba9abd209496b69cd7b868b3b1d28f76e09a40a90600090a350565b6001600160a01b0383166200017457806002600082825462000168919062000634565b90915550620001e89050565b6001600160a01b03831660009081526020819052604090205481811015620001c95760405163391434e360e21b81526001600160a01b03851660048201526024810182905260448101839052606401620000e4565b6001600160a01b03841660009081526020819052604090209082900390555b6001600160a01b038216620002065760028054829003905562000225565b6001600160a01b03821660009081526020819052604090208054820190555b816001600160a01b0316836001600160a01b03167fddf252ad1be2c89b69c2b068fc378daa952ba7f163c4a11628f55a4df523b3ef836040516200026b91815260200190565b60405180910390a3505050565b620002848282620002f8565b15620002d35760405162461bcd60e51b815260206004820152601f60248201527f526f6c65733a206163636f756e7420616c72656164792068617320726f6c65006044820152606401620000e4565b6001600160a01b0316600090815260209190915260409020805460ff19166001179055565b60006001600160a01b0382166200035d5760405162461bcd60e51b815260206004820152602260248201527f526f6c65733a206163636f756e7420697320746865207a65726f206164647265604482015261737360f01b6064820152608401620000e4565b506001600160a01b03811660009081526020839052604090205460ff165b92915050565b634e487b7160e01b600052604160045260246000fd5b600181811c90821680620003ac57607f821691505b602082108103620003cd57634e487b7160e01b600052602260045260246000fd5b50919050565b601f8211156200042157600081815260208120601f850160051c81016020861015620003fc5750805b601f850160051c820191505b818110156200041d5782815560010162000408565b5050505b505050565b81516001600160401b0381111562000442576200044262000381565b6200045a8162000453845462000397565b84620003d3565b602080601f831160018114620004925760008415620004795750858301515b600019600386901b1c1916600185901b1785556200041d565b600085815260208120601f198616915b82811015620004c357888601518255948401946001909101908401620004a2565b5085821015620004e25787850151600019600388901b60f8161c191681555b5050505050600190811b01905550565b634e487b7160e01b600052601160045260246000fd5b600181815b80851115620005495781600019048211156200052d576200052d620004f2565b808516156200053b57918102915b93841c93908002906200050d565b509250929050565b60008262000562575060016200037b565b8162000571575060006200037b565b81600181146200058a57600281146200059557620005b5565b60019150506200037b565b60ff841115620005a957620005a9620004f2565b50506001821b6200037b565b5060208310610133831016604e8410600b8410161715620005da575081810a6200037b565b620005e6838362000508565b8060001904821115620005fd57620005fd620004f2565b029392505050565b600062000613838362000551565b9392505050565b80820281158282048414176200037b576200037b620004f2565b808201808211156200037b576200037b620004f2565b612e4a806200065a6000396000f3fe608060405234801561001057600080fd5b506004361061027f5760003560e01c806382c3f79c1161015c578063c06f8b94116100ce578063db0cc92a11610087578063db0cc92a146105c6578063dd62ed3e146105d9578063e2ab691d14610612578063eac449d914610625578063eaf9144a14610638578063f6c4b01f1461064b57600080fd5b8063c06f8b9414610526578063c3c5a54714610539578063c697e4a31461054c578063c93d0b1e1461055f578063d4ce141514610587578063d9ba32fc1461059a57600080fd5b806395d89b411161012057806395d89b41146104a3578063961a66f6146104ab57806399da091d146104be5780639a6e292f146104d15780639b19251a146104f2578063a9059cbb1461051357600080fd5b806382c3f79c1461044f57806382dc1ec4146104625780638456cb59146104755780638b3f863f1461047d578063929ec5371461049057600080fd5b806332434a2e116101f557806368aa9813116101b957806368aa9813146103c75780636b2c0f55146103da5780637065cb48146103ed57806370a08231146104005780637d0c269f146104295780637f4ab1dd1461043c57600080fd5b806332434a2e1461037b5780633f4ba83a1461038e57806340c10f191461039657806346fbf68e146103a95780635c975abb146103bc57600080fd5b8063173825d911610247578063173825d91461031457806318160ddd1461032957806323b872dd1461033b57806327ac19751461034e5780632f54bf6e14610361578063313ce5671461037457600080fd5b80630357371d1461028457806305557bd4146102ac57806306fdde03146102c75780630754cede146102dc578063095ea7b314610301575b600080fd5b6102976102923660046125ce565b61065e565b60405190151581526020015b60405180910390f35b600d546040516001600160a01b0390911681526020016102a3565b6102cf610872565b6040516102a39190612648565b6102ef6102ea36600461265b565b610904565b60405160ff90911681526020016102a3565b61029761030f3660046125ce565b6109bd565b6103276103223660046126a6565b6109d5565b005b6002545b6040519081526020016102a3565b6102976103493660046126c1565b610a6f565b61029761035c36600461276c565b610c2c565b61029761036f3660046126a6565b610d67565b60126102ef565b610327610389366004612814565b610d74565b610327610ef6565b6103276103a43660046125ce565b610f25565b6102976103b73660046126a6565b610f58565b600b5460ff16610297565b6102cf6103d53660046126a6565b610f65565b6103276103e83660046126a6565b611014565b6103276103fb3660046126a6565b611042565b61032d61040e3660046126a6565b6001600160a01b031660009081526020819052604090205490565b6102976104373660046126a6565b611070565b6102cf61044a3660046128a6565b61107d565b61032761045d3660046126a6565b6110f1565b6103276104703660046126a6565b61111f565b61032761114d565b6102cf61048b3660046126a6565b61117a565b61032d61049e3660046126a6565b611293565b6102cf61132e565b6103276104b93660046126a6565b61133d565b6102976104cc3660046128c3565b61136b565b6104e46104df3660046126a6565b6113af565b6040516102a3929190612931565b6105056105003660046126a6565b61150a565b6040516102a3929190612956565b6102976105213660046125ce565b6115b3565b6103276105343660046126a6565b611761565b6102976105473660046126a6565b61178f565b61029761055a366004612971565b6117bb565b61057261056d3660046125ce565b6117f4565b604080519283526020830191909152016102a3565b6102ef6105953660046126c1565b611830565b6102976105a83660046126a6565b6001600160a01b031660009081526008602052604090205460ff1690565b6102976105d43660046126a6565b6118e0565b61032d6105e73660046128c3565b6001600160a01b03918216600090815260016020908152604080832093909416825291909152205490565b610297610620366004612971565b611966565b6102976106333660046125ce565b611973565b6103276106463660046126a6565b611a39565b6102976106593660046126a6565b611a67565b60006001600160a01b0383166106c55760405162461bcd60e51b815260206004820152602160248201527f41646472657373206d7573742062652076616c696420666f722072656c6561736044820152606560f81b60648201526084015b60405180910390fd5b6001600160a01b0383166000908152600960205260408120815b815481101561082157428282815481106106fb576106fb6129a4565b9060005260206000209060020201600101541115801561071a57508483105b1561080f57600061072b8685611a74565b905080838381548110610740576107406129a4565b906000526020600020906002020160000154116107b05761078483838154811061076c5761076c6129a4565b60009182526020909120600290910201548590611ab6565b9350600083838154811061079a5761079a6129a4565b600091825260209091206002909102015561080d565b6107dd818484815481106107c6576107c66129a4565b600091825260209091206002909102015490611a74565b8383815481106107ef576107ef6129a4565b600091825260209091206002909102015561080a8482611ab6565b93505b505b80610819816129d0565b9150506106df565b50846001600160a01b03167f784c9f4cec58b38461217a62f8f9c0f2cac7b46c0ed23bd1a7f4a5376ac787e18360405161085d91815260200190565b60405180910390a26001925050505b92915050565b606060038054610881906129e9565b80601f01602080910402602001604051908101604052809291908181526020018280546108ad906129e9565b80156108fa5780601f106108cf576101008083540402835291602001916108fa565b820191906000526020600020905b8154815290600101906020018083116108dd57829003601f168201915b5050505050905090565b600d546000906001600160a01b031661092f5760405162461bcd60e51b81526004016106bc90612a1d565b600d546040516303aa676f60e11b81526001600160a01b038781166004830152868116602483015285811660448301526064820185905290911690630754cede90608401602060405180830381865afa158015610990573d6000803e3d6000fd5b505050506040513d601f19601f820116820180604052508101906109b49190612a66565b95945050505050565b6000336109cb818585611b15565b5060019392505050565b6109de33610d67565b6109fa5760405162461bcd60e51b81526004016106bc90612a83565b6001600160a01b0381163303610a635760405162461bcd60e51b815260206004820152602860248201527f4f776e6572732063616e6e6f742072656d6f7665207468656d73656c7665732060448201526730b99037bbb732b960c11b60648201526084016106bc565b610a6c81611b27565b50565b600d546040516303aa676f60e11b815233600482018190526001600160a01b038087166024840152808616604484015260648301859052600093919287928792879287929190911690630754cede90608401602060405180830381865afa158015610ade573d6000803e3d6000fd5b505050506040513d601f19601f82011682018060405250810190610b029190612a66565b9050600d60009054906101000a90046001600160a01b03166001600160a01b0316635ec647596040518163ffffffff1660e01b8152600401602060405180830381865afa158015610b57573d6000803e3d6000fd5b505050506040513d601f19601f82011682018060405250810190610b7b9190612ad1565b600d54604051637f4ab1dd60e01b815260ff84166004820181905292909214916001600160a01b0390911690637f4ab1dd90602401600060405180830381865afa158015610bcd573d6000803e3d6000fd5b505050506040513d6000823e601f3d908101601f19168201604052610bf59190810190612aea565b90610c135760405162461bcd60e51b81526004016106bc9190612648565b50610c1f898989611b6b565b9998505050505050505050565b6000610c3733611070565b610ca95760405162461bcd60e51b815260206004820152603a60248201527f57686974656c6973746572526f6c653a2063616c6c657220646f6573206e6f7460448201527f2068617665207468652057686974656c697374657220726f6c6500000000000060648201526084016106bc565b610cb233610d67565b610cce5760405162461bcd60e51b81526004016106bc90612a83565b604080518082018252841515815260208082018581526001600160a01b038816600090815260089092529290208151815460ff191690151517815591519091906001820190610d1d9082612ba6565b509050507f461193ae6c23672174f7a3ea35649aacdc857bfcae58cd12d61ea432c05bcbd5848484604051610d5493929190612c66565b60405180910390a15060015b9392505050565b600061086c600583611b8f565b610d7d33610d67565b610d995760405162461bcd60e51b81526004016106bc90612a83565b6001600160a01b0383166000908152600c602052604090208054610dbc906129e9565b159050610e0b5760405162461bcd60e51b815260206004820152601760248201527f5573657220616c7265616479207265676973746572656400000000000000000060448201526064016106bc565b610e4a82828080601f016020809104026020016040519081016040528093929190818152602001838380828437600092019190915250611c1292505050565b610e8a5760405162461bcd60e51b8152602060048201526011602482015270496e76616c69642075736572207479706560781b60448201526064016106bc565b6001600160a01b0383166000908152600c60205260409020610ead828483612c92565b50826001600160a01b03167f48cac28ad4dc618e15f4c2dd5e97751182f166de97b25618318b2112aa951a2f8383604051610ee9929190612d53565b60405180910390a2505050565b610eff33610f58565b610f1b5760405162461bcd60e51b81526004016106bc90612d82565b610f23611dee565b565b610f2e33610d67565b610f4a5760405162461bcd60e51b81526004016106bc90612a83565b610f548282611e23565b5050565b600061086c600a83611b8f565b6001600160a01b0381166000908152600860205260409020600101805460609190610f8f906129e9565b80601f0160208091040260200160405190810160405280929190818152602001828054610fbb906129e9565b80156110085780601f10610fdd57610100808354040283529160200191611008565b820191906000526020600020905b815481529060010190602001808311610feb57829003601f168201915b50505050509050919050565b61101d33610d67565b6110395760405162461bcd60e51b81526004016106bc90612a83565b610a6c81611e59565b61104b33610d67565b6110675760405162461bcd60e51b81526004016106bc90612a83565b610a6c81611e9d565b600061086c600783611b8f565b600d54604051637f4ab1dd60e01b815260ff831660048201526060916001600160a01b031690637f4ab1dd90602401600060405180830381865afa1580156110c9573d6000803e3d6000fd5b505050506040513d6000823e601f3d908101601f1916820160405261086c9190810190612aea565b6110fa33610d67565b6111165760405162461bcd60e51b81526004016106bc90612a83565b610a6c81611ee1565b61112833610d67565b6111445760405162461bcd60e51b81526004016106bc90612a83565b610a6c81611f25565b61115633610f58565b6111725760405162461bcd60e51b81526004016106bc90612d82565b610f23611f69565b6001600160a01b0381166000908152600c60205260409020805460609183916111a2906129e9565b90506000036111e95760405162461bcd60e51b8152602060048201526013602482015272155cd95c881b9bdd081c9959da5cdd195c9959606a1b60448201526064016106bc565b6001600160a01b0383166000908152600c60205260409020805461120c906129e9565b80601f0160208091040260200160405190810160405280929190818152602001828054611238906129e9565b80156112855780601f1061125a57610100808354040283529160200191611285565b820191906000526020600020905b81548152906001019060200180831161126857829003601f168201915b505050505091505b50919050565b6001600160a01b03811660009081526009602052604081208190815b8154811015611325578181815481106112ca576112ca6129a4565b906000526020600020906002020160010154421015611313576113108282815481106112f8576112f86129a4565b60009182526020909120600290910201548490611ab6565b92505b8061131d816129d0565b9150506112af565b50909392505050565b606060048054610881906129e9565b61134633610d67565b6113625760405162461bcd60e51b81526004016106bc90612a83565b610a6c81611fa1565b6001600160a01b03821660009081526008602052604081205460ff168015610d605750506001600160a01b031660009081526008602052604090205460ff16919050565b6001600160a01b0381166000908152600960205260408120805460609283929167ffffffffffffffff8111156113e7576113e76126fd565b604051908082528060200260200182016040528015611410578160200160208202803683370190505b50825490915060009067ffffffffffffffff811115611431576114316126fd565b60405190808252806020026020018201604052801561145a578160200160208202803683370190505b50905060005b83548110156114fe5783818154811061147b5761147b6129a4565b90600052602060002090600202016000015483828151811061149f5761149f6129a4565b6020026020010181815250508381815481106114bd576114bd6129a4565b9060005260206000209060020201600101548282815181106114e1576114e16129a4565b6020908102919091010152806114f6816129d0565b915050611460565b50909590945092505050565b6008602052600090815260409020805460018201805460ff9092169291611530906129e9565b80601f016020809104026020016040519081016040528092919081815260200182805461155c906129e9565b80156115a95780601f1061157e576101008083540402835291602001916115a9565b820191906000526020600020905b81548152906001019060200180831161158c57829003601f168201915b5050505050905082565b600d5460405163d4ce141560e01b815233600482018190526001600160a01b03808616602484015260448301859052600093919286928692869291169063d4ce141590606401602060405180830381865afa158015611616573d6000803e3d6000fd5b505050506040513d601f19601f8201168201806040525081019061163a9190612a66565b9050600d60009054906101000a90046001600160a01b03166001600160a01b0316635ec647596040518163ffffffff1660e01b8152600401602060405180830381865afa15801561168f573d6000803e3d6000fd5b505050506040513d601f19601f820116820180604052508101906116b39190612ad1565b600d54604051637f4ab1dd60e01b815260ff84166004820181905292909214916001600160a01b0390911690637f4ab1dd90602401600060405180830381865afa158015611705573d6000803e3d6000fd5b505050506040513d6000823e601f3d908101601f1916820160405261172d9190810190612aea565b9061174b5760405162461bcd60e51b81526004016106bc9190612648565b506117568787611fe5565b979650505050505050565b61176a33610d67565b6117865760405162461bcd60e51b81526004016106bc90612a83565b610a6c81611ff3565b6001600160a01b0381166000908152600c6020526040812080546117b2906129e9565b15159392505050565b6000806117c785611293565b9050838310156117db576000915050610d60565b60006117e78483611a74565b9094111595945050505050565b6009602052816000526040600020818154811061181057600080fd5b600091825260209091206002909102018054600190910154909250905082565b600d546000906001600160a01b031661185b5760405162461bcd60e51b81526004016106bc90612a1d565b600d5460405163d4ce141560e01b81526001600160a01b0386811660048301528581166024830152604482018590529091169063d4ce141590606401602060405180830381865afa1580156118b4573d6000803e3d6000fd5b505050506040513d601f19601f820116820180604052508101906118d89190612a66565b949350505050565b60006118eb33610d67565b6119075760405162461bcd60e51b81526004016106bc90612a83565b600d80546001600160a01b0319166001600160a01b038416908117909155604080519182523360208301527f6c0cb4cdcdbedb9d71fdb2e31e3ad5a42fc2cffc2642730034017c04192e3afe910160405180910390a15060015b919050565b60006109cb848484612037565b600061197e33611a67565b6119e55760405162461bcd60e51b815260206004820152603260248201527f5265766f6b6572526f6c653a2063616c6c657220646f6573206e6f74206861766044820152716520746865205265766f6b657220726f6c6560701b60648201526084016106bc565b6119f083338461216d565b6040518281526001600160a01b0384169033907fb698e31a2abee5824d0d7bcfd2339aead7f9e9ae413fba50bf554ff3fa470b7b9060200160405180910390a350600192915050565b611a4233610d67565b611a5e5760405162461bcd60e51b81526004016106bc90612a83565b610a6c816121cc565b600061086c600683611b8f565b6000610d6083836040518060400160405280601e81526020017f536166654d6174683a207375627472616374696f6e206f766572666c6f770000815250612210565b600080611ac38385612dd2565b905083811015610d605760405162461bcd60e51b815260206004820152601b60248201527f536166654d6174683a206164646974696f6e206f766572666c6f77000000000060448201526064016106bc565b611b228383836001612241565b505050565b611b32600582612317565b60405133906001600160a01b038316907fe594d081b4382713733fe631966432c9cea5199afb2db5c3c1931f9f9300367990600090a350565b600033611b79858285612399565b611b8485858561216d565b506001949350505050565b60006001600160a01b038216611bf25760405162461bcd60e51b815260206004820152602260248201527f526f6c65733a206163636f756e7420697320746865207a65726f206164647265604482015261737360f01b60648201526084016106bc565b506001600160a01b03166000908152602091909152604090205460ff1690565b6000604051806040016040528060058152602001644e6f6e555360d81b815250604051602001611c429190612de5565b6040516020818303038152906040528051906020012082604051602001611c699190612de5565b604051602081830303815290604052805190602001201480611cf857506040518060400160405280600a8152602001691058d8dc99591a5d195960b21b815250604051602001611cb99190612de5565b6040516020818303038152906040528051906020012082604051602001611ce09190612de5565b60405160208183030381529060405280519060200120145b80611d6e57506040518060400160405280600881526020016710dbdb9d1c9858dd60c21b815250604051602001611d2f9190612de5565b6040516020818303038152906040528051906020012082604051602001611d569190612de5565b60405160208183030381529060405280519060200120145b8061086c57506040518060400160405280600d81526020016c125b9cdd1a5d1d5d1a5bdb985b609a1b815250604051602001611daa9190612de5565b6040516020818303038152906040528051906020012082604051602001611dd19190612de5565b604051602081830303815290604052805190602001201492915050565b600b805460ff191690556040517fa45f47fdea8a1efdd9029a5691c7f759c32b7c698632b563573e155625d1693390600090a1565b6001600160a01b038216611e4d5760405163ec442f0560e01b8152600060048201526024016106bc565b610f5460008383612411565b611e64600a82612317565b60405133906001600160a01b038316907fb75903ade4a0fdb07d60c882c22c779e2e1c751883c37aecdcc92a8ec72b046e90600090a350565b611ea860058261253b565b60405133906001600160a01b038316907fc82bdbbf677a2462f2a7e22e4ba9abd209496b69cd7b868b3b1d28f76e09a40a90600090a350565b611eec600782612317565b60405133906001600160a01b038316907f3ed21605dd544629fb45f2ccaedcc095ba1dbea540fb6eaf5493a7479856b0be90600090a350565b611f30600a8261253b565b60405133906001600160a01b038316907fe0953c403a52f9dc1fef4202a8d33975c958b727bee0d7b5b328965ddad98d8190600090a350565b600b805460ff191660011790556040517f9e87fac88ff661f02d44f95383c817fece4bce600a3dab7a54406878b965e75290600090a1565b611fac60068261253b565b60405133906001600160a01b038316907f2b5f18afd9a7b21f41bf023b012b3d4c8a22a21b79fa425cd4494ecbe297019690600090a350565b6000336109cb81858561216d565b611ffe600682612317565b60405133906001600160a01b038316907fb6fe3ab11eb9ab1d9f1d41c8f42a5d72d10122099ba1548e4a6d1a4d8cefec4b90600090a350565b4281116120955760405162461bcd60e51b815260206004820152602660248201527f52656c656173652074696d65206e6565647320746f20626520696e207468652060448201526566757475726560d01b60648201526084016106bc565b6001600160a01b0383166120eb5760405162461bcd60e51b815260206004820181905260248201527f41646472657373206d7573742062652076616c696420666f72206c6f636b757060448201526064016106bc565b6001600160a01b03831660008181526009602090815260408083208151808301835287815280840187815282546001808201855593875295859020915160029096029091019485555193019290925581518581529081018490527fd204e81d84b52b5a19d16a46f86c9a7d66d37c207b982c21d8d1810757b61bae9101610ee9565b6001600160a01b03831661219757604051634b637e8f60e11b8152600060048201526024016106bc565b6001600160a01b0382166121c15760405163ec442f0560e01b8152600060048201526024016106bc565b611b22838383612411565b6121d760078261253b565b60405133906001600160a01b038316907f5f36f4f5999f34947706fca376b955319b858573bf9d6bc59303c9a4cd80ced090600090a350565b600081848411156122345760405162461bcd60e51b81526004016106bc9190612648565b5060006109b48486612e01565b6001600160a01b03841661226b5760405163e602df0560e01b8152600060048201526024016106bc565b6001600160a01b03831661229557604051634a1406b160e11b8152600060048201526024016106bc565b6001600160a01b038085166000908152600160209081526040808320938716835292905220829055801561231157826001600160a01b0316846001600160a01b03167f8c5be1e5ebec7d5bd14f71427d1e84f3dd0314c0f7b2291e5b200ac8c7c3b9258460405161230891815260200190565b60405180910390a35b50505050565b6123218282611b8f565b6123775760405162461bcd60e51b815260206004820152602160248201527f526f6c65733a206163636f756e7420646f6573206e6f74206861766520726f6c6044820152606560f81b60648201526084016106bc565b6001600160a01b0316600090815260209190915260409020805460ff19169055565b6001600160a01b038381166000908152600160209081526040808320938616835292905220546000198114612311578181101561240257604051637dc7a0d960e11b81526001600160a01b038416600482015260248101829052604481018390526064016106bc565b61231184848484036000612241565b6001600160a01b03831661243c5780600260008282546124319190612dd2565b909155506124ae9050565b6001600160a01b0383166000908152602081905260409020548181101561248f5760405163391434e360e21b81526001600160a01b038516600482015260248101829052604481018390526064016106bc565b6001600160a01b03841660009081526020819052604090209082900390555b6001600160a01b0382166124ca576002805482900390556124e9565b6001600160a01b03821660009081526020819052604090208054820190555b816001600160a01b0316836001600160a01b03167fddf252ad1be2c89b69c2b068fc378daa952ba7f163c4a11628f55a4df523b3ef8360405161252e91815260200190565b60405180910390a3505050565b6125458282611b8f565b156125925760405162461bcd60e51b815260206004820152601f60248201527f526f6c65733a206163636f756e7420616c72656164792068617320726f6c650060448201526064016106bc565b6001600160a01b0316600090815260209190915260409020805460ff19166001179055565b80356001600160a01b038116811461196157600080fd5b600080604083850312156125e157600080fd5b6125ea836125b7565b946020939093013593505050565b60005b838110156126135781810151838201526020016125fb565b50506000910152565b600081518084526126348160208601602086016125f8565b601f01601f19169290920160200192915050565b602081526000610d60602083018461261c565b6000806000806080858703121561267157600080fd5b61267a856125b7565b9350612688602086016125b7565b9250612696604086016125b7565b9396929550929360600135925050565b6000602082840312156126b857600080fd5b610d60826125b7565b6000806000606084860312156126d657600080fd5b6126df846125b7565b92506126ed602085016125b7565b9150604084013590509250925092565b634e487b7160e01b600052604160045260246000fd5b604051601f8201601f1916810167ffffffffffffffff8111828210171561273c5761273c6126fd565b604052919050565b600067ffffffffffffffff82111561275e5761275e6126fd565b50601f01601f191660200190565b60008060006060848603121561278157600080fd5b61278a846125b7565b92506020840135801515811461279f57600080fd5b9150604084013567ffffffffffffffff8111156127bb57600080fd5b8401601f810186136127cc57600080fd5b80356127df6127da82612744565b612713565b8181528760208385010111156127f457600080fd5b816020840160208301376000602083830101528093505050509250925092565b60008060006040848603121561282957600080fd5b612832846125b7565b9250602084013567ffffffffffffffff8082111561284f57600080fd5b818601915086601f83011261286357600080fd5b81358181111561287257600080fd5b87602082850101111561288457600080fd5b6020830194508093505050509250925092565b60ff81168114610a6c57600080fd5b6000602082840312156128b857600080fd5b8135610d6081612897565b600080604083850312156128d657600080fd5b6128df836125b7565b91506128ed602084016125b7565b90509250929050565b600081518084526020808501945080840160005b838110156129265781518752958201959082019060010161290a565b509495945050505050565b60408152600061294460408301856128f6565b82810360208401526109b481856128f6565b82151581526040602082015260006118d8604083018461261c565b60008060006060848603121561298657600080fd5b61298f846125b7565b95602085013595506040909401359392505050565b634e487b7160e01b600052603260045260246000fd5b634e487b7160e01b600052601160045260246000fd5b6000600182016129e2576129e26129ba565b5060010190565b600181811c908216806129fd57607f821691505b60208210810361128d57634e487b7160e01b600052602260045260246000fd5b60208082526029908201527f5472616e736665725265737472696374696f6e7320636f6e7472616374206d756040820152681cdd081899481cd95d60ba1b606082015260800190565b600060208284031215612a7857600080fd5b8151610d6081612897565b6020808252602e908201527f4f776e6572526f6c653a2063616c6c657220646f6573206e6f7420686176652060408201526d746865204f776e657220726f6c6560901b606082015260800190565b600060208284031215612ae357600080fd5b5051919050565b600060208284031215612afc57600080fd5b815167ffffffffffffffff811115612b1357600080fd5b8201601f81018413612b2457600080fd5b8051612b326127da82612744565b818152856020838501011115612b4757600080fd5b6109b48260208301602086016125f8565b601f821115611b2257600081815260208120601f850160051c81016020861015612b7f5750805b601f850160051c820191505b81811015612b9e57828155600101612b8b565b505050505050565b815167ffffffffffffffff811115612bc057612bc06126fd565b612bd481612bce84546129e9565b84612b58565b602080601f831160018114612c095760008415612bf15750858301515b600019600386901b1c1916600185901b178555612b9e565b600085815260208120601f198616915b82811015612c3857888601518255948401946001909101908401612c19565b5085821015612c565787850151600019600388901b60f8161c191681555b5050505050600190811b01905550565b6001600160a01b038416815282151560208201526060604082018190526000906109b49083018461261c565b67ffffffffffffffff831115612caa57612caa6126fd565b612cbe83612cb883546129e9565b83612b58565b6000601f841160018114612cf25760008515612cda5750838201355b600019600387901b1c1916600186901b178355612d4c565b600083815260209020601f19861690835b82811015612d235786850135825560209485019460019092019101612d03565b5086821015612d405760001960f88860031b161c19848701351681555b505060018560011b0183555b5050505050565b60208152816020820152818360408301376000818301604090810191909152601f909201601f19160101919050565b60208082526030908201527f506175736572526f6c653a2063616c6c657220646f6573206e6f74206861766560408201526f207468652050617573657220726f6c6560801b606082015260800190565b8082018082111561086c5761086c6129ba565b60008251612df78184602087016125f8565b9190910192915050565b8181038181111561086c5761086c6129ba56fea2646970667358221220fb09f307b97a2051671e1e2ff38eb6b2c58f1b90af6bdbcaf043066f5e40865d64736f6c63430008140033","linkReferences":{}},"methodIdentifiers":{"addOwner(address)":"7065cb48","addPauser(address)":"82dc1ec4","addRevoker(address)":"961a66f6","addWhitelister(address)":"eaf9144a","allowance(address,address)":"dd62ed3e","approve(address,uint256)":"095ea7b3","balanceOf(address)":"70a08231","checkLockup(address)":"9a6e292f","checkTimelock(address,uint256,uint256)":"c697e4a3","checkWhitelists(address,address)":"99da091d","decimals()":"313ce567","detectTransferFromRestriction(address,address,address,uint256)":"0754cede","detectTransferRestriction(address,address,uint256)":"d4ce1415","getLockedAmount(address)":"929ec537","getRestrictionsAddress()":"05557bd4","getUserType(address)":"8b3f863f","getWhitelistData(address)":"68aa9813","getWhitelistStatus(address)":"d9ba32fc","isOwner(address)":"2f54bf6e","isPauser(address)":"46fbf68e","isRegistered(address)":"c3c5a547","isRevoker(address)":"f6c4b01f","isWhitelister(address)":"7d0c269f","lock(address,uint256,uint256)":"e2ab691d","lockups(address,uint256)":"c93d0b1e","messageForTransferRestriction(uint8)":"7f4ab1dd","mint(address,uint256)":"40c10f19","name()":"06fdde03","pause()":"8456cb59","paused()":"5c975abb","register(address,string)":"32434a2e","release(address,uint256)":"0357371d","removeOwner(address)":"173825d9","removePauser(address)":"6b2c0f55","removeRevoker(address)":"c06f8b94","removeWhitelister(address)":"82c3f79c","revoke(address,uint256)":"eac449d9","setWhitelist(address,bool,string)":"27ac1975","symbol()":"95d89b41","totalSupply()":"18160ddd","transfer(address,uint256)":"a9059cbb","transferFrom(address,address,uint256)":"23b872dd","unpause()":"3f4ba83a","updateTransferRestrictions(address)":"db0cc92a","whitelist(address)":"9b19251a"},"id":24}