{"abi":[{"type":"constructor","inputs":[],"stateMutability":"nonpayable"},{"type":"function","name":"addOwner","inputs":[{"name":"account","type":"address","internalType":"address"}],"outputs":[],"stateMutability":"nonpayable"},{"type":"function","name":"addPauser","inputs":[{"name":"account","type":"address","internalType":"address"}],"outputs":[],"stateMutability":"nonpayable"},{"type":"function","name":"addRevoker","inputs":[{"name":"account","type":"address","internalType":"address"}],"outputs":[],"stateMutability":"nonpayable"},{"type":"function","name":"addWhitelister","inputs":[{"name":"account","type":"address","internalType":"address"}],"outputs":[],"stateMutability":"nonpayable"},{"type":"function","name":"allowance","inputs":[{"name":"owner","type":"address","internalType":"address"},{"name":"spender","type":"address","internalType":"address"}],"outputs":[{"name":"","type":"uint256","internalType":"uint256"}],"stateMutability":"view"},{"type":"function","name":"approve","inputs":[{"name":"spender","type":"address","internalType":"address"},{"name":"value","type":"uint256","internalType":"uint256"}],"outputs":[{"name":"","type":"bool","internalType":"bool"}],"stateMutability":"nonpayable"},{"type":"function","name":"balanceOf","inputs":[{"name":"account","type":"address","internalType":"address"}],"outputs":[{"name":"","type":"uint256","internalType":"uint256"}],"stateMutability":"view"},{"type":"function","name":"checkLockup","inputs":[{"name":"_address","type":"address","internalType":"address"}],"outputs":[{"name":"","type":"uint256[]","internalType":"uint256[]"},{"name":"","type":"uint256[]","internalType":"uint256[]"}],"stateMutability":"view"},{"type":"function","name":"checkTimelock","inputs":[{"name":"_address","type":"address","internalType":"address"},{"name":"amount","type":"uint256","internalType":"uint256"},{"name":"balance","type":"uint256","internalType":"uint256"}],"outputs":[{"name":"","type":"bool","internalType":"bool"}],"stateMutability":"view"},{"type":"function","name":"checkWhitelists","inputs":[{"name":"from","type":"address","internalType":"address"},{"name":"to","type":"address","internalType":"address"}],"outputs":[{"name":"","type":"bool","internalType":"bool"}],"stateMutability":"view"},{"type":"function","name":"decimals","inputs":[],"outputs":[{"name":"","type":"uint8","internalType":"uint8"}],"stateMutability":"view"},{"type":"function","name":"detectTransferFromRestriction","inputs":[{"name":"sender","type":"address","internalType":"address"},{"name":"from","type":"address","internalType":"address"},{"name":"to","type":"address","internalType":"address"},{"name":"amount","type":"uint256","internalType":"uint256"}],"outputs":[{"name":"","type":"uint8","internalType":"uint8"}],"stateMutability":"view"},{"type":"function","name":"detectTransferRestriction","inputs":[{"name":"from","type":"address","internalType":"address"},{"name":"to","type":"address","internalType":"address"},{"name":"amount","type":"uint256","internalType":"uint256"}],"outputs":[{"name":"","type":"uint8","internalType":"uint8"}],"stateMutability":"view"},{"type":"function","name":"getLockedAmount","inputs":[{"name":"_address","type":"address","internalType":"address"}],"outputs":[{"name":"","type":"uint256","internalType":"uint256"}],"stateMutability":"view"},{"type":"function","name":"getRestrictionsAddress","inputs":[],"outputs":[{"name":"","type":"address","internalType":"address"}],"stateMutability":"view"},{"type":"function","name":"getUserType","inputs":[{"name":"_user","type":"address","internalType":"address"}],"outputs":[{"name":"","type":"string","internalType":"string"}],"stateMutability":"view"},{"type":"function","name":"getWhitelistData","inputs":[{"name":"_address","type":"address","internalType":"address"}],"outputs":[{"name":"","type":"string","internalType":"string"}],"stateMutability":"view"},{"type":"function","name":"getWhitelistStatus","inputs":[{"name":"_address","type":"address","internalType":"address"}],"outputs":[{"name":"","type":"bool","internalType":"bool"}],"stateMutability":"view"},{"type":"function","name":"isOwner","inputs":[{"name":"account","type":"address","internalType":"address"}],"outputs":[{"name":"","type":"bool","internalType":"bool"}],"stateMutability":"view"},{"type":"function","name":"isPauser","inputs":[{"name":"account","type":"address","internalType":"address"}],"outputs":[{"name":"","type":"bool","internalType":"bool"}],"stateMutability":"view"},{"type":"function","name":"isRegistered","inputs":[{"name":"_user","type":"address","internalType":"address"}],"outputs":[{"name":"","type":"bool","internalType":"bool"}],"stateMutability":"view"},{"type":"function","name":"isRevoker","inputs":[{"name":"account","type":"address","internalType":"address"}],"outputs":[{"name":"","type":"bool","internalType":"bool"}],"stateMutability":"view"},{"type":"function","name":"isWhitelister","inputs":[{"name":"account","type":"address","internalType":"address"}],"outputs":[{"name":"","type":"bool","internalType":"bool"}],"stateMutability":"view"},{"type":"function","name":"lock","inputs":[{"name":"_address","type":"address","internalType":"address"},{"name":"amount","type":"uint256","internalType":"uint256"},{"name":"releaseTime","type":"uint256","internalType":"uint256"}],"outputs":[{"name":"","type":"bool","internalType":"bool"}],"stateMutability":"nonpayable"},{"type":"function","name":"lockups","inputs":[{"name":"","type":"address","internalType":"address"},{"name":"","type":"uint256","internalType":"uint256"}],"outputs":[{"name":"amount","type":"uint256","internalType":"uint256"},{"name":"releaseTime","type":"uint256","internalType":"uint256"}],"stateMutability":"view"},{"type":"function","name":"messageForTransferRestriction","inputs":[{"name":"restrictionCode","type":"uint8","internalType":"uint8"}],"outputs":[{"name":"","type":"string","internalType":"string"}],"stateMutability":"view"},{"type":"function","name":"mint","inputs":[{"name":"user","type":"address","internalType":"address"},{"name":"amount","type":"uint256","internalType":"uint256"}],"outputs":[],"stateMutability":"nonpayable"},{"type":"function","name":"name","inputs":[],"outputs":[{"name":"","type":"string","internalType":"string"}],"stateMutability":"view"},{"type":"function","name":"pause","inputs":[],"outputs":[],"stateMutability":"nonpayable"},{"type":"function","name":"paused","inputs":[],"outputs":[{"name":"","type":"bool","internalType":"bool"}],"stateMutability":"view"},{"type":"function","name":"register","inputs":[{"name":"_user","type":"address","internalType":"address"},{"name":"_userType","type":"string","internalType":"string"}],"outputs":[],"stateMutability":"nonpayable"},{"type":"function","name":"release","inputs":[{"name":"_address","type":"address","internalType":"address"},{"name":"amountToRelease","type":"uint256","internalType":"uint256"}],"outputs":[{"name":"","type":"bool","internalType":"bool"}],"stateMutability":"nonpayable"},{"type":"function","name":"removeOwner","inputs":[{"name":"account","type":"address","internalType":"address"}],"outputs":[],"stateMutability":"nonpayable"},{"type":"function","name":"removePauser","inputs":[{"name":"account","type":"address","internalType":"address"}],"outputs":[],"stateMutability":"nonpayable"},{"type":"function","name":"removeRevoker","inputs":[{"name":"account","type":"address","internalType":"address"}],"outputs":[],"stateMutability":"nonpayable"},{"type":"function","name":"removeWhitelister","inputs":[{"name":"account","type":"address","internalType":"address"}],"outputs":[],"stateMutability":"nonpayable"},{"type":"function","name":"revoke","inputs":[{"name":"_from","type":"address","internalType":"address"},{"name":"_amount","type":"uint256","internalType":"uint256"}],"outputs":[{"name":"","type":"bool","internalType":"bool"}],"stateMutability":"nonpayable"},{"type":"function","name":"setWhitelist","inputs":[{"name":"to","type":"address","internalType":"address"},{"name":"status","type":"bool","internalType":"bool"},{"name":"data","type":"string","internalType":"string"}],"outputs":[{"name":"","type":"bool","internalType":"bool"}],"stateMutability":"nonpayable"},{"type":"function","name":"symbol","inputs":[],"outputs":[{"name":"","type":"string","internalType":"string"}],"stateMutability":"view"},{"type":"function","name":"totalSupply","inputs":[],"outputs":[{"name":"","type":"uint256","internalType":"uint256"}],"stateMutability":"view"},{"type":"function","name":"transfer","inputs":[{"name":"to","type":"address","internalType":"address"},{"name":"value","type":"uint256","internalType":"uint256"}],"outputs":[{"name":"success","type":"bool","internalType":"bool"}],"stateMutability":"nonpayable"},{"type":"function","name":"transferFrom","inputs":[{"name":"from","type":"address","internalType":"address"},{"name":"to","type":"address","internalType":"address"},{"name":"value","type":"uint256","internalType":"uint256"}],"outputs":[{"name":"success","type":"bool","internalType":"bool"}],"stateMutability":"nonpayable"},{"type":"function","name":"unpause","inputs":[],"outputs":[],"stateMutability":"nonpayable"},{"type":"function","name":"updateTransferRestrictions","inputs":[{"name":"_newRestrictionsAddress","type":"address","internalType":"address"}],"outputs":[{"name":"","type":"bool","internalType":"bool"}],"stateMutability":"nonpayable"},{"type":"function","name":"whitelist","inputs":[{"name":"","type":"address","internalType":"address"}],"outputs":[{"name":"status","type":"bool","internalType":"bool"},{"name":"data","type":"string","internalType":"string"}],"stateMutability":"view"},{"type":"event","name":"AccountLock","inputs":[{"name":"_address","type":"address","indexed":true,"internalType":"address"},{"name":"amount","type":"uint256","indexed":false,"internalType":"uint256"},{"name":"releaseTime","type":"uint256","indexed":false,"internalType":"uint256"}],"anonymous":false},{"type":"event","name":"AccountRelease","inputs":[{"name":"_address","type":"address","indexed":true,"internalType":"address"},{"name":"amount","type":"uint256","indexed":false,"internalType":"uint256"}],"anonymous":false},{"type":"event","name":"Approval","inputs":[{"name":"owner","type":"address","indexed":true,"internalType":"address"},{"name":"spender","type":"address","indexed":true,"internalType":"address"},{"name":"value","type":"uint256","indexed":false,"internalType":"uint256"}],"anonymous":false},{"type":"event","name":"OwnerAdded","inputs":[{"name":"addedOwner","type":"address","indexed":true,"internalType":"address"},{"name":"addedBy","type":"address","indexed":true,"internalType":"address"}],"anonymous":false},{"type":"event","name":"OwnerRemoved","inputs":[{"name":"removedOwner","type":"address","indexed":true,"internalType":"address"},{"name":"removedBy","type":"address","indexed":true,"internalType":"address"}],"anonymous":false},{"type":"event","name":"Paused","inputs":[],"anonymous":false},{"type":"event","name":"PauserAdded","inputs":[{"name":"addedPauser","type":"address","indexed":true,"internalType":"address"},{"name":"addedBy","type":"address","indexed":true,"internalType":"address"}],"anonymous":false},{"type":"event","name":"PauserRemoved","inputs":[{"name":"removedPauser","type":"address","indexed":true,"internalType":"address"},{"name":"removedBy","type":"address","indexed":true,"internalType":"address"}],"anonymous":false},{"type":"event","name":"RestrictionsUpdated","inputs":[{"name":"newRestrictionsAddress","type":"address","indexed":false,"internalType":"address"},{"name":"updatedBy","type":"address","indexed":false,"internalType":"address"}],"anonymous":false},{"type":"event","name":"Revoke","inputs":[{"name":"revoker","type":"address","indexed":true,"internalType":"address"},{"name":"from","type":"address","indexed":true,"internalType":"address"},{"name":"amount","type":"uint256","indexed":false,"internalType":"uint256"}],"anonymous":false},{"type":"event","name":"RevokerAdded","inputs":[{"name":"addedRevoker","type":"address","indexed":true,"internalType":"address"},{"name":"addedBy","type":"address","indexed":true,"internalType":"address"}],"anonymous":false},{"type":"event","name":"RevokerRemoved","inputs":[{"name":"removedRevoker","type":"address","indexed":true,"internalType":"address"},{"name":"removedBy","type":"address","indexed":true,"internalType":"address"}],"anonymous":false},{"type":"event","name":"Transfer","inputs":[{"name":"from","type":"address","indexed":true,"internalType":"address"},{"name":"to","type":"address","indexed":true,"internalType":"address"},{"name":"value","type":"uint256","indexed":false,"internalType":"uint256"}],"anonymous":false},{"type":"event","name":"Unpaused","inputs":[],"anonymous":false},{"type":"event","name":"UserRegistered","inputs":[{"name":"user","type":"address","indexed":true,"internalType":"address"},{"name":"userType","type":"string","indexed":false,"internalType":"string"}],"anonymous":false},{"type":"event","name":"WhitelistUpdate","inputs":[{"name":"_address","type":"address","indexed":false,"internalType":"address"},{"name":"status","type":"bool","indexed":false,"internalType":"bool"},{"name":"data","type":"string","indexed":false,"internalType":"string"}],"anonymous":false},{"type":"event","name":"WhitelisterAdded","inputs":[{"name":"addedWhitelister","type":"address","indexed":true,"internalType":"address"},{"name":"addedBy","type":"address","indexed":true,"internalType":"address"}],"anonymous":false},{"type":"event","name":"WhitelisterRemoved","inputs":[{"name":"removedWhitelister","type":"address","indexed":true,"internalType":"address"},{"name":"removedBy","type":"address","indexed":true,"internalType":"address"}],"anonymous":false},{"type":"error","name":"ERC20InsufficientAllowance","inputs":[{"name":"spender","type":"address","internalType":"address"},{"name":"allowance","type":"uint256","internalType":"uint256"},{"name":"needed","type":"uint256","internalType":"uint256"}]},{"type":"error","name":"ERC20InsufficientBalance","inputs":[{"name":"sender","type":"address","internalType":"address"},{"name":"balance","type":"uint256","internalType":"uint256"},{"name":"needed","type":"uint256","internalType":"uint256"}]},{"type":"error","name":"ERC20InvalidApprover","inputs":[{"name":"approver","type":"address","internalType":"address"}]},{"type":"error","name":"ERC20InvalidReceiver","inputs":[{"name":"receiver","type":"address","internalType":"address"}]},{"type":"error","name":"ERC20InvalidSender","inputs":[{"name":"sender","type":"address","internalType":"address"}]},{"type":"error","name":"ERC20InvalidSpender","inputs":[{"name":"spender","type":"address","internalType":"address"}]}],"bytecode":{"object":"0x60806040523480156200001157600080fd5b506040518060400160405280600c81526020016b283937ba37b7102a37b5b2b760a11b8152506040518060400160405280600481526020016328292a2760e11b815250816003908162000065919062000426565b50600462000074828262000426565b50620000ac91503390506200008c6012600a62000605565b6200009a606460026200061a565b620000a691906200061a565b620000bd565b620000b733620000ff565b6200064a565b6001600160a01b038216620000ed5760405163ec442f0560e01b8152600060048201526024015b60405180910390fd5b620000fb6000838362000145565b5050565b6200010c60058262000278565b60405133906001600160a01b038316907fc82bdbbf677a2462f2a7e22e4ba9abd209496b69cd7b868b3b1d28f76e09a40a90600090a350565b6001600160a01b0383166200017457806002600082825462000168919062000634565b90915550620001e89050565b6001600160a01b03831660009081526020819052604090205481811015620001c95760405163391434e360e21b81526001600160a01b03851660048201526024810182905260448101839052606401620000e4565b6001600160a01b03841660009081526020819052604090209082900390555b6001600160a01b038216620002065760028054829003905562000225565b6001600160a01b03821660009081526020819052604090208054820190555b816001600160a01b0316836001600160a01b03167fddf252ad1be2c89b69c2b068fc378daa952ba7f163c4a11628f55a4df523b3ef836040516200026b91815260200190565b60405180910390a3505050565b620002848282620002f8565b15620002d35760405162461bcd60e51b815260206004820152601f60248201527f526f6c65733a206163636f756e7420616c72656164792068617320726f6c65006044820152606401620000e4565b6001600160a01b0316600090815260209190915260409020805460ff19166001179055565b60006001600160a01b0382166200035d5760405162461bcd60e51b815260206004820152602260248201527f526f6c65733a206163636f756e7420697320746865207a65726f206164647265604482015261737360f01b6064820152608401620000e4565b506001600160a01b03811660009081526020839052604090205460ff165b92915050565b634e487b7160e01b600052604160045260246000fd5b600181811c90821680620003ac57607f821691505b602082108103620003cd57634e487b7160e01b600052602260045260246000fd5b50919050565b601f8211156200042157600081815260208120601f850160051c81016020861015620003fc5750805b601f850160051c820191505b818110156200041d5782815560010162000408565b5050505b505050565b81516001600160401b0381111562000442576200044262000381565b6200045a8162000453845462000397565b84620003d3565b602080601f831160018114620004925760008415620004795750858301515b600019600386901b1c1916600185901b1785556200041d565b600085815260208120601f198616915b82811015620004c357888601518255948401946001909101908401620004a2565b5085821015620004e25787850151600019600388901b60f8161c191681555b5050505050600190811b01905550565b634e487b7160e01b600052601160045260246000fd5b600181815b80851115620005495781600019048211156200052d576200052d620004f2565b808516156200053b57918102915b93841c93908002906200050d565b509250929050565b60008262000562575060016200037b565b8162000571575060006200037b565b81600181146200058a57600281146200059557620005b5565b60019150506200037b565b60ff841115620005a957620005a9620004f2565b50506001821b6200037b565b5060208310610133831016604e8410600b8410161715620005da575081810a6200037b565b620005e6838362000508565b8060001904821115620005fd57620005fd620004f2565b029392505050565b600062000613838362000551565b9392505050565b80820281158282048414176200037b576200037b620004f2565b808201808211156200037b576200037b620004f2565b612d39806200065a6000396000f3fe608060405234801561001057600080fd5b506004361061027f5760003560e01c806382c3f79c1161015c578063c06f8b94116100ce578063db0cc92a11610087578063db0cc92a146105c6578063dd62ed3e146105d9578063e2ab691d14610612578063eac449d914610625578063eaf9144a14610638578063f6c4b01f1461064b57600080fd5b8063c06f8b9414610526578063c3c5a54714610539578063c697e4a31461054c578063c93d0b1e1461055f578063d4ce141514610587578063d9ba32fc1461059a57600080fd5b806395d89b411161012057806395d89b41146104a3578063961a66f6146104ab57806399da091d146104be5780639a6e292f146104d15780639b19251a146104f2578063a9059cbb1461051357600080fd5b806382c3f79c1461044f57806382dc1ec4146104625780638456cb59146104755780638b3f863f1461047d578063929ec5371461049057600080fd5b806332434a2e116101f557806368aa9813116101b957806368aa9813146103c75780636b2c0f55146103da5780637065cb48146103ed57806370a08231146104005780637d0c269f146104295780637f4ab1dd1461043c57600080fd5b806332434a2e1461037b5780633f4ba83a1461038e57806340c10f191461039657806346fbf68e146103a95780635c975abb146103bc57600080fd5b8063173825d911610247578063173825d91461031457806318160ddd1461032957806323b872dd1461033b57806327ac19751461034e5780632f54bf6e14610361578063313ce5671461037457600080fd5b80630357371d1461028457806305557bd4146102ac57806306fdde03146102c75780630754cede146102dc578063095ea7b314610301575b600080fd5b6102976102923660046124b7565b61065e565b60405190151581526020015b60405180910390f35b600d546040516001600160a01b0390911681526020016102a3565b6102cf610872565b6040516102a39190612531565b6102ef6102ea366004612544565b610904565b60405160ff90911681526020016102a3565b61029761030f3660046124b7565b6109bd565b61032761032236600461258f565b6109d5565b005b6002545b6040519081526020016102a3565b6102976103493660046125aa565b610a6f565b61029761035c366004612655565b610c2c565b61029761036f36600461258f565b610d42565b60126102ef565b6103276103893660046126fd565b610d4f565b610327610ed1565b6103276103a43660046124b7565b610f00565b6102976103b736600461258f565b610f33565b600b5460ff16610297565b6102cf6103d536600461258f565b610f40565b6103276103e836600461258f565b610fef565b6103276103fb36600461258f565b61101d565b61032d61040e36600461258f565b6001600160a01b031660009081526020819052604090205490565b61029761043736600461258f565b61104b565b6102cf61044a36600461278f565b611058565b61032761045d36600461258f565b6110cc565b61032761047036600461258f565b6110fa565b610327611128565b6102cf61048b36600461258f565b611155565b61032d61049e36600461258f565b61117c565b6102cf611217565b6103276104b936600461258f565b611226565b6102976104cc3660046127ac565b611254565b6104e46104df36600461258f565b611298565b6040516102a392919061281a565b61050561050036600461258f565b6113f3565b6040516102a392919061283f565b6102976105213660046124b7565b61149c565b61032761053436600461258f565b61164a565b61029761054736600461258f565b611678565b61029761055a36600461285a565b6116a4565b61057261056d3660046124b7565b6116dd565b604080519283526020830191909152016102a3565b6102ef6105953660046125aa565b611719565b6102976105a836600461258f565b6001600160a01b031660009081526008602052604090205460ff1690565b6102976105d436600461258f565b6117c9565b61032d6105e73660046127ac565b6001600160a01b03918216600090815260016020908152604080832093909416825291909152205490565b61029761062036600461285a565b61184f565b6102976106333660046124b7565b61185c565b61032761064636600461258f565b611922565b61029761065936600461258f565b611950565b60006001600160a01b0383166106c55760405162461bcd60e51b815260206004820152602160248201527f41646472657373206d7573742062652076616c696420666f722072656c6561736044820152606560f81b60648201526084015b60405180910390fd5b6001600160a01b0383166000908152600960205260408120815b815481101561082157428282815481106106fb576106fb61288d565b9060005260206000209060020201600101541115801561071a57508483105b1561080f57600061072b868561195d565b9050808383815481106107405761074061288d565b906000526020600020906002020160000154116107b05761078483838154811061076c5761076c61288d565b6000918252602090912060029091020154859061199f565b9350600083838154811061079a5761079a61288d565b600091825260209091206002909102015561080d565b6107dd818484815481106107c6576107c661288d565b60009182526020909120600290910201549061195d565b8383815481106107ef576107ef61288d565b600091825260209091206002909102015561080a848261199f565b93505b505b80610819816128b9565b9150506106df565b50846001600160a01b03167f784c9f4cec58b38461217a62f8f9c0f2cac7b46c0ed23bd1a7f4a5376ac787e18360405161085d91815260200190565b60405180910390a26001925050505b92915050565b606060038054610881906128d2565b80601f01602080910402602001604051908101604052809291908181526020018280546108ad906128d2565b80156108fa5780601f106108cf576101008083540402835291602001916108fa565b820191906000526020600020905b8154815290600101906020018083116108dd57829003601f168201915b5050505050905090565b600d546000906001600160a01b031661092f5760405162461bcd60e51b81526004016106bc9061290c565b600d546040516303aa676f60e11b81526001600160a01b038781166004830152868116602483015285811660448301526064820185905290911690630754cede90608401602060405180830381865afa158015610990573d6000803e3d6000fd5b505050506040513d601f19601f820116820180604052508101906109b49190612955565b95945050505050565b6000336109cb8185856119fe565b5060019392505050565b6109de33610d42565b6109fa5760405162461bcd60e51b81526004016106bc90612972565b6001600160a01b0381163303610a635760405162461bcd60e51b815260206004820152602860248201527f4f776e6572732063616e6e6f742072656d6f7665207468656d73656c7665732060448201526730b99037bbb732b960c11b60648201526084016106bc565b610a6c81611a10565b50565b600d546040516303aa676f60e11b815233600482018190526001600160a01b038087166024840152808616604484015260648301859052600093919287928792879287929190911690630754cede90608401602060405180830381865afa158015610ade573d6000803e3d6000fd5b505050506040513d601f19601f82011682018060405250810190610b029190612955565b9050600d60009054906101000a90046001600160a01b03166001600160a01b0316635ec647596040518163ffffffff1660e01b8152600401602060405180830381865afa158015610b57573d6000803e3d6000fd5b505050506040513d601f19601f82011682018060405250810190610b7b91906129c0565b600d54604051637f4ab1dd60e01b815260ff84166004820181905292909214916001600160a01b0390911690637f4ab1dd90602401600060405180830381865afa158015610bcd573d6000803e3d6000fd5b505050506040513d6000823e601f3d908101601f19168201604052610bf591908101906129d9565b90610c135760405162461bcd60e51b81526004016106bc9190612531565b50610c1f898989611a54565b9998505050505050505050565b6000610c373361104b565b610ca95760405162461bcd60e51b815260206004820152603a60248201527f57686974656c6973746572526f6c653a2063616c6c657220646f6573206e6f7460448201527f2068617665207468652057686974656c697374657220726f6c6500000000000060648201526084016106bc565b604080518082018252841515815260208082018581526001600160a01b038816600090815260089092529290208151815460ff191690151517815591519091906001820190610cf89082612a95565b509050507f461193ae6c23672174f7a3ea35649aacdc857bfcae58cd12d61ea432c05bcbd5848484604051610d2f93929190612b55565b60405180910390a15060015b9392505050565b600061086c600583611a78565b610d5833610d42565b610d745760405162461bcd60e51b81526004016106bc90612972565b6001600160a01b0383166000908152600c602052604090208054610d97906128d2565b159050610de65760405162461bcd60e51b815260206004820152601760248201527f5573657220616c7265616479207265676973746572656400000000000000000060448201526064016106bc565b610e2582828080601f016020809104026020016040519081016040528093929190818152602001838380828437600092019190915250611afb92505050565b610e655760405162461bcd60e51b8152602060048201526011602482015270496e76616c69642075736572207479706560781b60448201526064016106bc565b6001600160a01b0383166000908152600c60205260409020610e88828483612b81565b50826001600160a01b03167f48cac28ad4dc618e15f4c2dd5e97751182f166de97b25618318b2112aa951a2f8383604051610ec4929190612c42565b60405180910390a2505050565b610eda33610f33565b610ef65760405162461bcd60e51b81526004016106bc90612c71565b610efe611cd7565b565b610f0933610d42565b610f255760405162461bcd60e51b81526004016106bc90612972565b610f2f8282611d0c565b5050565b600061086c600a83611a78565b6001600160a01b0381166000908152600860205260409020600101805460609190610f6a906128d2565b80601f0160208091040260200160405190810160405280929190818152602001828054610f96906128d2565b8015610fe35780601f10610fb857610100808354040283529160200191610fe3565b820191906000526020600020905b815481529060010190602001808311610fc657829003601f168201915b50505050509050919050565b610ff833610d42565b6110145760405162461bcd60e51b81526004016106bc90612972565b610a6c81611d42565b61102633610d42565b6110425760405162461bcd60e51b81526004016106bc90612972565b610a6c81611d86565b600061086c600783611a78565b600d54604051637f4ab1dd60e01b815260ff831660048201526060916001600160a01b031690637f4ab1dd90602401600060405180830381865afa1580156110a4573d6000803e3d6000fd5b505050506040513d6000823e601f3d908101601f1916820160405261086c91908101906129d9565b6110d533610d42565b6110f15760405162461bcd60e51b81526004016106bc90612972565b610a6c81611dca565b61110333610d42565b61111f5760405162461bcd60e51b81526004016106bc90612972565b610a6c81611e0e565b61113133610f33565b61114d5760405162461bcd60e51b81526004016106bc90612c71565b610efe611e52565b6001600160a01b0381166000908152600c60205260409020805460609190610f6a906128d2565b6001600160a01b03811660009081526009602052604081208190815b815481101561120e578181815481106111b3576111b361288d565b9060005260206000209060020201600101544210156111fc576111f98282815481106111e1576111e161288d565b6000918252602090912060029091020154849061199f565b92505b80611206816128b9565b915050611198565b50909392505050565b606060048054610881906128d2565b61122f33610d42565b61124b5760405162461bcd60e51b81526004016106bc90612972565b610a6c81611e8a565b6001600160a01b03821660009081526008602052604081205460ff168015610d3b5750506001600160a01b031660009081526008602052604090205460ff16919050565b6001600160a01b0381166000908152600960205260408120805460609283929167ffffffffffffffff8111156112d0576112d06125e6565b6040519080825280602002602001820160405280156112f9578160200160208202803683370190505b50825490915060009067ffffffffffffffff81111561131a5761131a6125e6565b604051908082528060200260200182016040528015611343578160200160208202803683370190505b50905060005b83548110156113e7578381815481106113645761136461288d565b9060005260206000209060020201600001548382815181106113885761138861288d565b6020026020010181815250508381815481106113a6576113a661288d565b9060005260206000209060020201600101548282815181106113ca576113ca61288d565b6020908102919091010152806113df816128b9565b915050611349565b50909590945092505050565b6008602052600090815260409020805460018201805460ff9092169291611419906128d2565b80601f0160208091040260200160405190810160405280929190818152602001828054611445906128d2565b80156114925780601f1061146757610100808354040283529160200191611492565b820191906000526020600020905b81548152906001019060200180831161147557829003601f168201915b5050505050905082565b600d5460405163d4ce141560e01b815233600482018190526001600160a01b03808616602484015260448301859052600093919286928692869291169063d4ce141590606401602060405180830381865afa1580156114ff573d6000803e3d6000fd5b505050506040513d601f19601f820116820180604052508101906115239190612955565b9050600d60009054906101000a90046001600160a01b03166001600160a01b0316635ec647596040518163ffffffff1660e01b8152600401602060405180830381865afa158015611578573d6000803e3d6000fd5b505050506040513d601f19601f8201168201806040525081019061159c91906129c0565b600d54604051637f4ab1dd60e01b815260ff84166004820181905292909214916001600160a01b0390911690637f4ab1dd90602401600060405180830381865afa1580156115ee573d6000803e3d6000fd5b505050506040513d6000823e601f3d908101601f1916820160405261161691908101906129d9565b906116345760405162461bcd60e51b81526004016106bc9190612531565b5061163f8787611ece565b979650505050505050565b61165333610d42565b61166f5760405162461bcd60e51b81526004016106bc90612972565b610a6c81611edc565b6001600160a01b0381166000908152600c60205260408120805461169b906128d2565b15159392505050565b6000806116b08561117c565b9050838310156116c4576000915050610d3b565b60006116d0848361195d565b9094111595945050505050565b600960205281600052604060002081815481106116f957600080fd5b600091825260209091206002909102018054600190910154909250905082565b600d546000906001600160a01b03166117445760405162461bcd60e51b81526004016106bc9061290c565b600d5460405163d4ce141560e01b81526001600160a01b0386811660048301528581166024830152604482018590529091169063d4ce141590606401602060405180830381865afa15801561179d573d6000803e3d6000fd5b505050506040513d601f19601f820116820180604052508101906117c19190612955565b949350505050565b60006117d433610d42565b6117f05760405162461bcd60e51b81526004016106bc90612972565b600d80546001600160a01b0319166001600160a01b038416908117909155604080519182523360208301527f6c0cb4cdcdbedb9d71fdb2e31e3ad5a42fc2cffc2642730034017c04192e3afe910160405180910390a15060015b919050565b60006109cb848484611f20565b600061186733611950565b6118ce5760405162461bcd60e51b815260206004820152603260248201527f5265766f6b6572526f6c653a2063616c6c657220646f6573206e6f74206861766044820152716520746865205265766f6b657220726f6c6560701b60648201526084016106bc565b6118d9833384612056565b6040518281526001600160a01b0384169033907fb698e31a2abee5824d0d7bcfd2339aead7f9e9ae413fba50bf554ff3fa470b7b9060200160405180910390a350600192915050565b61192b33610d42565b6119475760405162461bcd60e51b81526004016106bc90612972565b610a6c816120b5565b600061086c600683611a78565b6000610d3b83836040518060400160405280601e81526020017f536166654d6174683a207375627472616374696f6e206f766572666c6f7700008152506120f9565b6000806119ac8385612cc1565b905083811015610d3b5760405162461bcd60e51b815260206004820152601b60248201527f536166654d6174683a206164646974696f6e206f766572666c6f77000000000060448201526064016106bc565b611a0b838383600161212a565b505050565b611a1b600582612200565b60405133906001600160a01b038316907fe594d081b4382713733fe631966432c9cea5199afb2db5c3c1931f9f9300367990600090a350565b600033611a62858285612282565b611a6d858585612056565b506001949350505050565b60006001600160a01b038216611adb5760405162461bcd60e51b815260206004820152602260248201527f526f6c65733a206163636f756e7420697320746865207a65726f206164647265604482015261737360f01b60648201526084016106bc565b506001600160a01b03166000908152602091909152604090205460ff1690565b6000604051806040016040528060058152602001644e6f6e555360d81b815250604051602001611b2b9190612cd4565b6040516020818303038152906040528051906020012082604051602001611b529190612cd4565b604051602081830303815290604052805190602001201480611be157506040518060400160405280600a8152602001691058d8dc99591a5d195960b21b815250604051602001611ba29190612cd4565b6040516020818303038152906040528051906020012082604051602001611bc99190612cd4565b60405160208183030381529060405280519060200120145b80611c5757506040518060400160405280600881526020016710dbdb9d1c9858dd60c21b815250604051602001611c189190612cd4565b6040516020818303038152906040528051906020012082604051602001611c3f9190612cd4565b60405160208183030381529060405280519060200120145b8061086c57506040518060400160405280600d81526020016c125b9cdd1a5d1d5d1a5bdb985b609a1b815250604051602001611c939190612cd4565b6040516020818303038152906040528051906020012082604051602001611cba9190612cd4565b604051602081830303815290604052805190602001201492915050565b600b805460ff191690556040517fa45f47fdea8a1efdd9029a5691c7f759c32b7c698632b563573e155625d1693390600090a1565b6001600160a01b038216611d365760405163ec442f0560e01b8152600060048201526024016106bc565b610f2f600083836122fa565b611d4d600a82612200565b60405133906001600160a01b038316907fb75903ade4a0fdb07d60c882c22c779e2e1c751883c37aecdcc92a8ec72b046e90600090a350565b611d91600582612424565b60405133906001600160a01b038316907fc82bdbbf677a2462f2a7e22e4ba9abd209496b69cd7b868b3b1d28f76e09a40a90600090a350565b611dd5600782612200565b60405133906001600160a01b038316907f3ed21605dd544629fb45f2ccaedcc095ba1dbea540fb6eaf5493a7479856b0be90600090a350565b611e19600a82612424565b60405133906001600160a01b038316907fe0953c403a52f9dc1fef4202a8d33975c958b727bee0d7b5b328965ddad98d8190600090a350565b600b805460ff191660011790556040517f9e87fac88ff661f02d44f95383c817fece4bce600a3dab7a54406878b965e75290600090a1565b611e95600682612424565b60405133906001600160a01b038316907f2b5f18afd9a7b21f41bf023b012b3d4c8a22a21b79fa425cd4494ecbe297019690600090a350565b6000336109cb818585612056565b611ee7600682612200565b60405133906001600160a01b038316907fb6fe3ab11eb9ab1d9f1d41c8f42a5d72d10122099ba1548e4a6d1a4d8cefec4b90600090a350565b428111611f7e5760405162461bcd60e51b815260206004820152602660248201527f52656c656173652074696d65206e6565647320746f20626520696e207468652060448201526566757475726560d01b60648201526084016106bc565b6001600160a01b038316611fd45760405162461bcd60e51b815260206004820181905260248201527f41646472657373206d7573742062652076616c696420666f72206c6f636b757060448201526064016106bc565b6001600160a01b03831660008181526009602090815260408083208151808301835287815280840187815282546001808201855593875295859020915160029096029091019485555193019290925581518581529081018490527fd204e81d84b52b5a19d16a46f86c9a7d66d37c207b982c21d8d1810757b61bae9101610ec4565b6001600160a01b03831661208057604051634b637e8f60e11b8152600060048201526024016106bc565b6001600160a01b0382166120aa5760405163ec442f0560e01b8152600060048201526024016106bc565b611a0b8383836122fa565b6120c0600782612424565b60405133906001600160a01b038316907f5f36f4f5999f34947706fca376b955319b858573bf9d6bc59303c9a4cd80ced090600090a350565b6000818484111561211d5760405162461bcd60e51b81526004016106bc9190612531565b5060006109b48486612cf0565b6001600160a01b0384166121545760405163e602df0560e01b8152600060048201526024016106bc565b6001600160a01b03831661217e57604051634a1406b160e11b8152600060048201526024016106bc565b6001600160a01b03808516600090815260016020908152604080832093871683529290522082905580156121fa57826001600160a01b0316846001600160a01b03167f8c5be1e5ebec7d5bd14f71427d1e84f3dd0314c0f7b2291e5b200ac8c7c3b925846040516121f191815260200190565b60405180910390a35b50505050565b61220a8282611a78565b6122605760405162461bcd60e51b815260206004820152602160248201527f526f6c65733a206163636f756e7420646f6573206e6f74206861766520726f6c6044820152606560f81b60648201526084016106bc565b6001600160a01b0316600090815260209190915260409020805460ff19169055565b6001600160a01b0383811660009081526001602090815260408083209386168352929052205460001981146121fa57818110156122eb57604051637dc7a0d960e11b81526001600160a01b038416600482015260248101829052604481018390526064016106bc565b6121fa8484848403600061212a565b6001600160a01b03831661232557806002600082825461231a9190612cc1565b909155506123979050565b6001600160a01b038316600090815260208190526040902054818110156123785760405163391434e360e21b81526001600160a01b038516600482015260248101829052604481018390526064016106bc565b6001600160a01b03841660009081526020819052604090209082900390555b6001600160a01b0382166123b3576002805482900390556123d2565b6001600160a01b03821660009081526020819052604090208054820190555b816001600160a01b0316836001600160a01b03167fddf252ad1be2c89b69c2b068fc378daa952ba7f163c4a11628f55a4df523b3ef8360405161241791815260200190565b60405180910390a3505050565b61242e8282611a78565b1561247b5760405162461bcd60e51b815260206004820152601f60248201527f526f6c65733a206163636f756e7420616c72656164792068617320726f6c650060448201526064016106bc565b6001600160a01b0316600090815260209190915260409020805460ff19166001179055565b80356001600160a01b038116811461184a57600080fd5b600080604083850312156124ca57600080fd5b6124d3836124a0565b946020939093013593505050565b60005b838110156124fc5781810151838201526020016124e4565b50506000910152565b6000815180845261251d8160208601602086016124e1565b601f01601f19169290920160200192915050565b602081526000610d3b6020830184612505565b6000806000806080858703121561255a57600080fd5b612563856124a0565b9350612571602086016124a0565b925061257f604086016124a0565b9396929550929360600135925050565b6000602082840312156125a157600080fd5b610d3b826124a0565b6000806000606084860312156125bf57600080fd5b6125c8846124a0565b92506125d6602085016124a0565b9150604084013590509250925092565b634e487b7160e01b600052604160045260246000fd5b604051601f8201601f1916810167ffffffffffffffff81118282101715612625576126256125e6565b604052919050565b600067ffffffffffffffff821115612647576126476125e6565b50601f01601f191660200190565b60008060006060848603121561266a57600080fd5b612673846124a0565b92506020840135801515811461268857600080fd5b9150604084013567ffffffffffffffff8111156126a457600080fd5b8401601f810186136126b557600080fd5b80356126c86126c38261262d565b6125fc565b8181528760208385010111156126dd57600080fd5b816020840160208301376000602083830101528093505050509250925092565b60008060006040848603121561271257600080fd5b61271b846124a0565b9250602084013567ffffffffffffffff8082111561273857600080fd5b818601915086601f83011261274c57600080fd5b81358181111561275b57600080fd5b87602082850101111561276d57600080fd5b6020830194508093505050509250925092565b60ff81168114610a6c57600080fd5b6000602082840312156127a157600080fd5b8135610d3b81612780565b600080604083850312156127bf57600080fd5b6127c8836124a0565b91506127d6602084016124a0565b90509250929050565b600081518084526020808501945080840160005b8381101561280f578151875295820195908201906001016127f3565b509495945050505050565b60408152600061282d60408301856127df565b82810360208401526109b481856127df565b82151581526040602082015260006117c16040830184612505565b60008060006060848603121561286f57600080fd5b612878846124a0565b95602085013595506040909401359392505050565b634e487b7160e01b600052603260045260246000fd5b634e487b7160e01b600052601160045260246000fd5b6000600182016128cb576128cb6128a3565b5060010190565b600181811c908216806128e657607f821691505b60208210810361290657634e487b7160e01b600052602260045260246000fd5b50919050565b60208082526029908201527f5472616e736665725265737472696374696f6e7320636f6e7472616374206d756040820152681cdd081899481cd95d60ba1b606082015260800190565b60006020828403121561296757600080fd5b8151610d3b81612780565b6020808252602e908201527f4f776e6572526f6c653a2063616c6c657220646f6573206e6f7420686176652060408201526d746865204f776e657220726f6c6560901b606082015260800190565b6000602082840312156129d257600080fd5b5051919050565b6000602082840312156129eb57600080fd5b815167ffffffffffffffff811115612a0257600080fd5b8201601f81018413612a1357600080fd5b8051612a216126c38261262d565b818152856020838501011115612a3657600080fd5b6109b48260208301602086016124e1565b601f821115611a0b57600081815260208120601f850160051c81016020861015612a6e5750805b601f850160051c820191505b81811015612a8d57828155600101612a7a565b505050505050565b815167ffffffffffffffff811115612aaf57612aaf6125e6565b612ac381612abd84546128d2565b84612a47565b602080601f831160018114612af85760008415612ae05750858301515b600019600386901b1c1916600185901b178555612a8d565b600085815260208120601f198616915b82811015612b2757888601518255948401946001909101908401612b08565b5085821015612b455787850151600019600388901b60f8161c191681555b5050505050600190811b01905550565b6001600160a01b038416815282151560208201526060604082018190526000906109b490830184612505565b67ffffffffffffffff831115612b9957612b996125e6565b612bad83612ba783546128d2565b83612a47565b6000601f841160018114612be15760008515612bc95750838201355b600019600387901b1c1916600186901b178355612c3b565b600083815260209020601f19861690835b82811015612c125786850135825560209485019460019092019101612bf2565b5086821015612c2f5760001960f88860031b161c19848701351681555b505060018560011b0183555b5050505050565b60208152816020820152818360408301376000818301604090810191909152601f909201601f19160101919050565b60208082526030908201527f506175736572526f6c653a2063616c6c657220646f6573206e6f74206861766560408201526f207468652050617573657220726f6c6560801b606082015260800190565b8082018082111561086c5761086c6128a3565b60008251612ce68184602087016124e1565b9190910192915050565b8181038181111561086c5761086c6128a356fea264697066735822122013f8f3fd1c5d7dfccff0d29472a7a488a95b63b11ad7343c4e2bdd77d40023ec64736f6c63430008140033","linkReferences":{}},"methodIdentifiers":{"addOwner(address)":"7065cb48","addPauser(address)":"82dc1ec4","addRevoker(address)":"961a66f6","addWhitelister(address)":"eaf9144a","allowance(address,address)":"dd62ed3e","approve(address,uint256)":"095ea7b3","balanceOf(address)":"70a08231","checkLockup(address)":"9a6e292f","checkTimelock(address,uint256,uint256)":"c697e4a3","checkWhitelists(address,address)":"99da091d","decimals()":"313ce567","detectTransferFromRestriction(address,address,address,uint256)":"0754cede","detectTransferRestriction(address,address,uint256)":"d4ce1415","getLockedAmount(address)":"929ec537","getRestrictionsAddress()":"05557bd4","getUserType(address)":"8b3f863f","getWhitelistData(address)":"68aa9813","getWhitelistStatus(address)":"d9ba32fc","isOwner(address)":"2f54bf6e","isPauser(address)":"46fbf68e","isRegistered(address)":"c3c5a547","isRevoker(address)":"f6c4b01f","isWhitelister(address)":"7d0c269f","lock(address,uint256,uint256)":"e2ab691d","lockups(address,uint256)":"c93d0b1e","messageForTransferRestriction(uint8)":"7f4ab1dd","mint(address,uint256)":"40c10f19","name()":"06fdde03","pause()":"8456cb59","paused()":"5c975abb","register(address,string)":"32434a2e","release(address,uint256)":"0357371d","removeOwner(address)":"173825d9","removePauser(address)":"6b2c0f55","removeRevoker(address)":"c06f8b94","removeWhitelister(address)":"82c3f79c","revoke(address,uint256)":"eac449d9","setWhitelist(address,bool,string)":"27ac1975","symbol()":"95d89b41","totalSupply()":"18160ddd","transfer(address,uint256)":"a9059cbb","transferFrom(address,address,uint256)":"23b872dd","unpause()":"3f4ba83a","updateTransferRestrictions(address)":"db0cc92a","whitelist(address)":"9b19251a"},"id":37}