{"abi":[{"type":"function","name":"addOwner","inputs":[{"name":"account","type":"address","internalType":"address"}],"outputs":[],"stateMutability":"nonpayable"},{"type":"function","name":"getUserType","inputs":[{"name":"_user","type":"address","internalType":"address"}],"outputs":[{"name":"","type":"string","internalType":"string"}],"stateMutability":"view"},{"type":"function","name":"isOwner","inputs":[{"name":"account","type":"address","internalType":"address"}],"outputs":[{"name":"","type":"bool","internalType":"bool"}],"stateMutability":"view"},{"type":"function","name":"isRegistered","inputs":[{"name":"_user","type":"address","internalType":"address"}],"outputs":[{"name":"","type":"bool","internalType":"bool"}],"stateMutability":"view"},{"type":"function","name":"register","inputs":[{"name":"_user","type":"address","internalType":"address"},{"name":"_userType","type":"string","internalType":"string"}],"outputs":[],"stateMutability":"nonpayable"},{"type":"function","name":"removeOwner","inputs":[{"name":"account","type":"address","internalType":"address"}],"outputs":[],"stateMutability":"nonpayable"},{"type":"event","name":"OwnerAdded","inputs":[{"name":"addedOwner","type":"address","indexed":true,"internalType":"address"},{"name":"addedBy","type":"address","indexed":true,"internalType":"address"}],"anonymous":false},{"type":"event","name":"OwnerRemoved","inputs":[{"name":"removedOwner","type":"address","indexed":true,"internalType":"address"},{"name":"removedBy","type":"address","indexed":true,"internalType":"address"}],"anonymous":false},{"type":"event","name":"UserRegistered","inputs":[{"name":"user","type":"address","indexed":true,"internalType":"address"},{"name":"userType","type":"string","indexed":false,"internalType":"string"}],"anonymous":false}],"bytecode":{"object":"0x608060405234801561001057600080fd5b50610b66806100206000396000f3fe608060405234801561001057600080fd5b50600436106100625760003560e01c8063173825d9146100675780632f54bf6e1461007c57806332434a2e146100a45780637065cb48146100b75780638b3f863f146100ca578063c3c5a547146100ea575b600080fd5b61007a61007536600461083b565b6100fd565b005b61008f61008a36600461083b565b6101a0565b60405190151581526020015b60405180910390f35b61007a6100b236600461085d565b6101b2565b61007a6100c536600461083b565b610334565b6100dd6100d836600461083b565b610362565b60405161009b9190610904565b61008f6100f836600461083b565b61040e565b610106336101a0565b61012b5760405162461bcd60e51b815260040161012290610937565b60405180910390fd5b6001600160a01b03811633036101945760405162461bcd60e51b815260206004820152602860248201527f4f776e6572732063616e6e6f742072656d6f7665207468656d73656c7665732060448201526730b99037bbb732b960c11b6064820152608401610122565b61019d8161043a565b50565b60006101ac818361047e565b92915050565b6101bb336101a0565b6101d75760405162461bcd60e51b815260040161012290610937565b6001600160a01b038316600090815260016020526040902080546101fa90610985565b1590506102495760405162461bcd60e51b815260206004820152601760248201527f5573657220616c726561647920726567697374657265640000000000000000006044820152606401610122565b61028882828080601f01602080910402602001604051908101604052809392919081815260200183838082843760009201919091525061050192505050565b6102c85760405162461bcd60e51b8152602060048201526011602482015270496e76616c69642075736572207479706560781b6044820152606401610122565b6001600160a01b03831660009081526001602052604090206102eb828483610a24565b50826001600160a01b03167f48cac28ad4dc618e15f4c2dd5e97751182f166de97b25618318b2112aa951a2f8383604051610327929190610ae5565b60405180910390a2505050565b61033d336101a0565b6103595760405162461bcd60e51b815260040161012290610937565b61019d816106dd565b6001600160a01b038116600090815260016020526040902080546060919061038990610985565b80601f01602080910402602001604051908101604052809291908181526020018280546103b590610985565b80156104025780601f106103d757610100808354040283529160200191610402565b820191906000526020600020905b8154815290600101906020018083116103e557829003601f168201915b50505050509050919050565b6001600160a01b0381166000908152600160205260408120805461043190610985565b15159392505050565b610445600082610721565b60405133906001600160a01b038316907fe594d081b4382713733fe631966432c9cea5199afb2db5c3c1931f9f9300367990600090a350565b60006001600160a01b0382166104e15760405162461bcd60e51b815260206004820152602260248201527f526f6c65733a206163636f756e7420697320746865207a65726f206164647265604482015261737360f01b6064820152608401610122565b506001600160a01b03166000908152602091909152604090205460ff1690565b6000604051806040016040528060058152602001644e6f6e555360d81b8152506040516020016105319190610b14565b60405160208183030381529060405280519060200120826040516020016105589190610b14565b6040516020818303038152906040528051906020012014806105e757506040518060400160405280600a8152602001691058d8dc99591a5d195960b21b8152506040516020016105a89190610b14565b60405160208183030381529060405280519060200120826040516020016105cf9190610b14565b60405160208183030381529060405280519060200120145b8061065d57506040518060400160405280600881526020016710dbdb9d1c9858dd60c21b81525060405160200161061e9190610b14565b60405160208183030381529060405280519060200120826040516020016106459190610b14565b60405160208183030381529060405280519060200120145b806101ac57506040518060400160405280600d81526020016c125b9cdd1a5d1d5d1a5bdb985b609a1b8152506040516020016106999190610b14565b60405160208183030381529060405280519060200120826040516020016106c09190610b14565b604051602081830303815290604052805190602001201492915050565b6106e86000826107a3565b60405133906001600160a01b038316907fc82bdbbf677a2462f2a7e22e4ba9abd209496b69cd7b868b3b1d28f76e09a40a90600090a350565b61072b828261047e565b6107815760405162461bcd60e51b815260206004820152602160248201527f526f6c65733a206163636f756e7420646f6573206e6f74206861766520726f6c6044820152606560f81b6064820152608401610122565b6001600160a01b0316600090815260209190915260409020805460ff19169055565b6107ad828261047e565b156107fa5760405162461bcd60e51b815260206004820152601f60248201527f526f6c65733a206163636f756e7420616c72656164792068617320726f6c65006044820152606401610122565b6001600160a01b0316600090815260209190915260409020805460ff19166001179055565b80356001600160a01b038116811461083657600080fd5b919050565b60006020828403121561084d57600080fd5b6108568261081f565b9392505050565b60008060006040848603121561087257600080fd5b61087b8461081f565b9250602084013567ffffffffffffffff8082111561089857600080fd5b818601915086601f8301126108ac57600080fd5b8135818111156108bb57600080fd5b8760208285010111156108cd57600080fd5b6020830194508093505050509250925092565b60005b838110156108fb5781810151838201526020016108e3565b50506000910152565b60208152600082518060208401526109238160408501602087016108e0565b601f01601f19169190910160400192915050565b6020808252602e908201527f4f776e6572526f6c653a2063616c6c657220646f6573206e6f7420686176652060408201526d746865204f776e657220726f6c6560901b606082015260800190565b600181811c9082168061099957607f821691505b6020821081036109b957634e487b7160e01b600052602260045260246000fd5b50919050565b634e487b7160e01b600052604160045260246000fd5b601f821115610a1f57600081815260208120601f850160051c810160208610156109fc5750805b601f850160051c820191505b81811015610a1b57828155600101610a08565b5050505b505050565b67ffffffffffffffff831115610a3c57610a3c6109bf565b610a5083610a4a8354610985565b836109d5565b6000601f841160018114610a845760008515610a6c5750838201355b600019600387901b1c1916600186901b178355610ade565b600083815260209020601f19861690835b82811015610ab55786850135825560209485019460019092019101610a95565b5086821015610ad25760001960f88860031b161c19848701351681555b505060018560011b0183555b5050505050565b60208152816020820152818360408301376000818301604090810191909152601f909201601f19160101919050565b60008251610b268184602087016108e0565b919091019291505056fea264697066735822122027996d643b9de0eb852f26b3079061c0963635cabbae92fc8ef96773731ab94064736f6c63430008140033","linkReferences":{}},"methodIdentifiers":{"addOwner(address)":"7065cb48","getUserType(address)":"8b3f863f","isOwner(address)":"2f54bf6e","isRegistered(address)":"c3c5a547","register(address,string)":"32434a2e","removeOwner(address)":"173825d9"},"id":37}