{"abi":[{"type":"function","name":"addOwner","inputs":[{"name":"account","type":"address","internalType":"address"}],"outputs":[],"stateMutability":"nonpayable"},{"type":"function","name":"isOwner","inputs":[{"name":"account","type":"address","internalType":"address"}],"outputs":[{"name":"","type":"bool","internalType":"bool"}],"stateMutability":"view"},{"type":"function","name":"removeOwner","inputs":[{"name":"account","type":"address","internalType":"address"}],"outputs":[],"stateMutability":"nonpayable"},{"type":"event","name":"OwnerAdded","inputs":[{"name":"addedOwner","type":"address","indexed":true,"internalType":"address"},{"name":"addedBy","type":"address","indexed":true,"internalType":"address"}],"anonymous":false},{"type":"event","name":"OwnerRemoved","inputs":[{"name":"removedOwner","type":"address","indexed":true,"internalType":"address"},{"name":"removedBy","type":"address","indexed":true,"internalType":"address"}],"anonymous":false}],"bytecode":{"object":"0x608060405234801561001057600080fd5b50610435806100206000396000f3fe608060405234801561001057600080fd5b50600436106100415760003560e01c8063173825d9146100465780632f54bf6e1461005b5780637065cb4814610082575b600080fd5b610059610054366004610381565b610095565b005b61006e610069366004610381565b610138565b604051901515815260200160405180910390f35b610059610090366004610381565b61014a565b61009e33610138565b6100c35760405162461bcd60e51b81526004016100ba906103b1565b60405180910390fd5b6001600160a01b038116330361012c5760405162461bcd60e51b815260206004820152602860248201527f4f776e6572732063616e6e6f742072656d6f7665207468656d73656c7665732060448201526730b99037bbb732b960c11b60648201526084016100ba565b61013581610178565b50565b600061014481836101bc565b92915050565b61015333610138565b61016f5760405162461bcd60e51b81526004016100ba906103b1565b6101358161023f565b610183600082610283565b60405133906001600160a01b038316907fe594d081b4382713733fe631966432c9cea5199afb2db5c3c1931f9f9300367990600090a350565b60006001600160a01b03821661021f5760405162461bcd60e51b815260206004820152602260248201527f526f6c65733a206163636f756e7420697320746865207a65726f206164647265604482015261737360f01b60648201526084016100ba565b506001600160a01b03166000908152602091909152604090205460ff1690565b61024a600082610305565b60405133906001600160a01b038316907fc82bdbbf677a2462f2a7e22e4ba9abd209496b69cd7b868b3b1d28f76e09a40a90600090a350565b61028d82826101bc565b6102e35760405162461bcd60e51b815260206004820152602160248201527f526f6c65733a206163636f756e7420646f6573206e6f74206861766520726f6c6044820152606560f81b60648201526084016100ba565b6001600160a01b0316600090815260209190915260409020805460ff19169055565b61030f82826101bc565b1561035c5760405162461bcd60e51b815260206004820152601f60248201527f526f6c65733a206163636f756e7420616c72656164792068617320726f6c650060448201526064016100ba565b6001600160a01b0316600090815260209190915260409020805460ff19166001179055565b60006020828403121561039357600080fd5b81356001600160a01b03811681146103aa57600080fd5b9392505050565b6020808252602e908201527f4f776e6572526f6c653a2063616c6c657220646f6573206e6f7420686176652060408201526d746865204f776e657220726f6c6560901b60608201526080019056fea2646970667358221220161afd7e8bb46f7b5df62e99bd9d23c1fc4015a006d3114c957bdad748c4c1e264736f6c63430008140033","linkReferences":{}},"methodIdentifiers":{"addOwner(address)":"7065cb48","isOwner(address)":"2f54bf6e","removeOwner(address)":"173825d9"},"id":40}