{"abi":[{"type":"constructor","inputs":[],"stateMutability":"nonpayable"},{"type":"function","name":"addOwner","inputs":[{"name":"account","type":"address","internalType":"address"}],"outputs":[],"stateMutability":"nonpayable"},{"type":"function","name":"addPauser","inputs":[{"name":"account","type":"address","internalType":"address"}],"outputs":[],"stateMutability":"nonpayable"},{"type":"function","name":"addRevoker","inputs":[{"name":"account","type":"address","internalType":"address"}],"outputs":[],"stateMutability":"nonpayable"},{"type":"function","name":"addWhitelister","inputs":[{"name":"account","type":"address","internalType":"address"}],"outputs":[],"stateMutability":"nonpayable"},{"type":"function","name":"allowance","inputs":[{"name":"owner","type":"address","internalType":"address"},{"name":"spender","type":"address","internalType":"address"}],"outputs":[{"name":"","type":"uint256","internalType":"uint256"}],"stateMutability":"view"},{"type":"function","name":"approve","inputs":[{"name":"spender","type":"address","internalType":"address"},{"name":"value","type":"uint256","internalType":"uint256"}],"outputs":[{"name":"","type":"bool","internalType":"bool"}],"stateMutability":"nonpayable"},{"type":"function","name":"balanceOf","inputs":[{"name":"account","type":"address","internalType":"address"}],"outputs":[{"name":"","type":"uint256","internalType":"uint256"}],"stateMutability":"view"},{"type":"function","name":"burn","inputs":[{"name":"_from","type":"address","internalType":"address"},{"name":"_amount","type":"uint256","internalType":"uint256"}],"outputs":[{"name":"","type":"bool","internalType":"bool"}],"stateMutability":"nonpayable"},{"type":"function","name":"checkLockup","inputs":[{"name":"_address","type":"address","internalType":"address"}],"outputs":[{"name":"","type":"uint256[]","internalType":"uint256[]"},{"name":"","type":"uint256[]","internalType":"uint256[]"}],"stateMutability":"view"},{"type":"function","name":"checkTimelock","inputs":[{"name":"_address","type":"address","internalType":"address"},{"name":"amount","type":"uint256","internalType":"uint256"},{"name":"balance","type":"uint256","internalType":"uint256"}],"outputs":[{"name":"","type":"bool","internalType":"bool"}],"stateMutability":"view"},{"type":"function","name":"checkWhitelists","inputs":[{"name":"from","type":"address","internalType":"address"},{"name":"to","type":"address","internalType":"address"}],"outputs":[{"name":"","type":"bool","internalType":"bool"}],"stateMutability":"view"},{"type":"function","name":"decimals","inputs":[],"outputs":[{"name":"","type":"uint8","internalType":"uint8"}],"stateMutability":"view"},{"type":"function","name":"detectTransferFromRestriction","inputs":[{"name":"sender","type":"address","internalType":"address"},{"name":"from","type":"address","internalType":"address"},{"name":"to","type":"address","internalType":"address"},{"name":"amount","type":"uint256","internalType":"uint256"}],"outputs":[{"name":"","type":"uint8","internalType":"uint8"}],"stateMutability":"view"},{"type":"function","name":"detectTransferRestriction","inputs":[{"name":"from","type":"address","internalType":"address"},{"name":"to","type":"address","internalType":"address"},{"name":"amount","type":"uint256","internalType":"uint256"}],"outputs":[{"name":"","type":"uint8","internalType":"uint8"}],"stateMutability":"view"},{"type":"function","name":"getLockedAmount","inputs":[{"name":"_address","type":"address","internalType":"address"}],"outputs":[{"name":"","type":"uint256","internalType":"uint256"}],"stateMutability":"view"},{"type":"function","name":"getRestrictionsAddress","inputs":[],"outputs":[{"name":"","type":"address","internalType":"address"}],"stateMutability":"view"},{"type":"function","name":"getUserType","inputs":[{"name":"_user","type":"address","internalType":"address"}],"outputs":[{"name":"","type":"string","internalType":"string"}],"stateMutability":"view"},{"type":"function","name":"getWhitelistData","inputs":[{"name":"_address","type":"address","internalType":"address"}],"outputs":[{"name":"","type":"string","internalType":"string"}],"stateMutability":"view"},{"type":"function","name":"getWhitelistStatus","inputs":[{"name":"_address","type":"address","internalType":"address"}],"outputs":[{"name":"","type":"bool","internalType":"bool"}],"stateMutability":"view"},{"type":"function","name":"isOwner","inputs":[{"name":"account","type":"address","internalType":"address"}],"outputs":[{"name":"","type":"bool","internalType":"bool"}],"stateMutability":"view"},{"type":"function","name":"isPauser","inputs":[{"name":"account","type":"address","internalType":"address"}],"outputs":[{"name":"","type":"bool","internalType":"bool"}],"stateMutability":"view"},{"type":"function","name":"isRegistered","inputs":[{"name":"_user","type":"address","internalType":"address"}],"outputs":[{"name":"","type":"bool","internalType":"bool"}],"stateMutability":"view"},{"type":"function","name":"isRevoker","inputs":[{"name":"account","type":"address","internalType":"address"}],"outputs":[{"name":"","type":"bool","internalType":"bool"}],"stateMutability":"view"},{"type":"function","name":"isWhitelister","inputs":[{"name":"account","type":"address","internalType":"address"}],"outputs":[{"name":"","type":"bool","internalType":"bool"}],"stateMutability":"view"},{"type":"function","name":"lock","inputs":[{"name":"_address","type":"address","internalType":"address"},{"name":"amount","type":"uint256","internalType":"uint256"},{"name":"releaseTime","type":"uint256","internalType":"uint256"}],"outputs":[{"name":"","type":"bool","internalType":"bool"}],"stateMutability":"nonpayable"},{"type":"function","name":"lockups","inputs":[{"name":"","type":"address","internalType":"address"},{"name":"","type":"uint256","internalType":"uint256"}],"outputs":[{"name":"amount","type":"uint256","internalType":"uint256"},{"name":"releaseTime","type":"uint256","internalType":"uint256"}],"stateMutability":"view"},{"type":"function","name":"messageForTransferRestriction","inputs":[{"name":"restrictionCode","type":"uint8","internalType":"uint8"}],"outputs":[{"name":"","type":"string","internalType":"string"}],"stateMutability":"view"},{"type":"function","name":"mint","inputs":[{"name":"user","type":"address","internalType":"address"},{"name":"amount","type":"uint256","internalType":"uint256"}],"outputs":[],"stateMutability":"nonpayable"},{"type":"function","name":"name","inputs":[],"outputs":[{"name":"","type":"string","internalType":"string"}],"stateMutability":"view"},{"type":"function","name":"pause","inputs":[],"outputs":[],"stateMutability":"nonpayable"},{"type":"function","name":"paused","inputs":[],"outputs":[{"name":"","type":"bool","internalType":"bool"}],"stateMutability":"view"},{"type":"function","name":"register","inputs":[{"name":"_user","type":"address","internalType":"address"},{"name":"_userType","type":"string","internalType":"string"}],"outputs":[],"stateMutability":"nonpayable"},{"type":"function","name":"release","inputs":[{"name":"_address","type":"address","internalType":"address"},{"name":"amountToRelease","type":"uint256","internalType":"uint256"}],"outputs":[{"name":"","type":"bool","internalType":"bool"}],"stateMutability":"nonpayable"},{"type":"function","name":"removeOwner","inputs":[{"name":"account","type":"address","internalType":"address"}],"outputs":[],"stateMutability":"nonpayable"},{"type":"function","name":"removePauser","inputs":[{"name":"account","type":"address","internalType":"address"}],"outputs":[],"stateMutability":"nonpayable"},{"type":"function","name":"removeRevoker","inputs":[{"name":"account","type":"address","internalType":"address"}],"outputs":[],"stateMutability":"nonpayable"},{"type":"function","name":"removeWhitelister","inputs":[{"name":"account","type":"address","internalType":"address"}],"outputs":[],"stateMutability":"nonpayable"},{"type":"function","name":"revoke","inputs":[{"name":"_from","type":"address","internalType":"address"},{"name":"_amount","type":"uint256","internalType":"uint256"}],"outputs":[{"name":"","type":"bool","internalType":"bool"}],"stateMutability":"nonpayable"},{"type":"function","name":"setWhitelist","inputs":[{"name":"to","type":"address","internalType":"address"},{"name":"status","type":"bool","internalType":"bool"},{"name":"data","type":"string","internalType":"string"}],"outputs":[{"name":"","type":"bool","internalType":"bool"}],"stateMutability":"nonpayable"},{"type":"function","name":"symbol","inputs":[],"outputs":[{"name":"","type":"string","internalType":"string"}],"stateMutability":"view"},{"type":"function","name":"totalSupply","inputs":[],"outputs":[{"name":"","type":"uint256","internalType":"uint256"}],"stateMutability":"view"},{"type":"function","name":"transfer","inputs":[{"name":"to","type":"address","internalType":"address"},{"name":"value","type":"uint256","internalType":"uint256"}],"outputs":[{"name":"success","type":"bool","internalType":"bool"}],"stateMutability":"nonpayable"},{"type":"function","name":"transferFrom","inputs":[{"name":"from","type":"address","internalType":"address"},{"name":"to","type":"address","internalType":"address"},{"name":"value","type":"uint256","internalType":"uint256"}],"outputs":[{"name":"success","type":"bool","internalType":"bool"}],"stateMutability":"nonpayable"},{"type":"function","name":"unpause","inputs":[],"outputs":[],"stateMutability":"nonpayable"},{"type":"function","name":"updateTransferRestrictions","inputs":[{"name":"_newRestrictionsAddress","type":"address","internalType":"address"}],"outputs":[{"name":"","type":"bool","internalType":"bool"}],"stateMutability":"nonpayable"},{"type":"function","name":"whitelist","inputs":[{"name":"","type":"address","internalType":"address"}],"outputs":[{"name":"status","type":"bool","internalType":"bool"},{"name":"data","type":"string","internalType":"string"}],"stateMutability":"view"},{"type":"event","name":"AccountLock","inputs":[{"name":"_address","type":"address","indexed":true,"internalType":"address"},{"name":"amount","type":"uint256","indexed":false,"internalType":"uint256"},{"name":"releaseTime","type":"uint256","indexed":false,"internalType":"uint256"}],"anonymous":false},{"type":"event","name":"AccountRelease","inputs":[{"name":"_address","type":"address","indexed":true,"internalType":"address"},{"name":"amount","type":"uint256","indexed":false,"internalType":"uint256"}],"anonymous":false},{"type":"event","name":"Approval","inputs":[{"name":"owner","type":"address","indexed":true,"internalType":"address"},{"name":"spender","type":"address","indexed":true,"internalType":"address"},{"name":"value","type":"uint256","indexed":false,"internalType":"uint256"}],"anonymous":false},{"type":"event","name":"OwnerAdded","inputs":[{"name":"addedOwner","type":"address","indexed":true,"internalType":"address"},{"name":"addedBy","type":"address","indexed":true,"internalType":"address"}],"anonymous":false},{"type":"event","name":"OwnerRemoved","inputs":[{"name":"removedOwner","type":"address","indexed":true,"internalType":"address"},{"name":"removedBy","type":"address","indexed":true,"internalType":"address"}],"anonymous":false},{"type":"event","name":"Paused","inputs":[],"anonymous":false},{"type":"event","name":"PauserAdded","inputs":[{"name":"addedPauser","type":"address","indexed":true,"internalType":"address"},{"name":"addedBy","type":"address","indexed":true,"internalType":"address"}],"anonymous":false},{"type":"event","name":"PauserRemoved","inputs":[{"name":"removedPauser","type":"address","indexed":true,"internalType":"address"},{"name":"removedBy","type":"address","indexed":true,"internalType":"address"}],"anonymous":false},{"type":"event","name":"RestrictionsUpdated","inputs":[{"name":"newRestrictionsAddress","type":"address","indexed":false,"internalType":"address"},{"name":"updatedBy","type":"address","indexed":false,"internalType":"address"}],"anonymous":false},{"type":"event","name":"Revoke","inputs":[{"name":"revoker","type":"address","indexed":true,"internalType":"address"},{"name":"from","type":"address","indexed":true,"internalType":"address"},{"name":"amount","type":"uint256","indexed":false,"internalType":"uint256"}],"anonymous":false},{"type":"event","name":"RevokerAdded","inputs":[{"name":"addedRevoker","type":"address","indexed":true,"internalType":"address"},{"name":"addedBy","type":"address","indexed":true,"internalType":"address"}],"anonymous":false},{"type":"event","name":"RevokerRemoved","inputs":[{"name":"removedRevoker","type":"address","indexed":true,"internalType":"address"},{"name":"removedBy","type":"address","indexed":true,"internalType":"address"}],"anonymous":false},{"type":"event","name":"Transfer","inputs":[{"name":"from","type":"address","indexed":true,"internalType":"address"},{"name":"to","type":"address","indexed":true,"internalType":"address"},{"name":"value","type":"uint256","indexed":false,"internalType":"uint256"}],"anonymous":false},{"type":"event","name":"Unpaused","inputs":[],"anonymous":false},{"type":"event","name":"UserRegistered","inputs":[{"name":"user","type":"address","indexed":true,"internalType":"address"},{"name":"userType","type":"string","indexed":false,"internalType":"string"}],"anonymous":false},{"type":"event","name":"WhitelistUpdate","inputs":[{"name":"_address","type":"address","indexed":false,"internalType":"address"},{"name":"status","type":"bool","indexed":false,"internalType":"bool"},{"name":"data","type":"string","indexed":false,"internalType":"string"}],"anonymous":false},{"type":"event","name":"WhitelisterAdded","inputs":[{"name":"addedWhitelister","type":"address","indexed":true,"internalType":"address"},{"name":"addedBy","type":"address","indexed":true,"internalType":"address"}],"anonymous":false},{"type":"event","name":"WhitelisterRemoved","inputs":[{"name":"removedWhitelister","type":"address","indexed":true,"internalType":"address"},{"name":"removedBy","type":"address","indexed":true,"internalType":"address"}],"anonymous":false},{"type":"error","name":"ERC20InsufficientAllowance","inputs":[{"name":"spender","type":"address","internalType":"address"},{"name":"allowance","type":"uint256","internalType":"uint256"},{"name":"needed","type":"uint256","internalType":"uint256"}]},{"type":"error","name":"ERC20InsufficientBalance","inputs":[{"name":"sender","type":"address","internalType":"address"},{"name":"balance","type":"uint256","internalType":"uint256"},{"name":"needed","type":"uint256","internalType":"uint256"}]},{"type":"error","name":"ERC20InvalidApprover","inputs":[{"name":"approver","type":"address","internalType":"address"}]},{"type":"error","name":"ERC20InvalidReceiver","inputs":[{"name":"receiver","type":"address","internalType":"address"}]},{"type":"error","name":"ERC20InvalidSender","inputs":[{"name":"sender","type":"address","internalType":"address"}]},{"type":"error","name":"ERC20InvalidSpender","inputs":[{"name":"spender","type":"address","internalType":"address"}]}],"bytecode":{"object":"0x60806040523480156200001157600080fd5b506040518060400160405280600c81526020016b283937ba37b7102a37b5b2b760a11b8152506040518060400160405280600481526020016328292a2760e11b815250816003908162000065919062000426565b50600462000074828262000426565b50620000ac91503390506200008c6012600a62000605565b6200009a606460026200061a565b620000a691906200061a565b620000bd565b620000b733620000ff565b6200064a565b6001600160a01b038216620000ed5760405163ec442f0560e01b8152600060048201526024015b60405180910390fd5b620000fb6000838362000145565b5050565b6200010c60058262000278565b60405133906001600160a01b038316907fc82bdbbf677a2462f2a7e22e4ba9abd209496b69cd7b868b3b1d28f76e09a40a90600090a350565b6001600160a01b0383166200017457806002600082825462000168919062000634565b90915550620001e89050565b6001600160a01b03831660009081526020819052604090205481811015620001c95760405163391434e360e21b81526001600160a01b03851660048201526024810182905260448101839052606401620000e4565b6001600160a01b03841660009081526020819052604090209082900390555b6001600160a01b038216620002065760028054829003905562000225565b6001600160a01b03821660009081526020819052604090208054820190555b816001600160a01b0316836001600160a01b03167fddf252ad1be2c89b69c2b068fc378daa952ba7f163c4a11628f55a4df523b3ef836040516200026b91815260200190565b60405180910390a3505050565b620002848282620002f8565b15620002d35760405162461bcd60e51b815260206004820152601f60248201527f526f6c65733a206163636f756e7420616c72656164792068617320726f6c65006044820152606401620000e4565b6001600160a01b0316600090815260209190915260409020805460ff19166001179055565b60006001600160a01b0382166200035d5760405162461bcd60e51b815260206004820152602260248201527f526f6c65733a206163636f756e7420697320746865207a65726f206164647265604482015261737360f01b6064820152608401620000e4565b506001600160a01b03811660009081526020839052604090205460ff165b92915050565b634e487b7160e01b600052604160045260246000fd5b600181811c90821680620003ac57607f821691505b602082108103620003cd57634e487b7160e01b600052602260045260246000fd5b50919050565b601f8211156200042157600081815260208120601f850160051c81016020861015620003fc5750805b601f850160051c820191505b818110156200041d5782815560010162000408565b5050505b505050565b81516001600160401b0381111562000442576200044262000381565b6200045a8162000453845462000397565b84620003d3565b602080601f831160018114620004925760008415620004795750858301515b600019600386901b1c1916600185901b1785556200041d565b600085815260208120601f198616915b82811015620004c357888601518255948401946001909101908401620004a2565b5085821015620004e25787850151600019600388901b60f8161c191681555b5050505050600190811b01905550565b634e487b7160e01b600052601160045260246000fd5b600181815b80851115620005495781600019048211156200052d576200052d620004f2565b808516156200053b57918102915b93841c93908002906200050d565b509250929050565b60008262000562575060016200037b565b8162000571575060006200037b565b81600181146200058a57600281146200059557620005b5565b60019150506200037b565b60ff841115620005a957620005a9620004f2565b50506001821b6200037b565b5060208310610133831016604e8410600b8410161715620005da575081810a6200037b565b620005e6838362000508565b8060001904821115620005fd57620005fd620004f2565b029392505050565b600062000613838362000551565b9392505050565b80820281158282048414176200037b576200037b620004f2565b808201808211156200037b576200037b620004f2565b612d32806200065a6000396000f3fe608060405234801561001057600080fd5b506004361061028a5760003560e01c806382dc1ec41161015c578063c06f8b94116100ce578063db0cc92a11610087578063db0cc92a146105fe578063dd62ed3e14610611578063e2ab691d1461064a578063eac449d91461065d578063eaf9144a14610670578063f6c4b01f1461068357600080fd5b8063c06f8b941461055e578063c3c5a54714610571578063c697e4a314610584578063c93d0b1e14610597578063d4ce1415146105bf578063d9ba32fc146105d257600080fd5b8063961a66f611610120578063961a66f6146104b657806399da091d146104c95780639a6e292f146104f65780639b19251a146105175780639dc29fac14610538578063a9059cbb1461054b57600080fd5b806382dc1ec41461046d5780638456cb59146104805780638b3f863f14610488578063929ec5371461049b57806395d89b41146104ae57600080fd5b806332434a2e116102005780636b2c0f55116101b95780636b2c0f55146103e55780637065cb48146103f857806370a082311461040b5780637d0c269f146104345780637f4ab1dd1461044757806382c3f79c1461045a57600080fd5b806332434a2e146103865780633f4ba83a1461039957806340c10f19146103a157806346fbf68e146103b45780635c975abb146103c757806368aa9813146103d257600080fd5b8063173825d911610252578063173825d91461031f57806318160ddd1461033457806323b872dd1461034657806327ac1975146103595780632f54bf6e1461036c578063313ce5671461037f57600080fd5b80630357371d1461028f57806305557bd4146102b757806306fdde03146102d25780630754cede146102e7578063095ea7b31461030c575b600080fd5b6102a261029d36600461245e565b610696565b60405190151581526020015b60405180910390f35b600d546040516001600160a01b0390911681526020016102ae565b6102da6108aa565b6040516102ae91906124d8565b6102fa6102f53660046124eb565b61093c565b60405160ff90911681526020016102ae565b6102a261031a36600461245e565b6109f5565b61033261032d366004612536565b610a0d565b005b6002545b6040519081526020016102ae565b6102a2610354366004612551565b610aa7565b6102a26103673660046125fc565b610c64565b6102a261037a366004612536565b610d7a565b60126102fa565b6103326103943660046126a4565b610d87565b610332610e97565b6103326103af36600461245e565b610ec6565b6102a26103c2366004612536565b610ef9565b600b5460ff166102a2565b6102da6103e0366004612536565b610f06565b6103326103f3366004612536565b610fb5565b610332610406366004612536565b610fe3565b610338610419366004612536565b6001600160a01b031660009081526020819052604090205490565b6102a2610442366004612536565b611011565b6102da610455366004612736565b61101e565b610332610468366004612536565b611092565b61033261047b366004612536565b6110c0565b6103326110ee565b6102da610496366004612536565b61111b565b6103386104a9366004612536565b611142565b6102da6111dd565b6103326104c4366004612536565b6111ec565b6102a26104d7366004612753565b506001600160a01b031660009081526008602052604090205460ff1690565b610509610504366004612536565b61121a565b6040516102ae9291906127c1565b61052a610525366004612536565b611375565b6040516102ae9291906127e6565b6102a261054636600461245e565b61141e565b6102a261055936600461245e565b611458565b61033261056c366004612536565b611606565b6102a261057f366004612536565b611634565b6102a2610592366004612801565b611660565b6105aa6105a536600461245e565b611699565b604080519283526020830191909152016102ae565b6102fa6105cd366004612551565b6116d5565b6102a26105e0366004612536565b6001600160a01b031660009081526008602052604090205460ff1690565b6102a261060c366004612536565b611785565b61033861061f366004612753565b6001600160a01b03918216600090815260016020908152604080832093909416825291909152205490565b6102a2610658366004612801565b61180b565b6102a261066b36600461245e565b611818565b61033261067e366004612536565b611893565b6102a2610691366004612536565b6118c1565b60006001600160a01b0383166106fd5760405162461bcd60e51b815260206004820152602160248201527f41646472657373206d7573742062652076616c696420666f722072656c6561736044820152606560f81b60648201526084015b60405180910390fd5b6001600160a01b0383166000908152600960205260408120815b8154811015610859574282828154811061073357610733612834565b9060005260206000209060020201600101541115801561075257508483105b1561084757600061076386856118ce565b90508083838154811061077857610778612834565b906000526020600020906002020160000154116107e8576107bc8383815481106107a4576107a4612834565b60009182526020909120600290910201548590611910565b935060008383815481106107d2576107d2612834565b6000918252602090912060029091020155610845565b610815818484815481106107fe576107fe612834565b6000918252602090912060029091020154906118ce565b83838154811061082757610827612834565b60009182526020909120600290910201556108428482611910565b93505b505b8061085181612860565b915050610717565b50846001600160a01b03167f784c9f4cec58b38461217a62f8f9c0f2cac7b46c0ed23bd1a7f4a5376ac787e18360405161089591815260200190565b60405180910390a26001925050505b92915050565b6060600380546108b990612879565b80601f01602080910402602001604051908101604052809291908181526020018280546108e590612879565b80156109325780601f1061090757610100808354040283529160200191610932565b820191906000526020600020905b81548152906001019060200180831161091557829003601f168201915b5050505050905090565b600d546000906001600160a01b03166109675760405162461bcd60e51b81526004016106f4906128b3565b600d546040516303aa676f60e11b81526001600160a01b038781166004830152868116602483015285811660448301526064820185905290911690630754cede90608401602060405180830381865afa1580156109c8573d6000803e3d6000fd5b505050506040513d601f19601f820116820180604052508101906109ec91906128fc565b95945050505050565b600033610a0381858561196f565b5060019392505050565b610a1633610d7a565b610a325760405162461bcd60e51b81526004016106f490612919565b6001600160a01b0381163303610a9b5760405162461bcd60e51b815260206004820152602860248201527f4f776e6572732063616e6e6f742072656d6f7665207468656d73656c7665732060448201526730b99037bbb732b960c11b60648201526084016106f4565b610aa481611981565b50565b600d546040516303aa676f60e11b815233600482018190526001600160a01b038087166024840152808616604484015260648301859052600093919287928792879287929190911690630754cede90608401602060405180830381865afa158015610b16573d6000803e3d6000fd5b505050506040513d601f19601f82011682018060405250810190610b3a91906128fc565b9050600d60009054906101000a90046001600160a01b03166001600160a01b0316635ec647596040518163ffffffff1660e01b8152600401602060405180830381865afa158015610b8f573d6000803e3d6000fd5b505050506040513d601f19601f82011682018060405250810190610bb39190612967565b600d54604051637f4ab1dd60e01b815260ff84166004820181905292909214916001600160a01b0390911690637f4ab1dd90602401600060405180830381865afa158015610c05573d6000803e3d6000fd5b505050506040513d6000823e601f3d908101601f19168201604052610c2d9190810190612980565b90610c4b5760405162461bcd60e51b81526004016106f491906124d8565b50610c578989896119c5565b9998505050505050505050565b6000610c6f33611011565b610ce15760405162461bcd60e51b815260206004820152603a60248201527f57686974656c6973746572526f6c653a2063616c6c657220646f6573206e6f7460448201527f2068617665207468652057686974656c697374657220726f6c6500000000000060648201526084016106f4565b604080518082018252841515815260208082018581526001600160a01b038816600090815260089092529290208151815460ff191690151517815591519091906001820190610d309082612a3c565b509050507f461193ae6c23672174f7a3ea35649aacdc857bfcae58cd12d61ea432c05bcbd5848484604051610d6793929190612afc565b60405180910390a15060015b9392505050565b60006108a46005836119e9565b610d9033610d7a565b610dac5760405162461bcd60e51b81526004016106f490612919565b610deb82828080601f016020809104026020016040519081016040528093929190818152602001838380828437600092019190915250611a6c92505050565b610e2b5760405162461bcd60e51b8152602060048201526011602482015270496e76616c69642075736572207479706560781b60448201526064016106f4565b6001600160a01b0383166000908152600c60205260409020610e4e828483612b28565b50826001600160a01b03167f48cac28ad4dc618e15f4c2dd5e97751182f166de97b25618318b2112aa951a2f8383604051610e8a929190612be9565b60405180910390a2505050565b610ea033610ef9565b610ebc5760405162461bcd60e51b81526004016106f490612c18565b610ec4611c48565b565b610ecf33610d7a565b610eeb5760405162461bcd60e51b81526004016106f490612919565b610ef58282611c7d565b5050565b60006108a4600a836119e9565b6001600160a01b0381166000908152600860205260409020600101805460609190610f3090612879565b80601f0160208091040260200160405190810160405280929190818152602001828054610f5c90612879565b8015610fa95780601f10610f7e57610100808354040283529160200191610fa9565b820191906000526020600020905b815481529060010190602001808311610f8c57829003601f168201915b50505050509050919050565b610fbe33610d7a565b610fda5760405162461bcd60e51b81526004016106f490612919565b610aa481611cb3565b610fec33610d7a565b6110085760405162461bcd60e51b81526004016106f490612919565b610aa481611cf7565b60006108a46007836119e9565b600d54604051637f4ab1dd60e01b815260ff831660048201526060916001600160a01b031690637f4ab1dd90602401600060405180830381865afa15801561106a573d6000803e3d6000fd5b505050506040513d6000823e601f3d908101601f191682016040526108a49190810190612980565b61109b33610d7a565b6110b75760405162461bcd60e51b81526004016106f490612919565b610aa481611d3b565b6110c933610d7a565b6110e55760405162461bcd60e51b81526004016106f490612919565b610aa481611d7f565b6110f733610ef9565b6111135760405162461bcd60e51b81526004016106f490612c18565b610ec4611dc3565b6001600160a01b0381166000908152600c60205260409020805460609190610f3090612879565b6001600160a01b03811660009081526009602052604081208190815b81548110156111d45781818154811061117957611179612834565b9060005260206000209060020201600101544210156111c2576111bf8282815481106111a7576111a7612834565b60009182526020909120600290910201548490611910565b92505b806111cc81612860565b91505061115e565b50909392505050565b6060600480546108b990612879565b6111f533610d7a565b6112115760405162461bcd60e51b81526004016106f490612919565b610aa481611dfb565b6001600160a01b0381166000908152600960205260408120805460609283929167ffffffffffffffff8111156112525761125261258d565b60405190808252806020026020018201604052801561127b578160200160208202803683370190505b50825490915060009067ffffffffffffffff81111561129c5761129c61258d565b6040519080825280602002602001820160405280156112c5578160200160208202803683370190505b50905060005b8354811015611369578381815481106112e6576112e6612834565b90600052602060002090600202016000015483828151811061130a5761130a612834565b60200260200101818152505083818154811061132857611328612834565b90600052602060002090600202016001015482828151811061134c5761134c612834565b60209081029190910101528061136181612860565b9150506112cb565b50909590945092505050565b6008602052600090815260409020805460018201805460ff909216929161139b90612879565b80601f01602080910402602001604051908101604052809291908181526020018280546113c790612879565b80156114145780601f106113e957610100808354040283529160200191611414565b820191906000526020600020905b8154815290600101906020018083116113f757829003601f168201915b5050505050905082565b6000611429336118c1565b6114455760405162461bcd60e51b81526004016106f490612c68565b61144f8383611e3f565b50600192915050565b600d5460405163d4ce141560e01b815233600482018190526001600160a01b03808616602484015260448301859052600093919286928692869291169063d4ce141590606401602060405180830381865afa1580156114bb573d6000803e3d6000fd5b505050506040513d601f19601f820116820180604052508101906114df91906128fc565b9050600d60009054906101000a90046001600160a01b03166001600160a01b0316635ec647596040518163ffffffff1660e01b8152600401602060405180830381865afa158015611534573d6000803e3d6000fd5b505050506040513d601f19601f820116820180604052508101906115589190612967565b600d54604051637f4ab1dd60e01b815260ff84166004820181905292909214916001600160a01b0390911690637f4ab1dd90602401600060405180830381865afa1580156115aa573d6000803e3d6000fd5b505050506040513d6000823e601f3d908101601f191682016040526115d29190810190612980565b906115f05760405162461bcd60e51b81526004016106f491906124d8565b506115fb8787611e75565b979650505050505050565b61160f33610d7a565b61162b5760405162461bcd60e51b81526004016106f490612919565b610aa481611e83565b6001600160a01b0381166000908152600c60205260408120805461165790612879565b15159392505050565b60008061166c85611142565b905083831015611680576000915050610d73565b600061168c84836118ce565b9094111595945050505050565b600960205281600052604060002081815481106116b557600080fd5b600091825260209091206002909102018054600190910154909250905082565b600d546000906001600160a01b03166117005760405162461bcd60e51b81526004016106f4906128b3565b600d5460405163d4ce141560e01b81526001600160a01b0386811660048301528581166024830152604482018590529091169063d4ce141590606401602060405180830381865afa158015611759573d6000803e3d6000fd5b505050506040513d601f19601f8201168201806040525081019061177d91906128fc565b949350505050565b600061179033610d7a565b6117ac5760405162461bcd60e51b81526004016106f490612919565b600d80546001600160a01b0319166001600160a01b038416908117909155604080519182523360208301527f6c0cb4cdcdbedb9d71fdb2e31e3ad5a42fc2cffc2642730034017c04192e3afe910160405180910390a15060015b919050565b6000610a03848484611ec7565b6000611823336118c1565b61183f5760405162461bcd60e51b81526004016106f490612c68565b61184a833384611ffd565b6040518281526001600160a01b0384169033907fb698e31a2abee5824d0d7bcfd2339aead7f9e9ae413fba50bf554ff3fa470b7b9060200160405180910390a350600192915050565b61189c33610d7a565b6118b85760405162461bcd60e51b81526004016106f490612919565b610aa48161205c565b60006108a46006836119e9565b6000610d7383836040518060400160405280601e81526020017f536166654d6174683a207375627472616374696f6e206f766572666c6f7700008152506120a0565b60008061191d8385612cba565b905083811015610d735760405162461bcd60e51b815260206004820152601b60248201527f536166654d6174683a206164646974696f6e206f766572666c6f77000000000060448201526064016106f4565b61197c83838360016120d1565b505050565b61198c6005826121a7565b60405133906001600160a01b038316907fe594d081b4382713733fe631966432c9cea5199afb2db5c3c1931f9f9300367990600090a350565b6000336119d3858285612229565b6119de858585611ffd565b506001949350505050565b60006001600160a01b038216611a4c5760405162461bcd60e51b815260206004820152602260248201527f526f6c65733a206163636f756e7420697320746865207a65726f206164647265604482015261737360f01b60648201526084016106f4565b506001600160a01b03166000908152602091909152604090205460ff1690565b6000604051806040016040528060058152602001644e6f6e555360d81b815250604051602001611a9c9190612ccd565b6040516020818303038152906040528051906020012082604051602001611ac39190612ccd565b604051602081830303815290604052805190602001201480611b5257506040518060400160405280600a8152602001691058d8dc99591a5d195960b21b815250604051602001611b139190612ccd565b6040516020818303038152906040528051906020012082604051602001611b3a9190612ccd565b60405160208183030381529060405280519060200120145b80611bc857506040518060400160405280600881526020016710dbdb9d1c9858dd60c21b815250604051602001611b899190612ccd565b6040516020818303038152906040528051906020012082604051602001611bb09190612ccd565b60405160208183030381529060405280519060200120145b806108a457506040518060400160405280600d81526020016c125b9cdd1a5d1d5d1a5bdb985b609a1b815250604051602001611c049190612ccd565b6040516020818303038152906040528051906020012082604051602001611c2b9190612ccd565b604051602081830303815290604052805190602001201492915050565b600b805460ff191690556040517fa45f47fdea8a1efdd9029a5691c7f759c32b7c698632b563573e155625d1693390600090a1565b6001600160a01b038216611ca75760405163ec442f0560e01b8152600060048201526024016106f4565b610ef5600083836122a1565b611cbe600a826121a7565b60405133906001600160a01b038316907fb75903ade4a0fdb07d60c882c22c779e2e1c751883c37aecdcc92a8ec72b046e90600090a350565b611d026005826123cb565b60405133906001600160a01b038316907fc82bdbbf677a2462f2a7e22e4ba9abd209496b69cd7b868b3b1d28f76e09a40a90600090a350565b611d466007826121a7565b60405133906001600160a01b038316907f3ed21605dd544629fb45f2ccaedcc095ba1dbea540fb6eaf5493a7479856b0be90600090a350565b611d8a600a826123cb565b60405133906001600160a01b038316907fe0953c403a52f9dc1fef4202a8d33975c958b727bee0d7b5b328965ddad98d8190600090a350565b600b805460ff191660011790556040517f9e87fac88ff661f02d44f95383c817fece4bce600a3dab7a54406878b965e75290600090a1565b611e066006826123cb565b60405133906001600160a01b038316907f2b5f18afd9a7b21f41bf023b012b3d4c8a22a21b79fa425cd4494ecbe297019690600090a350565b6001600160a01b038216611e6957604051634b637e8f60e11b8152600060048201526024016106f4565b610ef5826000836122a1565b600033610a03818585611ffd565b611e8e6006826121a7565b60405133906001600160a01b038316907fb6fe3ab11eb9ab1d9f1d41c8f42a5d72d10122099ba1548e4a6d1a4d8cefec4b90600090a350565b428111611f255760405162461bcd60e51b815260206004820152602660248201527f52656c656173652074696d65206e6565647320746f20626520696e207468652060448201526566757475726560d01b60648201526084016106f4565b6001600160a01b038316611f7b5760405162461bcd60e51b815260206004820181905260248201527f41646472657373206d7573742062652076616c696420666f72206c6f636b757060448201526064016106f4565b6001600160a01b03831660008181526009602090815260408083208151808301835287815280840187815282546001808201855593875295859020915160029096029091019485555193019290925581518581529081018490527fd204e81d84b52b5a19d16a46f86c9a7d66d37c207b982c21d8d1810757b61bae9101610e8a565b6001600160a01b03831661202757604051634b637e8f60e11b8152600060048201526024016106f4565b6001600160a01b0382166120515760405163ec442f0560e01b8152600060048201526024016106f4565b61197c8383836122a1565b6120676007826123cb565b60405133906001600160a01b038316907f5f36f4f5999f34947706fca376b955319b858573bf9d6bc59303c9a4cd80ced090600090a350565b600081848411156120c45760405162461bcd60e51b81526004016106f491906124d8565b5060006109ec8486612ce9565b6001600160a01b0384166120fb5760405163e602df0560e01b8152600060048201526024016106f4565b6001600160a01b03831661212557604051634a1406b160e11b8152600060048201526024016106f4565b6001600160a01b03808516600090815260016020908152604080832093871683529290522082905580156121a157826001600160a01b0316846001600160a01b03167f8c5be1e5ebec7d5bd14f71427d1e84f3dd0314c0f7b2291e5b200ac8c7c3b9258460405161219891815260200190565b60405180910390a35b50505050565b6121b182826119e9565b6122075760405162461bcd60e51b815260206004820152602160248201527f526f6c65733a206163636f756e7420646f6573206e6f74206861766520726f6c6044820152606560f81b60648201526084016106f4565b6001600160a01b0316600090815260209190915260409020805460ff19169055565b6001600160a01b0383811660009081526001602090815260408083209386168352929052205460001981146121a1578181101561229257604051637dc7a0d960e11b81526001600160a01b038416600482015260248101829052604481018390526064016106f4565b6121a1848484840360006120d1565b6001600160a01b0383166122cc5780600260008282546122c19190612cba565b9091555061233e9050565b6001600160a01b0383166000908152602081905260409020548181101561231f5760405163391434e360e21b81526001600160a01b038516600482015260248101829052604481018390526064016106f4565b6001600160a01b03841660009081526020819052604090209082900390555b6001600160a01b03821661235a57600280548290039055612379565b6001600160a01b03821660009081526020819052604090208054820190555b816001600160a01b0316836001600160a01b03167fddf252ad1be2c89b69c2b068fc378daa952ba7f163c4a11628f55a4df523b3ef836040516123be91815260200190565b60405180910390a3505050565b6123d582826119e9565b156124225760405162461bcd60e51b815260206004820152601f60248201527f526f6c65733a206163636f756e7420616c72656164792068617320726f6c650060448201526064016106f4565b6001600160a01b0316600090815260209190915260409020805460ff19166001179055565b80356001600160a01b038116811461180657600080fd5b6000806040838503121561247157600080fd5b61247a83612447565b946020939093013593505050565b60005b838110156124a357818101518382015260200161248b565b50506000910152565b600081518084526124c4816020860160208601612488565b601f01601f19169290920160200192915050565b602081526000610d7360208301846124ac565b6000806000806080858703121561250157600080fd5b61250a85612447565b935061251860208601612447565b925061252660408601612447565b9396929550929360600135925050565b60006020828403121561254857600080fd5b610d7382612447565b60008060006060848603121561256657600080fd5b61256f84612447565b925061257d60208501612447565b9150604084013590509250925092565b634e487b7160e01b600052604160045260246000fd5b604051601f8201601f1916810167ffffffffffffffff811182821017156125cc576125cc61258d565b604052919050565b600067ffffffffffffffff8211156125ee576125ee61258d565b50601f01601f191660200190565b60008060006060848603121561261157600080fd5b61261a84612447565b92506020840135801515811461262f57600080fd5b9150604084013567ffffffffffffffff81111561264b57600080fd5b8401601f8101861361265c57600080fd5b803561266f61266a826125d4565b6125a3565b81815287602083850101111561268457600080fd5b816020840160208301376000602083830101528093505050509250925092565b6000806000604084860312156126b957600080fd5b6126c284612447565b9250602084013567ffffffffffffffff808211156126df57600080fd5b818601915086601f8301126126f357600080fd5b81358181111561270257600080fd5b87602082850101111561271457600080fd5b6020830194508093505050509250925092565b60ff81168114610aa457600080fd5b60006020828403121561274857600080fd5b8135610d7381612727565b6000806040838503121561276657600080fd5b61276f83612447565b915061277d60208401612447565b90509250929050565b600081518084526020808501945080840160005b838110156127b65781518752958201959082019060010161279a565b509495945050505050565b6040815260006127d46040830185612786565b82810360208401526109ec8185612786565b821515815260406020820152600061177d60408301846124ac565b60008060006060848603121561281657600080fd5b61281f84612447565b95602085013595506040909401359392505050565b634e487b7160e01b600052603260045260246000fd5b634e487b7160e01b600052601160045260246000fd5b6000600182016128725761287261284a565b5060010190565b600181811c9082168061288d57607f821691505b6020821081036128ad57634e487b7160e01b600052602260045260246000fd5b50919050565b60208082526029908201527f5472616e736665725265737472696374696f6e7320636f6e7472616374206d756040820152681cdd081899481cd95d60ba1b606082015260800190565b60006020828403121561290e57600080fd5b8151610d7381612727565b6020808252602e908201527f4f776e6572526f6c653a2063616c6c657220646f6573206e6f7420686176652060408201526d746865204f776e657220726f6c6560901b606082015260800190565b60006020828403121561297957600080fd5b5051919050565b60006020828403121561299257600080fd5b815167ffffffffffffffff8111156129a957600080fd5b8201601f810184136129ba57600080fd5b80516129c861266a826125d4565b8181528560208385010111156129dd57600080fd5b6109ec826020830160208601612488565b601f82111561197c57600081815260208120601f850160051c81016020861015612a155750805b601f850160051c820191505b81811015612a3457828155600101612a21565b505050505050565b815167ffffffffffffffff811115612a5657612a5661258d565b612a6a81612a648454612879565b846129ee565b602080601f831160018114612a9f5760008415612a875750858301515b600019600386901b1c1916600185901b178555612a34565b600085815260208120601f198616915b82811015612ace57888601518255948401946001909101908401612aaf565b5085821015612aec5787850151600019600388901b60f8161c191681555b5050505050600190811b01905550565b6001600160a01b038416815282151560208201526060604082018190526000906109ec908301846124ac565b67ffffffffffffffff831115612b4057612b4061258d565b612b5483612b4e8354612879565b836129ee565b6000601f841160018114612b885760008515612b705750838201355b600019600387901b1c1916600186901b178355612be2565b600083815260209020601f19861690835b82811015612bb95786850135825560209485019460019092019101612b99565b5086821015612bd65760001960f88860031b161c19848701351681555b505060018560011b0183555b5050505050565b60208152816020820152818360408301376000818301604090810191909152601f909201601f19160101919050565b60208082526030908201527f506175736572526f6c653a2063616c6c657220646f6573206e6f74206861766560408201526f207468652050617573657220726f6c6560801b606082015260800190565b60208082526032908201527f5265766f6b6572526f6c653a2063616c6c657220646f6573206e6f74206861766040820152716520746865205265766f6b657220726f6c6560701b606082015260800190565b808201808211156108a4576108a461284a565b60008251612cdf818460208701612488565b9190910192915050565b818103818111156108a4576108a461284a56fea2646970667358221220e7bcbe811465f2cf892665bea0d471f58ef5c9cfd42875914109e61f5b435d8864736f6c63430008140033","linkReferences":{}},"methodIdentifiers":{"addOwner(address)":"7065cb48","addPauser(address)":"82dc1ec4","addRevoker(address)":"961a66f6","addWhitelister(address)":"eaf9144a","allowance(address,address)":"dd62ed3e","approve(address,uint256)":"095ea7b3","balanceOf(address)":"70a08231","burn(address,uint256)":"9dc29fac","checkLockup(address)":"9a6e292f","checkTimelock(address,uint256,uint256)":"c697e4a3","checkWhitelists(address,address)":"99da091d","decimals()":"313ce567","detectTransferFromRestriction(address,address,address,uint256)":"0754cede","detectTransferRestriction(address,address,uint256)":"d4ce1415","getLockedAmount(address)":"929ec537","getRestrictionsAddress()":"05557bd4","getUserType(address)":"8b3f863f","getWhitelistData(address)":"68aa9813","getWhitelistStatus(address)":"d9ba32fc","isOwner(address)":"2f54bf6e","isPauser(address)":"46fbf68e","isRegistered(address)":"c3c5a547","isRevoker(address)":"f6c4b01f","isWhitelister(address)":"7d0c269f","lock(address,uint256,uint256)":"e2ab691d","lockups(address,uint256)":"c93d0b1e","messageForTransferRestriction(uint8)":"7f4ab1dd","mint(address,uint256)":"40c10f19","name()":"06fdde03","pause()":"8456cb59","paused()":"5c975abb","register(address,string)":"32434a2e","release(address,uint256)":"0357371d","removeOwner(address)":"173825d9","removePauser(address)":"6b2c0f55","removeRevoker(address)":"c06f8b94","removeWhitelister(address)":"82c3f79c","revoke(address,uint256)":"eac449d9","setWhitelist(address,bool,string)":"27ac1975","symbol()":"95d89b41","totalSupply()":"18160ddd","transfer(address,uint256)":"a9059cbb","transferFrom(address,address,uint256)":"23b872dd","unpause()":"3f4ba83a","updateTransferRestrictions(address)":"db0cc92a","whitelist(address)":"9b19251a"},"id":40}