{"abi":[{"type":"function","name":"checkLockup","inputs":[{"name":"_address","type":"address","internalType":"address"}],"outputs":[{"name":"","type":"uint256[]","internalType":"uint256[]"},{"name":"","type":"uint256[]","internalType":"uint256[]"}],"stateMutability":"view"},{"type":"function","name":"checkTimelock","inputs":[{"name":"_address","type":"address","internalType":"address"},{"name":"amount","type":"uint256","internalType":"uint256"},{"name":"balance","type":"uint256","internalType":"uint256"}],"outputs":[{"name":"","type":"bool","internalType":"bool"}],"stateMutability":"view"},{"type":"function","name":"getLockedAmount","inputs":[{"name":"_address","type":"address","internalType":"address"}],"outputs":[{"name":"","type":"uint256","internalType":"uint256"}],"stateMutability":"view"},{"type":"function","name":"lock","inputs":[{"name":"_address","type":"address","internalType":"address"},{"name":"amount","type":"uint256","internalType":"uint256"},{"name":"releaseTime","type":"uint256","internalType":"uint256"}],"outputs":[{"name":"","type":"bool","internalType":"bool"}],"stateMutability":"nonpayable"},{"type":"function","name":"lockups","inputs":[{"name":"","type":"address","internalType":"address"},{"name":"","type":"uint256","internalType":"uint256"}],"outputs":[{"name":"amount","type":"uint256","internalType":"uint256"},{"name":"releaseTime","type":"uint256","internalType":"uint256"}],"stateMutability":"view"},{"type":"function","name":"release","inputs":[{"name":"_address","type":"address","internalType":"address"},{"name":"amountToRelease","type":"uint256","internalType":"uint256"}],"outputs":[{"name":"","type":"bool","internalType":"bool"}],"stateMutability":"nonpayable"},{"type":"event","name":"AccountLock","inputs":[{"name":"_address","type":"address","indexed":true,"internalType":"address"},{"name":"amount","type":"uint256","indexed":false,"internalType":"uint256"},{"name":"releaseTime","type":"uint256","indexed":false,"internalType":"uint256"}],"anonymous":false},{"type":"event","name":"AccountRelease","inputs":[{"name":"_address","type":"address","indexed":true,"internalType":"address"},{"name":"amount","type":"uint256","indexed":false,"internalType":"uint256"}],"anonymous":false}],"bytecode":{"object":"0x608060405234801561001057600080fd5b506109c7806100206000396000f3fe608060405234801561001057600080fd5b50600436106100625760003560e01c80630357371d14610067578063929ec5371461008f5780639a6e292f146100b0578063c697e4a3146100d1578063c93d0b1e146100e4578063e2ab691d1461010c575b600080fd5b61007a6100753660046107ea565b61011f565b60405190151581526020015b60405180910390f35b6100a261009d366004610814565b610333565b604051908152602001610086565b6100c36100be366004610814565b6103ce565b60405161008692919061086a565b61007a6100df36600461088f565b610529565b6100f76100f23660046107ea565b610564565b60408051928352602083019190915201610086565b61007a61011a36600461088f565b6105a0565b60006001600160a01b0383166101865760405162461bcd60e51b815260206004820152602160248201527f41646472657373206d7573742062652076616c696420666f722072656c6561736044820152606560f81b60648201526084015b60405180910390fd5b6001600160a01b0383166000908152602081905260408120815b81548110156102e257428282815481106101bc576101bc6108c2565b906000526020600020906002020160010154111580156101db57508483105b156102d05760006101ec86856105b7565b905080838381548110610201576102016108c2565b906000526020600020906002020160000154116102715761024583838154811061022d5761022d6108c2565b600091825260209091206002909102015485906105f9565b9350600083838154811061025b5761025b6108c2565b60009182526020909120600290910201556102ce565b61029e81848481548110610287576102876108c2565b6000918252602090912060029091020154906105b7565b8383815481106102b0576102b06108c2565b60009182526020909120600290910201556102cb84826105f9565b93505b505b806102da816108ee565b9150506101a0565b50846001600160a01b03167f784c9f4cec58b38461217a62f8f9c0f2cac7b46c0ed23bd1a7f4a5376ac787e18360405161031e91815260200190565b60405180910390a26001925050505b92915050565b6001600160a01b03811660009081526020819052604081208190815b81548110156103c55781818154811061036a5761036a6108c2565b9060005260206000209060020201600101544210156103b3576103b0828281548110610398576103986108c2565b600091825260209091206002909102015484906105f9565b92505b806103bd816108ee565b91505061034f565b50909392505050565b6001600160a01b0381166000908152602081905260408120805460609283929167ffffffffffffffff81111561040657610406610907565b60405190808252806020026020018201604052801561042f578160200160208202803683370190505b50825490915060009067ffffffffffffffff81111561045057610450610907565b604051908082528060200260200182016040528015610479578160200160208202803683370190505b50905060005b835481101561051d5783818154811061049a5761049a6108c2565b9060005260206000209060020201600001548382815181106104be576104be6108c2565b6020026020010181815250508381815481106104dc576104dc6108c2565b906000526020600020906002020160010154828281518110610500576105006108c2565b602090810291909101015280610515816108ee565b91505061047f565b50909590945092505050565b60008061053585610333565b90508383101561054957600091505061055d565b600061055584836105b7565b851115925050505b9392505050565b6000602052816000526040600020818154811061058057600080fd5b600091825260209091206002909102018054600190910154909250905082565b60006105ad848484610658565b5060019392505050565b600061055d83836040518060400160405280601e81526020017f536166654d6174683a207375627472616374696f6e206f766572666c6f770000815250610794565b600080610606838561091d565b90508381101561055d5760405162461bcd60e51b815260206004820152601b60248201527f536166654d6174683a206164646974696f6e206f766572666c6f770000000000604482015260640161017d565b4281116106b65760405162461bcd60e51b815260206004820152602660248201527f52656c656173652074696d65206e6565647320746f20626520696e207468652060448201526566757475726560d01b606482015260840161017d565b6001600160a01b03831661070c5760405162461bcd60e51b815260206004820181905260248201527f41646472657373206d7573742062652076616c696420666f72206c6f636b7570604482015260640161017d565b6001600160a01b0383166000818152602081815260408083208151808301835287815280840187815282546001808201855593875295859020915160029096029091019485555193019290925581518581529081018490527fd204e81d84b52b5a19d16a46f86c9a7d66d37c207b982c21d8d1810757b61bae910160405180910390a2505050565b600081848411156107b85760405162461bcd60e51b815260040161017d9190610930565b5060006107c5848661097e565b95945050505050565b80356001600160a01b03811681146107e557600080fd5b919050565b600080604083850312156107fd57600080fd5b610806836107ce565b946020939093013593505050565b60006020828403121561082657600080fd5b61055d826107ce565b600081518084526020808501945080840160005b8381101561085f57815187529582019590820190600101610843565b509495945050505050565b60408152600061087d604083018561082f565b82810360208401526107c5818561082f565b6000806000606084860312156108a457600080fd5b6108ad846107ce565b95602085013595506040909401359392505050565b634e487b7160e01b600052603260045260246000fd5b634e487b7160e01b600052601160045260246000fd5b600060018201610900576109006108d8565b5060010190565b634e487b7160e01b600052604160045260246000fd5b8082018082111561032d5761032d6108d8565b600060208083528351808285015260005b8181101561095d57858101830151858201604001528201610941565b506000604082860101526040601f19601f8301168501019250505092915050565b8181038181111561032d5761032d6108d856fea264697066735822122052d8c750f31bef7ff38b0818081f8986a183b5bf88e560691cb82964c89b4ac764736f6c63430008140033","linkReferences":{}},"methodIdentifiers":{"checkLockup(address)":"9a6e292f","checkTimelock(address,uint256,uint256)":"c697e4a3","getLockedAmount(address)":"929ec537","lock(address,uint256,uint256)":"e2ab691d","lockups(address,uint256)":"c93d0b1e","release(address,uint256)":"0357371d"},"id":40}