{"abi":[{"type":"function","name":"addOwner","inputs":[{"name":"account","type":"address","internalType":"address"}],"outputs":[],"stateMutability":"nonpayable"},{"type":"function","name":"addWhitelister","inputs":[{"name":"account","type":"address","internalType":"address"}],"outputs":[],"stateMutability":"nonpayable"},{"type":"function","name":"checkWhitelists","inputs":[{"name":"from","type":"address","internalType":"address"},{"name":"to","type":"address","internalType":"address"}],"outputs":[{"name":"","type":"bool","internalType":"bool"}],"stateMutability":"view"},{"type":"function","name":"getWhitelistData","inputs":[{"name":"_address","type":"address","internalType":"address"}],"outputs":[{"name":"","type":"string","internalType":"string"}],"stateMutability":"view"},{"type":"function","name":"getWhitelistStatus","inputs":[{"name":"_address","type":"address","internalType":"address"}],"outputs":[{"name":"","type":"bool","internalType":"bool"}],"stateMutability":"view"},{"type":"function","name":"isOwner","inputs":[{"name":"account","type":"address","internalType":"address"}],"outputs":[{"name":"","type":"bool","internalType":"bool"}],"stateMutability":"view"},{"type":"function","name":"isWhitelister","inputs":[{"name":"account","type":"address","internalType":"address"}],"outputs":[{"name":"","type":"bool","internalType":"bool"}],"stateMutability":"view"},{"type":"function","name":"removeOwner","inputs":[{"name":"account","type":"address","internalType":"address"}],"outputs":[],"stateMutability":"nonpayable"},{"type":"function","name":"removeWhitelister","inputs":[{"name":"account","type":"address","internalType":"address"}],"outputs":[],"stateMutability":"nonpayable"},{"type":"function","name":"setWhitelist","inputs":[{"name":"to","type":"address","internalType":"address"},{"name":"status","type":"bool","internalType":"bool"},{"name":"data","type":"string","internalType":"string"}],"outputs":[{"name":"","type":"bool","internalType":"bool"}],"stateMutability":"nonpayable"},{"type":"function","name":"whitelist","inputs":[{"name":"","type":"address","internalType":"address"}],"outputs":[{"name":"status","type":"bool","internalType":"bool"},{"name":"data","type":"string","internalType":"string"}],"stateMutability":"view"},{"type":"event","name":"OwnerAdded","inputs":[{"name":"addedOwner","type":"address","indexed":true,"internalType":"address"},{"name":"addedBy","type":"address","indexed":true,"internalType":"address"}],"anonymous":false},{"type":"event","name":"OwnerRemoved","inputs":[{"name":"removedOwner","type":"address","indexed":true,"internalType":"address"},{"name":"removedBy","type":"address","indexed":true,"internalType":"address"}],"anonymous":false},{"type":"event","name":"WhitelistUpdate","inputs":[{"name":"_address","type":"address","indexed":false,"internalType":"address"},{"name":"status","type":"bool","indexed":false,"internalType":"bool"},{"name":"data","type":"string","indexed":false,"internalType":"string"}],"anonymous":false},{"type":"event","name":"WhitelisterAdded","inputs":[{"name":"addedWhitelister","type":"address","indexed":true,"internalType":"address"},{"name":"addedBy","type":"address","indexed":true,"internalType":"address"}],"anonymous":false},{"type":"event","name":"WhitelisterRemoved","inputs":[{"name":"removedWhitelister","type":"address","indexed":true,"internalType":"address"},{"name":"removedBy","type":"address","indexed":true,"internalType":"address"}],"anonymous":false}],"bytecode":{"object":"0x608060405234801561001057600080fd5b50610c0c806100206000396000f3fe608060405234801561001057600080fd5b50600436106100a95760003560e01c80637d0c269f116100715780637d0c269f1461013157806382c3f79c1461014457806399da091d146101575780639b19251a14610184578063d9ba32fc146101a5578063eaf9144a146101d157600080fd5b8063173825d9146100ae57806327ac1975146100c35780632f54bf6e146100eb57806368aa9813146100fe5780637065cb481461011e575b600080fd5b6100c16100bc36600461084a565b6101e4565b005b6100d66100d1366004610882565b610287565b60405190151581526020015b60405180910390f35b6100d66100f936600461084a565b61039c565b61011161010c36600461084a565b6103ae565b6040516100e291906109a1565b6100c161012c36600461084a565b61045d565b6100d661013f36600461084a565b61048b565b6100c161015236600461084a565b610498565b6100d66101653660046109b4565b506001600160a01b031660009081526002602052604090205460ff1690565b61019761019236600461084a565b6104c6565b6040516100e29291906109e7565b6100d66101b336600461084a565b6001600160a01b031660009081526002602052604090205460ff1690565b6100c16101df36600461084a565b61056f565b6101ed3361039c565b6102125760405162461bcd60e51b815260040161020990610a0a565b60405180910390fd5b6001600160a01b038116330361027b5760405162461bcd60e51b815260206004820152602860248201527f4f776e6572732063616e6e6f742072656d6f7665207468656d73656c7665732060448201526730b99037bbb732b960c11b6064820152608401610209565b6102848161059d565b50565b60006102923361048b565b6103045760405162461bcd60e51b815260206004820152603a60248201527f57686974656c6973746572526f6c653a2063616c6c657220646f6573206e6f7460448201527f2068617665207468652057686974656c697374657220726f6c650000000000006064820152608401610209565b604080518082018252841515815260208082018581526001600160a01b038816600090815260029092529290208151815460ff1916901515178155915190919060018201906103539082610ae1565b509050507f461193ae6c23672174f7a3ea35649aacdc857bfcae58cd12d61ea432c05bcbd584848460405161038a93929190610ba1565b60405180910390a15060019392505050565b60006103a881836105e1565b92915050565b6001600160a01b03811660009081526002602052604090206001018054606091906103d890610a58565b80601f016020809104026020016040519081016040528092919081815260200182805461040490610a58565b80156104515780601f1061042657610100808354040283529160200191610451565b820191906000526020600020905b81548152906001019060200180831161043457829003601f168201915b50505050509050919050565b6104663361039c565b6104825760405162461bcd60e51b815260040161020990610a0a565b61028481610664565b60006103a86001836105e1565b6104a13361039c565b6104bd5760405162461bcd60e51b815260040161020990610a0a565b610284816106a8565b6002602052600090815260409020805460018201805460ff90921692916104ec90610a58565b80601f016020809104026020016040519081016040528092919081815260200182805461051890610a58565b80156105655780601f1061053a57610100808354040283529160200191610565565b820191906000526020600020905b81548152906001019060200180831161054857829003601f168201915b5050505050905082565b6105783361039c565b6105945760405162461bcd60e51b815260040161020990610a0a565b610284816106ec565b6105a8600082610730565b60405133906001600160a01b038316907fe594d081b4382713733fe631966432c9cea5199afb2db5c3c1931f9f9300367990600090a350565b60006001600160a01b0382166106445760405162461bcd60e51b815260206004820152602260248201527f526f6c65733a206163636f756e7420697320746865207a65726f206164647265604482015261737360f01b6064820152608401610209565b506001600160a01b03166000908152602091909152604090205460ff1690565b61066f6000826107b2565b60405133906001600160a01b038316907fc82bdbbf677a2462f2a7e22e4ba9abd209496b69cd7b868b3b1d28f76e09a40a90600090a350565b6106b3600182610730565b60405133906001600160a01b038316907f3ed21605dd544629fb45f2ccaedcc095ba1dbea540fb6eaf5493a7479856b0be90600090a350565b6106f76001826107b2565b60405133906001600160a01b038316907f5f36f4f5999f34947706fca376b955319b858573bf9d6bc59303c9a4cd80ced090600090a350565b61073a82826105e1565b6107905760405162461bcd60e51b815260206004820152602160248201527f526f6c65733a206163636f756e7420646f6573206e6f74206861766520726f6c6044820152606560f81b6064820152608401610209565b6001600160a01b0316600090815260209190915260409020805460ff19169055565b6107bc82826105e1565b156108095760405162461bcd60e51b815260206004820152601f60248201527f526f6c65733a206163636f756e7420616c72656164792068617320726f6c65006044820152606401610209565b6001600160a01b0316600090815260209190915260409020805460ff19166001179055565b80356001600160a01b038116811461084557600080fd5b919050565b60006020828403121561085c57600080fd5b6108658261082e565b9392505050565b634e487b7160e01b600052604160045260246000fd5b60008060006060848603121561089757600080fd5b6108a08461082e565b9250602084013580151581146108b557600080fd5b9150604084013567ffffffffffffffff808211156108d257600080fd5b818601915086601f8301126108e657600080fd5b8135818111156108f8576108f861086c565b604051601f8201601f19908116603f011681019083821181831017156109205761092061086c565b8160405282815289602084870101111561093957600080fd5b8260208601602083013760006020848301015280955050505050509250925092565b6000815180845260005b8181101561098157602081850181015186830182015201610965565b506000602082860101526020601f19601f83011685010191505092915050565b602081526000610865602083018461095b565b600080604083850312156109c757600080fd5b6109d08361082e565b91506109de6020840161082e565b90509250929050565b8215158152604060208201526000610a02604083018461095b565b949350505050565b6020808252602e908201527f4f776e6572526f6c653a2063616c6c657220646f6573206e6f7420686176652060408201526d746865204f776e657220726f6c6560901b606082015260800190565b600181811c90821680610a6c57607f821691505b602082108103610a8c57634e487b7160e01b600052602260045260246000fd5b50919050565b601f821115610adc57600081815260208120601f850160051c81016020861015610ab95750805b601f850160051c820191505b81811015610ad857828155600101610ac5565b5050505b505050565b815167ffffffffffffffff811115610afb57610afb61086c565b610b0f81610b098454610a58565b84610a92565b602080601f831160018114610b445760008415610b2c5750858301515b600019600386901b1c1916600185901b178555610ad8565b600085815260208120601f198616915b82811015610b7357888601518255948401946001909101908401610b54565b5085821015610b915787850151600019600388901b60f8161c191681555b5050505050600190811b01905550565b6001600160a01b03841681528215156020820152606060408201819052600090610bcd9083018461095b565b9594505050505056fea26469706673582212203255e92fbad278876162ad2e1834662120e6b1bb4200fb915f982df5bee4894c64736f6c63430008140033","linkReferences":{}},"methodIdentifiers":{"addOwner(address)":"7065cb48","addWhitelister(address)":"eaf9144a","checkWhitelists(address,address)":"99da091d","getWhitelistData(address)":"68aa9813","getWhitelistStatus(address)":"d9ba32fc","isOwner(address)":"2f54bf6e","isWhitelister(address)":"7d0c269f","removeOwner(address)":"173825d9","removeWhitelister(address)":"82c3f79c","setWhitelist(address,bool,string)":"27ac1975","whitelist(address)":"9b19251a"},"id":40}