{
	"contracts/Auction/auction1404.sol": {
		"ProtonAuction": {
			"abi": [
				{
					"inputs": [
						{
							"internalType": "address",
							"name": "_protonAddress",
							"type": "address"
						},
						{
							"internalType": "address",
							"name": "_fundsWalletAdd",
							"type": "address"
						}
					],
					"stateMutability": "nonpayable",
					"type": "constructor"
				},
				{
					"inputs": [
						{
							"internalType": "address",
							"name": "owner",
							"type": "address"
						}
					],
					"name": "OwnableInvalidOwner",
					"type": "error"
				},
				{
					"inputs": [
						{
							"internalType": "address",
							"name": "account",
							"type": "address"
						}
					],
					"name": "OwnableUnauthorizedAccount",
					"type": "error"
				},
				{
					"anonymous": false,
					"inputs": [
						{
							"indexed": false,
							"internalType": "address",
							"name": "caller",
							"type": "address"
						},
						{
							"indexed": false,
							"internalType": "bool",
							"name": "status",
							"type": "bool"
						},
						{
							"indexed": false,
							"internalType": "uint256",
							"name": "time",
							"type": "uint256"
						}
					],
					"name": "AuctionStatus",
					"type": "event"
				},
				{
					"anonymous": false,
					"inputs": [
						{
							"indexed": true,
							"internalType": "address",
							"name": "previousOwner",
							"type": "address"
						},
						{
							"indexed": true,
							"internalType": "address",
							"name": "newOwner",
							"type": "address"
						}
					],
					"name": "OwnershipTransferred",
					"type": "event"
				},
				{
					"anonymous": false,
					"inputs": [
						{
							"indexed": false,
							"internalType": "uint256",
							"name": "round",
							"type": "uint256"
						},
						{
							"indexed": false,
							"internalType": "uint256",
							"name": "startTime",
							"type": "uint256"
						},
						{
							"indexed": false,
							"internalType": "uint256",
							"name": "endtime",
							"type": "uint256"
						}
					],
					"name": "StartAuction",
					"type": "event"
				},
				{
					"anonymous": false,
					"inputs": [
						{
							"indexed": true,
							"internalType": "address",
							"name": "buyer",
							"type": "address"
						},
						{
							"indexed": false,
							"internalType": "uint256",
							"name": "usdtAmount",
							"type": "uint256"
						},
						{
							"indexed": false,
							"internalType": "uint256",
							"name": "amount",
							"type": "uint256"
						},
						{
							"indexed": false,
							"internalType": "uint256",
							"name": "lockTime",
							"type": "uint256"
						}
					],
					"name": "TokensPurchased",
					"type": "event"
				},
				{
					"anonymous": false,
					"inputs": [
						{
							"indexed": false,
							"internalType": "address",
							"name": "user",
							"type": "address"
						},
						{
							"indexed": false,
							"internalType": "uint256",
							"name": "leftToken",
							"type": "uint256"
						},
						{
							"indexed": false,
							"internalType": "uint256",
							"name": "amount",
							"type": "uint256"
						},
						{
							"indexed": false,
							"internalType": "uint256",
							"name": "timeClaim",
							"type": "uint256"
						}
					],
					"name": "claimreward",
					"type": "event"
				},
				{
					"inputs": [],
					"name": "AuctionTime",
					"outputs": [
						{
							"internalType": "uint256",
							"name": "_currentRound",
							"type": "uint256"
						},
						{
							"internalType": "uint256",
							"name": "roundStart",
							"type": "uint256"
						},
						{
							"internalType": "uint256",
							"name": "roundEnd",
							"type": "uint256"
						}
					],
					"stateMutability": "view",
					"type": "function"
				},
				{
					"inputs": [],
					"name": "PROTON",
					"outputs": [
						{
							"internalType": "contract IProton",
							"name": "",
							"type": "address"
						}
					],
					"stateMutability": "view",
					"type": "function"
				},
				{
					"inputs": [],
					"name": "USDT",
					"outputs": [
						{
							"internalType": "contract IERC20",
							"name": "",
							"type": "address"
						}
					],
					"stateMutability": "view",
					"type": "function"
				},
				{
					"inputs": [
						{
							"internalType": "bool",
							"name": "status",
							"type": "bool"
						}
					],
					"name": "auctionStatus",
					"outputs": [],
					"stateMutability": "nonpayable",
					"type": "function"
				},
				{
					"inputs": [
						{
							"internalType": "contract IERC20",
							"name": "contractAddress",
							"type": "address"
						},
						{
							"internalType": "uint256",
							"name": "_amount",
							"type": "uint256"
						}
					],
					"name": "buyTokens",
					"outputs": [],
					"stateMutability": "nonpayable",
					"type": "function"
				},
				{
					"inputs": [
						{
							"internalType": "uint256",
							"name": "_usdtAmount",
							"type": "uint256"
						}
					],
					"name": "calculateTokenAmount",
					"outputs": [
						{
							"internalType": "uint256",
							"name": "",
							"type": "uint256"
						}
					],
					"stateMutability": "view",
					"type": "function"
				},
				{
					"inputs": [
						{
							"internalType": "address",
							"name": "user",
							"type": "address"
						},
						{
							"internalType": "uint256",
							"name": "_usdtAmount",
							"type": "uint256"
						}
					],
					"name": "claimReward",
					"outputs": [],
					"stateMutability": "nonpayable",
					"type": "function"
				},
				{
					"inputs": [],
					"name": "currentRound",
					"outputs": [
						{
							"internalType": "uint256",
							"name": "",
							"type": "uint256"
						}
					],
					"stateMutability": "view",
					"type": "function"
				},
				{
					"inputs": [
						{
							"internalType": "uint256",
							"name": "",
							"type": "uint256"
						}
					],
					"name": "dailyAuctions",
					"outputs": [
						{
							"internalType": "uint256",
							"name": "tokensDaily",
							"type": "uint256"
						},
						{
							"internalType": "uint256",
							"name": "tokensSold",
							"type": "uint256"
						},
						{
							"internalType": "uint256",
							"name": "oversubscribed",
							"type": "uint256"
						},
						{
							"internalType": "uint256",
							"name": "bonusMultiplier",
							"type": "uint256"
						}
					],
					"stateMutability": "view",
					"type": "function"
				},
				{
					"inputs": [],
					"name": "fundsWallet",
					"outputs": [
						{
							"internalType": "address",
							"name": "",
							"type": "address"
						}
					],
					"stateMutability": "view",
					"type": "function"
				},
				{
					"inputs": [],
					"name": "getCurrentDay",
					"outputs": [
						{
							"internalType": "uint256",
							"name": "",
							"type": "uint256"
						}
					],
					"stateMutability": "view",
					"type": "function"
				},
				{
					"inputs": [
						{
							"internalType": "uint256",
							"name": "roundNumber",
							"type": "uint256"
						},
						{
							"internalType": "uint256",
							"name": "day",
							"type": "uint256"
						}
					],
					"name": "getDailyAuction",
					"outputs": [
						{
							"internalType": "uint256",
							"name": "",
							"type": "uint256"
						}
					],
					"stateMutability": "view",
					"type": "function"
				},
				{
					"inputs": [],
					"name": "isPaused",
					"outputs": [
						{
							"internalType": "bool",
							"name": "",
							"type": "bool"
						}
					],
					"stateMutability": "view",
					"type": "function"
				},
				{
					"inputs": [],
					"name": "lockingDay",
					"outputs": [
						{
							"internalType": "uint256",
							"name": "",
							"type": "uint256"
						}
					],
					"stateMutability": "view",
					"type": "function"
				},
				{
					"inputs": [],
					"name": "maxOversubscription",
					"outputs": [
						{
							"internalType": "uint256",
							"name": "",
							"type": "uint256"
						}
					],
					"stateMutability": "view",
					"type": "function"
				},
				{
					"inputs": [],
					"name": "maxOversubscriptionlimit",
					"outputs": [
						{
							"internalType": "uint256",
							"name": "",
							"type": "uint256"
						}
					],
					"stateMutability": "view",
					"type": "function"
				},
				{
					"inputs": [],
					"name": "owner",
					"outputs": [
						{
							"internalType": "address",
							"name": "",
							"type": "address"
						}
					],
					"stateMutability": "view",
					"type": "function"
				},
				{
					"inputs": [],
					"name": "renounceOwnership",
					"outputs": [],
					"stateMutability": "nonpayable",
					"type": "function"
				},
				{
					"inputs": [
						{
							"internalType": "uint256",
							"name": "",
							"type": "uint256"
						}
					],
					"name": "rounds",
					"outputs": [
						{
							"internalType": "uint256",
							"name": "roundStart",
							"type": "uint256"
						},
						{
							"internalType": "uint256",
							"name": "roundEnd",
							"type": "uint256"
						}
					],
					"stateMutability": "view",
					"type": "function"
				},
				{
					"inputs": [
						{
							"internalType": "uint256",
							"name": "day",
							"type": "uint256"
						},
						{
							"internalType": "uint256",
							"name": "tokensDaily",
							"type": "uint256"
						},
						{
							"internalType": "uint256",
							"name": "bonusMultiplier",
							"type": "uint256"
						}
					],
					"name": "setDailyDetails",
					"outputs": [],
					"stateMutability": "nonpayable",
					"type": "function"
				},
				{
					"inputs": [
						{
							"internalType": "address",
							"name": "_fundsWalletAddr",
							"type": "address"
						}
					],
					"name": "setFundsWallet",
					"outputs": [],
					"stateMutability": "nonpayable",
					"type": "function"
				},
				{
					"inputs": [
						{
							"internalType": "uint256",
							"name": "_tokenPrice",
							"type": "uint256"
						}
					],
					"name": "setPrice",
					"outputs": [],
					"stateMutability": "nonpayable",
					"type": "function"
				},
				{
					"inputs": [
						{
							"internalType": "contract IERC20",
							"name": "addr",
							"type": "address"
						}
					],
					"name": "setToken",
					"outputs": [],
					"stateMutability": "nonpayable",
					"type": "function"
				},
				{
					"inputs": [],
					"name": "startAuction",
					"outputs": [],
					"stateMutability": "nonpayable",
					"type": "function"
				},
				{
					"inputs": [
						{
							"internalType": "uint256",
							"name": "",
							"type": "uint256"
						}
					],
					"name": "token",
					"outputs": [
						{
							"internalType": "contract IERC20",
							"name": "",
							"type": "address"
						}
					],
					"stateMutability": "view",
					"type": "function"
				},
				{
					"inputs": [],
					"name": "tokenPrice",
					"outputs": [
						{
							"internalType": "uint256",
							"name": "",
							"type": "uint256"
						}
					],
					"stateMutability": "view",
					"type": "function"
				},
				{
					"inputs": [],
					"name": "totalSell",
					"outputs": [
						{
							"internalType": "uint256",
							"name": "",
							"type": "uint256"
						}
					],
					"stateMutability": "view",
					"type": "function"
				},
				{
					"inputs": [
						{
							"internalType": "address",
							"name": "newOwner",
							"type": "address"
						}
					],
					"name": "transferOwnership",
					"outputs": [],
					"stateMutability": "nonpayable",
					"type": "function"
				},
				{
					"inputs": [
						{
							"internalType": "address",
							"name": "",
							"type": "address"
						}
					],
					"name": "userDetail",
					"outputs": [
						{
							"internalType": "uint256",
							"name": "reward",
							"type": "uint256"
						},
						{
							"internalType": "uint256",
							"name": "buyTotal",
							"type": "uint256"
						}
					],
					"stateMutability": "view",
					"type": "function"
				}
			],
			"devdoc": {
				"errors": {
					"OwnableInvalidOwner(address)": [
						{
							"details": "The owner is not a valid owner account. (eg. `address(0)`)"
						}
					],
					"OwnableUnauthorizedAccount(address)": [
						{
							"details": "The caller account is not authorized to perform an operation."
						}
					]
				},
				"kind": "dev",
				"methods": {
					"owner()": {
						"details": "Returns the address of the current owner."
					},
					"renounceOwnership()": {
						"details": "Leaves the contract without owner. It will not be possible to call `onlyOwner` functions. Can only be called by the current owner. NOTE: Renouncing ownership will leave the contract without an owner, thereby disabling any functionality that is only available to the owner."
					},
					"transferOwnership(address)": {
						"details": "Transfers ownership of the contract to a new account (`newOwner`). Can only be called by the current owner."
					}
				},
				"version": 1
			},
			"evm": {
				"assembly": "    /* \"contracts/Auction/auction1404.sol\":23326:32398  contract ProtonAuction is Ownable {... */\n  mstore(0x40, 0x80)\n    /* \"contracts/Auction/auction1404.sol\":23445:23457  1 * 10 ** 18 */\n  0x0de0b6b3a7640000\n    /* \"contracts/Auction/auction1404.sol\":23417:23457  uint256 public tokenPrice = 1 * 10 ** 18 */\n  0x03\n  sstore\n    /* \"contracts/Auction/auction1404.sol\":23583:23601  5000000 * 10 ** 18 */\n  0x0422ca8b0a00a425000000\n    /* \"contracts/Auction/auction1404.sol\":23546:23601  uint256 public maxOversubscription = 5000000 * 10 ** 18 */\n  0x04\n  sstore\n    /* \"contracts/Auction/auction1404.sol\":23649:23667  1000000 * 10 ** 18 */\n  0xd3c21bcecceda1000000\n    /* \"contracts/Auction/auction1404.sol\":23607:23667  uint256 public maxOversubscriptionlimit = 1000000 * 10 ** 18 */\n  0x05\n  sstore\n    /* \"contracts/Auction/auction1404.sol\":23770:23773  180 */\n  0xb4\n    /* \"contracts/Auction/auction1404.sol\":23742:23773  uint256 public lockingDay = 180 */\n  0x07\n  sstore\n    /* \"contracts/Auction/auction1404.sol\":23839:23843  true */\n  0x01\n    /* \"contracts/Auction/auction1404.sol\":23813:23843  bool    public isPaused = true */\n  0x09\n  exp(0x0100, 0x00)\n  dup2\n  sload\n  dup2\n  0xff\n  mul\n  not\n  and\n  swap1\n  dup4\n  iszero\n  iszero\n  mul\n  or\n  swap1\n  sstore\n  pop\n    /* \"contracts/Auction/auction1404.sol\":24733:24957  constructor(... */\n  callvalue\n  dup1\n  iszero\n  tag_1\n  jumpi\n  0x00\n  dup1\n  revert\ntag_1:\n  pop\n  mload(0x40)\n  sub(codesize, bytecodeSize)\n  dup1\n  bytecodeSize\n  dup4\n  codecopy\n  dup2\n  dup2\n  add\n  0x40\n  mstore\n  dup2\n  add\n  swap1\n  tag_2\n  swap2\n  swap1\n  tag_3\n  jump\t// in\ntag_2:\n    /* \"contracts/Auction/auction1404.sol\":24825:24835  msg.sender */\n  caller\n    /* \"contracts/Auction/auction1404.sol\":1592:1593  0 */\n  0x00\n    /* \"contracts/Auction/auction1404.sol\":1568:1594  initialOwner == address(0) */\n  0xffffffffffffffffffffffffffffffffffffffff\n  and\n    /* \"contracts/Auction/auction1404.sol\":1568:1580  initialOwner */\n  dup2\n    /* \"contracts/Auction/auction1404.sol\":1568:1594  initialOwner == address(0) */\n  0xffffffffffffffffffffffffffffffffffffffff\n  and\n  sub\n    /* \"contracts/Auction/auction1404.sol\":1564:1659  if (initialOwner == address(0)) {... */\n  tag_7\n  jumpi\n    /* \"contracts/Auction/auction1404.sol\":1645:1646  0 */\n  0x00\n    /* \"contracts/Auction/auction1404.sol\":1617:1648  OwnableInvalidOwner(address(0)) */\n  mload(0x40)\n  0x1e4fbdf700000000000000000000000000000000000000000000000000000000\n  dup2\n  mstore\n  0x04\n  add\n  tag_8\n  swap2\n  swap1\n  tag_9\n  jump\t// in\ntag_8:\n  mload(0x40)\n  dup1\n  swap2\n  sub\n  swap1\n  revert\n    /* \"contracts/Auction/auction1404.sol\":1564:1659  if (initialOwner == address(0)) {... */\ntag_7:\n    /* \"contracts/Auction/auction1404.sol\":1668:1700  _transferOwnership(initialOwner) */\n  tag_10\n    /* \"contracts/Auction/auction1404.sol\":1687:1699  initialOwner */\n  dup2\n    /* \"contracts/Auction/auction1404.sol\":1668:1686  _transferOwnership */\n  shl(0x20, tag_11)\n    /* \"contracts/Auction/auction1404.sol\":1668:1700  _transferOwnership(initialOwner) */\n  0x20\n  shr\n  jump\t// in\ntag_10:\n    /* \"contracts/Auction/auction1404.sol\":1520:1707  constructor(address initialOwner) {... */\n  pop\n    /* \"contracts/Auction/auction1404.sol\":24864:24878  _protonAddress */\n  dup2\n    /* \"contracts/Auction/auction1404.sol\":24847:24853  PROTON */\n  0x02\n  0x00\n    /* \"contracts/Auction/auction1404.sol\":24847:24879  PROTON = IProton(_protonAddress) */\n  0x0100\n  exp\n  dup2\n  sload\n  dup2\n  0xffffffffffffffffffffffffffffffffffffffff\n  mul\n  not\n  and\n  swap1\n  dup4\n  0xffffffffffffffffffffffffffffffffffffffff\n  and\n  mul\n  or\n  swap1\n  sstore\n  pop\n    /* \"contracts/Auction/auction1404.sol\":24903:24918  _fundsWalletAdd */\n  dup1\n    /* \"contracts/Auction/auction1404.sol\":24889:24900  fundsWallet */\n  0x09\n  0x01\n    /* \"contracts/Auction/auction1404.sol\":24889:24918  fundsWallet = _fundsWalletAdd */\n  0x0100\n  exp\n  dup2\n  sload\n  dup2\n  0xffffffffffffffffffffffffffffffffffffffff\n  mul\n  not\n  and\n  swap1\n  dup4\n  0xffffffffffffffffffffffffffffffffffffffff\n  and\n  mul\n  or\n  swap1\n  sstore\n  pop\n    /* \"contracts/Auction/auction1404.sol\":24939:24943  true */\n  0x01\n    /* \"contracts/Auction/auction1404.sol\":24928:24936  isPaused */\n  0x09\n  0x00\n    /* \"contracts/Auction/auction1404.sol\":24928:24943  isPaused = true */\n  0x0100\n  exp\n  dup2\n  sload\n  dup2\n  0xff\n  mul\n  not\n  and\n  swap1\n  dup4\n  iszero\n  iszero\n  mul\n  or\n  swap1\n  sstore\n  pop\n    /* \"contracts/Auction/auction1404.sol\":24733:24957  constructor(... */\n  pop\n  pop\n    /* \"contracts/Auction/auction1404.sol\":23326:32398  contract ProtonAuction is Ownable {... */\n  jump(tag_13)\n    /* \"contracts/Auction/auction1404.sol\":3207:3394  function _transferOwnership(address newOwner) internal virtual {... */\ntag_11:\n    /* \"contracts/Auction/auction1404.sol\":3280:3296  address oldOwner */\n  0x00\n    /* \"contracts/Auction/auction1404.sol\":3299:3305  _owner */\n  dup1\n  0x00\n  swap1\n  sload\n  swap1\n  0x0100\n  exp\n  swap1\n  div\n  0xffffffffffffffffffffffffffffffffffffffff\n  and\n    /* \"contracts/Auction/auction1404.sol\":3280:3305  address oldOwner = _owner */\n  swap1\n  pop\n    /* \"contracts/Auction/auction1404.sol\":3324:3332  newOwner */\n  dup2\n    /* \"contracts/Auction/auction1404.sol\":3315:3321  _owner */\n  0x00\n  dup1\n    /* \"contracts/Auction/auction1404.sol\":3315:3332  _owner = newOwner */\n  0x0100\n  exp\n  dup2\n  sload\n  dup2\n  0xffffffffffffffffffffffffffffffffffffffff\n  mul\n  not\n  and\n  swap1\n  dup4\n  0xffffffffffffffffffffffffffffffffffffffff\n  and\n  mul\n  or\n  swap1\n  sstore\n  pop\n    /* \"contracts/Auction/auction1404.sol\":3378:3386  newOwner */\n  dup2\n    /* \"contracts/Auction/auction1404.sol\":3347:3387  OwnershipTransferred(oldOwner, newOwner) */\n  0xffffffffffffffffffffffffffffffffffffffff\n  and\n    /* \"contracts/Auction/auction1404.sol\":3368:3376  oldOwner */\n  dup2\n    /* \"contracts/Auction/auction1404.sol\":3347:3387  OwnershipTransferred(oldOwner, newOwner) */\n  0xffffffffffffffffffffffffffffffffffffffff\n  and\n  0x8be0079c531659141344cd1fd0a4f28419497f9722a3daafe3b4186f6b6457e0\n  mload(0x40)\n  mload(0x40)\n  dup1\n  swap2\n  sub\n  swap1\n  log3\n    /* \"contracts/Auction/auction1404.sol\":3270:3394  {... */\n  pop\n    /* \"contracts/Auction/auction1404.sol\":3207:3394  function _transferOwnership(address newOwner) internal virtual {... */\n  pop\n  jump\t// out\n    /* \"#utility.yul\":88:205   */\ntag_16:\n    /* \"#utility.yul\":197:198   */\n  0x00\n    /* \"#utility.yul\":194:195   */\n  dup1\n    /* \"#utility.yul\":187:199   */\n  revert\n    /* \"#utility.yul\":334:460   */\ntag_18:\n    /* \"#utility.yul\":371:378   */\n  0x00\n    /* \"#utility.yul\":411:453   */\n  0xffffffffffffffffffffffffffffffffffffffff\n    /* \"#utility.yul\":404:409   */\n  dup3\n    /* \"#utility.yul\":400:454   */\n  and\n    /* \"#utility.yul\":389:454   */\n  swap1\n  pop\n    /* \"#utility.yul\":334:460   */\n  swap2\n  swap1\n  pop\n  jump\t// out\n    /* \"#utility.yul\":466:562   */\ntag_19:\n    /* \"#utility.yul\":503:510   */\n  0x00\n    /* \"#utility.yul\":532:556   */\n  tag_29\n    /* \"#utility.yul\":550:555   */\n  dup3\n    /* \"#utility.yul\":532:556   */\n  tag_18\n  jump\t// in\ntag_29:\n    /* \"#utility.yul\":521:556   */\n  swap1\n  pop\n    /* \"#utility.yul\":466:562   */\n  swap2\n  swap1\n  pop\n  jump\t// out\n    /* \"#utility.yul\":568:690   */\ntag_20:\n    /* \"#utility.yul\":641:665   */\n  tag_31\n    /* \"#utility.yul\":659:664   */\n  dup2\n    /* \"#utility.yul\":641:665   */\n  tag_19\n  jump\t// in\ntag_31:\n    /* \"#utility.yul\":634:639   */\n  dup2\n    /* \"#utility.yul\":631:666   */\n  eq\n    /* \"#utility.yul\":621:684   */\n  tag_32\n  jumpi\n    /* \"#utility.yul\":680:681   */\n  0x00\n    /* \"#utility.yul\":677:678   */\n  dup1\n    /* \"#utility.yul\":670:682   */\n  revert\n    /* \"#utility.yul\":621:684   */\ntag_32:\n    /* \"#utility.yul\":568:690   */\n  pop\n  jump\t// out\n    /* \"#utility.yul\":696:839   */\ntag_21:\n    /* \"#utility.yul\":753:758   */\n  0x00\n    /* \"#utility.yul\":784:790   */\n  dup2\n    /* \"#utility.yul\":778:791   */\n  mload\n    /* \"#utility.yul\":769:791   */\n  swap1\n  pop\n    /* \"#utility.yul\":800:833   */\n  tag_34\n    /* \"#utility.yul\":827:832   */\n  dup2\n    /* \"#utility.yul\":800:833   */\n  tag_20\n  jump\t// in\ntag_34:\n    /* \"#utility.yul\":696:839   */\n  swap3\n  swap2\n  pop\n  pop\n  jump\t// out\n    /* \"#utility.yul\":845:1352   */\ntag_3:\n    /* \"#utility.yul\":924:930   */\n  0x00\n    /* \"#utility.yul\":932:938   */\n  dup1\n    /* \"#utility.yul\":981:983   */\n  0x40\n    /* \"#utility.yul\":969:978   */\n  dup4\n    /* \"#utility.yul\":960:967   */\n  dup6\n    /* \"#utility.yul\":956:979   */\n  sub\n    /* \"#utility.yul\":952:984   */\n  slt\n    /* \"#utility.yul\":949:1068   */\n  iszero\n  tag_36\n  jumpi\n    /* \"#utility.yul\":987:1066   */\n  tag_37\n  tag_16\n  jump\t// in\ntag_37:\n    /* \"#utility.yul\":949:1068   */\ntag_36:\n    /* \"#utility.yul\":1107:1108   */\n  0x00\n    /* \"#utility.yul\":1132:1196   */\n  tag_38\n    /* \"#utility.yul\":1188:1195   */\n  dup6\n    /* \"#utility.yul\":1179:1185   */\n  dup3\n    /* \"#utility.yul\":1168:1177   */\n  dup7\n    /* \"#utility.yul\":1164:1186   */\n  add\n    /* \"#utility.yul\":1132:1196   */\n  tag_21\n  jump\t// in\ntag_38:\n    /* \"#utility.yul\":1122:1196   */\n  swap3\n  pop\n    /* \"#utility.yul\":1078:1206   */\n  pop\n    /* \"#utility.yul\":1245:1247   */\n  0x20\n    /* \"#utility.yul\":1271:1335   */\n  tag_39\n    /* \"#utility.yul\":1327:1334   */\n  dup6\n    /* \"#utility.yul\":1318:1324   */\n  dup3\n    /* \"#utility.yul\":1307:1316   */\n  dup7\n    /* \"#utility.yul\":1303:1325   */\n  add\n    /* \"#utility.yul\":1271:1335   */\n  tag_21\n  jump\t// in\ntag_39:\n    /* \"#utility.yul\":1261:1335   */\n  swap2\n  pop\n    /* \"#utility.yul\":1216:1345   */\n  pop\n    /* \"#utility.yul\":845:1352   */\n  swap3\n  pop\n  swap3\n  swap1\n  pop\n  jump\t// out\n    /* \"#utility.yul\":1358:1476   */\ntag_22:\n    /* \"#utility.yul\":1445:1469   */\n  tag_41\n    /* \"#utility.yul\":1463:1468   */\n  dup2\n    /* \"#utility.yul\":1445:1469   */\n  tag_19\n  jump\t// in\ntag_41:\n    /* \"#utility.yul\":1440:1443   */\n  dup3\n    /* \"#utility.yul\":1433:1470   */\n  mstore\n    /* \"#utility.yul\":1358:1476   */\n  pop\n  pop\n  jump\t// out\n    /* \"#utility.yul\":1482:1704   */\ntag_9:\n    /* \"#utility.yul\":1575:1579   */\n  0x00\n    /* \"#utility.yul\":1613:1615   */\n  0x20\n    /* \"#utility.yul\":1602:1611   */\n  dup3\n    /* \"#utility.yul\":1598:1616   */\n  add\n    /* \"#utility.yul\":1590:1616   */\n  swap1\n  pop\n    /* \"#utility.yul\":1626:1697   */\n  tag_43\n    /* \"#utility.yul\":1694:1695   */\n  0x00\n    /* \"#utility.yul\":1683:1692   */\n  dup4\n    /* \"#utility.yul\":1679:1696   */\n  add\n    /* \"#utility.yul\":1670:1676   */\n  dup5\n    /* \"#utility.yul\":1626:1697   */\n  tag_22\n  jump\t// in\ntag_43:\n    /* \"#utility.yul\":1482:1704   */\n  swap3\n  swap2\n  pop\n  pop\n  jump\t// out\n    /* \"contracts/Auction/auction1404.sol\":23326:32398  contract ProtonAuction is Ownable {... */\ntag_13:\n  dataSize(sub_0)\n  dup1\n  dataOffset(sub_0)\n  0x00\n  codecopy\n  0x00\n  return\nstop\n\nsub_0: assembly {\n        /* \"contracts/Auction/auction1404.sol\":23326:32398  contract ProtonAuction is Ownable {... */\n      mstore(0x40, 0x80)\n      callvalue\n      dup1\n      iszero\n      tag_1\n      jumpi\n      0x00\n      dup1\n      revert\n    tag_1:\n      pop\n      jumpi(tag_2, lt(calldatasize, 0x04))\n      shr(0xe0, calldataload(0x00))\n      dup1\n      0x715018a6\n      gt\n      tag_32\n      jumpi\n      dup1\n      0xb187bd26\n      gt\n      tag_33\n      jumpi\n      dup1\n      0xd358aa20\n      gt\n      tag_34\n      jumpi\n      dup1\n      0xd358aa20\n      eq\n      tag_28\n      jumpi\n      dup1\n      0xe0202f87\n      eq\n      tag_29\n      jumpi\n      dup1\n      0xf2fde38b\n      eq\n      tag_30\n      jumpi\n      dup1\n      0xfa6770b3\n      eq\n      tag_31\n      jumpi\n      jump(tag_2)\n    tag_34:\n      dup1\n      0xb187bd26\n      eq\n      tag_24\n      jumpi\n      dup1\n      0xbb4d5e7c\n      eq\n      tag_25\n      jumpi\n      dup1\n      0xbf4dd131\n      eq\n      tag_26\n      jumpi\n      dup1\n      0xc54e44eb\n      eq\n      tag_27\n      jumpi\n      jump(tag_2)\n    tag_33:\n      dup1\n      0x8c65c81f\n      gt\n      tag_35\n      jumpi\n      dup1\n      0x8c65c81f\n      eq\n      tag_20\n      jumpi\n      dup1\n      0x8da5cb5b\n      eq\n      tag_21\n      jumpi\n      dup1\n      0x91b7f5ed\n      eq\n      tag_22\n      jumpi\n      dup1\n      0xa24bcf46\n      eq\n      tag_23\n      jumpi\n      jump(tag_2)\n    tag_35:\n      dup1\n      0x715018a6\n      eq\n      tag_17\n      jumpi\n      dup1\n      0x7ff9b596\n      eq\n      tag_18\n      jumpi\n      dup1\n      0x8a19c8bc\n      eq\n      tag_19\n      jumpi\n      jump(tag_2)\n    tag_32:\n      dup1\n      0x30db6f95\n      gt\n      tag_36\n      jumpi\n      dup1\n      0x48a5c188\n      gt\n      tag_37\n      jumpi\n      dup1\n      0x48a5c188\n      eq\n      tag_13\n      jumpi\n      dup1\n      0x5b10493f\n      eq\n      tag_14\n      jumpi\n      dup1\n      0x64e39b87\n      eq\n      tag_15\n      jumpi\n      dup1\n      0x6b64c769\n      eq\n      tag_16\n      jumpi\n      jump(tag_2)\n    tag_37:\n      dup1\n      0x30db6f95\n      eq\n      tag_10\n      jumpi\n      dup1\n      0x3c830a38\n      eq\n      tag_11\n      jumpi\n      dup1\n      0x3e6968b6\n      eq\n      tag_12\n      jumpi\n      jump(tag_2)\n    tag_36:\n      dup1\n      0x174e31c4\n      gt\n      tag_38\n      jumpi\n      dup1\n      0x174e31c4\n      eq\n      tag_6\n      jumpi\n      dup1\n      0x18d7fa46\n      eq\n      tag_7\n      jumpi\n      dup1\n      0x2194f3a2\n      eq\n      tag_8\n      jumpi\n      dup1\n      0x224a8057\n      eq\n      tag_9\n      jumpi\n      jump(tag_2)\n    tag_38:\n      dup1\n      0x044215c6\n      eq\n      tag_3\n      jumpi\n      dup1\n      0x0752881a\n      eq\n      tag_4\n      jumpi\n      dup1\n      0x144fa6d7\n      eq\n      tag_5\n      jumpi\n    tag_2:\n      0x00\n      dup1\n      revert\n        /* \"contracts/Auction/auction1404.sol\":23881:23903  IERC20 [] public token */\n    tag_3:\n      tag_39\n      0x04\n      dup1\n      calldatasize\n      sub\n      dup2\n      add\n      swap1\n      tag_40\n      swap2\n      swap1\n      tag_41\n      jump\t// in\n    tag_40:\n      tag_42\n      jump\t// in\n    tag_39:\n      mload(0x40)\n      tag_43\n      swap2\n      swap1\n      tag_44\n      jump\t// in\n    tag_43:\n      mload(0x40)\n      dup1\n      swap2\n      sub\n      swap1\n      return\n        /* \"contracts/Auction/auction1404.sol\":27344:29880  function buyTokens(... */\n    tag_4:\n      tag_45\n      0x04\n      dup1\n      calldatasize\n      sub\n      dup2\n      add\n      swap1\n      tag_46\n      swap2\n      swap1\n      tag_47\n      jump\t// in\n    tag_46:\n      tag_48\n      jump\t// in\n    tag_45:\n      stop\n        /* \"contracts/Auction/auction1404.sol\":25356:25439  function setToken(IERC20 addr) external onlyOwner {... */\n    tag_5:\n      tag_49\n      0x04\n      dup1\n      calldatasize\n      sub\n      dup2\n      add\n      swap1\n      tag_50\n      swap2\n      swap1\n      tag_51\n      jump\t// in\n    tag_50:\n      tag_52\n      jump\t// in\n    tag_49:\n      stop\n        /* \"contracts/Auction/auction1404.sol\":31499:32018  function claimReward(... */\n    tag_6:\n      tag_53\n      0x04\n      dup1\n      calldatasize\n      sub\n      dup2\n      add\n      swap1\n      tag_54\n      swap2\n      swap1\n      tag_55\n      jump\t// in\n    tag_54:\n      tag_56\n      jump\t// in\n    tag_53:\n      stop\n        /* \"contracts/Auction/auction1404.sol\":26295:26603  function setDailyDetails(... */\n    tag_7:\n      tag_57\n      0x04\n      dup1\n      calldatasize\n      sub\n      dup2\n      add\n      swap1\n      tag_58\n      swap2\n      swap1\n      tag_59\n      jump\t// in\n    tag_58:\n      tag_60\n      jump\t// in\n    tag_57:\n      stop\n        /* \"contracts/Auction/auction1404.sol\":23849:23875  address public fundsWallet */\n    tag_8:\n      tag_61\n      tag_62\n      jump\t// in\n    tag_61:\n      mload(0x40)\n      tag_63\n      swap2\n      swap1\n      tag_64\n      jump\t// in\n    tag_63:\n      mload(0x40)\n      dup1\n      swap2\n      sub\n      swap1\n      return\n        /* \"contracts/Auction/auction1404.sol\":23607:23667  uint256 public maxOversubscriptionlimit = 1000000 * 10 ** 18 */\n    tag_9:\n      tag_65\n      tag_66\n      jump\t// in\n    tag_65:\n      mload(0x40)\n      tag_67\n      swap2\n      swap1\n      tag_68\n      jump\t// in\n    tag_67:\n      mload(0x40)\n      dup1\n      swap2\n      sub\n      swap1\n      return\n        /* \"contracts/Auction/auction1404.sol\":30764:30921  function auctionStatus(bool status) external onlyOwner {... */\n    tag_10:\n      tag_69\n      0x04\n      dup1\n      calldatasize\n      sub\n      dup2\n      add\n      swap1\n      tag_70\n      swap2\n      swap1\n      tag_71\n      jump\t// in\n    tag_70:\n      tag_72\n      jump\t// in\n    tag_69:\n      stop\n        /* \"contracts/Auction/auction1404.sol\":24315:24363  mapping(uint256 => Auction) public dailyAuctions */\n    tag_11:\n      tag_73\n      0x04\n      dup1\n      calldatasize\n      sub\n      dup2\n      add\n      swap1\n      tag_74\n      swap2\n      swap1\n      tag_41\n      jump\t// in\n    tag_74:\n      tag_75\n      jump\t// in\n    tag_73:\n      mload(0x40)\n      tag_76\n      swap5\n      swap4\n      swap3\n      swap2\n      swap1\n      tag_77\n      jump\t// in\n    tag_76:\n      mload(0x40)\n      dup1\n      swap2\n      sub\n      swap1\n      return\n        /* \"contracts/Auction/auction1404.sol\":26860:27338  function getCurrentDay() public view returns (uint256) {... */\n    tag_12:\n      tag_78\n      tag_79\n      jump\t// in\n    tag_78:\n      mload(0x40)\n      tag_80\n      swap2\n      swap1\n      tag_68\n      jump\t// in\n    tag_80:\n      mload(0x40)\n      dup1\n      swap2\n      sub\n      swap1\n      return\n        /* \"contracts/Auction/auction1404.sol\":31159:31493  function getDailyAuction(uint256 roundNumber, uint256 day) external view returns ( uint256) {... */\n    tag_13:\n      tag_81\n      0x04\n      dup1\n      calldatasize\n      sub\n      dup2\n      add\n      swap1\n      tag_82\n      swap2\n      swap1\n      tag_83\n      jump\t// in\n    tag_82:\n      tag_84\n      jump\t// in\n    tag_81:\n      mload(0x40)\n      tag_85\n      swap2\n      swap1\n      tag_68\n      jump\t// in\n    tag_85:\n      mload(0x40)\n      dup1\n      swap2\n      sub\n      swap1\n      return\n        /* \"contracts/Auction/auction1404.sol\":24369:24418  mapping(address => UserDetails) public userDetail */\n    tag_14:\n      tag_86\n      0x04\n      dup1\n      calldatasize\n      sub\n      dup2\n      add\n      swap1\n      tag_87\n      swap2\n      swap1\n      tag_88\n      jump\t// in\n    tag_87:\n      tag_89\n      jump\t// in\n    tag_86:\n      mload(0x40)\n      tag_90\n      swap3\n      swap2\n      swap1\n      tag_91\n      jump\t// in\n    tag_90:\n      mload(0x40)\n      dup1\n      swap2\n      sub\n      swap1\n      return\n        /* \"contracts/Auction/auction1404.sol\":26173:26289  function setFundsWallet(address _fundsWalletAddr) external onlyOwner {... */\n    tag_15:\n      tag_92\n      0x04\n      dup1\n      calldatasize\n      sub\n      dup2\n      add\n      swap1\n      tag_93\n      swap2\n      swap1\n      tag_88\n      jump\t// in\n    tag_93:\n      tag_94\n      jump\t// in\n    tag_92:\n      stop\n        /* \"contracts/Auction/auction1404.sol\":25445:26062  function startAuction() external onlyOwner {... */\n    tag_16:\n      tag_95\n      tag_96\n      jump\t// in\n    tag_95:\n      stop\n        /* \"contracts/Auction/auction1404.sol\":2588:2689  function renounceOwnership() public virtual onlyOwner {... */\n    tag_17:\n      tag_97\n      tag_98\n      jump\t// in\n    tag_97:\n      stop\n        /* \"contracts/Auction/auction1404.sol\":23417:23457  uint256 public tokenPrice = 1 * 10 ** 18 */\n    tag_18:\n      tag_99\n      tag_100\n      jump\t// in\n    tag_99:\n      mload(0x40)\n      tag_101\n      swap2\n      swap1\n      tag_68\n      jump\t// in\n    tag_101:\n      mload(0x40)\n      dup1\n      swap2\n      sub\n      swap1\n      return\n        /* \"contracts/Auction/auction1404.sol\":23780:23807  uint256 public currentRound */\n    tag_19:\n      tag_102\n      tag_103\n      jump\t// in\n    tag_102:\n      mload(0x40)\n      tag_104\n      swap2\n      swap1\n      tag_68\n      jump\t// in\n    tag_104:\n      mload(0x40)\n      dup1\n      swap2\n      sub\n      swap1\n      return\n        /* \"contracts/Auction/auction1404.sol\":24269:24308  mapping(uint256 => Round) public rounds */\n    tag_20:\n      tag_105\n      0x04\n      dup1\n      calldatasize\n      sub\n      dup2\n      add\n      swap1\n      tag_106\n      swap2\n      swap1\n      tag_41\n      jump\t// in\n    tag_106:\n      tag_107\n      jump\t// in\n    tag_105:\n      mload(0x40)\n      tag_108\n      swap3\n      swap2\n      swap1\n      tag_91\n      jump\t// in\n    tag_108:\n      mload(0x40)\n      dup1\n      swap2\n      sub\n      swap1\n      return\n        /* \"contracts/Auction/auction1404.sol\":1933:2018  function owner() public view virtual returns (address) {... */\n    tag_21:\n      tag_109\n      tag_110\n      jump\t// in\n    tag_109:\n      mload(0x40)\n      tag_111\n      swap2\n      swap1\n      tag_64\n      jump\t// in\n    tag_111:\n      mload(0x40)\n      dup1\n      swap2\n      sub\n      swap1\n      return\n        /* \"contracts/Auction/auction1404.sol\":26068:26167  function setPrice(uint256 _tokenPrice) external onlyOwner {... */\n    tag_22:\n      tag_112\n      0x04\n      dup1\n      calldatasize\n      sub\n      dup2\n      add\n      swap1\n      tag_113\n      swap2\n      swap1\n      tag_41\n      jump\t// in\n    tag_113:\n      tag_114\n      jump\t// in\n    tag_112:\n      stop\n        /* \"contracts/Auction/auction1404.sol\":30998:31153  function calculateTokenAmount(... */\n    tag_23:\n      tag_115\n      0x04\n      dup1\n      calldatasize\n      sub\n      dup2\n      add\n      swap1\n      tag_116\n      swap2\n      swap1\n      tag_41\n      jump\t// in\n    tag_116:\n      tag_117\n      jump\t// in\n    tag_115:\n      mload(0x40)\n      tag_118\n      swap2\n      swap1\n      tag_68\n      jump\t// in\n    tag_118:\n      mload(0x40)\n      dup1\n      swap2\n      sub\n      swap1\n      return\n        /* \"contracts/Auction/auction1404.sol\":23813:23843  bool    public isPaused = true */\n    tag_24:\n      tag_119\n      tag_120\n      jump\t// in\n    tag_119:\n      mload(0x40)\n      tag_121\n      swap2\n      swap1\n      tag_122\n      jump\t// in\n    tag_121:\n      mload(0x40)\n      dup1\n      swap2\n      sub\n      swap1\n      return\n        /* \"contracts/Auction/auction1404.sol\":23546:23601  uint256 public maxOversubscription = 5000000 * 10 ** 18 */\n    tag_25:\n      tag_123\n      tag_124\n      jump\t// in\n    tag_123:\n      mload(0x40)\n      tag_125\n      swap2\n      swap1\n      tag_68\n      jump\t// in\n    tag_125:\n      mload(0x40)\n      dup1\n      swap2\n      sub\n      swap1\n      return\n        /* \"contracts/Auction/auction1404.sol\":23742:23773  uint256 public lockingDay = 180 */\n    tag_26:\n      tag_126\n      tag_127\n      jump\t// in\n    tag_126:\n      mload(0x40)\n      tag_128\n      swap2\n      swap1\n      tag_68\n      jump\t// in\n    tag_128:\n      mload(0x40)\n      dup1\n      swap2\n      sub\n      swap1\n      return\n        /* \"contracts/Auction/auction1404.sol\":23366:23384  IERC20 public USDT */\n    tag_27:\n      tag_129\n      tag_130\n      jump\t// in\n    tag_129:\n      mload(0x40)\n      tag_131\n      swap2\n      swap1\n      tag_44\n      jump\t// in\n    tag_131:\n      mload(0x40)\n      dup1\n      swap2\n      sub\n      swap1\n      return\n        /* \"contracts/Auction/auction1404.sol\":23390:23411  IProton public PROTON */\n    tag_28:\n      tag_132\n      tag_133\n      jump\t// in\n    tag_132:\n      mload(0x40)\n      tag_134\n      swap2\n      swap1\n      tag_135\n      jump\t// in\n    tag_134:\n      mload(0x40)\n      dup1\n      swap2\n      sub\n      swap1\n      return\n        /* \"contracts/Auction/auction1404.sol\":23712:23736  uint256 public totalSell */\n    tag_29:\n      tag_136\n      tag_137\n      jump\t// in\n    tag_136:\n      mload(0x40)\n      tag_138\n      swap2\n      swap1\n      tag_68\n      jump\t// in\n    tag_138:\n      mload(0x40)\n      dup1\n      swap2\n      sub\n      swap1\n      return\n        /* \"contracts/Auction/auction1404.sol\":2838:3053  function transferOwnership(address newOwner) public virtual onlyOwner {... */\n    tag_30:\n      tag_139\n      0x04\n      dup1\n      calldatasize\n      sub\n      dup2\n      add\n      swap1\n      tag_140\n      swap2\n      swap1\n      tag_88\n      jump\t// in\n    tag_140:\n      tag_141\n      jump\t// in\n    tag_139:\n      stop\n        /* \"contracts/Auction/auction1404.sol\":26609:26854  function AuctionTime() external view returns (uint256 _currentRound,uint256 roundStart, uint256 roundEnd) {... */\n    tag_31:\n      tag_142\n      tag_143\n      jump\t// in\n    tag_142:\n      mload(0x40)\n      tag_144\n      swap4\n      swap3\n      swap2\n      swap1\n      tag_145\n      jump\t// in\n    tag_144:\n      mload(0x40)\n      dup1\n      swap2\n      sub\n      swap1\n      return\n        /* \"contracts/Auction/auction1404.sol\":23881:23903  IERC20 [] public token */\n    tag_42:\n      0x0a\n      dup2\n      dup2\n      sload\n      dup2\n      lt\n      tag_146\n      jumpi\n      0x00\n      dup1\n      revert\n    tag_146:\n      swap1\n      0x00\n      mstore\n      keccak256(0x00, 0x20)\n      add\n      0x00\n      swap2\n      pop\n      sload\n      swap1\n      0x0100\n      exp\n      swap1\n      div\n      0xffffffffffffffffffffffffffffffffffffffff\n      and\n      dup2\n      jump\t// out\n        /* \"contracts/Auction/auction1404.sol\":27344:29880  function buyTokens(... */\n    tag_48:\n        /* \"contracts/Auction/auction1404.sol\":25007:25015  isPaused */\n      0x09\n      0x00\n      swap1\n      sload\n      swap1\n      0x0100\n      exp\n      swap1\n      div\n      0xff\n      and\n        /* \"contracts/Auction/auction1404.sol\":25006:25015  !isPaused */\n      iszero\n        /* \"contracts/Auction/auction1404.sol\":24998:25037  require(!isPaused, \"Auction is paused\") */\n      tag_149\n      jumpi\n      mload(0x40)\n      0x08c379a000000000000000000000000000000000000000000000000000000000\n      dup2\n      mstore\n      0x04\n      add\n      tag_150\n      swap1\n      tag_151\n      jump\t// in\n    tag_150:\n      mload(0x40)\n      dup1\n      swap2\n      sub\n      swap1\n      revert\n    tag_149:\n        /* \"contracts/Auction/auction1404.sol\":25074:25080  rounds */\n      0x0b\n        /* \"contracts/Auction/auction1404.sol\":25074:25094  rounds[currentRound] */\n      0x00\n        /* \"contracts/Auction/auction1404.sol\":25081:25093  currentRound */\n      sload(0x08)\n        /* \"contracts/Auction/auction1404.sol\":25074:25094  rounds[currentRound] */\n      dup2\n      mstore\n      0x20\n      add\n      swap1\n      dup2\n      mstore\n      0x20\n      add\n      0x00\n      keccak256\n        /* \"contracts/Auction/auction1404.sol\":25074:25103  rounds[currentRound].roundEnd */\n      0x01\n      add\n      sload\n        /* \"contracts/Auction/auction1404.sol\":25055:25070  block.timestamp */\n      timestamp\n        /* \"contracts/Auction/auction1404.sol\":25055:25103  block.timestamp <= rounds[currentRound].roundEnd */\n      gt\n      iszero\n        /* \"contracts/Auction/auction1404.sol\":25047:25131  require(block.timestamp <= rounds[currentRound].roundEnd, \"Current round has ended\") */\n      tag_152\n      jumpi\n      mload(0x40)\n      0x08c379a000000000000000000000000000000000000000000000000000000000\n      dup2\n      mstore\n      0x04\n      add\n      tag_153\n      swap1\n      tag_154\n      jump\t// in\n    tag_153:\n      mload(0x40)\n      dup1\n      swap2\n      sub\n      swap1\n      revert\n    tag_152:\n        /* \"contracts/Auction/auction1404.sol\":27459:27477  uint256 currentDay */\n      0x00\n        /* \"contracts/Auction/auction1404.sol\":27480:27495  getCurrentDay() */\n      tag_156\n        /* \"contracts/Auction/auction1404.sol\":27480:27493  getCurrentDay */\n      tag_79\n        /* \"contracts/Auction/auction1404.sol\":27480:27495  getCurrentDay() */\n      jump\t// in\n    tag_156:\n        /* \"contracts/Auction/auction1404.sol\":27459:27495  uint256 currentDay = getCurrentDay() */\n      swap1\n      pop\n        /* \"contracts/Auction/auction1404.sol\":27527:27528  7 */\n      0x07\n        /* \"contracts/Auction/auction1404.sol\":27513:27523  currentDay */\n      dup2\n        /* \"contracts/Auction/auction1404.sol\":27513:27528  currentDay <= 7 */\n      gt\n      iszero\n        /* \"contracts/Auction/auction1404.sol\":27505:27558  require(currentDay <= 7, \"Auction days are complete\") */\n      tag_157\n      jumpi\n      mload(0x40)\n      0x08c379a000000000000000000000000000000000000000000000000000000000\n      dup2\n      mstore\n      0x04\n      add\n      tag_158\n      swap1\n      tag_159\n      jump\t// in\n    tag_158:\n      mload(0x40)\n      dup1\n      swap2\n      sub\n      swap1\n      revert\n    tag_157:\n        /* \"contracts/Auction/auction1404.sol\":27567:27590  Auction storage auction */\n      0x00\n        /* \"contracts/Auction/auction1404.sol\":27593:27606  dailyAuctions */\n      0x0c\n        /* \"contracts/Auction/auction1404.sol\":27593:27618  dailyAuctions[currentDay] */\n      0x00\n        /* \"contracts/Auction/auction1404.sol\":27607:27617  currentDay */\n      dup4\n        /* \"contracts/Auction/auction1404.sol\":27593:27618  dailyAuctions[currentDay] */\n      dup2\n      mstore\n      0x20\n      add\n      swap1\n      dup2\n      mstore\n      0x20\n      add\n      0x00\n      keccak256\n        /* \"contracts/Auction/auction1404.sol\":27567:27618  Auction storage auction = dailyAuctions[currentDay] */\n      swap1\n      pop\n        /* \"contracts/Auction/auction1404.sol\":27647:27648  7 */\n      0x07\n        /* \"contracts/Auction/auction1404.sol\":27633:27643  currentDay */\n      dup3\n        /* \"contracts/Auction/auction1404.sol\":27633:27648  currentDay == 7 */\n      sub\n        /* \"contracts/Auction/auction1404.sol\":27629:27760  if (currentDay == 7) {... */\n      tag_160\n      jumpi\n        /* \"contracts/Auction/auction1404.sol\":27692:27698  rounds */\n      0x0b\n        /* \"contracts/Auction/auction1404.sol\":27692:27712  rounds[currentRound] */\n      0x00\n        /* \"contracts/Auction/auction1404.sol\":27699:27711  currentRound */\n      sload(0x08)\n        /* \"contracts/Auction/auction1404.sol\":27692:27712  rounds[currentRound] */\n      dup2\n      mstore\n      0x20\n      add\n      swap1\n      dup2\n      mstore\n      0x20\n      add\n      0x00\n      keccak256\n        /* \"contracts/Auction/auction1404.sol\":27692:27721  rounds[currentRound].roundEnd */\n      0x01\n      add\n      sload\n        /* \"contracts/Auction/auction1404.sol\":27672:27687  block.timestamp */\n      timestamp\n        /* \"contracts/Auction/auction1404.sol\":27672:27721  block.timestamp <=  rounds[currentRound].roundEnd */\n      gt\n      iszero\n        /* \"contracts/Auction/auction1404.sol\":27664:27749  require(block.timestamp <=  rounds[currentRound].roundEnd, \"Auction round has ended\") */\n      tag_161\n      jumpi\n      mload(0x40)\n      0x08c379a000000000000000000000000000000000000000000000000000000000\n      dup2\n      mstore\n      0x04\n      add\n      tag_162\n      swap1\n      tag_163\n      jump\t// in\n    tag_162:\n      mload(0x40)\n      dup1\n      swap2\n      sub\n      swap1\n      revert\n    tag_161:\n        /* \"contracts/Auction/auction1404.sol\":27629:27760  if (currentDay == 7) {... */\n    tag_160:\n        /* \"contracts/Auction/auction1404.sol\":27788:27789  6 */\n      0x06\n        /* \"contracts/Auction/auction1404.sol\":27774:27784  currentDay */\n      dup3\n        /* \"contracts/Auction/auction1404.sol\":27774:27789  currentDay == 6 */\n      eq\n        /* \"contracts/Auction/auction1404.sol\":27774:27808  currentDay == 6 || currentDay == 7 */\n      dup1\n      tag_164\n      jumpi\n      pop\n        /* \"contracts/Auction/auction1404.sol\":27807:27808  7 */\n      0x07\n        /* \"contracts/Auction/auction1404.sol\":27793:27803  currentDay */\n      dup3\n        /* \"contracts/Auction/auction1404.sol\":27793:27808  currentDay == 7 */\n      eq\n        /* \"contracts/Auction/auction1404.sol\":27774:27808  currentDay == 6 || currentDay == 7 */\n    tag_164:\n        /* \"contracts/Auction/auction1404.sol\":27770:27888  if (currentDay == 6 || currentDay == 7) {... */\n      iszero\n      tag_165\n      jumpi\n        /* \"contracts/Auction/auction1404.sol\":27846:27852  PROTON */\n      0x02\n      0x00\n      swap1\n      sload\n      swap1\n      0x0100\n      exp\n      swap1\n      div\n      0xffffffffffffffffffffffffffffffffffffffff\n      and\n        /* \"contracts/Auction/auction1404.sol\":27846:27862  PROTON.balanceOf */\n      0xffffffffffffffffffffffffffffffffffffffff\n      and\n      0x70a08231\n        /* \"contracts/Auction/auction1404.sol\":27871:27875  this */\n      address\n        /* \"contracts/Auction/auction1404.sol\":27846:27877  PROTON.balanceOf(address(this)) */\n      mload(0x40)\n      dup3\n      0xffffffff\n      and\n      0xe0\n      shl\n      dup2\n      mstore\n      0x04\n      add\n      tag_166\n      swap2\n      swap1\n      tag_64\n      jump\t// in\n    tag_166:\n      0x20\n      mload(0x40)\n      dup1\n      dup4\n      sub\n      dup2\n      dup7\n      gas\n      staticcall\n      iszero\n      dup1\n      iszero\n      tag_168\n      jumpi\n      returndatasize\n      0x00\n      dup1\n      returndatacopy\n      revert(0x00, returndatasize)\n    tag_168:\n      pop\n      pop\n      pop\n      pop\n      mload(0x40)\n      returndatasize\n      not(0x1f)\n      0x1f\n      dup3\n      add\n      and\n      dup3\n      add\n      dup1\n      0x40\n      mstore\n      pop\n      dup2\n      add\n      swap1\n      tag_169\n      swap2\n      swap1\n      tag_170\n      jump\t// in\n    tag_169:\n        /* \"contracts/Auction/auction1404.sol\":27824:27831  auction */\n      dup2\n        /* \"contracts/Auction/auction1404.sol\":27824:27843  auction.tokensDaily */\n      0x00\n      add\n        /* \"contracts/Auction/auction1404.sol\":27824:27877  auction.tokensDaily = PROTON.balanceOf(address(this)) */\n      dup2\n      swap1\n      sstore\n      pop\n        /* \"contracts/Auction/auction1404.sol\":27770:27888  if (currentDay == 6 || currentDay == 7) {... */\n    tag_165:\n        /* \"contracts/Auction/auction1404.sol\":27910:27918  isPaused */\n      0x09\n      0x00\n      swap1\n      sload\n      swap1\n      0x0100\n      exp\n      swap1\n      div\n      0xff\n      and\n        /* \"contracts/Auction/auction1404.sol\":27909:27918  !isPaused */\n      iszero\n        /* \"contracts/Auction/auction1404.sol\":27901:27937  require(!isPaused, \"Auction Paused\") */\n      tag_171\n      jumpi\n      mload(0x40)\n      0x08c379a000000000000000000000000000000000000000000000000000000000\n      dup2\n      mstore\n      0x04\n      add\n      tag_172\n      swap1\n      tag_173\n      jump\t// in\n    tag_172:\n      mload(0x40)\n      dup1\n      swap2\n      sub\n      swap1\n      revert\n    tag_171:\n        /* \"contracts/Auction/auction1404.sol\":28095:28114  maxOversubscription */\n      sload(0x04)\n        /* \"contracts/Auction/auction1404.sol\":28074:28081  auction */\n      dup2\n        /* \"contracts/Auction/auction1404.sol\":28074:28092  auction.tokensSold */\n      0x01\n      add\n      sload\n        /* \"contracts/Auction/auction1404.sol\":28074:28114  auction.tokensSold < maxOversubscription */\n      lt\n        /* \"contracts/Auction/auction1404.sol\":28053:28159  require(... */\n      tag_174\n      jumpi\n      mload(0x40)\n      0x08c379a000000000000000000000000000000000000000000000000000000000\n      dup2\n      mstore\n      0x04\n      add\n      tag_175\n      swap1\n      tag_176\n      jump\t// in\n    tag_175:\n      mload(0x40)\n      dup1\n      swap2\n      sub\n      swap1\n      revert\n    tag_174:\n        /* \"contracts/Auction/auction1404.sol\":28215:28239  maxOversubscriptionlimit */\n      sload(0x05)\n        /* \"contracts/Auction/auction1404.sol\":28190:28197  auction */\n      dup2\n        /* \"contracts/Auction/auction1404.sol\":28190:28212  auction.oversubscribed */\n      0x02\n      add\n      sload\n        /* \"contracts/Auction/auction1404.sol\":28190:28239  auction.oversubscribed < maxOversubscriptionlimit */\n      lt\n        /* \"contracts/Auction/auction1404.sol\":28169:28284  require(... */\n      tag_177\n      jumpi\n      mload(0x40)\n      0x08c379a000000000000000000000000000000000000000000000000000000000\n      dup2\n      mstore\n      0x04\n      add\n      tag_178\n      swap1\n      tag_176\n      jump\t// in\n    tag_178:\n      mload(0x40)\n      dup1\n      swap2\n      sub\n      swap1\n      revert\n    tag_177:\n        /* \"contracts/Auction/auction1404.sol\":28315:28344  isTokenValid(contractAddress) */\n      tag_179\n        /* \"contracts/Auction/auction1404.sol\":28328:28343  contractAddress */\n      dup5\n        /* \"contracts/Auction/auction1404.sol\":28315:28327  isTokenValid */\n      tag_180\n        /* \"contracts/Auction/auction1404.sol\":28315:28344  isTokenValid(contractAddress) */\n      jump\t// in\n    tag_179:\n        /* \"contracts/Auction/auction1404.sol\":28294:28392  require(... */\n      tag_181\n      jumpi\n      mload(0x40)\n      0x08c379a000000000000000000000000000000000000000000000000000000000\n      dup2\n      mstore\n      0x04\n      add\n      tag_182\n      swap1\n      tag_183\n      jump\t// in\n    tag_182:\n      mload(0x40)\n      dup1\n      swap2\n      sub\n      swap1\n      revert\n    tag_181:\n        /* \"contracts/Auction/auction1404.sol\":28402:28420  uint256 usdtAmount */\n      0x00\n        /* \"contracts/Auction/auction1404.sol\":28449:28457  10 ** 18 */\n      0x0de0b6b3a7640000\n        /* \"contracts/Auction/auction1404.sol\":28434:28444  tokenPrice */\n      sload(0x03)\n        /* \"contracts/Auction/auction1404.sol\":28424:28431  _amount */\n      dup6\n        /* \"contracts/Auction/auction1404.sol\":28424:28444  _amount * tokenPrice */\n      tag_184\n      swap2\n      swap1\n      tag_185\n      jump\t// in\n    tag_184:\n        /* \"contracts/Auction/auction1404.sol\":28423:28458  (_amount * tokenPrice) / (10 ** 18) */\n      tag_186\n      swap2\n      swap1\n      tag_187\n      jump\t// in\n    tag_186:\n        /* \"contracts/Auction/auction1404.sol\":28402:28458  uint256 usdtAmount = (_amount * tokenPrice) / (10 ** 18) */\n      swap1\n      pop\n        /* \"contracts/Auction/auction1404.sol\":28525:28540  contractAddress */\n      dup5\n        /* \"contracts/Auction/auction1404.sol\":28525:28553  contractAddress.transferFrom */\n      0xffffffffffffffffffffffffffffffffffffffff\n      and\n      0x23b872dd\n        /* \"contracts/Auction/auction1404.sol\":28554:28564  msg.sender */\n      caller\n        /* \"contracts/Auction/auction1404.sol\":28566:28577  fundsWallet */\n      0x09\n      0x01\n      swap1\n      sload\n      swap1\n      0x0100\n      exp\n      swap1\n      div\n      0xffffffffffffffffffffffffffffffffffffffff\n      and\n        /* \"contracts/Auction/auction1404.sol\":28579:28589  usdtAmount */\n      dup5\n        /* \"contracts/Auction/auction1404.sol\":28525:28590  contractAddress.transferFrom(msg.sender, fundsWallet, usdtAmount) */\n      mload(0x40)\n      dup5\n      0xffffffff\n      and\n      0xe0\n      shl\n      dup2\n      mstore\n      0x04\n      add\n      tag_188\n      swap4\n      swap3\n      swap2\n      swap1\n      tag_189\n      jump\t// in\n    tag_188:\n      0x20\n      mload(0x40)\n      dup1\n      dup4\n      sub\n      dup2\n      0x00\n      dup8\n      gas\n      call\n      iszero\n      dup1\n      iszero\n      tag_191\n      jumpi\n      returndatasize\n      0x00\n      dup1\n      returndatacopy\n      revert(0x00, returndatasize)\n    tag_191:\n      pop\n      pop\n      pop\n      pop\n      mload(0x40)\n      returndatasize\n      not(0x1f)\n      0x1f\n      dup3\n      add\n      and\n      dup3\n      add\n      dup1\n      0x40\n      mstore\n      pop\n      dup2\n      add\n      swap1\n      tag_192\n      swap2\n      swap1\n      tag_193\n      jump\t// in\n    tag_192:\n        /* \"contracts/Auction/auction1404.sol\":28504:28636  require(... */\n      tag_194\n      jumpi\n      mload(0x40)\n      0x08c379a000000000000000000000000000000000000000000000000000000000\n      dup2\n      mstore\n      0x04\n      add\n      tag_195\n      swap1\n      tag_196\n      jump\t// in\n    tag_195:\n      mload(0x40)\n      dup1\n      swap2\n      sub\n      swap1\n      revert\n    tag_194:\n        /* \"contracts/Auction/auction1404.sol\":28647:28661  uint256 amount */\n      0x00\n        /* \"contracts/Auction/auction1404.sol\":28789:28796  auction */\n      dup3\n        /* \"contracts/Auction/auction1404.sol\":28789:28808  auction.tokensDaily */\n      0x00\n      add\n      sload\n        /* \"contracts/Auction/auction1404.sol\":28779:28786  _amount */\n      dup6\n        /* \"contracts/Auction/auction1404.sol\":28758:28765  auction */\n      dup5\n        /* \"contracts/Auction/auction1404.sol\":28758:28776  auction.tokensSold */\n      0x01\n      add\n      sload\n        /* \"contracts/Auction/auction1404.sol\":28758:28786  auction.tokensSold + _amount */\n      tag_197\n      swap2\n      swap1\n      tag_198\n      jump\t// in\n    tag_197:\n        /* \"contracts/Auction/auction1404.sol\":28758:28808  auction.tokensSold + _amount > auction.tokensDaily */\n      gt\n        /* \"contracts/Auction/auction1404.sol\":28754:29254  if (auction.tokensSold + _amount > auction.tokensDaily) {... */\n      iszero\n      tag_199\n      jumpi\n        /* \"contracts/Auction/auction1404.sol\":28849:28856  auction */\n      dup3\n        /* \"contracts/Auction/auction1404.sol\":28849:28868  auction.tokensDaily */\n      0x00\n      add\n      sload\n        /* \"contracts/Auction/auction1404.sol\":28828:28835  auction */\n      dup4\n        /* \"contracts/Auction/auction1404.sol\":28828:28846  auction.tokensSold */\n      0x01\n      add\n      sload\n        /* \"contracts/Auction/auction1404.sol\":28828:28868  auction.tokensSold > auction.tokensDaily */\n      gt\n        /* \"contracts/Auction/auction1404.sol\":28824:29063  if (auction.tokensSold > auction.tokensDaily) {... */\n      iszero\n      tag_200\n      jumpi\n        /* \"contracts/Auction/auction1404.sol\":28930:28937  auction */\n      dup3\n        /* \"contracts/Auction/auction1404.sol\":28930:28948  auction.tokensSold */\n      0x01\n      add\n      sload\n        /* \"contracts/Auction/auction1404.sol\":28919:28926  _amount */\n      dup6\n        /* \"contracts/Auction/auction1404.sol\":28898:28905  auction */\n      dup5\n        /* \"contracts/Auction/auction1404.sol\":28898:28916  auction.tokensSold */\n      0x01\n      add\n      sload\n        /* \"contracts/Auction/auction1404.sol\":28898:28926  auction.tokensSold + _amount */\n      tag_201\n      swap2\n      swap1\n      tag_198\n      jump\t// in\n    tag_201:\n        /* \"contracts/Auction/auction1404.sol\":28897:28948  (auction.tokensSold + _amount) - auction.tokensSold */\n      tag_202\n      swap2\n      swap1\n      tag_203\n      jump\t// in\n    tag_202:\n        /* \"contracts/Auction/auction1404.sol\":28888:28948  amount = (auction.tokensSold + _amount) - auction.tokensSold */\n      swap1\n      pop\n        /* \"contracts/Auction/auction1404.sol\":28824:29063  if (auction.tokensSold > auction.tokensDaily) {... */\n      jump(tag_204)\n    tag_200:\n        /* \"contracts/Auction/auction1404.sol\":29029:29036  auction */\n      dup3\n        /* \"contracts/Auction/auction1404.sol\":29029:29048  auction.tokensDaily */\n      0x00\n      add\n      sload\n        /* \"contracts/Auction/auction1404.sol\":29018:29025  _amount */\n      dup6\n        /* \"contracts/Auction/auction1404.sol\":28997:29004  auction */\n      dup5\n        /* \"contracts/Auction/auction1404.sol\":28997:29015  auction.tokensSold */\n      0x01\n      add\n      sload\n        /* \"contracts/Auction/auction1404.sol\":28997:29025  auction.tokensSold + _amount */\n      tag_205\n      swap2\n      swap1\n      tag_198\n      jump\t// in\n    tag_205:\n        /* \"contracts/Auction/auction1404.sol\":28996:29048  (auction.tokensSold + _amount) - auction.tokensDaily */\n      tag_206\n      swap2\n      swap1\n      tag_203\n      jump\t// in\n    tag_206:\n        /* \"contracts/Auction/auction1404.sol\":28987:29048  amount = (auction.tokensSold + _amount) - auction.tokensDaily */\n      swap1\n      pop\n        /* \"contracts/Auction/auction1404.sol\":28824:29063  if (auction.tokensSold > auction.tokensDaily) {... */\n    tag_204:\n        /* \"contracts/Auction/auction1404.sol\":29103:29109  amount */\n      dup1\n        /* \"contracts/Auction/auction1404.sol\":29077:29084  auction */\n      dup4\n        /* \"contracts/Auction/auction1404.sol\":29077:29099  auction.oversubscribed */\n      0x02\n      add\n      0x00\n        /* \"contracts/Auction/auction1404.sol\":29077:29109  auction.oversubscribed += amount */\n      dup3\n      dup3\n      sload\n      tag_207\n      swap2\n      swap1\n      tag_198\n      jump\t// in\n    tag_207:\n      swap3\n      pop\n      pop\n      dup2\n      swap1\n      sstore\n      pop\n        /* \"contracts/Auction/auction1404.sol\":29158:29164  amount */\n      dup1\n        /* \"contracts/Auction/auction1404.sol\":29123:29133  userDetail */\n      0x0d\n        /* \"contracts/Auction/auction1404.sol\":29123:29145  userDetail[msg.sender] */\n      0x00\n        /* \"contracts/Auction/auction1404.sol\":29134:29144  msg.sender */\n      caller\n        /* \"contracts/Auction/auction1404.sol\":29123:29145  userDetail[msg.sender] */\n      0xffffffffffffffffffffffffffffffffffffffff\n      and\n      0xffffffffffffffffffffffffffffffffffffffff\n      and\n      dup2\n      mstore\n      0x20\n      add\n      swap1\n      dup2\n      mstore\n      0x20\n      add\n      0x00\n      keccak256\n        /* \"contracts/Auction/auction1404.sol\":29123:29154  userDetail[msg.sender].buyTotal */\n      0x01\n      add\n      0x00\n        /* \"contracts/Auction/auction1404.sol\":29123:29164  userDetail[msg.sender].buyTotal += amount */\n      dup3\n      dup3\n      sload\n      tag_208\n      swap2\n      swap1\n      tag_198\n      jump\t// in\n    tag_208:\n      swap3\n      pop\n      pop\n      dup2\n      swap1\n      sstore\n      pop\n        /* \"contracts/Auction/auction1404.sol\":29220:29227  auction */\n      dup3\n        /* \"contracts/Auction/auction1404.sol\":29220:29243  auction.bonusMultiplier */\n      0x03\n      add\n      sload\n        /* \"contracts/Auction/auction1404.sol\":29211:29217  amount */\n      dup2\n        /* \"contracts/Auction/auction1404.sol\":29211:29243  amount * auction.bonusMultiplier */\n      tag_209\n      swap2\n      swap1\n      tag_185\n      jump\t// in\n    tag_209:\n        /* \"contracts/Auction/auction1404.sol\":29178:29188  userDetail */\n      0x0d\n        /* \"contracts/Auction/auction1404.sol\":29178:29200  userDetail[msg.sender] */\n      0x00\n        /* \"contracts/Auction/auction1404.sol\":29189:29199  msg.sender */\n      caller\n        /* \"contracts/Auction/auction1404.sol\":29178:29200  userDetail[msg.sender] */\n      0xffffffffffffffffffffffffffffffffffffffff\n      and\n      0xffffffffffffffffffffffffffffffffffffffff\n      and\n      dup2\n      mstore\n      0x20\n      add\n      swap1\n      dup2\n      mstore\n      0x20\n      add\n      0x00\n      keccak256\n        /* \"contracts/Auction/auction1404.sol\":29178:29207  userDetail[msg.sender].reward */\n      0x00\n      add\n      0x00\n        /* \"contracts/Auction/auction1404.sol\":29178:29243  userDetail[msg.sender].reward += amount * auction.bonusMultiplier */\n      dup3\n      dup3\n      sload\n      tag_210\n      swap2\n      swap1\n      tag_198\n      jump\t// in\n    tag_210:\n      swap3\n      pop\n      pop\n      dup2\n      swap1\n      sstore\n      pop\n        /* \"contracts/Auction/auction1404.sol\":28754:29254  if (auction.tokensSold + _amount > auction.tokensDaily) {... */\n    tag_199:\n        /* \"contracts/Auction/auction1404.sol\":29277:29284  _amount */\n      dup5\n        /* \"contracts/Auction/auction1404.sol\":29264:29273  totalSell */\n      0x06\n      0x00\n        /* \"contracts/Auction/auction1404.sol\":29264:29284  totalSell += _amount */\n      dup3\n      dup3\n      sload\n      tag_211\n      swap2\n      swap1\n      tag_198\n      jump\t// in\n    tag_211:\n      swap3\n      pop\n      pop\n      dup2\n      swap1\n      sstore\n      pop\n        /* \"contracts/Auction/auction1404.sol\":29316:29323  _amount */\n      dup5\n        /* \"contracts/Auction/auction1404.sol\":29294:29301  auction */\n      dup4\n        /* \"contracts/Auction/auction1404.sol\":29294:29312  auction.tokensSold */\n      0x01\n      add\n      0x00\n        /* \"contracts/Auction/auction1404.sol\":29294:29323  auction.tokensSold += _amount */\n      dup3\n      dup3\n      sload\n      tag_212\n      swap2\n      swap1\n      tag_198\n      jump\t// in\n    tag_212:\n      swap3\n      pop\n      pop\n      dup2\n      swap1\n      sstore\n      pop\n        /* \"contracts/Auction/auction1404.sol\":29342:29358  uint256 lockTime */\n      0x00\n        /* \"contracts/Auction/auction1404.sol\":29413:29436  string memory _userType */\n      dup1\n        /* \"contracts/Auction/auction1404.sol\":29439:29445  PROTON */\n      0x02\n      0x00\n      swap1\n      sload\n      swap1\n      0x0100\n      exp\n      swap1\n      div\n      0xffffffffffffffffffffffffffffffffffffffff\n      and\n        /* \"contracts/Auction/auction1404.sol\":29439:29457  PROTON.getUserType */\n      0xffffffffffffffffffffffffffffffffffffffff\n      and\n      0x8b3f863f\n        /* \"contracts/Auction/auction1404.sol\":29458:29468  msg.sender */\n      caller\n        /* \"contracts/Auction/auction1404.sol\":29439:29469  PROTON.getUserType(msg.sender) */\n      mload(0x40)\n      dup3\n      0xffffffff\n      and\n      0xe0\n      shl\n      dup2\n      mstore\n      0x04\n      add\n      tag_213\n      swap2\n      swap1\n      tag_64\n      jump\t// in\n    tag_213:\n      0x00\n      mload(0x40)\n      dup1\n      dup4\n      sub\n      dup2\n      dup7\n      gas\n      staticcall\n      iszero\n      dup1\n      iszero\n      tag_215\n      jumpi\n      returndatasize\n      0x00\n      dup1\n      returndatacopy\n      revert(0x00, returndatasize)\n    tag_215:\n      pop\n      pop\n      pop\n      pop\n      mload(0x40)\n      returndatasize\n      0x00\n      dup3\n      returndatacopy\n      returndatasize\n      not(0x1f)\n      0x1f\n      dup3\n      add\n      and\n      dup3\n      add\n      dup1\n      0x40\n      mstore\n      pop\n      dup2\n      add\n      swap1\n      tag_216\n      swap2\n      swap1\n      tag_217\n      jump\t// in\n    tag_216:\n        /* \"contracts/Auction/auction1404.sol\":29413:29469  string memory _userType = PROTON.getUserType(msg.sender) */\n      swap1\n      pop\n        /* \"contracts/Auction/auction1404.sol\":29543:29553  lockingDay */\n      sload(0x07)\n        /* \"contracts/Auction/auction1404.sol\":29525:29540  block.timestamp */\n      timestamp\n        /* \"contracts/Auction/auction1404.sol\":29525:29553  block.timestamp + lockingDay */\n      tag_218\n      swap2\n      swap1\n      tag_198\n      jump\t// in\n    tag_218:\n        /* \"contracts/Auction/auction1404.sol\":29514:29553  lockTime = block.timestamp + lockingDay */\n      swap2\n      pop\n        /* \"contracts/Auction/auction1404.sol\":29623:29629  PROTON */\n      0x02\n      0x00\n      swap1\n      sload\n      swap1\n      0x0100\n      exp\n      swap1\n      div\n      0xffffffffffffffffffffffffffffffffffffffff\n      and\n        /* \"contracts/Auction/auction1404.sol\":29623:29634  PROTON.lock */\n      0xffffffffffffffffffffffffffffffffffffffff\n      and\n      0xe2ab691d\n        /* \"contracts/Auction/auction1404.sol\":29635:29645  msg.sender */\n      caller\n        /* \"contracts/Auction/auction1404.sol\":29647:29654  _amount */\n      dup10\n        /* \"contracts/Auction/auction1404.sol\":29656:29664  lockTime */\n      dup6\n        /* \"contracts/Auction/auction1404.sol\":29623:29665  PROTON.lock(msg.sender, _amount, lockTime) */\n      mload(0x40)\n      dup5\n      0xffffffff\n      and\n      0xe0\n      shl\n      dup2\n      mstore\n      0x04\n      add\n      tag_219\n      swap4\n      swap3\n      swap2\n      swap1\n      tag_220\n      jump\t// in\n    tag_219:\n      0x20\n      mload(0x40)\n      dup1\n      dup4\n      sub\n      dup2\n      0x00\n      dup8\n      gas\n      call\n      iszero\n      dup1\n      iszero\n      tag_222\n      jumpi\n      returndatasize\n      0x00\n      dup1\n      returndatacopy\n      revert(0x00, returndatasize)\n    tag_222:\n      pop\n      pop\n      pop\n      pop\n      mload(0x40)\n      returndatasize\n      not(0x1f)\n      0x1f\n      dup3\n      add\n      and\n      dup3\n      add\n      dup1\n      0x40\n      mstore\n      pop\n      dup2\n      add\n      swap1\n      tag_223\n      swap2\n      swap1\n      tag_193\n      jump\t// in\n    tag_223:\n      pop\n        /* \"contracts/Auction/auction1404.sol\":29730:29736  PROTON */\n      0x02\n      0x00\n      swap1\n      sload\n      swap1\n      0x0100\n      exp\n      swap1\n      div\n      0xffffffffffffffffffffffffffffffffffffffff\n      and\n        /* \"contracts/Auction/auction1404.sol\":29730:29745  PROTON.transfer */\n      0xffffffffffffffffffffffffffffffffffffffff\n      and\n      0xa9059cbb\n        /* \"contracts/Auction/auction1404.sol\":29746:29756  msg.sender */\n      caller\n        /* \"contracts/Auction/auction1404.sol\":29758:29765  _amount */\n      dup10\n        /* \"contracts/Auction/auction1404.sol\":29730:29766  PROTON.transfer(msg.sender, _amount) */\n      mload(0x40)\n      dup4\n      0xffffffff\n      and\n      0xe0\n      shl\n      dup2\n      mstore\n      0x04\n      add\n      tag_224\n      swap3\n      swap2\n      swap1\n      tag_225\n      jump\t// in\n    tag_224:\n      0x20\n      mload(0x40)\n      dup1\n      dup4\n      sub\n      dup2\n      0x00\n      dup8\n      gas\n      call\n      iszero\n      dup1\n      iszero\n      tag_227\n      jumpi\n      returndatasize\n      0x00\n      dup1\n      returndatacopy\n      revert(0x00, returndatasize)\n    tag_227:\n      pop\n      pop\n      pop\n      pop\n      mload(0x40)\n      returndatasize\n      not(0x1f)\n      0x1f\n      dup3\n      add\n      and\n      dup3\n      add\n      dup1\n      0x40\n      mstore\n      pop\n      dup2\n      add\n      swap1\n      tag_228\n      swap2\n      swap1\n      tag_193\n      jump\t// in\n    tag_228:\n        /* \"contracts/Auction/auction1404.sol\":29722:29798  require(PROTON.transfer(msg.sender, _amount),\"Proton token transfer failed\") */\n      tag_229\n      jumpi\n      mload(0x40)\n      0x08c379a000000000000000000000000000000000000000000000000000000000\n      dup2\n      mstore\n      0x04\n      add\n      tag_230\n      swap1\n      tag_231\n      jump\t// in\n    tag_230:\n      mload(0x40)\n      dup1\n      swap2\n      sub\n      swap1\n      revert\n    tag_229:\n        /* \"contracts/Auction/auction1404.sol\":29830:29840  msg.sender */\n      caller\n        /* \"contracts/Auction/auction1404.sol\":29814:29873  TokensPurchased(msg.sender, usdtAmount, _amount , lockTime) */\n      0xffffffffffffffffffffffffffffffffffffffff\n      and\n      0x0d1a0d5e3d583a0e92588799dd06e50fd78c07daf05f0cc06d7b848b1ca445f1\n        /* \"contracts/Auction/auction1404.sol\":29842:29852  usdtAmount */\n      dup6\n        /* \"contracts/Auction/auction1404.sol\":29854:29861  _amount */\n      dup10\n        /* \"contracts/Auction/auction1404.sol\":29864:29872  lockTime */\n      dup6\n        /* \"contracts/Auction/auction1404.sol\":29814:29873  TokensPurchased(msg.sender, usdtAmount, _amount , lockTime) */\n      mload(0x40)\n      tag_232\n      swap4\n      swap3\n      swap2\n      swap1\n      tag_145\n      jump\t// in\n    tag_232:\n      mload(0x40)\n      dup1\n      swap2\n      sub\n      swap1\n      log2\n        /* \"contracts/Auction/auction1404.sol\":27449:29880  {... */\n      pop\n      pop\n      pop\n      pop\n      pop\n      pop\n        /* \"contracts/Auction/auction1404.sol\":27344:29880  function buyTokens(... */\n      pop\n      pop\n      jump\t// out\n        /* \"contracts/Auction/auction1404.sol\":25356:25439  function setToken(IERC20 addr) external onlyOwner {... */\n    tag_52:\n        /* \"contracts/Auction/auction1404.sol\":1826:1839  _checkOwner() */\n      tag_234\n        /* \"contracts/Auction/auction1404.sol\":1826:1837  _checkOwner */\n      tag_235\n        /* \"contracts/Auction/auction1404.sol\":1826:1839  _checkOwner() */\n      jump\t// in\n    tag_234:\n        /* \"contracts/Auction/auction1404.sol\":25416:25421  token */\n      0x0a\n        /* \"contracts/Auction/auction1404.sol\":25427:25431  addr */\n      dup2\n        /* \"contracts/Auction/auction1404.sol\":25416:25432  token.push(addr) */\n      swap1\n      dup1\n      0x01\n      dup2\n      sload\n      add\n      dup1\n      dup3\n      sstore\n      dup1\n      swap2\n      pop\n      pop\n      0x01\n      swap1\n      sub\n      swap1\n      0x00\n      mstore\n      keccak256(0x00, 0x20)\n      add\n      0x00\n      swap1\n      swap2\n      swap1\n      swap2\n      swap1\n      swap2\n      0x0100\n      exp\n      dup2\n      sload\n      dup2\n      0xffffffffffffffffffffffffffffffffffffffff\n      mul\n      not\n      and\n      swap1\n      dup4\n      0xffffffffffffffffffffffffffffffffffffffff\n      and\n      mul\n      or\n      swap1\n      sstore\n      pop\n        /* \"contracts/Auction/auction1404.sol\":25356:25439  function setToken(IERC20 addr) external onlyOwner {... */\n      pop\n      jump\t// out\n        /* \"contracts/Auction/auction1404.sol\":31499:32018  function claimReward(... */\n    tag_56:\n        /* \"contracts/Auction/auction1404.sol\":25197:25205  isPaused */\n      0x09\n      0x00\n      swap1\n      sload\n      swap1\n      0x0100\n      exp\n      swap1\n      div\n      0xff\n      and\n        /* \"contracts/Auction/auction1404.sol\":25189:25233  require(isPaused, \"Auction is still active\") */\n      tag_239\n      jumpi\n      mload(0x40)\n      0x08c379a000000000000000000000000000000000000000000000000000000000\n      dup2\n      mstore\n      0x04\n      add\n      tag_240\n      swap1\n      tag_241\n      jump\t// in\n    tag_240:\n      mload(0x40)\n      dup1\n      swap2\n      sub\n      swap1\n      revert\n    tag_239:\n        /* \"contracts/Auction/auction1404.sol\":25269:25275  rounds */\n      0x0b\n        /* \"contracts/Auction/auction1404.sol\":25269:25289  rounds[currentRound] */\n      0x00\n        /* \"contracts/Auction/auction1404.sol\":25276:25288  currentRound */\n      sload(0x08)\n        /* \"contracts/Auction/auction1404.sol\":25269:25289  rounds[currentRound] */\n      dup2\n      mstore\n      0x20\n      add\n      swap1\n      dup2\n      mstore\n      0x20\n      add\n      0x00\n      keccak256\n        /* \"contracts/Auction/auction1404.sol\":25269:25298  rounds[currentRound].roundEnd */\n      0x01\n      add\n      sload\n        /* \"contracts/Auction/auction1404.sol\":25251:25266  block.timestamp */\n      timestamp\n        /* \"contracts/Auction/auction1404.sol\":25251:25298  block.timestamp > rounds[currentRound].roundEnd */\n      gt\n        /* \"contracts/Auction/auction1404.sol\":25243:25332  require(block.timestamp > rounds[currentRound].roundEnd, \"Auction days are not complete\") */\n      tag_242\n      jumpi\n      mload(0x40)\n      0x08c379a000000000000000000000000000000000000000000000000000000000\n      dup2\n      mstore\n      0x04\n      add\n      tag_243\n      swap1\n      tag_244\n      jump\t// in\n    tag_243:\n      mload(0x40)\n      dup1\n      swap2\n      sub\n      swap1\n      revert\n    tag_242:\n        /* \"contracts/Auction/auction1404.sol\":31652:31653  0 */\n      0x00\n        /* \"contracts/Auction/auction1404.sol\":31626:31636  userDetail */\n      0x0d\n        /* \"contracts/Auction/auction1404.sol\":31626:31642  userDetail[user] */\n      0x00\n        /* \"contracts/Auction/auction1404.sol\":31637:31641  user */\n      dup5\n        /* \"contracts/Auction/auction1404.sol\":31626:31642  userDetail[user] */\n      0xffffffffffffffffffffffffffffffffffffffff\n      and\n      0xffffffffffffffffffffffffffffffffffffffff\n      and\n      dup2\n      mstore\n      0x20\n      add\n      swap1\n      dup2\n      mstore\n      0x20\n      add\n      0x00\n      keccak256\n        /* \"contracts/Auction/auction1404.sol\":31626:31649  userDetail[user].reward */\n      0x00\n      add\n      sload\n        /* \"contracts/Auction/auction1404.sol\":31626:31653  userDetail[user].reward > 0 */\n      gt\n        /* \"contracts/Auction/auction1404.sol\":31626:31711  userDetail[user].reward > 0 &&... */\n      dup1\n      iszero\n      tag_246\n      jumpi\n      pop\n        /* \"contracts/Auction/auction1404.sol\":31688:31698  userDetail */\n      0x0d\n        /* \"contracts/Auction/auction1404.sol\":31688:31704  userDetail[user] */\n      0x00\n        /* \"contracts/Auction/auction1404.sol\":31699:31703  user */\n      dup4\n        /* \"contracts/Auction/auction1404.sol\":31688:31704  userDetail[user] */\n      0xffffffffffffffffffffffffffffffffffffffff\n      and\n      0xffffffffffffffffffffffffffffffffffffffff\n      and\n      dup2\n      mstore\n      0x20\n      add\n      swap1\n      dup2\n      mstore\n      0x20\n      add\n      0x00\n      keccak256\n        /* \"contracts/Auction/auction1404.sol\":31688:31711  userDetail[user].reward */\n      0x00\n      add\n      sload\n        /* \"contracts/Auction/auction1404.sol\":31673:31684  _usdtAmount */\n      dup2\n        /* \"contracts/Auction/auction1404.sol\":31673:31711  _usdtAmount <= userDetail[user].reward */\n      gt\n      iszero\n        /* \"contracts/Auction/auction1404.sol\":31626:31711  userDetail[user].reward > 0 &&... */\n    tag_246:\n        /* \"contracts/Auction/auction1404.sol\":31605:31752  require(... */\n      tag_247\n      jumpi\n      mload(0x40)\n      0x08c379a000000000000000000000000000000000000000000000000000000000\n      dup2\n      mstore\n      0x04\n      add\n      tag_248\n      swap1\n      tag_249\n      jump\t// in\n    tag_248:\n      mload(0x40)\n      dup1\n      swap2\n      sub\n      swap1\n      revert\n    tag_247:\n        /* \"contracts/Auction/auction1404.sol\":31789:31800  _usdtAmount */\n      dup1\n        /* \"contracts/Auction/auction1404.sol\":31762:31772  userDetail */\n      0x0d\n        /* \"contracts/Auction/auction1404.sol\":31762:31778  userDetail[user] */\n      0x00\n        /* \"contracts/Auction/auction1404.sol\":31773:31777  user */\n      dup5\n        /* \"contracts/Auction/auction1404.sol\":31762:31778  userDetail[user] */\n      0xffffffffffffffffffffffffffffffffffffffff\n      and\n      0xffffffffffffffffffffffffffffffffffffffff\n      and\n      dup2\n      mstore\n      0x20\n      add\n      swap1\n      dup2\n      mstore\n      0x20\n      add\n      0x00\n      keccak256\n        /* \"contracts/Auction/auction1404.sol\":31762:31785  userDetail[user].reward */\n      0x00\n      add\n      0x00\n        /* \"contracts/Auction/auction1404.sol\":31762:31800  userDetail[user].reward -= _usdtAmount */\n      dup3\n      dup3\n      sload\n      tag_250\n      swap2\n      swap1\n      tag_203\n      jump\t// in\n    tag_250:\n      swap3\n      pop\n      pop\n      dup2\n      swap1\n      sstore\n      pop\n        /* \"contracts/Auction/auction1404.sol\":31831:31837  PROTON */\n      0x02\n      0x00\n      swap1\n      sload\n      swap1\n      0x0100\n      exp\n      swap1\n      div\n      0xffffffffffffffffffffffffffffffffffffffff\n      and\n        /* \"contracts/Auction/auction1404.sol\":31831:31846  PROTON.transfer */\n      0xffffffffffffffffffffffffffffffffffffffff\n      and\n      0xa9059cbb\n        /* \"contracts/Auction/auction1404.sol\":31847:31851  user */\n      dup4\n        /* \"contracts/Auction/auction1404.sol\":31853:31864  _usdtAmount */\n      dup4\n        /* \"contracts/Auction/auction1404.sol\":31831:31865  PROTON.transfer(user, _usdtAmount) */\n      mload(0x40)\n      dup4\n      0xffffffff\n      and\n      0xe0\n      shl\n      dup2\n      mstore\n      0x04\n      add\n      tag_251\n      swap3\n      swap2\n      swap1\n      tag_225\n      jump\t// in\n    tag_251:\n      0x20\n      mload(0x40)\n      dup1\n      dup4\n      sub\n      dup2\n      0x00\n      dup8\n      gas\n      call\n      iszero\n      dup1\n      iszero\n      tag_253\n      jumpi\n      returndatasize\n      0x00\n      dup1\n      returndatacopy\n      revert(0x00, returndatasize)\n    tag_253:\n      pop\n      pop\n      pop\n      pop\n      mload(0x40)\n      returndatasize\n      not(0x1f)\n      0x1f\n      dup3\n      add\n      and\n      dup3\n      add\n      dup1\n      0x40\n      mstore\n      pop\n      dup2\n      add\n      swap1\n      tag_254\n      swap2\n      swap1\n      tag_193\n      jump\t// in\n    tag_254:\n        /* \"contracts/Auction/auction1404.sol\":31810:31919  require(... */\n      tag_255\n      jumpi\n      mload(0x40)\n      0x08c379a000000000000000000000000000000000000000000000000000000000\n      dup2\n      mstore\n      0x04\n      add\n      tag_256\n      swap1\n      tag_231\n      jump\t// in\n    tag_256:\n      mload(0x40)\n      dup1\n      swap2\n      sub\n      swap1\n      revert\n    tag_255:\n        /* \"contracts/Auction/auction1404.sol\":31933:32011  claimreward (user ,  userDetail[user].reward , _usdtAmount , block.timestamp ) */\n      0x622cc013916970f2d0437da0b597aa7a3d762effad3652011e32375c7e455b31\n        /* \"contracts/Auction/auction1404.sol\":31946:31950  user */\n      dup3\n        /* \"contracts/Auction/auction1404.sol\":31954:31964  userDetail */\n      0x0d\n        /* \"contracts/Auction/auction1404.sol\":31954:31970  userDetail[user] */\n      0x00\n        /* \"contracts/Auction/auction1404.sol\":31965:31969  user */\n      dup6\n        /* \"contracts/Auction/auction1404.sol\":31954:31970  userDetail[user] */\n      0xffffffffffffffffffffffffffffffffffffffff\n      and\n      0xffffffffffffffffffffffffffffffffffffffff\n      and\n      dup2\n      mstore\n      0x20\n      add\n      swap1\n      dup2\n      mstore\n      0x20\n      add\n      0x00\n      keccak256\n        /* \"contracts/Auction/auction1404.sol\":31954:31977  userDetail[user].reward */\n      0x00\n      add\n      sload\n        /* \"contracts/Auction/auction1404.sol\":31980:31991  _usdtAmount */\n      dup4\n        /* \"contracts/Auction/auction1404.sol\":31994:32009  block.timestamp */\n      timestamp\n        /* \"contracts/Auction/auction1404.sol\":31933:32011  claimreward (user ,  userDetail[user].reward , _usdtAmount , block.timestamp ) */\n      mload(0x40)\n      tag_257\n      swap5\n      swap4\n      swap3\n      swap2\n      swap1\n      tag_258\n      jump\t// in\n    tag_257:\n      mload(0x40)\n      dup1\n      swap2\n      sub\n      swap1\n      log1\n        /* \"contracts/Auction/auction1404.sol\":31499:32018  function claimReward(... */\n      pop\n      pop\n      jump\t// out\n        /* \"contracts/Auction/auction1404.sol\":26295:26603  function setDailyDetails(... */\n    tag_60:\n        /* \"contracts/Auction/auction1404.sol\":1826:1839  _checkOwner() */\n      tag_260\n        /* \"contracts/Auction/auction1404.sol\":1826:1837  _checkOwner */\n      tag_235\n        /* \"contracts/Auction/auction1404.sol\":1826:1839  _checkOwner() */\n      jump\t// in\n    tag_260:\n        /* \"contracts/Auction/auction1404.sol\":26447:26448  7 */\n      0x07\n        /* \"contracts/Auction/auction1404.sol\":26441:26444  day */\n      dup4\n        /* \"contracts/Auction/auction1404.sol\":26441:26448  day < 7 */\n      lt\n        /* \"contracts/Auction/auction1404.sol\":26441:26459  day < 7 && day > 0 */\n      dup1\n      iszero\n      tag_262\n      jumpi\n      pop\n        /* \"contracts/Auction/auction1404.sol\":26458:26459  0 */\n      0x00\n        /* \"contracts/Auction/auction1404.sol\":26452:26455  day */\n      dup4\n        /* \"contracts/Auction/auction1404.sol\":26452:26459  day > 0 */\n      gt\n        /* \"contracts/Auction/auction1404.sol\":26441:26459  day < 7 && day > 0 */\n    tag_262:\n        /* \"contracts/Auction/auction1404.sol\":26433:26480  require(day < 7 && day > 0, \"ERROR: DAY value\") */\n      tag_263\n      jumpi\n      mload(0x40)\n      0x08c379a000000000000000000000000000000000000000000000000000000000\n      dup2\n      mstore\n      0x04\n      add\n      tag_264\n      swap1\n      tag_265\n      jump\t// in\n    tag_264:\n      mload(0x40)\n      dup1\n      swap2\n      sub\n      swap1\n      revert\n    tag_263:\n        /* \"contracts/Auction/auction1404.sol\":26527:26542  bonusMultiplier */\n      dup1\n        /* \"contracts/Auction/auction1404.sol\":26490:26503  dailyAuctions */\n      0x0c\n        /* \"contracts/Auction/auction1404.sol\":26490:26508  dailyAuctions[day] */\n      0x00\n        /* \"contracts/Auction/auction1404.sol\":26504:26507  day */\n      dup6\n        /* \"contracts/Auction/auction1404.sol\":26490:26508  dailyAuctions[day] */\n      dup2\n      mstore\n      0x20\n      add\n      swap1\n      dup2\n      mstore\n      0x20\n      add\n      0x00\n      keccak256\n        /* \"contracts/Auction/auction1404.sol\":26490:26524  dailyAuctions[day].bonusMultiplier */\n      0x03\n      add\n        /* \"contracts/Auction/auction1404.sol\":26490:26542  dailyAuctions[day].bonusMultiplier = bonusMultiplier */\n      dup2\n      swap1\n      sstore\n      pop\n        /* \"contracts/Auction/auction1404.sol\":26585:26596  tokensDaily */\n      dup2\n        /* \"contracts/Auction/auction1404.sol\":26552:26565  dailyAuctions */\n      0x0c\n        /* \"contracts/Auction/auction1404.sol\":26552:26570  dailyAuctions[day] */\n      0x00\n        /* \"contracts/Auction/auction1404.sol\":26566:26569  day */\n      dup6\n        /* \"contracts/Auction/auction1404.sol\":26552:26570  dailyAuctions[day] */\n      dup2\n      mstore\n      0x20\n      add\n      swap1\n      dup2\n      mstore\n      0x20\n      add\n      0x00\n      keccak256\n        /* \"contracts/Auction/auction1404.sol\":26552:26582  dailyAuctions[day].tokensDaily */\n      0x00\n      add\n        /* \"contracts/Auction/auction1404.sol\":26552:26596  dailyAuctions[day].tokensDaily = tokensDaily */\n      dup2\n      swap1\n      sstore\n      pop\n        /* \"contracts/Auction/auction1404.sol\":26295:26603  function setDailyDetails(... */\n      pop\n      pop\n      pop\n      jump\t// out\n        /* \"contracts/Auction/auction1404.sol\":23849:23875  address public fundsWallet */\n    tag_62:\n      0x09\n      0x01\n      swap1\n      sload\n      swap1\n      0x0100\n      exp\n      swap1\n      div\n      0xffffffffffffffffffffffffffffffffffffffff\n      and\n      dup2\n      jump\t// out\n        /* \"contracts/Auction/auction1404.sol\":23607:23667  uint256 public maxOversubscriptionlimit = 1000000 * 10 ** 18 */\n    tag_66:\n      sload(0x05)\n      dup2\n      jump\t// out\n        /* \"contracts/Auction/auction1404.sol\":30764:30921  function auctionStatus(bool status) external onlyOwner {... */\n    tag_72:\n        /* \"contracts/Auction/auction1404.sol\":1826:1839  _checkOwner() */\n      tag_267\n        /* \"contracts/Auction/auction1404.sol\":1826:1837  _checkOwner */\n      tag_235\n        /* \"contracts/Auction/auction1404.sol\":1826:1839  _checkOwner() */\n      jump\t// in\n    tag_267:\n        /* \"contracts/Auction/auction1404.sol\":30840:30846  status */\n      dup1\n        /* \"contracts/Auction/auction1404.sol\":30829:30837  isPaused */\n      0x09\n      0x00\n        /* \"contracts/Auction/auction1404.sol\":30829:30846  isPaused = status */\n      0x0100\n      exp\n      dup2\n      sload\n      dup2\n      0xff\n      mul\n      not\n      and\n      swap1\n      dup4\n      iszero\n      iszero\n      mul\n      or\n      swap1\n      sstore\n      pop\n        /* \"contracts/Auction/auction1404.sol\":30862:30914  AuctionStatus(msg.sender , status , block.timestamp) */\n      0x237dd0cdf7b3af1cfa9eb04b654f1babb43ddaad2183a8863d9fea7d857aacd6\n        /* \"contracts/Auction/auction1404.sol\":30876:30886  msg.sender */\n      caller\n        /* \"contracts/Auction/auction1404.sol\":30889:30895  status */\n      dup3\n        /* \"contracts/Auction/auction1404.sol\":30898:30913  block.timestamp */\n      timestamp\n        /* \"contracts/Auction/auction1404.sol\":30862:30914  AuctionStatus(msg.sender , status , block.timestamp) */\n      mload(0x40)\n      tag_269\n      swap4\n      swap3\n      swap2\n      swap1\n      tag_270\n      jump\t// in\n    tag_269:\n      mload(0x40)\n      dup1\n      swap2\n      sub\n      swap1\n      log1\n        /* \"contracts/Auction/auction1404.sol\":30764:30921  function auctionStatus(bool status) external onlyOwner {... */\n      pop\n      jump\t// out\n        /* \"contracts/Auction/auction1404.sol\":24315:24363  mapping(uint256 => Auction) public dailyAuctions */\n    tag_75:\n      mstore(0x20, 0x0c)\n      dup1\n      0x00\n      mstore\n      keccak256(0x00, 0x40)\n      0x00\n      swap2\n      pop\n      swap1\n      pop\n      dup1\n      0x00\n      add\n      sload\n      swap1\n      dup1\n      0x01\n      add\n      sload\n      swap1\n      dup1\n      0x02\n      add\n      sload\n      swap1\n      dup1\n      0x03\n      add\n      sload\n      swap1\n      pop\n      dup5\n      jump\t// out\n        /* \"contracts/Auction/auction1404.sol\":26860:27338  function getCurrentDay() public view returns (uint256) {... */\n    tag_79:\n        /* \"contracts/Auction/auction1404.sol\":26906:26913  uint256 */\n      0x00\n        /* \"contracts/Auction/auction1404.sol\":26925:26944  Round storage round */\n      dup1\n        /* \"contracts/Auction/auction1404.sol\":26947:26953  rounds */\n      0x0b\n        /* \"contracts/Auction/auction1404.sol\":26947:26967  rounds[currentRound] */\n      0x00\n        /* \"contracts/Auction/auction1404.sol\":26954:26966  currentRound */\n      sload(0x08)\n        /* \"contracts/Auction/auction1404.sol\":26947:26967  rounds[currentRound] */\n      dup2\n      mstore\n      0x20\n      add\n      swap1\n      dup2\n      mstore\n      0x20\n      add\n      0x00\n      keccak256\n        /* \"contracts/Auction/auction1404.sol\":26925:26967  Round storage round = rounds[currentRound] */\n      swap1\n      pop\n        /* \"contracts/Auction/auction1404.sol\":26982:26990  isPaused */\n      0x09\n      0x00\n      swap1\n      sload\n      swap1\n      0x0100\n      exp\n      swap1\n      div\n      0xff\n      and\n        /* \"contracts/Auction/auction1404.sol\":26982:27026  isPaused || block.timestamp > round.roundEnd */\n      dup1\n      tag_272\n      jumpi\n      pop\n        /* \"contracts/Auction/auction1404.sol\":27012:27017  round */\n      dup1\n        /* \"contracts/Auction/auction1404.sol\":27012:27026  round.roundEnd */\n      0x01\n      add\n      sload\n        /* \"contracts/Auction/auction1404.sol\":26994:27009  block.timestamp */\n      timestamp\n        /* \"contracts/Auction/auction1404.sol\":26994:27026  block.timestamp > round.roundEnd */\n      gt\n        /* \"contracts/Auction/auction1404.sol\":26982:27026  isPaused || block.timestamp > round.roundEnd */\n    tag_272:\n        /* \"contracts/Auction/auction1404.sol\":26978:27098  if (isPaused || block.timestamp > round.roundEnd) {... */\n      iszero\n      tag_273\n      jumpi\n        /* \"contracts/Auction/auction1404.sol\":27049:27050  8 */\n      0x08\n        /* \"contracts/Auction/auction1404.sol\":27042:27050  return 8 */\n      swap2\n      pop\n      pop\n      jump(tag_271)\n        /* \"contracts/Auction/auction1404.sol\":26978:27098  if (isPaused || block.timestamp > round.roundEnd) {... */\n    tag_273:\n        /* \"contracts/Auction/auction1404.sol\":27108:27123  uint256 elapsed */\n      0x00\n        /* \"contracts/Auction/auction1404.sol\":27144:27149  round */\n      dup2\n        /* \"contracts/Auction/auction1404.sol\":27144:27160  round.roundStart */\n      0x00\n      add\n      sload\n        /* \"contracts/Auction/auction1404.sol\":27126:27141  block.timestamp */\n      timestamp\n        /* \"contracts/Auction/auction1404.sol\":27126:27160  block.timestamp - round.roundStart */\n      tag_274\n      swap2\n      swap1\n      tag_203\n      jump\t// in\n    tag_274:\n        /* \"contracts/Auction/auction1404.sol\":27108:27160  uint256 elapsed = block.timestamp - round.roundStart */\n      swap1\n      pop\n        /* \"contracts/Auction/auction1404.sol\":27170:27181  uint256 day */\n      0x00\n        /* \"contracts/Auction/auction1404.sol\":27205:27206  1 */\n      0x01\n        /* \"contracts/Auction/auction1404.sol\":27195:27201  1 days */\n      0x015180\n        /* \"contracts/Auction/auction1404.sol\":27185:27192  elapsed */\n      dup4\n        /* \"contracts/Auction/auction1404.sol\":27185:27201  elapsed / 1 days */\n      tag_275\n      swap2\n      swap1\n      tag_187\n      jump\t// in\n    tag_275:\n        /* \"contracts/Auction/auction1404.sol\":27184:27206  (elapsed / 1 days) + 1 */\n      tag_276\n      swap2\n      swap1\n      tag_198\n      jump\t// in\n    tag_276:\n        /* \"contracts/Auction/auction1404.sol\":27170:27206  uint256 day = (elapsed / 1 days) + 1 */\n      swap1\n      pop\n        /* \"contracts/Auction/auction1404.sol\":27275:27276  7 */\n      0x07\n        /* \"contracts/Auction/auction1404.sol\":27269:27272  day */\n      dup2\n        /* \"contracts/Auction/auction1404.sol\":27269:27276  day > 7 */\n      gt\n        /* \"contracts/Auction/auction1404.sol\":27265:27311  if (day > 7) {... */\n      iszero\n      tag_277\n      jumpi\n        /* \"contracts/Auction/auction1404.sol\":27299:27300  7 */\n      0x07\n        /* \"contracts/Auction/auction1404.sol\":27292:27300  return 7 */\n      swap4\n      pop\n      pop\n      pop\n      pop\n      jump(tag_271)\n        /* \"contracts/Auction/auction1404.sol\":27265:27311  if (day > 7) {... */\n    tag_277:\n        /* \"contracts/Auction/auction1404.sol\":27328:27331  day */\n      dup1\n        /* \"contracts/Auction/auction1404.sol\":27321:27331  return day */\n      swap4\n      pop\n      pop\n      pop\n      pop\n        /* \"contracts/Auction/auction1404.sol\":26860:27338  function getCurrentDay() public view returns (uint256) {... */\n    tag_271:\n      swap1\n      jump\t// out\n        /* \"contracts/Auction/auction1404.sol\":31159:31493  function getDailyAuction(uint256 roundNumber, uint256 day) external view returns ( uint256) {... */\n    tag_84:\n        /* \"contracts/Auction/auction1404.sol\":31242:31249  uint256 */\n      0x00\n        /* \"contracts/Auction/auction1404.sol\":31261:31280  Round storage round */\n      dup1\n        /* \"contracts/Auction/auction1404.sol\":31283:31289  rounds */\n      0x0b\n        /* \"contracts/Auction/auction1404.sol\":31283:31302  rounds[roundNumber] */\n      0x00\n        /* \"contracts/Auction/auction1404.sol\":31290:31301  roundNumber */\n      dup6\n        /* \"contracts/Auction/auction1404.sol\":31283:31302  rounds[roundNumber] */\n      dup2\n      mstore\n      0x20\n      add\n      swap1\n      dup2\n      mstore\n      0x20\n      add\n      0x00\n      keccak256\n        /* \"contracts/Auction/auction1404.sol\":31261:31302  Round storage round = rounds[roundNumber] */\n      swap1\n      pop\n        /* \"contracts/Auction/auction1404.sol\":31312:31334  Auction memory auction */\n      0x00\n        /* \"contracts/Auction/auction1404.sol\":31337:31342  round */\n      dup2\n        /* \"contracts/Auction/auction1404.sol\":31337:31356  round.dailyAuctions */\n      0x02\n      add\n        /* \"contracts/Auction/auction1404.sol\":31337:31361  round.dailyAuctions[day] */\n      0x00\n        /* \"contracts/Auction/auction1404.sol\":31357:31360  day */\n      dup6\n        /* \"contracts/Auction/auction1404.sol\":31337:31361  round.dailyAuctions[day] */\n      dup2\n      mstore\n      0x20\n      add\n      swap1\n      dup2\n      mstore\n      0x20\n      add\n      0x00\n      keccak256\n        /* \"contracts/Auction/auction1404.sol\":31312:31361  Auction memory auction = round.dailyAuctions[day] */\n      mload(0x40)\n      dup1\n      0x80\n      add\n      0x40\n      mstore\n      swap1\n      dup2\n      0x00\n      dup3\n      add\n      sload\n      dup2\n      mstore\n      0x20\n      add\n      0x01\n      dup3\n      add\n      sload\n      dup2\n      mstore\n      0x20\n      add\n      0x02\n      dup3\n      add\n      sload\n      dup2\n      mstore\n      0x20\n      add\n      0x03\n      dup3\n      add\n      sload\n      dup2\n      mstore\n      pop\n      pop\n      swap1\n      pop\n        /* \"contracts/Auction/auction1404.sol\":31381:31388  auction */\n      dup1\n        /* \"contracts/Auction/auction1404.sol\":31381:31399  auction.tokensSold */\n      0x20\n      add\n      mload\n        /* \"contracts/Auction/auction1404.sol\":31372:31400  return ( auction.tokensSold) */\n      swap3\n      pop\n      pop\n      pop\n        /* \"contracts/Auction/auction1404.sol\":31159:31493  function getDailyAuction(uint256 roundNumber, uint256 day) external view returns ( uint256) {... */\n      swap3\n      swap2\n      pop\n      pop\n      jump\t// out\n        /* \"contracts/Auction/auction1404.sol\":24369:24418  mapping(address => UserDetails) public userDetail */\n    tag_89:\n      mstore(0x20, 0x0d)\n      dup1\n      0x00\n      mstore\n      keccak256(0x00, 0x40)\n      0x00\n      swap2\n      pop\n      swap1\n      pop\n      dup1\n      0x00\n      add\n      sload\n      swap1\n      dup1\n      0x01\n      add\n      sload\n      swap1\n      pop\n      dup3\n      jump\t// out\n        /* \"contracts/Auction/auction1404.sol\":26173:26289  function setFundsWallet(address _fundsWalletAddr) external onlyOwner {... */\n    tag_94:\n        /* \"contracts/Auction/auction1404.sol\":1826:1839  _checkOwner() */\n      tag_280\n        /* \"contracts/Auction/auction1404.sol\":1826:1837  _checkOwner */\n      tag_235\n        /* \"contracts/Auction/auction1404.sol\":1826:1839  _checkOwner() */\n      jump\t// in\n    tag_280:\n        /* \"contracts/Auction/auction1404.sol\":26266:26282  _fundsWalletAddr */\n      dup1\n        /* \"contracts/Auction/auction1404.sol\":26252:26263  fundsWallet */\n      0x09\n      0x01\n        /* \"contracts/Auction/auction1404.sol\":26252:26282  fundsWallet = _fundsWalletAddr */\n      0x0100\n      exp\n      dup2\n      sload\n      dup2\n      0xffffffffffffffffffffffffffffffffffffffff\n      mul\n      not\n      and\n      swap1\n      dup4\n      0xffffffffffffffffffffffffffffffffffffffff\n      and\n      mul\n      or\n      swap1\n      sstore\n      pop\n        /* \"contracts/Auction/auction1404.sol\":26173:26289  function setFundsWallet(address _fundsWalletAddr) external onlyOwner {... */\n      pop\n      jump\t// out\n        /* \"contracts/Auction/auction1404.sol\":25445:26062  function startAuction() external onlyOwner {... */\n    tag_96:\n        /* \"contracts/Auction/auction1404.sol\":1826:1839  _checkOwner() */\n      tag_283\n        /* \"contracts/Auction/auction1404.sol\":1826:1837  _checkOwner */\n      tag_235\n        /* \"contracts/Auction/auction1404.sol\":1826:1839  _checkOwner() */\n      jump\t// in\n    tag_283:\n        /* \"contracts/Auction/auction1404.sol\":25507:25515  isPaused */\n      0x09\n      0x00\n      swap1\n      sload\n      swap1\n      0x0100\n      exp\n      swap1\n      div\n      0xff\n      and\n        /* \"contracts/Auction/auction1404.sol\":25499:25543  require(isPaused, \"Auction already started\") */\n      tag_285\n      jumpi\n      mload(0x40)\n      0x08c379a000000000000000000000000000000000000000000000000000000000\n      dup2\n      mstore\n      0x04\n      add\n      tag_286\n      swap1\n      tag_287\n      jump\t// in\n    tag_286:\n      mload(0x40)\n      dup1\n      swap2\n      sub\n      swap1\n      revert\n    tag_285:\n        /* \"contracts/Auction/auction1404.sol\":25564:25569  false */\n      0x00\n        /* \"contracts/Auction/auction1404.sol\":25553:25561  isPaused */\n      0x09\n      0x00\n        /* \"contracts/Auction/auction1404.sol\":25553:25569  isPaused = false */\n      0x0100\n      exp\n      dup2\n      sload\n      dup2\n      0xff\n      mul\n      not\n      and\n      swap1\n      dup4\n      iszero\n      iszero\n      mul\n      or\n      swap1\n      sstore\n      pop\n        /* \"contracts/Auction/auction1404.sol\":25614:25626  currentRound */\n      0x08\n      0x00\n        /* \"contracts/Auction/auction1404.sol\":25614:25628  currentRound++ */\n      dup2\n      sload\n      dup1\n      swap3\n      swap2\n      swap1\n      tag_288\n      swap1\n      tag_289\n      jump\t// in\n    tag_288:\n      swap2\n      swap1\n      pop\n      sstore\n      pop\n        /* \"contracts/Auction/auction1404.sol\":25638:25657  Round storage round */\n      0x00\n        /* \"contracts/Auction/auction1404.sol\":25660:25666  rounds */\n      0x0b\n        /* \"contracts/Auction/auction1404.sol\":25660:25680  rounds[currentRound] */\n      0x00\n        /* \"contracts/Auction/auction1404.sol\":25667:25679  currentRound */\n      sload(0x08)\n        /* \"contracts/Auction/auction1404.sol\":25660:25680  rounds[currentRound] */\n      dup2\n      mstore\n      0x20\n      add\n      swap1\n      dup2\n      mstore\n      0x20\n      add\n      0x00\n      keccak256\n        /* \"contracts/Auction/auction1404.sol\":25638:25680  Round storage round = rounds[currentRound] */\n      swap1\n      pop\n        /* \"contracts/Auction/auction1404.sol\":25710:25725  block.timestamp */\n      timestamp\n        /* \"contracts/Auction/auction1404.sol\":25691:25696  round */\n      dup2\n        /* \"contracts/Auction/auction1404.sol\":25691:25707  round.roundStart */\n      0x00\n      add\n        /* \"contracts/Auction/auction1404.sol\":25691:25725  round.roundStart = block.timestamp */\n      dup2\n      swap1\n      sstore\n      pop\n        /* \"contracts/Auction/auction1404.sol\":25771:25777  7 days */\n      0x093a80\n        /* \"contracts/Auction/auction1404.sol\":25752:25767  block.timestamp */\n      timestamp\n        /* \"contracts/Auction/auction1404.sol\":25752:25778  block.timestamp + (7 days) */\n      tag_290\n      swap2\n      swap1\n      tag_198\n      jump\t// in\n    tag_290:\n        /* \"contracts/Auction/auction1404.sol\":25735:25740  round */\n      dup2\n        /* \"contracts/Auction/auction1404.sol\":25735:25749  round.roundEnd */\n      0x01\n      add\n        /* \"contracts/Auction/auction1404.sol\":25735:25778  round.roundEnd = block.timestamp + (7 days) */\n      dup2\n      swap1\n      sstore\n      pop\n        /* \"contracts/Auction/auction1404.sol\":25794:25803  uint256 i */\n      0x00\n        /* \"contracts/Auction/auction1404.sol\":25806:25807  1 */\n      0x01\n        /* \"contracts/Auction/auction1404.sol\":25794:25807  uint256 i = 1 */\n      swap1\n      pop\n        /* \"contracts/Auction/auction1404.sol\":25789:25976  for (uint256 i = 1; i <= 7; i++) {... */\n    tag_291:\n        /* \"contracts/Auction/auction1404.sol\":25814:25815  7 */\n      0x07\n        /* \"contracts/Auction/auction1404.sol\":25809:25810  i */\n      dup2\n        /* \"contracts/Auction/auction1404.sol\":25809:25815  i <= 7 */\n      gt\n        /* \"contracts/Auction/auction1404.sol\":25789:25976  for (uint256 i = 1; i <= 7; i++) {... */\n      tag_292\n      jumpi\n        /* \"contracts/Auction/auction1404.sol\":25867:25887  2_000_000 * 10 ** 18 */\n      0x01a784379d99db42000000\n        /* \"contracts/Auction/auction1404.sol\":25836:25849  dailyAuctions */\n      0x0c\n        /* \"contracts/Auction/auction1404.sol\":25836:25852  dailyAuctions[i] */\n      0x00\n        /* \"contracts/Auction/auction1404.sol\":25850:25851  i */\n      dup4\n        /* \"contracts/Auction/auction1404.sol\":25836:25852  dailyAuctions[i] */\n      dup2\n      mstore\n      0x20\n      add\n      swap1\n      dup2\n      mstore\n      0x20\n      add\n      0x00\n      keccak256\n        /* \"contracts/Auction/auction1404.sol\":25836:25864  dailyAuctions[i].tokensDaily */\n      0x00\n      add\n        /* \"contracts/Auction/auction1404.sol\":25836:25887  dailyAuctions[i].tokensDaily = 2_000_000 * 10 ** 18 */\n      dup2\n      swap1\n      sstore\n      pop\n        /* \"contracts/Auction/auction1404.sol\":25942:25943  5 */\n      0x05\n        /* \"contracts/Auction/auction1404.sol\":25937:25938  i */\n      dup2\n        /* \"contracts/Auction/auction1404.sol\":25937:25943  i <= 5 */\n      gt\n      iszero\n        /* \"contracts/Auction/auction1404.sol\":25936:25965  (i <= 5) ? 3 : (i == 6)? 2: 1 */\n      tag_294\n      jumpi\n        /* \"contracts/Auction/auction1404.sol\":25957:25958  6 */\n      0x06\n        /* \"contracts/Auction/auction1404.sol\":25952:25953  i */\n      dup2\n        /* \"contracts/Auction/auction1404.sol\":25952:25958  i == 6 */\n      eq\n        /* \"contracts/Auction/auction1404.sol\":25951:25965  (i == 6)? 2: 1 */\n      tag_295\n      jumpi\n        /* \"contracts/Auction/auction1404.sol\":25964:25965  1 */\n      0x01\n        /* \"contracts/Auction/auction1404.sol\":25951:25965  (i == 6)? 2: 1 */\n      jump(tag_296)\n    tag_295:\n        /* \"contracts/Auction/auction1404.sol\":25961:25962  2 */\n      0x02\n        /* \"contracts/Auction/auction1404.sol\":25951:25965  (i == 6)? 2: 1 */\n    tag_296:\n        /* \"contracts/Auction/auction1404.sol\":25936:25965  (i <= 5) ? 3 : (i == 6)? 2: 1 */\n      jump(tag_297)\n    tag_294:\n        /* \"contracts/Auction/auction1404.sol\":25947:25948  3 */\n      0x03\n        /* \"contracts/Auction/auction1404.sol\":25936:25965  (i <= 5) ? 3 : (i == 6)? 2: 1 */\n    tag_297:\n        /* \"contracts/Auction/auction1404.sol\":25901:25965  dailyAuctions[i].bonusMultiplier = (i <= 5) ? 3 : (i == 6)? 2: 1 */\n      0xff\n      and\n        /* \"contracts/Auction/auction1404.sol\":25901:25914  dailyAuctions */\n      0x0c\n        /* \"contracts/Auction/auction1404.sol\":25901:25917  dailyAuctions[i] */\n      0x00\n        /* \"contracts/Auction/auction1404.sol\":25915:25916  i */\n      dup4\n        /* \"contracts/Auction/auction1404.sol\":25901:25917  dailyAuctions[i] */\n      dup2\n      mstore\n      0x20\n      add\n      swap1\n      dup2\n      mstore\n      0x20\n      add\n      0x00\n      keccak256\n        /* \"contracts/Auction/auction1404.sol\":25901:25933  dailyAuctions[i].bonusMultiplier */\n      0x03\n      add\n        /* \"contracts/Auction/auction1404.sol\":25901:25965  dailyAuctions[i].bonusMultiplier = (i <= 5) ? 3 : (i == 6)? 2: 1 */\n      dup2\n      swap1\n      sstore\n      pop\n        /* \"contracts/Auction/auction1404.sol\":25817:25820  i++ */\n      dup1\n      dup1\n      tag_298\n      swap1\n      tag_289\n      jump\t// in\n    tag_298:\n      swap2\n      pop\n      pop\n        /* \"contracts/Auction/auction1404.sol\":25789:25976  for (uint256 i = 1; i <= 7; i++) {... */\n      jump(tag_291)\n    tag_292:\n      pop\n        /* \"contracts/Auction/auction1404.sol\":25990:26055  StartAuction(currentRound , round.roundStart ,  round.roundEnd  ) */\n      0x683d0f47c7fa11331f4e9563b3f5a7fdc3d3c5b75c600357a91d991f5a13a437\n        /* \"contracts/Auction/auction1404.sol\":26003:26015  currentRound */\n      sload(0x08)\n        /* \"contracts/Auction/auction1404.sol\":26018:26023  round */\n      dup3\n        /* \"contracts/Auction/auction1404.sol\":26018:26034  round.roundStart */\n      0x00\n      add\n      sload\n        /* \"contracts/Auction/auction1404.sol\":26038:26043  round */\n      dup4\n        /* \"contracts/Auction/auction1404.sol\":26038:26052  round.roundEnd */\n      0x01\n      add\n      sload\n        /* \"contracts/Auction/auction1404.sol\":25990:26055  StartAuction(currentRound , round.roundStart ,  round.roundEnd  ) */\n      mload(0x40)\n      tag_299\n      swap4\n      swap3\n      swap2\n      swap1\n      tag_145\n      jump\t// in\n    tag_299:\n      mload(0x40)\n      dup1\n      swap2\n      sub\n      swap1\n      log1\n        /* \"contracts/Auction/auction1404.sol\":25488:26062  {... */\n      pop\n        /* \"contracts/Auction/auction1404.sol\":25445:26062  function startAuction() external onlyOwner {... */\n      jump\t// out\n        /* \"contracts/Auction/auction1404.sol\":2588:2689  function renounceOwnership() public virtual onlyOwner {... */\n    tag_98:\n        /* \"contracts/Auction/auction1404.sol\":1826:1839  _checkOwner() */\n      tag_301\n        /* \"contracts/Auction/auction1404.sol\":1826:1837  _checkOwner */\n      tag_235\n        /* \"contracts/Auction/auction1404.sol\":1826:1839  _checkOwner() */\n      jump\t// in\n    tag_301:\n        /* \"contracts/Auction/auction1404.sol\":2652:2682  _transferOwnership(address(0)) */\n      tag_303\n        /* \"contracts/Auction/auction1404.sol\":2679:2680  0 */\n      0x00\n        /* \"contracts/Auction/auction1404.sol\":2652:2670  _transferOwnership */\n      tag_304\n        /* \"contracts/Auction/auction1404.sol\":2652:2682  _transferOwnership(address(0)) */\n      jump\t// in\n    tag_303:\n        /* \"contracts/Auction/auction1404.sol\":2588:2689  function renounceOwnership() public virtual onlyOwner {... */\n      jump\t// out\n        /* \"contracts/Auction/auction1404.sol\":23417:23457  uint256 public tokenPrice = 1 * 10 ** 18 */\n    tag_100:\n      sload(0x03)\n      dup2\n      jump\t// out\n        /* \"contracts/Auction/auction1404.sol\":23780:23807  uint256 public currentRound */\n    tag_103:\n      sload(0x08)\n      dup2\n      jump\t// out\n        /* \"contracts/Auction/auction1404.sol\":24269:24308  mapping(uint256 => Round) public rounds */\n    tag_107:\n      mstore(0x20, 0x0b)\n      dup1\n      0x00\n      mstore\n      keccak256(0x00, 0x40)\n      0x00\n      swap2\n      pop\n      swap1\n      pop\n      dup1\n      0x00\n      add\n      sload\n      swap1\n      dup1\n      0x01\n      add\n      sload\n      swap1\n      pop\n      dup3\n      jump\t// out\n        /* \"contracts/Auction/auction1404.sol\":1933:2018  function owner() public view virtual returns (address) {... */\n    tag_110:\n        /* \"contracts/Auction/auction1404.sol\":1979:1986  address */\n      0x00\n        /* \"contracts/Auction/auction1404.sol\":2005:2011  _owner */\n      dup1\n      0x00\n      swap1\n      sload\n      swap1\n      0x0100\n      exp\n      swap1\n      div\n      0xffffffffffffffffffffffffffffffffffffffff\n      and\n        /* \"contracts/Auction/auction1404.sol\":1998:2011  return _owner */\n      swap1\n      pop\n        /* \"contracts/Auction/auction1404.sol\":1933:2018  function owner() public view virtual returns (address) {... */\n      swap1\n      jump\t// out\n        /* \"contracts/Auction/auction1404.sol\":26068:26167  function setPrice(uint256 _tokenPrice) external onlyOwner {... */\n    tag_114:\n        /* \"contracts/Auction/auction1404.sol\":1826:1839  _checkOwner() */\n      tag_307\n        /* \"contracts/Auction/auction1404.sol\":1826:1837  _checkOwner */\n      tag_235\n        /* \"contracts/Auction/auction1404.sol\":1826:1839  _checkOwner() */\n      jump\t// in\n    tag_307:\n        /* \"contracts/Auction/auction1404.sol\":26149:26160  _tokenPrice */\n      dup1\n        /* \"contracts/Auction/auction1404.sol\":26136:26146  tokenPrice */\n      0x03\n        /* \"contracts/Auction/auction1404.sol\":26136:26160  tokenPrice = _tokenPrice */\n      dup2\n      swap1\n      sstore\n      pop\n        /* \"contracts/Auction/auction1404.sol\":26068:26167  function setPrice(uint256 _tokenPrice) external onlyOwner {... */\n      pop\n      jump\t// out\n        /* \"contracts/Auction/auction1404.sol\":30998:31153  function calculateTokenAmount(... */\n    tag_117:\n        /* \"contracts/Auction/auction1404.sol\":31081:31088  uint256 */\n      0x00\n        /* \"contracts/Auction/auction1404.sol\":31136:31146  tokenPrice */\n      sload(0x03)\n        /* \"contracts/Auction/auction1404.sol\":31123:31131  10 ** 18 */\n      0x0de0b6b3a7640000\n        /* \"contracts/Auction/auction1404.sol\":31108:31119  _usdtAmount */\n      dup4\n        /* \"contracts/Auction/auction1404.sol\":31108:31132  _usdtAmount * (10 ** 18) */\n      tag_310\n      swap2\n      swap1\n      tag_185\n      jump\t// in\n    tag_310:\n        /* \"contracts/Auction/auction1404.sol\":31107:31146  (_usdtAmount * (10 ** 18)) / tokenPrice */\n      tag_311\n      swap2\n      swap1\n      tag_187\n      jump\t// in\n    tag_311:\n        /* \"contracts/Auction/auction1404.sol\":31100:31146  return (_usdtAmount * (10 ** 18)) / tokenPrice */\n      swap1\n      pop\n        /* \"contracts/Auction/auction1404.sol\":30998:31153  function calculateTokenAmount(... */\n      swap2\n      swap1\n      pop\n      jump\t// out\n        /* \"contracts/Auction/auction1404.sol\":23813:23843  bool    public isPaused = true */\n    tag_120:\n      0x09\n      0x00\n      swap1\n      sload\n      swap1\n      0x0100\n      exp\n      swap1\n      div\n      0xff\n      and\n      dup2\n      jump\t// out\n        /* \"contracts/Auction/auction1404.sol\":23546:23601  uint256 public maxOversubscription = 5000000 * 10 ** 18 */\n    tag_124:\n      sload(0x04)\n      dup2\n      jump\t// out\n        /* \"contracts/Auction/auction1404.sol\":23742:23773  uint256 public lockingDay = 180 */\n    tag_127:\n      sload(0x07)\n      dup2\n      jump\t// out\n        /* \"contracts/Auction/auction1404.sol\":23366:23384  IERC20 public USDT */\n    tag_130:\n      0x01\n      0x00\n      swap1\n      sload\n      swap1\n      0x0100\n      exp\n      swap1\n      div\n      0xffffffffffffffffffffffffffffffffffffffff\n      and\n      dup2\n      jump\t// out\n        /* \"contracts/Auction/auction1404.sol\":23390:23411  IProton public PROTON */\n    tag_133:\n      0x02\n      0x00\n      swap1\n      sload\n      swap1\n      0x0100\n      exp\n      swap1\n      div\n      0xffffffffffffffffffffffffffffffffffffffff\n      and\n      dup2\n      jump\t// out\n        /* \"contracts/Auction/auction1404.sol\":23712:23736  uint256 public totalSell */\n    tag_137:\n      sload(0x06)\n      dup2\n      jump\t// out\n        /* \"contracts/Auction/auction1404.sol\":2838:3053  function transferOwnership(address newOwner) public virtual onlyOwner {... */\n    tag_141:\n        /* \"contracts/Auction/auction1404.sol\":1826:1839  _checkOwner() */\n      tag_313\n        /* \"contracts/Auction/auction1404.sol\":1826:1837  _checkOwner */\n      tag_235\n        /* \"contracts/Auction/auction1404.sol\":1826:1839  _checkOwner() */\n      jump\t// in\n    tag_313:\n        /* \"contracts/Auction/auction1404.sol\":2942:2943  0 */\n      0x00\n        /* \"contracts/Auction/auction1404.sol\":2922:2944  newOwner == address(0) */\n      0xffffffffffffffffffffffffffffffffffffffff\n      and\n        /* \"contracts/Auction/auction1404.sol\":2922:2930  newOwner */\n      dup2\n        /* \"contracts/Auction/auction1404.sol\":2922:2944  newOwner == address(0) */\n      0xffffffffffffffffffffffffffffffffffffffff\n      and\n      sub\n        /* \"contracts/Auction/auction1404.sol\":2918:3009  if (newOwner == address(0)) {... */\n      tag_315\n      jumpi\n        /* \"contracts/Auction/auction1404.sol\":2995:2996  0 */\n      0x00\n        /* \"contracts/Auction/auction1404.sol\":2967:2998  OwnableInvalidOwner(address(0)) */\n      mload(0x40)\n      0x1e4fbdf700000000000000000000000000000000000000000000000000000000\n      dup2\n      mstore\n      0x04\n      add\n      tag_316\n      swap2\n      swap1\n      tag_64\n      jump\t// in\n    tag_316:\n      mload(0x40)\n      dup1\n      swap2\n      sub\n      swap1\n      revert\n        /* \"contracts/Auction/auction1404.sol\":2918:3009  if (newOwner == address(0)) {... */\n    tag_315:\n        /* \"contracts/Auction/auction1404.sol\":3018:3046  _transferOwnership(newOwner) */\n      tag_317\n        /* \"contracts/Auction/auction1404.sol\":3037:3045  newOwner */\n      dup2\n        /* \"contracts/Auction/auction1404.sol\":3018:3036  _transferOwnership */\n      tag_304\n        /* \"contracts/Auction/auction1404.sol\":3018:3046  _transferOwnership(newOwner) */\n      jump\t// in\n    tag_317:\n        /* \"contracts/Auction/auction1404.sol\":2838:3053  function transferOwnership(address newOwner) public virtual onlyOwner {... */\n      pop\n      jump\t// out\n        /* \"contracts/Auction/auction1404.sol\":26609:26854  function AuctionTime() external view returns (uint256 _currentRound,uint256 roundStart, uint256 roundEnd) {... */\n    tag_143:\n        /* \"contracts/Auction/auction1404.sol\":26655:26676  uint256 _currentRound */\n      0x00\n        /* \"contracts/Auction/auction1404.sol\":26677:26695  uint256 roundStart */\n      dup1\n        /* \"contracts/Auction/auction1404.sol\":26697:26713  uint256 roundEnd */\n      0x00\n        /* \"contracts/Auction/auction1404.sol\":26749:26761  currentRound */\n      sload(0x08)\n        /* \"contracts/Auction/auction1404.sol\":26733:26761  _currentRound = currentRound */\n      swap3\n      pop\n      dup3\n        /* \"contracts/Auction/auction1404.sol\":26775:26781  rounds */\n      0x0b\n        /* \"contracts/Auction/auction1404.sol\":26775:26795  rounds[currentRound] */\n      0x00\n        /* \"contracts/Auction/auction1404.sol\":26782:26794  currentRound */\n      sload(0x08)\n        /* \"contracts/Auction/auction1404.sol\":26775:26795  rounds[currentRound] */\n      dup2\n      mstore\n      0x20\n      add\n      swap1\n      dup2\n      mstore\n      0x20\n      add\n      0x00\n      keccak256\n        /* \"contracts/Auction/auction1404.sol\":26775:26806  rounds[currentRound].roundStart */\n      0x00\n      add\n      sload\n        /* \"contracts/Auction/auction1404.sol\":26763:26806  roundStart= rounds[currentRound].roundStart */\n      swap3\n      pop\n      dup3\n        /* \"contracts/Auction/auction1404.sol\":26817:26823  rounds */\n      0x0b\n        /* \"contracts/Auction/auction1404.sol\":26817:26837  rounds[currentRound] */\n      0x00\n        /* \"contracts/Auction/auction1404.sol\":26824:26836  currentRound */\n      sload(0x08)\n        /* \"contracts/Auction/auction1404.sol\":26817:26837  rounds[currentRound] */\n      dup2\n      mstore\n      0x20\n      add\n      swap1\n      dup2\n      mstore\n      0x20\n      add\n      0x00\n      keccak256\n        /* \"contracts/Auction/auction1404.sol\":26817:26846  rounds[currentRound].roundEnd */\n      0x01\n      add\n      sload\n        /* \"contracts/Auction/auction1404.sol\":26807:26846  roundEnd= rounds[currentRound].roundEnd */\n      swap3\n      pop\n        /* \"contracts/Auction/auction1404.sol\":26725:26847  return (_currentRound = currentRound ,roundStart= rounds[currentRound].roundStart,roundEnd= rounds[currentRound].roundEnd) */\n      swap3\n      pop\n      swap3\n      pop\n        /* \"contracts/Auction/auction1404.sol\":26609:26854  function AuctionTime() external view returns (uint256 _currentRound,uint256 roundStart, uint256 roundEnd) {... */\n      swap1\n      swap2\n      swap3\n      jump\t// out\n        /* \"contracts/Auction/auction1404.sol\":32142:32395  function isTokenValid(IERC20 contractAddress) internal view returns (bool) {... */\n    tag_180:\n        /* \"contracts/Auction/auction1404.sol\":32211:32215  bool */\n      0x00\n        /* \"contracts/Auction/auction1404.sol\":32232:32241  uint256 i */\n      dup1\n        /* \"contracts/Auction/auction1404.sol\":32244:32245  0 */\n      0x00\n        /* \"contracts/Auction/auction1404.sol\":32232:32245  uint256 i = 0 */\n      swap1\n      pop\n        /* \"contracts/Auction/auction1404.sol\":32227:32367  for (uint256 i = 0; i < token.length; i++) {... */\n    tag_320:\n        /* \"contracts/Auction/auction1404.sol\":32251:32256  token */\n      0x0a\n        /* \"contracts/Auction/auction1404.sol\":32251:32263  token.length */\n      dup1\n      sload\n      swap1\n      pop\n        /* \"contracts/Auction/auction1404.sol\":32247:32248  i */\n      dup2\n        /* \"contracts/Auction/auction1404.sol\":32247:32263  i < token.length */\n      lt\n        /* \"contracts/Auction/auction1404.sol\":32227:32367  for (uint256 i = 0; i < token.length; i++) {... */\n      iszero\n      tag_321\n      jumpi\n        /* \"contracts/Auction/auction1404.sol\":32300:32315  contractAddress */\n      dup3\n        /* \"contracts/Auction/auction1404.sol\":32288:32315  token[i] == contractAddress */\n      0xffffffffffffffffffffffffffffffffffffffff\n      and\n        /* \"contracts/Auction/auction1404.sol\":32288:32293  token */\n      0x0a\n        /* \"contracts/Auction/auction1404.sol\":32294:32295  i */\n      dup3\n        /* \"contracts/Auction/auction1404.sol\":32288:32296  token[i] */\n      dup2\n      sload\n      dup2\n      lt\n      tag_323\n      jumpi\n      tag_324\n      tag_325\n      jump\t// in\n    tag_324:\n    tag_323:\n      swap1\n      0x00\n      mstore\n      keccak256(0x00, 0x20)\n      add\n      0x00\n      swap1\n      sload\n      swap1\n      0x0100\n      exp\n      swap1\n      div\n      0xffffffffffffffffffffffffffffffffffffffff\n      and\n        /* \"contracts/Auction/auction1404.sol\":32288:32315  token[i] == contractAddress */\n      0xffffffffffffffffffffffffffffffffffffffff\n      and\n      sub\n        /* \"contracts/Auction/auction1404.sol\":32284:32357  if (token[i] == contractAddress) {... */\n      tag_327\n      jumpi\n        /* \"contracts/Auction/auction1404.sol\":32338:32342  true */\n      0x01\n        /* \"contracts/Auction/auction1404.sol\":32331:32342  return true */\n      swap2\n      pop\n      pop\n      jump(tag_319)\n        /* \"contracts/Auction/auction1404.sol\":32284:32357  if (token[i] == contractAddress) {... */\n    tag_327:\n        /* \"contracts/Auction/auction1404.sol\":32265:32268  i++ */\n      dup1\n      dup1\n      tag_328\n      swap1\n      tag_289\n      jump\t// in\n    tag_328:\n      swap2\n      pop\n      pop\n        /* \"contracts/Auction/auction1404.sol\":32227:32367  for (uint256 i = 0; i < token.length; i++) {... */\n      jump(tag_320)\n    tag_321:\n      pop\n        /* \"contracts/Auction/auction1404.sol\":32383:32388  false */\n      0x00\n        /* \"contracts/Auction/auction1404.sol\":32376:32388  return false */\n      swap1\n      pop\n        /* \"contracts/Auction/auction1404.sol\":32142:32395  function isTokenValid(IERC20 contractAddress) internal view returns (bool) {... */\n    tag_319:\n      swap2\n      swap1\n      pop\n      jump\t// out\n        /* \"contracts/Auction/auction1404.sol\":2091:2253  function _checkOwner() internal view virtual {... */\n    tag_235:\n        /* \"contracts/Auction/auction1404.sol\":2161:2173  _msgSender() */\n      tag_330\n        /* \"contracts/Auction/auction1404.sol\":2161:2171  _msgSender */\n      tag_331\n        /* \"contracts/Auction/auction1404.sol\":2161:2173  _msgSender() */\n      jump\t// in\n    tag_330:\n        /* \"contracts/Auction/auction1404.sol\":2150:2173  owner() != _msgSender() */\n      0xffffffffffffffffffffffffffffffffffffffff\n      and\n        /* \"contracts/Auction/auction1404.sol\":2150:2157  owner() */\n      tag_332\n        /* \"contracts/Auction/auction1404.sol\":2150:2155  owner */\n      tag_110\n        /* \"contracts/Auction/auction1404.sol\":2150:2157  owner() */\n      jump\t// in\n    tag_332:\n        /* \"contracts/Auction/auction1404.sol\":2150:2173  owner() != _msgSender() */\n      0xffffffffffffffffffffffffffffffffffffffff\n      and\n      eq\n        /* \"contracts/Auction/auction1404.sol\":2146:2247  if (owner() != _msgSender()) {... */\n      tag_333\n      jumpi\n        /* \"contracts/Auction/auction1404.sol\":2223:2235  _msgSender() */\n      tag_334\n        /* \"contracts/Auction/auction1404.sol\":2223:2233  _msgSender */\n      tag_331\n        /* \"contracts/Auction/auction1404.sol\":2223:2235  _msgSender() */\n      jump\t// in\n    tag_334:\n        /* \"contracts/Auction/auction1404.sol\":2196:2236  OwnableUnauthorizedAccount(_msgSender()) */\n      mload(0x40)\n      0x118cdaa700000000000000000000000000000000000000000000000000000000\n      dup2\n      mstore\n      0x04\n      add\n      tag_335\n      swap2\n      swap1\n      tag_64\n      jump\t// in\n    tag_335:\n      mload(0x40)\n      dup1\n      swap2\n      sub\n      swap1\n      revert\n        /* \"contracts/Auction/auction1404.sol\":2146:2247  if (owner() != _msgSender()) {... */\n    tag_333:\n        /* \"contracts/Auction/auction1404.sol\":2091:2253  function _checkOwner() internal view virtual {... */\n      jump\t// out\n        /* \"contracts/Auction/auction1404.sol\":3207:3394  function _transferOwnership(address newOwner) internal virtual {... */\n    tag_304:\n        /* \"contracts/Auction/auction1404.sol\":3280:3296  address oldOwner */\n      0x00\n        /* \"contracts/Auction/auction1404.sol\":3299:3305  _owner */\n      dup1\n      0x00\n      swap1\n      sload\n      swap1\n      0x0100\n      exp\n      swap1\n      div\n      0xffffffffffffffffffffffffffffffffffffffff\n      and\n        /* \"contracts/Auction/auction1404.sol\":3280:3305  address oldOwner = _owner */\n      swap1\n      pop\n        /* \"contracts/Auction/auction1404.sol\":3324:3332  newOwner */\n      dup2\n        /* \"contracts/Auction/auction1404.sol\":3315:3321  _owner */\n      0x00\n      dup1\n        /* \"contracts/Auction/auction1404.sol\":3315:3332  _owner = newOwner */\n      0x0100\n      exp\n      dup2\n      sload\n      dup2\n      0xffffffffffffffffffffffffffffffffffffffff\n      mul\n      not\n      and\n      swap1\n      dup4\n      0xffffffffffffffffffffffffffffffffffffffff\n      and\n      mul\n      or\n      swap1\n      sstore\n      pop\n        /* \"contracts/Auction/auction1404.sol\":3378:3386  newOwner */\n      dup2\n        /* \"contracts/Auction/auction1404.sol\":3347:3387  OwnershipTransferred(oldOwner, newOwner) */\n      0xffffffffffffffffffffffffffffffffffffffff\n      and\n        /* \"contracts/Auction/auction1404.sol\":3368:3376  oldOwner */\n      dup2\n        /* \"contracts/Auction/auction1404.sol\":3347:3387  OwnershipTransferred(oldOwner, newOwner) */\n      0xffffffffffffffffffffffffffffffffffffffff\n      and\n      0x8be0079c531659141344cd1fd0a4f28419497f9722a3daafe3b4186f6b6457e0\n      mload(0x40)\n      mload(0x40)\n      dup1\n      swap2\n      sub\n      swap1\n      log3\n        /* \"contracts/Auction/auction1404.sol\":3270:3394  {... */\n      pop\n        /* \"contracts/Auction/auction1404.sol\":3207:3394  function _transferOwnership(address newOwner) internal virtual {... */\n      pop\n      jump\t// out\n        /* \"contracts/Auction/auction1404.sol\":628:724  function _msgSender() internal view virtual returns (address) {... */\n    tag_331:\n        /* \"contracts/Auction/auction1404.sol\":681:688  address */\n      0x00\n        /* \"contracts/Auction/auction1404.sol\":707:717  msg.sender */\n      caller\n        /* \"contracts/Auction/auction1404.sol\":700:717  return msg.sender */\n      swap1\n      pop\n        /* \"contracts/Auction/auction1404.sol\":628:724  function _msgSender() internal view virtual returns (address) {... */\n      swap1\n      jump\t// out\n        /* \"#utility.yul\":7:82   */\n    tag_338:\n        /* \"#utility.yul\":40:46   */\n      0x00\n        /* \"#utility.yul\":73:75   */\n      0x40\n        /* \"#utility.yul\":67:76   */\n      mload\n        /* \"#utility.yul\":57:76   */\n      swap1\n      pop\n        /* \"#utility.yul\":7:82   */\n      swap1\n      jump\t// out\n        /* \"#utility.yul\":88:205   */\n    tag_339:\n        /* \"#utility.yul\":197:198   */\n      0x00\n        /* \"#utility.yul\":194:195   */\n      dup1\n        /* \"#utility.yul\":187:199   */\n      revert\n        /* \"#utility.yul\":211:328   */\n    tag_340:\n        /* \"#utility.yul\":320:321   */\n      0x00\n        /* \"#utility.yul\":317:318   */\n      dup1\n        /* \"#utility.yul\":310:322   */\n      revert\n        /* \"#utility.yul\":334:411   */\n    tag_341:\n        /* \"#utility.yul\":371:378   */\n      0x00\n        /* \"#utility.yul\":400:405   */\n      dup2\n        /* \"#utility.yul\":389:405   */\n      swap1\n      pop\n        /* \"#utility.yul\":334:411   */\n      swap2\n      swap1\n      pop\n      jump\t// out\n        /* \"#utility.yul\":417:539   */\n    tag_342:\n        /* \"#utility.yul\":490:514   */\n      tag_413\n        /* \"#utility.yul\":508:513   */\n      dup2\n        /* \"#utility.yul\":490:514   */\n      tag_341\n      jump\t// in\n    tag_413:\n        /* \"#utility.yul\":483:488   */\n      dup2\n        /* \"#utility.yul\":480:515   */\n      eq\n        /* \"#utility.yul\":470:533   */\n      tag_414\n      jumpi\n        /* \"#utility.yul\":529:530   */\n      0x00\n        /* \"#utility.yul\":526:527   */\n      dup1\n        /* \"#utility.yul\":519:531   */\n      revert\n        /* \"#utility.yul\":470:533   */\n    tag_414:\n        /* \"#utility.yul\":417:539   */\n      pop\n      jump\t// out\n        /* \"#utility.yul\":545:684   */\n    tag_343:\n        /* \"#utility.yul\":591:596   */\n      0x00\n        /* \"#utility.yul\":629:635   */\n      dup2\n        /* \"#utility.yul\":616:636   */\n      calldataload\n        /* \"#utility.yul\":607:636   */\n      swap1\n      pop\n        /* \"#utility.yul\":645:678   */\n      tag_416\n        /* \"#utility.yul\":672:677   */\n      dup2\n        /* \"#utility.yul\":645:678   */\n      tag_342\n      jump\t// in\n    tag_416:\n        /* \"#utility.yul\":545:684   */\n      swap3\n      swap2\n      pop\n      pop\n      jump\t// out\n        /* \"#utility.yul\":690:1019   */\n    tag_41:\n        /* \"#utility.yul\":749:755   */\n      0x00\n        /* \"#utility.yul\":798:800   */\n      0x20\n        /* \"#utility.yul\":786:795   */\n      dup3\n        /* \"#utility.yul\":777:784   */\n      dup5\n        /* \"#utility.yul\":773:796   */\n      sub\n        /* \"#utility.yul\":769:801   */\n      slt\n        /* \"#utility.yul\":766:885   */\n      iszero\n      tag_418\n      jumpi\n        /* \"#utility.yul\":804:883   */\n      tag_419\n      tag_339\n      jump\t// in\n    tag_419:\n        /* \"#utility.yul\":766:885   */\n    tag_418:\n        /* \"#utility.yul\":924:925   */\n      0x00\n        /* \"#utility.yul\":949:1002   */\n      tag_420\n        /* \"#utility.yul\":994:1001   */\n      dup5\n        /* \"#utility.yul\":985:991   */\n      dup3\n        /* \"#utility.yul\":974:983   */\n      dup6\n        /* \"#utility.yul\":970:992   */\n      add\n        /* \"#utility.yul\":949:1002   */\n      tag_343\n      jump\t// in\n    tag_420:\n        /* \"#utility.yul\":939:1002   */\n      swap2\n      pop\n        /* \"#utility.yul\":895:1012   */\n      pop\n        /* \"#utility.yul\":690:1019   */\n      swap3\n      swap2\n      pop\n      pop\n      jump\t// out\n        /* \"#utility.yul\":1025:1151   */\n    tag_344:\n        /* \"#utility.yul\":1062:1069   */\n      0x00\n        /* \"#utility.yul\":1102:1144   */\n      0xffffffffffffffffffffffffffffffffffffffff\n        /* \"#utility.yul\":1095:1100   */\n      dup3\n        /* \"#utility.yul\":1091:1145   */\n      and\n        /* \"#utility.yul\":1080:1145   */\n      swap1\n      pop\n        /* \"#utility.yul\":1025:1151   */\n      swap2\n      swap1\n      pop\n      jump\t// out\n        /* \"#utility.yul\":1157:1217   */\n    tag_345:\n        /* \"#utility.yul\":1185:1188   */\n      0x00\n        /* \"#utility.yul\":1206:1211   */\n      dup2\n        /* \"#utility.yul\":1199:1211   */\n      swap1\n      pop\n        /* \"#utility.yul\":1157:1217   */\n      swap2\n      swap1\n      pop\n      jump\t// out\n        /* \"#utility.yul\":1223:1365   */\n    tag_346:\n        /* \"#utility.yul\":1273:1282   */\n      0x00\n        /* \"#utility.yul\":1306:1359   */\n      tag_424\n        /* \"#utility.yul\":1324:1358   */\n      tag_425\n        /* \"#utility.yul\":1333:1357   */\n      tag_426\n        /* \"#utility.yul\":1351:1356   */\n      dup5\n        /* \"#utility.yul\":1333:1357   */\n      tag_344\n      jump\t// in\n    tag_426:\n        /* \"#utility.yul\":1324:1358   */\n      tag_345\n      jump\t// in\n    tag_425:\n        /* \"#utility.yul\":1306:1359   */\n      tag_344\n      jump\t// in\n    tag_424:\n        /* \"#utility.yul\":1293:1359   */\n      swap1\n      pop\n        /* \"#utility.yul\":1223:1365   */\n      swap2\n      swap1\n      pop\n      jump\t// out\n        /* \"#utility.yul\":1371:1497   */\n    tag_347:\n        /* \"#utility.yul\":1421:1430   */\n      0x00\n        /* \"#utility.yul\":1454:1491   */\n      tag_428\n        /* \"#utility.yul\":1485:1490   */\n      dup3\n        /* \"#utility.yul\":1454:1491   */\n      tag_346\n      jump\t// in\n    tag_428:\n        /* \"#utility.yul\":1441:1491   */\n      swap1\n      pop\n        /* \"#utility.yul\":1371:1497   */\n      swap2\n      swap1\n      pop\n      jump\t// out\n        /* \"#utility.yul\":1503:1643   */\n    tag_348:\n        /* \"#utility.yul\":1567:1576   */\n      0x00\n        /* \"#utility.yul\":1600:1637   */\n      tag_430\n        /* \"#utility.yul\":1631:1636   */\n      dup3\n        /* \"#utility.yul\":1600:1637   */\n      tag_347\n      jump\t// in\n    tag_430:\n        /* \"#utility.yul\":1587:1637   */\n      swap1\n      pop\n        /* \"#utility.yul\":1503:1643   */\n      swap2\n      swap1\n      pop\n      jump\t// out\n        /* \"#utility.yul\":1649:1808   */\n    tag_349:\n        /* \"#utility.yul\":1750:1801   */\n      tag_432\n        /* \"#utility.yul\":1795:1800   */\n      dup2\n        /* \"#utility.yul\":1750:1801   */\n      tag_348\n      jump\t// in\n    tag_432:\n        /* \"#utility.yul\":1745:1748   */\n      dup3\n        /* \"#utility.yul\":1738:1802   */\n      mstore\n        /* \"#utility.yul\":1649:1808   */\n      pop\n      pop\n      jump\t// out\n        /* \"#utility.yul\":1814:2064   */\n    tag_44:\n        /* \"#utility.yul\":1921:1925   */\n      0x00\n        /* \"#utility.yul\":1959:1961   */\n      0x20\n        /* \"#utility.yul\":1948:1957   */\n      dup3\n        /* \"#utility.yul\":1944:1962   */\n      add\n        /* \"#utility.yul\":1936:1962   */\n      swap1\n      pop\n        /* \"#utility.yul\":1972:2057   */\n      tag_434\n        /* \"#utility.yul\":2054:2055   */\n      0x00\n        /* \"#utility.yul\":2043:2052   */\n      dup4\n        /* \"#utility.yul\":2039:2056   */\n      add\n        /* \"#utility.yul\":2030:2036   */\n      dup5\n        /* \"#utility.yul\":1972:2057   */\n      tag_349\n      jump\t// in\n    tag_434:\n        /* \"#utility.yul\":1814:2064   */\n      swap3\n      swap2\n      pop\n      pop\n      jump\t// out\n        /* \"#utility.yul\":2070:2166   */\n    tag_350:\n        /* \"#utility.yul\":2107:2114   */\n      0x00\n        /* \"#utility.yul\":2136:2160   */\n      tag_436\n        /* \"#utility.yul\":2154:2159   */\n      dup3\n        /* \"#utility.yul\":2136:2160   */\n      tag_344\n      jump\t// in\n    tag_436:\n        /* \"#utility.yul\":2125:2160   */\n      swap1\n      pop\n        /* \"#utility.yul\":2070:2166   */\n      swap2\n      swap1\n      pop\n      jump\t// out\n        /* \"#utility.yul\":2172:2282   */\n    tag_351:\n        /* \"#utility.yul\":2223:2230   */\n      0x00\n        /* \"#utility.yul\":2252:2276   */\n      tag_438\n        /* \"#utility.yul\":2270:2275   */\n      dup3\n        /* \"#utility.yul\":2252:2276   */\n      tag_350\n      jump\t// in\n    tag_438:\n        /* \"#utility.yul\":2241:2276   */\n      swap1\n      pop\n        /* \"#utility.yul\":2172:2282   */\n      swap2\n      swap1\n      pop\n      jump\t// out\n        /* \"#utility.yul\":2288:2438   */\n    tag_352:\n        /* \"#utility.yul\":2375:2413   */\n      tag_440\n        /* \"#utility.yul\":2407:2412   */\n      dup2\n        /* \"#utility.yul\":2375:2413   */\n      tag_351\n      jump\t// in\n    tag_440:\n        /* \"#utility.yul\":2368:2373   */\n      dup2\n        /* \"#utility.yul\":2365:2414   */\n      eq\n        /* \"#utility.yul\":2355:2432   */\n      tag_441\n      jumpi\n        /* \"#utility.yul\":2428:2429   */\n      0x00\n        /* \"#utility.yul\":2425:2426   */\n      dup1\n        /* \"#utility.yul\":2418:2430   */\n      revert\n        /* \"#utility.yul\":2355:2432   */\n    tag_441:\n        /* \"#utility.yul\":2288:2438   */\n      pop\n      jump\t// out\n        /* \"#utility.yul\":2444:2611   */\n    tag_353:\n        /* \"#utility.yul\":2504:2509   */\n      0x00\n        /* \"#utility.yul\":2542:2548   */\n      dup2\n        /* \"#utility.yul\":2529:2549   */\n      calldataload\n        /* \"#utility.yul\":2520:2549   */\n      swap1\n      pop\n        /* \"#utility.yul\":2558:2605   */\n      tag_443\n        /* \"#utility.yul\":2599:2604   */\n      dup2\n        /* \"#utility.yul\":2558:2605   */\n      tag_352\n      jump\t// in\n    tag_443:\n        /* \"#utility.yul\":2444:2611   */\n      swap3\n      swap2\n      pop\n      pop\n      jump\t// out\n        /* \"#utility.yul\":2617:3119   */\n    tag_47:\n        /* \"#utility.yul\":2699:2705   */\n      0x00\n        /* \"#utility.yul\":2707:2713   */\n      dup1\n        /* \"#utility.yul\":2756:2758   */\n      0x40\n        /* \"#utility.yul\":2744:2753   */\n      dup4\n        /* \"#utility.yul\":2735:2742   */\n      dup6\n        /* \"#utility.yul\":2731:2754   */\n      sub\n        /* \"#utility.yul\":2727:2759   */\n      slt\n        /* \"#utility.yul\":2724:2843   */\n      iszero\n      tag_445\n      jumpi\n        /* \"#utility.yul\":2762:2841   */\n      tag_446\n      tag_339\n      jump\t// in\n    tag_446:\n        /* \"#utility.yul\":2724:2843   */\n    tag_445:\n        /* \"#utility.yul\":2882:2883   */\n      0x00\n        /* \"#utility.yul\":2907:2974   */\n      tag_447\n        /* \"#utility.yul\":2966:2973   */\n      dup6\n        /* \"#utility.yul\":2957:2963   */\n      dup3\n        /* \"#utility.yul\":2946:2955   */\n      dup7\n        /* \"#utility.yul\":2942:2964   */\n      add\n        /* \"#utility.yul\":2907:2974   */\n      tag_353\n      jump\t// in\n    tag_447:\n        /* \"#utility.yul\":2897:2974   */\n      swap3\n      pop\n        /* \"#utility.yul\":2853:2984   */\n      pop\n        /* \"#utility.yul\":3023:3025   */\n      0x20\n        /* \"#utility.yul\":3049:3102   */\n      tag_448\n        /* \"#utility.yul\":3094:3101   */\n      dup6\n        /* \"#utility.yul\":3085:3091   */\n      dup3\n        /* \"#utility.yul\":3074:3083   */\n      dup7\n        /* \"#utility.yul\":3070:3092   */\n      add\n        /* \"#utility.yul\":3049:3102   */\n      tag_343\n      jump\t// in\n    tag_448:\n        /* \"#utility.yul\":3039:3102   */\n      swap2\n      pop\n        /* \"#utility.yul\":2994:3112   */\n      pop\n        /* \"#utility.yul\":2617:3119   */\n      swap3\n      pop\n      swap3\n      swap1\n      pop\n      jump\t// out\n        /* \"#utility.yul\":3125:3482   */\n    tag_51:\n        /* \"#utility.yul\":3198:3204   */\n      0x00\n        /* \"#utility.yul\":3247:3249   */\n      0x20\n        /* \"#utility.yul\":3235:3244   */\n      dup3\n        /* \"#utility.yul\":3226:3233   */\n      dup5\n        /* \"#utility.yul\":3222:3245   */\n      sub\n        /* \"#utility.yul\":3218:3250   */\n      slt\n        /* \"#utility.yul\":3215:3334   */\n      iszero\n      tag_450\n      jumpi\n        /* \"#utility.yul\":3253:3332   */\n      tag_451\n      tag_339\n      jump\t// in\n    tag_451:\n        /* \"#utility.yul\":3215:3334   */\n    tag_450:\n        /* \"#utility.yul\":3373:3374   */\n      0x00\n        /* \"#utility.yul\":3398:3465   */\n      tag_452\n        /* \"#utility.yul\":3457:3464   */\n      dup5\n        /* \"#utility.yul\":3448:3454   */\n      dup3\n        /* \"#utility.yul\":3437:3446   */\n      dup6\n        /* \"#utility.yul\":3433:3455   */\n      add\n        /* \"#utility.yul\":3398:3465   */\n      tag_353\n      jump\t// in\n    tag_452:\n        /* \"#utility.yul\":3388:3465   */\n      swap2\n      pop\n        /* \"#utility.yul\":3344:3475   */\n      pop\n        /* \"#utility.yul\":3125:3482   */\n      swap3\n      swap2\n      pop\n      pop\n      jump\t// out\n        /* \"#utility.yul\":3488:3610   */\n    tag_354:\n        /* \"#utility.yul\":3561:3585   */\n      tag_454\n        /* \"#utility.yul\":3579:3584   */\n      dup2\n        /* \"#utility.yul\":3561:3585   */\n      tag_350\n      jump\t// in\n    tag_454:\n        /* \"#utility.yul\":3554:3559   */\n      dup2\n        /* \"#utility.yul\":3551:3586   */\n      eq\n        /* \"#utility.yul\":3541:3604   */\n      tag_455\n      jumpi\n        /* \"#utility.yul\":3600:3601   */\n      0x00\n        /* \"#utility.yul\":3597:3598   */\n      dup1\n        /* \"#utility.yul\":3590:3602   */\n      revert\n        /* \"#utility.yul\":3541:3604   */\n    tag_455:\n        /* \"#utility.yul\":3488:3610   */\n      pop\n      jump\t// out\n        /* \"#utility.yul\":3616:3755   */\n    tag_355:\n        /* \"#utility.yul\":3662:3667   */\n      0x00\n        /* \"#utility.yul\":3700:3706   */\n      dup2\n        /* \"#utility.yul\":3687:3707   */\n      calldataload\n        /* \"#utility.yul\":3678:3707   */\n      swap1\n      pop\n        /* \"#utility.yul\":3716:3749   */\n      tag_457\n        /* \"#utility.yul\":3743:3748   */\n      dup2\n        /* \"#utility.yul\":3716:3749   */\n      tag_354\n      jump\t// in\n    tag_457:\n        /* \"#utility.yul\":3616:3755   */\n      swap3\n      swap2\n      pop\n      pop\n      jump\t// out\n        /* \"#utility.yul\":3761:4235   */\n    tag_55:\n        /* \"#utility.yul\":3829:3835   */\n      0x00\n        /* \"#utility.yul\":3837:3843   */\n      dup1\n        /* \"#utility.yul\":3886:3888   */\n      0x40\n        /* \"#utility.yul\":3874:3883   */\n      dup4\n        /* \"#utility.yul\":3865:3872   */\n      dup6\n        /* \"#utility.yul\":3861:3884   */\n      sub\n        /* \"#utility.yul\":3857:3889   */\n      slt\n        /* \"#utility.yul\":3854:3973   */\n      iszero\n      tag_459\n      jumpi\n        /* \"#utility.yul\":3892:3971   */\n      tag_460\n      tag_339\n      jump\t// in\n    tag_460:\n        /* \"#utility.yul\":3854:3973   */\n    tag_459:\n        /* \"#utility.yul\":4012:4013   */\n      0x00\n        /* \"#utility.yul\":4037:4090   */\n      tag_461\n        /* \"#utility.yul\":4082:4089   */\n      dup6\n        /* \"#utility.yul\":4073:4079   */\n      dup3\n        /* \"#utility.yul\":4062:4071   */\n      dup7\n        /* \"#utility.yul\":4058:4080   */\n      add\n        /* \"#utility.yul\":4037:4090   */\n      tag_355\n      jump\t// in\n    tag_461:\n        /* \"#utility.yul\":4027:4090   */\n      swap3\n      pop\n        /* \"#utility.yul\":3983:4100   */\n      pop\n        /* \"#utility.yul\":4139:4141   */\n      0x20\n        /* \"#utility.yul\":4165:4218   */\n      tag_462\n        /* \"#utility.yul\":4210:4217   */\n      dup6\n        /* \"#utility.yul\":4201:4207   */\n      dup3\n        /* \"#utility.yul\":4190:4199   */\n      dup7\n        /* \"#utility.yul\":4186:4208   */\n      add\n        /* \"#utility.yul\":4165:4218   */\n      tag_343\n      jump\t// in\n    tag_462:\n        /* \"#utility.yul\":4155:4218   */\n      swap2\n      pop\n        /* \"#utility.yul\":4110:4228   */\n      pop\n        /* \"#utility.yul\":3761:4235   */\n      swap3\n      pop\n      swap3\n      swap1\n      pop\n      jump\t// out\n        /* \"#utility.yul\":4241:4860   */\n    tag_59:\n        /* \"#utility.yul\":4318:4324   */\n      0x00\n        /* \"#utility.yul\":4326:4332   */\n      dup1\n        /* \"#utility.yul\":4334:4340   */\n      0x00\n        /* \"#utility.yul\":4383:4385   */\n      0x60\n        /* \"#utility.yul\":4371:4380   */\n      dup5\n        /* \"#utility.yul\":4362:4369   */\n      dup7\n        /* \"#utility.yul\":4358:4381   */\n      sub\n        /* \"#utility.yul\":4354:4386   */\n      slt\n        /* \"#utility.yul\":4351:4470   */\n      iszero\n      tag_464\n      jumpi\n        /* \"#utility.yul\":4389:4468   */\n      tag_465\n      tag_339\n      jump\t// in\n    tag_465:\n        /* \"#utility.yul\":4351:4470   */\n    tag_464:\n        /* \"#utility.yul\":4509:4510   */\n      0x00\n        /* \"#utility.yul\":4534:4587   */\n      tag_466\n        /* \"#utility.yul\":4579:4586   */\n      dup7\n        /* \"#utility.yul\":4570:4576   */\n      dup3\n        /* \"#utility.yul\":4559:4568   */\n      dup8\n        /* \"#utility.yul\":4555:4577   */\n      add\n        /* \"#utility.yul\":4534:4587   */\n      tag_343\n      jump\t// in\n    tag_466:\n        /* \"#utility.yul\":4524:4587   */\n      swap4\n      pop\n        /* \"#utility.yul\":4480:4597   */\n      pop\n        /* \"#utility.yul\":4636:4638   */\n      0x20\n        /* \"#utility.yul\":4662:4715   */\n      tag_467\n        /* \"#utility.yul\":4707:4714   */\n      dup7\n        /* \"#utility.yul\":4698:4704   */\n      dup3\n        /* \"#utility.yul\":4687:4696   */\n      dup8\n        /* \"#utility.yul\":4683:4705   */\n      add\n        /* \"#utility.yul\":4662:4715   */\n      tag_343\n      jump\t// in\n    tag_467:\n        /* \"#utility.yul\":4652:4715   */\n      swap3\n      pop\n        /* \"#utility.yul\":4607:4725   */\n      pop\n        /* \"#utility.yul\":4764:4766   */\n      0x40\n        /* \"#utility.yul\":4790:4843   */\n      tag_468\n        /* \"#utility.yul\":4835:4842   */\n      dup7\n        /* \"#utility.yul\":4826:4832   */\n      dup3\n        /* \"#utility.yul\":4815:4824   */\n      dup8\n        /* \"#utility.yul\":4811:4833   */\n      add\n        /* \"#utility.yul\":4790:4843   */\n      tag_343\n      jump\t// in\n    tag_468:\n        /* \"#utility.yul\":4780:4843   */\n      swap2\n      pop\n        /* \"#utility.yul\":4735:4853   */\n      pop\n        /* \"#utility.yul\":4241:4860   */\n      swap3\n      pop\n      swap3\n      pop\n      swap3\n      jump\t// out\n        /* \"#utility.yul\":4866:4984   */\n    tag_356:\n        /* \"#utility.yul\":4953:4977   */\n      tag_470\n        /* \"#utility.yul\":4971:4976   */\n      dup2\n        /* \"#utility.yul\":4953:4977   */\n      tag_350\n      jump\t// in\n    tag_470:\n        /* \"#utility.yul\":4948:4951   */\n      dup3\n        /* \"#utility.yul\":4941:4978   */\n      mstore\n        /* \"#utility.yul\":4866:4984   */\n      pop\n      pop\n      jump\t// out\n        /* \"#utility.yul\":4990:5212   */\n    tag_64:\n        /* \"#utility.yul\":5083:5087   */\n      0x00\n        /* \"#utility.yul\":5121:5123   */\n      0x20\n        /* \"#utility.yul\":5110:5119   */\n      dup3\n        /* \"#utility.yul\":5106:5124   */\n      add\n        /* \"#utility.yul\":5098:5124   */\n      swap1\n      pop\n        /* \"#utility.yul\":5134:5205   */\n      tag_472\n        /* \"#utility.yul\":5202:5203   */\n      0x00\n        /* \"#utility.yul\":5191:5200   */\n      dup4\n        /* \"#utility.yul\":5187:5204   */\n      add\n        /* \"#utility.yul\":5178:5184   */\n      dup5\n        /* \"#utility.yul\":5134:5205   */\n      tag_356\n      jump\t// in\n    tag_472:\n        /* \"#utility.yul\":4990:5212   */\n      swap3\n      swap2\n      pop\n      pop\n      jump\t// out\n        /* \"#utility.yul\":5218:5336   */\n    tag_357:\n        /* \"#utility.yul\":5305:5329   */\n      tag_474\n        /* \"#utility.yul\":5323:5328   */\n      dup2\n        /* \"#utility.yul\":5305:5329   */\n      tag_341\n      jump\t// in\n    tag_474:\n        /* \"#utility.yul\":5300:5303   */\n      dup3\n        /* \"#utility.yul\":5293:5330   */\n      mstore\n        /* \"#utility.yul\":5218:5336   */\n      pop\n      pop\n      jump\t// out\n        /* \"#utility.yul\":5342:5564   */\n    tag_68:\n        /* \"#utility.yul\":5435:5439   */\n      0x00\n        /* \"#utility.yul\":5473:5475   */\n      0x20\n        /* \"#utility.yul\":5462:5471   */\n      dup3\n        /* \"#utility.yul\":5458:5476   */\n      add\n        /* \"#utility.yul\":5450:5476   */\n      swap1\n      pop\n        /* \"#utility.yul\":5486:5557   */\n      tag_476\n        /* \"#utility.yul\":5554:5555   */\n      0x00\n        /* \"#utility.yul\":5543:5552   */\n      dup4\n        /* \"#utility.yul\":5539:5556   */\n      add\n        /* \"#utility.yul\":5530:5536   */\n      dup5\n        /* \"#utility.yul\":5486:5557   */\n      tag_357\n      jump\t// in\n    tag_476:\n        /* \"#utility.yul\":5342:5564   */\n      swap3\n      swap2\n      pop\n      pop\n      jump\t// out\n        /* \"#utility.yul\":5570:5660   */\n    tag_358:\n        /* \"#utility.yul\":5604:5611   */\n      0x00\n        /* \"#utility.yul\":5647:5652   */\n      dup2\n        /* \"#utility.yul\":5640:5653   */\n      iszero\n        /* \"#utility.yul\":5633:5654   */\n      iszero\n        /* \"#utility.yul\":5622:5654   */\n      swap1\n      pop\n        /* \"#utility.yul\":5570:5660   */\n      swap2\n      swap1\n      pop\n      jump\t// out\n        /* \"#utility.yul\":5666:5782   */\n    tag_359:\n        /* \"#utility.yul\":5736:5757   */\n      tag_479\n        /* \"#utility.yul\":5751:5756   */\n      dup2\n        /* \"#utility.yul\":5736:5757   */\n      tag_358\n      jump\t// in\n    tag_479:\n        /* \"#utility.yul\":5729:5734   */\n      dup2\n        /* \"#utility.yul\":5726:5758   */\n      eq\n        /* \"#utility.yul\":5716:5776   */\n      tag_480\n      jumpi\n        /* \"#utility.yul\":5772:5773   */\n      0x00\n        /* \"#utility.yul\":5769:5770   */\n      dup1\n        /* \"#utility.yul\":5762:5774   */\n      revert\n        /* \"#utility.yul\":5716:5776   */\n    tag_480:\n        /* \"#utility.yul\":5666:5782   */\n      pop\n      jump\t// out\n        /* \"#utility.yul\":5788:5921   */\n    tag_360:\n        /* \"#utility.yul\":5831:5836   */\n      0x00\n        /* \"#utility.yul\":5869:5875   */\n      dup2\n        /* \"#utility.yul\":5856:5876   */\n      calldataload\n        /* \"#utility.yul\":5847:5876   */\n      swap1\n      pop\n        /* \"#utility.yul\":5885:5915   */\n      tag_482\n        /* \"#utility.yul\":5909:5914   */\n      dup2\n        /* \"#utility.yul\":5885:5915   */\n      tag_359\n      jump\t// in\n    tag_482:\n        /* \"#utility.yul\":5788:5921   */\n      swap3\n      swap2\n      pop\n      pop\n      jump\t// out\n        /* \"#utility.yul\":5927:6250   */\n    tag_71:\n        /* \"#utility.yul\":5983:5989   */\n      0x00\n        /* \"#utility.yul\":6032:6034   */\n      0x20\n        /* \"#utility.yul\":6020:6029   */\n      dup3\n        /* \"#utility.yul\":6011:6018   */\n      dup5\n        /* \"#utility.yul\":6007:6030   */\n      sub\n        /* \"#utility.yul\":6003:6035   */\n      slt\n        /* \"#utility.yul\":6000:6119   */\n      iszero\n      tag_484\n      jumpi\n        /* \"#utility.yul\":6038:6117   */\n      tag_485\n      tag_339\n      jump\t// in\n    tag_485:\n        /* \"#utility.yul\":6000:6119   */\n    tag_484:\n        /* \"#utility.yul\":6158:6159   */\n      0x00\n        /* \"#utility.yul\":6183:6233   */\n      tag_486\n        /* \"#utility.yul\":6225:6232   */\n      dup5\n        /* \"#utility.yul\":6216:6222   */\n      dup3\n        /* \"#utility.yul\":6205:6214   */\n      dup6\n        /* \"#utility.yul\":6201:6223   */\n      add\n        /* \"#utility.yul\":6183:6233   */\n      tag_360\n      jump\t// in\n    tag_486:\n        /* \"#utility.yul\":6173:6233   */\n      swap2\n      pop\n        /* \"#utility.yul\":6129:6243   */\n      pop\n        /* \"#utility.yul\":5927:6250   */\n      swap3\n      swap2\n      pop\n      pop\n      jump\t// out\n        /* \"#utility.yul\":6256:6809   */\n    tag_77:\n        /* \"#utility.yul\":6433:6437   */\n      0x00\n        /* \"#utility.yul\":6471:6474   */\n      0x80\n        /* \"#utility.yul\":6460:6469   */\n      dup3\n        /* \"#utility.yul\":6456:6475   */\n      add\n        /* \"#utility.yul\":6448:6475   */\n      swap1\n      pop\n        /* \"#utility.yul\":6485:6556   */\n      tag_488\n        /* \"#utility.yul\":6553:6554   */\n      0x00\n        /* \"#utility.yul\":6542:6551   */\n      dup4\n        /* \"#utility.yul\":6538:6555   */\n      add\n        /* \"#utility.yul\":6529:6535   */\n      dup8\n        /* \"#utility.yul\":6485:6556   */\n      tag_357\n      jump\t// in\n    tag_488:\n        /* \"#utility.yul\":6566:6638   */\n      tag_489\n        /* \"#utility.yul\":6634:6636   */\n      0x20\n        /* \"#utility.yul\":6623:6632   */\n      dup4\n        /* \"#utility.yul\":6619:6637   */\n      add\n        /* \"#utility.yul\":6610:6616   */\n      dup7\n        /* \"#utility.yul\":6566:6638   */\n      tag_357\n      jump\t// in\n    tag_489:\n        /* \"#utility.yul\":6648:6720   */\n      tag_490\n        /* \"#utility.yul\":6716:6718   */\n      0x40\n        /* \"#utility.yul\":6705:6714   */\n      dup4\n        /* \"#utility.yul\":6701:6719   */\n      add\n        /* \"#utility.yul\":6692:6698   */\n      dup6\n        /* \"#utility.yul\":6648:6720   */\n      tag_357\n      jump\t// in\n    tag_490:\n        /* \"#utility.yul\":6730:6802   */\n      tag_491\n        /* \"#utility.yul\":6798:6800   */\n      0x60\n        /* \"#utility.yul\":6787:6796   */\n      dup4\n        /* \"#utility.yul\":6783:6801   */\n      add\n        /* \"#utility.yul\":6774:6780   */\n      dup5\n        /* \"#utility.yul\":6730:6802   */\n      tag_357\n      jump\t// in\n    tag_491:\n        /* \"#utility.yul\":6256:6809   */\n      swap6\n      swap5\n      pop\n      pop\n      pop\n      pop\n      pop\n      jump\t// out\n        /* \"#utility.yul\":6815:7289   */\n    tag_83:\n        /* \"#utility.yul\":6883:6889   */\n      0x00\n        /* \"#utility.yul\":6891:6897   */\n      dup1\n        /* \"#utility.yul\":6940:6942   */\n      0x40\n        /* \"#utility.yul\":6928:6937   */\n      dup4\n        /* \"#utility.yul\":6919:6926   */\n      dup6\n        /* \"#utility.yul\":6915:6938   */\n      sub\n        /* \"#utility.yul\":6911:6943   */\n      slt\n        /* \"#utility.yul\":6908:7027   */\n      iszero\n      tag_493\n      jumpi\n        /* \"#utility.yul\":6946:7025   */\n      tag_494\n      tag_339\n      jump\t// in\n    tag_494:\n        /* \"#utility.yul\":6908:7027   */\n    tag_493:\n        /* \"#utility.yul\":7066:7067   */\n      0x00\n        /* \"#utility.yul\":7091:7144   */\n      tag_495\n        /* \"#utility.yul\":7136:7143   */\n      dup6\n        /* \"#utility.yul\":7127:7133   */\n      dup3\n        /* \"#utility.yul\":7116:7125   */\n      dup7\n        /* \"#utility.yul\":7112:7134   */\n      add\n        /* \"#utility.yul\":7091:7144   */\n      tag_343\n      jump\t// in\n    tag_495:\n        /* \"#utility.yul\":7081:7144   */\n      swap3\n      pop\n        /* \"#utility.yul\":7037:7154   */\n      pop\n        /* \"#utility.yul\":7193:7195   */\n      0x20\n        /* \"#utility.yul\":7219:7272   */\n      tag_496\n        /* \"#utility.yul\":7264:7271   */\n      dup6\n        /* \"#utility.yul\":7255:7261   */\n      dup3\n        /* \"#utility.yul\":7244:7253   */\n      dup7\n        /* \"#utility.yul\":7240:7262   */\n      add\n        /* \"#utility.yul\":7219:7272   */\n      tag_343\n      jump\t// in\n    tag_496:\n        /* \"#utility.yul\":7209:7272   */\n      swap2\n      pop\n        /* \"#utility.yul\":7164:7282   */\n      pop\n        /* \"#utility.yul\":6815:7289   */\n      swap3\n      pop\n      swap3\n      swap1\n      pop\n      jump\t// out\n        /* \"#utility.yul\":7295:7624   */\n    tag_88:\n        /* \"#utility.yul\":7354:7360   */\n      0x00\n        /* \"#utility.yul\":7403:7405   */\n      0x20\n        /* \"#utility.yul\":7391:7400   */\n      dup3\n        /* \"#utility.yul\":7382:7389   */\n      dup5\n        /* \"#utility.yul\":7378:7401   */\n      sub\n        /* \"#utility.yul\":7374:7406   */\n      slt\n        /* \"#utility.yul\":7371:7490   */\n      iszero\n      tag_498\n      jumpi\n        /* \"#utility.yul\":7409:7488   */\n      tag_499\n      tag_339\n      jump\t// in\n    tag_499:\n        /* \"#utility.yul\":7371:7490   */\n    tag_498:\n        /* \"#utility.yul\":7529:7530   */\n      0x00\n        /* \"#utility.yul\":7554:7607   */\n      tag_500\n        /* \"#utility.yul\":7599:7606   */\n      dup5\n        /* \"#utility.yul\":7590:7596   */\n      dup3\n        /* \"#utility.yul\":7579:7588   */\n      dup6\n        /* \"#utility.yul\":7575:7597   */\n      add\n        /* \"#utility.yul\":7554:7607   */\n      tag_355\n      jump\t// in\n    tag_500:\n        /* \"#utility.yul\":7544:7607   */\n      swap2\n      pop\n        /* \"#utility.yul\":7500:7617   */\n      pop\n        /* \"#utility.yul\":7295:7624   */\n      swap3\n      swap2\n      pop\n      pop\n      jump\t// out\n        /* \"#utility.yul\":7630:7962   */\n    tag_91:\n        /* \"#utility.yul\":7751:7755   */\n      0x00\n        /* \"#utility.yul\":7789:7791   */\n      0x40\n        /* \"#utility.yul\":7778:7787   */\n      dup3\n        /* \"#utility.yul\":7774:7792   */\n      add\n        /* \"#utility.yul\":7766:7792   */\n      swap1\n      pop\n        /* \"#utility.yul\":7802:7873   */\n      tag_502\n        /* \"#utility.yul\":7870:7871   */\n      0x00\n        /* \"#utility.yul\":7859:7868   */\n      dup4\n        /* \"#utility.yul\":7855:7872   */\n      add\n        /* \"#utility.yul\":7846:7852   */\n      dup6\n        /* \"#utility.yul\":7802:7873   */\n      tag_357\n      jump\t// in\n    tag_502:\n        /* \"#utility.yul\":7883:7955   */\n      tag_503\n        /* \"#utility.yul\":7951:7953   */\n      0x20\n        /* \"#utility.yul\":7940:7949   */\n      dup4\n        /* \"#utility.yul\":7936:7954   */\n      add\n        /* \"#utility.yul\":7927:7933   */\n      dup5\n        /* \"#utility.yul\":7883:7955   */\n      tag_357\n      jump\t// in\n    tag_503:\n        /* \"#utility.yul\":7630:7962   */\n      swap4\n      swap3\n      pop\n      pop\n      pop\n      jump\t// out\n        /* \"#utility.yul\":7968:8077   */\n    tag_361:\n        /* \"#utility.yul\":8049:8070   */\n      tag_505\n        /* \"#utility.yul\":8064:8069   */\n      dup2\n        /* \"#utility.yul\":8049:8070   */\n      tag_358\n      jump\t// in\n    tag_505:\n        /* \"#utility.yul\":8044:8047   */\n      dup3\n        /* \"#utility.yul\":8037:8071   */\n      mstore\n        /* \"#utility.yul\":7968:8077   */\n      pop\n      pop\n      jump\t// out\n        /* \"#utility.yul\":8083:8293   */\n    tag_122:\n        /* \"#utility.yul\":8170:8174   */\n      0x00\n        /* \"#utility.yul\":8208:8210   */\n      0x20\n        /* \"#utility.yul\":8197:8206   */\n      dup3\n        /* \"#utility.yul\":8193:8211   */\n      add\n        /* \"#utility.yul\":8185:8211   */\n      swap1\n      pop\n        /* \"#utility.yul\":8221:8286   */\n      tag_507\n        /* \"#utility.yul\":8283:8284   */\n      0x00\n        /* \"#utility.yul\":8272:8281   */\n      dup4\n        /* \"#utility.yul\":8268:8285   */\n      add\n        /* \"#utility.yul\":8259:8265   */\n      dup5\n        /* \"#utility.yul\":8221:8286   */\n      tag_361\n      jump\t// in\n    tag_507:\n        /* \"#utility.yul\":8083:8293   */\n      swap3\n      swap2\n      pop\n      pop\n      jump\t// out\n        /* \"#utility.yul\":8299:8440   */\n    tag_362:\n        /* \"#utility.yul\":8364:8373   */\n      0x00\n        /* \"#utility.yul\":8397:8434   */\n      tag_509\n        /* \"#utility.yul\":8428:8433   */\n      dup3\n        /* \"#utility.yul\":8397:8434   */\n      tag_347\n      jump\t// in\n    tag_509:\n        /* \"#utility.yul\":8384:8434   */\n      swap1\n      pop\n        /* \"#utility.yul\":8299:8440   */\n      swap2\n      swap1\n      pop\n      jump\t// out\n        /* \"#utility.yul\":8446:8607   */\n    tag_363:\n        /* \"#utility.yul\":8548:8600   */\n      tag_511\n        /* \"#utility.yul\":8594:8599   */\n      dup2\n        /* \"#utility.yul\":8548:8600   */\n      tag_362\n      jump\t// in\n    tag_511:\n        /* \"#utility.yul\":8543:8546   */\n      dup3\n        /* \"#utility.yul\":8536:8601   */\n      mstore\n        /* \"#utility.yul\":8446:8607   */\n      pop\n      pop\n      jump\t// out\n        /* \"#utility.yul\":8613:8865   */\n    tag_135:\n        /* \"#utility.yul\":8721:8725   */\n      0x00\n        /* \"#utility.yul\":8759:8761   */\n      0x20\n        /* \"#utility.yul\":8748:8757   */\n      dup3\n        /* \"#utility.yul\":8744:8762   */\n      add\n        /* \"#utility.yul\":8736:8762   */\n      swap1\n      pop\n        /* \"#utility.yul\":8772:8858   */\n      tag_513\n        /* \"#utility.yul\":8855:8856   */\n      0x00\n        /* \"#utility.yul\":8844:8853   */\n      dup4\n        /* \"#utility.yul\":8840:8857   */\n      add\n        /* \"#utility.yul\":8831:8837   */\n      dup5\n        /* \"#utility.yul\":8772:8858   */\n      tag_363\n      jump\t// in\n    tag_513:\n        /* \"#utility.yul\":8613:8865   */\n      swap3\n      swap2\n      pop\n      pop\n      jump\t// out\n        /* \"#utility.yul\":8871:9313   */\n    tag_145:\n        /* \"#utility.yul\":9020:9024   */\n      0x00\n        /* \"#utility.yul\":9058:9060   */\n      0x60\n        /* \"#utility.yul\":9047:9056   */\n      dup3\n        /* \"#utility.yul\":9043:9061   */\n      add\n        /* \"#utility.yul\":9035:9061   */\n      swap1\n      pop\n        /* \"#utility.yul\":9071:9142   */\n      tag_515\n        /* \"#utility.yul\":9139:9140   */\n      0x00\n        /* \"#utility.yul\":9128:9137   */\n      dup4\n        /* \"#utility.yul\":9124:9141   */\n      add\n        /* \"#utility.yul\":9115:9121   */\n      dup7\n        /* \"#utility.yul\":9071:9142   */\n      tag_357\n      jump\t// in\n    tag_515:\n        /* \"#utility.yul\":9152:9224   */\n      tag_516\n        /* \"#utility.yul\":9220:9222   */\n      0x20\n        /* \"#utility.yul\":9209:9218   */\n      dup4\n        /* \"#utility.yul\":9205:9223   */\n      add\n        /* \"#utility.yul\":9196:9202   */\n      dup6\n        /* \"#utility.yul\":9152:9224   */\n      tag_357\n      jump\t// in\n    tag_516:\n        /* \"#utility.yul\":9234:9306   */\n      tag_517\n        /* \"#utility.yul\":9302:9304   */\n      0x40\n        /* \"#utility.yul\":9291:9300   */\n      dup4\n        /* \"#utility.yul\":9287:9305   */\n      add\n        /* \"#utility.yul\":9278:9284   */\n      dup5\n        /* \"#utility.yul\":9234:9306   */\n      tag_357\n      jump\t// in\n    tag_517:\n        /* \"#utility.yul\":8871:9313   */\n      swap5\n      swap4\n      pop\n      pop\n      pop\n      pop\n      jump\t// out\n        /* \"#utility.yul\":9319:9488   */\n    tag_364:\n        /* \"#utility.yul\":9403:9414   */\n      0x00\n        /* \"#utility.yul\":9437:9443   */\n      dup3\n        /* \"#utility.yul\":9432:9435   */\n      dup3\n        /* \"#utility.yul\":9425:9444   */\n      mstore\n        /* \"#utility.yul\":9477:9481   */\n      0x20\n        /* \"#utility.yul\":9472:9475   */\n      dup3\n        /* \"#utility.yul\":9468:9482   */\n      add\n        /* \"#utility.yul\":9453:9482   */\n      swap1\n      pop\n        /* \"#utility.yul\":9319:9488   */\n      swap3\n      swap2\n      pop\n      pop\n      jump\t// out\n        /* \"#utility.yul\":9494:9661   */\n    tag_365:\n        /* \"#utility.yul\":9634:9653   */\n      0x41756374696f6e20697320706175736564000000000000000000000000000000\n        /* \"#utility.yul\":9630:9631   */\n      0x00\n        /* \"#utility.yul\":9622:9628   */\n      dup3\n        /* \"#utility.yul\":9618:9632   */\n      add\n        /* \"#utility.yul\":9611:9654   */\n      mstore\n        /* \"#utility.yul\":9494:9661   */\n      pop\n      jump\t// out\n        /* \"#utility.yul\":9667:10033   */\n    tag_366:\n        /* \"#utility.yul\":9809:9812   */\n      0x00\n        /* \"#utility.yul\":9830:9897   */\n      tag_521\n        /* \"#utility.yul\":9894:9896   */\n      0x11\n        /* \"#utility.yul\":9889:9892   */\n      dup4\n        /* \"#utility.yul\":9830:9897   */\n      tag_364\n      jump\t// in\n    tag_521:\n        /* \"#utility.yul\":9823:9897   */\n      swap2\n      pop\n        /* \"#utility.yul\":9906:9999   */\n      tag_522\n        /* \"#utility.yul\":9995:9998   */\n      dup3\n        /* \"#utility.yul\":9906:9999   */\n      tag_365\n      jump\t// in\n    tag_522:\n        /* \"#utility.yul\":10024:10026   */\n      0x20\n        /* \"#utility.yul\":10019:10022   */\n      dup3\n        /* \"#utility.yul\":10015:10027   */\n      add\n        /* \"#utility.yul\":10008:10027   */\n      swap1\n      pop\n        /* \"#utility.yul\":9667:10033   */\n      swap2\n      swap1\n      pop\n      jump\t// out\n        /* \"#utility.yul\":10039:10458   */\n    tag_151:\n        /* \"#utility.yul\":10205:10209   */\n      0x00\n        /* \"#utility.yul\":10243:10245   */\n      0x20\n        /* \"#utility.yul\":10232:10241   */\n      dup3\n        /* \"#utility.yul\":10228:10246   */\n      add\n        /* \"#utility.yul\":10220:10246   */\n      swap1\n      pop\n        /* \"#utility.yul\":10292:10301   */\n      dup2\n        /* \"#utility.yul\":10286:10290   */\n      dup2\n        /* \"#utility.yul\":10282:10302   */\n      sub\n        /* \"#utility.yul\":10278:10279   */\n      0x00\n        /* \"#utility.yul\":10267:10276   */\n      dup4\n        /* \"#utility.yul\":10263:10280   */\n      add\n        /* \"#utility.yul\":10256:10303   */\n      mstore\n        /* \"#utility.yul\":10320:10451   */\n      tag_524\n        /* \"#utility.yul\":10446:10450   */\n      dup2\n        /* \"#utility.yul\":10320:10451   */\n      tag_366\n      jump\t// in\n    tag_524:\n        /* \"#utility.yul\":10312:10451   */\n      swap1\n      pop\n        /* \"#utility.yul\":10039:10458   */\n      swap2\n      swap1\n      pop\n      jump\t// out\n        /* \"#utility.yul\":10464:10637   */\n    tag_367:\n        /* \"#utility.yul\":10604:10629   */\n      0x43757272656e7420726f756e642068617320656e646564000000000000000000\n        /* \"#utility.yul\":10600:10601   */\n      0x00\n        /* \"#utility.yul\":10592:10598   */\n      dup3\n        /* \"#utility.yul\":10588:10602   */\n      add\n        /* \"#utility.yul\":10581:10630   */\n      mstore\n        /* \"#utility.yul\":10464:10637   */\n      pop\n      jump\t// out\n        /* \"#utility.yul\":10643:11009   */\n    tag_368:\n        /* \"#utility.yul\":10785:10788   */\n      0x00\n        /* \"#utility.yul\":10806:10873   */\n      tag_527\n        /* \"#utility.yul\":10870:10872   */\n      0x17\n        /* \"#utility.yul\":10865:10868   */\n      dup4\n        /* \"#utility.yul\":10806:10873   */\n      tag_364\n      jump\t// in\n    tag_527:\n        /* \"#utility.yul\":10799:10873   */\n      swap2\n      pop\n        /* \"#utility.yul\":10882:10975   */\n      tag_528\n        /* \"#utility.yul\":10971:10974   */\n      dup3\n        /* \"#utility.yul\":10882:10975   */\n      tag_367\n      jump\t// in\n    tag_528:\n        /* \"#utility.yul\":11000:11002   */\n      0x20\n        /* \"#utility.yul\":10995:10998   */\n      dup3\n        /* \"#utility.yul\":10991:11003   */\n      add\n        /* \"#utility.yul\":10984:11003   */\n      swap1\n      pop\n        /* \"#utility.yul\":10643:11009   */\n      swap2\n      swap1\n      pop\n      jump\t// out\n        /* \"#utility.yul\":11015:11434   */\n    tag_154:\n        /* \"#utility.yul\":11181:11185   */\n      0x00\n        /* \"#utility.yul\":11219:11221   */\n      0x20\n        /* \"#utility.yul\":11208:11217   */\n      dup3\n        /* \"#utility.yul\":11204:11222   */\n      add\n        /* \"#utility.yul\":11196:11222   */\n      swap1\n      pop\n        /* \"#utility.yul\":11268:11277   */\n      dup2\n        /* \"#utility.yul\":11262:11266   */\n      dup2\n        /* \"#utility.yul\":11258:11278   */\n      sub\n        /* \"#utility.yul\":11254:11255   */\n      0x00\n        /* \"#utility.yul\":11243:11252   */\n      dup4\n        /* \"#utility.yul\":11239:11256   */\n      add\n        /* \"#utility.yul\":11232:11279   */\n      mstore\n        /* \"#utility.yul\":11296:11427   */\n      tag_530\n        /* \"#utility.yul\":11422:11426   */\n      dup2\n        /* \"#utility.yul\":11296:11427   */\n      tag_368\n      jump\t// in\n    tag_530:\n        /* \"#utility.yul\":11288:11427   */\n      swap1\n      pop\n        /* \"#utility.yul\":11015:11434   */\n      swap2\n      swap1\n      pop\n      jump\t// out\n        /* \"#utility.yul\":11440:11615   */\n    tag_369:\n        /* \"#utility.yul\":11580:11607   */\n      0x41756374696f6e20646179732061726520636f6d706c65746500000000000000\n        /* \"#utility.yul\":11576:11577   */\n      0x00\n        /* \"#utility.yul\":11568:11574   */\n      dup3\n        /* \"#utility.yul\":11564:11578   */\n      add\n        /* \"#utility.yul\":11557:11608   */\n      mstore\n        /* \"#utility.yul\":11440:11615   */\n      pop\n      jump\t// out\n        /* \"#utility.yul\":11621:11987   */\n    tag_370:\n        /* \"#utility.yul\":11763:11766   */\n      0x00\n        /* \"#utility.yul\":11784:11851   */\n      tag_533\n        /* \"#utility.yul\":11848:11850   */\n      0x19\n        /* \"#utility.yul\":11843:11846   */\n      dup4\n        /* \"#utility.yul\":11784:11851   */\n      tag_364\n      jump\t// in\n    tag_533:\n        /* \"#utility.yul\":11777:11851   */\n      swap2\n      pop\n        /* \"#utility.yul\":11860:11953   */\n      tag_534\n        /* \"#utility.yul\":11949:11952   */\n      dup3\n        /* \"#utility.yul\":11860:11953   */\n      tag_369\n      jump\t// in\n    tag_534:\n        /* \"#utility.yul\":11978:11980   */\n      0x20\n        /* \"#utility.yul\":11973:11976   */\n      dup3\n        /* \"#utility.yul\":11969:11981   */\n      add\n        /* \"#utility.yul\":11962:11981   */\n      swap1\n      pop\n        /* \"#utility.yul\":11621:11987   */\n      swap2\n      swap1\n      pop\n      jump\t// out\n        /* \"#utility.yul\":11993:12412   */\n    tag_159:\n        /* \"#utility.yul\":12159:12163   */\n      0x00\n        /* \"#utility.yul\":12197:12199   */\n      0x20\n        /* \"#utility.yul\":12186:12195   */\n      dup3\n        /* \"#utility.yul\":12182:12200   */\n      add\n        /* \"#utility.yul\":12174:12200   */\n      swap1\n      pop\n        /* \"#utility.yul\":12246:12255   */\n      dup2\n        /* \"#utility.yul\":12240:12244   */\n      dup2\n        /* \"#utility.yul\":12236:12256   */\n      sub\n        /* \"#utility.yul\":12232:12233   */\n      0x00\n        /* \"#utility.yul\":12221:12230   */\n      dup4\n        /* \"#utility.yul\":12217:12234   */\n      add\n        /* \"#utility.yul\":12210:12257   */\n      mstore\n        /* \"#utility.yul\":12274:12405   */\n      tag_536\n        /* \"#utility.yul\":12400:12404   */\n      dup2\n        /* \"#utility.yul\":12274:12405   */\n      tag_370\n      jump\t// in\n    tag_536:\n        /* \"#utility.yul\":12266:12405   */\n      swap1\n      pop\n        /* \"#utility.yul\":11993:12412   */\n      swap2\n      swap1\n      pop\n      jump\t// out\n        /* \"#utility.yul\":12418:12591   */\n    tag_371:\n        /* \"#utility.yul\":12558:12583   */\n      0x41756374696f6e20726f756e642068617320656e646564000000000000000000\n        /* \"#utility.yul\":12554:12555   */\n      0x00\n        /* \"#utility.yul\":12546:12552   */\n      dup3\n        /* \"#utility.yul\":12542:12556   */\n      add\n        /* \"#utility.yul\":12535:12584   */\n      mstore\n        /* \"#utility.yul\":12418:12591   */\n      pop\n      jump\t// out\n        /* \"#utility.yul\":12597:12963   */\n    tag_372:\n        /* \"#utility.yul\":12739:12742   */\n      0x00\n        /* \"#utility.yul\":12760:12827   */\n      tag_539\n        /* \"#utility.yul\":12824:12826   */\n      0x17\n        /* \"#utility.yul\":12819:12822   */\n      dup4\n        /* \"#utility.yul\":12760:12827   */\n      tag_364\n      jump\t// in\n    tag_539:\n        /* \"#utility.yul\":12753:12827   */\n      swap2\n      pop\n        /* \"#utility.yul\":12836:12929   */\n      tag_540\n        /* \"#utility.yul\":12925:12928   */\n      dup3\n        /* \"#utility.yul\":12836:12929   */\n      tag_371\n      jump\t// in\n    tag_540:\n        /* \"#utility.yul\":12954:12956   */\n      0x20\n        /* \"#utility.yul\":12949:12952   */\n      dup3\n        /* \"#utility.yul\":12945:12957   */\n      add\n        /* \"#utility.yul\":12938:12957   */\n      swap1\n      pop\n        /* \"#utility.yul\":12597:12963   */\n      swap2\n      swap1\n      pop\n      jump\t// out\n        /* \"#utility.yul\":12969:13388   */\n    tag_163:\n        /* \"#utility.yul\":13135:13139   */\n      0x00\n        /* \"#utility.yul\":13173:13175   */\n      0x20\n        /* \"#utility.yul\":13162:13171   */\n      dup3\n        /* \"#utility.yul\":13158:13176   */\n      add\n        /* \"#utility.yul\":13150:13176   */\n      swap1\n      pop\n        /* \"#utility.yul\":13222:13231   */\n      dup2\n        /* \"#utility.yul\":13216:13220   */\n      dup2\n        /* \"#utility.yul\":13212:13232   */\n      sub\n        /* \"#utility.yul\":13208:13209   */\n      0x00\n        /* \"#utility.yul\":13197:13206   */\n      dup4\n        /* \"#utility.yul\":13193:13210   */\n      add\n        /* \"#utility.yul\":13186:13233   */\n      mstore\n        /* \"#utility.yul\":13250:13381   */\n      tag_542\n        /* \"#utility.yul\":13376:13380   */\n      dup2\n        /* \"#utility.yul\":13250:13381   */\n      tag_372\n      jump\t// in\n    tag_542:\n        /* \"#utility.yul\":13242:13381   */\n      swap1\n      pop\n        /* \"#utility.yul\":12969:13388   */\n      swap2\n      swap1\n      pop\n      jump\t// out\n        /* \"#utility.yul\":13394:13537   */\n    tag_373:\n        /* \"#utility.yul\":13451:13456   */\n      0x00\n        /* \"#utility.yul\":13482:13488   */\n      dup2\n        /* \"#utility.yul\":13476:13489   */\n      mload\n        /* \"#utility.yul\":13467:13489   */\n      swap1\n      pop\n        /* \"#utility.yul\":13498:13531   */\n      tag_544\n        /* \"#utility.yul\":13525:13530   */\n      dup2\n        /* \"#utility.yul\":13498:13531   */\n      tag_342\n      jump\t// in\n    tag_544:\n        /* \"#utility.yul\":13394:13537   */\n      swap3\n      swap2\n      pop\n      pop\n      jump\t// out\n        /* \"#utility.yul\":13543:13894   */\n    tag_170:\n        /* \"#utility.yul\":13613:13619   */\n      0x00\n        /* \"#utility.yul\":13662:13664   */\n      0x20\n        /* \"#utility.yul\":13650:13659   */\n      dup3\n        /* \"#utility.yul\":13641:13648   */\n      dup5\n        /* \"#utility.yul\":13637:13660   */\n      sub\n        /* \"#utility.yul\":13633:13665   */\n      slt\n        /* \"#utility.yul\":13630:13749   */\n      iszero\n      tag_546\n      jumpi\n        /* \"#utility.yul\":13668:13747   */\n      tag_547\n      tag_339\n      jump\t// in\n    tag_547:\n        /* \"#utility.yul\":13630:13749   */\n    tag_546:\n        /* \"#utility.yul\":13788:13789   */\n      0x00\n        /* \"#utility.yul\":13813:13877   */\n      tag_548\n        /* \"#utility.yul\":13869:13876   */\n      dup5\n        /* \"#utility.yul\":13860:13866   */\n      dup3\n        /* \"#utility.yul\":13849:13858   */\n      dup6\n        /* \"#utility.yul\":13845:13867   */\n      add\n        /* \"#utility.yul\":13813:13877   */\n      tag_373\n      jump\t// in\n    tag_548:\n        /* \"#utility.yul\":13803:13877   */\n      swap2\n      pop\n        /* \"#utility.yul\":13759:13887   */\n      pop\n        /* \"#utility.yul\":13543:13894   */\n      swap3\n      swap2\n      pop\n      pop\n      jump\t// out\n        /* \"#utility.yul\":13900:14064   */\n    tag_374:\n        /* \"#utility.yul\":14040:14056   */\n      0x41756374696f6e20506175736564000000000000000000000000000000000000\n        /* \"#utility.yul\":14036:14037   */\n      0x00\n        /* \"#utility.yul\":14028:14034   */\n      dup3\n        /* \"#utility.yul\":14024:14038   */\n      add\n        /* \"#utility.yul\":14017:14057   */\n      mstore\n        /* \"#utility.yul\":13900:14064   */\n      pop\n      jump\t// out\n        /* \"#utility.yul\":14070:14436   */\n    tag_375:\n        /* \"#utility.yul\":14212:14215   */\n      0x00\n        /* \"#utility.yul\":14233:14300   */\n      tag_551\n        /* \"#utility.yul\":14297:14299   */\n      0x0e\n        /* \"#utility.yul\":14292:14295   */\n      dup4\n        /* \"#utility.yul\":14233:14300   */\n      tag_364\n      jump\t// in\n    tag_551:\n        /* \"#utility.yul\":14226:14300   */\n      swap2\n      pop\n        /* \"#utility.yul\":14309:14402   */\n      tag_552\n        /* \"#utility.yul\":14398:14401   */\n      dup3\n        /* \"#utility.yul\":14309:14402   */\n      tag_374\n      jump\t// in\n    tag_552:\n        /* \"#utility.yul\":14427:14429   */\n      0x20\n        /* \"#utility.yul\":14422:14425   */\n      dup3\n        /* \"#utility.yul\":14418:14430   */\n      add\n        /* \"#utility.yul\":14411:14430   */\n      swap1\n      pop\n        /* \"#utility.yul\":14070:14436   */\n      swap2\n      swap1\n      pop\n      jump\t// out\n        /* \"#utility.yul\":14442:14861   */\n    tag_173:\n        /* \"#utility.yul\":14608:14612   */\n      0x00\n        /* \"#utility.yul\":14646:14648   */\n      0x20\n        /* \"#utility.yul\":14635:14644   */\n      dup3\n        /* \"#utility.yul\":14631:14649   */\n      add\n        /* \"#utility.yul\":14623:14649   */\n      swap1\n      pop\n        /* \"#utility.yul\":14695:14704   */\n      dup2\n        /* \"#utility.yul\":14689:14693   */\n      dup2\n        /* \"#utility.yul\":14685:14705   */\n      sub\n        /* \"#utility.yul\":14681:14682   */\n      0x00\n        /* \"#utility.yul\":14670:14679   */\n      dup4\n        /* \"#utility.yul\":14666:14683   */\n      add\n        /* \"#utility.yul\":14659:14706   */\n      mstore\n        /* \"#utility.yul\":14723:14854   */\n      tag_554\n        /* \"#utility.yul\":14849:14853   */\n      dup2\n        /* \"#utility.yul\":14723:14854   */\n      tag_375\n      jump\t// in\n    tag_554:\n        /* \"#utility.yul\":14715:14854   */\n      swap1\n      pop\n        /* \"#utility.yul\":14442:14861   */\n      swap2\n      swap1\n      pop\n      jump\t// out\n        /* \"#utility.yul\":14867:15036   */\n    tag_376:\n        /* \"#utility.yul\":15007:15028   */\n      0x4e6f74206d6f7265207468616e206c696d697400000000000000000000000000\n        /* \"#utility.yul\":15003:15004   */\n      0x00\n        /* \"#utility.yul\":14995:15001   */\n      dup3\n        /* \"#utility.yul\":14991:15005   */\n      add\n        /* \"#utility.yul\":14984:15029   */\n      mstore\n        /* \"#utility.yul\":14867:15036   */\n      pop\n      jump\t// out\n        /* \"#utility.yul\":15042:15408   */\n    tag_377:\n        /* \"#utility.yul\":15184:15187   */\n      0x00\n        /* \"#utility.yul\":15205:15272   */\n      tag_557\n        /* \"#utility.yul\":15269:15271   */\n      0x13\n        /* \"#utility.yul\":15264:15267   */\n      dup4\n        /* \"#utility.yul\":15205:15272   */\n      tag_364\n      jump\t// in\n    tag_557:\n        /* \"#utility.yul\":15198:15272   */\n      swap2\n      pop\n        /* \"#utility.yul\":15281:15374   */\n      tag_558\n        /* \"#utility.yul\":15370:15373   */\n      dup3\n        /* \"#utility.yul\":15281:15374   */\n      tag_376\n      jump\t// in\n    tag_558:\n        /* \"#utility.yul\":15399:15401   */\n      0x20\n        /* \"#utility.yul\":15394:15397   */\n      dup3\n        /* \"#utility.yul\":15390:15402   */\n      add\n        /* \"#utility.yul\":15383:15402   */\n      swap1\n      pop\n        /* \"#utility.yul\":15042:15408   */\n      swap2\n      swap1\n      pop\n      jump\t// out\n        /* \"#utility.yul\":15414:15833   */\n    tag_176:\n        /* \"#utility.yul\":15580:15584   */\n      0x00\n        /* \"#utility.yul\":15618:15620   */\n      0x20\n        /* \"#utility.yul\":15607:15616   */\n      dup3\n        /* \"#utility.yul\":15603:15621   */\n      add\n        /* \"#utility.yul\":15595:15621   */\n      swap1\n      pop\n        /* \"#utility.yul\":15667:15676   */\n      dup2\n        /* \"#utility.yul\":15661:15665   */\n      dup2\n        /* \"#utility.yul\":15657:15677   */\n      sub\n        /* \"#utility.yul\":15653:15654   */\n      0x00\n        /* \"#utility.yul\":15642:15651   */\n      dup4\n        /* \"#utility.yul\":15638:15655   */\n      add\n        /* \"#utility.yul\":15631:15678   */\n      mstore\n        /* \"#utility.yul\":15695:15826   */\n      tag_560\n        /* \"#utility.yul\":15821:15825   */\n      dup2\n        /* \"#utility.yul\":15695:15826   */\n      tag_377\n      jump\t// in\n    tag_560:\n        /* \"#utility.yul\":15687:15826   */\n      swap1\n      pop\n        /* \"#utility.yul\":15414:15833   */\n      swap2\n      swap1\n      pop\n      jump\t// out\n        /* \"#utility.yul\":15839:16010   */\n    tag_378:\n        /* \"#utility.yul\":15979:16002   */\n      0x496e76616c696420746f6b656e20616464726573730000000000000000000000\n        /* \"#utility.yul\":15975:15976   */\n      0x00\n        /* \"#utility.yul\":15967:15973   */\n      dup3\n        /* \"#utility.yul\":15963:15977   */\n      add\n        /* \"#utility.yul\":15956:16003   */\n      mstore\n        /* \"#utility.yul\":15839:16010   */\n      pop\n      jump\t// out\n        /* \"#utility.yul\":16016:16382   */\n    tag_379:\n        /* \"#utility.yul\":16158:16161   */\n      0x00\n        /* \"#utility.yul\":16179:16246   */\n      tag_563\n        /* \"#utility.yul\":16243:16245   */\n      0x15\n        /* \"#utility.yul\":16238:16241   */\n      dup4\n        /* \"#utility.yul\":16179:16246   */\n      tag_364\n      jump\t// in\n    tag_563:\n        /* \"#utility.yul\":16172:16246   */\n      swap2\n      pop\n        /* \"#utility.yul\":16255:16348   */\n      tag_564\n        /* \"#utility.yul\":16344:16347   */\n      dup3\n        /* \"#utility.yul\":16255:16348   */\n      tag_378\n      jump\t// in\n    tag_564:\n        /* \"#utility.yul\":16373:16375   */\n      0x20\n        /* \"#utility.yul\":16368:16371   */\n      dup3\n        /* \"#utility.yul\":16364:16376   */\n      add\n        /* \"#utility.yul\":16357:16376   */\n      swap1\n      pop\n        /* \"#utility.yul\":16016:16382   */\n      swap2\n      swap1\n      pop\n      jump\t// out\n        /* \"#utility.yul\":16388:16807   */\n    tag_183:\n        /* \"#utility.yul\":16554:16558   */\n      0x00\n        /* \"#utility.yul\":16592:16594   */\n      0x20\n        /* \"#utility.yul\":16581:16590   */\n      dup3\n        /* \"#utility.yul\":16577:16595   */\n      add\n        /* \"#utility.yul\":16569:16595   */\n      swap1\n      pop\n        /* \"#utility.yul\":16641:16650   */\n      dup2\n        /* \"#utility.yul\":16635:16639   */\n      dup2\n        /* \"#utility.yul\":16631:16651   */\n      sub\n        /* \"#utility.yul\":16627:16628   */\n      0x00\n        /* \"#utility.yul\":16616:16625   */\n      dup4\n        /* \"#utility.yul\":16612:16629   */\n      add\n        /* \"#utility.yul\":16605:16652   */\n      mstore\n        /* \"#utility.yul\":16669:16800   */\n      tag_566\n        /* \"#utility.yul\":16795:16799   */\n      dup2\n        /* \"#utility.yul\":16669:16800   */\n      tag_379\n      jump\t// in\n    tag_566:\n        /* \"#utility.yul\":16661:16800   */\n      swap1\n      pop\n        /* \"#utility.yul\":16388:16807   */\n      swap2\n      swap1\n      pop\n      jump\t// out\n        /* \"#utility.yul\":16813:16993   */\n    tag_380:\n        /* \"#utility.yul\":16861:16938   */\n      0x4e487b7100000000000000000000000000000000000000000000000000000000\n        /* \"#utility.yul\":16858:16859   */\n      0x00\n        /* \"#utility.yul\":16851:16939   */\n      mstore\n        /* \"#utility.yul\":16958:16962   */\n      0x11\n        /* \"#utility.yul\":16955:16956   */\n      0x04\n        /* \"#utility.yul\":16948:16963   */\n      mstore\n        /* \"#utility.yul\":16982:16986   */\n      0x24\n        /* \"#utility.yul\":16979:16980   */\n      0x00\n        /* \"#utility.yul\":16972:16987   */\n      revert\n        /* \"#utility.yul\":16999:17409   */\n    tag_185:\n        /* \"#utility.yul\":17039:17046   */\n      0x00\n        /* \"#utility.yul\":17062:17082   */\n      tag_569\n        /* \"#utility.yul\":17080:17081   */\n      dup3\n        /* \"#utility.yul\":17062:17082   */\n      tag_341\n      jump\t// in\n    tag_569:\n        /* \"#utility.yul\":17057:17082   */\n      swap2\n      pop\n        /* \"#utility.yul\":17096:17116   */\n      tag_570\n        /* \"#utility.yul\":17114:17115   */\n      dup4\n        /* \"#utility.yul\":17096:17116   */\n      tag_341\n      jump\t// in\n    tag_570:\n        /* \"#utility.yul\":17091:17116   */\n      swap3\n      pop\n        /* \"#utility.yul\":17151:17152   */\n      dup3\n        /* \"#utility.yul\":17148:17149   */\n      dup3\n        /* \"#utility.yul\":17144:17153   */\n      mul\n        /* \"#utility.yul\":17173:17203   */\n      tag_571\n        /* \"#utility.yul\":17191:17202   */\n      dup2\n        /* \"#utility.yul\":17173:17203   */\n      tag_341\n      jump\t// in\n    tag_571:\n        /* \"#utility.yul\":17162:17203   */\n      swap2\n      pop\n        /* \"#utility.yul\":17352:17353   */\n      dup3\n        /* \"#utility.yul\":17343:17350   */\n      dup3\n        /* \"#utility.yul\":17339:17354   */\n      div\n        /* \"#utility.yul\":17336:17337   */\n      dup5\n        /* \"#utility.yul\":17333:17355   */\n      eq\n        /* \"#utility.yul\":17313:17314   */\n      dup4\n        /* \"#utility.yul\":17306:17315   */\n      iszero\n        /* \"#utility.yul\":17286:17369   */\n      or\n        /* \"#utility.yul\":17263:17402   */\n      tag_572\n      jumpi\n        /* \"#utility.yul\":17382:17400   */\n      tag_573\n      tag_380\n      jump\t// in\n    tag_573:\n        /* \"#utility.yul\":17263:17402   */\n    tag_572:\n        /* \"#utility.yul\":17047:17409   */\n      pop\n        /* \"#utility.yul\":16999:17409   */\n      swap3\n      swap2\n      pop\n      pop\n      jump\t// out\n        /* \"#utility.yul\":17415:17595   */\n    tag_381:\n        /* \"#utility.yul\":17463:17540   */\n      0x4e487b7100000000000000000000000000000000000000000000000000000000\n        /* \"#utility.yul\":17460:17461   */\n      0x00\n        /* \"#utility.yul\":17453:17541   */\n      mstore\n        /* \"#utility.yul\":17560:17564   */\n      0x12\n        /* \"#utility.yul\":17557:17558   */\n      0x04\n        /* \"#utility.yul\":17550:17565   */\n      mstore\n        /* \"#utility.yul\":17584:17588   */\n      0x24\n        /* \"#utility.yul\":17581:17582   */\n      0x00\n        /* \"#utility.yul\":17574:17589   */\n      revert\n        /* \"#utility.yul\":17601:17786   */\n    tag_187:\n        /* \"#utility.yul\":17641:17642   */\n      0x00\n        /* \"#utility.yul\":17658:17678   */\n      tag_576\n        /* \"#utility.yul\":17676:17677   */\n      dup3\n        /* \"#utility.yul\":17658:17678   */\n      tag_341\n      jump\t// in\n    tag_576:\n        /* \"#utility.yul\":17653:17678   */\n      swap2\n      pop\n        /* \"#utility.yul\":17692:17712   */\n      tag_577\n        /* \"#utility.yul\":17710:17711   */\n      dup4\n        /* \"#utility.yul\":17692:17712   */\n      tag_341\n      jump\t// in\n    tag_577:\n        /* \"#utility.yul\":17687:17712   */\n      swap3\n      pop\n        /* \"#utility.yul\":17731:17732   */\n      dup3\n        /* \"#utility.yul\":17721:17756   */\n      tag_578\n      jumpi\n        /* \"#utility.yul\":17736:17754   */\n      tag_579\n      tag_381\n      jump\t// in\n    tag_579:\n        /* \"#utility.yul\":17721:17756   */\n    tag_578:\n        /* \"#utility.yul\":17778:17779   */\n      dup3\n        /* \"#utility.yul\":17775:17776   */\n      dup3\n        /* \"#utility.yul\":17771:17780   */\n      div\n        /* \"#utility.yul\":17766:17780   */\n      swap1\n      pop\n        /* \"#utility.yul\":17601:17786   */\n      swap3\n      swap2\n      pop\n      pop\n      jump\t// out\n        /* \"#utility.yul\":17792:18234   */\n    tag_189:\n        /* \"#utility.yul\":17941:17945   */\n      0x00\n        /* \"#utility.yul\":17979:17981   */\n      0x60\n        /* \"#utility.yul\":17968:17977   */\n      dup3\n        /* \"#utility.yul\":17964:17982   */\n      add\n        /* \"#utility.yul\":17956:17982   */\n      swap1\n      pop\n        /* \"#utility.yul\":17992:18063   */\n      tag_581\n        /* \"#utility.yul\":18060:18061   */\n      0x00\n        /* \"#utility.yul\":18049:18058   */\n      dup4\n        /* \"#utility.yul\":18045:18062   */\n      add\n        /* \"#utility.yul\":18036:18042   */\n      dup7\n        /* \"#utility.yul\":17992:18063   */\n      tag_356\n      jump\t// in\n    tag_581:\n        /* \"#utility.yul\":18073:18145   */\n      tag_582\n        /* \"#utility.yul\":18141:18143   */\n      0x20\n        /* \"#utility.yul\":18130:18139   */\n      dup4\n        /* \"#utility.yul\":18126:18144   */\n      add\n        /* \"#utility.yul\":18117:18123   */\n      dup6\n        /* \"#utility.yul\":18073:18145   */\n      tag_356\n      jump\t// in\n    tag_582:\n        /* \"#utility.yul\":18155:18227   */\n      tag_583\n        /* \"#utility.yul\":18223:18225   */\n      0x40\n        /* \"#utility.yul\":18212:18221   */\n      dup4\n        /* \"#utility.yul\":18208:18226   */\n      add\n        /* \"#utility.yul\":18199:18205   */\n      dup5\n        /* \"#utility.yul\":18155:18227   */\n      tag_357\n      jump\t// in\n    tag_583:\n        /* \"#utility.yul\":17792:18234   */\n      swap5\n      swap4\n      pop\n      pop\n      pop\n      pop\n      jump\t// out\n        /* \"#utility.yul\":18240:18377   */\n    tag_382:\n        /* \"#utility.yul\":18294:18299   */\n      0x00\n        /* \"#utility.yul\":18325:18331   */\n      dup2\n        /* \"#utility.yul\":18319:18332   */\n      mload\n        /* \"#utility.yul\":18310:18332   */\n      swap1\n      pop\n        /* \"#utility.yul\":18341:18371   */\n      tag_585\n        /* \"#utility.yul\":18365:18370   */\n      dup2\n        /* \"#utility.yul\":18341:18371   */\n      tag_359\n      jump\t// in\n    tag_585:\n        /* \"#utility.yul\":18240:18377   */\n      swap3\n      swap2\n      pop\n      pop\n      jump\t// out\n        /* \"#utility.yul\":18383:18728   */\n    tag_193:\n        /* \"#utility.yul\":18450:18456   */\n      0x00\n        /* \"#utility.yul\":18499:18501   */\n      0x20\n        /* \"#utility.yul\":18487:18496   */\n      dup3\n        /* \"#utility.yul\":18478:18485   */\n      dup5\n        /* \"#utility.yul\":18474:18497   */\n      sub\n        /* \"#utility.yul\":18470:18502   */\n      slt\n        /* \"#utility.yul\":18467:18586   */\n      iszero\n      tag_587\n      jumpi\n        /* \"#utility.yul\":18505:18584   */\n      tag_588\n      tag_339\n      jump\t// in\n    tag_588:\n        /* \"#utility.yul\":18467:18586   */\n    tag_587:\n        /* \"#utility.yul\":18625:18626   */\n      0x00\n        /* \"#utility.yul\":18650:18711   */\n      tag_589\n        /* \"#utility.yul\":18703:18710   */\n      dup5\n        /* \"#utility.yul\":18694:18700   */\n      dup3\n        /* \"#utility.yul\":18683:18692   */\n      dup6\n        /* \"#utility.yul\":18679:18701   */\n      add\n        /* \"#utility.yul\":18650:18711   */\n      tag_382\n      jump\t// in\n    tag_589:\n        /* \"#utility.yul\":18640:18711   */\n      swap2\n      pop\n        /* \"#utility.yul\":18596:18721   */\n      pop\n        /* \"#utility.yul\":18383:18728   */\n      swap3\n      swap2\n      pop\n      pop\n      jump\t// out\n        /* \"#utility.yul\":18734:18904   */\n    tag_383:\n        /* \"#utility.yul\":18874:18896   */\n      0x55534454207472616e73666572206661696c6564000000000000000000000000\n        /* \"#utility.yul\":18870:18871   */\n      0x00\n        /* \"#utility.yul\":18862:18868   */\n      dup3\n        /* \"#utility.yul\":18858:18872   */\n      add\n        /* \"#utility.yul\":18851:18897   */\n      mstore\n        /* \"#utility.yul\":18734:18904   */\n      pop\n      jump\t// out\n        /* \"#utility.yul\":18910:19276   */\n    tag_384:\n        /* \"#utility.yul\":19052:19055   */\n      0x00\n        /* \"#utility.yul\":19073:19140   */\n      tag_592\n        /* \"#utility.yul\":19137:19139   */\n      0x14\n        /* \"#utility.yul\":19132:19135   */\n      dup4\n        /* \"#utility.yul\":19073:19140   */\n      tag_364\n      jump\t// in\n    tag_592:\n        /* \"#utility.yul\":19066:19140   */\n      swap2\n      pop\n        /* \"#utility.yul\":19149:19242   */\n      tag_593\n        /* \"#utility.yul\":19238:19241   */\n      dup3\n        /* \"#utility.yul\":19149:19242   */\n      tag_383\n      jump\t// in\n    tag_593:\n        /* \"#utility.yul\":19267:19269   */\n      0x20\n        /* \"#utility.yul\":19262:19265   */\n      dup3\n        /* \"#utility.yul\":19258:19270   */\n      add\n        /* \"#utility.yul\":19251:19270   */\n      swap1\n      pop\n        /* \"#utility.yul\":18910:19276   */\n      swap2\n      swap1\n      pop\n      jump\t// out\n        /* \"#utility.yul\":19282:19701   */\n    tag_196:\n        /* \"#utility.yul\":19448:19452   */\n      0x00\n        /* \"#utility.yul\":19486:19488   */\n      0x20\n        /* \"#utility.yul\":19475:19484   */\n      dup3\n        /* \"#utility.yul\":19471:19489   */\n      add\n        /* \"#utility.yul\":19463:19489   */\n      swap1\n      pop\n        /* \"#utility.yul\":19535:19544   */\n      dup2\n        /* \"#utility.yul\":19529:19533   */\n      dup2\n        /* \"#utility.yul\":19525:19545   */\n      sub\n        /* \"#utility.yul\":19521:19522   */\n      0x00\n        /* \"#utility.yul\":19510:19519   */\n      dup4\n        /* \"#utility.yul\":19506:19523   */\n      add\n        /* \"#utility.yul\":19499:19546   */\n      mstore\n        /* \"#utility.yul\":19563:19694   */\n      tag_595\n        /* \"#utility.yul\":19689:19693   */\n      dup2\n        /* \"#utility.yul\":19563:19694   */\n      tag_384\n      jump\t// in\n    tag_595:\n        /* \"#utility.yul\":19555:19694   */\n      swap1\n      pop\n        /* \"#utility.yul\":19282:19701   */\n      swap2\n      swap1\n      pop\n      jump\t// out\n        /* \"#utility.yul\":19707:19898   */\n    tag_198:\n        /* \"#utility.yul\":19747:19750   */\n      0x00\n        /* \"#utility.yul\":19766:19786   */\n      tag_597\n        /* \"#utility.yul\":19784:19785   */\n      dup3\n        /* \"#utility.yul\":19766:19786   */\n      tag_341\n      jump\t// in\n    tag_597:\n        /* \"#utility.yul\":19761:19786   */\n      swap2\n      pop\n        /* \"#utility.yul\":19800:19820   */\n      tag_598\n        /* \"#utility.yul\":19818:19819   */\n      dup4\n        /* \"#utility.yul\":19800:19820   */\n      tag_341\n      jump\t// in\n    tag_598:\n        /* \"#utility.yul\":19795:19820   */\n      swap3\n      pop\n        /* \"#utility.yul\":19843:19844   */\n      dup3\n        /* \"#utility.yul\":19840:19841   */\n      dup3\n        /* \"#utility.yul\":19836:19845   */\n      add\n        /* \"#utility.yul\":19829:19845   */\n      swap1\n      pop\n        /* \"#utility.yul\":19864:19867   */\n      dup1\n        /* \"#utility.yul\":19861:19862   */\n      dup3\n        /* \"#utility.yul\":19858:19868   */\n      gt\n        /* \"#utility.yul\":19855:19891   */\n      iszero\n      tag_599\n      jumpi\n        /* \"#utility.yul\":19871:19889   */\n      tag_600\n      tag_380\n      jump\t// in\n    tag_600:\n        /* \"#utility.yul\":19855:19891   */\n    tag_599:\n        /* \"#utility.yul\":19707:19898   */\n      swap3\n      swap2\n      pop\n      pop\n      jump\t// out\n        /* \"#utility.yul\":19904:20098   */\n    tag_203:\n        /* \"#utility.yul\":19944:19948   */\n      0x00\n        /* \"#utility.yul\":19964:19984   */\n      tag_602\n        /* \"#utility.yul\":19982:19983   */\n      dup3\n        /* \"#utility.yul\":19964:19984   */\n      tag_341\n      jump\t// in\n    tag_602:\n        /* \"#utility.yul\":19959:19984   */\n      swap2\n      pop\n        /* \"#utility.yul\":19998:20018   */\n      tag_603\n        /* \"#utility.yul\":20016:20017   */\n      dup4\n        /* \"#utility.yul\":19998:20018   */\n      tag_341\n      jump\t// in\n    tag_603:\n        /* \"#utility.yul\":19993:20018   */\n      swap3\n      pop\n        /* \"#utility.yul\":20042:20043   */\n      dup3\n        /* \"#utility.yul\":20039:20040   */\n      dup3\n        /* \"#utility.yul\":20035:20044   */\n      sub\n        /* \"#utility.yul\":20027:20044   */\n      swap1\n      pop\n        /* \"#utility.yul\":20066:20067   */\n      dup2\n        /* \"#utility.yul\":20060:20064   */\n      dup2\n        /* \"#utility.yul\":20057:20068   */\n      gt\n        /* \"#utility.yul\":20054:20091   */\n      iszero\n      tag_604\n      jumpi\n        /* \"#utility.yul\":20071:20089   */\n      tag_605\n      tag_380\n      jump\t// in\n    tag_605:\n        /* \"#utility.yul\":20054:20091   */\n    tag_604:\n        /* \"#utility.yul\":19904:20098   */\n      swap3\n      swap2\n      pop\n      pop\n      jump\t// out\n        /* \"#utility.yul\":20104:20221   */\n    tag_385:\n        /* \"#utility.yul\":20213:20214   */\n      0x00\n        /* \"#utility.yul\":20210:20211   */\n      dup1\n        /* \"#utility.yul\":20203:20215   */\n      revert\n        /* \"#utility.yul\":20227:20344   */\n    tag_386:\n        /* \"#utility.yul\":20336:20337   */\n      0x00\n        /* \"#utility.yul\":20333:20334   */\n      dup1\n        /* \"#utility.yul\":20326:20338   */\n      revert\n        /* \"#utility.yul\":20350:20452   */\n    tag_387:\n        /* \"#utility.yul\":20391:20397   */\n      0x00\n        /* \"#utility.yul\":20442:20444   */\n      0x1f\n        /* \"#utility.yul\":20438:20445   */\n      not\n        /* \"#utility.yul\":20433:20435   */\n      0x1f\n        /* \"#utility.yul\":20426:20431   */\n      dup4\n        /* \"#utility.yul\":20422:20436   */\n      add\n        /* \"#utility.yul\":20418:20446   */\n      and\n        /* \"#utility.yul\":20408:20446   */\n      swap1\n      pop\n        /* \"#utility.yul\":20350:20452   */\n      swap2\n      swap1\n      pop\n      jump\t// out\n        /* \"#utility.yul\":20458:20638   */\n    tag_388:\n        /* \"#utility.yul\":20506:20583   */\n      0x4e487b7100000000000000000000000000000000000000000000000000000000\n        /* \"#utility.yul\":20503:20504   */\n      0x00\n        /* \"#utility.yul\":20496:20584   */\n      mstore\n        /* \"#utility.yul\":20603:20607   */\n      0x41\n        /* \"#utility.yul\":20600:20601   */\n      0x04\n        /* \"#utility.yul\":20593:20608   */\n      mstore\n        /* \"#utility.yul\":20627:20631   */\n      0x24\n        /* \"#utility.yul\":20624:20625   */\n      0x00\n        /* \"#utility.yul\":20617:20632   */\n      revert\n        /* \"#utility.yul\":20644:20925   */\n    tag_389:\n        /* \"#utility.yul\":20727:20754   */\n      tag_611\n        /* \"#utility.yul\":20749:20753   */\n      dup3\n        /* \"#utility.yul\":20727:20754   */\n      tag_387\n      jump\t// in\n    tag_611:\n        /* \"#utility.yul\":20719:20725   */\n      dup2\n        /* \"#utility.yul\":20715:20755   */\n      add\n        /* \"#utility.yul\":20857:20863   */\n      dup2\n        /* \"#utility.yul\":20845:20855   */\n      dup2\n        /* \"#utility.yul\":20842:20864   */\n      lt\n        /* \"#utility.yul\":20821:20839   */\n      0xffffffffffffffff\n        /* \"#utility.yul\":20809:20819   */\n      dup3\n        /* \"#utility.yul\":20806:20840   */\n      gt\n        /* \"#utility.yul\":20803:20865   */\n      or\n        /* \"#utility.yul\":20800:20888   */\n      iszero\n      tag_612\n      jumpi\n        /* \"#utility.yul\":20868:20886   */\n      tag_613\n      tag_388\n      jump\t// in\n    tag_613:\n        /* \"#utility.yul\":20800:20888   */\n    tag_612:\n        /* \"#utility.yul\":20908:20918   */\n      dup1\n        /* \"#utility.yul\":20904:20906   */\n      0x40\n        /* \"#utility.yul\":20897:20919   */\n      mstore\n        /* \"#utility.yul\":20687:20925   */\n      pop\n        /* \"#utility.yul\":20644:20925   */\n      pop\n      pop\n      jump\t// out\n        /* \"#utility.yul\":20931:21060   */\n    tag_390:\n        /* \"#utility.yul\":20965:20971   */\n      0x00\n        /* \"#utility.yul\":20992:21012   */\n      tag_615\n      tag_338\n      jump\t// in\n    tag_615:\n        /* \"#utility.yul\":20982:21012   */\n      swap1\n      pop\n        /* \"#utility.yul\":21021:21054   */\n      tag_616\n        /* \"#utility.yul\":21049:21053   */\n      dup3\n        /* \"#utility.yul\":21041:21047   */\n      dup3\n        /* \"#utility.yul\":21021:21054   */\n      tag_389\n      jump\t// in\n    tag_616:\n        /* \"#utility.yul\":20931:21060   */\n      swap2\n      swap1\n      pop\n      jump\t// out\n        /* \"#utility.yul\":21066:21374   */\n    tag_391:\n        /* \"#utility.yul\":21128:21132   */\n      0x00\n        /* \"#utility.yul\":21218:21236   */\n      0xffffffffffffffff\n        /* \"#utility.yul\":21210:21216   */\n      dup3\n        /* \"#utility.yul\":21207:21237   */\n      gt\n        /* \"#utility.yul\":21204:21260   */\n      iszero\n      tag_618\n      jumpi\n        /* \"#utility.yul\":21240:21258   */\n      tag_619\n      tag_388\n      jump\t// in\n    tag_619:\n        /* \"#utility.yul\":21204:21260   */\n    tag_618:\n        /* \"#utility.yul\":21278:21307   */\n      tag_620\n        /* \"#utility.yul\":21300:21306   */\n      dup3\n        /* \"#utility.yul\":21278:21307   */\n      tag_387\n      jump\t// in\n    tag_620:\n        /* \"#utility.yul\":21270:21307   */\n      swap1\n      pop\n        /* \"#utility.yul\":21362:21366   */\n      0x20\n        /* \"#utility.yul\":21356:21360   */\n      dup2\n        /* \"#utility.yul\":21352:21367   */\n      add\n        /* \"#utility.yul\":21344:21367   */\n      swap1\n      pop\n        /* \"#utility.yul\":21066:21374   */\n      swap2\n      swap1\n      pop\n      jump\t// out\n        /* \"#utility.yul\":21380:21626   */\n    tag_392:\n        /* \"#utility.yul\":21461:21462   */\n      0x00\n        /* \"#utility.yul\":21471:21584   */\n    tag_622:\n        /* \"#utility.yul\":21485:21491   */\n      dup4\n        /* \"#utility.yul\":21482:21483   */\n      dup2\n        /* \"#utility.yul\":21479:21492   */\n      lt\n        /* \"#utility.yul\":21471:21584   */\n      iszero\n      tag_624\n      jumpi\n        /* \"#utility.yul\":21570:21571   */\n      dup1\n        /* \"#utility.yul\":21565:21568   */\n      dup3\n        /* \"#utility.yul\":21561:21572   */\n      add\n        /* \"#utility.yul\":21555:21573   */\n      mload\n        /* \"#utility.yul\":21551:21552   */\n      dup2\n        /* \"#utility.yul\":21546:21549   */\n      dup5\n        /* \"#utility.yul\":21542:21553   */\n      add\n        /* \"#utility.yul\":21535:21574   */\n      mstore\n        /* \"#utility.yul\":21507:21509   */\n      0x20\n        /* \"#utility.yul\":21504:21505   */\n      dup2\n        /* \"#utility.yul\":21500:21510   */\n      add\n        /* \"#utility.yul\":21495:21510   */\n      swap1\n      pop\n        /* \"#utility.yul\":21471:21584   */\n      jump(tag_622)\n    tag_624:\n        /* \"#utility.yul\":21618:21619   */\n      0x00\n        /* \"#utility.yul\":21609:21615   */\n      dup5\n        /* \"#utility.yul\":21604:21607   */\n      dup5\n        /* \"#utility.yul\":21600:21616   */\n      add\n        /* \"#utility.yul\":21593:21620   */\n      mstore\n        /* \"#utility.yul\":21442:21626   */\n      pop\n        /* \"#utility.yul\":21380:21626   */\n      pop\n      pop\n      pop\n      jump\t// out\n        /* \"#utility.yul\":21632:22066   */\n    tag_393:\n        /* \"#utility.yul\":21721:21726   */\n      0x00\n        /* \"#utility.yul\":21746:21812   */\n      tag_626\n        /* \"#utility.yul\":21762:21811   */\n      tag_627\n        /* \"#utility.yul\":21804:21810   */\n      dup5\n        /* \"#utility.yul\":21762:21811   */\n      tag_391\n      jump\t// in\n    tag_627:\n        /* \"#utility.yul\":21746:21812   */\n      tag_390\n      jump\t// in\n    tag_626:\n        /* \"#utility.yul\":21737:21812   */\n      swap1\n      pop\n        /* \"#utility.yul\":21835:21841   */\n      dup3\n        /* \"#utility.yul\":21828:21833   */\n      dup2\n        /* \"#utility.yul\":21821:21842   */\n      mstore\n        /* \"#utility.yul\":21873:21877   */\n      0x20\n        /* \"#utility.yul\":21866:21871   */\n      dup2\n        /* \"#utility.yul\":21862:21878   */\n      add\n        /* \"#utility.yul\":21911:21914   */\n      dup5\n        /* \"#utility.yul\":21902:21908   */\n      dup5\n        /* \"#utility.yul\":21897:21900   */\n      dup5\n        /* \"#utility.yul\":21893:21909   */\n      add\n        /* \"#utility.yul\":21890:21915   */\n      gt\n        /* \"#utility.yul\":21887:21999   */\n      iszero\n      tag_628\n      jumpi\n        /* \"#utility.yul\":21918:21997   */\n      tag_629\n      tag_386\n      jump\t// in\n    tag_629:\n        /* \"#utility.yul\":21887:21999   */\n    tag_628:\n        /* \"#utility.yul\":22008:22060   */\n      tag_630\n        /* \"#utility.yul\":22053:22059   */\n      dup5\n        /* \"#utility.yul\":22048:22051   */\n      dup3\n        /* \"#utility.yul\":22043:22046   */\n      dup6\n        /* \"#utility.yul\":22008:22060   */\n      tag_392\n      jump\t// in\n    tag_630:\n        /* \"#utility.yul\":21727:22066   */\n      pop\n        /* \"#utility.yul\":21632:22066   */\n      swap4\n      swap3\n      pop\n      pop\n      pop\n      jump\t// out\n        /* \"#utility.yul\":22086:22441   */\n    tag_394:\n        /* \"#utility.yul\":22153:22158   */\n      0x00\n        /* \"#utility.yul\":22202:22205   */\n      dup3\n        /* \"#utility.yul\":22195:22199   */\n      0x1f\n        /* \"#utility.yul\":22187:22193   */\n      dup4\n        /* \"#utility.yul\":22183:22200   */\n      add\n        /* \"#utility.yul\":22179:22206   */\n      slt\n        /* \"#utility.yul\":22169:22291   */\n      tag_632\n      jumpi\n        /* \"#utility.yul\":22210:22289   */\n      tag_633\n      tag_385\n      jump\t// in\n    tag_633:\n        /* \"#utility.yul\":22169:22291   */\n    tag_632:\n        /* \"#utility.yul\":22320:22326   */\n      dup2\n        /* \"#utility.yul\":22314:22327   */\n      mload\n        /* \"#utility.yul\":22345:22435   */\n      tag_634\n        /* \"#utility.yul\":22431:22434   */\n      dup5\n        /* \"#utility.yul\":22423:22429   */\n      dup3\n        /* \"#utility.yul\":22416:22420   */\n      0x20\n        /* \"#utility.yul\":22408:22414   */\n      dup7\n        /* \"#utility.yul\":22404:22421   */\n      add\n        /* \"#utility.yul\":22345:22435   */\n      tag_393\n      jump\t// in\n    tag_634:\n        /* \"#utility.yul\":22336:22435   */\n      swap2\n      pop\n        /* \"#utility.yul\":22159:22441   */\n      pop\n        /* \"#utility.yul\":22086:22441   */\n      swap3\n      swap2\n      pop\n      pop\n      jump\t// out\n        /* \"#utility.yul\":22447:22971   */\n    tag_217:\n        /* \"#utility.yul\":22527:22533   */\n      0x00\n        /* \"#utility.yul\":22576:22578   */\n      0x20\n        /* \"#utility.yul\":22564:22573   */\n      dup3\n        /* \"#utility.yul\":22555:22562   */\n      dup5\n        /* \"#utility.yul\":22551:22574   */\n      sub\n        /* \"#utility.yul\":22547:22579   */\n      slt\n        /* \"#utility.yul\":22544:22663   */\n      iszero\n      tag_636\n      jumpi\n        /* \"#utility.yul\":22582:22661   */\n      tag_637\n      tag_339\n      jump\t// in\n    tag_637:\n        /* \"#utility.yul\":22544:22663   */\n    tag_636:\n        /* \"#utility.yul\":22723:22724   */\n      0x00\n        /* \"#utility.yul\":22712:22721   */\n      dup3\n        /* \"#utility.yul\":22708:22725   */\n      add\n        /* \"#utility.yul\":22702:22726   */\n      mload\n        /* \"#utility.yul\":22753:22771   */\n      0xffffffffffffffff\n        /* \"#utility.yul\":22745:22751   */\n      dup2\n        /* \"#utility.yul\":22742:22772   */\n      gt\n        /* \"#utility.yul\":22739:22856   */\n      iszero\n      tag_638\n      jumpi\n        /* \"#utility.yul\":22775:22854   */\n      tag_639\n      tag_340\n      jump\t// in\n    tag_639:\n        /* \"#utility.yul\":22739:22856   */\n    tag_638:\n        /* \"#utility.yul\":22880:22954   */\n      tag_640\n        /* \"#utility.yul\":22946:22953   */\n      dup5\n        /* \"#utility.yul\":22937:22943   */\n      dup3\n        /* \"#utility.yul\":22926:22935   */\n      dup6\n        /* \"#utility.yul\":22922:22944   */\n      add\n        /* \"#utility.yul\":22880:22954   */\n      tag_394\n      jump\t// in\n    tag_640:\n        /* \"#utility.yul\":22870:22954   */\n      swap2\n      pop\n        /* \"#utility.yul\":22673:22964   */\n      pop\n        /* \"#utility.yul\":22447:22971   */\n      swap3\n      swap2\n      pop\n      pop\n      jump\t// out\n        /* \"#utility.yul\":22977:23419   */\n    tag_220:\n        /* \"#utility.yul\":23126:23130   */\n      0x00\n        /* \"#utility.yul\":23164:23166   */\n      0x60\n        /* \"#utility.yul\":23153:23162   */\n      dup3\n        /* \"#utility.yul\":23149:23167   */\n      add\n        /* \"#utility.yul\":23141:23167   */\n      swap1\n      pop\n        /* \"#utility.yul\":23177:23248   */\n      tag_642\n        /* \"#utility.yul\":23245:23246   */\n      0x00\n        /* \"#utility.yul\":23234:23243   */\n      dup4\n        /* \"#utility.yul\":23230:23247   */\n      add\n        /* \"#utility.yul\":23221:23227   */\n      dup7\n        /* \"#utility.yul\":23177:23248   */\n      tag_356\n      jump\t// in\n    tag_642:\n        /* \"#utility.yul\":23258:23330   */\n      tag_643\n        /* \"#utility.yul\":23326:23328   */\n      0x20\n        /* \"#utility.yul\":23315:23324   */\n      dup4\n        /* \"#utility.yul\":23311:23329   */\n      add\n        /* \"#utility.yul\":23302:23308   */\n      dup6\n        /* \"#utility.yul\":23258:23330   */\n      tag_357\n      jump\t// in\n    tag_643:\n        /* \"#utility.yul\":23340:23412   */\n      tag_644\n        /* \"#utility.yul\":23408:23410   */\n      0x40\n        /* \"#utility.yul\":23397:23406   */\n      dup4\n        /* \"#utility.yul\":23393:23411   */\n      add\n        /* \"#utility.yul\":23384:23390   */\n      dup5\n        /* \"#utility.yul\":23340:23412   */\n      tag_357\n      jump\t// in\n    tag_644:\n        /* \"#utility.yul\":22977:23419   */\n      swap5\n      swap4\n      pop\n      pop\n      pop\n      pop\n      jump\t// out\n        /* \"#utility.yul\":23425:23757   */\n    tag_225:\n        /* \"#utility.yul\":23546:23550   */\n      0x00\n        /* \"#utility.yul\":23584:23586   */\n      0x40\n        /* \"#utility.yul\":23573:23582   */\n      dup3\n        /* \"#utility.yul\":23569:23587   */\n      add\n        /* \"#utility.yul\":23561:23587   */\n      swap1\n      pop\n        /* \"#utility.yul\":23597:23668   */\n      tag_646\n        /* \"#utility.yul\":23665:23666   */\n      0x00\n        /* \"#utility.yul\":23654:23663   */\n      dup4\n        /* \"#utility.yul\":23650:23667   */\n      add\n        /* \"#utility.yul\":23641:23647   */\n      dup6\n        /* \"#utility.yul\":23597:23668   */\n      tag_356\n      jump\t// in\n    tag_646:\n        /* \"#utility.yul\":23678:23750   */\n      tag_647\n        /* \"#utility.yul\":23746:23748   */\n      0x20\n        /* \"#utility.yul\":23735:23744   */\n      dup4\n        /* \"#utility.yul\":23731:23749   */\n      add\n        /* \"#utility.yul\":23722:23728   */\n      dup5\n        /* \"#utility.yul\":23678:23750   */\n      tag_357\n      jump\t// in\n    tag_647:\n        /* \"#utility.yul\":23425:23757   */\n      swap4\n      swap3\n      pop\n      pop\n      pop\n      jump\t// out\n        /* \"#utility.yul\":23763:23941   */\n    tag_395:\n        /* \"#utility.yul\":23903:23933   */\n      0x50726f746f6e20746f6b656e207472616e73666572206661696c656400000000\n        /* \"#utility.yul\":23899:23900   */\n      0x00\n        /* \"#utility.yul\":23891:23897   */\n      dup3\n        /* \"#utility.yul\":23887:23901   */\n      add\n        /* \"#utility.yul\":23880:23934   */\n      mstore\n        /* \"#utility.yul\":23763:23941   */\n      pop\n      jump\t// out\n        /* \"#utility.yul\":23947:24313   */\n    tag_396:\n        /* \"#utility.yul\":24089:24092   */\n      0x00\n        /* \"#utility.yul\":24110:24177   */\n      tag_650\n        /* \"#utility.yul\":24174:24176   */\n      0x1c\n        /* \"#utility.yul\":24169:24172   */\n      dup4\n        /* \"#utility.yul\":24110:24177   */\n      tag_364\n      jump\t// in\n    tag_650:\n        /* \"#utility.yul\":24103:24177   */\n      swap2\n      pop\n        /* \"#utility.yul\":24186:24279   */\n      tag_651\n        /* \"#utility.yul\":24275:24278   */\n      dup3\n        /* \"#utility.yul\":24186:24279   */\n      tag_395\n      jump\t// in\n    tag_651:\n        /* \"#utility.yul\":24304:24306   */\n      0x20\n        /* \"#utility.yul\":24299:24302   */\n      dup3\n        /* \"#utility.yul\":24295:24307   */\n      add\n        /* \"#utility.yul\":24288:24307   */\n      swap1\n      pop\n        /* \"#utility.yul\":23947:24313   */\n      swap2\n      swap1\n      pop\n      jump\t// out\n        /* \"#utility.yul\":24319:24738   */\n    tag_231:\n        /* \"#utility.yul\":24485:24489   */\n      0x00\n        /* \"#utility.yul\":24523:24525   */\n      0x20\n        /* \"#utility.yul\":24512:24521   */\n      dup3\n        /* \"#utility.yul\":24508:24526   */\n      add\n        /* \"#utility.yul\":24500:24526   */\n      swap1\n      pop\n        /* \"#utility.yul\":24572:24581   */\n      dup2\n        /* \"#utility.yul\":24566:24570   */\n      dup2\n        /* \"#utility.yul\":24562:24582   */\n      sub\n        /* \"#utility.yul\":24558:24559   */\n      0x00\n        /* \"#utility.yul\":24547:24556   */\n      dup4\n        /* \"#utility.yul\":24543:24560   */\n      add\n        /* \"#utility.yul\":24536:24583   */\n      mstore\n        /* \"#utility.yul\":24600:24731   */\n      tag_653\n        /* \"#utility.yul\":24726:24730   */\n      dup2\n        /* \"#utility.yul\":24600:24731   */\n      tag_396\n      jump\t// in\n    tag_653:\n        /* \"#utility.yul\":24592:24731   */\n      swap1\n      pop\n        /* \"#utility.yul\":24319:24738   */\n      swap2\n      swap1\n      pop\n      jump\t// out\n        /* \"#utility.yul\":24744:24917   */\n    tag_397:\n        /* \"#utility.yul\":24884:24909   */\n      0x41756374696f6e206973207374696c6c20616374697665000000000000000000\n        /* \"#utility.yul\":24880:24881   */\n      0x00\n        /* \"#utility.yul\":24872:24878   */\n      dup3\n        /* \"#utility.yul\":24868:24882   */\n      add\n        /* \"#utility.yul\":24861:24910   */\n      mstore\n        /* \"#utility.yul\":24744:24917   */\n      pop\n      jump\t// out\n        /* \"#utility.yul\":24923:25289   */\n    tag_398:\n        /* \"#utility.yul\":25065:25068   */\n      0x00\n        /* \"#utility.yul\":25086:25153   */\n      tag_656\n        /* \"#utility.yul\":25150:25152   */\n      0x17\n        /* \"#utility.yul\":25145:25148   */\n      dup4\n        /* \"#utility.yul\":25086:25153   */\n      tag_364\n      jump\t// in\n    tag_656:\n        /* \"#utility.yul\":25079:25153   */\n      swap2\n      pop\n        /* \"#utility.yul\":25162:25255   */\n      tag_657\n        /* \"#utility.yul\":25251:25254   */\n      dup3\n        /* \"#utility.yul\":25162:25255   */\n      tag_397\n      jump\t// in\n    tag_657:\n        /* \"#utility.yul\":25280:25282   */\n      0x20\n        /* \"#utility.yul\":25275:25278   */\n      dup3\n        /* \"#utility.yul\":25271:25283   */\n      add\n        /* \"#utility.yul\":25264:25283   */\n      swap1\n      pop\n        /* \"#utility.yul\":24923:25289   */\n      swap2\n      swap1\n      pop\n      jump\t// out\n        /* \"#utility.yul\":25295:25714   */\n    tag_241:\n        /* \"#utility.yul\":25461:25465   */\n      0x00\n        /* \"#utility.yul\":25499:25501   */\n      0x20\n        /* \"#utility.yul\":25488:25497   */\n      dup3\n        /* \"#utility.yul\":25484:25502   */\n      add\n        /* \"#utility.yul\":25476:25502   */\n      swap1\n      pop\n        /* \"#utility.yul\":25548:25557   */\n      dup2\n        /* \"#utility.yul\":25542:25546   */\n      dup2\n        /* \"#utility.yul\":25538:25558   */\n      sub\n        /* \"#utility.yul\":25534:25535   */\n      0x00\n        /* \"#utility.yul\":25523:25532   */\n      dup4\n        /* \"#utility.yul\":25519:25536   */\n      add\n        /* \"#utility.yul\":25512:25559   */\n      mstore\n        /* \"#utility.yul\":25576:25707   */\n      tag_659\n        /* \"#utility.yul\":25702:25706   */\n      dup2\n        /* \"#utility.yul\":25576:25707   */\n      tag_398\n      jump\t// in\n    tag_659:\n        /* \"#utility.yul\":25568:25707   */\n      swap1\n      pop\n        /* \"#utility.yul\":25295:25714   */\n      swap2\n      swap1\n      pop\n      jump\t// out\n        /* \"#utility.yul\":25720:25899   */\n    tag_399:\n        /* \"#utility.yul\":25860:25891   */\n      0x41756374696f6e206461797320617265206e6f7420636f6d706c657465000000\n        /* \"#utility.yul\":25856:25857   */\n      0x00\n        /* \"#utility.yul\":25848:25854   */\n      dup3\n        /* \"#utility.yul\":25844:25858   */\n      add\n        /* \"#utility.yul\":25837:25892   */\n      mstore\n        /* \"#utility.yul\":25720:25899   */\n      pop\n      jump\t// out\n        /* \"#utility.yul\":25905:26271   */\n    tag_400:\n        /* \"#utility.yul\":26047:26050   */\n      0x00\n        /* \"#utility.yul\":26068:26135   */\n      tag_662\n        /* \"#utility.yul\":26132:26134   */\n      0x1d\n        /* \"#utility.yul\":26127:26130   */\n      dup4\n        /* \"#utility.yul\":26068:26135   */\n      tag_364\n      jump\t// in\n    tag_662:\n        /* \"#utility.yul\":26061:26135   */\n      swap2\n      pop\n        /* \"#utility.yul\":26144:26237   */\n      tag_663\n        /* \"#utility.yul\":26233:26236   */\n      dup3\n        /* \"#utility.yul\":26144:26237   */\n      tag_399\n      jump\t// in\n    tag_663:\n        /* \"#utility.yul\":26262:26264   */\n      0x20\n        /* \"#utility.yul\":26257:26260   */\n      dup3\n        /* \"#utility.yul\":26253:26265   */\n      add\n        /* \"#utility.yul\":26246:26265   */\n      swap1\n      pop\n        /* \"#utility.yul\":25905:26271   */\n      swap2\n      swap1\n      pop\n      jump\t// out\n        /* \"#utility.yul\":26277:26696   */\n    tag_244:\n        /* \"#utility.yul\":26443:26447   */\n      0x00\n        /* \"#utility.yul\":26481:26483   */\n      0x20\n        /* \"#utility.yul\":26470:26479   */\n      dup3\n        /* \"#utility.yul\":26466:26484   */\n      add\n        /* \"#utility.yul\":26458:26484   */\n      swap1\n      pop\n        /* \"#utility.yul\":26530:26539   */\n      dup2\n        /* \"#utility.yul\":26524:26528   */\n      dup2\n        /* \"#utility.yul\":26520:26540   */\n      sub\n        /* \"#utility.yul\":26516:26517   */\n      0x00\n        /* \"#utility.yul\":26505:26514   */\n      dup4\n        /* \"#utility.yul\":26501:26518   */\n      add\n        /* \"#utility.yul\":26494:26541   */\n      mstore\n        /* \"#utility.yul\":26558:26689   */\n      tag_665\n        /* \"#utility.yul\":26684:26688   */\n      dup2\n        /* \"#utility.yul\":26558:26689   */\n      tag_400\n      jump\t// in\n    tag_665:\n        /* \"#utility.yul\":26550:26689   */\n      swap1\n      pop\n        /* \"#utility.yul\":26277:26696   */\n      swap2\n      swap1\n      pop\n      jump\t// out\n        /* \"#utility.yul\":26702:26867   */\n    tag_401:\n        /* \"#utility.yul\":26842:26859   */\n      0x496e636f72726563742076616c75650000000000000000000000000000000000\n        /* \"#utility.yul\":26838:26839   */\n      0x00\n        /* \"#utility.yul\":26830:26836   */\n      dup3\n        /* \"#utility.yul\":26826:26840   */\n      add\n        /* \"#utility.yul\":26819:26860   */\n      mstore\n        /* \"#utility.yul\":26702:26867   */\n      pop\n      jump\t// out\n        /* \"#utility.yul\":26873:27239   */\n    tag_402:\n        /* \"#utility.yul\":27015:27018   */\n      0x00\n        /* \"#utility.yul\":27036:27103   */\n      tag_668\n        /* \"#utility.yul\":27100:27102   */\n      0x0f\n        /* \"#utility.yul\":27095:27098   */\n      dup4\n        /* \"#utility.yul\":27036:27103   */\n      tag_364\n      jump\t// in\n    tag_668:\n        /* \"#utility.yul\":27029:27103   */\n      swap2\n      pop\n        /* \"#utility.yul\":27112:27205   */\n      tag_669\n        /* \"#utility.yul\":27201:27204   */\n      dup3\n        /* \"#utility.yul\":27112:27205   */\n      tag_401\n      jump\t// in\n    tag_669:\n        /* \"#utility.yul\":27230:27232   */\n      0x20\n        /* \"#utility.yul\":27225:27228   */\n      dup3\n        /* \"#utility.yul\":27221:27233   */\n      add\n        /* \"#utility.yul\":27214:27233   */\n      swap1\n      pop\n        /* \"#utility.yul\":26873:27239   */\n      swap2\n      swap1\n      pop\n      jump\t// out\n        /* \"#utility.yul\":27245:27664   */\n    tag_249:\n        /* \"#utility.yul\":27411:27415   */\n      0x00\n        /* \"#utility.yul\":27449:27451   */\n      0x20\n        /* \"#utility.yul\":27438:27447   */\n      dup3\n        /* \"#utility.yul\":27434:27452   */\n      add\n        /* \"#utility.yul\":27426:27452   */\n      swap1\n      pop\n        /* \"#utility.yul\":27498:27507   */\n      dup2\n        /* \"#utility.yul\":27492:27496   */\n      dup2\n        /* \"#utility.yul\":27488:27508   */\n      sub\n        /* \"#utility.yul\":27484:27485   */\n      0x00\n        /* \"#utility.yul\":27473:27482   */\n      dup4\n        /* \"#utility.yul\":27469:27486   */\n      add\n        /* \"#utility.yul\":27462:27509   */\n      mstore\n        /* \"#utility.yul\":27526:27657   */\n      tag_671\n        /* \"#utility.yul\":27652:27656   */\n      dup2\n        /* \"#utility.yul\":27526:27657   */\n      tag_402\n      jump\t// in\n    tag_671:\n        /* \"#utility.yul\":27518:27657   */\n      swap1\n      pop\n        /* \"#utility.yul\":27245:27664   */\n      swap2\n      swap1\n      pop\n      jump\t// out\n        /* \"#utility.yul\":27670:28223   */\n    tag_258:\n        /* \"#utility.yul\":27847:27851   */\n      0x00\n        /* \"#utility.yul\":27885:27888   */\n      0x80\n        /* \"#utility.yul\":27874:27883   */\n      dup3\n        /* \"#utility.yul\":27870:27889   */\n      add\n        /* \"#utility.yul\":27862:27889   */\n      swap1\n      pop\n        /* \"#utility.yul\":27899:27970   */\n      tag_673\n        /* \"#utility.yul\":27967:27968   */\n      0x00\n        /* \"#utility.yul\":27956:27965   */\n      dup4\n        /* \"#utility.yul\":27952:27969   */\n      add\n        /* \"#utility.yul\":27943:27949   */\n      dup8\n        /* \"#utility.yul\":27899:27970   */\n      tag_356\n      jump\t// in\n    tag_673:\n        /* \"#utility.yul\":27980:28052   */\n      tag_674\n        /* \"#utility.yul\":28048:28050   */\n      0x20\n        /* \"#utility.yul\":28037:28046   */\n      dup4\n        /* \"#utility.yul\":28033:28051   */\n      add\n        /* \"#utility.yul\":28024:28030   */\n      dup7\n        /* \"#utility.yul\":27980:28052   */\n      tag_357\n      jump\t// in\n    tag_674:\n        /* \"#utility.yul\":28062:28134   */\n      tag_675\n        /* \"#utility.yul\":28130:28132   */\n      0x40\n        /* \"#utility.yul\":28119:28128   */\n      dup4\n        /* \"#utility.yul\":28115:28133   */\n      add\n        /* \"#utility.yul\":28106:28112   */\n      dup6\n        /* \"#utility.yul\":28062:28134   */\n      tag_357\n      jump\t// in\n    tag_675:\n        /* \"#utility.yul\":28144:28216   */\n      tag_676\n        /* \"#utility.yul\":28212:28214   */\n      0x60\n        /* \"#utility.yul\":28201:28210   */\n      dup4\n        /* \"#utility.yul\":28197:28215   */\n      add\n        /* \"#utility.yul\":28188:28194   */\n      dup5\n        /* \"#utility.yul\":28144:28216   */\n      tag_357\n      jump\t// in\n    tag_676:\n        /* \"#utility.yul\":27670:28223   */\n      swap6\n      swap5\n      pop\n      pop\n      pop\n      pop\n      pop\n      jump\t// out\n        /* \"#utility.yul\":28229:28395   */\n    tag_403:\n        /* \"#utility.yul\":28369:28387   */\n      0x4552524f523a204441592076616c756500000000000000000000000000000000\n        /* \"#utility.yul\":28365:28366   */\n      0x00\n        /* \"#utility.yul\":28357:28363   */\n      dup3\n        /* \"#utility.yul\":28353:28367   */\n      add\n        /* \"#utility.yul\":28346:28388   */\n      mstore\n        /* \"#utility.yul\":28229:28395   */\n      pop\n      jump\t// out\n        /* \"#utility.yul\":28401:28767   */\n    tag_404:\n        /* \"#utility.yul\":28543:28546   */\n      0x00\n        /* \"#utility.yul\":28564:28631   */\n      tag_679\n        /* \"#utility.yul\":28628:28630   */\n      0x10\n        /* \"#utility.yul\":28623:28626   */\n      dup4\n        /* \"#utility.yul\":28564:28631   */\n      tag_364\n      jump\t// in\n    tag_679:\n        /* \"#utility.yul\":28557:28631   */\n      swap2\n      pop\n        /* \"#utility.yul\":28640:28733   */\n      tag_680\n        /* \"#utility.yul\":28729:28732   */\n      dup3\n        /* \"#utility.yul\":28640:28733   */\n      tag_403\n      jump\t// in\n    tag_680:\n        /* \"#utility.yul\":28758:28760   */\n      0x20\n        /* \"#utility.yul\":28753:28756   */\n      dup3\n        /* \"#utility.yul\":28749:28761   */\n      add\n        /* \"#utility.yul\":28742:28761   */\n      swap1\n      pop\n        /* \"#utility.yul\":28401:28767   */\n      swap2\n      swap1\n      pop\n      jump\t// out\n        /* \"#utility.yul\":28773:29192   */\n    tag_265:\n        /* \"#utility.yul\":28939:28943   */\n      0x00\n        /* \"#utility.yul\":28977:28979   */\n      0x20\n        /* \"#utility.yul\":28966:28975   */\n      dup3\n        /* \"#utility.yul\":28962:28980   */\n      add\n        /* \"#utility.yul\":28954:28980   */\n      swap1\n      pop\n        /* \"#utility.yul\":29026:29035   */\n      dup2\n        /* \"#utility.yul\":29020:29024   */\n      dup2\n        /* \"#utility.yul\":29016:29036   */\n      sub\n        /* \"#utility.yul\":29012:29013   */\n      0x00\n        /* \"#utility.yul\":29001:29010   */\n      dup4\n        /* \"#utility.yul\":28997:29014   */\n      add\n        /* \"#utility.yul\":28990:29037   */\n      mstore\n        /* \"#utility.yul\":29054:29185   */\n      tag_682\n        /* \"#utility.yul\":29180:29184   */\n      dup2\n        /* \"#utility.yul\":29054:29185   */\n      tag_404\n      jump\t// in\n    tag_682:\n        /* \"#utility.yul\":29046:29185   */\n      swap1\n      pop\n        /* \"#utility.yul\":28773:29192   */\n      swap2\n      swap1\n      pop\n      jump\t// out\n        /* \"#utility.yul\":29198:29628   */\n    tag_270:\n        /* \"#utility.yul\":29341:29345   */\n      0x00\n        /* \"#utility.yul\":29379:29381   */\n      0x60\n        /* \"#utility.yul\":29368:29377   */\n      dup3\n        /* \"#utility.yul\":29364:29382   */\n      add\n        /* \"#utility.yul\":29356:29382   */\n      swap1\n      pop\n        /* \"#utility.yul\":29392:29463   */\n      tag_684\n        /* \"#utility.yul\":29460:29461   */\n      0x00\n        /* \"#utility.yul\":29449:29458   */\n      dup4\n        /* \"#utility.yul\":29445:29462   */\n      add\n        /* \"#utility.yul\":29436:29442   */\n      dup7\n        /* \"#utility.yul\":29392:29463   */\n      tag_356\n      jump\t// in\n    tag_684:\n        /* \"#utility.yul\":29473:29539   */\n      tag_685\n        /* \"#utility.yul\":29535:29537   */\n      0x20\n        /* \"#utility.yul\":29524:29533   */\n      dup4\n        /* \"#utility.yul\":29520:29538   */\n      add\n        /* \"#utility.yul\":29511:29517   */\n      dup6\n        /* \"#utility.yul\":29473:29539   */\n      tag_361\n      jump\t// in\n    tag_685:\n        /* \"#utility.yul\":29549:29621   */\n      tag_686\n        /* \"#utility.yul\":29617:29619   */\n      0x40\n        /* \"#utility.yul\":29606:29615   */\n      dup4\n        /* \"#utility.yul\":29602:29620   */\n      add\n        /* \"#utility.yul\":29593:29599   */\n      dup5\n        /* \"#utility.yul\":29549:29621   */\n      tag_357\n      jump\t// in\n    tag_686:\n        /* \"#utility.yul\":29198:29628   */\n      swap5\n      swap4\n      pop\n      pop\n      pop\n      pop\n      jump\t// out\n        /* \"#utility.yul\":29634:29807   */\n    tag_405:\n        /* \"#utility.yul\":29774:29799   */\n      0x41756374696f6e20616c72656164792073746172746564000000000000000000\n        /* \"#utility.yul\":29770:29771   */\n      0x00\n        /* \"#utility.yul\":29762:29768   */\n      dup3\n        /* \"#utility.yul\":29758:29772   */\n      add\n        /* \"#utility.yul\":29751:29800   */\n      mstore\n        /* \"#utility.yul\":29634:29807   */\n      pop\n      jump\t// out\n        /* \"#utility.yul\":29813:30179   */\n    tag_406:\n        /* \"#utility.yul\":29955:29958   */\n      0x00\n        /* \"#utility.yul\":29976:30043   */\n      tag_689\n        /* \"#utility.yul\":30040:30042   */\n      0x17\n        /* \"#utility.yul\":30035:30038   */\n      dup4\n        /* \"#utility.yul\":29976:30043   */\n      tag_364\n      jump\t// in\n    tag_689:\n        /* \"#utility.yul\":29969:30043   */\n      swap2\n      pop\n        /* \"#utility.yul\":30052:30145   */\n      tag_690\n        /* \"#utility.yul\":30141:30144   */\n      dup3\n        /* \"#utility.yul\":30052:30145   */\n      tag_405\n      jump\t// in\n    tag_690:\n        /* \"#utility.yul\":30170:30172   */\n      0x20\n        /* \"#utility.yul\":30165:30168   */\n      dup3\n        /* \"#utility.yul\":30161:30173   */\n      add\n        /* \"#utility.yul\":30154:30173   */\n      swap1\n      pop\n        /* \"#utility.yul\":29813:30179   */\n      swap2\n      swap1\n      pop\n      jump\t// out\n        /* \"#utility.yul\":30185:30604   */\n    tag_287:\n        /* \"#utility.yul\":30351:30355   */\n      0x00\n        /* \"#utility.yul\":30389:30391   */\n      0x20\n        /* \"#utility.yul\":30378:30387   */\n      dup3\n        /* \"#utility.yul\":30374:30392   */\n      add\n        /* \"#utility.yul\":30366:30392   */\n      swap1\n      pop\n        /* \"#utility.yul\":30438:30447   */\n      dup2\n        /* \"#utility.yul\":30432:30436   */\n      dup2\n        /* \"#utility.yul\":30428:30448   */\n      sub\n        /* \"#utility.yul\":30424:30425   */\n      0x00\n        /* \"#utility.yul\":30413:30422   */\n      dup4\n        /* \"#utility.yul\":30409:30426   */\n      add\n        /* \"#utility.yul\":30402:30449   */\n      mstore\n        /* \"#utility.yul\":30466:30597   */\n      tag_692\n        /* \"#utility.yul\":30592:30596   */\n      dup2\n        /* \"#utility.yul\":30466:30597   */\n      tag_406\n      jump\t// in\n    tag_692:\n        /* \"#utility.yul\":30458:30597   */\n      swap1\n      pop\n        /* \"#utility.yul\":30185:30604   */\n      swap2\n      swap1\n      pop\n      jump\t// out\n        /* \"#utility.yul\":30610:30843   */\n    tag_289:\n        /* \"#utility.yul\":30649:30652   */\n      0x00\n        /* \"#utility.yul\":30672:30696   */\n      tag_694\n        /* \"#utility.yul\":30690:30695   */\n      dup3\n        /* \"#utility.yul\":30672:30696   */\n      tag_341\n      jump\t// in\n    tag_694:\n        /* \"#utility.yul\":30663:30696   */\n      swap2\n      pop\n        /* \"#utility.yul\":30718:30784   */\n      0xffffffffffffffffffffffffffffffffffffffffffffffffffffffffffffffff\n        /* \"#utility.yul\":30711:30716   */\n      dup3\n        /* \"#utility.yul\":30708:30785   */\n      sub\n        /* \"#utility.yul\":30705:30808   */\n      tag_695\n      jumpi\n        /* \"#utility.yul\":30788:30806   */\n      tag_696\n      tag_380\n      jump\t// in\n    tag_696:\n        /* \"#utility.yul\":30705:30808   */\n    tag_695:\n        /* \"#utility.yul\":30835:30836   */\n      0x01\n        /* \"#utility.yul\":30828:30833   */\n      dup3\n        /* \"#utility.yul\":30824:30837   */\n      add\n        /* \"#utility.yul\":30817:30837   */\n      swap1\n      pop\n        /* \"#utility.yul\":30610:30843   */\n      swap2\n      swap1\n      pop\n      jump\t// out\n        /* \"#utility.yul\":30849:31029   */\n    tag_325:\n        /* \"#utility.yul\":30897:30974   */\n      0x4e487b7100000000000000000000000000000000000000000000000000000000\n        /* \"#utility.yul\":30894:30895   */\n      0x00\n        /* \"#utility.yul\":30887:30975   */\n      mstore\n        /* \"#utility.yul\":30994:30998   */\n      0x32\n        /* \"#utility.yul\":30991:30992   */\n      0x04\n        /* \"#utility.yul\":30984:30999   */\n      mstore\n        /* \"#utility.yul\":31018:31022   */\n      0x24\n        /* \"#utility.yul\":31015:31016   */\n      0x00\n        /* \"#utility.yul\":31008:31023   */\n      revert\n\n    auxdata: 0xa26469706673582212205b884d84c450a7b9f8651770d192b5f6089f02c92b39296ad4d05e699f0124d664736f6c63430008140033\n}\n",
				"bytecode": {
					"linkReferences": {},
					"object": "6080604052670de0b6b3a76400006003556a0422ca8b0a00a42500000060045569d3c21bcecceda100000060055560b4600755600160095f6101000a81548160ff02191690831515021790555034801562000058575f80fd5b5060405162002c1638038062002c1683398181016040528101906200007e9190620002cd565b335f73ffffffffffffffffffffffffffffffffffffffff168173ffffffffffffffffffffffffffffffffffffffff1603620000f2575f6040517f1e4fbdf7000000000000000000000000000000000000000000000000000000008152600401620000e9919062000323565b60405180910390fd5b6200010381620001a760201b60201c565b508160025f6101000a81548173ffffffffffffffffffffffffffffffffffffffff021916908373ffffffffffffffffffffffffffffffffffffffff16021790555080600960016101000a81548173ffffffffffffffffffffffffffffffffffffffff021916908373ffffffffffffffffffffffffffffffffffffffff160217905550600160095f6101000a81548160ff02191690831515021790555050506200033e565b5f805f9054906101000a900473ffffffffffffffffffffffffffffffffffffffff169050815f806101000a81548173ffffffffffffffffffffffffffffffffffffffff021916908373ffffffffffffffffffffffffffffffffffffffff1602179055508173ffffffffffffffffffffffffffffffffffffffff168173ffffffffffffffffffffffffffffffffffffffff167f8be0079c531659141344cd1fd0a4f28419497f9722a3daafe3b4186f6b6457e060405160405180910390a35050565b5f80fd5b5f73ffffffffffffffffffffffffffffffffffffffff82169050919050565b5f62000297826200026c565b9050919050565b620002a9816200028b565b8114620002b4575f80fd5b50565b5f81519050620002c7816200029e565b92915050565b5f8060408385031215620002e657620002e562000268565b5b5f620002f585828601620002b7565b92505060206200030885828601620002b7565b9150509250929050565b6200031d816200028b565b82525050565b5f602082019050620003385f83018462000312565b92915050565b6128ca806200034c5f395ff3fe608060405234801561000f575f80fd5b50600436106101cd575f3560e01c8063715018a611610102578063b187bd26116100a0578063d358aa201161006f578063d358aa20146104fa578063e0202f8714610518578063f2fde38b14610536578063fa6770b314610552576101cd565b8063b187bd2614610482578063bb4d5e7c146104a0578063bf4dd131146104be578063c54e44eb146104dc576101cd565b80638c65c81f116100dc5780638c65c81f146103e75780638da5cb5b1461041857806391b7f5ed14610436578063a24bcf4614610452576101cd565b8063715018a6146103a15780637ff9b596146103ab5780638a19c8bc146103c9576101cd565b806330db6f951161016f57806348a5c1881161014957806348a5c1881461031a5780635b10493f1461034a57806364e39b871461037b5780636b64c76914610397576101cd565b806330db6f95146102ad5780633c830a38146102c95780633e6968b6146102fc576101cd565b8063174e31c4116101ab578063174e31c41461023957806318d7fa46146102555780632194f3a214610271578063224a80571461028f576101cd565b8063044215c6146101d15780630752881a14610201578063144fa6d71461021d575b5f80fd5b6101eb60048036038101906101e691906119c7565b610572565b6040516101f89190611a6c565b60405180910390f35b61021b60048036038101906102169190611ad1565b6105ad565b005b61023760048036038101906102329190611b0f565b610df6565b005b610253600480360381019061024e9190611b64565b610e61565b005b61026f600480360381019061026a9190611ba2565b611183565b005b61027961120f565b6040516102869190611c01565b60405180910390f35b610297611235565b6040516102a49190611c29565b60405180910390f35b6102c760048036038101906102c29190611c77565b61123b565b005b6102e360048036038101906102de91906119c7565b61129a565b6040516102f39493929190611ca2565b60405180910390f35b6103046112c6565b6040516103119190611c29565b60405180910390f35b610334600480360381019061032f9190611ce5565b611358565b6040516103419190611c29565b60405180910390f35b610364600480360381019061035f9190611d23565b6113c4565b604051610372929190611d4e565b60405180910390f35b61039560048036038101906103909190611d23565b6113e4565b005b61039f611430565b005b6103a96115b5565b005b6103b36115c8565b6040516103c09190611c29565b60405180910390f35b6103d16115ce565b6040516103de9190611c29565b60405180910390f35b61040160048036038101906103fc91906119c7565b6115d4565b60405161040f929190611d4e565b60405180910390f35b6104206115f4565b60405161042d9190611c01565b60405180910390f35b610450600480360381019061044b91906119c7565b61161b565b005b61046c600480360381019061046791906119c7565b61162d565b6040516104799190611c29565b60405180910390f35b61048a611656565b6040516104979190611d84565b60405180910390f35b6104a8611668565b6040516104b59190611c29565b60405180910390f35b6104c661166e565b6040516104d39190611c29565b60405180910390f35b6104e4611674565b6040516104f19190611a6c565b60405180910390f35b610502611699565b60405161050f9190611dbd565b60405180910390f35b6105206116be565b60405161052d9190611c29565b60405180910390f35b610550600480360381019061054b9190611d23565b6116c4565b005b61055a611748565b60405161056993929190611dd6565b60405180910390f35b600a8181548110610581575f80fd5b905f5260205f20015f915054906101000a900473ffffffffffffffffffffffffffffffffffffffff1681565b60095f9054906101000a900460ff16156105fc576040517f08c379a00000000000000000000000000000000000000000000000000000000081526004016105f390611e65565b60405180910390fd5b600b5f60085481526020019081526020015f2060010154421115610655576040517f08c379a000000000000000000000000000000000000000000000000000000000815260040161064c90611ecd565b60405180910390fd5b5f61065e6112c6565b905060078111156106a4576040517f08c379a000000000000000000000000000000000000000000000000000000000815260040161069b90611f35565b60405180910390fd5b5f600c5f8381526020019081526020015f2090506007820361071a57600b5f60085481526020019081526020015f2060010154421115610719576040517f08c379a000000000000000000000000000000000000000000000000000000000815260040161071090611f9d565b60405180910390fd5b5b60068214806107295750600782145b156107cf5760025f9054906101000a900473ffffffffffffffffffffffffffffffffffffffff1673ffffffffffffffffffffffffffffffffffffffff166370a08231306040518263ffffffff1660e01b81526004016107889190611c01565b602060405180830381865afa1580156107a3573d5f803e3d5ffd5b505050506040513d601f19601f820116820180604052508101906107c79190611fcf565b815f01819055505b60095f9054906101000a900460ff161561081e576040517f08c379a000000000000000000000000000000000000000000000000000000000815260040161081590612044565b60405180910390fd5b600454816001015410610866576040517f08c379a000000000000000000000000000000000000000000000000000000000815260040161085d906120ac565b60405180910390fd5b6005548160020154106108ae576040517f08c379a00000000000000000000000000000000000000000000000000000000081526004016108a5906120ac565b60405180910390fd5b6108b78461178c565b6108f6576040517f08c379a00000000000000000000000000000000000000000000000000000000081526004016108ed90612114565b60405180910390fd5b5f670de0b6b3a76400006003548561090e919061215f565b61091891906121cd565b90508473ffffffffffffffffffffffffffffffffffffffff166323b872dd33600960019054906101000a900473ffffffffffffffffffffffffffffffffffffffff16846040518463ffffffff1660e01b8152600401610979939291906121fd565b6020604051808303815f875af1158015610995573d5f803e3d5ffd5b505050506040513d601f19601f820116820180604052508101906109b99190612246565b6109f8576040517f08c379a00000000000000000000000000000000000000000000000000000000081526004016109ef906122bb565b60405180910390fd5b5f825f0154858460010154610a0d91906122d9565b1115610b3e57825f015483600101541115610a48578260010154858460010154610a3791906122d9565b610a41919061230c565b9050610a69565b825f0154858460010154610a5c91906122d9565b610a66919061230c565b90505b80836002015f828254610a7c91906122d9565b9250508190555080600d5f3373ffffffffffffffffffffffffffffffffffffffff1673ffffffffffffffffffffffffffffffffffffffff1681526020019081526020015f206001015f828254610ad291906122d9565b92505081905550826003015481610ae9919061215f565b600d5f3373ffffffffffffffffffffffffffffffffffffffff1673ffffffffffffffffffffffffffffffffffffffff1681526020019081526020015f205f015f828254610b3691906122d9565b925050819055505b8460065f828254610b4f91906122d9565b9250508190555084836001015f828254610b6991906122d9565b925050819055505f8060025f9054906101000a900473ffffffffffffffffffffffffffffffffffffffff1673ffffffffffffffffffffffffffffffffffffffff16638b3f863f336040518263ffffffff1660e01b8152600401610bcc9190611c01565b5f60405180830381865afa158015610be6573d5f803e3d5ffd5b505050506040513d5f823e3d601f19601f82011682018060405250810190610c0e9190612495565b905060075442610c1e91906122d9565b915060025f9054906101000a900473ffffffffffffffffffffffffffffffffffffffff1673ffffffffffffffffffffffffffffffffffffffff1663e2ab691d3389856040518463ffffffff1660e01b8152600401610c7e939291906124dc565b6020604051808303815f875af1158015610c9a573d5f803e3d5ffd5b505050506040513d601f19601f82011682018060405250810190610cbe9190612246565b5060025f9054906101000a900473ffffffffffffffffffffffffffffffffffffffff1673ffffffffffffffffffffffffffffffffffffffff1663a9059cbb33896040518363ffffffff1660e01b8152600401610d1b929190612511565b6020604051808303815f875af1158015610d37573d5f803e3d5ffd5b505050506040513d601f19601f82011682018060405250810190610d5b9190612246565b610d9a576040517f08c379a0000000000000000000000000000000000000000000000000000000008152600401610d9190612582565b60405180910390fd5b3373ffffffffffffffffffffffffffffffffffffffff167f0d1a0d5e3d583a0e92588799dd06e50fd78c07daf05f0cc06d7b848b1ca445f1858985604051610de493929190611dd6565b60405180910390a25050505050505050565b610dfe611834565b600a81908060018154018082558091505060019003905f5260205f20015f9091909190916101000a81548173ffffffffffffffffffffffffffffffffffffffff021916908373ffffffffffffffffffffffffffffffffffffffff16021790555050565b60095f9054906101000a900460ff16610eaf576040517f08c379a0000000000000000000000000000000000000000000000000000000008152600401610ea6906125ea565b60405180910390fd5b600b5f60085481526020019081526020015f20600101544211610f07576040517f08c379a0000000000000000000000000000000000000000000000000000000008152600401610efe90612652565b60405180910390fd5b5f600d5f8473ffffffffffffffffffffffffffffffffffffffff1673ffffffffffffffffffffffffffffffffffffffff1681526020019081526020015f205f0154118015610f945750600d5f8373ffffffffffffffffffffffffffffffffffffffff1673ffffffffffffffffffffffffffffffffffffffff1681526020019081526020015f205f01548111155b610fd3576040517f08c379a0000000000000000000000000000000000000000000000000000000008152600401610fca906126ba565b60405180910390fd5b80600d5f8473ffffffffffffffffffffffffffffffffffffffff1673ffffffffffffffffffffffffffffffffffffffff1681526020019081526020015f205f015f828254611021919061230c565b9250508190555060025f9054906101000a900473ffffffffffffffffffffffffffffffffffffffff1673ffffffffffffffffffffffffffffffffffffffff1663a9059cbb83836040518363ffffffff1660e01b8152600401611084929190612511565b6020604051808303815f875af11580156110a0573d5f803e3d5ffd5b505050506040513d601f19601f820116820180604052508101906110c49190612246565b611103576040517f08c379a00000000000000000000000000000000000000000000000000000000081526004016110fa90612582565b60405180910390fd5b7f622cc013916970f2d0437da0b597aa7a3d762effad3652011e32375c7e455b3182600d5f8573ffffffffffffffffffffffffffffffffffffffff1673ffffffffffffffffffffffffffffffffffffffff1681526020019081526020015f205f0154834260405161117794939291906126d8565b60405180910390a15050565b61118b611834565b60078310801561119a57505f83115b6111d9576040517f08c379a00000000000000000000000000000000000000000000000000000000081526004016111d090612765565b60405180910390fd5b80600c5f8581526020019081526020015f206003018190555081600c5f8581526020019081526020015f205f0181905550505050565b600960019054906101000a900473ffffffffffffffffffffffffffffffffffffffff1681565b60055481565b611243611834565b8060095f6101000a81548160ff0219169083151502179055507f237dd0cdf7b3af1cfa9eb04b654f1babb43ddaad2183a8863d9fea7d857aacd633824260405161128f93929190612783565b60405180910390a150565b600c602052805f5260405f205f91509050805f0154908060010154908060020154908060030154905084565b5f80600b5f60085481526020019081526020015f20905060095f9054906101000a900460ff16806112fa5750806001015442115b15611309576008915050611355565b5f815f015442611319919061230c565b90505f6001620151808361132d91906121cd565b61133791906122d9565b9050600781111561134e5760079350505050611355565b8093505050505b90565b5f80600b5f8581526020019081526020015f2090505f816002015f8581526020019081526020015f206040518060800160405290815f82015481526020016001820154815260200160028201548152602001600382015481525050905080602001519250505092915050565b600d602052805f5260405f205f91509050805f0154908060010154905082565b6113ec611834565b80600960016101000a81548173ffffffffffffffffffffffffffffffffffffffff021916908373ffffffffffffffffffffffffffffffffffffffff16021790555050565b611438611834565b60095f9054906101000a900460ff16611486576040517f08c379a000000000000000000000000000000000000000000000000000000000815260040161147d90612802565b60405180910390fd5b5f60095f6101000a81548160ff02191690831515021790555060085f8154809291906114b190612820565b91905055505f600b5f60085481526020019081526020015f20905042815f018190555062093a80426114e391906122d9565b81600101819055505f600190505b6007811161156d576a01a784379d99db42000000600c5f8381526020019081526020015f205f0181905550600581111561153c5760068114611534576001611537565b60025b61153f565b60035b60ff16600c5f8381526020019081526020015f2060030181905550808061156590612820565b9150506114f1565b507f683d0f47c7fa11331f4e9563b3f5a7fdc3d3c5b75c600357a91d991f5a13a437600854825f015483600101546040516115aa93929190611dd6565b60405180910390a150565b6115bd611834565b6115c65f6118bb565b565b60035481565b60085481565b600b602052805f5260405f205f91509050805f0154908060010154905082565b5f805f9054906101000a900473ffffffffffffffffffffffffffffffffffffffff16905090565b611623611834565b8060038190555050565b5f600354670de0b6b3a764000083611645919061215f565b61164f91906121cd565b9050919050565b60095f9054906101000a900460ff1681565b60045481565b60075481565b60015f9054906101000a900473ffffffffffffffffffffffffffffffffffffffff1681565b60025f9054906101000a900473ffffffffffffffffffffffffffffffffffffffff1681565b60065481565b6116cc611834565b5f73ffffffffffffffffffffffffffffffffffffffff168173ffffffffffffffffffffffffffffffffffffffff160361173c575f6040517f1e4fbdf70000000000000000000000000000000000000000000000000000000081526004016117339190611c01565b60405180910390fd5b611745816118bb565b50565b5f805f600854925082600b5f60085481526020019081526020015f205f0154925082600b5f60085481526020019081526020015f2060010154925092509250909192565b5f805f90505b600a8054905081101561182a578273ffffffffffffffffffffffffffffffffffffffff16600a82815481106117ca576117c9612867565b5b905f5260205f20015f9054906101000a900473ffffffffffffffffffffffffffffffffffffffff1673ffffffffffffffffffffffffffffffffffffffff160361181757600191505061182f565b808061182290612820565b915050611792565b505f90505b919050565b61183c61197c565b73ffffffffffffffffffffffffffffffffffffffff1661185a6115f4565b73ffffffffffffffffffffffffffffffffffffffff16146118b95761187d61197c565b6040517f118cdaa70000000000000000000000000000000000000000000000000000000081526004016118b09190611c01565b60405180910390fd5b565b5f805f9054906101000a900473ffffffffffffffffffffffffffffffffffffffff169050815f806101000a81548173ffffffffffffffffffffffffffffffffffffffff021916908373ffffffffffffffffffffffffffffffffffffffff1602179055508173ffffffffffffffffffffffffffffffffffffffff168173ffffffffffffffffffffffffffffffffffffffff167f8be0079c531659141344cd1fd0a4f28419497f9722a3daafe3b4186f6b6457e060405160405180910390a35050565b5f33905090565b5f604051905090565b5f80fd5b5f80fd5b5f819050919050565b6119a681611994565b81146119b0575f80fd5b50565b5f813590506119c18161199d565b92915050565b5f602082840312156119dc576119db61198c565b5b5f6119e9848285016119b3565b91505092915050565b5f73ffffffffffffffffffffffffffffffffffffffff82169050919050565b5f819050919050565b5f611a34611a2f611a2a846119f2565b611a11565b6119f2565b9050919050565b5f611a4582611a1a565b9050919050565b5f611a5682611a3b565b9050919050565b611a6681611a4c565b82525050565b5f602082019050611a7f5f830184611a5d565b92915050565b5f611a8f826119f2565b9050919050565b5f611aa082611a85565b9050919050565b611ab081611a96565b8114611aba575f80fd5b50565b5f81359050611acb81611aa7565b92915050565b5f8060408385031215611ae757611ae661198c565b5b5f611af485828601611abd565b9250506020611b05858286016119b3565b9150509250929050565b5f60208284031215611b2457611b2361198c565b5b5f611b3184828501611abd565b91505092915050565b611b4381611a85565b8114611b4d575f80fd5b50565b5f81359050611b5e81611b3a565b92915050565b5f8060408385031215611b7a57611b7961198c565b5b5f611b8785828601611b50565b9250506020611b98858286016119b3565b9150509250929050565b5f805f60608486031215611bb957611bb861198c565b5b5f611bc6868287016119b3565b9350506020611bd7868287016119b3565b9250506040611be8868287016119b3565b9150509250925092565b611bfb81611a85565b82525050565b5f602082019050611c145f830184611bf2565b92915050565b611c2381611994565b82525050565b5f602082019050611c3c5f830184611c1a565b92915050565b5f8115159050919050565b611c5681611c42565b8114611c60575f80fd5b50565b5f81359050611c7181611c4d565b92915050565b5f60208284031215611c8c57611c8b61198c565b5b5f611c9984828501611c63565b91505092915050565b5f608082019050611cb55f830187611c1a565b611cc26020830186611c1a565b611ccf6040830185611c1a565b611cdc6060830184611c1a565b95945050505050565b5f8060408385031215611cfb57611cfa61198c565b5b5f611d08858286016119b3565b9250506020611d19858286016119b3565b9150509250929050565b5f60208284031215611d3857611d3761198c565b5b5f611d4584828501611b50565b91505092915050565b5f604082019050611d615f830185611c1a565b611d6e6020830184611c1a565b9392505050565b611d7e81611c42565b82525050565b5f602082019050611d975f830184611d75565b92915050565b5f611da782611a3b565b9050919050565b611db781611d9d565b82525050565b5f602082019050611dd05f830184611dae565b92915050565b5f606082019050611de95f830186611c1a565b611df66020830185611c1a565b611e036040830184611c1a565b949350505050565b5f82825260208201905092915050565b7f41756374696f6e206973207061757365640000000000000000000000000000005f82015250565b5f611e4f601183611e0b565b9150611e5a82611e1b565b602082019050919050565b5f6020820190508181035f830152611e7c81611e43565b9050919050565b7f43757272656e7420726f756e642068617320656e6465640000000000000000005f82015250565b5f611eb7601783611e0b565b9150611ec282611e83565b602082019050919050565b5f6020820190508181035f830152611ee481611eab565b9050919050565b7f41756374696f6e20646179732061726520636f6d706c657465000000000000005f82015250565b5f611f1f601983611e0b565b9150611f2a82611eeb565b602082019050919050565b5f6020820190508181035f830152611f4c81611f13565b9050919050565b7f41756374696f6e20726f756e642068617320656e6465640000000000000000005f82015250565b5f611f87601783611e0b565b9150611f9282611f53565b602082019050919050565b5f6020820190508181035f830152611fb481611f7b565b9050919050565b5f81519050611fc98161199d565b92915050565b5f60208284031215611fe457611fe361198c565b5b5f611ff184828501611fbb565b91505092915050565b7f41756374696f6e205061757365640000000000000000000000000000000000005f82015250565b5f61202e600e83611e0b565b915061203982611ffa565b602082019050919050565b5f6020820190508181035f83015261205b81612022565b9050919050565b7f4e6f74206d6f7265207468616e206c696d6974000000000000000000000000005f82015250565b5f612096601383611e0b565b91506120a182612062565b602082019050919050565b5f6020820190508181035f8301526120c38161208a565b9050919050565b7f496e76616c696420746f6b656e206164647265737300000000000000000000005f82015250565b5f6120fe601583611e0b565b9150612109826120ca565b602082019050919050565b5f6020820190508181035f83015261212b816120f2565b9050919050565b7f4e487b71000000000000000000000000000000000000000000000000000000005f52601160045260245ffd5b5f61216982611994565b915061217483611994565b925082820261218281611994565b9150828204841483151761219957612198612132565b5b5092915050565b7f4e487b71000000000000000000000000000000000000000000000000000000005f52601260045260245ffd5b5f6121d782611994565b91506121e283611994565b9250826121f2576121f16121a0565b5b828204905092915050565b5f6060820190506122105f830186611bf2565b61221d6020830185611bf2565b61222a6040830184611c1a565b949350505050565b5f8151905061224081611c4d565b92915050565b5f6020828403121561225b5761225a61198c565b5b5f61226884828501612232565b91505092915050565b7f55534454207472616e73666572206661696c65640000000000000000000000005f82015250565b5f6122a5601483611e0b565b91506122b082612271565b602082019050919050565b5f6020820190508181035f8301526122d281612299565b9050919050565b5f6122e382611994565b91506122ee83611994565b925082820190508082111561230657612305612132565b5b92915050565b5f61231682611994565b915061232183611994565b925082820390508181111561233957612338612132565b5b92915050565b5f80fd5b5f80fd5b5f601f19601f8301169050919050565b7f4e487b71000000000000000000000000000000000000000000000000000000005f52604160045260245ffd5b61238d82612347565b810181811067ffffffffffffffff821117156123ac576123ab612357565b5b80604052505050565b5f6123be611983565b90506123ca8282612384565b919050565b5f67ffffffffffffffff8211156123e9576123e8612357565b5b6123f282612347565b9050602081019050919050565b5f5b8381101561241c578082015181840152602081019050612401565b5f8484015250505050565b5f612439612434846123cf565b6123b5565b90508281526020810184848401111561245557612454612343565b5b6124608482856123ff565b509392505050565b5f82601f83011261247c5761247b61233f565b5b815161248c848260208601612427565b91505092915050565b5f602082840312156124aa576124a961198c565b5b5f82015167ffffffffffffffff8111156124c7576124c6611990565b5b6124d384828501612468565b91505092915050565b5f6060820190506124ef5f830186611bf2565b6124fc6020830185611c1a565b6125096040830184611c1a565b949350505050565b5f6040820190506125245f830185611bf2565b6125316020830184611c1a565b9392505050565b7f50726f746f6e20746f6b656e207472616e73666572206661696c6564000000005f82015250565b5f61256c601c83611e0b565b915061257782612538565b602082019050919050565b5f6020820190508181035f83015261259981612560565b9050919050565b7f41756374696f6e206973207374696c6c206163746976650000000000000000005f82015250565b5f6125d4601783611e0b565b91506125df826125a0565b602082019050919050565b5f6020820190508181035f830152612601816125c8565b9050919050565b7f41756374696f6e206461797320617265206e6f7420636f6d706c6574650000005f82015250565b5f61263c601d83611e0b565b915061264782612608565b602082019050919050565b5f6020820190508181035f83015261266981612630565b9050919050565b7f496e636f72726563742076616c756500000000000000000000000000000000005f82015250565b5f6126a4600f83611e0b565b91506126af82612670565b602082019050919050565b5f6020820190508181035f8301526126d181612698565b9050919050565b5f6080820190506126eb5f830187611bf2565b6126f86020830186611c1a565b6127056040830185611c1a565b6127126060830184611c1a565b95945050505050565b7f4552524f523a204441592076616c7565000000000000000000000000000000005f82015250565b5f61274f601083611e0b565b915061275a8261271b565b602082019050919050565b5f6020820190508181035f83015261277c81612743565b9050919050565b5f6060820190506127965f830186611bf2565b6127a36020830185611d75565b6127b06040830184611c1a565b949350505050565b7f41756374696f6e20616c726561647920737461727465640000000000000000005f82015250565b5f6127ec601783611e0b565b91506127f7826127b8565b602082019050919050565b5f6020820190508181035f830152612819816127e0565b9050919050565b5f61282a82611994565b91507fffffffffffffffffffffffffffffffffffffffffffffffffffffffffffffffff820361285c5761285b612132565b5b600182019050919050565b7f4e487b71000000000000000000000000000000000000000000000000000000005f52603260045260245ffdfea26469706673582212205b884d84c450a7b9f8651770d192b5f6089f02c92b39296ad4d05e699f0124d664736f6c63430008140033",
					"opcodes": "PUSH1 0x80 PUSH1 0x40 MSTORE PUSH8 0xDE0B6B3A7640000 PUSH1 0x3 SSTORE PUSH11 0x422CA8B0A00A425000000 PUSH1 0x4 SSTORE PUSH10 0xD3C21BCECCEDA1000000 PUSH1 0x5 SSTORE PUSH1 0xB4 PUSH1 0x7 SSTORE PUSH1 0x1 PUSH1 0x9 PUSH0 PUSH2 0x100 EXP DUP2 SLOAD DUP2 PUSH1 0xFF MUL NOT AND SWAP1 DUP4 ISZERO ISZERO MUL OR SWAP1 SSTORE POP CALLVALUE DUP1 ISZERO PUSH3 0x58 JUMPI PUSH0 DUP1 REVERT JUMPDEST POP PUSH1 0x40 MLOAD PUSH3 0x2C16 CODESIZE SUB DUP1 PUSH3 0x2C16 DUP4 CODECOPY DUP2 DUP2 ADD PUSH1 0x40 MSTORE DUP2 ADD SWAP1 PUSH3 0x7E SWAP2 SWAP1 PUSH3 0x2CD JUMP JUMPDEST CALLER PUSH0 PUSH20 0xFFFFFFFFFFFFFFFFFFFFFFFFFFFFFFFFFFFFFFFF AND DUP2 PUSH20 0xFFFFFFFFFFFFFFFFFFFFFFFFFFFFFFFFFFFFFFFF AND SUB PUSH3 0xF2 JUMPI PUSH0 PUSH1 0x40 MLOAD PUSH32 0x1E4FBDF700000000000000000000000000000000000000000000000000000000 DUP2 MSTORE PUSH1 0x4 ADD PUSH3 0xE9 SWAP2 SWAP1 PUSH3 0x323 JUMP JUMPDEST PUSH1 0x40 MLOAD DUP1 SWAP2 SUB SWAP1 REVERT JUMPDEST PUSH3 0x103 DUP2 PUSH3 0x1A7 PUSH1 0x20 SHL PUSH1 0x20 SHR JUMP JUMPDEST POP DUP2 PUSH1 0x2 PUSH0 PUSH2 0x100 EXP DUP2 SLOAD DUP2 PUSH20 0xFFFFFFFFFFFFFFFFFFFFFFFFFFFFFFFFFFFFFFFF MUL NOT AND SWAP1 DUP4 PUSH20 0xFFFFFFFFFFFFFFFFFFFFFFFFFFFFFFFFFFFFFFFF AND MUL OR SWAP1 SSTORE POP DUP1 PUSH1 0x9 PUSH1 0x1 PUSH2 0x100 EXP DUP2 SLOAD DUP2 PUSH20 0xFFFFFFFFFFFFFFFFFFFFFFFFFFFFFFFFFFFFFFFF MUL NOT AND SWAP1 DUP4 PUSH20 0xFFFFFFFFFFFFFFFFFFFFFFFFFFFFFFFFFFFFFFFF AND MUL OR SWAP1 SSTORE POP PUSH1 0x1 PUSH1 0x9 PUSH0 PUSH2 0x100 EXP DUP2 SLOAD DUP2 PUSH1 0xFF MUL NOT AND SWAP1 DUP4 ISZERO ISZERO MUL OR SWAP1 SSTORE POP POP POP PUSH3 0x33E JUMP JUMPDEST PUSH0 DUP1 PUSH0 SWAP1 SLOAD SWAP1 PUSH2 0x100 EXP SWAP1 DIV PUSH20 0xFFFFFFFFFFFFFFFFFFFFFFFFFFFFFFFFFFFFFFFF AND SWAP1 POP DUP2 PUSH0 DUP1 PUSH2 0x100 EXP DUP2 SLOAD DUP2 PUSH20 0xFFFFFFFFFFFFFFFFFFFFFFFFFFFFFFFFFFFFFFFF MUL NOT AND SWAP1 DUP4 PUSH20 0xFFFFFFFFFFFFFFFFFFFFFFFFFFFFFFFFFFFFFFFF AND MUL OR SWAP1 SSTORE POP DUP2 PUSH20 0xFFFFFFFFFFFFFFFFFFFFFFFFFFFFFFFFFFFFFFFF AND DUP2 PUSH20 0xFFFFFFFFFFFFFFFFFFFFFFFFFFFFFFFFFFFFFFFF AND PUSH32 0x8BE0079C531659141344CD1FD0A4F28419497F9722A3DAAFE3B4186F6B6457E0 PUSH1 0x40 MLOAD PUSH1 0x40 MLOAD DUP1 SWAP2 SUB SWAP1 LOG3 POP POP JUMP JUMPDEST PUSH0 DUP1 REVERT JUMPDEST PUSH0 PUSH20 0xFFFFFFFFFFFFFFFFFFFFFFFFFFFFFFFFFFFFFFFF DUP3 AND SWAP1 POP SWAP2 SWAP1 POP JUMP JUMPDEST PUSH0 PUSH3 0x297 DUP3 PUSH3 0x26C JUMP JUMPDEST SWAP1 POP SWAP2 SWAP1 POP JUMP JUMPDEST PUSH3 0x2A9 DUP2 PUSH3 0x28B JUMP JUMPDEST DUP2 EQ PUSH3 0x2B4 JUMPI PUSH0 DUP1 REVERT JUMPDEST POP JUMP JUMPDEST PUSH0 DUP2 MLOAD SWAP1 POP PUSH3 0x2C7 DUP2 PUSH3 0x29E JUMP JUMPDEST SWAP3 SWAP2 POP POP JUMP JUMPDEST PUSH0 DUP1 PUSH1 0x40 DUP4 DUP6 SUB SLT ISZERO PUSH3 0x2E6 JUMPI PUSH3 0x2E5 PUSH3 0x268 JUMP JUMPDEST JUMPDEST PUSH0 PUSH3 0x2F5 DUP6 DUP3 DUP7 ADD PUSH3 0x2B7 JUMP JUMPDEST SWAP3 POP POP PUSH1 0x20 PUSH3 0x308 DUP6 DUP3 DUP7 ADD PUSH3 0x2B7 JUMP JUMPDEST SWAP2 POP POP SWAP3 POP SWAP3 SWAP1 POP JUMP JUMPDEST PUSH3 0x31D DUP2 PUSH3 0x28B JUMP JUMPDEST DUP3 MSTORE POP POP JUMP JUMPDEST PUSH0 PUSH1 0x20 DUP3 ADD SWAP1 POP PUSH3 0x338 PUSH0 DUP4 ADD DUP5 PUSH3 0x312 JUMP JUMPDEST SWAP3 SWAP2 POP POP JUMP JUMPDEST PUSH2 0x28CA DUP1 PUSH3 0x34C PUSH0 CODECOPY PUSH0 RETURN INVALID PUSH1 0x80 PUSH1 0x40 MSTORE CALLVALUE DUP1 ISZERO PUSH2 0xF JUMPI PUSH0 DUP1 REVERT JUMPDEST POP PUSH1 0x4 CALLDATASIZE LT PUSH2 0x1CD JUMPI PUSH0 CALLDATALOAD PUSH1 0xE0 SHR DUP1 PUSH4 0x715018A6 GT PUSH2 0x102 JUMPI DUP1 PUSH4 0xB187BD26 GT PUSH2 0xA0 JUMPI DUP1 PUSH4 0xD358AA20 GT PUSH2 0x6F JUMPI DUP1 PUSH4 0xD358AA20 EQ PUSH2 0x4FA JUMPI DUP1 PUSH4 0xE0202F87 EQ PUSH2 0x518 JUMPI DUP1 PUSH4 0xF2FDE38B EQ PUSH2 0x536 JUMPI DUP1 PUSH4 0xFA6770B3 EQ PUSH2 0x552 JUMPI PUSH2 0x1CD JUMP JUMPDEST DUP1 PUSH4 0xB187BD26 EQ PUSH2 0x482 JUMPI DUP1 PUSH4 0xBB4D5E7C EQ PUSH2 0x4A0 JUMPI DUP1 PUSH4 0xBF4DD131 EQ PUSH2 0x4BE JUMPI DUP1 PUSH4 0xC54E44EB EQ PUSH2 0x4DC JUMPI PUSH2 0x1CD JUMP JUMPDEST DUP1 PUSH4 0x8C65C81F GT PUSH2 0xDC JUMPI DUP1 PUSH4 0x8C65C81F EQ PUSH2 0x3E7 JUMPI DUP1 PUSH4 0x8DA5CB5B EQ PUSH2 0x418 JUMPI DUP1 PUSH4 0x91B7F5ED EQ PUSH2 0x436 JUMPI DUP1 PUSH4 0xA24BCF46 EQ PUSH2 0x452 JUMPI PUSH2 0x1CD JUMP JUMPDEST DUP1 PUSH4 0x715018A6 EQ PUSH2 0x3A1 JUMPI DUP1 PUSH4 0x7FF9B596 EQ PUSH2 0x3AB JUMPI DUP1 PUSH4 0x8A19C8BC EQ PUSH2 0x3C9 JUMPI PUSH2 0x1CD JUMP JUMPDEST DUP1 PUSH4 0x30DB6F95 GT PUSH2 0x16F JUMPI DUP1 PUSH4 0x48A5C188 GT PUSH2 0x149 JUMPI DUP1 PUSH4 0x48A5C188 EQ PUSH2 0x31A JUMPI DUP1 PUSH4 0x5B10493F EQ PUSH2 0x34A JUMPI DUP1 PUSH4 0x64E39B87 EQ PUSH2 0x37B JUMPI DUP1 PUSH4 0x6B64C769 EQ PUSH2 0x397 JUMPI PUSH2 0x1CD JUMP JUMPDEST DUP1 PUSH4 0x30DB6F95 EQ PUSH2 0x2AD JUMPI DUP1 PUSH4 0x3C830A38 EQ PUSH2 0x2C9 JUMPI DUP1 PUSH4 0x3E6968B6 EQ PUSH2 0x2FC JUMPI PUSH2 0x1CD JUMP JUMPDEST DUP1 PUSH4 0x174E31C4 GT PUSH2 0x1AB JUMPI DUP1 PUSH4 0x174E31C4 EQ PUSH2 0x239 JUMPI DUP1 PUSH4 0x18D7FA46 EQ PUSH2 0x255 JUMPI DUP1 PUSH4 0x2194F3A2 EQ PUSH2 0x271 JUMPI DUP1 PUSH4 0x224A8057 EQ PUSH2 0x28F JUMPI PUSH2 0x1CD JUMP JUMPDEST DUP1 PUSH4 0x44215C6 EQ PUSH2 0x1D1 JUMPI DUP1 PUSH4 0x752881A EQ PUSH2 0x201 JUMPI DUP1 PUSH4 0x144FA6D7 EQ PUSH2 0x21D JUMPI JUMPDEST PUSH0 DUP1 REVERT JUMPDEST PUSH2 0x1EB PUSH1 0x4 DUP1 CALLDATASIZE SUB DUP2 ADD SWAP1 PUSH2 0x1E6 SWAP2 SWAP1 PUSH2 0x19C7 JUMP JUMPDEST PUSH2 0x572 JUMP JUMPDEST PUSH1 0x40 MLOAD PUSH2 0x1F8 SWAP2 SWAP1 PUSH2 0x1A6C JUMP JUMPDEST PUSH1 0x40 MLOAD DUP1 SWAP2 SUB SWAP1 RETURN JUMPDEST PUSH2 0x21B PUSH1 0x4 DUP1 CALLDATASIZE SUB DUP2 ADD SWAP1 PUSH2 0x216 SWAP2 SWAP1 PUSH2 0x1AD1 JUMP JUMPDEST PUSH2 0x5AD JUMP JUMPDEST STOP JUMPDEST PUSH2 0x237 PUSH1 0x4 DUP1 CALLDATASIZE SUB DUP2 ADD SWAP1 PUSH2 0x232 SWAP2 SWAP1 PUSH2 0x1B0F JUMP JUMPDEST PUSH2 0xDF6 JUMP JUMPDEST STOP JUMPDEST PUSH2 0x253 PUSH1 0x4 DUP1 CALLDATASIZE SUB DUP2 ADD SWAP1 PUSH2 0x24E SWAP2 SWAP1 PUSH2 0x1B64 JUMP JUMPDEST PUSH2 0xE61 JUMP JUMPDEST STOP JUMPDEST PUSH2 0x26F PUSH1 0x4 DUP1 CALLDATASIZE SUB DUP2 ADD SWAP1 PUSH2 0x26A SWAP2 SWAP1 PUSH2 0x1BA2 JUMP JUMPDEST PUSH2 0x1183 JUMP JUMPDEST STOP JUMPDEST PUSH2 0x279 PUSH2 0x120F JUMP JUMPDEST PUSH1 0x40 MLOAD PUSH2 0x286 SWAP2 SWAP1 PUSH2 0x1C01 JUMP JUMPDEST PUSH1 0x40 MLOAD DUP1 SWAP2 SUB SWAP1 RETURN JUMPDEST PUSH2 0x297 PUSH2 0x1235 JUMP JUMPDEST PUSH1 0x40 MLOAD PUSH2 0x2A4 SWAP2 SWAP1 PUSH2 0x1C29 JUMP JUMPDEST PUSH1 0x40 MLOAD DUP1 SWAP2 SUB SWAP1 RETURN JUMPDEST PUSH2 0x2C7 PUSH1 0x4 DUP1 CALLDATASIZE SUB DUP2 ADD SWAP1 PUSH2 0x2C2 SWAP2 SWAP1 PUSH2 0x1C77 JUMP JUMPDEST PUSH2 0x123B JUMP JUMPDEST STOP JUMPDEST PUSH2 0x2E3 PUSH1 0x4 DUP1 CALLDATASIZE SUB DUP2 ADD SWAP1 PUSH2 0x2DE SWAP2 SWAP1 PUSH2 0x19C7 JUMP JUMPDEST PUSH2 0x129A JUMP JUMPDEST PUSH1 0x40 MLOAD PUSH2 0x2F3 SWAP5 SWAP4 SWAP3 SWAP2 SWAP1 PUSH2 0x1CA2 JUMP JUMPDEST PUSH1 0x40 MLOAD DUP1 SWAP2 SUB SWAP1 RETURN JUMPDEST PUSH2 0x304 PUSH2 0x12C6 JUMP JUMPDEST PUSH1 0x40 MLOAD PUSH2 0x311 SWAP2 SWAP1 PUSH2 0x1C29 JUMP JUMPDEST PUSH1 0x40 MLOAD DUP1 SWAP2 SUB SWAP1 RETURN JUMPDEST PUSH2 0x334 PUSH1 0x4 DUP1 CALLDATASIZE SUB DUP2 ADD SWAP1 PUSH2 0x32F SWAP2 SWAP1 PUSH2 0x1CE5 JUMP JUMPDEST PUSH2 0x1358 JUMP JUMPDEST PUSH1 0x40 MLOAD PUSH2 0x341 SWAP2 SWAP1 PUSH2 0x1C29 JUMP JUMPDEST PUSH1 0x40 MLOAD DUP1 SWAP2 SUB SWAP1 RETURN JUMPDEST PUSH2 0x364 PUSH1 0x4 DUP1 CALLDATASIZE SUB DUP2 ADD SWAP1 PUSH2 0x35F SWAP2 SWAP1 PUSH2 0x1D23 JUMP JUMPDEST PUSH2 0x13C4 JUMP JUMPDEST PUSH1 0x40 MLOAD PUSH2 0x372 SWAP3 SWAP2 SWAP1 PUSH2 0x1D4E JUMP JUMPDEST PUSH1 0x40 MLOAD DUP1 SWAP2 SUB SWAP1 RETURN JUMPDEST PUSH2 0x395 PUSH1 0x4 DUP1 CALLDATASIZE SUB DUP2 ADD SWAP1 PUSH2 0x390 SWAP2 SWAP1 PUSH2 0x1D23 JUMP JUMPDEST PUSH2 0x13E4 JUMP JUMPDEST STOP JUMPDEST PUSH2 0x39F PUSH2 0x1430 JUMP JUMPDEST STOP JUMPDEST PUSH2 0x3A9 PUSH2 0x15B5 JUMP JUMPDEST STOP JUMPDEST PUSH2 0x3B3 PUSH2 0x15C8 JUMP JUMPDEST PUSH1 0x40 MLOAD PUSH2 0x3C0 SWAP2 SWAP1 PUSH2 0x1C29 JUMP JUMPDEST PUSH1 0x40 MLOAD DUP1 SWAP2 SUB SWAP1 RETURN JUMPDEST PUSH2 0x3D1 PUSH2 0x15CE JUMP JUMPDEST PUSH1 0x40 MLOAD PUSH2 0x3DE SWAP2 SWAP1 PUSH2 0x1C29 JUMP JUMPDEST PUSH1 0x40 MLOAD DUP1 SWAP2 SUB SWAP1 RETURN JUMPDEST PUSH2 0x401 PUSH1 0x4 DUP1 CALLDATASIZE SUB DUP2 ADD SWAP1 PUSH2 0x3FC SWAP2 SWAP1 PUSH2 0x19C7 JUMP JUMPDEST PUSH2 0x15D4 JUMP JUMPDEST PUSH1 0x40 MLOAD PUSH2 0x40F SWAP3 SWAP2 SWAP1 PUSH2 0x1D4E JUMP JUMPDEST PUSH1 0x40 MLOAD DUP1 SWAP2 SUB SWAP1 RETURN JUMPDEST PUSH2 0x420 PUSH2 0x15F4 JUMP JUMPDEST PUSH1 0x40 MLOAD PUSH2 0x42D SWAP2 SWAP1 PUSH2 0x1C01 JUMP JUMPDEST PUSH1 0x40 MLOAD DUP1 SWAP2 SUB SWAP1 RETURN JUMPDEST PUSH2 0x450 PUSH1 0x4 DUP1 CALLDATASIZE SUB DUP2 ADD SWAP1 PUSH2 0x44B SWAP2 SWAP1 PUSH2 0x19C7 JUMP JUMPDEST PUSH2 0x161B JUMP JUMPDEST STOP JUMPDEST PUSH2 0x46C PUSH1 0x4 DUP1 CALLDATASIZE SUB DUP2 ADD SWAP1 PUSH2 0x467 SWAP2 SWAP1 PUSH2 0x19C7 JUMP JUMPDEST PUSH2 0x162D JUMP JUMPDEST PUSH1 0x40 MLOAD PUSH2 0x479 SWAP2 SWAP1 PUSH2 0x1C29 JUMP JUMPDEST PUSH1 0x40 MLOAD DUP1 SWAP2 SUB SWAP1 RETURN JUMPDEST PUSH2 0x48A PUSH2 0x1656 JUMP JUMPDEST PUSH1 0x40 MLOAD PUSH2 0x497 SWAP2 SWAP1 PUSH2 0x1D84 JUMP JUMPDEST PUSH1 0x40 MLOAD DUP1 SWAP2 SUB SWAP1 RETURN JUMPDEST PUSH2 0x4A8 PUSH2 0x1668 JUMP JUMPDEST PUSH1 0x40 MLOAD PUSH2 0x4B5 SWAP2 SWAP1 PUSH2 0x1C29 JUMP JUMPDEST PUSH1 0x40 MLOAD DUP1 SWAP2 SUB SWAP1 RETURN JUMPDEST PUSH2 0x4C6 PUSH2 0x166E JUMP JUMPDEST PUSH1 0x40 MLOAD PUSH2 0x4D3 SWAP2 SWAP1 PUSH2 0x1C29 JUMP JUMPDEST PUSH1 0x40 MLOAD DUP1 SWAP2 SUB SWAP1 RETURN JUMPDEST PUSH2 0x4E4 PUSH2 0x1674 JUMP JUMPDEST PUSH1 0x40 MLOAD PUSH2 0x4F1 SWAP2 SWAP1 PUSH2 0x1A6C JUMP JUMPDEST PUSH1 0x40 MLOAD DUP1 SWAP2 SUB SWAP1 RETURN JUMPDEST PUSH2 0x502 PUSH2 0x1699 JUMP JUMPDEST PUSH1 0x40 MLOAD PUSH2 0x50F SWAP2 SWAP1 PUSH2 0x1DBD JUMP JUMPDEST PUSH1 0x40 MLOAD DUP1 SWAP2 SUB SWAP1 RETURN JUMPDEST PUSH2 0x520 PUSH2 0x16BE JUMP JUMPDEST PUSH1 0x40 MLOAD PUSH2 0x52D SWAP2 SWAP1 PUSH2 0x1C29 JUMP JUMPDEST PUSH1 0x40 MLOAD DUP1 SWAP2 SUB SWAP1 RETURN JUMPDEST PUSH2 0x550 PUSH1 0x4 DUP1 CALLDATASIZE SUB DUP2 ADD SWAP1 PUSH2 0x54B SWAP2 SWAP1 PUSH2 0x1D23 JUMP JUMPDEST PUSH2 0x16C4 JUMP JUMPDEST STOP JUMPDEST PUSH2 0x55A PUSH2 0x1748 JUMP JUMPDEST PUSH1 0x40 MLOAD PUSH2 0x569 SWAP4 SWAP3 SWAP2 SWAP1 PUSH2 0x1DD6 JUMP JUMPDEST PUSH1 0x40 MLOAD DUP1 SWAP2 SUB SWAP1 RETURN JUMPDEST PUSH1 0xA DUP2 DUP2 SLOAD DUP2 LT PUSH2 0x581 JUMPI PUSH0 DUP1 REVERT JUMPDEST SWAP1 PUSH0 MSTORE PUSH1 0x20 PUSH0 KECCAK256 ADD PUSH0 SWAP2 POP SLOAD SWAP1 PUSH2 0x100 EXP SWAP1 DIV PUSH20 0xFFFFFFFFFFFFFFFFFFFFFFFFFFFFFFFFFFFFFFFF AND DUP2 JUMP JUMPDEST PUSH1 0x9 PUSH0 SWAP1 SLOAD SWAP1 PUSH2 0x100 EXP SWAP1 DIV PUSH1 0xFF AND ISZERO PUSH2 0x5FC JUMPI PUSH1 0x40 MLOAD PUSH32 0x8C379A000000000000000000000000000000000000000000000000000000000 DUP2 MSTORE PUSH1 0x4 ADD PUSH2 0x5F3 SWAP1 PUSH2 0x1E65 JUMP JUMPDEST PUSH1 0x40 MLOAD DUP1 SWAP2 SUB SWAP1 REVERT JUMPDEST PUSH1 0xB PUSH0 PUSH1 0x8 SLOAD DUP2 MSTORE PUSH1 0x20 ADD SWAP1 DUP2 MSTORE PUSH1 0x20 ADD PUSH0 KECCAK256 PUSH1 0x1 ADD SLOAD TIMESTAMP GT ISZERO PUSH2 0x655 JUMPI PUSH1 0x40 MLOAD PUSH32 0x8C379A000000000000000000000000000000000000000000000000000000000 DUP2 MSTORE PUSH1 0x4 ADD PUSH2 0x64C SWAP1 PUSH2 0x1ECD JUMP JUMPDEST PUSH1 0x40 MLOAD DUP1 SWAP2 SUB SWAP1 REVERT JUMPDEST PUSH0 PUSH2 0x65E PUSH2 0x12C6 JUMP JUMPDEST SWAP1 POP PUSH1 0x7 DUP2 GT ISZERO PUSH2 0x6A4 JUMPI PUSH1 0x40 MLOAD PUSH32 0x8C379A000000000000000000000000000000000000000000000000000000000 DUP2 MSTORE PUSH1 0x4 ADD PUSH2 0x69B SWAP1 PUSH2 0x1F35 JUMP JUMPDEST PUSH1 0x40 MLOAD DUP1 SWAP2 SUB SWAP1 REVERT JUMPDEST PUSH0 PUSH1 0xC PUSH0 DUP4 DUP2 MSTORE PUSH1 0x20 ADD SWAP1 DUP2 MSTORE PUSH1 0x20 ADD PUSH0 KECCAK256 SWAP1 POP PUSH1 0x7 DUP3 SUB PUSH2 0x71A JUMPI PUSH1 0xB PUSH0 PUSH1 0x8 SLOAD DUP2 MSTORE PUSH1 0x20 ADD SWAP1 DUP2 MSTORE PUSH1 0x20 ADD PUSH0 KECCAK256 PUSH1 0x1 ADD SLOAD TIMESTAMP GT ISZERO PUSH2 0x719 JUMPI PUSH1 0x40 MLOAD PUSH32 0x8C379A000000000000000000000000000000000000000000000000000000000 DUP2 MSTORE PUSH1 0x4 ADD PUSH2 0x710 SWAP1 PUSH2 0x1F9D JUMP JUMPDEST PUSH1 0x40 MLOAD DUP1 SWAP2 SUB SWAP1 REVERT JUMPDEST JUMPDEST PUSH1 0x6 DUP3 EQ DUP1 PUSH2 0x729 JUMPI POP PUSH1 0x7 DUP3 EQ JUMPDEST ISZERO PUSH2 0x7CF JUMPI PUSH1 0x2 PUSH0 SWAP1 SLOAD SWAP1 PUSH2 0x100 EXP SWAP1 DIV PUSH20 0xFFFFFFFFFFFFFFFFFFFFFFFFFFFFFFFFFFFFFFFF AND PUSH20 0xFFFFFFFFFFFFFFFFFFFFFFFFFFFFFFFFFFFFFFFF AND PUSH4 0x70A08231 ADDRESS PUSH1 0x40 MLOAD DUP3 PUSH4 0xFFFFFFFF AND PUSH1 0xE0 SHL DUP2 MSTORE PUSH1 0x4 ADD PUSH2 0x788 SWAP2 SWAP1 PUSH2 0x1C01 JUMP JUMPDEST PUSH1 0x20 PUSH1 0x40 MLOAD DUP1 DUP4 SUB DUP2 DUP7 GAS STATICCALL ISZERO DUP1 ISZERO PUSH2 0x7A3 JUMPI RETURNDATASIZE PUSH0 DUP1 RETURNDATACOPY RETURNDATASIZE PUSH0 REVERT JUMPDEST POP POP POP POP PUSH1 0x40 MLOAD RETURNDATASIZE PUSH1 0x1F NOT PUSH1 0x1F DUP3 ADD AND DUP3 ADD DUP1 PUSH1 0x40 MSTORE POP DUP2 ADD SWAP1 PUSH2 0x7C7 SWAP2 SWAP1 PUSH2 0x1FCF JUMP JUMPDEST DUP2 PUSH0 ADD DUP2 SWAP1 SSTORE POP JUMPDEST PUSH1 0x9 PUSH0 SWAP1 SLOAD SWAP1 PUSH2 0x100 EXP SWAP1 DIV PUSH1 0xFF AND ISZERO PUSH2 0x81E JUMPI PUSH1 0x40 MLOAD PUSH32 0x8C379A000000000000000000000000000000000000000000000000000000000 DUP2 MSTORE PUSH1 0x4 ADD PUSH2 0x815 SWAP1 PUSH2 0x2044 JUMP JUMPDEST PUSH1 0x40 MLOAD DUP1 SWAP2 SUB SWAP1 REVERT JUMPDEST PUSH1 0x4 SLOAD DUP2 PUSH1 0x1 ADD SLOAD LT PUSH2 0x866 JUMPI PUSH1 0x40 MLOAD PUSH32 0x8C379A000000000000000000000000000000000000000000000000000000000 DUP2 MSTORE PUSH1 0x4 ADD PUSH2 0x85D SWAP1 PUSH2 0x20AC JUMP JUMPDEST PUSH1 0x40 MLOAD DUP1 SWAP2 SUB SWAP1 REVERT JUMPDEST PUSH1 0x5 SLOAD DUP2 PUSH1 0x2 ADD SLOAD LT PUSH2 0x8AE JUMPI PUSH1 0x40 MLOAD PUSH32 0x8C379A000000000000000000000000000000000000000000000000000000000 DUP2 MSTORE PUSH1 0x4 ADD PUSH2 0x8A5 SWAP1 PUSH2 0x20AC JUMP JUMPDEST PUSH1 0x40 MLOAD DUP1 SWAP2 SUB SWAP1 REVERT JUMPDEST PUSH2 0x8B7 DUP5 PUSH2 0x178C JUMP JUMPDEST PUSH2 0x8F6 JUMPI PUSH1 0x40 MLOAD PUSH32 0x8C379A000000000000000000000000000000000000000000000000000000000 DUP2 MSTORE PUSH1 0x4 ADD PUSH2 0x8ED SWAP1 PUSH2 0x2114 JUMP JUMPDEST PUSH1 0x40 MLOAD DUP1 SWAP2 SUB SWAP1 REVERT JUMPDEST PUSH0 PUSH8 0xDE0B6B3A7640000 PUSH1 0x3 SLOAD DUP6 PUSH2 0x90E SWAP2 SWAP1 PUSH2 0x215F JUMP JUMPDEST PUSH2 0x918 SWAP2 SWAP1 PUSH2 0x21CD JUMP JUMPDEST SWAP1 POP DUP5 PUSH20 0xFFFFFFFFFFFFFFFFFFFFFFFFFFFFFFFFFFFFFFFF AND PUSH4 0x23B872DD CALLER PUSH1 0x9 PUSH1 0x1 SWAP1 SLOAD SWAP1 PUSH2 0x100 EXP SWAP1 DIV PUSH20 0xFFFFFFFFFFFFFFFFFFFFFFFFFFFFFFFFFFFFFFFF AND DUP5 PUSH1 0x40 MLOAD DUP5 PUSH4 0xFFFFFFFF AND PUSH1 0xE0 SHL DUP2 MSTORE PUSH1 0x4 ADD PUSH2 0x979 SWAP4 SWAP3 SWAP2 SWAP1 PUSH2 0x21FD JUMP JUMPDEST PUSH1 0x20 PUSH1 0x40 MLOAD DUP1 DUP4 SUB DUP2 PUSH0 DUP8 GAS CALL ISZERO DUP1 ISZERO PUSH2 0x995 JUMPI RETURNDATASIZE PUSH0 DUP1 RETURNDATACOPY RETURNDATASIZE PUSH0 REVERT JUMPDEST POP POP POP POP PUSH1 0x40 MLOAD RETURNDATASIZE PUSH1 0x1F NOT PUSH1 0x1F DUP3 ADD AND DUP3 ADD DUP1 PUSH1 0x40 MSTORE POP DUP2 ADD SWAP1 PUSH2 0x9B9 SWAP2 SWAP1 PUSH2 0x2246 JUMP JUMPDEST PUSH2 0x9F8 JUMPI PUSH1 0x40 MLOAD PUSH32 0x8C379A000000000000000000000000000000000000000000000000000000000 DUP2 MSTORE PUSH1 0x4 ADD PUSH2 0x9EF SWAP1 PUSH2 0x22BB JUMP JUMPDEST PUSH1 0x40 MLOAD DUP1 SWAP2 SUB SWAP1 REVERT JUMPDEST PUSH0 DUP3 PUSH0 ADD SLOAD DUP6 DUP5 PUSH1 0x1 ADD SLOAD PUSH2 0xA0D SWAP2 SWAP1 PUSH2 0x22D9 JUMP JUMPDEST GT ISZERO PUSH2 0xB3E JUMPI DUP3 PUSH0 ADD SLOAD DUP4 PUSH1 0x1 ADD SLOAD GT ISZERO PUSH2 0xA48 JUMPI DUP3 PUSH1 0x1 ADD SLOAD DUP6 DUP5 PUSH1 0x1 ADD SLOAD PUSH2 0xA37 SWAP2 SWAP1 PUSH2 0x22D9 JUMP JUMPDEST PUSH2 0xA41 SWAP2 SWAP1 PUSH2 0x230C JUMP JUMPDEST SWAP1 POP PUSH2 0xA69 JUMP JUMPDEST DUP3 PUSH0 ADD SLOAD DUP6 DUP5 PUSH1 0x1 ADD SLOAD PUSH2 0xA5C SWAP2 SWAP1 PUSH2 0x22D9 JUMP JUMPDEST PUSH2 0xA66 SWAP2 SWAP1 PUSH2 0x230C JUMP JUMPDEST SWAP1 POP JUMPDEST DUP1 DUP4 PUSH1 0x2 ADD PUSH0 DUP3 DUP3 SLOAD PUSH2 0xA7C SWAP2 SWAP1 PUSH2 0x22D9 JUMP JUMPDEST SWAP3 POP POP DUP2 SWAP1 SSTORE POP DUP1 PUSH1 0xD PUSH0 CALLER PUSH20 0xFFFFFFFFFFFFFFFFFFFFFFFFFFFFFFFFFFFFFFFF AND PUSH20 0xFFFFFFFFFFFFFFFFFFFFFFFFFFFFFFFFFFFFFFFF AND DUP2 MSTORE PUSH1 0x20 ADD SWAP1 DUP2 MSTORE PUSH1 0x20 ADD PUSH0 KECCAK256 PUSH1 0x1 ADD PUSH0 DUP3 DUP3 SLOAD PUSH2 0xAD2 SWAP2 SWAP1 PUSH2 0x22D9 JUMP JUMPDEST SWAP3 POP POP DUP2 SWAP1 SSTORE POP DUP3 PUSH1 0x3 ADD SLOAD DUP2 PUSH2 0xAE9 SWAP2 SWAP1 PUSH2 0x215F JUMP JUMPDEST PUSH1 0xD PUSH0 CALLER PUSH20 0xFFFFFFFFFFFFFFFFFFFFFFFFFFFFFFFFFFFFFFFF AND PUSH20 0xFFFFFFFFFFFFFFFFFFFFFFFFFFFFFFFFFFFFFFFF AND DUP2 MSTORE PUSH1 0x20 ADD SWAP1 DUP2 MSTORE PUSH1 0x20 ADD PUSH0 KECCAK256 PUSH0 ADD PUSH0 DUP3 DUP3 SLOAD PUSH2 0xB36 SWAP2 SWAP1 PUSH2 0x22D9 JUMP JUMPDEST SWAP3 POP POP DUP2 SWAP1 SSTORE POP JUMPDEST DUP5 PUSH1 0x6 PUSH0 DUP3 DUP3 SLOAD PUSH2 0xB4F SWAP2 SWAP1 PUSH2 0x22D9 JUMP JUMPDEST SWAP3 POP POP DUP2 SWAP1 SSTORE POP DUP5 DUP4 PUSH1 0x1 ADD PUSH0 DUP3 DUP3 SLOAD PUSH2 0xB69 SWAP2 SWAP1 PUSH2 0x22D9 JUMP JUMPDEST SWAP3 POP POP DUP2 SWAP1 SSTORE POP PUSH0 DUP1 PUSH1 0x2 PUSH0 SWAP1 SLOAD SWAP1 PUSH2 0x100 EXP SWAP1 DIV PUSH20 0xFFFFFFFFFFFFFFFFFFFFFFFFFFFFFFFFFFFFFFFF AND PUSH20 0xFFFFFFFFFFFFFFFFFFFFFFFFFFFFFFFFFFFFFFFF AND PUSH4 0x8B3F863F CALLER PUSH1 0x40 MLOAD DUP3 PUSH4 0xFFFFFFFF AND PUSH1 0xE0 SHL DUP2 MSTORE PUSH1 0x4 ADD PUSH2 0xBCC SWAP2 SWAP1 PUSH2 0x1C01 JUMP JUMPDEST PUSH0 PUSH1 0x40 MLOAD DUP1 DUP4 SUB DUP2 DUP7 GAS STATICCALL ISZERO DUP1 ISZERO PUSH2 0xBE6 JUMPI RETURNDATASIZE PUSH0 DUP1 RETURNDATACOPY RETURNDATASIZE PUSH0 REVERT JUMPDEST POP POP POP POP PUSH1 0x40 MLOAD RETURNDATASIZE PUSH0 DUP3 RETURNDATACOPY RETURNDATASIZE PUSH1 0x1F NOT PUSH1 0x1F DUP3 ADD AND DUP3 ADD DUP1 PUSH1 0x40 MSTORE POP DUP2 ADD SWAP1 PUSH2 0xC0E SWAP2 SWAP1 PUSH2 0x2495 JUMP JUMPDEST SWAP1 POP PUSH1 0x7 SLOAD TIMESTAMP PUSH2 0xC1E SWAP2 SWAP1 PUSH2 0x22D9 JUMP JUMPDEST SWAP2 POP PUSH1 0x2 PUSH0 SWAP1 SLOAD SWAP1 PUSH2 0x100 EXP SWAP1 DIV PUSH20 0xFFFFFFFFFFFFFFFFFFFFFFFFFFFFFFFFFFFFFFFF AND PUSH20 0xFFFFFFFFFFFFFFFFFFFFFFFFFFFFFFFFFFFFFFFF AND PUSH4 0xE2AB691D CALLER DUP10 DUP6 PUSH1 0x40 MLOAD DUP5 PUSH4 0xFFFFFFFF AND PUSH1 0xE0 SHL DUP2 MSTORE PUSH1 0x4 ADD PUSH2 0xC7E SWAP4 SWAP3 SWAP2 SWAP1 PUSH2 0x24DC JUMP JUMPDEST PUSH1 0x20 PUSH1 0x40 MLOAD DUP1 DUP4 SUB DUP2 PUSH0 DUP8 GAS CALL ISZERO DUP1 ISZERO PUSH2 0xC9A JUMPI RETURNDATASIZE PUSH0 DUP1 RETURNDATACOPY RETURNDATASIZE PUSH0 REVERT JUMPDEST POP POP POP POP PUSH1 0x40 MLOAD RETURNDATASIZE PUSH1 0x1F NOT PUSH1 0x1F DUP3 ADD AND DUP3 ADD DUP1 PUSH1 0x40 MSTORE POP DUP2 ADD SWAP1 PUSH2 0xCBE SWAP2 SWAP1 PUSH2 0x2246 JUMP JUMPDEST POP PUSH1 0x2 PUSH0 SWAP1 SLOAD SWAP1 PUSH2 0x100 EXP SWAP1 DIV PUSH20 0xFFFFFFFFFFFFFFFFFFFFFFFFFFFFFFFFFFFFFFFF AND PUSH20 0xFFFFFFFFFFFFFFFFFFFFFFFFFFFFFFFFFFFFFFFF AND PUSH4 0xA9059CBB CALLER DUP10 PUSH1 0x40 MLOAD DUP4 PUSH4 0xFFFFFFFF AND PUSH1 0xE0 SHL DUP2 MSTORE PUSH1 0x4 ADD PUSH2 0xD1B SWAP3 SWAP2 SWAP1 PUSH2 0x2511 JUMP JUMPDEST PUSH1 0x20 PUSH1 0x40 MLOAD DUP1 DUP4 SUB DUP2 PUSH0 DUP8 GAS CALL ISZERO DUP1 ISZERO PUSH2 0xD37 JUMPI RETURNDATASIZE PUSH0 DUP1 RETURNDATACOPY RETURNDATASIZE PUSH0 REVERT JUMPDEST POP POP POP POP PUSH1 0x40 MLOAD RETURNDATASIZE PUSH1 0x1F NOT PUSH1 0x1F DUP3 ADD AND DUP3 ADD DUP1 PUSH1 0x40 MSTORE POP DUP2 ADD SWAP1 PUSH2 0xD5B SWAP2 SWAP1 PUSH2 0x2246 JUMP JUMPDEST PUSH2 0xD9A JUMPI PUSH1 0x40 MLOAD PUSH32 0x8C379A000000000000000000000000000000000000000000000000000000000 DUP2 MSTORE PUSH1 0x4 ADD PUSH2 0xD91 SWAP1 PUSH2 0x2582 JUMP JUMPDEST PUSH1 0x40 MLOAD DUP1 SWAP2 SUB SWAP1 REVERT JUMPDEST CALLER PUSH20 0xFFFFFFFFFFFFFFFFFFFFFFFFFFFFFFFFFFFFFFFF AND PUSH32 0xD1A0D5E3D583A0E92588799DD06E50FD78C07DAF05F0CC06D7B848B1CA445F1 DUP6 DUP10 DUP6 PUSH1 0x40 MLOAD PUSH2 0xDE4 SWAP4 SWAP3 SWAP2 SWAP1 PUSH2 0x1DD6 JUMP JUMPDEST PUSH1 0x40 MLOAD DUP1 SWAP2 SUB SWAP1 LOG2 POP POP POP POP POP POP POP POP JUMP JUMPDEST PUSH2 0xDFE PUSH2 0x1834 JUMP JUMPDEST PUSH1 0xA DUP2 SWAP1 DUP1 PUSH1 0x1 DUP2 SLOAD ADD DUP1 DUP3 SSTORE DUP1 SWAP2 POP POP PUSH1 0x1 SWAP1 SUB SWAP1 PUSH0 MSTORE PUSH1 0x20 PUSH0 KECCAK256 ADD PUSH0 SWAP1 SWAP2 SWAP1 SWAP2 SWAP1 SWAP2 PUSH2 0x100 EXP DUP2 SLOAD DUP2 PUSH20 0xFFFFFFFFFFFFFFFFFFFFFFFFFFFFFFFFFFFFFFFF MUL NOT AND SWAP1 DUP4 PUSH20 0xFFFFFFFFFFFFFFFFFFFFFFFFFFFFFFFFFFFFFFFF AND MUL OR SWAP1 SSTORE POP POP JUMP JUMPDEST PUSH1 0x9 PUSH0 SWAP1 SLOAD SWAP1 PUSH2 0x100 EXP SWAP1 DIV PUSH1 0xFF AND PUSH2 0xEAF JUMPI PUSH1 0x40 MLOAD PUSH32 0x8C379A000000000000000000000000000000000000000000000000000000000 DUP2 MSTORE PUSH1 0x4 ADD PUSH2 0xEA6 SWAP1 PUSH2 0x25EA JUMP JUMPDEST PUSH1 0x40 MLOAD DUP1 SWAP2 SUB SWAP1 REVERT JUMPDEST PUSH1 0xB PUSH0 PUSH1 0x8 SLOAD DUP2 MSTORE PUSH1 0x20 ADD SWAP1 DUP2 MSTORE PUSH1 0x20 ADD PUSH0 KECCAK256 PUSH1 0x1 ADD SLOAD TIMESTAMP GT PUSH2 0xF07 JUMPI PUSH1 0x40 MLOAD PUSH32 0x8C379A000000000000000000000000000000000000000000000000000000000 DUP2 MSTORE PUSH1 0x4 ADD PUSH2 0xEFE SWAP1 PUSH2 0x2652 JUMP JUMPDEST PUSH1 0x40 MLOAD DUP1 SWAP2 SUB SWAP1 REVERT JUMPDEST PUSH0 PUSH1 0xD PUSH0 DUP5 PUSH20 0xFFFFFFFFFFFFFFFFFFFFFFFFFFFFFFFFFFFFFFFF AND PUSH20 0xFFFFFFFFFFFFFFFFFFFFFFFFFFFFFFFFFFFFFFFF AND DUP2 MSTORE PUSH1 0x20 ADD SWAP1 DUP2 MSTORE PUSH1 0x20 ADD PUSH0 KECCAK256 PUSH0 ADD SLOAD GT DUP1 ISZERO PUSH2 0xF94 JUMPI POP PUSH1 0xD PUSH0 DUP4 PUSH20 0xFFFFFFFFFFFFFFFFFFFFFFFFFFFFFFFFFFFFFFFF AND PUSH20 0xFFFFFFFFFFFFFFFFFFFFFFFFFFFFFFFFFFFFFFFF AND DUP2 MSTORE PUSH1 0x20 ADD SWAP1 DUP2 MSTORE PUSH1 0x20 ADD PUSH0 KECCAK256 PUSH0 ADD SLOAD DUP2 GT ISZERO JUMPDEST PUSH2 0xFD3 JUMPI PUSH1 0x40 MLOAD PUSH32 0x8C379A000000000000000000000000000000000000000000000000000000000 DUP2 MSTORE PUSH1 0x4 ADD PUSH2 0xFCA SWAP1 PUSH2 0x26BA JUMP JUMPDEST PUSH1 0x40 MLOAD DUP1 SWAP2 SUB SWAP1 REVERT JUMPDEST DUP1 PUSH1 0xD PUSH0 DUP5 PUSH20 0xFFFFFFFFFFFFFFFFFFFFFFFFFFFFFFFFFFFFFFFF AND PUSH20 0xFFFFFFFFFFFFFFFFFFFFFFFFFFFFFFFFFFFFFFFF AND DUP2 MSTORE PUSH1 0x20 ADD SWAP1 DUP2 MSTORE PUSH1 0x20 ADD PUSH0 KECCAK256 PUSH0 ADD PUSH0 DUP3 DUP3 SLOAD PUSH2 0x1021 SWAP2 SWAP1 PUSH2 0x230C JUMP JUMPDEST SWAP3 POP POP DUP2 SWAP1 SSTORE POP PUSH1 0x2 PUSH0 SWAP1 SLOAD SWAP1 PUSH2 0x100 EXP SWAP1 DIV PUSH20 0xFFFFFFFFFFFFFFFFFFFFFFFFFFFFFFFFFFFFFFFF AND PUSH20 0xFFFFFFFFFFFFFFFFFFFFFFFFFFFFFFFFFFFFFFFF AND PUSH4 0xA9059CBB DUP4 DUP4 PUSH1 0x40 MLOAD DUP4 PUSH4 0xFFFFFFFF AND PUSH1 0xE0 SHL DUP2 MSTORE PUSH1 0x4 ADD PUSH2 0x1084 SWAP3 SWAP2 SWAP1 PUSH2 0x2511 JUMP JUMPDEST PUSH1 0x20 PUSH1 0x40 MLOAD DUP1 DUP4 SUB DUP2 PUSH0 DUP8 GAS CALL ISZERO DUP1 ISZERO PUSH2 0x10A0 JUMPI RETURNDATASIZE PUSH0 DUP1 RETURNDATACOPY RETURNDATASIZE PUSH0 REVERT JUMPDEST POP POP POP POP PUSH1 0x40 MLOAD RETURNDATASIZE PUSH1 0x1F NOT PUSH1 0x1F DUP3 ADD AND DUP3 ADD DUP1 PUSH1 0x40 MSTORE POP DUP2 ADD SWAP1 PUSH2 0x10C4 SWAP2 SWAP1 PUSH2 0x2246 JUMP JUMPDEST PUSH2 0x1103 JUMPI PUSH1 0x40 MLOAD PUSH32 0x8C379A000000000000000000000000000000000000000000000000000000000 DUP2 MSTORE PUSH1 0x4 ADD PUSH2 0x10FA SWAP1 PUSH2 0x2582 JUMP JUMPDEST PUSH1 0x40 MLOAD DUP1 SWAP2 SUB SWAP1 REVERT JUMPDEST PUSH32 0x622CC013916970F2D0437DA0B597AA7A3D762EFFAD3652011E32375C7E455B31 DUP3 PUSH1 0xD PUSH0 DUP6 PUSH20 0xFFFFFFFFFFFFFFFFFFFFFFFFFFFFFFFFFFFFFFFF AND PUSH20 0xFFFFFFFFFFFFFFFFFFFFFFFFFFFFFFFFFFFFFFFF AND DUP2 MSTORE PUSH1 0x20 ADD SWAP1 DUP2 MSTORE PUSH1 0x20 ADD PUSH0 KECCAK256 PUSH0 ADD SLOAD DUP4 TIMESTAMP PUSH1 0x40 MLOAD PUSH2 0x1177 SWAP5 SWAP4 SWAP3 SWAP2 SWAP1 PUSH2 0x26D8 JUMP JUMPDEST PUSH1 0x40 MLOAD DUP1 SWAP2 SUB SWAP1 LOG1 POP POP JUMP JUMPDEST PUSH2 0x118B PUSH2 0x1834 JUMP JUMPDEST PUSH1 0x7 DUP4 LT DUP1 ISZERO PUSH2 0x119A JUMPI POP PUSH0 DUP4 GT JUMPDEST PUSH2 0x11D9 JUMPI PUSH1 0x40 MLOAD PUSH32 0x8C379A000000000000000000000000000000000000000000000000000000000 DUP2 MSTORE PUSH1 0x4 ADD PUSH2 0x11D0 SWAP1 PUSH2 0x2765 JUMP JUMPDEST PUSH1 0x40 MLOAD DUP1 SWAP2 SUB SWAP1 REVERT JUMPDEST DUP1 PUSH1 0xC PUSH0 DUP6 DUP2 MSTORE PUSH1 0x20 ADD SWAP1 DUP2 MSTORE PUSH1 0x20 ADD PUSH0 KECCAK256 PUSH1 0x3 ADD DUP2 SWAP1 SSTORE POP DUP2 PUSH1 0xC PUSH0 DUP6 DUP2 MSTORE PUSH1 0x20 ADD SWAP1 DUP2 MSTORE PUSH1 0x20 ADD PUSH0 KECCAK256 PUSH0 ADD DUP2 SWAP1 SSTORE POP POP POP POP JUMP JUMPDEST PUSH1 0x9 PUSH1 0x1 SWAP1 SLOAD SWAP1 PUSH2 0x100 EXP SWAP1 DIV PUSH20 0xFFFFFFFFFFFFFFFFFFFFFFFFFFFFFFFFFFFFFFFF AND DUP2 JUMP JUMPDEST PUSH1 0x5 SLOAD DUP2 JUMP JUMPDEST PUSH2 0x1243 PUSH2 0x1834 JUMP JUMPDEST DUP1 PUSH1 0x9 PUSH0 PUSH2 0x100 EXP DUP2 SLOAD DUP2 PUSH1 0xFF MUL NOT AND SWAP1 DUP4 ISZERO ISZERO MUL OR SWAP1 SSTORE POP PUSH32 0x237DD0CDF7B3AF1CFA9EB04B654F1BABB43DDAAD2183A8863D9FEA7D857AACD6 CALLER DUP3 TIMESTAMP PUSH1 0x40 MLOAD PUSH2 0x128F SWAP4 SWAP3 SWAP2 SWAP1 PUSH2 0x2783 JUMP JUMPDEST PUSH1 0x40 MLOAD DUP1 SWAP2 SUB SWAP1 LOG1 POP JUMP JUMPDEST PUSH1 0xC PUSH1 0x20 MSTORE DUP1 PUSH0 MSTORE PUSH1 0x40 PUSH0 KECCAK256 PUSH0 SWAP2 POP SWAP1 POP DUP1 PUSH0 ADD SLOAD SWAP1 DUP1 PUSH1 0x1 ADD SLOAD SWAP1 DUP1 PUSH1 0x2 ADD SLOAD SWAP1 DUP1 PUSH1 0x3 ADD SLOAD SWAP1 POP DUP5 JUMP JUMPDEST PUSH0 DUP1 PUSH1 0xB PUSH0 PUSH1 0x8 SLOAD DUP2 MSTORE PUSH1 0x20 ADD SWAP1 DUP2 MSTORE PUSH1 0x20 ADD PUSH0 KECCAK256 SWAP1 POP PUSH1 0x9 PUSH0 SWAP1 SLOAD SWAP1 PUSH2 0x100 EXP SWAP1 DIV PUSH1 0xFF AND DUP1 PUSH2 0x12FA JUMPI POP DUP1 PUSH1 0x1 ADD SLOAD TIMESTAMP GT JUMPDEST ISZERO PUSH2 0x1309 JUMPI PUSH1 0x8 SWAP2 POP POP PUSH2 0x1355 JUMP JUMPDEST PUSH0 DUP2 PUSH0 ADD SLOAD TIMESTAMP PUSH2 0x1319 SWAP2 SWAP1 PUSH2 0x230C JUMP JUMPDEST SWAP1 POP PUSH0 PUSH1 0x1 PUSH3 0x15180 DUP4 PUSH2 0x132D SWAP2 SWAP1 PUSH2 0x21CD JUMP JUMPDEST PUSH2 0x1337 SWAP2 SWAP1 PUSH2 0x22D9 JUMP JUMPDEST SWAP1 POP PUSH1 0x7 DUP2 GT ISZERO PUSH2 0x134E JUMPI PUSH1 0x7 SWAP4 POP POP POP POP PUSH2 0x1355 JUMP JUMPDEST DUP1 SWAP4 POP POP POP POP JUMPDEST SWAP1 JUMP JUMPDEST PUSH0 DUP1 PUSH1 0xB PUSH0 DUP6 DUP2 MSTORE PUSH1 0x20 ADD SWAP1 DUP2 MSTORE PUSH1 0x20 ADD PUSH0 KECCAK256 SWAP1 POP PUSH0 DUP2 PUSH1 0x2 ADD PUSH0 DUP6 DUP2 MSTORE PUSH1 0x20 ADD SWAP1 DUP2 MSTORE PUSH1 0x20 ADD PUSH0 KECCAK256 PUSH1 0x40 MLOAD DUP1 PUSH1 0x80 ADD PUSH1 0x40 MSTORE SWAP1 DUP2 PUSH0 DUP3 ADD SLOAD DUP2 MSTORE PUSH1 0x20 ADD PUSH1 0x1 DUP3 ADD SLOAD DUP2 MSTORE PUSH1 0x20 ADD PUSH1 0x2 DUP3 ADD SLOAD DUP2 MSTORE PUSH1 0x20 ADD PUSH1 0x3 DUP3 ADD SLOAD DUP2 MSTORE POP POP SWAP1 POP DUP1 PUSH1 0x20 ADD MLOAD SWAP3 POP POP POP SWAP3 SWAP2 POP POP JUMP JUMPDEST PUSH1 0xD PUSH1 0x20 MSTORE DUP1 PUSH0 MSTORE PUSH1 0x40 PUSH0 KECCAK256 PUSH0 SWAP2 POP SWAP1 POP DUP1 PUSH0 ADD SLOAD SWAP1 DUP1 PUSH1 0x1 ADD SLOAD SWAP1 POP DUP3 JUMP JUMPDEST PUSH2 0x13EC PUSH2 0x1834 JUMP JUMPDEST DUP1 PUSH1 0x9 PUSH1 0x1 PUSH2 0x100 EXP DUP2 SLOAD DUP2 PUSH20 0xFFFFFFFFFFFFFFFFFFFFFFFFFFFFFFFFFFFFFFFF MUL NOT AND SWAP1 DUP4 PUSH20 0xFFFFFFFFFFFFFFFFFFFFFFFFFFFFFFFFFFFFFFFF AND MUL OR SWAP1 SSTORE POP POP JUMP JUMPDEST PUSH2 0x1438 PUSH2 0x1834 JUMP JUMPDEST PUSH1 0x9 PUSH0 SWAP1 SLOAD SWAP1 PUSH2 0x100 EXP SWAP1 DIV PUSH1 0xFF AND PUSH2 0x1486 JUMPI PUSH1 0x40 MLOAD PUSH32 0x8C379A000000000000000000000000000000000000000000000000000000000 DUP2 MSTORE PUSH1 0x4 ADD PUSH2 0x147D SWAP1 PUSH2 0x2802 JUMP JUMPDEST PUSH1 0x40 MLOAD DUP1 SWAP2 SUB SWAP1 REVERT JUMPDEST PUSH0 PUSH1 0x9 PUSH0 PUSH2 0x100 EXP DUP2 SLOAD DUP2 PUSH1 0xFF MUL NOT AND SWAP1 DUP4 ISZERO ISZERO MUL OR SWAP1 SSTORE POP PUSH1 0x8 PUSH0 DUP2 SLOAD DUP1 SWAP3 SWAP2 SWAP1 PUSH2 0x14B1 SWAP1 PUSH2 0x2820 JUMP JUMPDEST SWAP2 SWAP1 POP SSTORE POP PUSH0 PUSH1 0xB PUSH0 PUSH1 0x8 SLOAD DUP2 MSTORE PUSH1 0x20 ADD SWAP1 DUP2 MSTORE PUSH1 0x20 ADD PUSH0 KECCAK256 SWAP1 POP TIMESTAMP DUP2 PUSH0 ADD DUP2 SWAP1 SSTORE POP PUSH3 0x93A80 TIMESTAMP PUSH2 0x14E3 SWAP2 SWAP1 PUSH2 0x22D9 JUMP JUMPDEST DUP2 PUSH1 0x1 ADD DUP2 SWAP1 SSTORE POP PUSH0 PUSH1 0x1 SWAP1 POP JUMPDEST PUSH1 0x7 DUP2 GT PUSH2 0x156D JUMPI PUSH11 0x1A784379D99DB42000000 PUSH1 0xC PUSH0 DUP4 DUP2 MSTORE PUSH1 0x20 ADD SWAP1 DUP2 MSTORE PUSH1 0x20 ADD PUSH0 KECCAK256 PUSH0 ADD DUP2 SWAP1 SSTORE POP PUSH1 0x5 DUP2 GT ISZERO PUSH2 0x153C JUMPI PUSH1 0x6 DUP2 EQ PUSH2 0x1534 JUMPI PUSH1 0x1 PUSH2 0x1537 JUMP JUMPDEST PUSH1 0x2 JUMPDEST PUSH2 0x153F JUMP JUMPDEST PUSH1 0x3 JUMPDEST PUSH1 0xFF AND PUSH1 0xC PUSH0 DUP4 DUP2 MSTORE PUSH1 0x20 ADD SWAP1 DUP2 MSTORE PUSH1 0x20 ADD PUSH0 KECCAK256 PUSH1 0x3 ADD DUP2 SWAP1 SSTORE POP DUP1 DUP1 PUSH2 0x1565 SWAP1 PUSH2 0x2820 JUMP JUMPDEST SWAP2 POP POP PUSH2 0x14F1 JUMP JUMPDEST POP PUSH32 0x683D0F47C7FA11331F4E9563B3F5A7FDC3D3C5B75C600357A91D991F5A13A437 PUSH1 0x8 SLOAD DUP3 PUSH0 ADD SLOAD DUP4 PUSH1 0x1 ADD SLOAD PUSH1 0x40 MLOAD PUSH2 0x15AA SWAP4 SWAP3 SWAP2 SWAP1 PUSH2 0x1DD6 JUMP JUMPDEST PUSH1 0x40 MLOAD DUP1 SWAP2 SUB SWAP1 LOG1 POP JUMP JUMPDEST PUSH2 0x15BD PUSH2 0x1834 JUMP JUMPDEST PUSH2 0x15C6 PUSH0 PUSH2 0x18BB JUMP JUMPDEST JUMP JUMPDEST PUSH1 0x3 SLOAD DUP2 JUMP JUMPDEST PUSH1 0x8 SLOAD DUP2 JUMP JUMPDEST PUSH1 0xB PUSH1 0x20 MSTORE DUP1 PUSH0 MSTORE PUSH1 0x40 PUSH0 KECCAK256 PUSH0 SWAP2 POP SWAP1 POP DUP1 PUSH0 ADD SLOAD SWAP1 DUP1 PUSH1 0x1 ADD SLOAD SWAP1 POP DUP3 JUMP JUMPDEST PUSH0 DUP1 PUSH0 SWAP1 SLOAD SWAP1 PUSH2 0x100 EXP SWAP1 DIV PUSH20 0xFFFFFFFFFFFFFFFFFFFFFFFFFFFFFFFFFFFFFFFF AND SWAP1 POP SWAP1 JUMP JUMPDEST PUSH2 0x1623 PUSH2 0x1834 JUMP JUMPDEST DUP1 PUSH1 0x3 DUP2 SWAP1 SSTORE POP POP JUMP JUMPDEST PUSH0 PUSH1 0x3 SLOAD PUSH8 0xDE0B6B3A7640000 DUP4 PUSH2 0x1645 SWAP2 SWAP1 PUSH2 0x215F JUMP JUMPDEST PUSH2 0x164F SWAP2 SWAP1 PUSH2 0x21CD JUMP JUMPDEST SWAP1 POP SWAP2 SWAP1 POP JUMP JUMPDEST PUSH1 0x9 PUSH0 SWAP1 SLOAD SWAP1 PUSH2 0x100 EXP SWAP1 DIV PUSH1 0xFF AND DUP2 JUMP JUMPDEST PUSH1 0x4 SLOAD DUP2 JUMP JUMPDEST PUSH1 0x7 SLOAD DUP2 JUMP JUMPDEST PUSH1 0x1 PUSH0 SWAP1 SLOAD SWAP1 PUSH2 0x100 EXP SWAP1 DIV PUSH20 0xFFFFFFFFFFFFFFFFFFFFFFFFFFFFFFFFFFFFFFFF AND DUP2 JUMP JUMPDEST PUSH1 0x2 PUSH0 SWAP1 SLOAD SWAP1 PUSH2 0x100 EXP SWAP1 DIV PUSH20 0xFFFFFFFFFFFFFFFFFFFFFFFFFFFFFFFFFFFFFFFF AND DUP2 JUMP JUMPDEST PUSH1 0x6 SLOAD DUP2 JUMP JUMPDEST PUSH2 0x16CC PUSH2 0x1834 JUMP JUMPDEST PUSH0 PUSH20 0xFFFFFFFFFFFFFFFFFFFFFFFFFFFFFFFFFFFFFFFF AND DUP2 PUSH20 0xFFFFFFFFFFFFFFFFFFFFFFFFFFFFFFFFFFFFFFFF AND SUB PUSH2 0x173C JUMPI PUSH0 PUSH1 0x40 MLOAD PUSH32 0x1E4FBDF700000000000000000000000000000000000000000000000000000000 DUP2 MSTORE PUSH1 0x4 ADD PUSH2 0x1733 SWAP2 SWAP1 PUSH2 0x1C01 JUMP JUMPDEST PUSH1 0x40 MLOAD DUP1 SWAP2 SUB SWAP1 REVERT JUMPDEST PUSH2 0x1745 DUP2 PUSH2 0x18BB JUMP JUMPDEST POP JUMP JUMPDEST PUSH0 DUP1 PUSH0 PUSH1 0x8 SLOAD SWAP3 POP DUP3 PUSH1 0xB PUSH0 PUSH1 0x8 SLOAD DUP2 MSTORE PUSH1 0x20 ADD SWAP1 DUP2 MSTORE PUSH1 0x20 ADD PUSH0 KECCAK256 PUSH0 ADD SLOAD SWAP3 POP DUP3 PUSH1 0xB PUSH0 PUSH1 0x8 SLOAD DUP2 MSTORE PUSH1 0x20 ADD SWAP1 DUP2 MSTORE PUSH1 0x20 ADD PUSH0 KECCAK256 PUSH1 0x1 ADD SLOAD SWAP3 POP SWAP3 POP SWAP3 POP SWAP1 SWAP2 SWAP3 JUMP JUMPDEST PUSH0 DUP1 PUSH0 SWAP1 POP JUMPDEST PUSH1 0xA DUP1 SLOAD SWAP1 POP DUP2 LT ISZERO PUSH2 0x182A JUMPI DUP3 PUSH20 0xFFFFFFFFFFFFFFFFFFFFFFFFFFFFFFFFFFFFFFFF AND PUSH1 0xA DUP3 DUP2 SLOAD DUP2 LT PUSH2 0x17CA JUMPI PUSH2 0x17C9 PUSH2 0x2867 JUMP JUMPDEST JUMPDEST SWAP1 PUSH0 MSTORE PUSH1 0x20 PUSH0 KECCAK256 ADD PUSH0 SWAP1 SLOAD SWAP1 PUSH2 0x100 EXP SWAP1 DIV PUSH20 0xFFFFFFFFFFFFFFFFFFFFFFFFFFFFFFFFFFFFFFFF AND PUSH20 0xFFFFFFFFFFFFFFFFFFFFFFFFFFFFFFFFFFFFFFFF AND SUB PUSH2 0x1817 JUMPI PUSH1 0x1 SWAP2 POP POP PUSH2 0x182F JUMP JUMPDEST DUP1 DUP1 PUSH2 0x1822 SWAP1 PUSH2 0x2820 JUMP JUMPDEST SWAP2 POP POP PUSH2 0x1792 JUMP JUMPDEST POP PUSH0 SWAP1 POP JUMPDEST SWAP2 SWAP1 POP JUMP JUMPDEST PUSH2 0x183C PUSH2 0x197C JUMP JUMPDEST PUSH20 0xFFFFFFFFFFFFFFFFFFFFFFFFFFFFFFFFFFFFFFFF AND PUSH2 0x185A PUSH2 0x15F4 JUMP JUMPDEST PUSH20 0xFFFFFFFFFFFFFFFFFFFFFFFFFFFFFFFFFFFFFFFF AND EQ PUSH2 0x18B9 JUMPI PUSH2 0x187D PUSH2 0x197C JUMP JUMPDEST PUSH1 0x40 MLOAD PUSH32 0x118CDAA700000000000000000000000000000000000000000000000000000000 DUP2 MSTORE PUSH1 0x4 ADD PUSH2 0x18B0 SWAP2 SWAP1 PUSH2 0x1C01 JUMP JUMPDEST PUSH1 0x40 MLOAD DUP1 SWAP2 SUB SWAP1 REVERT JUMPDEST JUMP JUMPDEST PUSH0 DUP1 PUSH0 SWAP1 SLOAD SWAP1 PUSH2 0x100 EXP SWAP1 DIV PUSH20 0xFFFFFFFFFFFFFFFFFFFFFFFFFFFFFFFFFFFFFFFF AND SWAP1 POP DUP2 PUSH0 DUP1 PUSH2 0x100 EXP DUP2 SLOAD DUP2 PUSH20 0xFFFFFFFFFFFFFFFFFFFFFFFFFFFFFFFFFFFFFFFF MUL NOT AND SWAP1 DUP4 PUSH20 0xFFFFFFFFFFFFFFFFFFFFFFFFFFFFFFFFFFFFFFFF AND MUL OR SWAP1 SSTORE POP DUP2 PUSH20 0xFFFFFFFFFFFFFFFFFFFFFFFFFFFFFFFFFFFFFFFF AND DUP2 PUSH20 0xFFFFFFFFFFFFFFFFFFFFFFFFFFFFFFFFFFFFFFFF AND PUSH32 0x8BE0079C531659141344CD1FD0A4F28419497F9722A3DAAFE3B4186F6B6457E0 PUSH1 0x40 MLOAD PUSH1 0x40 MLOAD DUP1 SWAP2 SUB SWAP1 LOG3 POP POP JUMP JUMPDEST PUSH0 CALLER SWAP1 POP SWAP1 JUMP JUMPDEST PUSH0 PUSH1 0x40 MLOAD SWAP1 POP SWAP1 JUMP JUMPDEST PUSH0 DUP1 REVERT JUMPDEST PUSH0 DUP1 REVERT JUMPDEST PUSH0 DUP2 SWAP1 POP SWAP2 SWAP1 POP JUMP JUMPDEST PUSH2 0x19A6 DUP2 PUSH2 0x1994 JUMP JUMPDEST DUP2 EQ PUSH2 0x19B0 JUMPI PUSH0 DUP1 REVERT JUMPDEST POP JUMP JUMPDEST PUSH0 DUP2 CALLDATALOAD SWAP1 POP PUSH2 0x19C1 DUP2 PUSH2 0x199D JUMP JUMPDEST SWAP3 SWAP2 POP POP JUMP JUMPDEST PUSH0 PUSH1 0x20 DUP3 DUP5 SUB SLT ISZERO PUSH2 0x19DC JUMPI PUSH2 0x19DB PUSH2 0x198C JUMP JUMPDEST JUMPDEST PUSH0 PUSH2 0x19E9 DUP5 DUP3 DUP6 ADD PUSH2 0x19B3 JUMP JUMPDEST SWAP2 POP POP SWAP3 SWAP2 POP POP JUMP JUMPDEST PUSH0 PUSH20 0xFFFFFFFFFFFFFFFFFFFFFFFFFFFFFFFFFFFFFFFF DUP3 AND SWAP1 POP SWAP2 SWAP1 POP JUMP JUMPDEST PUSH0 DUP2 SWAP1 POP SWAP2 SWAP1 POP JUMP JUMPDEST PUSH0 PUSH2 0x1A34 PUSH2 0x1A2F PUSH2 0x1A2A DUP5 PUSH2 0x19F2 JUMP JUMPDEST PUSH2 0x1A11 JUMP JUMPDEST PUSH2 0x19F2 JUMP JUMPDEST SWAP1 POP SWAP2 SWAP1 POP JUMP JUMPDEST PUSH0 PUSH2 0x1A45 DUP3 PUSH2 0x1A1A JUMP JUMPDEST SWAP1 POP SWAP2 SWAP1 POP JUMP JUMPDEST PUSH0 PUSH2 0x1A56 DUP3 PUSH2 0x1A3B JUMP JUMPDEST SWAP1 POP SWAP2 SWAP1 POP JUMP JUMPDEST PUSH2 0x1A66 DUP2 PUSH2 0x1A4C JUMP JUMPDEST DUP3 MSTORE POP POP JUMP JUMPDEST PUSH0 PUSH1 0x20 DUP3 ADD SWAP1 POP PUSH2 0x1A7F PUSH0 DUP4 ADD DUP5 PUSH2 0x1A5D JUMP JUMPDEST SWAP3 SWAP2 POP POP JUMP JUMPDEST PUSH0 PUSH2 0x1A8F DUP3 PUSH2 0x19F2 JUMP JUMPDEST SWAP1 POP SWAP2 SWAP1 POP JUMP JUMPDEST PUSH0 PUSH2 0x1AA0 DUP3 PUSH2 0x1A85 JUMP JUMPDEST SWAP1 POP SWAP2 SWAP1 POP JUMP JUMPDEST PUSH2 0x1AB0 DUP2 PUSH2 0x1A96 JUMP JUMPDEST DUP2 EQ PUSH2 0x1ABA JUMPI PUSH0 DUP1 REVERT JUMPDEST POP JUMP JUMPDEST PUSH0 DUP2 CALLDATALOAD SWAP1 POP PUSH2 0x1ACB DUP2 PUSH2 0x1AA7 JUMP JUMPDEST SWAP3 SWAP2 POP POP JUMP JUMPDEST PUSH0 DUP1 PUSH1 0x40 DUP4 DUP6 SUB SLT ISZERO PUSH2 0x1AE7 JUMPI PUSH2 0x1AE6 PUSH2 0x198C JUMP JUMPDEST JUMPDEST PUSH0 PUSH2 0x1AF4 DUP6 DUP3 DUP7 ADD PUSH2 0x1ABD JUMP JUMPDEST SWAP3 POP POP PUSH1 0x20 PUSH2 0x1B05 DUP6 DUP3 DUP7 ADD PUSH2 0x19B3 JUMP JUMPDEST SWAP2 POP POP SWAP3 POP SWAP3 SWAP1 POP JUMP JUMPDEST PUSH0 PUSH1 0x20 DUP3 DUP5 SUB SLT ISZERO PUSH2 0x1B24 JUMPI PUSH2 0x1B23 PUSH2 0x198C JUMP JUMPDEST JUMPDEST PUSH0 PUSH2 0x1B31 DUP5 DUP3 DUP6 ADD PUSH2 0x1ABD JUMP JUMPDEST SWAP2 POP POP SWAP3 SWAP2 POP POP JUMP JUMPDEST PUSH2 0x1B43 DUP2 PUSH2 0x1A85 JUMP JUMPDEST DUP2 EQ PUSH2 0x1B4D JUMPI PUSH0 DUP1 REVERT JUMPDEST POP JUMP JUMPDEST PUSH0 DUP2 CALLDATALOAD SWAP1 POP PUSH2 0x1B5E DUP2 PUSH2 0x1B3A JUMP JUMPDEST SWAP3 SWAP2 POP POP JUMP JUMPDEST PUSH0 DUP1 PUSH1 0x40 DUP4 DUP6 SUB SLT ISZERO PUSH2 0x1B7A JUMPI PUSH2 0x1B79 PUSH2 0x198C JUMP JUMPDEST JUMPDEST PUSH0 PUSH2 0x1B87 DUP6 DUP3 DUP7 ADD PUSH2 0x1B50 JUMP JUMPDEST SWAP3 POP POP PUSH1 0x20 PUSH2 0x1B98 DUP6 DUP3 DUP7 ADD PUSH2 0x19B3 JUMP JUMPDEST SWAP2 POP POP SWAP3 POP SWAP3 SWAP1 POP JUMP JUMPDEST PUSH0 DUP1 PUSH0 PUSH1 0x60 DUP5 DUP7 SUB SLT ISZERO PUSH2 0x1BB9 JUMPI PUSH2 0x1BB8 PUSH2 0x198C JUMP JUMPDEST JUMPDEST PUSH0 PUSH2 0x1BC6 DUP7 DUP3 DUP8 ADD PUSH2 0x19B3 JUMP JUMPDEST SWAP4 POP POP PUSH1 0x20 PUSH2 0x1BD7 DUP7 DUP3 DUP8 ADD PUSH2 0x19B3 JUMP JUMPDEST SWAP3 POP POP PUSH1 0x40 PUSH2 0x1BE8 DUP7 DUP3 DUP8 ADD PUSH2 0x19B3 JUMP JUMPDEST SWAP2 POP POP SWAP3 POP SWAP3 POP SWAP3 JUMP JUMPDEST PUSH2 0x1BFB DUP2 PUSH2 0x1A85 JUMP JUMPDEST DUP3 MSTORE POP POP JUMP JUMPDEST PUSH0 PUSH1 0x20 DUP3 ADD SWAP1 POP PUSH2 0x1C14 PUSH0 DUP4 ADD DUP5 PUSH2 0x1BF2 JUMP JUMPDEST SWAP3 SWAP2 POP POP JUMP JUMPDEST PUSH2 0x1C23 DUP2 PUSH2 0x1994 JUMP JUMPDEST DUP3 MSTORE POP POP JUMP JUMPDEST PUSH0 PUSH1 0x20 DUP3 ADD SWAP1 POP PUSH2 0x1C3C PUSH0 DUP4 ADD DUP5 PUSH2 0x1C1A JUMP JUMPDEST SWAP3 SWAP2 POP POP JUMP JUMPDEST PUSH0 DUP2 ISZERO ISZERO SWAP1 POP SWAP2 SWAP1 POP JUMP JUMPDEST PUSH2 0x1C56 DUP2 PUSH2 0x1C42 JUMP JUMPDEST DUP2 EQ PUSH2 0x1C60 JUMPI PUSH0 DUP1 REVERT JUMPDEST POP JUMP JUMPDEST PUSH0 DUP2 CALLDATALOAD SWAP1 POP PUSH2 0x1C71 DUP2 PUSH2 0x1C4D JUMP JUMPDEST SWAP3 SWAP2 POP POP JUMP JUMPDEST PUSH0 PUSH1 0x20 DUP3 DUP5 SUB SLT ISZERO PUSH2 0x1C8C JUMPI PUSH2 0x1C8B PUSH2 0x198C JUMP JUMPDEST JUMPDEST PUSH0 PUSH2 0x1C99 DUP5 DUP3 DUP6 ADD PUSH2 0x1C63 JUMP JUMPDEST SWAP2 POP POP SWAP3 SWAP2 POP POP JUMP JUMPDEST PUSH0 PUSH1 0x80 DUP3 ADD SWAP1 POP PUSH2 0x1CB5 PUSH0 DUP4 ADD DUP8 PUSH2 0x1C1A JUMP JUMPDEST PUSH2 0x1CC2 PUSH1 0x20 DUP4 ADD DUP7 PUSH2 0x1C1A JUMP JUMPDEST PUSH2 0x1CCF PUSH1 0x40 DUP4 ADD DUP6 PUSH2 0x1C1A JUMP JUMPDEST PUSH2 0x1CDC PUSH1 0x60 DUP4 ADD DUP5 PUSH2 0x1C1A JUMP JUMPDEST SWAP6 SWAP5 POP POP POP POP POP JUMP JUMPDEST PUSH0 DUP1 PUSH1 0x40 DUP4 DUP6 SUB SLT ISZERO PUSH2 0x1CFB JUMPI PUSH2 0x1CFA PUSH2 0x198C JUMP JUMPDEST JUMPDEST PUSH0 PUSH2 0x1D08 DUP6 DUP3 DUP7 ADD PUSH2 0x19B3 JUMP JUMPDEST SWAP3 POP POP PUSH1 0x20 PUSH2 0x1D19 DUP6 DUP3 DUP7 ADD PUSH2 0x19B3 JUMP JUMPDEST SWAP2 POP POP SWAP3 POP SWAP3 SWAP1 POP JUMP JUMPDEST PUSH0 PUSH1 0x20 DUP3 DUP5 SUB SLT ISZERO PUSH2 0x1D38 JUMPI PUSH2 0x1D37 PUSH2 0x198C JUMP JUMPDEST JUMPDEST PUSH0 PUSH2 0x1D45 DUP5 DUP3 DUP6 ADD PUSH2 0x1B50 JUMP JUMPDEST SWAP2 POP POP SWAP3 SWAP2 POP POP JUMP JUMPDEST PUSH0 PUSH1 0x40 DUP3 ADD SWAP1 POP PUSH2 0x1D61 PUSH0 DUP4 ADD DUP6 PUSH2 0x1C1A JUMP JUMPDEST PUSH2 0x1D6E PUSH1 0x20 DUP4 ADD DUP5 PUSH2 0x1C1A JUMP JUMPDEST SWAP4 SWAP3 POP POP POP JUMP JUMPDEST PUSH2 0x1D7E DUP2 PUSH2 0x1C42 JUMP JUMPDEST DUP3 MSTORE POP POP JUMP JUMPDEST PUSH0 PUSH1 0x20 DUP3 ADD SWAP1 POP PUSH2 0x1D97 PUSH0 DUP4 ADD DUP5 PUSH2 0x1D75 JUMP JUMPDEST SWAP3 SWAP2 POP POP JUMP JUMPDEST PUSH0 PUSH2 0x1DA7 DUP3 PUSH2 0x1A3B JUMP JUMPDEST SWAP1 POP SWAP2 SWAP1 POP JUMP JUMPDEST PUSH2 0x1DB7 DUP2 PUSH2 0x1D9D JUMP JUMPDEST DUP3 MSTORE POP POP JUMP JUMPDEST PUSH0 PUSH1 0x20 DUP3 ADD SWAP1 POP PUSH2 0x1DD0 PUSH0 DUP4 ADD DUP5 PUSH2 0x1DAE JUMP JUMPDEST SWAP3 SWAP2 POP POP JUMP JUMPDEST PUSH0 PUSH1 0x60 DUP3 ADD SWAP1 POP PUSH2 0x1DE9 PUSH0 DUP4 ADD DUP7 PUSH2 0x1C1A JUMP JUMPDEST PUSH2 0x1DF6 PUSH1 0x20 DUP4 ADD DUP6 PUSH2 0x1C1A JUMP JUMPDEST PUSH2 0x1E03 PUSH1 0x40 DUP4 ADD DUP5 PUSH2 0x1C1A JUMP JUMPDEST SWAP5 SWAP4 POP POP POP POP JUMP JUMPDEST PUSH0 DUP3 DUP3 MSTORE PUSH1 0x20 DUP3 ADD SWAP1 POP SWAP3 SWAP2 POP POP JUMP JUMPDEST PUSH32 0x41756374696F6E20697320706175736564000000000000000000000000000000 PUSH0 DUP3 ADD MSTORE POP JUMP JUMPDEST PUSH0 PUSH2 0x1E4F PUSH1 0x11 DUP4 PUSH2 0x1E0B JUMP JUMPDEST SWAP2 POP PUSH2 0x1E5A DUP3 PUSH2 0x1E1B JUMP JUMPDEST PUSH1 0x20 DUP3 ADD SWAP1 POP SWAP2 SWAP1 POP JUMP JUMPDEST PUSH0 PUSH1 0x20 DUP3 ADD SWAP1 POP DUP2 DUP2 SUB PUSH0 DUP4 ADD MSTORE PUSH2 0x1E7C DUP2 PUSH2 0x1E43 JUMP JUMPDEST SWAP1 POP SWAP2 SWAP1 POP JUMP JUMPDEST PUSH32 0x43757272656E7420726F756E642068617320656E646564000000000000000000 PUSH0 DUP3 ADD MSTORE POP JUMP JUMPDEST PUSH0 PUSH2 0x1EB7 PUSH1 0x17 DUP4 PUSH2 0x1E0B JUMP JUMPDEST SWAP2 POP PUSH2 0x1EC2 DUP3 PUSH2 0x1E83 JUMP JUMPDEST PUSH1 0x20 DUP3 ADD SWAP1 POP SWAP2 SWAP1 POP JUMP JUMPDEST PUSH0 PUSH1 0x20 DUP3 ADD SWAP1 POP DUP2 DUP2 SUB PUSH0 DUP4 ADD MSTORE PUSH2 0x1EE4 DUP2 PUSH2 0x1EAB JUMP JUMPDEST SWAP1 POP SWAP2 SWAP1 POP JUMP JUMPDEST PUSH32 0x41756374696F6E20646179732061726520636F6D706C65746500000000000000 PUSH0 DUP3 ADD MSTORE POP JUMP JUMPDEST PUSH0 PUSH2 0x1F1F PUSH1 0x19 DUP4 PUSH2 0x1E0B JUMP JUMPDEST SWAP2 POP PUSH2 0x1F2A DUP3 PUSH2 0x1EEB JUMP JUMPDEST PUSH1 0x20 DUP3 ADD SWAP1 POP SWAP2 SWAP1 POP JUMP JUMPDEST PUSH0 PUSH1 0x20 DUP3 ADD SWAP1 POP DUP2 DUP2 SUB PUSH0 DUP4 ADD MSTORE PUSH2 0x1F4C DUP2 PUSH2 0x1F13 JUMP JUMPDEST SWAP1 POP SWAP2 SWAP1 POP JUMP JUMPDEST PUSH32 0x41756374696F6E20726F756E642068617320656E646564000000000000000000 PUSH0 DUP3 ADD MSTORE POP JUMP JUMPDEST PUSH0 PUSH2 0x1F87 PUSH1 0x17 DUP4 PUSH2 0x1E0B JUMP JUMPDEST SWAP2 POP PUSH2 0x1F92 DUP3 PUSH2 0x1F53 JUMP JUMPDEST PUSH1 0x20 DUP3 ADD SWAP1 POP SWAP2 SWAP1 POP JUMP JUMPDEST PUSH0 PUSH1 0x20 DUP3 ADD SWAP1 POP DUP2 DUP2 SUB PUSH0 DUP4 ADD MSTORE PUSH2 0x1FB4 DUP2 PUSH2 0x1F7B JUMP JUMPDEST SWAP1 POP SWAP2 SWAP1 POP JUMP JUMPDEST PUSH0 DUP2 MLOAD SWAP1 POP PUSH2 0x1FC9 DUP2 PUSH2 0x199D JUMP JUMPDEST SWAP3 SWAP2 POP POP JUMP JUMPDEST PUSH0 PUSH1 0x20 DUP3 DUP5 SUB SLT ISZERO PUSH2 0x1FE4 JUMPI PUSH2 0x1FE3 PUSH2 0x198C JUMP JUMPDEST JUMPDEST PUSH0 PUSH2 0x1FF1 DUP5 DUP3 DUP6 ADD PUSH2 0x1FBB JUMP JUMPDEST SWAP2 POP POP SWAP3 SWAP2 POP POP JUMP JUMPDEST PUSH32 0x41756374696F6E20506175736564000000000000000000000000000000000000 PUSH0 DUP3 ADD MSTORE POP JUMP JUMPDEST PUSH0 PUSH2 0x202E PUSH1 0xE DUP4 PUSH2 0x1E0B JUMP JUMPDEST SWAP2 POP PUSH2 0x2039 DUP3 PUSH2 0x1FFA JUMP JUMPDEST PUSH1 0x20 DUP3 ADD SWAP1 POP SWAP2 SWAP1 POP JUMP JUMPDEST PUSH0 PUSH1 0x20 DUP3 ADD SWAP1 POP DUP2 DUP2 SUB PUSH0 DUP4 ADD MSTORE PUSH2 0x205B DUP2 PUSH2 0x2022 JUMP JUMPDEST SWAP1 POP SWAP2 SWAP1 POP JUMP JUMPDEST PUSH32 0x4E6F74206D6F7265207468616E206C696D697400000000000000000000000000 PUSH0 DUP3 ADD MSTORE POP JUMP JUMPDEST PUSH0 PUSH2 0x2096 PUSH1 0x13 DUP4 PUSH2 0x1E0B JUMP JUMPDEST SWAP2 POP PUSH2 0x20A1 DUP3 PUSH2 0x2062 JUMP JUMPDEST PUSH1 0x20 DUP3 ADD SWAP1 POP SWAP2 SWAP1 POP JUMP JUMPDEST PUSH0 PUSH1 0x20 DUP3 ADD SWAP1 POP DUP2 DUP2 SUB PUSH0 DUP4 ADD MSTORE PUSH2 0x20C3 DUP2 PUSH2 0x208A JUMP JUMPDEST SWAP1 POP SWAP2 SWAP1 POP JUMP JUMPDEST PUSH32 0x496E76616C696420746F6B656E20616464726573730000000000000000000000 PUSH0 DUP3 ADD MSTORE POP JUMP JUMPDEST PUSH0 PUSH2 0x20FE PUSH1 0x15 DUP4 PUSH2 0x1E0B JUMP JUMPDEST SWAP2 POP PUSH2 0x2109 DUP3 PUSH2 0x20CA JUMP JUMPDEST PUSH1 0x20 DUP3 ADD SWAP1 POP SWAP2 SWAP1 POP JUMP JUMPDEST PUSH0 PUSH1 0x20 DUP3 ADD SWAP1 POP DUP2 DUP2 SUB PUSH0 DUP4 ADD MSTORE PUSH2 0x212B DUP2 PUSH2 0x20F2 JUMP JUMPDEST SWAP1 POP SWAP2 SWAP1 POP JUMP JUMPDEST PUSH32 0x4E487B7100000000000000000000000000000000000000000000000000000000 PUSH0 MSTORE PUSH1 0x11 PUSH1 0x4 MSTORE PUSH1 0x24 PUSH0 REVERT JUMPDEST PUSH0 PUSH2 0x2169 DUP3 PUSH2 0x1994 JUMP JUMPDEST SWAP2 POP PUSH2 0x2174 DUP4 PUSH2 0x1994 JUMP JUMPDEST SWAP3 POP DUP3 DUP3 MUL PUSH2 0x2182 DUP2 PUSH2 0x1994 JUMP JUMPDEST SWAP2 POP DUP3 DUP3 DIV DUP5 EQ DUP4 ISZERO OR PUSH2 0x2199 JUMPI PUSH2 0x2198 PUSH2 0x2132 JUMP JUMPDEST JUMPDEST POP SWAP3 SWAP2 POP POP JUMP JUMPDEST PUSH32 0x4E487B7100000000000000000000000000000000000000000000000000000000 PUSH0 MSTORE PUSH1 0x12 PUSH1 0x4 MSTORE PUSH1 0x24 PUSH0 REVERT JUMPDEST PUSH0 PUSH2 0x21D7 DUP3 PUSH2 0x1994 JUMP JUMPDEST SWAP2 POP PUSH2 0x21E2 DUP4 PUSH2 0x1994 JUMP JUMPDEST SWAP3 POP DUP3 PUSH2 0x21F2 JUMPI PUSH2 0x21F1 PUSH2 0x21A0 JUMP JUMPDEST JUMPDEST DUP3 DUP3 DIV SWAP1 POP SWAP3 SWAP2 POP POP JUMP JUMPDEST PUSH0 PUSH1 0x60 DUP3 ADD SWAP1 POP PUSH2 0x2210 PUSH0 DUP4 ADD DUP7 PUSH2 0x1BF2 JUMP JUMPDEST PUSH2 0x221D PUSH1 0x20 DUP4 ADD DUP6 PUSH2 0x1BF2 JUMP JUMPDEST PUSH2 0x222A PUSH1 0x40 DUP4 ADD DUP5 PUSH2 0x1C1A JUMP JUMPDEST SWAP5 SWAP4 POP POP POP POP JUMP JUMPDEST PUSH0 DUP2 MLOAD SWAP1 POP PUSH2 0x2240 DUP2 PUSH2 0x1C4D JUMP JUMPDEST SWAP3 SWAP2 POP POP JUMP JUMPDEST PUSH0 PUSH1 0x20 DUP3 DUP5 SUB SLT ISZERO PUSH2 0x225B JUMPI PUSH2 0x225A PUSH2 0x198C JUMP JUMPDEST JUMPDEST PUSH0 PUSH2 0x2268 DUP5 DUP3 DUP6 ADD PUSH2 0x2232 JUMP JUMPDEST SWAP2 POP POP SWAP3 SWAP2 POP POP JUMP JUMPDEST PUSH32 0x55534454207472616E73666572206661696C6564000000000000000000000000 PUSH0 DUP3 ADD MSTORE POP JUMP JUMPDEST PUSH0 PUSH2 0x22A5 PUSH1 0x14 DUP4 PUSH2 0x1E0B JUMP JUMPDEST SWAP2 POP PUSH2 0x22B0 DUP3 PUSH2 0x2271 JUMP JUMPDEST PUSH1 0x20 DUP3 ADD SWAP1 POP SWAP2 SWAP1 POP JUMP JUMPDEST PUSH0 PUSH1 0x20 DUP3 ADD SWAP1 POP DUP2 DUP2 SUB PUSH0 DUP4 ADD MSTORE PUSH2 0x22D2 DUP2 PUSH2 0x2299 JUMP JUMPDEST SWAP1 POP SWAP2 SWAP1 POP JUMP JUMPDEST PUSH0 PUSH2 0x22E3 DUP3 PUSH2 0x1994 JUMP JUMPDEST SWAP2 POP PUSH2 0x22EE DUP4 PUSH2 0x1994 JUMP JUMPDEST SWAP3 POP DUP3 DUP3 ADD SWAP1 POP DUP1 DUP3 GT ISZERO PUSH2 0x2306 JUMPI PUSH2 0x2305 PUSH2 0x2132 JUMP JUMPDEST JUMPDEST SWAP3 SWAP2 POP POP JUMP JUMPDEST PUSH0 PUSH2 0x2316 DUP3 PUSH2 0x1994 JUMP JUMPDEST SWAP2 POP PUSH2 0x2321 DUP4 PUSH2 0x1994 JUMP JUMPDEST SWAP3 POP DUP3 DUP3 SUB SWAP1 POP DUP2 DUP2 GT ISZERO PUSH2 0x2339 JUMPI PUSH2 0x2338 PUSH2 0x2132 JUMP JUMPDEST JUMPDEST SWAP3 SWAP2 POP POP JUMP JUMPDEST PUSH0 DUP1 REVERT JUMPDEST PUSH0 DUP1 REVERT JUMPDEST PUSH0 PUSH1 0x1F NOT PUSH1 0x1F DUP4 ADD AND SWAP1 POP SWAP2 SWAP1 POP JUMP JUMPDEST PUSH32 0x4E487B7100000000000000000000000000000000000000000000000000000000 PUSH0 MSTORE PUSH1 0x41 PUSH1 0x4 MSTORE PUSH1 0x24 PUSH0 REVERT JUMPDEST PUSH2 0x238D DUP3 PUSH2 0x2347 JUMP JUMPDEST DUP2 ADD DUP2 DUP2 LT PUSH8 0xFFFFFFFFFFFFFFFF DUP3 GT OR ISZERO PUSH2 0x23AC JUMPI PUSH2 0x23AB PUSH2 0x2357 JUMP JUMPDEST JUMPDEST DUP1 PUSH1 0x40 MSTORE POP POP POP JUMP JUMPDEST PUSH0 PUSH2 0x23BE PUSH2 0x1983 JUMP JUMPDEST SWAP1 POP PUSH2 0x23CA DUP3 DUP3 PUSH2 0x2384 JUMP JUMPDEST SWAP2 SWAP1 POP JUMP JUMPDEST PUSH0 PUSH8 0xFFFFFFFFFFFFFFFF DUP3 GT ISZERO PUSH2 0x23E9 JUMPI PUSH2 0x23E8 PUSH2 0x2357 JUMP JUMPDEST JUMPDEST PUSH2 0x23F2 DUP3 PUSH2 0x2347 JUMP JUMPDEST SWAP1 POP PUSH1 0x20 DUP2 ADD SWAP1 POP SWAP2 SWAP1 POP JUMP JUMPDEST PUSH0 JUMPDEST DUP4 DUP2 LT ISZERO PUSH2 0x241C JUMPI DUP1 DUP3 ADD MLOAD DUP2 DUP5 ADD MSTORE PUSH1 0x20 DUP2 ADD SWAP1 POP PUSH2 0x2401 JUMP JUMPDEST PUSH0 DUP5 DUP5 ADD MSTORE POP POP POP POP JUMP JUMPDEST PUSH0 PUSH2 0x2439 PUSH2 0x2434 DUP5 PUSH2 0x23CF JUMP JUMPDEST PUSH2 0x23B5 JUMP JUMPDEST SWAP1 POP DUP3 DUP2 MSTORE PUSH1 0x20 DUP2 ADD DUP5 DUP5 DUP5 ADD GT ISZERO PUSH2 0x2455 JUMPI PUSH2 0x2454 PUSH2 0x2343 JUMP JUMPDEST JUMPDEST PUSH2 0x2460 DUP5 DUP3 DUP6 PUSH2 0x23FF JUMP JUMPDEST POP SWAP4 SWAP3 POP POP POP JUMP JUMPDEST PUSH0 DUP3 PUSH1 0x1F DUP4 ADD SLT PUSH2 0x247C JUMPI PUSH2 0x247B PUSH2 0x233F JUMP JUMPDEST JUMPDEST DUP2 MLOAD PUSH2 0x248C DUP5 DUP3 PUSH1 0x20 DUP7 ADD PUSH2 0x2427 JUMP JUMPDEST SWAP2 POP POP SWAP3 SWAP2 POP POP JUMP JUMPDEST PUSH0 PUSH1 0x20 DUP3 DUP5 SUB SLT ISZERO PUSH2 0x24AA JUMPI PUSH2 0x24A9 PUSH2 0x198C JUMP JUMPDEST JUMPDEST PUSH0 DUP3 ADD MLOAD PUSH8 0xFFFFFFFFFFFFFFFF DUP2 GT ISZERO PUSH2 0x24C7 JUMPI PUSH2 0x24C6 PUSH2 0x1990 JUMP JUMPDEST JUMPDEST PUSH2 0x24D3 DUP5 DUP3 DUP6 ADD PUSH2 0x2468 JUMP JUMPDEST SWAP2 POP POP SWAP3 SWAP2 POP POP JUMP JUMPDEST PUSH0 PUSH1 0x60 DUP3 ADD SWAP1 POP PUSH2 0x24EF PUSH0 DUP4 ADD DUP7 PUSH2 0x1BF2 JUMP JUMPDEST PUSH2 0x24FC PUSH1 0x20 DUP4 ADD DUP6 PUSH2 0x1C1A JUMP JUMPDEST PUSH2 0x2509 PUSH1 0x40 DUP4 ADD DUP5 PUSH2 0x1C1A JUMP JUMPDEST SWAP5 SWAP4 POP POP POP POP JUMP JUMPDEST PUSH0 PUSH1 0x40 DUP3 ADD SWAP1 POP PUSH2 0x2524 PUSH0 DUP4 ADD DUP6 PUSH2 0x1BF2 JUMP JUMPDEST PUSH2 0x2531 PUSH1 0x20 DUP4 ADD DUP5 PUSH2 0x1C1A JUMP JUMPDEST SWAP4 SWAP3 POP POP POP JUMP JUMPDEST PUSH32 0x50726F746F6E20746F6B656E207472616E73666572206661696C656400000000 PUSH0 DUP3 ADD MSTORE POP JUMP JUMPDEST PUSH0 PUSH2 0x256C PUSH1 0x1C DUP4 PUSH2 0x1E0B JUMP JUMPDEST SWAP2 POP PUSH2 0x2577 DUP3 PUSH2 0x2538 JUMP JUMPDEST PUSH1 0x20 DUP3 ADD SWAP1 POP SWAP2 SWAP1 POP JUMP JUMPDEST PUSH0 PUSH1 0x20 DUP3 ADD SWAP1 POP DUP2 DUP2 SUB PUSH0 DUP4 ADD MSTORE PUSH2 0x2599 DUP2 PUSH2 0x2560 JUMP JUMPDEST SWAP1 POP SWAP2 SWAP1 POP JUMP JUMPDEST PUSH32 0x41756374696F6E206973207374696C6C20616374697665000000000000000000 PUSH0 DUP3 ADD MSTORE POP JUMP JUMPDEST PUSH0 PUSH2 0x25D4 PUSH1 0x17 DUP4 PUSH2 0x1E0B JUMP JUMPDEST SWAP2 POP PUSH2 0x25DF DUP3 PUSH2 0x25A0 JUMP JUMPDEST PUSH1 0x20 DUP3 ADD SWAP1 POP SWAP2 SWAP1 POP JUMP JUMPDEST PUSH0 PUSH1 0x20 DUP3 ADD SWAP1 POP DUP2 DUP2 SUB PUSH0 DUP4 ADD MSTORE PUSH2 0x2601 DUP2 PUSH2 0x25C8 JUMP JUMPDEST SWAP1 POP SWAP2 SWAP1 POP JUMP JUMPDEST PUSH32 0x41756374696F6E206461797320617265206E6F7420636F6D706C657465000000 PUSH0 DUP3 ADD MSTORE POP JUMP JUMPDEST PUSH0 PUSH2 0x263C PUSH1 0x1D DUP4 PUSH2 0x1E0B JUMP JUMPDEST SWAP2 POP PUSH2 0x2647 DUP3 PUSH2 0x2608 JUMP JUMPDEST PUSH1 0x20 DUP3 ADD SWAP1 POP SWAP2 SWAP1 POP JUMP JUMPDEST PUSH0 PUSH1 0x20 DUP3 ADD SWAP1 POP DUP2 DUP2 SUB PUSH0 DUP4 ADD MSTORE PUSH2 0x2669 DUP2 PUSH2 0x2630 JUMP JUMPDEST SWAP1 POP SWAP2 SWAP1 POP JUMP JUMPDEST PUSH32 0x496E636F72726563742076616C75650000000000000000000000000000000000 PUSH0 DUP3 ADD MSTORE POP JUMP JUMPDEST PUSH0 PUSH2 0x26A4 PUSH1 0xF DUP4 PUSH2 0x1E0B JUMP JUMPDEST SWAP2 POP PUSH2 0x26AF DUP3 PUSH2 0x2670 JUMP JUMPDEST PUSH1 0x20 DUP3 ADD SWAP1 POP SWAP2 SWAP1 POP JUMP JUMPDEST PUSH0 PUSH1 0x20 DUP3 ADD SWAP1 POP DUP2 DUP2 SUB PUSH0 DUP4 ADD MSTORE PUSH2 0x26D1 DUP2 PUSH2 0x2698 JUMP JUMPDEST SWAP1 POP SWAP2 SWAP1 POP JUMP JUMPDEST PUSH0 PUSH1 0x80 DUP3 ADD SWAP1 POP PUSH2 0x26EB PUSH0 DUP4 ADD DUP8 PUSH2 0x1BF2 JUMP JUMPDEST PUSH2 0x26F8 PUSH1 0x20 DUP4 ADD DUP7 PUSH2 0x1C1A JUMP JUMPDEST PUSH2 0x2705 PUSH1 0x40 DUP4 ADD DUP6 PUSH2 0x1C1A JUMP JUMPDEST PUSH2 0x2712 PUSH1 0x60 DUP4 ADD DUP5 PUSH2 0x1C1A JUMP JUMPDEST SWAP6 SWAP5 POP POP POP POP POP JUMP JUMPDEST PUSH32 0x4552524F523A204441592076616C756500000000000000000000000000000000 PUSH0 DUP3 ADD MSTORE POP JUMP JUMPDEST PUSH0 PUSH2 0x274F PUSH1 0x10 DUP4 PUSH2 0x1E0B JUMP JUMPDEST SWAP2 POP PUSH2 0x275A DUP3 PUSH2 0x271B JUMP JUMPDEST PUSH1 0x20 DUP3 ADD SWAP1 POP SWAP2 SWAP1 POP JUMP JUMPDEST PUSH0 PUSH1 0x20 DUP3 ADD SWAP1 POP DUP2 DUP2 SUB PUSH0 DUP4 ADD MSTORE PUSH2 0x277C DUP2 PUSH2 0x2743 JUMP JUMPDEST SWAP1 POP SWAP2 SWAP1 POP JUMP JUMPDEST PUSH0 PUSH1 0x60 DUP3 ADD SWAP1 POP PUSH2 0x2796 PUSH0 DUP4 ADD DUP7 PUSH2 0x1BF2 JUMP JUMPDEST PUSH2 0x27A3 PUSH1 0x20 DUP4 ADD DUP6 PUSH2 0x1D75 JUMP JUMPDEST PUSH2 0x27B0 PUSH1 0x40 DUP4 ADD DUP5 PUSH2 0x1C1A JUMP JUMPDEST SWAP5 SWAP4 POP POP POP POP JUMP JUMPDEST PUSH32 0x41756374696F6E20616C72656164792073746172746564000000000000000000 PUSH0 DUP3 ADD MSTORE POP JUMP JUMPDEST PUSH0 PUSH2 0x27EC PUSH1 0x17 DUP4 PUSH2 0x1E0B JUMP JUMPDEST SWAP2 POP PUSH2 0x27F7 DUP3 PUSH2 0x27B8 JUMP JUMPDEST PUSH1 0x20 DUP3 ADD SWAP1 POP SWAP2 SWAP1 POP JUMP JUMPDEST PUSH0 PUSH1 0x20 DUP3 ADD SWAP1 POP DUP2 DUP2 SUB PUSH0 DUP4 ADD MSTORE PUSH2 0x2819 DUP2 PUSH2 0x27E0 JUMP JUMPDEST SWAP1 POP SWAP2 SWAP1 POP JUMP JUMPDEST PUSH0 PUSH2 0x282A DUP3 PUSH2 0x1994 JUMP JUMPDEST SWAP2 POP PUSH32 0xFFFFFFFFFFFFFFFFFFFFFFFFFFFFFFFFFFFFFFFFFFFFFFFFFFFFFFFFFFFFFFFF DUP3 SUB PUSH2 0x285C JUMPI PUSH2 0x285B PUSH2 0x2132 JUMP JUMPDEST JUMPDEST PUSH1 0x1 DUP3 ADD SWAP1 POP SWAP2 SWAP1 POP JUMP JUMPDEST PUSH32 0x4E487B7100000000000000000000000000000000000000000000000000000000 PUSH0 MSTORE PUSH1 0x32 PUSH1 0x4 MSTORE PUSH1 0x24 PUSH0 REVERT INVALID LOG2 PUSH5 0x6970667358 0x22 SLT KECCAK256 JUMPDEST DUP9 0x4D DUP5 0xC4 POP 0xA7 0xB9 0xF8 PUSH6 0x1770D192B5F6 ADDMOD SWAP16 MUL 0xC9 0x2B CODECOPY 0x29 PUSH11 0xD4D05E699F0124D664736F PUSH13 0x63430008140033000000000000 "
				},
				"gasEstimates": {
					"creation": {
						"codeDepositCost": "2088400",
						"executionCost": "infinite",
						"totalCost": "infinite"
					},
					"external": {
						"AuctionTime()": "infinite",
						"PROTON()": "infinite",
						"USDT()": "infinite",
						"auctionStatus(bool)": "infinite",
						"buyTokens(address,uint256)": "infinite",
						"calculateTokenAmount(uint256)": "infinite",
						"claimReward(address,uint256)": "infinite",
						"currentRound()": "2515",
						"dailyAuctions(uint256)": "infinite",
						"fundsWallet()": "2649",
						"getCurrentDay()": "infinite",
						"getDailyAuction(uint256,uint256)": "infinite",
						"isPaused()": "2511",
						"lockingDay()": "2514",
						"maxOversubscription()": "2492",
						"maxOversubscriptionlimit()": "2537",
						"owner()": "2582",
						"renounceOwnership()": "infinite",
						"rounds(uint256)": "infinite",
						"setDailyDetails(uint256,uint256,uint256)": "infinite",
						"setFundsWallet(address)": "infinite",
						"setPrice(uint256)": "infinite",
						"setToken(address)": "infinite",
						"startAuction()": "infinite",
						"token(uint256)": "infinite",
						"tokenPrice()": "2493",
						"totalSell()": "2491",
						"transferOwnership(address)": "infinite",
						"userDetail(address)": "infinite"
					},
					"internal": {
						"isTokenValid(contract IERC20)": "infinite",
						"remainingToken()": "infinite"
					}
				},
				"methodIdentifiers": {
					"AuctionTime()": "fa6770b3",
					"PROTON()": "d358aa20",
					"USDT()": "c54e44eb",
					"auctionStatus(bool)": "30db6f95",
					"buyTokens(address,uint256)": "0752881a",
					"calculateTokenAmount(uint256)": "a24bcf46",
					"claimReward(address,uint256)": "174e31c4",
					"currentRound()": "8a19c8bc",
					"dailyAuctions(uint256)": "3c830a38",
					"fundsWallet()": "2194f3a2",
					"getCurrentDay()": "3e6968b6",
					"getDailyAuction(uint256,uint256)": "48a5c188",
					"isPaused()": "b187bd26",
					"lockingDay()": "bf4dd131",
					"maxOversubscription()": "bb4d5e7c",
					"maxOversubscriptionlimit()": "224a8057",
					"owner()": "8da5cb5b",
					"renounceOwnership()": "715018a6",
					"rounds(uint256)": "8c65c81f",
					"setDailyDetails(uint256,uint256,uint256)": "18d7fa46",
					"setFundsWallet(address)": "64e39b87",
					"setPrice(uint256)": "91b7f5ed",
					"setToken(address)": "144fa6d7",
					"startAuction()": "6b64c769",
					"token(uint256)": "044215c6",
					"tokenPrice()": "7ff9b596",
					"totalSell()": "e0202f87",
					"transferOwnership(address)": "f2fde38b",
					"userDetail(address)": "5b10493f"
				}
			},
			"storageLayout": {
				"storage": [
					{
						"astId": 33,
						"contract": "contracts/Auction/auction1404.sol:ProtonAuction",
						"label": "_owner",
						"offset": 0,
						"slot": "0",
						"type": "t_address"
					},
					{
						"astId": 990,
						"contract": "contracts/Auction/auction1404.sol:ProtonAuction",
						"label": "USDT",
						"offset": 0,
						"slot": "1",
						"type": "t_contract(IERC20)378"
					},
					{
						"astId": 993,
						"contract": "contracts/Auction/auction1404.sol:ProtonAuction",
						"label": "PROTON",
						"offset": 0,
						"slot": "2",
						"type": "t_contract(IProton)985"
					},
					{
						"astId": 1000,
						"contract": "contracts/Auction/auction1404.sol:ProtonAuction",
						"label": "tokenPrice",
						"offset": 0,
						"slot": "3",
						"type": "t_uint256"
					},
					{
						"astId": 1007,
						"contract": "contracts/Auction/auction1404.sol:ProtonAuction",
						"label": "maxOversubscription",
						"offset": 0,
						"slot": "4",
						"type": "t_uint256"
					},
					{
						"astId": 1014,
						"contract": "contracts/Auction/auction1404.sol:ProtonAuction",
						"label": "maxOversubscriptionlimit",
						"offset": 0,
						"slot": "5",
						"type": "t_uint256"
					},
					{
						"astId": 1016,
						"contract": "contracts/Auction/auction1404.sol:ProtonAuction",
						"label": "totalSell",
						"offset": 0,
						"slot": "6",
						"type": "t_uint256"
					},
					{
						"astId": 1019,
						"contract": "contracts/Auction/auction1404.sol:ProtonAuction",
						"label": "lockingDay",
						"offset": 0,
						"slot": "7",
						"type": "t_uint256"
					},
					{
						"astId": 1021,
						"contract": "contracts/Auction/auction1404.sol:ProtonAuction",
						"label": "currentRound",
						"offset": 0,
						"slot": "8",
						"type": "t_uint256"
					},
					{
						"astId": 1024,
						"contract": "contracts/Auction/auction1404.sol:ProtonAuction",
						"label": "isPaused",
						"offset": 0,
						"slot": "9",
						"type": "t_bool"
					},
					{
						"astId": 1026,
						"contract": "contracts/Auction/auction1404.sol:ProtonAuction",
						"label": "fundsWallet",
						"offset": 1,
						"slot": "9",
						"type": "t_address"
					},
					{
						"astId": 1030,
						"contract": "contracts/Auction/auction1404.sol:ProtonAuction",
						"label": "token",
						"offset": 0,
						"slot": "10",
						"type": "t_array(t_contract(IERC20)378)dyn_storage"
					},
					{
						"astId": 1059,
						"contract": "contracts/Auction/auction1404.sol:ProtonAuction",
						"label": "rounds",
						"offset": 0,
						"slot": "11",
						"type": "t_mapping(t_uint256,t_struct(Round)1049_storage)"
					},
					{
						"astId": 1064,
						"contract": "contracts/Auction/auction1404.sol:ProtonAuction",
						"label": "dailyAuctions",
						"offset": 0,
						"slot": "12",
						"type": "t_mapping(t_uint256,t_struct(Auction)1039_storage)"
					},
					{
						"astId": 1069,
						"contract": "contracts/Auction/auction1404.sol:ProtonAuction",
						"label": "userDetail",
						"offset": 0,
						"slot": "13",
						"type": "t_mapping(t_address,t_struct(UserDetails)1054_storage)"
					}
				],
				"types": {
					"t_address": {
						"encoding": "inplace",
						"label": "address",
						"numberOfBytes": "20"
					},
					"t_array(t_contract(IERC20)378)dyn_storage": {
						"base": "t_contract(IERC20)378",
						"encoding": "dynamic_array",
						"label": "contract IERC20[]",
						"numberOfBytes": "32"
					},
					"t_bool": {
						"encoding": "inplace",
						"label": "bool",
						"numberOfBytes": "1"
					},
					"t_contract(IERC20)378": {
						"encoding": "inplace",
						"label": "contract IERC20",
						"numberOfBytes": "20"
					},
					"t_contract(IProton)985": {
						"encoding": "inplace",
						"label": "contract IProton",
						"numberOfBytes": "20"
					},
					"t_mapping(t_address,t_struct(UserDetails)1054_storage)": {
						"encoding": "mapping",
						"key": "t_address",
						"label": "mapping(address => struct ProtonAuction.UserDetails)",
						"numberOfBytes": "32",
						"value": "t_struct(UserDetails)1054_storage"
					},
					"t_mapping(t_uint256,t_struct(Auction)1039_storage)": {
						"encoding": "mapping",
						"key": "t_uint256",
						"label": "mapping(uint256 => struct ProtonAuction.Auction)",
						"numberOfBytes": "32",
						"value": "t_struct(Auction)1039_storage"
					},
					"t_mapping(t_uint256,t_struct(Round)1049_storage)": {
						"encoding": "mapping",
						"key": "t_uint256",
						"label": "mapping(uint256 => struct ProtonAuction.Round)",
						"numberOfBytes": "32",
						"value": "t_struct(Round)1049_storage"
					},
					"t_struct(Auction)1039_storage": {
						"encoding": "inplace",
						"label": "struct ProtonAuction.Auction",
						"members": [
							{
								"astId": 1032,
								"contract": "contracts/Auction/auction1404.sol:ProtonAuction",
								"label": "tokensDaily",
								"offset": 0,
								"slot": "0",
								"type": "t_uint256"
							},
							{
								"astId": 1034,
								"contract": "contracts/Auction/auction1404.sol:ProtonAuction",
								"label": "tokensSold",
								"offset": 0,
								"slot": "1",
								"type": "t_uint256"
							},
							{
								"astId": 1036,
								"contract": "contracts/Auction/auction1404.sol:ProtonAuction",
								"label": "oversubscribed",
								"offset": 0,
								"slot": "2",
								"type": "t_uint256"
							},
							{
								"astId": 1038,
								"contract": "contracts/Auction/auction1404.sol:ProtonAuction",
								"label": "bonusMultiplier",
								"offset": 0,
								"slot": "3",
								"type": "t_uint256"
							}
						],
						"numberOfBytes": "128"
					},
					"t_struct(Round)1049_storage": {
						"encoding": "inplace",
						"label": "struct ProtonAuction.Round",
						"members": [
							{
								"astId": 1041,
								"contract": "contracts/Auction/auction1404.sol:ProtonAuction",
								"label": "roundStart",
								"offset": 0,
								"slot": "0",
								"type": "t_uint256"
							},
							{
								"astId": 1043,
								"contract": "contracts/Auction/auction1404.sol:ProtonAuction",
								"label": "roundEnd",
								"offset": 0,
								"slot": "1",
								"type": "t_uint256"
							},
							{
								"astId": 1048,
								"contract": "contracts/Auction/auction1404.sol:ProtonAuction",
								"label": "dailyAuctions",
								"offset": 0,
								"slot": "2",
								"type": "t_mapping(t_uint256,t_struct(Auction)1039_storage)"
							}
						],
						"numberOfBytes": "96"
					},
					"t_struct(UserDetails)1054_storage": {
						"encoding": "inplace",
						"label": "struct ProtonAuction.UserDetails",
						"members": [
							{
								"astId": 1051,
								"contract": "contracts/Auction/auction1404.sol:ProtonAuction",
								"label": "reward",
								"offset": 0,
								"slot": "0",
								"type": "t_uint256"
							},
							{
								"astId": 1053,
								"contract": "contracts/Auction/auction1404.sol:ProtonAuction",
								"label": "buyTotal",
								"offset": 0,
								"slot": "1",
								"type": "t_uint256"
							}
						],
						"numberOfBytes": "64"
					},
					"t_uint256": {
						"encoding": "inplace",
						"label": "uint256",
						"numberOfBytes": "32"
					}
				}
			},
			"userdoc": {
				"kind": "user",
				"methods": {},
				"version": 1
			}
		}
	}
}