{
	"Auction/auction1404.sol": {
		"ProtonAuction": {
			"abi": [
				{
					"inputs": [
						{
							"internalType": "address",
							"name": "_protonAddress",
							"type": "address"
						},
						{
							"internalType": "address",
							"name": "_fundsWalletAdd",
							"type": "address"
						}
					],
					"stateMutability": "nonpayable",
					"type": "constructor"
				},
				{
					"inputs": [
						{
							"internalType": "address",
							"name": "owner",
							"type": "address"
						}
					],
					"name": "OwnableInvalidOwner",
					"type": "error"
				},
				{
					"inputs": [
						{
							"internalType": "address",
							"name": "account",
							"type": "address"
						}
					],
					"name": "OwnableUnauthorizedAccount",
					"type": "error"
				},
				{
					"anonymous": false,
					"inputs": [
						{
							"indexed": false,
							"internalType": "address",
							"name": "caller",
							"type": "address"
						},
						{
							"indexed": false,
							"internalType": "bool",
							"name": "status",
							"type": "bool"
						},
						{
							"indexed": false,
							"internalType": "uint256",
							"name": "time",
							"type": "uint256"
						}
					],
					"name": "AuctionStatus",
					"type": "event"
				},
				{
					"anonymous": false,
					"inputs": [
						{
							"indexed": true,
							"internalType": "address",
							"name": "previousOwner",
							"type": "address"
						},
						{
							"indexed": true,
							"internalType": "address",
							"name": "newOwner",
							"type": "address"
						}
					],
					"name": "OwnershipTransferred",
					"type": "event"
				},
				{
					"anonymous": false,
					"inputs": [
						{
							"indexed": false,
							"internalType": "uint256",
							"name": "round",
							"type": "uint256"
						},
						{
							"indexed": false,
							"internalType": "uint256",
							"name": "startTime",
							"type": "uint256"
						},
						{
							"indexed": false,
							"internalType": "uint256",
							"name": "endtime",
							"type": "uint256"
						}
					],
					"name": "StartAuction",
					"type": "event"
				},
				{
					"anonymous": false,
					"inputs": [
						{
							"indexed": true,
							"internalType": "address",
							"name": "buyer",
							"type": "address"
						},
						{
							"indexed": false,
							"internalType": "uint256",
							"name": "usdtAmount",
							"type": "uint256"
						},
						{
							"indexed": false,
							"internalType": "uint256",
							"name": "amount",
							"type": "uint256"
						},
						{
							"indexed": false,
							"internalType": "uint256",
							"name": "lockTime",
							"type": "uint256"
						}
					],
					"name": "TokensPurchased",
					"type": "event"
				},
				{
					"anonymous": false,
					"inputs": [
						{
							"indexed": false,
							"internalType": "address",
							"name": "user",
							"type": "address"
						},
						{
							"indexed": false,
							"internalType": "uint256",
							"name": "leftToken",
							"type": "uint256"
						},
						{
							"indexed": false,
							"internalType": "uint256",
							"name": "amount",
							"type": "uint256"
						},
						{
							"indexed": false,
							"internalType": "uint256",
							"name": "timeClaim",
							"type": "uint256"
						}
					],
					"name": "claimreward",
					"type": "event"
				},
				{
					"inputs": [],
					"name": "AuctionTime",
					"outputs": [
						{
							"internalType": "uint256",
							"name": "_currentRound",
							"type": "uint256"
						},
						{
							"internalType": "uint256",
							"name": "roundStart",
							"type": "uint256"
						},
						{
							"internalType": "uint256",
							"name": "roundEnd",
							"type": "uint256"
						}
					],
					"stateMutability": "view",
					"type": "function"
				},
				{
					"inputs": [],
					"name": "PROTON",
					"outputs": [
						{
							"internalType": "contract IProton",
							"name": "",
							"type": "address"
						}
					],
					"stateMutability": "view",
					"type": "function"
				},
				{
					"inputs": [],
					"name": "USDT",
					"outputs": [
						{
							"internalType": "contract IERC20",
							"name": "",
							"type": "address"
						}
					],
					"stateMutability": "view",
					"type": "function"
				},
				{
					"inputs": [
						{
							"internalType": "bool",
							"name": "status",
							"type": "bool"
						}
					],
					"name": "auctionStatus",
					"outputs": [],
					"stateMutability": "nonpayable",
					"type": "function"
				},
				{
					"inputs": [
						{
							"internalType": "contract IERC20",
							"name": "contractAddress",
							"type": "address"
						},
						{
							"internalType": "uint256",
							"name": "_amount",
							"type": "uint256"
						}
					],
					"name": "buyTokens",
					"outputs": [],
					"stateMutability": "nonpayable",
					"type": "function"
				},
				{
					"inputs": [
						{
							"internalType": "uint256",
							"name": "_usdtAmount",
							"type": "uint256"
						}
					],
					"name": "calculateTokenAmount",
					"outputs": [
						{
							"internalType": "uint256",
							"name": "",
							"type": "uint256"
						}
					],
					"stateMutability": "view",
					"type": "function"
				},
				{
					"inputs": [
						{
							"internalType": "address",
							"name": "user",
							"type": "address"
						},
						{
							"internalType": "uint256",
							"name": "_usdtAmount",
							"type": "uint256"
						}
					],
					"name": "claimReward",
					"outputs": [],
					"stateMutability": "nonpayable",
					"type": "function"
				},
				{
					"inputs": [],
					"name": "currentRound",
					"outputs": [
						{
							"internalType": "uint256",
							"name": "",
							"type": "uint256"
						}
					],
					"stateMutability": "view",
					"type": "function"
				},
				{
					"inputs": [
						{
							"internalType": "uint256",
							"name": "",
							"type": "uint256"
						}
					],
					"name": "dailyAuctions",
					"outputs": [
						{
							"internalType": "uint256",
							"name": "tokensDaily",
							"type": "uint256"
						},
						{
							"internalType": "uint256",
							"name": "tokensSold",
							"type": "uint256"
						},
						{
							"internalType": "uint256",
							"name": "oversubscribed",
							"type": "uint256"
						},
						{
							"internalType": "uint256",
							"name": "bonusMultiplier",
							"type": "uint256"
						}
					],
					"stateMutability": "view",
					"type": "function"
				},
				{
					"inputs": [],
					"name": "fundsWallet",
					"outputs": [
						{
							"internalType": "address",
							"name": "",
							"type": "address"
						}
					],
					"stateMutability": "view",
					"type": "function"
				},
				{
					"inputs": [],
					"name": "getCurrentDay",
					"outputs": [
						{
							"internalType": "uint256",
							"name": "",
							"type": "uint256"
						}
					],
					"stateMutability": "view",
					"type": "function"
				},
				{
					"inputs": [
						{
							"internalType": "uint256",
							"name": "roundNumber",
							"type": "uint256"
						},
						{
							"internalType": "uint256",
							"name": "day",
							"type": "uint256"
						}
					],
					"name": "getDailyAuction",
					"outputs": [
						{
							"internalType": "uint256",
							"name": "",
							"type": "uint256"
						}
					],
					"stateMutability": "view",
					"type": "function"
				},
				{
					"inputs": [],
					"name": "isPaused",
					"outputs": [
						{
							"internalType": "bool",
							"name": "",
							"type": "bool"
						}
					],
					"stateMutability": "view",
					"type": "function"
				},
				{
					"inputs": [],
					"name": "lockingDay",
					"outputs": [
						{
							"internalType": "uint256",
							"name": "",
							"type": "uint256"
						}
					],
					"stateMutability": "view",
					"type": "function"
				},
				{
					"inputs": [],
					"name": "maxOversubscription",
					"outputs": [
						{
							"internalType": "uint256",
							"name": "",
							"type": "uint256"
						}
					],
					"stateMutability": "view",
					"type": "function"
				},
				{
					"inputs": [],
					"name": "maxOversubscriptionlimit",
					"outputs": [
						{
							"internalType": "uint256",
							"name": "",
							"type": "uint256"
						}
					],
					"stateMutability": "view",
					"type": "function"
				},
				{
					"inputs": [],
					"name": "owner",
					"outputs": [
						{
							"internalType": "address",
							"name": "",
							"type": "address"
						}
					],
					"stateMutability": "view",
					"type": "function"
				},
				{
					"inputs": [],
					"name": "renounceOwnership",
					"outputs": [],
					"stateMutability": "nonpayable",
					"type": "function"
				},
				{
					"inputs": [
						{
							"internalType": "uint256",
							"name": "",
							"type": "uint256"
						}
					],
					"name": "rounds",
					"outputs": [
						{
							"internalType": "uint256",
							"name": "roundStart",
							"type": "uint256"
						},
						{
							"internalType": "uint256",
							"name": "roundEnd",
							"type": "uint256"
						}
					],
					"stateMutability": "view",
					"type": "function"
				},
				{
					"inputs": [
						{
							"internalType": "uint256",
							"name": "day",
							"type": "uint256"
						},
						{
							"internalType": "uint256",
							"name": "tokensDaily",
							"type": "uint256"
						},
						{
							"internalType": "uint256",
							"name": "bonusMultiplier",
							"type": "uint256"
						}
					],
					"name": "setDailyDetails",
					"outputs": [],
					"stateMutability": "nonpayable",
					"type": "function"
				},
				{
					"inputs": [
						{
							"internalType": "address",
							"name": "_fundsWalletAddr",
							"type": "address"
						}
					],
					"name": "setFundsWallet",
					"outputs": [],
					"stateMutability": "nonpayable",
					"type": "function"
				},
				{
					"inputs": [
						{
							"internalType": "uint256",
							"name": "_tokenPrice",
							"type": "uint256"
						}
					],
					"name": "setPrice",
					"outputs": [],
					"stateMutability": "nonpayable",
					"type": "function"
				},
				{
					"inputs": [
						{
							"internalType": "contract IERC20",
							"name": "addr",
							"type": "address"
						}
					],
					"name": "setToken",
					"outputs": [],
					"stateMutability": "nonpayable",
					"type": "function"
				},
				{
					"inputs": [],
					"name": "startAuction",
					"outputs": [],
					"stateMutability": "nonpayable",
					"type": "function"
				},
				{
					"inputs": [
						{
							"internalType": "uint256",
							"name": "",
							"type": "uint256"
						}
					],
					"name": "token",
					"outputs": [
						{
							"internalType": "contract IERC20",
							"name": "",
							"type": "address"
						}
					],
					"stateMutability": "view",
					"type": "function"
				},
				{
					"inputs": [],
					"name": "tokenPrice",
					"outputs": [
						{
							"internalType": "uint256",
							"name": "",
							"type": "uint256"
						}
					],
					"stateMutability": "view",
					"type": "function"
				},
				{
					"inputs": [],
					"name": "totalSell",
					"outputs": [
						{
							"internalType": "uint256",
							"name": "",
							"type": "uint256"
						}
					],
					"stateMutability": "view",
					"type": "function"
				},
				{
					"inputs": [
						{
							"internalType": "address",
							"name": "newOwner",
							"type": "address"
						}
					],
					"name": "transferOwnership",
					"outputs": [],
					"stateMutability": "nonpayable",
					"type": "function"
				},
				{
					"inputs": [
						{
							"internalType": "address",
							"name": "",
							"type": "address"
						}
					],
					"name": "userDetail",
					"outputs": [
						{
							"internalType": "uint256",
							"name": "reward",
							"type": "uint256"
						},
						{
							"internalType": "uint256",
							"name": "buyTotal",
							"type": "uint256"
						}
					],
					"stateMutability": "view",
					"type": "function"
				}
			],
			"devdoc": {
				"errors": {
					"OwnableInvalidOwner(address)": [
						{
							"details": "The owner is not a valid owner account. (eg. `address(0)`)"
						}
					],
					"OwnableUnauthorizedAccount(address)": [
						{
							"details": "The caller account is not authorized to perform an operation."
						}
					]
				},
				"kind": "dev",
				"methods": {
					"owner()": {
						"details": "Returns the address of the current owner."
					},
					"renounceOwnership()": {
						"details": "Leaves the contract without owner. It will not be possible to call `onlyOwner` functions. Can only be called by the current owner. NOTE: Renouncing ownership will leave the contract without an owner, thereby disabling any functionality that is only available to the owner."
					},
					"transferOwnership(address)": {
						"details": "Transfers ownership of the contract to a new account (`newOwner`). Can only be called by the current owner."
					}
				},
				"version": 1
			},
			"evm": {
				"assembly": "    /* \"Auction/auction1404.sol\":23328:32412  contract ProtonAuction is Ownable {... */\n  mstore(0x40, 0x80)\n    /* \"Auction/auction1404.sol\":23447:23459  1 * 10 ** 18 */\n  0x0de0b6b3a7640000\n    /* \"Auction/auction1404.sol\":23419:23459  uint256 public tokenPrice = 1 * 10 ** 18 */\n  0x03\n  sstore\n    /* \"Auction/auction1404.sol\":23585:23603  5000000 * 10 ** 18 */\n  0x0422ca8b0a00a425000000\n    /* \"Auction/auction1404.sol\":23548:23603  uint256 public maxOversubscription = 5000000 * 10 ** 18 */\n  0x04\n  sstore\n    /* \"Auction/auction1404.sol\":23651:23669  1000000 * 10 ** 18 */\n  0xd3c21bcecceda1000000\n    /* \"Auction/auction1404.sol\":23609:23669  uint256 public maxOversubscriptionlimit = 1000000 * 10 ** 18 */\n  0x05\n  sstore\n    /* \"Auction/auction1404.sol\":23772:23775  180 */\n  0xb4\n    /* \"Auction/auction1404.sol\":23744:23775  uint256 public lockingDay = 180 */\n  0x07\n  sstore\n    /* \"Auction/auction1404.sol\":23841:23845  true */\n  0x01\n    /* \"Auction/auction1404.sol\":23815:23845  bool    public isPaused = true */\n  0x09\n  exp(0x0100, 0x00)\n  dup2\n  sload\n  dup2\n  0xff\n  mul\n  not\n  and\n  swap1\n  dup4\n  iszero\n  iszero\n  mul\n  or\n  swap1\n  sstore\n  pop\n    /* \"Auction/auction1404.sol\":24735:24959  constructor(... */\n  callvalue\n  dup1\n  iszero\n  tag_1\n  jumpi\n  0x00\n  dup1\n  revert\ntag_1:\n  pop\n  mload(0x40)\n  sub(codesize, bytecodeSize)\n  dup1\n  bytecodeSize\n  dup4\n  codecopy\n  dup2\n  dup2\n  add\n  0x40\n  mstore\n  dup2\n  add\n  swap1\n  tag_2\n  swap2\n  swap1\n  tag_3\n  jump\t// in\ntag_2:\n    /* \"Auction/auction1404.sol\":24827:24837  msg.sender */\n  caller\n    /* \"Auction/auction1404.sol\":1594:1595  0 */\n  0x00\n    /* \"Auction/auction1404.sol\":1570:1596  initialOwner == address(0) */\n  0xffffffffffffffffffffffffffffffffffffffff\n  and\n    /* \"Auction/auction1404.sol\":1570:1582  initialOwner */\n  dup2\n    /* \"Auction/auction1404.sol\":1570:1596  initialOwner == address(0) */\n  0xffffffffffffffffffffffffffffffffffffffff\n  and\n  sub\n    /* \"Auction/auction1404.sol\":1566:1661  if (initialOwner == address(0)) {... */\n  tag_7\n  jumpi\n    /* \"Auction/auction1404.sol\":1647:1648  0 */\n  0x00\n    /* \"Auction/auction1404.sol\":1619:1650  OwnableInvalidOwner(address(0)) */\n  mload(0x40)\n  0x1e4fbdf700000000000000000000000000000000000000000000000000000000\n  dup2\n  mstore\n  0x04\n  add\n  tag_8\n  swap2\n  swap1\n  tag_9\n  jump\t// in\ntag_8:\n  mload(0x40)\n  dup1\n  swap2\n  sub\n  swap1\n  revert\n    /* \"Auction/auction1404.sol\":1566:1661  if (initialOwner == address(0)) {... */\ntag_7:\n    /* \"Auction/auction1404.sol\":1670:1702  _transferOwnership(initialOwner) */\n  tag_10\n    /* \"Auction/auction1404.sol\":1689:1701  initialOwner */\n  dup2\n    /* \"Auction/auction1404.sol\":1670:1688  _transferOwnership */\n  shl(0x20, tag_11)\n    /* \"Auction/auction1404.sol\":1670:1702  _transferOwnership(initialOwner) */\n  0x20\n  shr\n  jump\t// in\ntag_10:\n    /* \"Auction/auction1404.sol\":1522:1709  constructor(address initialOwner) {... */\n  pop\n    /* \"Auction/auction1404.sol\":24866:24880  _protonAddress */\n  dup2\n    /* \"Auction/auction1404.sol\":24849:24855  PROTON */\n  0x02\n  0x00\n    /* \"Auction/auction1404.sol\":24849:24881  PROTON = IProton(_protonAddress) */\n  0x0100\n  exp\n  dup2\n  sload\n  dup2\n  0xffffffffffffffffffffffffffffffffffffffff\n  mul\n  not\n  and\n  swap1\n  dup4\n  0xffffffffffffffffffffffffffffffffffffffff\n  and\n  mul\n  or\n  swap1\n  sstore\n  pop\n    /* \"Auction/auction1404.sol\":24905:24920  _fundsWalletAdd */\n  dup1\n    /* \"Auction/auction1404.sol\":24891:24902  fundsWallet */\n  0x09\n  0x01\n    /* \"Auction/auction1404.sol\":24891:24920  fundsWallet = _fundsWalletAdd */\n  0x0100\n  exp\n  dup2\n  sload\n  dup2\n  0xffffffffffffffffffffffffffffffffffffffff\n  mul\n  not\n  and\n  swap1\n  dup4\n  0xffffffffffffffffffffffffffffffffffffffff\n  and\n  mul\n  or\n  swap1\n  sstore\n  pop\n    /* \"Auction/auction1404.sol\":24941:24945  true */\n  0x01\n    /* \"Auction/auction1404.sol\":24930:24938  isPaused */\n  0x09\n  0x00\n    /* \"Auction/auction1404.sol\":24930:24945  isPaused = true */\n  0x0100\n  exp\n  dup2\n  sload\n  dup2\n  0xff\n  mul\n  not\n  and\n  swap1\n  dup4\n  iszero\n  iszero\n  mul\n  or\n  swap1\n  sstore\n  pop\n    /* \"Auction/auction1404.sol\":24735:24959  constructor(... */\n  pop\n  pop\n    /* \"Auction/auction1404.sol\":23328:32412  contract ProtonAuction is Ownable {... */\n  jump(tag_13)\n    /* \"Auction/auction1404.sol\":3209:3396  function _transferOwnership(address newOwner) internal virtual {... */\ntag_11:\n    /* \"Auction/auction1404.sol\":3282:3298  address oldOwner */\n  0x00\n    /* \"Auction/auction1404.sol\":3301:3307  _owner */\n  dup1\n  0x00\n  swap1\n  sload\n  swap1\n  0x0100\n  exp\n  swap1\n  div\n  0xffffffffffffffffffffffffffffffffffffffff\n  and\n    /* \"Auction/auction1404.sol\":3282:3307  address oldOwner = _owner */\n  swap1\n  pop\n    /* \"Auction/auction1404.sol\":3326:3334  newOwner */\n  dup2\n    /* \"Auction/auction1404.sol\":3317:3323  _owner */\n  0x00\n  dup1\n    /* \"Auction/auction1404.sol\":3317:3334  _owner = newOwner */\n  0x0100\n  exp\n  dup2\n  sload\n  dup2\n  0xffffffffffffffffffffffffffffffffffffffff\n  mul\n  not\n  and\n  swap1\n  dup4\n  0xffffffffffffffffffffffffffffffffffffffff\n  and\n  mul\n  or\n  swap1\n  sstore\n  pop\n    /* \"Auction/auction1404.sol\":3380:3388  newOwner */\n  dup2\n    /* \"Auction/auction1404.sol\":3349:3389  OwnershipTransferred(oldOwner, newOwner) */\n  0xffffffffffffffffffffffffffffffffffffffff\n  and\n    /* \"Auction/auction1404.sol\":3370:3378  oldOwner */\n  dup2\n    /* \"Auction/auction1404.sol\":3349:3389  OwnershipTransferred(oldOwner, newOwner) */\n  0xffffffffffffffffffffffffffffffffffffffff\n  and\n  0x8be0079c531659141344cd1fd0a4f28419497f9722a3daafe3b4186f6b6457e0\n  mload(0x40)\n  mload(0x40)\n  dup1\n  swap2\n  sub\n  swap1\n  log3\n    /* \"Auction/auction1404.sol\":3272:3396  {... */\n  pop\n    /* \"Auction/auction1404.sol\":3209:3396  function _transferOwnership(address newOwner) internal virtual {... */\n  pop\n  jump\t// out\n    /* \"#utility.yul\":88:205   */\ntag_16:\n    /* \"#utility.yul\":197:198   */\n  0x00\n    /* \"#utility.yul\":194:195   */\n  dup1\n    /* \"#utility.yul\":187:199   */\n  revert\n    /* \"#utility.yul\":334:460   */\ntag_18:\n    /* \"#utility.yul\":371:378   */\n  0x00\n    /* \"#utility.yul\":411:453   */\n  0xffffffffffffffffffffffffffffffffffffffff\n    /* \"#utility.yul\":404:409   */\n  dup3\n    /* \"#utility.yul\":400:454   */\n  and\n    /* \"#utility.yul\":389:454   */\n  swap1\n  pop\n    /* \"#utility.yul\":334:460   */\n  swap2\n  swap1\n  pop\n  jump\t// out\n    /* \"#utility.yul\":466:562   */\ntag_19:\n    /* \"#utility.yul\":503:510   */\n  0x00\n    /* \"#utility.yul\":532:556   */\n  tag_29\n    /* \"#utility.yul\":550:555   */\n  dup3\n    /* \"#utility.yul\":532:556   */\n  tag_18\n  jump\t// in\ntag_29:\n    /* \"#utility.yul\":521:556   */\n  swap1\n  pop\n    /* \"#utility.yul\":466:562   */\n  swap2\n  swap1\n  pop\n  jump\t// out\n    /* \"#utility.yul\":568:690   */\ntag_20:\n    /* \"#utility.yul\":641:665   */\n  tag_31\n    /* \"#utility.yul\":659:664   */\n  dup2\n    /* \"#utility.yul\":641:665   */\n  tag_19\n  jump\t// in\ntag_31:\n    /* \"#utility.yul\":634:639   */\n  dup2\n    /* \"#utility.yul\":631:666   */\n  eq\n    /* \"#utility.yul\":621:684   */\n  tag_32\n  jumpi\n    /* \"#utility.yul\":680:681   */\n  0x00\n    /* \"#utility.yul\":677:678   */\n  dup1\n    /* \"#utility.yul\":670:682   */\n  revert\n    /* \"#utility.yul\":621:684   */\ntag_32:\n    /* \"#utility.yul\":568:690   */\n  pop\n  jump\t// out\n    /* \"#utility.yul\":696:839   */\ntag_21:\n    /* \"#utility.yul\":753:758   */\n  0x00\n    /* \"#utility.yul\":784:790   */\n  dup2\n    /* \"#utility.yul\":778:791   */\n  mload\n    /* \"#utility.yul\":769:791   */\n  swap1\n  pop\n    /* \"#utility.yul\":800:833   */\n  tag_34\n    /* \"#utility.yul\":827:832   */\n  dup2\n    /* \"#utility.yul\":800:833   */\n  tag_20\n  jump\t// in\ntag_34:\n    /* \"#utility.yul\":696:839   */\n  swap3\n  swap2\n  pop\n  pop\n  jump\t// out\n    /* \"#utility.yul\":845:1352   */\ntag_3:\n    /* \"#utility.yul\":924:930   */\n  0x00\n    /* \"#utility.yul\":932:938   */\n  dup1\n    /* \"#utility.yul\":981:983   */\n  0x40\n    /* \"#utility.yul\":969:978   */\n  dup4\n    /* \"#utility.yul\":960:967   */\n  dup6\n    /* \"#utility.yul\":956:979   */\n  sub\n    /* \"#utility.yul\":952:984   */\n  slt\n    /* \"#utility.yul\":949:1068   */\n  iszero\n  tag_36\n  jumpi\n    /* \"#utility.yul\":987:1066   */\n  tag_37\n  tag_16\n  jump\t// in\ntag_37:\n    /* \"#utility.yul\":949:1068   */\ntag_36:\n    /* \"#utility.yul\":1107:1108   */\n  0x00\n    /* \"#utility.yul\":1132:1196   */\n  tag_38\n    /* \"#utility.yul\":1188:1195   */\n  dup6\n    /* \"#utility.yul\":1179:1185   */\n  dup3\n    /* \"#utility.yul\":1168:1177   */\n  dup7\n    /* \"#utility.yul\":1164:1186   */\n  add\n    /* \"#utility.yul\":1132:1196   */\n  tag_21\n  jump\t// in\ntag_38:\n    /* \"#utility.yul\":1122:1196   */\n  swap3\n  pop\n    /* \"#utility.yul\":1078:1206   */\n  pop\n    /* \"#utility.yul\":1245:1247   */\n  0x20\n    /* \"#utility.yul\":1271:1335   */\n  tag_39\n    /* \"#utility.yul\":1327:1334   */\n  dup6\n    /* \"#utility.yul\":1318:1324   */\n  dup3\n    /* \"#utility.yul\":1307:1316   */\n  dup7\n    /* \"#utility.yul\":1303:1325   */\n  add\n    /* \"#utility.yul\":1271:1335   */\n  tag_21\n  jump\t// in\ntag_39:\n    /* \"#utility.yul\":1261:1335   */\n  swap2\n  pop\n    /* \"#utility.yul\":1216:1345   */\n  pop\n    /* \"#utility.yul\":845:1352   */\n  swap3\n  pop\n  swap3\n  swap1\n  pop\n  jump\t// out\n    /* \"#utility.yul\":1358:1476   */\ntag_22:\n    /* \"#utility.yul\":1445:1469   */\n  tag_41\n    /* \"#utility.yul\":1463:1468   */\n  dup2\n    /* \"#utility.yul\":1445:1469   */\n  tag_19\n  jump\t// in\ntag_41:\n    /* \"#utility.yul\":1440:1443   */\n  dup3\n    /* \"#utility.yul\":1433:1470   */\n  mstore\n    /* \"#utility.yul\":1358:1476   */\n  pop\n  pop\n  jump\t// out\n    /* \"#utility.yul\":1482:1704   */\ntag_9:\n    /* \"#utility.yul\":1575:1579   */\n  0x00\n    /* \"#utility.yul\":1613:1615   */\n  0x20\n    /* \"#utility.yul\":1602:1611   */\n  dup3\n    /* \"#utility.yul\":1598:1616   */\n  add\n    /* \"#utility.yul\":1590:1616   */\n  swap1\n  pop\n    /* \"#utility.yul\":1626:1697   */\n  tag_43\n    /* \"#utility.yul\":1694:1695   */\n  0x00\n    /* \"#utility.yul\":1683:1692   */\n  dup4\n    /* \"#utility.yul\":1679:1696   */\n  add\n    /* \"#utility.yul\":1670:1676   */\n  dup5\n    /* \"#utility.yul\":1626:1697   */\n  tag_22\n  jump\t// in\ntag_43:\n    /* \"#utility.yul\":1482:1704   */\n  swap3\n  swap2\n  pop\n  pop\n  jump\t// out\n    /* \"Auction/auction1404.sol\":23328:32412  contract ProtonAuction is Ownable {... */\ntag_13:\n  dataSize(sub_0)\n  dup1\n  dataOffset(sub_0)\n  0x00\n  codecopy\n  0x00\n  return\nstop\n\nsub_0: assembly {\n        /* \"Auction/auction1404.sol\":23328:32412  contract ProtonAuction is Ownable {... */\n      mstore(0x40, 0x80)\n      callvalue\n      dup1\n      iszero\n      tag_1\n      jumpi\n      0x00\n      dup1\n      revert\n    tag_1:\n      pop\n      jumpi(tag_2, lt(calldatasize, 0x04))\n      shr(0xe0, calldataload(0x00))\n      dup1\n      0x715018a6\n      gt\n      tag_32\n      jumpi\n      dup1\n      0xb187bd26\n      gt\n      tag_33\n      jumpi\n      dup1\n      0xd358aa20\n      gt\n      tag_34\n      jumpi\n      dup1\n      0xd358aa20\n      eq\n      tag_28\n      jumpi\n      dup1\n      0xe0202f87\n      eq\n      tag_29\n      jumpi\n      dup1\n      0xf2fde38b\n      eq\n      tag_30\n      jumpi\n      dup1\n      0xfa6770b3\n      eq\n      tag_31\n      jumpi\n      jump(tag_2)\n    tag_34:\n      dup1\n      0xb187bd26\n      eq\n      tag_24\n      jumpi\n      dup1\n      0xbb4d5e7c\n      eq\n      tag_25\n      jumpi\n      dup1\n      0xbf4dd131\n      eq\n      tag_26\n      jumpi\n      dup1\n      0xc54e44eb\n      eq\n      tag_27\n      jumpi\n      jump(tag_2)\n    tag_33:\n      dup1\n      0x8c65c81f\n      gt\n      tag_35\n      jumpi\n      dup1\n      0x8c65c81f\n      eq\n      tag_20\n      jumpi\n      dup1\n      0x8da5cb5b\n      eq\n      tag_21\n      jumpi\n      dup1\n      0x91b7f5ed\n      eq\n      tag_22\n      jumpi\n      dup1\n      0xa24bcf46\n      eq\n      tag_23\n      jumpi\n      jump(tag_2)\n    tag_35:\n      dup1\n      0x715018a6\n      eq\n      tag_17\n      jumpi\n      dup1\n      0x7ff9b596\n      eq\n      tag_18\n      jumpi\n      dup1\n      0x8a19c8bc\n      eq\n      tag_19\n      jumpi\n      jump(tag_2)\n    tag_32:\n      dup1\n      0x30db6f95\n      gt\n      tag_36\n      jumpi\n      dup1\n      0x48a5c188\n      gt\n      tag_37\n      jumpi\n      dup1\n      0x48a5c188\n      eq\n      tag_13\n      jumpi\n      dup1\n      0x5b10493f\n      eq\n      tag_14\n      jumpi\n      dup1\n      0x64e39b87\n      eq\n      tag_15\n      jumpi\n      dup1\n      0x6b64c769\n      eq\n      tag_16\n      jumpi\n      jump(tag_2)\n    tag_37:\n      dup1\n      0x30db6f95\n      eq\n      tag_10\n      jumpi\n      dup1\n      0x3c830a38\n      eq\n      tag_11\n      jumpi\n      dup1\n      0x3e6968b6\n      eq\n      tag_12\n      jumpi\n      jump(tag_2)\n    tag_36:\n      dup1\n      0x174e31c4\n      gt\n      tag_38\n      jumpi\n      dup1\n      0x174e31c4\n      eq\n      tag_6\n      jumpi\n      dup1\n      0x18d7fa46\n      eq\n      tag_7\n      jumpi\n      dup1\n      0x2194f3a2\n      eq\n      tag_8\n      jumpi\n      dup1\n      0x224a8057\n      eq\n      tag_9\n      jumpi\n      jump(tag_2)\n    tag_38:\n      dup1\n      0x044215c6\n      eq\n      tag_3\n      jumpi\n      dup1\n      0x0752881a\n      eq\n      tag_4\n      jumpi\n      dup1\n      0x144fa6d7\n      eq\n      tag_5\n      jumpi\n    tag_2:\n      0x00\n      dup1\n      revert\n        /* \"Auction/auction1404.sol\":23883:23905  IERC20 [] public token */\n    tag_3:\n      tag_39\n      0x04\n      dup1\n      calldatasize\n      sub\n      dup2\n      add\n      swap1\n      tag_40\n      swap2\n      swap1\n      tag_41\n      jump\t// in\n    tag_40:\n      tag_42\n      jump\t// in\n    tag_39:\n      mload(0x40)\n      tag_43\n      swap2\n      swap1\n      tag_44\n      jump\t// in\n    tag_43:\n      mload(0x40)\n      dup1\n      swap2\n      sub\n      swap1\n      return\n        /* \"Auction/auction1404.sol\":27346:29894  function buyTokens(... */\n    tag_4:\n      tag_45\n      0x04\n      dup1\n      calldatasize\n      sub\n      dup2\n      add\n      swap1\n      tag_46\n      swap2\n      swap1\n      tag_47\n      jump\t// in\n    tag_46:\n      tag_48\n      jump\t// in\n    tag_45:\n      stop\n        /* \"Auction/auction1404.sol\":25358:25441  function setToken(IERC20 addr) external onlyOwner {... */\n    tag_5:\n      tag_49\n      0x04\n      dup1\n      calldatasize\n      sub\n      dup2\n      add\n      swap1\n      tag_50\n      swap2\n      swap1\n      tag_51\n      jump\t// in\n    tag_50:\n      tag_52\n      jump\t// in\n    tag_49:\n      stop\n        /* \"Auction/auction1404.sol\":31513:32032  function claimReward(... */\n    tag_6:\n      tag_53\n      0x04\n      dup1\n      calldatasize\n      sub\n      dup2\n      add\n      swap1\n      tag_54\n      swap2\n      swap1\n      tag_55\n      jump\t// in\n    tag_54:\n      tag_56\n      jump\t// in\n    tag_53:\n      stop\n        /* \"Auction/auction1404.sol\":26297:26605  function setDailyDetails(... */\n    tag_7:\n      tag_57\n      0x04\n      dup1\n      calldatasize\n      sub\n      dup2\n      add\n      swap1\n      tag_58\n      swap2\n      swap1\n      tag_59\n      jump\t// in\n    tag_58:\n      tag_60\n      jump\t// in\n    tag_57:\n      stop\n        /* \"Auction/auction1404.sol\":23851:23877  address public fundsWallet */\n    tag_8:\n      tag_61\n      tag_62\n      jump\t// in\n    tag_61:\n      mload(0x40)\n      tag_63\n      swap2\n      swap1\n      tag_64\n      jump\t// in\n    tag_63:\n      mload(0x40)\n      dup1\n      swap2\n      sub\n      swap1\n      return\n        /* \"Auction/auction1404.sol\":23609:23669  uint256 public maxOversubscriptionlimit = 1000000 * 10 ** 18 */\n    tag_9:\n      tag_65\n      tag_66\n      jump\t// in\n    tag_65:\n      mload(0x40)\n      tag_67\n      swap2\n      swap1\n      tag_68\n      jump\t// in\n    tag_67:\n      mload(0x40)\n      dup1\n      swap2\n      sub\n      swap1\n      return\n        /* \"Auction/auction1404.sol\":30778:30935  function auctionStatus(bool status) external onlyOwner {... */\n    tag_10:\n      tag_69\n      0x04\n      dup1\n      calldatasize\n      sub\n      dup2\n      add\n      swap1\n      tag_70\n      swap2\n      swap1\n      tag_71\n      jump\t// in\n    tag_70:\n      tag_72\n      jump\t// in\n    tag_69:\n      stop\n        /* \"Auction/auction1404.sol\":24317:24365  mapping(uint256 => Auction) public dailyAuctions */\n    tag_11:\n      tag_73\n      0x04\n      dup1\n      calldatasize\n      sub\n      dup2\n      add\n      swap1\n      tag_74\n      swap2\n      swap1\n      tag_41\n      jump\t// in\n    tag_74:\n      tag_75\n      jump\t// in\n    tag_73:\n      mload(0x40)\n      tag_76\n      swap5\n      swap4\n      swap3\n      swap2\n      swap1\n      tag_77\n      jump\t// in\n    tag_76:\n      mload(0x40)\n      dup1\n      swap2\n      sub\n      swap1\n      return\n        /* \"Auction/auction1404.sol\":26862:27340  function getCurrentDay() public view returns (uint256) {... */\n    tag_12:\n      tag_78\n      tag_79\n      jump\t// in\n    tag_78:\n      mload(0x40)\n      tag_80\n      swap2\n      swap1\n      tag_68\n      jump\t// in\n    tag_80:\n      mload(0x40)\n      dup1\n      swap2\n      sub\n      swap1\n      return\n        /* \"Auction/auction1404.sol\":31173:31507  function getDailyAuction(uint256 roundNumber, uint256 day) external view returns ( uint256) {... */\n    tag_13:\n      tag_81\n      0x04\n      dup1\n      calldatasize\n      sub\n      dup2\n      add\n      swap1\n      tag_82\n      swap2\n      swap1\n      tag_83\n      jump\t// in\n    tag_82:\n      tag_84\n      jump\t// in\n    tag_81:\n      mload(0x40)\n      tag_85\n      swap2\n      swap1\n      tag_68\n      jump\t// in\n    tag_85:\n      mload(0x40)\n      dup1\n      swap2\n      sub\n      swap1\n      return\n        /* \"Auction/auction1404.sol\":24371:24420  mapping(address => UserDetails) public userDetail */\n    tag_14:\n      tag_86\n      0x04\n      dup1\n      calldatasize\n      sub\n      dup2\n      add\n      swap1\n      tag_87\n      swap2\n      swap1\n      tag_88\n      jump\t// in\n    tag_87:\n      tag_89\n      jump\t// in\n    tag_86:\n      mload(0x40)\n      tag_90\n      swap3\n      swap2\n      swap1\n      tag_91\n      jump\t// in\n    tag_90:\n      mload(0x40)\n      dup1\n      swap2\n      sub\n      swap1\n      return\n        /* \"Auction/auction1404.sol\":26175:26291  function setFundsWallet(address _fundsWalletAddr) external onlyOwner {... */\n    tag_15:\n      tag_92\n      0x04\n      dup1\n      calldatasize\n      sub\n      dup2\n      add\n      swap1\n      tag_93\n      swap2\n      swap1\n      tag_88\n      jump\t// in\n    tag_93:\n      tag_94\n      jump\t// in\n    tag_92:\n      stop\n        /* \"Auction/auction1404.sol\":25447:26064  function startAuction() external onlyOwner {... */\n    tag_16:\n      tag_95\n      tag_96\n      jump\t// in\n    tag_95:\n      stop\n        /* \"Auction/auction1404.sol\":2590:2691  function renounceOwnership() public virtual onlyOwner {... */\n    tag_17:\n      tag_97\n      tag_98\n      jump\t// in\n    tag_97:\n      stop\n        /* \"Auction/auction1404.sol\":23419:23459  uint256 public tokenPrice = 1 * 10 ** 18 */\n    tag_18:\n      tag_99\n      tag_100\n      jump\t// in\n    tag_99:\n      mload(0x40)\n      tag_101\n      swap2\n      swap1\n      tag_68\n      jump\t// in\n    tag_101:\n      mload(0x40)\n      dup1\n      swap2\n      sub\n      swap1\n      return\n        /* \"Auction/auction1404.sol\":23782:23809  uint256 public currentRound */\n    tag_19:\n      tag_102\n      tag_103\n      jump\t// in\n    tag_102:\n      mload(0x40)\n      tag_104\n      swap2\n      swap1\n      tag_68\n      jump\t// in\n    tag_104:\n      mload(0x40)\n      dup1\n      swap2\n      sub\n      swap1\n      return\n        /* \"Auction/auction1404.sol\":24271:24310  mapping(uint256 => Round) public rounds */\n    tag_20:\n      tag_105\n      0x04\n      dup1\n      calldatasize\n      sub\n      dup2\n      add\n      swap1\n      tag_106\n      swap2\n      swap1\n      tag_41\n      jump\t// in\n    tag_106:\n      tag_107\n      jump\t// in\n    tag_105:\n      mload(0x40)\n      tag_108\n      swap3\n      swap2\n      swap1\n      tag_91\n      jump\t// in\n    tag_108:\n      mload(0x40)\n      dup1\n      swap2\n      sub\n      swap1\n      return\n        /* \"Auction/auction1404.sol\":1935:2020  function owner() public view virtual returns (address) {... */\n    tag_21:\n      tag_109\n      tag_110\n      jump\t// in\n    tag_109:\n      mload(0x40)\n      tag_111\n      swap2\n      swap1\n      tag_64\n      jump\t// in\n    tag_111:\n      mload(0x40)\n      dup1\n      swap2\n      sub\n      swap1\n      return\n        /* \"Auction/auction1404.sol\":26070:26169  function setPrice(uint256 _tokenPrice) external onlyOwner {... */\n    tag_22:\n      tag_112\n      0x04\n      dup1\n      calldatasize\n      sub\n      dup2\n      add\n      swap1\n      tag_113\n      swap2\n      swap1\n      tag_41\n      jump\t// in\n    tag_113:\n      tag_114\n      jump\t// in\n    tag_112:\n      stop\n        /* \"Auction/auction1404.sol\":31012:31167  function calculateTokenAmount(... */\n    tag_23:\n      tag_115\n      0x04\n      dup1\n      calldatasize\n      sub\n      dup2\n      add\n      swap1\n      tag_116\n      swap2\n      swap1\n      tag_41\n      jump\t// in\n    tag_116:\n      tag_117\n      jump\t// in\n    tag_115:\n      mload(0x40)\n      tag_118\n      swap2\n      swap1\n      tag_68\n      jump\t// in\n    tag_118:\n      mload(0x40)\n      dup1\n      swap2\n      sub\n      swap1\n      return\n        /* \"Auction/auction1404.sol\":23815:23845  bool    public isPaused = true */\n    tag_24:\n      tag_119\n      tag_120\n      jump\t// in\n    tag_119:\n      mload(0x40)\n      tag_121\n      swap2\n      swap1\n      tag_122\n      jump\t// in\n    tag_121:\n      mload(0x40)\n      dup1\n      swap2\n      sub\n      swap1\n      return\n        /* \"Auction/auction1404.sol\":23548:23603  uint256 public maxOversubscription = 5000000 * 10 ** 18 */\n    tag_25:\n      tag_123\n      tag_124\n      jump\t// in\n    tag_123:\n      mload(0x40)\n      tag_125\n      swap2\n      swap1\n      tag_68\n      jump\t// in\n    tag_125:\n      mload(0x40)\n      dup1\n      swap2\n      sub\n      swap1\n      return\n        /* \"Auction/auction1404.sol\":23744:23775  uint256 public lockingDay = 180 */\n    tag_26:\n      tag_126\n      tag_127\n      jump\t// in\n    tag_126:\n      mload(0x40)\n      tag_128\n      swap2\n      swap1\n      tag_68\n      jump\t// in\n    tag_128:\n      mload(0x40)\n      dup1\n      swap2\n      sub\n      swap1\n      return\n        /* \"Auction/auction1404.sol\":23368:23386  IERC20 public USDT */\n    tag_27:\n      tag_129\n      tag_130\n      jump\t// in\n    tag_129:\n      mload(0x40)\n      tag_131\n      swap2\n      swap1\n      tag_44\n      jump\t// in\n    tag_131:\n      mload(0x40)\n      dup1\n      swap2\n      sub\n      swap1\n      return\n        /* \"Auction/auction1404.sol\":23392:23413  IProton public PROTON */\n    tag_28:\n      tag_132\n      tag_133\n      jump\t// in\n    tag_132:\n      mload(0x40)\n      tag_134\n      swap2\n      swap1\n      tag_135\n      jump\t// in\n    tag_134:\n      mload(0x40)\n      dup1\n      swap2\n      sub\n      swap1\n      return\n        /* \"Auction/auction1404.sol\":23714:23738  uint256 public totalSell */\n    tag_29:\n      tag_136\n      tag_137\n      jump\t// in\n    tag_136:\n      mload(0x40)\n      tag_138\n      swap2\n      swap1\n      tag_68\n      jump\t// in\n    tag_138:\n      mload(0x40)\n      dup1\n      swap2\n      sub\n      swap1\n      return\n        /* \"Auction/auction1404.sol\":2840:3055  function transferOwnership(address newOwner) public virtual onlyOwner {... */\n    tag_30:\n      tag_139\n      0x04\n      dup1\n      calldatasize\n      sub\n      dup2\n      add\n      swap1\n      tag_140\n      swap2\n      swap1\n      tag_88\n      jump\t// in\n    tag_140:\n      tag_141\n      jump\t// in\n    tag_139:\n      stop\n        /* \"Auction/auction1404.sol\":26611:26856  function AuctionTime() external view returns (uint256 _currentRound,uint256 roundStart, uint256 roundEnd) {... */\n    tag_31:\n      tag_142\n      tag_143\n      jump\t// in\n    tag_142:\n      mload(0x40)\n      tag_144\n      swap4\n      swap3\n      swap2\n      swap1\n      tag_145\n      jump\t// in\n    tag_144:\n      mload(0x40)\n      dup1\n      swap2\n      sub\n      swap1\n      return\n        /* \"Auction/auction1404.sol\":23883:23905  IERC20 [] public token */\n    tag_42:\n      0x0a\n      dup2\n      dup2\n      sload\n      dup2\n      lt\n      tag_146\n      jumpi\n      0x00\n      dup1\n      revert\n    tag_146:\n      swap1\n      0x00\n      mstore\n      keccak256(0x00, 0x20)\n      add\n      0x00\n      swap2\n      pop\n      sload\n      swap1\n      0x0100\n      exp\n      swap1\n      div\n      0xffffffffffffffffffffffffffffffffffffffff\n      and\n      dup2\n      jump\t// out\n        /* \"Auction/auction1404.sol\":27346:29894  function buyTokens(... */\n    tag_48:\n        /* \"Auction/auction1404.sol\":25009:25017  isPaused */\n      0x09\n      0x00\n      swap1\n      sload\n      swap1\n      0x0100\n      exp\n      swap1\n      div\n      0xff\n      and\n        /* \"Auction/auction1404.sol\":25008:25017  !isPaused */\n      iszero\n        /* \"Auction/auction1404.sol\":25000:25039  require(!isPaused, \"Auction is paused\") */\n      tag_149\n      jumpi\n      mload(0x40)\n      0x08c379a000000000000000000000000000000000000000000000000000000000\n      dup2\n      mstore\n      0x04\n      add\n      tag_150\n      swap1\n      tag_151\n      jump\t// in\n    tag_150:\n      mload(0x40)\n      dup1\n      swap2\n      sub\n      swap1\n      revert\n    tag_149:\n        /* \"Auction/auction1404.sol\":25076:25082  rounds */\n      0x0b\n        /* \"Auction/auction1404.sol\":25076:25096  rounds[currentRound] */\n      0x00\n        /* \"Auction/auction1404.sol\":25083:25095  currentRound */\n      sload(0x08)\n        /* \"Auction/auction1404.sol\":25076:25096  rounds[currentRound] */\n      dup2\n      mstore\n      0x20\n      add\n      swap1\n      dup2\n      mstore\n      0x20\n      add\n      0x00\n      keccak256\n        /* \"Auction/auction1404.sol\":25076:25105  rounds[currentRound].roundEnd */\n      0x01\n      add\n      sload\n        /* \"Auction/auction1404.sol\":25057:25072  block.timestamp */\n      timestamp\n        /* \"Auction/auction1404.sol\":25057:25105  block.timestamp <= rounds[currentRound].roundEnd */\n      gt\n      iszero\n        /* \"Auction/auction1404.sol\":25049:25133  require(block.timestamp <= rounds[currentRound].roundEnd, \"Current round has ended\") */\n      tag_152\n      jumpi\n      mload(0x40)\n      0x08c379a000000000000000000000000000000000000000000000000000000000\n      dup2\n      mstore\n      0x04\n      add\n      tag_153\n      swap1\n      tag_154\n      jump\t// in\n    tag_153:\n      mload(0x40)\n      dup1\n      swap2\n      sub\n      swap1\n      revert\n    tag_152:\n        /* \"Auction/auction1404.sol\":27461:27479  uint256 currentDay */\n      0x00\n        /* \"Auction/auction1404.sol\":27482:27497  getCurrentDay() */\n      tag_156\n        /* \"Auction/auction1404.sol\":27482:27495  getCurrentDay */\n      tag_79\n        /* \"Auction/auction1404.sol\":27482:27497  getCurrentDay() */\n      jump\t// in\n    tag_156:\n        /* \"Auction/auction1404.sol\":27461:27497  uint256 currentDay = getCurrentDay() */\n      swap1\n      pop\n        /* \"Auction/auction1404.sol\":27529:27530  7 */\n      0x07\n        /* \"Auction/auction1404.sol\":27515:27525  currentDay */\n      dup2\n        /* \"Auction/auction1404.sol\":27515:27530  currentDay <= 7 */\n      gt\n      iszero\n        /* \"Auction/auction1404.sol\":27507:27560  require(currentDay <= 7, \"Auction days are complete\") */\n      tag_157\n      jumpi\n      mload(0x40)\n      0x08c379a000000000000000000000000000000000000000000000000000000000\n      dup2\n      mstore\n      0x04\n      add\n      tag_158\n      swap1\n      tag_159\n      jump\t// in\n    tag_158:\n      mload(0x40)\n      dup1\n      swap2\n      sub\n      swap1\n      revert\n    tag_157:\n        /* \"Auction/auction1404.sol\":27569:27592  Auction storage auction */\n      0x00\n        /* \"Auction/auction1404.sol\":27595:27608  dailyAuctions */\n      0x0c\n        /* \"Auction/auction1404.sol\":27595:27620  dailyAuctions[currentDay] */\n      0x00\n        /* \"Auction/auction1404.sol\":27609:27619  currentDay */\n      dup4\n        /* \"Auction/auction1404.sol\":27595:27620  dailyAuctions[currentDay] */\n      dup2\n      mstore\n      0x20\n      add\n      swap1\n      dup2\n      mstore\n      0x20\n      add\n      0x00\n      keccak256\n        /* \"Auction/auction1404.sol\":27569:27620  Auction storage auction = dailyAuctions[currentDay] */\n      swap1\n      pop\n        /* \"Auction/auction1404.sol\":27649:27650  7 */\n      0x07\n        /* \"Auction/auction1404.sol\":27635:27645  currentDay */\n      dup3\n        /* \"Auction/auction1404.sol\":27635:27650  currentDay == 7 */\n      sub\n        /* \"Auction/auction1404.sol\":27631:27762  if (currentDay == 7) {... */\n      tag_160\n      jumpi\n        /* \"Auction/auction1404.sol\":27694:27700  rounds */\n      0x0b\n        /* \"Auction/auction1404.sol\":27694:27714  rounds[currentRound] */\n      0x00\n        /* \"Auction/auction1404.sol\":27701:27713  currentRound */\n      sload(0x08)\n        /* \"Auction/auction1404.sol\":27694:27714  rounds[currentRound] */\n      dup2\n      mstore\n      0x20\n      add\n      swap1\n      dup2\n      mstore\n      0x20\n      add\n      0x00\n      keccak256\n        /* \"Auction/auction1404.sol\":27694:27723  rounds[currentRound].roundEnd */\n      0x01\n      add\n      sload\n        /* \"Auction/auction1404.sol\":27674:27689  block.timestamp */\n      timestamp\n        /* \"Auction/auction1404.sol\":27674:27723  block.timestamp <=  rounds[currentRound].roundEnd */\n      gt\n      iszero\n        /* \"Auction/auction1404.sol\":27666:27751  require(block.timestamp <=  rounds[currentRound].roundEnd, \"Auction round has ended\") */\n      tag_161\n      jumpi\n      mload(0x40)\n      0x08c379a000000000000000000000000000000000000000000000000000000000\n      dup2\n      mstore\n      0x04\n      add\n      tag_162\n      swap1\n      tag_163\n      jump\t// in\n    tag_162:\n      mload(0x40)\n      dup1\n      swap2\n      sub\n      swap1\n      revert\n    tag_161:\n        /* \"Auction/auction1404.sol\":27631:27762  if (currentDay == 7) {... */\n    tag_160:\n        /* \"Auction/auction1404.sol\":27790:27791  6 */\n      0x06\n        /* \"Auction/auction1404.sol\":27776:27786  currentDay */\n      dup3\n        /* \"Auction/auction1404.sol\":27776:27791  currentDay == 6 */\n      eq\n        /* \"Auction/auction1404.sol\":27776:27810  currentDay == 6 || currentDay == 7 */\n      dup1\n      tag_164\n      jumpi\n      pop\n        /* \"Auction/auction1404.sol\":27809:27810  7 */\n      0x07\n        /* \"Auction/auction1404.sol\":27795:27805  currentDay */\n      dup3\n        /* \"Auction/auction1404.sol\":27795:27810  currentDay == 7 */\n      eq\n        /* \"Auction/auction1404.sol\":27776:27810  currentDay == 6 || currentDay == 7 */\n    tag_164:\n        /* \"Auction/auction1404.sol\":27772:27890  if (currentDay == 6 || currentDay == 7) {... */\n      iszero\n      tag_165\n      jumpi\n        /* \"Auction/auction1404.sol\":27848:27854  PROTON */\n      0x02\n      0x00\n      swap1\n      sload\n      swap1\n      0x0100\n      exp\n      swap1\n      div\n      0xffffffffffffffffffffffffffffffffffffffff\n      and\n        /* \"Auction/auction1404.sol\":27848:27864  PROTON.balanceOf */\n      0xffffffffffffffffffffffffffffffffffffffff\n      and\n      0x70a08231\n        /* \"Auction/auction1404.sol\":27873:27877  this */\n      address\n        /* \"Auction/auction1404.sol\":27848:27879  PROTON.balanceOf(address(this)) */\n      mload(0x40)\n      dup3\n      0xffffffff\n      and\n      0xe0\n      shl\n      dup2\n      mstore\n      0x04\n      add\n      tag_166\n      swap2\n      swap1\n      tag_64\n      jump\t// in\n    tag_166:\n      0x20\n      mload(0x40)\n      dup1\n      dup4\n      sub\n      dup2\n      dup7\n      gas\n      staticcall\n      iszero\n      dup1\n      iszero\n      tag_168\n      jumpi\n      returndatasize\n      0x00\n      dup1\n      returndatacopy\n      revert(0x00, returndatasize)\n    tag_168:\n      pop\n      pop\n      pop\n      pop\n      mload(0x40)\n      returndatasize\n      not(0x1f)\n      0x1f\n      dup3\n      add\n      and\n      dup3\n      add\n      dup1\n      0x40\n      mstore\n      pop\n      dup2\n      add\n      swap1\n      tag_169\n      swap2\n      swap1\n      tag_170\n      jump\t// in\n    tag_169:\n        /* \"Auction/auction1404.sol\":27826:27833  auction */\n      dup2\n        /* \"Auction/auction1404.sol\":27826:27845  auction.tokensDaily */\n      0x00\n      add\n        /* \"Auction/auction1404.sol\":27826:27879  auction.tokensDaily = PROTON.balanceOf(address(this)) */\n      dup2\n      swap1\n      sstore\n      pop\n        /* \"Auction/auction1404.sol\":27772:27890  if (currentDay == 6 || currentDay == 7) {... */\n    tag_165:\n        /* \"Auction/auction1404.sol\":27912:27920  isPaused */\n      0x09\n      0x00\n      swap1\n      sload\n      swap1\n      0x0100\n      exp\n      swap1\n      div\n      0xff\n      and\n        /* \"Auction/auction1404.sol\":27911:27920  !isPaused */\n      iszero\n        /* \"Auction/auction1404.sol\":27903:27939  require(!isPaused, \"Auction Paused\") */\n      tag_171\n      jumpi\n      mload(0x40)\n      0x08c379a000000000000000000000000000000000000000000000000000000000\n      dup2\n      mstore\n      0x04\n      add\n      tag_172\n      swap1\n      tag_173\n      jump\t// in\n    tag_172:\n      mload(0x40)\n      dup1\n      swap2\n      sub\n      swap1\n      revert\n    tag_171:\n        /* \"Auction/auction1404.sol\":28101:28120  maxOversubscription */\n      sload(0x04)\n        /* \"Auction/auction1404.sol\":28080:28087  auction */\n      dup2\n        /* \"Auction/auction1404.sol\":28080:28098  auction.tokensSold */\n      0x01\n      add\n      sload\n        /* \"Auction/auction1404.sol\":28080:28120  auction.tokensSold < maxOversubscription */\n      lt\n        /* \"Auction/auction1404.sol\":28059:28165  require(... */\n      tag_174\n      jumpi\n      mload(0x40)\n      0x08c379a000000000000000000000000000000000000000000000000000000000\n      dup2\n      mstore\n      0x04\n      add\n      tag_175\n      swap1\n      tag_176\n      jump\t// in\n    tag_175:\n      mload(0x40)\n      dup1\n      swap2\n      sub\n      swap1\n      revert\n    tag_174:\n        /* \"Auction/auction1404.sol\":28221:28245  maxOversubscriptionlimit */\n      sload(0x05)\n        /* \"Auction/auction1404.sol\":28196:28203  auction */\n      dup2\n        /* \"Auction/auction1404.sol\":28196:28218  auction.oversubscribed */\n      0x02\n      add\n      sload\n        /* \"Auction/auction1404.sol\":28196:28245  auction.oversubscribed < maxOversubscriptionlimit */\n      lt\n        /* \"Auction/auction1404.sol\":28175:28290  require(... */\n      tag_177\n      jumpi\n      mload(0x40)\n      0x08c379a000000000000000000000000000000000000000000000000000000000\n      dup2\n      mstore\n      0x04\n      add\n      tag_178\n      swap1\n      tag_176\n      jump\t// in\n    tag_178:\n      mload(0x40)\n      dup1\n      swap2\n      sub\n      swap1\n      revert\n    tag_177:\n        /* \"Auction/auction1404.sol\":28321:28350  isTokenValid(contractAddress) */\n      tag_179\n        /* \"Auction/auction1404.sol\":28334:28349  contractAddress */\n      dup5\n        /* \"Auction/auction1404.sol\":28321:28333  isTokenValid */\n      tag_180\n        /* \"Auction/auction1404.sol\":28321:28350  isTokenValid(contractAddress) */\n      jump\t// in\n    tag_179:\n        /* \"Auction/auction1404.sol\":28300:28398  require(... */\n      tag_181\n      jumpi\n      mload(0x40)\n      0x08c379a000000000000000000000000000000000000000000000000000000000\n      dup2\n      mstore\n      0x04\n      add\n      tag_182\n      swap1\n      tag_183\n      jump\t// in\n    tag_182:\n      mload(0x40)\n      dup1\n      swap2\n      sub\n      swap1\n      revert\n    tag_181:\n        /* \"Auction/auction1404.sol\":28408:28426  uint256 usdtAmount */\n      0x00\n        /* \"Auction/auction1404.sol\":28455:28463  10 ** 18 */\n      0x0de0b6b3a7640000\n        /* \"Auction/auction1404.sol\":28440:28450  tokenPrice */\n      sload(0x03)\n        /* \"Auction/auction1404.sol\":28430:28437  _amount */\n      dup6\n        /* \"Auction/auction1404.sol\":28430:28450  _amount * tokenPrice */\n      tag_184\n      swap2\n      swap1\n      tag_185\n      jump\t// in\n    tag_184:\n        /* \"Auction/auction1404.sol\":28429:28464  (_amount * tokenPrice) / (10 ** 18) */\n      tag_186\n      swap2\n      swap1\n      tag_187\n      jump\t// in\n    tag_186:\n        /* \"Auction/auction1404.sol\":28408:28464  uint256 usdtAmount = (_amount * tokenPrice) / (10 ** 18) */\n      swap1\n      pop\n        /* \"Auction/auction1404.sol\":28533:28548  contractAddress */\n      dup5\n        /* \"Auction/auction1404.sol\":28533:28561  contractAddress.transferFrom */\n      0xffffffffffffffffffffffffffffffffffffffff\n      and\n      0x23b872dd\n        /* \"Auction/auction1404.sol\":28562:28572  msg.sender */\n      caller\n        /* \"Auction/auction1404.sol\":28574:28585  fundsWallet */\n      0x09\n      0x01\n      swap1\n      sload\n      swap1\n      0x0100\n      exp\n      swap1\n      div\n      0xffffffffffffffffffffffffffffffffffffffff\n      and\n        /* \"Auction/auction1404.sol\":28587:28597  usdtAmount */\n      dup5\n        /* \"Auction/auction1404.sol\":28533:28598  contractAddress.transferFrom(msg.sender, fundsWallet, usdtAmount) */\n      mload(0x40)\n      dup5\n      0xffffffff\n      and\n      0xe0\n      shl\n      dup2\n      mstore\n      0x04\n      add\n      tag_188\n      swap4\n      swap3\n      swap2\n      swap1\n      tag_189\n      jump\t// in\n    tag_188:\n      0x20\n      mload(0x40)\n      dup1\n      dup4\n      sub\n      dup2\n      0x00\n      dup8\n      gas\n      call\n      iszero\n      dup1\n      iszero\n      tag_191\n      jumpi\n      returndatasize\n      0x00\n      dup1\n      returndatacopy\n      revert(0x00, returndatasize)\n    tag_191:\n      pop\n      pop\n      pop\n      pop\n      mload(0x40)\n      returndatasize\n      not(0x1f)\n      0x1f\n      dup3\n      add\n      and\n      dup3\n      add\n      dup1\n      0x40\n      mstore\n      pop\n      dup2\n      add\n      swap1\n      tag_192\n      swap2\n      swap1\n      tag_193\n      jump\t// in\n    tag_192:\n        /* \"Auction/auction1404.sol\":28512:28644  require(... */\n      tag_194\n      jumpi\n      mload(0x40)\n      0x08c379a000000000000000000000000000000000000000000000000000000000\n      dup2\n      mstore\n      0x04\n      add\n      tag_195\n      swap1\n      tag_196\n      jump\t// in\n    tag_195:\n      mload(0x40)\n      dup1\n      swap2\n      sub\n      swap1\n      revert\n    tag_194:\n        /* \"Auction/auction1404.sol\":28655:28669  uint256 amount */\n      0x00\n        /* \"Auction/auction1404.sol\":28799:28806  auction */\n      dup3\n        /* \"Auction/auction1404.sol\":28799:28818  auction.tokensDaily */\n      0x00\n      add\n      sload\n        /* \"Auction/auction1404.sol\":28789:28796  _amount */\n      dup6\n        /* \"Auction/auction1404.sol\":28768:28775  auction */\n      dup5\n        /* \"Auction/auction1404.sol\":28768:28786  auction.tokensSold */\n      0x01\n      add\n      sload\n        /* \"Auction/auction1404.sol\":28768:28796  auction.tokensSold + _amount */\n      tag_197\n      swap2\n      swap1\n      tag_198\n      jump\t// in\n    tag_197:\n        /* \"Auction/auction1404.sol\":28768:28818  auction.tokensSold + _amount > auction.tokensDaily */\n      gt\n        /* \"Auction/auction1404.sol\":28764:29264  if (auction.tokensSold + _amount > auction.tokensDaily) {... */\n      iszero\n      tag_199\n      jumpi\n        /* \"Auction/auction1404.sol\":28859:28866  auction */\n      dup3\n        /* \"Auction/auction1404.sol\":28859:28878  auction.tokensDaily */\n      0x00\n      add\n      sload\n        /* \"Auction/auction1404.sol\":28838:28845  auction */\n      dup4\n        /* \"Auction/auction1404.sol\":28838:28856  auction.tokensSold */\n      0x01\n      add\n      sload\n        /* \"Auction/auction1404.sol\":28838:28878  auction.tokensSold > auction.tokensDaily */\n      gt\n        /* \"Auction/auction1404.sol\":28834:29073  if (auction.tokensSold > auction.tokensDaily) {... */\n      iszero\n      tag_200\n      jumpi\n        /* \"Auction/auction1404.sol\":28940:28947  auction */\n      dup3\n        /* \"Auction/auction1404.sol\":28940:28958  auction.tokensSold */\n      0x01\n      add\n      sload\n        /* \"Auction/auction1404.sol\":28929:28936  _amount */\n      dup6\n        /* \"Auction/auction1404.sol\":28908:28915  auction */\n      dup5\n        /* \"Auction/auction1404.sol\":28908:28926  auction.tokensSold */\n      0x01\n      add\n      sload\n        /* \"Auction/auction1404.sol\":28908:28936  auction.tokensSold + _amount */\n      tag_201\n      swap2\n      swap1\n      tag_198\n      jump\t// in\n    tag_201:\n        /* \"Auction/auction1404.sol\":28907:28958  (auction.tokensSold + _amount) - auction.tokensSold */\n      tag_202\n      swap2\n      swap1\n      tag_203\n      jump\t// in\n    tag_202:\n        /* \"Auction/auction1404.sol\":28898:28958  amount = (auction.tokensSold + _amount) - auction.tokensSold */\n      swap1\n      pop\n        /* \"Auction/auction1404.sol\":28834:29073  if (auction.tokensSold > auction.tokensDaily) {... */\n      jump(tag_204)\n    tag_200:\n        /* \"Auction/auction1404.sol\":29039:29046  auction */\n      dup3\n        /* \"Auction/auction1404.sol\":29039:29058  auction.tokensDaily */\n      0x00\n      add\n      sload\n        /* \"Auction/auction1404.sol\":29028:29035  _amount */\n      dup6\n        /* \"Auction/auction1404.sol\":29007:29014  auction */\n      dup5\n        /* \"Auction/auction1404.sol\":29007:29025  auction.tokensSold */\n      0x01\n      add\n      sload\n        /* \"Auction/auction1404.sol\":29007:29035  auction.tokensSold + _amount */\n      tag_205\n      swap2\n      swap1\n      tag_198\n      jump\t// in\n    tag_205:\n        /* \"Auction/auction1404.sol\":29006:29058  (auction.tokensSold + _amount) - auction.tokensDaily */\n      tag_206\n      swap2\n      swap1\n      tag_203\n      jump\t// in\n    tag_206:\n        /* \"Auction/auction1404.sol\":28997:29058  amount = (auction.tokensSold + _amount) - auction.tokensDaily */\n      swap1\n      pop\n        /* \"Auction/auction1404.sol\":28834:29073  if (auction.tokensSold > auction.tokensDaily) {... */\n    tag_204:\n        /* \"Auction/auction1404.sol\":29113:29119  amount */\n      dup1\n        /* \"Auction/auction1404.sol\":29087:29094  auction */\n      dup4\n        /* \"Auction/auction1404.sol\":29087:29109  auction.oversubscribed */\n      0x02\n      add\n      0x00\n        /* \"Auction/auction1404.sol\":29087:29119  auction.oversubscribed += amount */\n      dup3\n      dup3\n      sload\n      tag_207\n      swap2\n      swap1\n      tag_198\n      jump\t// in\n    tag_207:\n      swap3\n      pop\n      pop\n      dup2\n      swap1\n      sstore\n      pop\n        /* \"Auction/auction1404.sol\":29168:29174  amount */\n      dup1\n        /* \"Auction/auction1404.sol\":29133:29143  userDetail */\n      0x0d\n        /* \"Auction/auction1404.sol\":29133:29155  userDetail[msg.sender] */\n      0x00\n        /* \"Auction/auction1404.sol\":29144:29154  msg.sender */\n      caller\n        /* \"Auction/auction1404.sol\":29133:29155  userDetail[msg.sender] */\n      0xffffffffffffffffffffffffffffffffffffffff\n      and\n      0xffffffffffffffffffffffffffffffffffffffff\n      and\n      dup2\n      mstore\n      0x20\n      add\n      swap1\n      dup2\n      mstore\n      0x20\n      add\n      0x00\n      keccak256\n        /* \"Auction/auction1404.sol\":29133:29164  userDetail[msg.sender].buyTotal */\n      0x01\n      add\n      0x00\n        /* \"Auction/auction1404.sol\":29133:29174  userDetail[msg.sender].buyTotal += amount */\n      dup3\n      dup3\n      sload\n      tag_208\n      swap2\n      swap1\n      tag_198\n      jump\t// in\n    tag_208:\n      swap3\n      pop\n      pop\n      dup2\n      swap1\n      sstore\n      pop\n        /* \"Auction/auction1404.sol\":29230:29237  auction */\n      dup3\n        /* \"Auction/auction1404.sol\":29230:29253  auction.bonusMultiplier */\n      0x03\n      add\n      sload\n        /* \"Auction/auction1404.sol\":29221:29227  amount */\n      dup2\n        /* \"Auction/auction1404.sol\":29221:29253  amount * auction.bonusMultiplier */\n      tag_209\n      swap2\n      swap1\n      tag_185\n      jump\t// in\n    tag_209:\n        /* \"Auction/auction1404.sol\":29188:29198  userDetail */\n      0x0d\n        /* \"Auction/auction1404.sol\":29188:29210  userDetail[msg.sender] */\n      0x00\n        /* \"Auction/auction1404.sol\":29199:29209  msg.sender */\n      caller\n        /* \"Auction/auction1404.sol\":29188:29210  userDetail[msg.sender] */\n      0xffffffffffffffffffffffffffffffffffffffff\n      and\n      0xffffffffffffffffffffffffffffffffffffffff\n      and\n      dup2\n      mstore\n      0x20\n      add\n      swap1\n      dup2\n      mstore\n      0x20\n      add\n      0x00\n      keccak256\n        /* \"Auction/auction1404.sol\":29188:29217  userDetail[msg.sender].reward */\n      0x00\n      add\n      0x00\n        /* \"Auction/auction1404.sol\":29188:29253  userDetail[msg.sender].reward += amount * auction.bonusMultiplier */\n      dup3\n      dup3\n      sload\n      tag_210\n      swap2\n      swap1\n      tag_198\n      jump\t// in\n    tag_210:\n      swap3\n      pop\n      pop\n      dup2\n      swap1\n      sstore\n      pop\n        /* \"Auction/auction1404.sol\":28764:29264  if (auction.tokensSold + _amount > auction.tokensDaily) {... */\n    tag_199:\n        /* \"Auction/auction1404.sol\":29287:29294  _amount */\n      dup5\n        /* \"Auction/auction1404.sol\":29274:29283  totalSell */\n      0x06\n      0x00\n        /* \"Auction/auction1404.sol\":29274:29294  totalSell += _amount */\n      dup3\n      dup3\n      sload\n      tag_211\n      swap2\n      swap1\n      tag_198\n      jump\t// in\n    tag_211:\n      swap3\n      pop\n      pop\n      dup2\n      swap1\n      sstore\n      pop\n        /* \"Auction/auction1404.sol\":29326:29333  _amount */\n      dup5\n        /* \"Auction/auction1404.sol\":29304:29311  auction */\n      dup4\n        /* \"Auction/auction1404.sol\":29304:29322  auction.tokensSold */\n      0x01\n      add\n      0x00\n        /* \"Auction/auction1404.sol\":29304:29333  auction.tokensSold += _amount */\n      dup3\n      dup3\n      sload\n      tag_212\n      swap2\n      swap1\n      tag_198\n      jump\t// in\n    tag_212:\n      swap3\n      pop\n      pop\n      dup2\n      swap1\n      sstore\n      pop\n        /* \"Auction/auction1404.sol\":29352:29368  uint256 lockTime */\n      0x00\n        /* \"Auction/auction1404.sol\":29423:29446  string memory _userType */\n      dup1\n        /* \"Auction/auction1404.sol\":29449:29455  PROTON */\n      0x02\n      0x00\n      swap1\n      sload\n      swap1\n      0x0100\n      exp\n      swap1\n      div\n      0xffffffffffffffffffffffffffffffffffffffff\n      and\n        /* \"Auction/auction1404.sol\":29449:29467  PROTON.getUserType */\n      0xffffffffffffffffffffffffffffffffffffffff\n      and\n      0x8b3f863f\n        /* \"Auction/auction1404.sol\":29468:29478  msg.sender */\n      caller\n        /* \"Auction/auction1404.sol\":29449:29479  PROTON.getUserType(msg.sender) */\n      mload(0x40)\n      dup3\n      0xffffffff\n      and\n      0xe0\n      shl\n      dup2\n      mstore\n      0x04\n      add\n      tag_213\n      swap2\n      swap1\n      tag_64\n      jump\t// in\n    tag_213:\n      0x00\n      mload(0x40)\n      dup1\n      dup4\n      sub\n      dup2\n      dup7\n      gas\n      staticcall\n      iszero\n      dup1\n      iszero\n      tag_215\n      jumpi\n      returndatasize\n      0x00\n      dup1\n      returndatacopy\n      revert(0x00, returndatasize)\n    tag_215:\n      pop\n      pop\n      pop\n      pop\n      mload(0x40)\n      returndatasize\n      0x00\n      dup3\n      returndatacopy\n      returndatasize\n      not(0x1f)\n      0x1f\n      dup3\n      add\n      and\n      dup3\n      add\n      dup1\n      0x40\n      mstore\n      pop\n      dup2\n      add\n      swap1\n      tag_216\n      swap2\n      swap1\n      tag_217\n      jump\t// in\n    tag_216:\n        /* \"Auction/auction1404.sol\":29423:29479  string memory _userType = PROTON.getUserType(msg.sender) */\n      swap1\n      pop\n        /* \"Auction/auction1404.sol\":29555:29565  lockingDay */\n      sload(0x07)\n        /* \"Auction/auction1404.sol\":29537:29552  block.timestamp */\n      timestamp\n        /* \"Auction/auction1404.sol\":29537:29565  block.timestamp + lockingDay */\n      tag_218\n      swap2\n      swap1\n      tag_198\n      jump\t// in\n    tag_218:\n        /* \"Auction/auction1404.sol\":29526:29565  lockTime = block.timestamp + lockingDay */\n      swap2\n      pop\n        /* \"Auction/auction1404.sol\":29637:29643  PROTON */\n      0x02\n      0x00\n      swap1\n      sload\n      swap1\n      0x0100\n      exp\n      swap1\n      div\n      0xffffffffffffffffffffffffffffffffffffffff\n      and\n        /* \"Auction/auction1404.sol\":29637:29648  PROTON.lock */\n      0xffffffffffffffffffffffffffffffffffffffff\n      and\n      0xe2ab691d\n        /* \"Auction/auction1404.sol\":29649:29659  msg.sender */\n      caller\n        /* \"Auction/auction1404.sol\":29661:29668  _amount */\n      dup10\n        /* \"Auction/auction1404.sol\":29670:29678  lockTime */\n      dup6\n        /* \"Auction/auction1404.sol\":29637:29679  PROTON.lock(msg.sender, _amount, lockTime) */\n      mload(0x40)\n      dup5\n      0xffffffff\n      and\n      0xe0\n      shl\n      dup2\n      mstore\n      0x04\n      add\n      tag_219\n      swap4\n      swap3\n      swap2\n      swap1\n      tag_220\n      jump\t// in\n    tag_219:\n      0x20\n      mload(0x40)\n      dup1\n      dup4\n      sub\n      dup2\n      0x00\n      dup8\n      gas\n      call\n      iszero\n      dup1\n      iszero\n      tag_222\n      jumpi\n      returndatasize\n      0x00\n      dup1\n      returndatacopy\n      revert(0x00, returndatasize)\n    tag_222:\n      pop\n      pop\n      pop\n      pop\n      mload(0x40)\n      returndatasize\n      not(0x1f)\n      0x1f\n      dup3\n      add\n      and\n      dup3\n      add\n      dup1\n      0x40\n      mstore\n      pop\n      dup2\n      add\n      swap1\n      tag_223\n      swap2\n      swap1\n      tag_193\n      jump\t// in\n    tag_223:\n      pop\n        /* \"Auction/auction1404.sol\":29744:29750  PROTON */\n      0x02\n      0x00\n      swap1\n      sload\n      swap1\n      0x0100\n      exp\n      swap1\n      div\n      0xffffffffffffffffffffffffffffffffffffffff\n      and\n        /* \"Auction/auction1404.sol\":29744:29759  PROTON.transfer */\n      0xffffffffffffffffffffffffffffffffffffffff\n      and\n      0xa9059cbb\n        /* \"Auction/auction1404.sol\":29760:29770  msg.sender */\n      caller\n        /* \"Auction/auction1404.sol\":29772:29779  _amount */\n      dup10\n        /* \"Auction/auction1404.sol\":29744:29780  PROTON.transfer(msg.sender, _amount) */\n      mload(0x40)\n      dup4\n      0xffffffff\n      and\n      0xe0\n      shl\n      dup2\n      mstore\n      0x04\n      add\n      tag_224\n      swap3\n      swap2\n      swap1\n      tag_225\n      jump\t// in\n    tag_224:\n      0x20\n      mload(0x40)\n      dup1\n      dup4\n      sub\n      dup2\n      0x00\n      dup8\n      gas\n      call\n      iszero\n      dup1\n      iszero\n      tag_227\n      jumpi\n      returndatasize\n      0x00\n      dup1\n      returndatacopy\n      revert(0x00, returndatasize)\n    tag_227:\n      pop\n      pop\n      pop\n      pop\n      mload(0x40)\n      returndatasize\n      not(0x1f)\n      0x1f\n      dup3\n      add\n      and\n      dup3\n      add\n      dup1\n      0x40\n      mstore\n      pop\n      dup2\n      add\n      swap1\n      tag_228\n      swap2\n      swap1\n      tag_193\n      jump\t// in\n    tag_228:\n        /* \"Auction/auction1404.sol\":29736:29812  require(PROTON.transfer(msg.sender, _amount),\"Proton token transfer failed\") */\n      tag_229\n      jumpi\n      mload(0x40)\n      0x08c379a000000000000000000000000000000000000000000000000000000000\n      dup2\n      mstore\n      0x04\n      add\n      tag_230\n      swap1\n      tag_231\n      jump\t// in\n    tag_230:\n      mload(0x40)\n      dup1\n      swap2\n      sub\n      swap1\n      revert\n    tag_229:\n        /* \"Auction/auction1404.sol\":29844:29854  msg.sender */\n      caller\n        /* \"Auction/auction1404.sol\":29828:29887  TokensPurchased(msg.sender, usdtAmount, _amount , lockTime) */\n      0xffffffffffffffffffffffffffffffffffffffff\n      and\n      0x0d1a0d5e3d583a0e92588799dd06e50fd78c07daf05f0cc06d7b848b1ca445f1\n        /* \"Auction/auction1404.sol\":29856:29866  usdtAmount */\n      dup6\n        /* \"Auction/auction1404.sol\":29868:29875  _amount */\n      dup10\n        /* \"Auction/auction1404.sol\":29878:29886  lockTime */\n      dup6\n        /* \"Auction/auction1404.sol\":29828:29887  TokensPurchased(msg.sender, usdtAmount, _amount , lockTime) */\n      mload(0x40)\n      tag_232\n      swap4\n      swap3\n      swap2\n      swap1\n      tag_145\n      jump\t// in\n    tag_232:\n      mload(0x40)\n      dup1\n      swap2\n      sub\n      swap1\n      log2\n        /* \"Auction/auction1404.sol\":27451:29894  {... */\n      pop\n      pop\n      pop\n      pop\n      pop\n      pop\n        /* \"Auction/auction1404.sol\":27346:29894  function buyTokens(... */\n      pop\n      pop\n      jump\t// out\n        /* \"Auction/auction1404.sol\":25358:25441  function setToken(IERC20 addr) external onlyOwner {... */\n    tag_52:\n        /* \"Auction/auction1404.sol\":1828:1841  _checkOwner() */\n      tag_234\n        /* \"Auction/auction1404.sol\":1828:1839  _checkOwner */\n      tag_235\n        /* \"Auction/auction1404.sol\":1828:1841  _checkOwner() */\n      jump\t// in\n    tag_234:\n        /* \"Auction/auction1404.sol\":25418:25423  token */\n      0x0a\n        /* \"Auction/auction1404.sol\":25429:25433  addr */\n      dup2\n        /* \"Auction/auction1404.sol\":25418:25434  token.push(addr) */\n      swap1\n      dup1\n      0x01\n      dup2\n      sload\n      add\n      dup1\n      dup3\n      sstore\n      dup1\n      swap2\n      pop\n      pop\n      0x01\n      swap1\n      sub\n      swap1\n      0x00\n      mstore\n      keccak256(0x00, 0x20)\n      add\n      0x00\n      swap1\n      swap2\n      swap1\n      swap2\n      swap1\n      swap2\n      0x0100\n      exp\n      dup2\n      sload\n      dup2\n      0xffffffffffffffffffffffffffffffffffffffff\n      mul\n      not\n      and\n      swap1\n      dup4\n      0xffffffffffffffffffffffffffffffffffffffff\n      and\n      mul\n      or\n      swap1\n      sstore\n      pop\n        /* \"Auction/auction1404.sol\":25358:25441  function setToken(IERC20 addr) external onlyOwner {... */\n      pop\n      jump\t// out\n        /* \"Auction/auction1404.sol\":31513:32032  function claimReward(... */\n    tag_56:\n        /* \"Auction/auction1404.sol\":25199:25207  isPaused */\n      0x09\n      0x00\n      swap1\n      sload\n      swap1\n      0x0100\n      exp\n      swap1\n      div\n      0xff\n      and\n        /* \"Auction/auction1404.sol\":25191:25235  require(isPaused, \"Auction is still active\") */\n      tag_239\n      jumpi\n      mload(0x40)\n      0x08c379a000000000000000000000000000000000000000000000000000000000\n      dup2\n      mstore\n      0x04\n      add\n      tag_240\n      swap1\n      tag_241\n      jump\t// in\n    tag_240:\n      mload(0x40)\n      dup1\n      swap2\n      sub\n      swap1\n      revert\n    tag_239:\n        /* \"Auction/auction1404.sol\":25271:25277  rounds */\n      0x0b\n        /* \"Auction/auction1404.sol\":25271:25291  rounds[currentRound] */\n      0x00\n        /* \"Auction/auction1404.sol\":25278:25290  currentRound */\n      sload(0x08)\n        /* \"Auction/auction1404.sol\":25271:25291  rounds[currentRound] */\n      dup2\n      mstore\n      0x20\n      add\n      swap1\n      dup2\n      mstore\n      0x20\n      add\n      0x00\n      keccak256\n        /* \"Auction/auction1404.sol\":25271:25300  rounds[currentRound].roundEnd */\n      0x01\n      add\n      sload\n        /* \"Auction/auction1404.sol\":25253:25268  block.timestamp */\n      timestamp\n        /* \"Auction/auction1404.sol\":25253:25300  block.timestamp > rounds[currentRound].roundEnd */\n      gt\n        /* \"Auction/auction1404.sol\":25245:25334  require(block.timestamp > rounds[currentRound].roundEnd, \"Auction days are not complete\") */\n      tag_242\n      jumpi\n      mload(0x40)\n      0x08c379a000000000000000000000000000000000000000000000000000000000\n      dup2\n      mstore\n      0x04\n      add\n      tag_243\n      swap1\n      tag_244\n      jump\t// in\n    tag_243:\n      mload(0x40)\n      dup1\n      swap2\n      sub\n      swap1\n      revert\n    tag_242:\n        /* \"Auction/auction1404.sol\":31666:31667  0 */\n      0x00\n        /* \"Auction/auction1404.sol\":31640:31650  userDetail */\n      0x0d\n        /* \"Auction/auction1404.sol\":31640:31656  userDetail[user] */\n      0x00\n        /* \"Auction/auction1404.sol\":31651:31655  user */\n      dup5\n        /* \"Auction/auction1404.sol\":31640:31656  userDetail[user] */\n      0xffffffffffffffffffffffffffffffffffffffff\n      and\n      0xffffffffffffffffffffffffffffffffffffffff\n      and\n      dup2\n      mstore\n      0x20\n      add\n      swap1\n      dup2\n      mstore\n      0x20\n      add\n      0x00\n      keccak256\n        /* \"Auction/auction1404.sol\":31640:31663  userDetail[user].reward */\n      0x00\n      add\n      sload\n        /* \"Auction/auction1404.sol\":31640:31667  userDetail[user].reward > 0 */\n      gt\n        /* \"Auction/auction1404.sol\":31640:31725  userDetail[user].reward > 0 &&... */\n      dup1\n      iszero\n      tag_246\n      jumpi\n      pop\n        /* \"Auction/auction1404.sol\":31702:31712  userDetail */\n      0x0d\n        /* \"Auction/auction1404.sol\":31702:31718  userDetail[user] */\n      0x00\n        /* \"Auction/auction1404.sol\":31713:31717  user */\n      dup4\n        /* \"Auction/auction1404.sol\":31702:31718  userDetail[user] */\n      0xffffffffffffffffffffffffffffffffffffffff\n      and\n      0xffffffffffffffffffffffffffffffffffffffff\n      and\n      dup2\n      mstore\n      0x20\n      add\n      swap1\n      dup2\n      mstore\n      0x20\n      add\n      0x00\n      keccak256\n        /* \"Auction/auction1404.sol\":31702:31725  userDetail[user].reward */\n      0x00\n      add\n      sload\n        /* \"Auction/auction1404.sol\":31687:31698  _usdtAmount */\n      dup2\n        /* \"Auction/auction1404.sol\":31687:31725  _usdtAmount <= userDetail[user].reward */\n      gt\n      iszero\n        /* \"Auction/auction1404.sol\":31640:31725  userDetail[user].reward > 0 &&... */\n    tag_246:\n        /* \"Auction/auction1404.sol\":31619:31766  require(... */\n      tag_247\n      jumpi\n      mload(0x40)\n      0x08c379a000000000000000000000000000000000000000000000000000000000\n      dup2\n      mstore\n      0x04\n      add\n      tag_248\n      swap1\n      tag_249\n      jump\t// in\n    tag_248:\n      mload(0x40)\n      dup1\n      swap2\n      sub\n      swap1\n      revert\n    tag_247:\n        /* \"Auction/auction1404.sol\":31803:31814  _usdtAmount */\n      dup1\n        /* \"Auction/auction1404.sol\":31776:31786  userDetail */\n      0x0d\n        /* \"Auction/auction1404.sol\":31776:31792  userDetail[user] */\n      0x00\n        /* \"Auction/auction1404.sol\":31787:31791  user */\n      dup5\n        /* \"Auction/auction1404.sol\":31776:31792  userDetail[user] */\n      0xffffffffffffffffffffffffffffffffffffffff\n      and\n      0xffffffffffffffffffffffffffffffffffffffff\n      and\n      dup2\n      mstore\n      0x20\n      add\n      swap1\n      dup2\n      mstore\n      0x20\n      add\n      0x00\n      keccak256\n        /* \"Auction/auction1404.sol\":31776:31799  userDetail[user].reward */\n      0x00\n      add\n      0x00\n        /* \"Auction/auction1404.sol\":31776:31814  userDetail[user].reward -= _usdtAmount */\n      dup3\n      dup3\n      sload\n      tag_250\n      swap2\n      swap1\n      tag_203\n      jump\t// in\n    tag_250:\n      swap3\n      pop\n      pop\n      dup2\n      swap1\n      sstore\n      pop\n        /* \"Auction/auction1404.sol\":31845:31851  PROTON */\n      0x02\n      0x00\n      swap1\n      sload\n      swap1\n      0x0100\n      exp\n      swap1\n      div\n      0xffffffffffffffffffffffffffffffffffffffff\n      and\n        /* \"Auction/auction1404.sol\":31845:31860  PROTON.transfer */\n      0xffffffffffffffffffffffffffffffffffffffff\n      and\n      0xa9059cbb\n        /* \"Auction/auction1404.sol\":31861:31865  user */\n      dup4\n        /* \"Auction/auction1404.sol\":31867:31878  _usdtAmount */\n      dup4\n        /* \"Auction/auction1404.sol\":31845:31879  PROTON.transfer(user, _usdtAmount) */\n      mload(0x40)\n      dup4\n      0xffffffff\n      and\n      0xe0\n      shl\n      dup2\n      mstore\n      0x04\n      add\n      tag_251\n      swap3\n      swap2\n      swap1\n      tag_225\n      jump\t// in\n    tag_251:\n      0x20\n      mload(0x40)\n      dup1\n      dup4\n      sub\n      dup2\n      0x00\n      dup8\n      gas\n      call\n      iszero\n      dup1\n      iszero\n      tag_253\n      jumpi\n      returndatasize\n      0x00\n      dup1\n      returndatacopy\n      revert(0x00, returndatasize)\n    tag_253:\n      pop\n      pop\n      pop\n      pop\n      mload(0x40)\n      returndatasize\n      not(0x1f)\n      0x1f\n      dup3\n      add\n      and\n      dup3\n      add\n      dup1\n      0x40\n      mstore\n      pop\n      dup2\n      add\n      swap1\n      tag_254\n      swap2\n      swap1\n      tag_193\n      jump\t// in\n    tag_254:\n        /* \"Auction/auction1404.sol\":31824:31933  require(... */\n      tag_255\n      jumpi\n      mload(0x40)\n      0x08c379a000000000000000000000000000000000000000000000000000000000\n      dup2\n      mstore\n      0x04\n      add\n      tag_256\n      swap1\n      tag_231\n      jump\t// in\n    tag_256:\n      mload(0x40)\n      dup1\n      swap2\n      sub\n      swap1\n      revert\n    tag_255:\n        /* \"Auction/auction1404.sol\":31947:32025  claimreward (user ,  userDetail[user].reward , _usdtAmount , block.timestamp ) */\n      0x622cc013916970f2d0437da0b597aa7a3d762effad3652011e32375c7e455b31\n        /* \"Auction/auction1404.sol\":31960:31964  user */\n      dup3\n        /* \"Auction/auction1404.sol\":31968:31978  userDetail */\n      0x0d\n        /* \"Auction/auction1404.sol\":31968:31984  userDetail[user] */\n      0x00\n        /* \"Auction/auction1404.sol\":31979:31983  user */\n      dup6\n        /* \"Auction/auction1404.sol\":31968:31984  userDetail[user] */\n      0xffffffffffffffffffffffffffffffffffffffff\n      and\n      0xffffffffffffffffffffffffffffffffffffffff\n      and\n      dup2\n      mstore\n      0x20\n      add\n      swap1\n      dup2\n      mstore\n      0x20\n      add\n      0x00\n      keccak256\n        /* \"Auction/auction1404.sol\":31968:31991  userDetail[user].reward */\n      0x00\n      add\n      sload\n        /* \"Auction/auction1404.sol\":31994:32005  _usdtAmount */\n      dup4\n        /* \"Auction/auction1404.sol\":32008:32023  block.timestamp */\n      timestamp\n        /* \"Auction/auction1404.sol\":31947:32025  claimreward (user ,  userDetail[user].reward , _usdtAmount , block.timestamp ) */\n      mload(0x40)\n      tag_257\n      swap5\n      swap4\n      swap3\n      swap2\n      swap1\n      tag_258\n      jump\t// in\n    tag_257:\n      mload(0x40)\n      dup1\n      swap2\n      sub\n      swap1\n      log1\n        /* \"Auction/auction1404.sol\":31513:32032  function claimReward(... */\n      pop\n      pop\n      jump\t// out\n        /* \"Auction/auction1404.sol\":26297:26605  function setDailyDetails(... */\n    tag_60:\n        /* \"Auction/auction1404.sol\":1828:1841  _checkOwner() */\n      tag_260\n        /* \"Auction/auction1404.sol\":1828:1839  _checkOwner */\n      tag_235\n        /* \"Auction/auction1404.sol\":1828:1841  _checkOwner() */\n      jump\t// in\n    tag_260:\n        /* \"Auction/auction1404.sol\":26449:26450  7 */\n      0x07\n        /* \"Auction/auction1404.sol\":26443:26446  day */\n      dup4\n        /* \"Auction/auction1404.sol\":26443:26450  day < 7 */\n      lt\n        /* \"Auction/auction1404.sol\":26443:26461  day < 7 && day > 0 */\n      dup1\n      iszero\n      tag_262\n      jumpi\n      pop\n        /* \"Auction/auction1404.sol\":26460:26461  0 */\n      0x00\n        /* \"Auction/auction1404.sol\":26454:26457  day */\n      dup4\n        /* \"Auction/auction1404.sol\":26454:26461  day > 0 */\n      gt\n        /* \"Auction/auction1404.sol\":26443:26461  day < 7 && day > 0 */\n    tag_262:\n        /* \"Auction/auction1404.sol\":26435:26482  require(day < 7 && day > 0, \"ERROR: DAY value\") */\n      tag_263\n      jumpi\n      mload(0x40)\n      0x08c379a000000000000000000000000000000000000000000000000000000000\n      dup2\n      mstore\n      0x04\n      add\n      tag_264\n      swap1\n      tag_265\n      jump\t// in\n    tag_264:\n      mload(0x40)\n      dup1\n      swap2\n      sub\n      swap1\n      revert\n    tag_263:\n        /* \"Auction/auction1404.sol\":26529:26544  bonusMultiplier */\n      dup1\n        /* \"Auction/auction1404.sol\":26492:26505  dailyAuctions */\n      0x0c\n        /* \"Auction/auction1404.sol\":26492:26510  dailyAuctions[day] */\n      0x00\n        /* \"Auction/auction1404.sol\":26506:26509  day */\n      dup6\n        /* \"Auction/auction1404.sol\":26492:26510  dailyAuctions[day] */\n      dup2\n      mstore\n      0x20\n      add\n      swap1\n      dup2\n      mstore\n      0x20\n      add\n      0x00\n      keccak256\n        /* \"Auction/auction1404.sol\":26492:26526  dailyAuctions[day].bonusMultiplier */\n      0x03\n      add\n        /* \"Auction/auction1404.sol\":26492:26544  dailyAuctions[day].bonusMultiplier = bonusMultiplier */\n      dup2\n      swap1\n      sstore\n      pop\n        /* \"Auction/auction1404.sol\":26587:26598  tokensDaily */\n      dup2\n        /* \"Auction/auction1404.sol\":26554:26567  dailyAuctions */\n      0x0c\n        /* \"Auction/auction1404.sol\":26554:26572  dailyAuctions[day] */\n      0x00\n        /* \"Auction/auction1404.sol\":26568:26571  day */\n      dup6\n        /* \"Auction/auction1404.sol\":26554:26572  dailyAuctions[day] */\n      dup2\n      mstore\n      0x20\n      add\n      swap1\n      dup2\n      mstore\n      0x20\n      add\n      0x00\n      keccak256\n        /* \"Auction/auction1404.sol\":26554:26584  dailyAuctions[day].tokensDaily */\n      0x00\n      add\n        /* \"Auction/auction1404.sol\":26554:26598  dailyAuctions[day].tokensDaily = tokensDaily */\n      dup2\n      swap1\n      sstore\n      pop\n        /* \"Auction/auction1404.sol\":26297:26605  function setDailyDetails(... */\n      pop\n      pop\n      pop\n      jump\t// out\n        /* \"Auction/auction1404.sol\":23851:23877  address public fundsWallet */\n    tag_62:\n      0x09\n      0x01\n      swap1\n      sload\n      swap1\n      0x0100\n      exp\n      swap1\n      div\n      0xffffffffffffffffffffffffffffffffffffffff\n      and\n      dup2\n      jump\t// out\n        /* \"Auction/auction1404.sol\":23609:23669  uint256 public maxOversubscriptionlimit = 1000000 * 10 ** 18 */\n    tag_66:\n      sload(0x05)\n      dup2\n      jump\t// out\n        /* \"Auction/auction1404.sol\":30778:30935  function auctionStatus(bool status) external onlyOwner {... */\n    tag_72:\n        /* \"Auction/auction1404.sol\":1828:1841  _checkOwner() */\n      tag_267\n        /* \"Auction/auction1404.sol\":1828:1839  _checkOwner */\n      tag_235\n        /* \"Auction/auction1404.sol\":1828:1841  _checkOwner() */\n      jump\t// in\n    tag_267:\n        /* \"Auction/auction1404.sol\":30854:30860  status */\n      dup1\n        /* \"Auction/auction1404.sol\":30843:30851  isPaused */\n      0x09\n      0x00\n        /* \"Auction/auction1404.sol\":30843:30860  isPaused = status */\n      0x0100\n      exp\n      dup2\n      sload\n      dup2\n      0xff\n      mul\n      not\n      and\n      swap1\n      dup4\n      iszero\n      iszero\n      mul\n      or\n      swap1\n      sstore\n      pop\n        /* \"Auction/auction1404.sol\":30876:30928  AuctionStatus(msg.sender , status , block.timestamp) */\n      0x237dd0cdf7b3af1cfa9eb04b654f1babb43ddaad2183a8863d9fea7d857aacd6\n        /* \"Auction/auction1404.sol\":30890:30900  msg.sender */\n      caller\n        /* \"Auction/auction1404.sol\":30903:30909  status */\n      dup3\n        /* \"Auction/auction1404.sol\":30912:30927  block.timestamp */\n      timestamp\n        /* \"Auction/auction1404.sol\":30876:30928  AuctionStatus(msg.sender , status , block.timestamp) */\n      mload(0x40)\n      tag_269\n      swap4\n      swap3\n      swap2\n      swap1\n      tag_270\n      jump\t// in\n    tag_269:\n      mload(0x40)\n      dup1\n      swap2\n      sub\n      swap1\n      log1\n        /* \"Auction/auction1404.sol\":30778:30935  function auctionStatus(bool status) external onlyOwner {... */\n      pop\n      jump\t// out\n        /* \"Auction/auction1404.sol\":24317:24365  mapping(uint256 => Auction) public dailyAuctions */\n    tag_75:\n      mstore(0x20, 0x0c)\n      dup1\n      0x00\n      mstore\n      keccak256(0x00, 0x40)\n      0x00\n      swap2\n      pop\n      swap1\n      pop\n      dup1\n      0x00\n      add\n      sload\n      swap1\n      dup1\n      0x01\n      add\n      sload\n      swap1\n      dup1\n      0x02\n      add\n      sload\n      swap1\n      dup1\n      0x03\n      add\n      sload\n      swap1\n      pop\n      dup5\n      jump\t// out\n        /* \"Auction/auction1404.sol\":26862:27340  function getCurrentDay() public view returns (uint256) {... */\n    tag_79:\n        /* \"Auction/auction1404.sol\":26908:26915  uint256 */\n      0x00\n        /* \"Auction/auction1404.sol\":26927:26946  Round storage round */\n      dup1\n        /* \"Auction/auction1404.sol\":26949:26955  rounds */\n      0x0b\n        /* \"Auction/auction1404.sol\":26949:26969  rounds[currentRound] */\n      0x00\n        /* \"Auction/auction1404.sol\":26956:26968  currentRound */\n      sload(0x08)\n        /* \"Auction/auction1404.sol\":26949:26969  rounds[currentRound] */\n      dup2\n      mstore\n      0x20\n      add\n      swap1\n      dup2\n      mstore\n      0x20\n      add\n      0x00\n      keccak256\n        /* \"Auction/auction1404.sol\":26927:26969  Round storage round = rounds[currentRound] */\n      swap1\n      pop\n        /* \"Auction/auction1404.sol\":26984:26992  isPaused */\n      0x09\n      0x00\n      swap1\n      sload\n      swap1\n      0x0100\n      exp\n      swap1\n      div\n      0xff\n      and\n        /* \"Auction/auction1404.sol\":26984:27028  isPaused || block.timestamp > round.roundEnd */\n      dup1\n      tag_272\n      jumpi\n      pop\n        /* \"Auction/auction1404.sol\":27014:27019  round */\n      dup1\n        /* \"Auction/auction1404.sol\":27014:27028  round.roundEnd */\n      0x01\n      add\n      sload\n        /* \"Auction/auction1404.sol\":26996:27011  block.timestamp */\n      timestamp\n        /* \"Auction/auction1404.sol\":26996:27028  block.timestamp > round.roundEnd */\n      gt\n        /* \"Auction/auction1404.sol\":26984:27028  isPaused || block.timestamp > round.roundEnd */\n    tag_272:\n        /* \"Auction/auction1404.sol\":26980:27100  if (isPaused || block.timestamp > round.roundEnd) {... */\n      iszero\n      tag_273\n      jumpi\n        /* \"Auction/auction1404.sol\":27051:27052  8 */\n      0x08\n        /* \"Auction/auction1404.sol\":27044:27052  return 8 */\n      swap2\n      pop\n      pop\n      jump(tag_271)\n        /* \"Auction/auction1404.sol\":26980:27100  if (isPaused || block.timestamp > round.roundEnd) {... */\n    tag_273:\n        /* \"Auction/auction1404.sol\":27110:27125  uint256 elapsed */\n      0x00\n        /* \"Auction/auction1404.sol\":27146:27151  round */\n      dup2\n        /* \"Auction/auction1404.sol\":27146:27162  round.roundStart */\n      0x00\n      add\n      sload\n        /* \"Auction/auction1404.sol\":27128:27143  block.timestamp */\n      timestamp\n        /* \"Auction/auction1404.sol\":27128:27162  block.timestamp - round.roundStart */\n      tag_274\n      swap2\n      swap1\n      tag_203\n      jump\t// in\n    tag_274:\n        /* \"Auction/auction1404.sol\":27110:27162  uint256 elapsed = block.timestamp - round.roundStart */\n      swap1\n      pop\n        /* \"Auction/auction1404.sol\":27172:27183  uint256 day */\n      0x00\n        /* \"Auction/auction1404.sol\":27207:27208  1 */\n      0x01\n        /* \"Auction/auction1404.sol\":27197:27203  1 days */\n      0x015180\n        /* \"Auction/auction1404.sol\":27187:27194  elapsed */\n      dup4\n        /* \"Auction/auction1404.sol\":27187:27203  elapsed / 1 days */\n      tag_275\n      swap2\n      swap1\n      tag_187\n      jump\t// in\n    tag_275:\n        /* \"Auction/auction1404.sol\":27186:27208  (elapsed / 1 days) + 1 */\n      tag_276\n      swap2\n      swap1\n      tag_198\n      jump\t// in\n    tag_276:\n        /* \"Auction/auction1404.sol\":27172:27208  uint256 day = (elapsed / 1 days) + 1 */\n      swap1\n      pop\n        /* \"Auction/auction1404.sol\":27277:27278  7 */\n      0x07\n        /* \"Auction/auction1404.sol\":27271:27274  day */\n      dup2\n        /* \"Auction/auction1404.sol\":27271:27278  day > 7 */\n      gt\n        /* \"Auction/auction1404.sol\":27267:27313  if (day > 7) {... */\n      iszero\n      tag_277\n      jumpi\n        /* \"Auction/auction1404.sol\":27301:27302  7 */\n      0x07\n        /* \"Auction/auction1404.sol\":27294:27302  return 7 */\n      swap4\n      pop\n      pop\n      pop\n      pop\n      jump(tag_271)\n        /* \"Auction/auction1404.sol\":27267:27313  if (day > 7) {... */\n    tag_277:\n        /* \"Auction/auction1404.sol\":27330:27333  day */\n      dup1\n        /* \"Auction/auction1404.sol\":27323:27333  return day */\n      swap4\n      pop\n      pop\n      pop\n      pop\n        /* \"Auction/auction1404.sol\":26862:27340  function getCurrentDay() public view returns (uint256) {... */\n    tag_271:\n      swap1\n      jump\t// out\n        /* \"Auction/auction1404.sol\":31173:31507  function getDailyAuction(uint256 roundNumber, uint256 day) external view returns ( uint256) {... */\n    tag_84:\n        /* \"Auction/auction1404.sol\":31256:31263  uint256 */\n      0x00\n        /* \"Auction/auction1404.sol\":31275:31294  Round storage round */\n      dup1\n        /* \"Auction/auction1404.sol\":31297:31303  rounds */\n      0x0b\n        /* \"Auction/auction1404.sol\":31297:31316  rounds[roundNumber] */\n      0x00\n        /* \"Auction/auction1404.sol\":31304:31315  roundNumber */\n      dup6\n        /* \"Auction/auction1404.sol\":31297:31316  rounds[roundNumber] */\n      dup2\n      mstore\n      0x20\n      add\n      swap1\n      dup2\n      mstore\n      0x20\n      add\n      0x00\n      keccak256\n        /* \"Auction/auction1404.sol\":31275:31316  Round storage round = rounds[roundNumber] */\n      swap1\n      pop\n        /* \"Auction/auction1404.sol\":31326:31348  Auction memory auction */\n      0x00\n        /* \"Auction/auction1404.sol\":31351:31356  round */\n      dup2\n        /* \"Auction/auction1404.sol\":31351:31370  round.dailyAuctions */\n      0x02\n      add\n        /* \"Auction/auction1404.sol\":31351:31375  round.dailyAuctions[day] */\n      0x00\n        /* \"Auction/auction1404.sol\":31371:31374  day */\n      dup6\n        /* \"Auction/auction1404.sol\":31351:31375  round.dailyAuctions[day] */\n      dup2\n      mstore\n      0x20\n      add\n      swap1\n      dup2\n      mstore\n      0x20\n      add\n      0x00\n      keccak256\n        /* \"Auction/auction1404.sol\":31326:31375  Auction memory auction = round.dailyAuctions[day] */\n      mload(0x40)\n      dup1\n      0x80\n      add\n      0x40\n      mstore\n      swap1\n      dup2\n      0x00\n      dup3\n      add\n      sload\n      dup2\n      mstore\n      0x20\n      add\n      0x01\n      dup3\n      add\n      sload\n      dup2\n      mstore\n      0x20\n      add\n      0x02\n      dup3\n      add\n      sload\n      dup2\n      mstore\n      0x20\n      add\n      0x03\n      dup3\n      add\n      sload\n      dup2\n      mstore\n      pop\n      pop\n      swap1\n      pop\n        /* \"Auction/auction1404.sol\":31395:31402  auction */\n      dup1\n        /* \"Auction/auction1404.sol\":31395:31413  auction.tokensSold */\n      0x20\n      add\n      mload\n        /* \"Auction/auction1404.sol\":31386:31414  return ( auction.tokensSold) */\n      swap3\n      pop\n      pop\n      pop\n        /* \"Auction/auction1404.sol\":31173:31507  function getDailyAuction(uint256 roundNumber, uint256 day) external view returns ( uint256) {... */\n      swap3\n      swap2\n      pop\n      pop\n      jump\t// out\n        /* \"Auction/auction1404.sol\":24371:24420  mapping(address => UserDetails) public userDetail */\n    tag_89:\n      mstore(0x20, 0x0d)\n      dup1\n      0x00\n      mstore\n      keccak256(0x00, 0x40)\n      0x00\n      swap2\n      pop\n      swap1\n      pop\n      dup1\n      0x00\n      add\n      sload\n      swap1\n      dup1\n      0x01\n      add\n      sload\n      swap1\n      pop\n      dup3\n      jump\t// out\n        /* \"Auction/auction1404.sol\":26175:26291  function setFundsWallet(address _fundsWalletAddr) external onlyOwner {... */\n    tag_94:\n        /* \"Auction/auction1404.sol\":1828:1841  _checkOwner() */\n      tag_280\n        /* \"Auction/auction1404.sol\":1828:1839  _checkOwner */\n      tag_235\n        /* \"Auction/auction1404.sol\":1828:1841  _checkOwner() */\n      jump\t// in\n    tag_280:\n        /* \"Auction/auction1404.sol\":26268:26284  _fundsWalletAddr */\n      dup1\n        /* \"Auction/auction1404.sol\":26254:26265  fundsWallet */\n      0x09\n      0x01\n        /* \"Auction/auction1404.sol\":26254:26284  fundsWallet = _fundsWalletAddr */\n      0x0100\n      exp\n      dup2\n      sload\n      dup2\n      0xffffffffffffffffffffffffffffffffffffffff\n      mul\n      not\n      and\n      swap1\n      dup4\n      0xffffffffffffffffffffffffffffffffffffffff\n      and\n      mul\n      or\n      swap1\n      sstore\n      pop\n        /* \"Auction/auction1404.sol\":26175:26291  function setFundsWallet(address _fundsWalletAddr) external onlyOwner {... */\n      pop\n      jump\t// out\n        /* \"Auction/auction1404.sol\":25447:26064  function startAuction() external onlyOwner {... */\n    tag_96:\n        /* \"Auction/auction1404.sol\":1828:1841  _checkOwner() */\n      tag_283\n        /* \"Auction/auction1404.sol\":1828:1839  _checkOwner */\n      tag_235\n        /* \"Auction/auction1404.sol\":1828:1841  _checkOwner() */\n      jump\t// in\n    tag_283:\n        /* \"Auction/auction1404.sol\":25509:25517  isPaused */\n      0x09\n      0x00\n      swap1\n      sload\n      swap1\n      0x0100\n      exp\n      swap1\n      div\n      0xff\n      and\n        /* \"Auction/auction1404.sol\":25501:25545  require(isPaused, \"Auction already started\") */\n      tag_285\n      jumpi\n      mload(0x40)\n      0x08c379a000000000000000000000000000000000000000000000000000000000\n      dup2\n      mstore\n      0x04\n      add\n      tag_286\n      swap1\n      tag_287\n      jump\t// in\n    tag_286:\n      mload(0x40)\n      dup1\n      swap2\n      sub\n      swap1\n      revert\n    tag_285:\n        /* \"Auction/auction1404.sol\":25566:25571  false */\n      0x00\n        /* \"Auction/auction1404.sol\":25555:25563  isPaused */\n      0x09\n      0x00\n        /* \"Auction/auction1404.sol\":25555:25571  isPaused = false */\n      0x0100\n      exp\n      dup2\n      sload\n      dup2\n      0xff\n      mul\n      not\n      and\n      swap1\n      dup4\n      iszero\n      iszero\n      mul\n      or\n      swap1\n      sstore\n      pop\n        /* \"Auction/auction1404.sol\":25616:25628  currentRound */\n      0x08\n      0x00\n        /* \"Auction/auction1404.sol\":25616:25630  currentRound++ */\n      dup2\n      sload\n      dup1\n      swap3\n      swap2\n      swap1\n      tag_288\n      swap1\n      tag_289\n      jump\t// in\n    tag_288:\n      swap2\n      swap1\n      pop\n      sstore\n      pop\n        /* \"Auction/auction1404.sol\":25640:25659  Round storage round */\n      0x00\n        /* \"Auction/auction1404.sol\":25662:25668  rounds */\n      0x0b\n        /* \"Auction/auction1404.sol\":25662:25682  rounds[currentRound] */\n      0x00\n        /* \"Auction/auction1404.sol\":25669:25681  currentRound */\n      sload(0x08)\n        /* \"Auction/auction1404.sol\":25662:25682  rounds[currentRound] */\n      dup2\n      mstore\n      0x20\n      add\n      swap1\n      dup2\n      mstore\n      0x20\n      add\n      0x00\n      keccak256\n        /* \"Auction/auction1404.sol\":25640:25682  Round storage round = rounds[currentRound] */\n      swap1\n      pop\n        /* \"Auction/auction1404.sol\":25712:25727  block.timestamp */\n      timestamp\n        /* \"Auction/auction1404.sol\":25693:25698  round */\n      dup2\n        /* \"Auction/auction1404.sol\":25693:25709  round.roundStart */\n      0x00\n      add\n        /* \"Auction/auction1404.sol\":25693:25727  round.roundStart = block.timestamp */\n      dup2\n      swap1\n      sstore\n      pop\n        /* \"Auction/auction1404.sol\":25773:25779  7 days */\n      0x093a80\n        /* \"Auction/auction1404.sol\":25754:25769  block.timestamp */\n      timestamp\n        /* \"Auction/auction1404.sol\":25754:25780  block.timestamp + (7 days) */\n      tag_290\n      swap2\n      swap1\n      tag_198\n      jump\t// in\n    tag_290:\n        /* \"Auction/auction1404.sol\":25737:25742  round */\n      dup2\n        /* \"Auction/auction1404.sol\":25737:25751  round.roundEnd */\n      0x01\n      add\n        /* \"Auction/auction1404.sol\":25737:25780  round.roundEnd = block.timestamp + (7 days) */\n      dup2\n      swap1\n      sstore\n      pop\n        /* \"Auction/auction1404.sol\":25796:25805  uint256 i */\n      0x00\n        /* \"Auction/auction1404.sol\":25808:25809  1 */\n      0x01\n        /* \"Auction/auction1404.sol\":25796:25809  uint256 i = 1 */\n      swap1\n      pop\n        /* \"Auction/auction1404.sol\":25791:25978  for (uint256 i = 1; i <= 7; i++) {... */\n    tag_291:\n        /* \"Auction/auction1404.sol\":25816:25817  7 */\n      0x07\n        /* \"Auction/auction1404.sol\":25811:25812  i */\n      dup2\n        /* \"Auction/auction1404.sol\":25811:25817  i <= 7 */\n      gt\n        /* \"Auction/auction1404.sol\":25791:25978  for (uint256 i = 1; i <= 7; i++) {... */\n      tag_292\n      jumpi\n        /* \"Auction/auction1404.sol\":25869:25889  2_000_000 * 10 ** 18 */\n      0x01a784379d99db42000000\n        /* \"Auction/auction1404.sol\":25838:25851  dailyAuctions */\n      0x0c\n        /* \"Auction/auction1404.sol\":25838:25854  dailyAuctions[i] */\n      0x00\n        /* \"Auction/auction1404.sol\":25852:25853  i */\n      dup4\n        /* \"Auction/auction1404.sol\":25838:25854  dailyAuctions[i] */\n      dup2\n      mstore\n      0x20\n      add\n      swap1\n      dup2\n      mstore\n      0x20\n      add\n      0x00\n      keccak256\n        /* \"Auction/auction1404.sol\":25838:25866  dailyAuctions[i].tokensDaily */\n      0x00\n      add\n        /* \"Auction/auction1404.sol\":25838:25889  dailyAuctions[i].tokensDaily = 2_000_000 * 10 ** 18 */\n      dup2\n      swap1\n      sstore\n      pop\n        /* \"Auction/auction1404.sol\":25944:25945  5 */\n      0x05\n        /* \"Auction/auction1404.sol\":25939:25940  i */\n      dup2\n        /* \"Auction/auction1404.sol\":25939:25945  i <= 5 */\n      gt\n      iszero\n        /* \"Auction/auction1404.sol\":25938:25967  (i <= 5) ? 3 : (i == 6)? 2: 1 */\n      tag_294\n      jumpi\n        /* \"Auction/auction1404.sol\":25959:25960  6 */\n      0x06\n        /* \"Auction/auction1404.sol\":25954:25955  i */\n      dup2\n        /* \"Auction/auction1404.sol\":25954:25960  i == 6 */\n      eq\n        /* \"Auction/auction1404.sol\":25953:25967  (i == 6)? 2: 1 */\n      tag_295\n      jumpi\n        /* \"Auction/auction1404.sol\":25966:25967  1 */\n      0x01\n        /* \"Auction/auction1404.sol\":25953:25967  (i == 6)? 2: 1 */\n      jump(tag_296)\n    tag_295:\n        /* \"Auction/auction1404.sol\":25963:25964  2 */\n      0x02\n        /* \"Auction/auction1404.sol\":25953:25967  (i == 6)? 2: 1 */\n    tag_296:\n        /* \"Auction/auction1404.sol\":25938:25967  (i <= 5) ? 3 : (i == 6)? 2: 1 */\n      jump(tag_297)\n    tag_294:\n        /* \"Auction/auction1404.sol\":25949:25950  3 */\n      0x03\n        /* \"Auction/auction1404.sol\":25938:25967  (i <= 5) ? 3 : (i == 6)? 2: 1 */\n    tag_297:\n        /* \"Auction/auction1404.sol\":25903:25967  dailyAuctions[i].bonusMultiplier = (i <= 5) ? 3 : (i == 6)? 2: 1 */\n      0xff\n      and\n        /* \"Auction/auction1404.sol\":25903:25916  dailyAuctions */\n      0x0c\n        /* \"Auction/auction1404.sol\":25903:25919  dailyAuctions[i] */\n      0x00\n        /* \"Auction/auction1404.sol\":25917:25918  i */\n      dup4\n        /* \"Auction/auction1404.sol\":25903:25919  dailyAuctions[i] */\n      dup2\n      mstore\n      0x20\n      add\n      swap1\n      dup2\n      mstore\n      0x20\n      add\n      0x00\n      keccak256\n        /* \"Auction/auction1404.sol\":25903:25935  dailyAuctions[i].bonusMultiplier */\n      0x03\n      add\n        /* \"Auction/auction1404.sol\":25903:25967  dailyAuctions[i].bonusMultiplier = (i <= 5) ? 3 : (i == 6)? 2: 1 */\n      dup2\n      swap1\n      sstore\n      pop\n        /* \"Auction/auction1404.sol\":25819:25822  i++ */\n      dup1\n      dup1\n      tag_298\n      swap1\n      tag_289\n      jump\t// in\n    tag_298:\n      swap2\n      pop\n      pop\n        /* \"Auction/auction1404.sol\":25791:25978  for (uint256 i = 1; i <= 7; i++) {... */\n      jump(tag_291)\n    tag_292:\n      pop\n        /* \"Auction/auction1404.sol\":25992:26057  StartAuction(currentRound , round.roundStart ,  round.roundEnd  ) */\n      0x683d0f47c7fa11331f4e9563b3f5a7fdc3d3c5b75c600357a91d991f5a13a437\n        /* \"Auction/auction1404.sol\":26005:26017  currentRound */\n      sload(0x08)\n        /* \"Auction/auction1404.sol\":26020:26025  round */\n      dup3\n        /* \"Auction/auction1404.sol\":26020:26036  round.roundStart */\n      0x00\n      add\n      sload\n        /* \"Auction/auction1404.sol\":26040:26045  round */\n      dup4\n        /* \"Auction/auction1404.sol\":26040:26054  round.roundEnd */\n      0x01\n      add\n      sload\n        /* \"Auction/auction1404.sol\":25992:26057  StartAuction(currentRound , round.roundStart ,  round.roundEnd  ) */\n      mload(0x40)\n      tag_299\n      swap4\n      swap3\n      swap2\n      swap1\n      tag_145\n      jump\t// in\n    tag_299:\n      mload(0x40)\n      dup1\n      swap2\n      sub\n      swap1\n      log1\n        /* \"Auction/auction1404.sol\":25490:26064  {... */\n      pop\n        /* \"Auction/auction1404.sol\":25447:26064  function startAuction() external onlyOwner {... */\n      jump\t// out\n        /* \"Auction/auction1404.sol\":2590:2691  function renounceOwnership() public virtual onlyOwner {... */\n    tag_98:\n        /* \"Auction/auction1404.sol\":1828:1841  _checkOwner() */\n      tag_301\n        /* \"Auction/auction1404.sol\":1828:1839  _checkOwner */\n      tag_235\n        /* \"Auction/auction1404.sol\":1828:1841  _checkOwner() */\n      jump\t// in\n    tag_301:\n        /* \"Auction/auction1404.sol\":2654:2684  _transferOwnership(address(0)) */\n      tag_303\n        /* \"Auction/auction1404.sol\":2681:2682  0 */\n      0x00\n        /* \"Auction/auction1404.sol\":2654:2672  _transferOwnership */\n      tag_304\n        /* \"Auction/auction1404.sol\":2654:2684  _transferOwnership(address(0)) */\n      jump\t// in\n    tag_303:\n        /* \"Auction/auction1404.sol\":2590:2691  function renounceOwnership() public virtual onlyOwner {... */\n      jump\t// out\n        /* \"Auction/auction1404.sol\":23419:23459  uint256 public tokenPrice = 1 * 10 ** 18 */\n    tag_100:\n      sload(0x03)\n      dup2\n      jump\t// out\n        /* \"Auction/auction1404.sol\":23782:23809  uint256 public currentRound */\n    tag_103:\n      sload(0x08)\n      dup2\n      jump\t// out\n        /* \"Auction/auction1404.sol\":24271:24310  mapping(uint256 => Round) public rounds */\n    tag_107:\n      mstore(0x20, 0x0b)\n      dup1\n      0x00\n      mstore\n      keccak256(0x00, 0x40)\n      0x00\n      swap2\n      pop\n      swap1\n      pop\n      dup1\n      0x00\n      add\n      sload\n      swap1\n      dup1\n      0x01\n      add\n      sload\n      swap1\n      pop\n      dup3\n      jump\t// out\n        /* \"Auction/auction1404.sol\":1935:2020  function owner() public view virtual returns (address) {... */\n    tag_110:\n        /* \"Auction/auction1404.sol\":1981:1988  address */\n      0x00\n        /* \"Auction/auction1404.sol\":2007:2013  _owner */\n      dup1\n      0x00\n      swap1\n      sload\n      swap1\n      0x0100\n      exp\n      swap1\n      div\n      0xffffffffffffffffffffffffffffffffffffffff\n      and\n        /* \"Auction/auction1404.sol\":2000:2013  return _owner */\n      swap1\n      pop\n        /* \"Auction/auction1404.sol\":1935:2020  function owner() public view virtual returns (address) {... */\n      swap1\n      jump\t// out\n        /* \"Auction/auction1404.sol\":26070:26169  function setPrice(uint256 _tokenPrice) external onlyOwner {... */\n    tag_114:\n        /* \"Auction/auction1404.sol\":1828:1841  _checkOwner() */\n      tag_307\n        /* \"Auction/auction1404.sol\":1828:1839  _checkOwner */\n      tag_235\n        /* \"Auction/auction1404.sol\":1828:1841  _checkOwner() */\n      jump\t// in\n    tag_307:\n        /* \"Auction/auction1404.sol\":26151:26162  _tokenPrice */\n      dup1\n        /* \"Auction/auction1404.sol\":26138:26148  tokenPrice */\n      0x03\n        /* \"Auction/auction1404.sol\":26138:26162  tokenPrice = _tokenPrice */\n      dup2\n      swap1\n      sstore\n      pop\n        /* \"Auction/auction1404.sol\":26070:26169  function setPrice(uint256 _tokenPrice) external onlyOwner {... */\n      pop\n      jump\t// out\n        /* \"Auction/auction1404.sol\":31012:31167  function calculateTokenAmount(... */\n    tag_117:\n        /* \"Auction/auction1404.sol\":31095:31102  uint256 */\n      0x00\n        /* \"Auction/auction1404.sol\":31150:31160  tokenPrice */\n      sload(0x03)\n        /* \"Auction/auction1404.sol\":31137:31145  10 ** 18 */\n      0x0de0b6b3a7640000\n        /* \"Auction/auction1404.sol\":31122:31133  _usdtAmount */\n      dup4\n        /* \"Auction/auction1404.sol\":31122:31146  _usdtAmount * (10 ** 18) */\n      tag_310\n      swap2\n      swap1\n      tag_185\n      jump\t// in\n    tag_310:\n        /* \"Auction/auction1404.sol\":31121:31160  (_usdtAmount * (10 ** 18)) / tokenPrice */\n      tag_311\n      swap2\n      swap1\n      tag_187\n      jump\t// in\n    tag_311:\n        /* \"Auction/auction1404.sol\":31114:31160  return (_usdtAmount * (10 ** 18)) / tokenPrice */\n      swap1\n      pop\n        /* \"Auction/auction1404.sol\":31012:31167  function calculateTokenAmount(... */\n      swap2\n      swap1\n      pop\n      jump\t// out\n        /* \"Auction/auction1404.sol\":23815:23845  bool    public isPaused = true */\n    tag_120:\n      0x09\n      0x00\n      swap1\n      sload\n      swap1\n      0x0100\n      exp\n      swap1\n      div\n      0xff\n      and\n      dup2\n      jump\t// out\n        /* \"Auction/auction1404.sol\":23548:23603  uint256 public maxOversubscription = 5000000 * 10 ** 18 */\n    tag_124:\n      sload(0x04)\n      dup2\n      jump\t// out\n        /* \"Auction/auction1404.sol\":23744:23775  uint256 public lockingDay = 180 */\n    tag_127:\n      sload(0x07)\n      dup2\n      jump\t// out\n        /* \"Auction/auction1404.sol\":23368:23386  IERC20 public USDT */\n    tag_130:\n      0x01\n      0x00\n      swap1\n      sload\n      swap1\n      0x0100\n      exp\n      swap1\n      div\n      0xffffffffffffffffffffffffffffffffffffffff\n      and\n      dup2\n      jump\t// out\n        /* \"Auction/auction1404.sol\":23392:23413  IProton public PROTON */\n    tag_133:\n      0x02\n      0x00\n      swap1\n      sload\n      swap1\n      0x0100\n      exp\n      swap1\n      div\n      0xffffffffffffffffffffffffffffffffffffffff\n      and\n      dup2\n      jump\t// out\n        /* \"Auction/auction1404.sol\":23714:23738  uint256 public totalSell */\n    tag_137:\n      sload(0x06)\n      dup2\n      jump\t// out\n        /* \"Auction/auction1404.sol\":2840:3055  function transferOwnership(address newOwner) public virtual onlyOwner {... */\n    tag_141:\n        /* \"Auction/auction1404.sol\":1828:1841  _checkOwner() */\n      tag_313\n        /* \"Auction/auction1404.sol\":1828:1839  _checkOwner */\n      tag_235\n        /* \"Auction/auction1404.sol\":1828:1841  _checkOwner() */\n      jump\t// in\n    tag_313:\n        /* \"Auction/auction1404.sol\":2944:2945  0 */\n      0x00\n        /* \"Auction/auction1404.sol\":2924:2946  newOwner == address(0) */\n      0xffffffffffffffffffffffffffffffffffffffff\n      and\n        /* \"Auction/auction1404.sol\":2924:2932  newOwner */\n      dup2\n        /* \"Auction/auction1404.sol\":2924:2946  newOwner == address(0) */\n      0xffffffffffffffffffffffffffffffffffffffff\n      and\n      sub\n        /* \"Auction/auction1404.sol\":2920:3011  if (newOwner == address(0)) {... */\n      tag_315\n      jumpi\n        /* \"Auction/auction1404.sol\":2997:2998  0 */\n      0x00\n        /* \"Auction/auction1404.sol\":2969:3000  OwnableInvalidOwner(address(0)) */\n      mload(0x40)\n      0x1e4fbdf700000000000000000000000000000000000000000000000000000000\n      dup2\n      mstore\n      0x04\n      add\n      tag_316\n      swap2\n      swap1\n      tag_64\n      jump\t// in\n    tag_316:\n      mload(0x40)\n      dup1\n      swap2\n      sub\n      swap1\n      revert\n        /* \"Auction/auction1404.sol\":2920:3011  if (newOwner == address(0)) {... */\n    tag_315:\n        /* \"Auction/auction1404.sol\":3020:3048  _transferOwnership(newOwner) */\n      tag_317\n        /* \"Auction/auction1404.sol\":3039:3047  newOwner */\n      dup2\n        /* \"Auction/auction1404.sol\":3020:3038  _transferOwnership */\n      tag_304\n        /* \"Auction/auction1404.sol\":3020:3048  _transferOwnership(newOwner) */\n      jump\t// in\n    tag_317:\n        /* \"Auction/auction1404.sol\":2840:3055  function transferOwnership(address newOwner) public virtual onlyOwner {... */\n      pop\n      jump\t// out\n        /* \"Auction/auction1404.sol\":26611:26856  function AuctionTime() external view returns (uint256 _currentRound,uint256 roundStart, uint256 roundEnd) {... */\n    tag_143:\n        /* \"Auction/auction1404.sol\":26657:26678  uint256 _currentRound */\n      0x00\n        /* \"Auction/auction1404.sol\":26679:26697  uint256 roundStart */\n      dup1\n        /* \"Auction/auction1404.sol\":26699:26715  uint256 roundEnd */\n      0x00\n        /* \"Auction/auction1404.sol\":26751:26763  currentRound */\n      sload(0x08)\n        /* \"Auction/auction1404.sol\":26735:26763  _currentRound = currentRound */\n      swap3\n      pop\n      dup3\n        /* \"Auction/auction1404.sol\":26777:26783  rounds */\n      0x0b\n        /* \"Auction/auction1404.sol\":26777:26797  rounds[currentRound] */\n      0x00\n        /* \"Auction/auction1404.sol\":26784:26796  currentRound */\n      sload(0x08)\n        /* \"Auction/auction1404.sol\":26777:26797  rounds[currentRound] */\n      dup2\n      mstore\n      0x20\n      add\n      swap1\n      dup2\n      mstore\n      0x20\n      add\n      0x00\n      keccak256\n        /* \"Auction/auction1404.sol\":26777:26808  rounds[currentRound].roundStart */\n      0x00\n      add\n      sload\n        /* \"Auction/auction1404.sol\":26765:26808  roundStart= rounds[currentRound].roundStart */\n      swap3\n      pop\n      dup3\n        /* \"Auction/auction1404.sol\":26819:26825  rounds */\n      0x0b\n        /* \"Auction/auction1404.sol\":26819:26839  rounds[currentRound] */\n      0x00\n        /* \"Auction/auction1404.sol\":26826:26838  currentRound */\n      sload(0x08)\n        /* \"Auction/auction1404.sol\":26819:26839  rounds[currentRound] */\n      dup2\n      mstore\n      0x20\n      add\n      swap1\n      dup2\n      mstore\n      0x20\n      add\n      0x00\n      keccak256\n        /* \"Auction/auction1404.sol\":26819:26848  rounds[currentRound].roundEnd */\n      0x01\n      add\n      sload\n        /* \"Auction/auction1404.sol\":26809:26848  roundEnd= rounds[currentRound].roundEnd */\n      swap3\n      pop\n        /* \"Auction/auction1404.sol\":26727:26849  return (_currentRound = currentRound ,roundStart= rounds[currentRound].roundStart,roundEnd= rounds[currentRound].roundEnd) */\n      swap3\n      pop\n      swap3\n      pop\n        /* \"Auction/auction1404.sol\":26611:26856  function AuctionTime() external view returns (uint256 _currentRound,uint256 roundStart, uint256 roundEnd) {... */\n      swap1\n      swap2\n      swap3\n      jump\t// out\n        /* \"Auction/auction1404.sol\":32156:32409  function isTokenValid(IERC20 contractAddress) internal view returns (bool) {... */\n    tag_180:\n        /* \"Auction/auction1404.sol\":32225:32229  bool */\n      0x00\n        /* \"Auction/auction1404.sol\":32246:32255  uint256 i */\n      dup1\n        /* \"Auction/auction1404.sol\":32258:32259  0 */\n      0x00\n        /* \"Auction/auction1404.sol\":32246:32259  uint256 i = 0 */\n      swap1\n      pop\n        /* \"Auction/auction1404.sol\":32241:32381  for (uint256 i = 0; i < token.length; i++) {... */\n    tag_320:\n        /* \"Auction/auction1404.sol\":32265:32270  token */\n      0x0a\n        /* \"Auction/auction1404.sol\":32265:32277  token.length */\n      dup1\n      sload\n      swap1\n      pop\n        /* \"Auction/auction1404.sol\":32261:32262  i */\n      dup2\n        /* \"Auction/auction1404.sol\":32261:32277  i < token.length */\n      lt\n        /* \"Auction/auction1404.sol\":32241:32381  for (uint256 i = 0; i < token.length; i++) {... */\n      iszero\n      tag_321\n      jumpi\n        /* \"Auction/auction1404.sol\":32314:32329  contractAddress */\n      dup3\n        /* \"Auction/auction1404.sol\":32302:32329  token[i] == contractAddress */\n      0xffffffffffffffffffffffffffffffffffffffff\n      and\n        /* \"Auction/auction1404.sol\":32302:32307  token */\n      0x0a\n        /* \"Auction/auction1404.sol\":32308:32309  i */\n      dup3\n        /* \"Auction/auction1404.sol\":32302:32310  token[i] */\n      dup2\n      sload\n      dup2\n      lt\n      tag_323\n      jumpi\n      tag_324\n      tag_325\n      jump\t// in\n    tag_324:\n    tag_323:\n      swap1\n      0x00\n      mstore\n      keccak256(0x00, 0x20)\n      add\n      0x00\n      swap1\n      sload\n      swap1\n      0x0100\n      exp\n      swap1\n      div\n      0xffffffffffffffffffffffffffffffffffffffff\n      and\n        /* \"Auction/auction1404.sol\":32302:32329  token[i] == contractAddress */\n      0xffffffffffffffffffffffffffffffffffffffff\n      and\n      sub\n        /* \"Auction/auction1404.sol\":32298:32371  if (token[i] == contractAddress) {... */\n      tag_327\n      jumpi\n        /* \"Auction/auction1404.sol\":32352:32356  true */\n      0x01\n        /* \"Auction/auction1404.sol\":32345:32356  return true */\n      swap2\n      pop\n      pop\n      jump(tag_319)\n        /* \"Auction/auction1404.sol\":32298:32371  if (token[i] == contractAddress) {... */\n    tag_327:\n        /* \"Auction/auction1404.sol\":32279:32282  i++ */\n      dup1\n      dup1\n      0x01\n      add\n      swap2\n      pop\n      pop\n        /* \"Auction/auction1404.sol\":32241:32381  for (uint256 i = 0; i < token.length; i++) {... */\n      jump(tag_320)\n    tag_321:\n      pop\n        /* \"Auction/auction1404.sol\":32397:32402  false */\n      0x00\n        /* \"Auction/auction1404.sol\":32390:32402  return false */\n      swap1\n      pop\n        /* \"Auction/auction1404.sol\":32156:32409  function isTokenValid(IERC20 contractAddress) internal view returns (bool) {... */\n    tag_319:\n      swap2\n      swap1\n      pop\n      jump\t// out\n        /* \"Auction/auction1404.sol\":2093:2255  function _checkOwner() internal view virtual {... */\n    tag_235:\n        /* \"Auction/auction1404.sol\":2163:2175  _msgSender() */\n      tag_329\n        /* \"Auction/auction1404.sol\":2163:2173  _msgSender */\n      tag_330\n        /* \"Auction/auction1404.sol\":2163:2175  _msgSender() */\n      jump\t// in\n    tag_329:\n        /* \"Auction/auction1404.sol\":2152:2175  owner() != _msgSender() */\n      0xffffffffffffffffffffffffffffffffffffffff\n      and\n        /* \"Auction/auction1404.sol\":2152:2159  owner() */\n      tag_331\n        /* \"Auction/auction1404.sol\":2152:2157  owner */\n      tag_110\n        /* \"Auction/auction1404.sol\":2152:2159  owner() */\n      jump\t// in\n    tag_331:\n        /* \"Auction/auction1404.sol\":2152:2175  owner() != _msgSender() */\n      0xffffffffffffffffffffffffffffffffffffffff\n      and\n      eq\n        /* \"Auction/auction1404.sol\":2148:2249  if (owner() != _msgSender()) {... */\n      tag_332\n      jumpi\n        /* \"Auction/auction1404.sol\":2225:2237  _msgSender() */\n      tag_333\n        /* \"Auction/auction1404.sol\":2225:2235  _msgSender */\n      tag_330\n        /* \"Auction/auction1404.sol\":2225:2237  _msgSender() */\n      jump\t// in\n    tag_333:\n        /* \"Auction/auction1404.sol\":2198:2238  OwnableUnauthorizedAccount(_msgSender()) */\n      mload(0x40)\n      0x118cdaa700000000000000000000000000000000000000000000000000000000\n      dup2\n      mstore\n      0x04\n      add\n      tag_334\n      swap2\n      swap1\n      tag_64\n      jump\t// in\n    tag_334:\n      mload(0x40)\n      dup1\n      swap2\n      sub\n      swap1\n      revert\n        /* \"Auction/auction1404.sol\":2148:2249  if (owner() != _msgSender()) {... */\n    tag_332:\n        /* \"Auction/auction1404.sol\":2093:2255  function _checkOwner() internal view virtual {... */\n      jump\t// out\n        /* \"Auction/auction1404.sol\":3209:3396  function _transferOwnership(address newOwner) internal virtual {... */\n    tag_304:\n        /* \"Auction/auction1404.sol\":3282:3298  address oldOwner */\n      0x00\n        /* \"Auction/auction1404.sol\":3301:3307  _owner */\n      dup1\n      0x00\n      swap1\n      sload\n      swap1\n      0x0100\n      exp\n      swap1\n      div\n      0xffffffffffffffffffffffffffffffffffffffff\n      and\n        /* \"Auction/auction1404.sol\":3282:3307  address oldOwner = _owner */\n      swap1\n      pop\n        /* \"Auction/auction1404.sol\":3326:3334  newOwner */\n      dup2\n        /* \"Auction/auction1404.sol\":3317:3323  _owner */\n      0x00\n      dup1\n        /* \"Auction/auction1404.sol\":3317:3334  _owner = newOwner */\n      0x0100\n      exp\n      dup2\n      sload\n      dup2\n      0xffffffffffffffffffffffffffffffffffffffff\n      mul\n      not\n      and\n      swap1\n      dup4\n      0xffffffffffffffffffffffffffffffffffffffff\n      and\n      mul\n      or\n      swap1\n      sstore\n      pop\n        /* \"Auction/auction1404.sol\":3380:3388  newOwner */\n      dup2\n        /* \"Auction/auction1404.sol\":3349:3389  OwnershipTransferred(oldOwner, newOwner) */\n      0xffffffffffffffffffffffffffffffffffffffff\n      and\n        /* \"Auction/auction1404.sol\":3370:3378  oldOwner */\n      dup2\n        /* \"Auction/auction1404.sol\":3349:3389  OwnershipTransferred(oldOwner, newOwner) */\n      0xffffffffffffffffffffffffffffffffffffffff\n      and\n      0x8be0079c531659141344cd1fd0a4f28419497f9722a3daafe3b4186f6b6457e0\n      mload(0x40)\n      mload(0x40)\n      dup1\n      swap2\n      sub\n      swap1\n      log3\n        /* \"Auction/auction1404.sol\":3272:3396  {... */\n      pop\n        /* \"Auction/auction1404.sol\":3209:3396  function _transferOwnership(address newOwner) internal virtual {... */\n      pop\n      jump\t// out\n        /* \"Auction/auction1404.sol\":630:726  function _msgSender() internal view virtual returns (address) {... */\n    tag_330:\n        /* \"Auction/auction1404.sol\":683:690  address */\n      0x00\n        /* \"Auction/auction1404.sol\":709:719  msg.sender */\n      caller\n        /* \"Auction/auction1404.sol\":702:719  return msg.sender */\n      swap1\n      pop\n        /* \"Auction/auction1404.sol\":630:726  function _msgSender() internal view virtual returns (address) {... */\n      swap1\n      jump\t// out\n        /* \"#utility.yul\":7:82   */\n    tag_337:\n        /* \"#utility.yul\":40:46   */\n      0x00\n        /* \"#utility.yul\":73:75   */\n      0x40\n        /* \"#utility.yul\":67:76   */\n      mload\n        /* \"#utility.yul\":57:76   */\n      swap1\n      pop\n        /* \"#utility.yul\":7:82   */\n      swap1\n      jump\t// out\n        /* \"#utility.yul\":88:205   */\n    tag_338:\n        /* \"#utility.yul\":197:198   */\n      0x00\n        /* \"#utility.yul\":194:195   */\n      dup1\n        /* \"#utility.yul\":187:199   */\n      revert\n        /* \"#utility.yul\":211:328   */\n    tag_339:\n        /* \"#utility.yul\":320:321   */\n      0x00\n        /* \"#utility.yul\":317:318   */\n      dup1\n        /* \"#utility.yul\":310:322   */\n      revert\n        /* \"#utility.yul\":334:411   */\n    tag_340:\n        /* \"#utility.yul\":371:378   */\n      0x00\n        /* \"#utility.yul\":400:405   */\n      dup2\n        /* \"#utility.yul\":389:405   */\n      swap1\n      pop\n        /* \"#utility.yul\":334:411   */\n      swap2\n      swap1\n      pop\n      jump\t// out\n        /* \"#utility.yul\":417:539   */\n    tag_341:\n        /* \"#utility.yul\":490:514   */\n      tag_412\n        /* \"#utility.yul\":508:513   */\n      dup2\n        /* \"#utility.yul\":490:514   */\n      tag_340\n      jump\t// in\n    tag_412:\n        /* \"#utility.yul\":483:488   */\n      dup2\n        /* \"#utility.yul\":480:515   */\n      eq\n        /* \"#utility.yul\":470:533   */\n      tag_413\n      jumpi\n        /* \"#utility.yul\":529:530   */\n      0x00\n        /* \"#utility.yul\":526:527   */\n      dup1\n        /* \"#utility.yul\":519:531   */\n      revert\n        /* \"#utility.yul\":470:533   */\n    tag_413:\n        /* \"#utility.yul\":417:539   */\n      pop\n      jump\t// out\n        /* \"#utility.yul\":545:684   */\n    tag_342:\n        /* \"#utility.yul\":591:596   */\n      0x00\n        /* \"#utility.yul\":629:635   */\n      dup2\n        /* \"#utility.yul\":616:636   */\n      calldataload\n        /* \"#utility.yul\":607:636   */\n      swap1\n      pop\n        /* \"#utility.yul\":645:678   */\n      tag_415\n        /* \"#utility.yul\":672:677   */\n      dup2\n        /* \"#utility.yul\":645:678   */\n      tag_341\n      jump\t// in\n    tag_415:\n        /* \"#utility.yul\":545:684   */\n      swap3\n      swap2\n      pop\n      pop\n      jump\t// out\n        /* \"#utility.yul\":690:1019   */\n    tag_41:\n        /* \"#utility.yul\":749:755   */\n      0x00\n        /* \"#utility.yul\":798:800   */\n      0x20\n        /* \"#utility.yul\":786:795   */\n      dup3\n        /* \"#utility.yul\":777:784   */\n      dup5\n        /* \"#utility.yul\":773:796   */\n      sub\n        /* \"#utility.yul\":769:801   */\n      slt\n        /* \"#utility.yul\":766:885   */\n      iszero\n      tag_417\n      jumpi\n        /* \"#utility.yul\":804:883   */\n      tag_418\n      tag_338\n      jump\t// in\n    tag_418:\n        /* \"#utility.yul\":766:885   */\n    tag_417:\n        /* \"#utility.yul\":924:925   */\n      0x00\n        /* \"#utility.yul\":949:1002   */\n      tag_419\n        /* \"#utility.yul\":994:1001   */\n      dup5\n        /* \"#utility.yul\":985:991   */\n      dup3\n        /* \"#utility.yul\":974:983   */\n      dup6\n        /* \"#utility.yul\":970:992   */\n      add\n        /* \"#utility.yul\":949:1002   */\n      tag_342\n      jump\t// in\n    tag_419:\n        /* \"#utility.yul\":939:1002   */\n      swap2\n      pop\n        /* \"#utility.yul\":895:1012   */\n      pop\n        /* \"#utility.yul\":690:1019   */\n      swap3\n      swap2\n      pop\n      pop\n      jump\t// out\n        /* \"#utility.yul\":1025:1151   */\n    tag_343:\n        /* \"#utility.yul\":1062:1069   */\n      0x00\n        /* \"#utility.yul\":1102:1144   */\n      0xffffffffffffffffffffffffffffffffffffffff\n        /* \"#utility.yul\":1095:1100   */\n      dup3\n        /* \"#utility.yul\":1091:1145   */\n      and\n        /* \"#utility.yul\":1080:1145   */\n      swap1\n      pop\n        /* \"#utility.yul\":1025:1151   */\n      swap2\n      swap1\n      pop\n      jump\t// out\n        /* \"#utility.yul\":1157:1217   */\n    tag_344:\n        /* \"#utility.yul\":1185:1188   */\n      0x00\n        /* \"#utility.yul\":1206:1211   */\n      dup2\n        /* \"#utility.yul\":1199:1211   */\n      swap1\n      pop\n        /* \"#utility.yul\":1157:1217   */\n      swap2\n      swap1\n      pop\n      jump\t// out\n        /* \"#utility.yul\":1223:1365   */\n    tag_345:\n        /* \"#utility.yul\":1273:1282   */\n      0x00\n        /* \"#utility.yul\":1306:1359   */\n      tag_423\n        /* \"#utility.yul\":1324:1358   */\n      tag_424\n        /* \"#utility.yul\":1333:1357   */\n      tag_425\n        /* \"#utility.yul\":1351:1356   */\n      dup5\n        /* \"#utility.yul\":1333:1357   */\n      tag_343\n      jump\t// in\n    tag_425:\n        /* \"#utility.yul\":1324:1358   */\n      tag_344\n      jump\t// in\n    tag_424:\n        /* \"#utility.yul\":1306:1359   */\n      tag_343\n      jump\t// in\n    tag_423:\n        /* \"#utility.yul\":1293:1359   */\n      swap1\n      pop\n        /* \"#utility.yul\":1223:1365   */\n      swap2\n      swap1\n      pop\n      jump\t// out\n        /* \"#utility.yul\":1371:1497   */\n    tag_346:\n        /* \"#utility.yul\":1421:1430   */\n      0x00\n        /* \"#utility.yul\":1454:1491   */\n      tag_427\n        /* \"#utility.yul\":1485:1490   */\n      dup3\n        /* \"#utility.yul\":1454:1491   */\n      tag_345\n      jump\t// in\n    tag_427:\n        /* \"#utility.yul\":1441:1491   */\n      swap1\n      pop\n        /* \"#utility.yul\":1371:1497   */\n      swap2\n      swap1\n      pop\n      jump\t// out\n        /* \"#utility.yul\":1503:1643   */\n    tag_347:\n        /* \"#utility.yul\":1567:1576   */\n      0x00\n        /* \"#utility.yul\":1600:1637   */\n      tag_429\n        /* \"#utility.yul\":1631:1636   */\n      dup3\n        /* \"#utility.yul\":1600:1637   */\n      tag_346\n      jump\t// in\n    tag_429:\n        /* \"#utility.yul\":1587:1637   */\n      swap1\n      pop\n        /* \"#utility.yul\":1503:1643   */\n      swap2\n      swap1\n      pop\n      jump\t// out\n        /* \"#utility.yul\":1649:1808   */\n    tag_348:\n        /* \"#utility.yul\":1750:1801   */\n      tag_431\n        /* \"#utility.yul\":1795:1800   */\n      dup2\n        /* \"#utility.yul\":1750:1801   */\n      tag_347\n      jump\t// in\n    tag_431:\n        /* \"#utility.yul\":1745:1748   */\n      dup3\n        /* \"#utility.yul\":1738:1802   */\n      mstore\n        /* \"#utility.yul\":1649:1808   */\n      pop\n      pop\n      jump\t// out\n        /* \"#utility.yul\":1814:2064   */\n    tag_44:\n        /* \"#utility.yul\":1921:1925   */\n      0x00\n        /* \"#utility.yul\":1959:1961   */\n      0x20\n        /* \"#utility.yul\":1948:1957   */\n      dup3\n        /* \"#utility.yul\":1944:1962   */\n      add\n        /* \"#utility.yul\":1936:1962   */\n      swap1\n      pop\n        /* \"#utility.yul\":1972:2057   */\n      tag_433\n        /* \"#utility.yul\":2054:2055   */\n      0x00\n        /* \"#utility.yul\":2043:2052   */\n      dup4\n        /* \"#utility.yul\":2039:2056   */\n      add\n        /* \"#utility.yul\":2030:2036   */\n      dup5\n        /* \"#utility.yul\":1972:2057   */\n      tag_348\n      jump\t// in\n    tag_433:\n        /* \"#utility.yul\":1814:2064   */\n      swap3\n      swap2\n      pop\n      pop\n      jump\t// out\n        /* \"#utility.yul\":2070:2166   */\n    tag_349:\n        /* \"#utility.yul\":2107:2114   */\n      0x00\n        /* \"#utility.yul\":2136:2160   */\n      tag_435\n        /* \"#utility.yul\":2154:2159   */\n      dup3\n        /* \"#utility.yul\":2136:2160   */\n      tag_343\n      jump\t// in\n    tag_435:\n        /* \"#utility.yul\":2125:2160   */\n      swap1\n      pop\n        /* \"#utility.yul\":2070:2166   */\n      swap2\n      swap1\n      pop\n      jump\t// out\n        /* \"#utility.yul\":2172:2282   */\n    tag_350:\n        /* \"#utility.yul\":2223:2230   */\n      0x00\n        /* \"#utility.yul\":2252:2276   */\n      tag_437\n        /* \"#utility.yul\":2270:2275   */\n      dup3\n        /* \"#utility.yul\":2252:2276   */\n      tag_349\n      jump\t// in\n    tag_437:\n        /* \"#utility.yul\":2241:2276   */\n      swap1\n      pop\n        /* \"#utility.yul\":2172:2282   */\n      swap2\n      swap1\n      pop\n      jump\t// out\n        /* \"#utility.yul\":2288:2438   */\n    tag_351:\n        /* \"#utility.yul\":2375:2413   */\n      tag_439\n        /* \"#utility.yul\":2407:2412   */\n      dup2\n        /* \"#utility.yul\":2375:2413   */\n      tag_350\n      jump\t// in\n    tag_439:\n        /* \"#utility.yul\":2368:2373   */\n      dup2\n        /* \"#utility.yul\":2365:2414   */\n      eq\n        /* \"#utility.yul\":2355:2432   */\n      tag_440\n      jumpi\n        /* \"#utility.yul\":2428:2429   */\n      0x00\n        /* \"#utility.yul\":2425:2426   */\n      dup1\n        /* \"#utility.yul\":2418:2430   */\n      revert\n        /* \"#utility.yul\":2355:2432   */\n    tag_440:\n        /* \"#utility.yul\":2288:2438   */\n      pop\n      jump\t// out\n        /* \"#utility.yul\":2444:2611   */\n    tag_352:\n        /* \"#utility.yul\":2504:2509   */\n      0x00\n        /* \"#utility.yul\":2542:2548   */\n      dup2\n        /* \"#utility.yul\":2529:2549   */\n      calldataload\n        /* \"#utility.yul\":2520:2549   */\n      swap1\n      pop\n        /* \"#utility.yul\":2558:2605   */\n      tag_442\n        /* \"#utility.yul\":2599:2604   */\n      dup2\n        /* \"#utility.yul\":2558:2605   */\n      tag_351\n      jump\t// in\n    tag_442:\n        /* \"#utility.yul\":2444:2611   */\n      swap3\n      swap2\n      pop\n      pop\n      jump\t// out\n        /* \"#utility.yul\":2617:3119   */\n    tag_47:\n        /* \"#utility.yul\":2699:2705   */\n      0x00\n        /* \"#utility.yul\":2707:2713   */\n      dup1\n        /* \"#utility.yul\":2756:2758   */\n      0x40\n        /* \"#utility.yul\":2744:2753   */\n      dup4\n        /* \"#utility.yul\":2735:2742   */\n      dup6\n        /* \"#utility.yul\":2731:2754   */\n      sub\n        /* \"#utility.yul\":2727:2759   */\n      slt\n        /* \"#utility.yul\":2724:2843   */\n      iszero\n      tag_444\n      jumpi\n        /* \"#utility.yul\":2762:2841   */\n      tag_445\n      tag_338\n      jump\t// in\n    tag_445:\n        /* \"#utility.yul\":2724:2843   */\n    tag_444:\n        /* \"#utility.yul\":2882:2883   */\n      0x00\n        /* \"#utility.yul\":2907:2974   */\n      tag_446\n        /* \"#utility.yul\":2966:2973   */\n      dup6\n        /* \"#utility.yul\":2957:2963   */\n      dup3\n        /* \"#utility.yul\":2946:2955   */\n      dup7\n        /* \"#utility.yul\":2942:2964   */\n      add\n        /* \"#utility.yul\":2907:2974   */\n      tag_352\n      jump\t// in\n    tag_446:\n        /* \"#utility.yul\":2897:2974   */\n      swap3\n      pop\n        /* \"#utility.yul\":2853:2984   */\n      pop\n        /* \"#utility.yul\":3023:3025   */\n      0x20\n        /* \"#utility.yul\":3049:3102   */\n      tag_447\n        /* \"#utility.yul\":3094:3101   */\n      dup6\n        /* \"#utility.yul\":3085:3091   */\n      dup3\n        /* \"#utility.yul\":3074:3083   */\n      dup7\n        /* \"#utility.yul\":3070:3092   */\n      add\n        /* \"#utility.yul\":3049:3102   */\n      tag_342\n      jump\t// in\n    tag_447:\n        /* \"#utility.yul\":3039:3102   */\n      swap2\n      pop\n        /* \"#utility.yul\":2994:3112   */\n      pop\n        /* \"#utility.yul\":2617:3119   */\n      swap3\n      pop\n      swap3\n      swap1\n      pop\n      jump\t// out\n        /* \"#utility.yul\":3125:3482   */\n    tag_51:\n        /* \"#utility.yul\":3198:3204   */\n      0x00\n        /* \"#utility.yul\":3247:3249   */\n      0x20\n        /* \"#utility.yul\":3235:3244   */\n      dup3\n        /* \"#utility.yul\":3226:3233   */\n      dup5\n        /* \"#utility.yul\":3222:3245   */\n      sub\n        /* \"#utility.yul\":3218:3250   */\n      slt\n        /* \"#utility.yul\":3215:3334   */\n      iszero\n      tag_449\n      jumpi\n        /* \"#utility.yul\":3253:3332   */\n      tag_450\n      tag_338\n      jump\t// in\n    tag_450:\n        /* \"#utility.yul\":3215:3334   */\n    tag_449:\n        /* \"#utility.yul\":3373:3374   */\n      0x00\n        /* \"#utility.yul\":3398:3465   */\n      tag_451\n        /* \"#utility.yul\":3457:3464   */\n      dup5\n        /* \"#utility.yul\":3448:3454   */\n      dup3\n        /* \"#utility.yul\":3437:3446   */\n      dup6\n        /* \"#utility.yul\":3433:3455   */\n      add\n        /* \"#utility.yul\":3398:3465   */\n      tag_352\n      jump\t// in\n    tag_451:\n        /* \"#utility.yul\":3388:3465   */\n      swap2\n      pop\n        /* \"#utility.yul\":3344:3475   */\n      pop\n        /* \"#utility.yul\":3125:3482   */\n      swap3\n      swap2\n      pop\n      pop\n      jump\t// out\n        /* \"#utility.yul\":3488:3610   */\n    tag_353:\n        /* \"#utility.yul\":3561:3585   */\n      tag_453\n        /* \"#utility.yul\":3579:3584   */\n      dup2\n        /* \"#utility.yul\":3561:3585   */\n      tag_349\n      jump\t// in\n    tag_453:\n        /* \"#utility.yul\":3554:3559   */\n      dup2\n        /* \"#utility.yul\":3551:3586   */\n      eq\n        /* \"#utility.yul\":3541:3604   */\n      tag_454\n      jumpi\n        /* \"#utility.yul\":3600:3601   */\n      0x00\n        /* \"#utility.yul\":3597:3598   */\n      dup1\n        /* \"#utility.yul\":3590:3602   */\n      revert\n        /* \"#utility.yul\":3541:3604   */\n    tag_454:\n        /* \"#utility.yul\":3488:3610   */\n      pop\n      jump\t// out\n        /* \"#utility.yul\":3616:3755   */\n    tag_354:\n        /* \"#utility.yul\":3662:3667   */\n      0x00\n        /* \"#utility.yul\":3700:3706   */\n      dup2\n        /* \"#utility.yul\":3687:3707   */\n      calldataload\n        /* \"#utility.yul\":3678:3707   */\n      swap1\n      pop\n        /* \"#utility.yul\":3716:3749   */\n      tag_456\n        /* \"#utility.yul\":3743:3748   */\n      dup2\n        /* \"#utility.yul\":3716:3749   */\n      tag_353\n      jump\t// in\n    tag_456:\n        /* \"#utility.yul\":3616:3755   */\n      swap3\n      swap2\n      pop\n      pop\n      jump\t// out\n        /* \"#utility.yul\":3761:4235   */\n    tag_55:\n        /* \"#utility.yul\":3829:3835   */\n      0x00\n        /* \"#utility.yul\":3837:3843   */\n      dup1\n        /* \"#utility.yul\":3886:3888   */\n      0x40\n        /* \"#utility.yul\":3874:3883   */\n      dup4\n        /* \"#utility.yul\":3865:3872   */\n      dup6\n        /* \"#utility.yul\":3861:3884   */\n      sub\n        /* \"#utility.yul\":3857:3889   */\n      slt\n        /* \"#utility.yul\":3854:3973   */\n      iszero\n      tag_458\n      jumpi\n        /* \"#utility.yul\":3892:3971   */\n      tag_459\n      tag_338\n      jump\t// in\n    tag_459:\n        /* \"#utility.yul\":3854:3973   */\n    tag_458:\n        /* \"#utility.yul\":4012:4013   */\n      0x00\n        /* \"#utility.yul\":4037:4090   */\n      tag_460\n        /* \"#utility.yul\":4082:4089   */\n      dup6\n        /* \"#utility.yul\":4073:4079   */\n      dup3\n        /* \"#utility.yul\":4062:4071   */\n      dup7\n        /* \"#utility.yul\":4058:4080   */\n      add\n        /* \"#utility.yul\":4037:4090   */\n      tag_354\n      jump\t// in\n    tag_460:\n        /* \"#utility.yul\":4027:4090   */\n      swap3\n      pop\n        /* \"#utility.yul\":3983:4100   */\n      pop\n        /* \"#utility.yul\":4139:4141   */\n      0x20\n        /* \"#utility.yul\":4165:4218   */\n      tag_461\n        /* \"#utility.yul\":4210:4217   */\n      dup6\n        /* \"#utility.yul\":4201:4207   */\n      dup3\n        /* \"#utility.yul\":4190:4199   */\n      dup7\n        /* \"#utility.yul\":4186:4208   */\n      add\n        /* \"#utility.yul\":4165:4218   */\n      tag_342\n      jump\t// in\n    tag_461:\n        /* \"#utility.yul\":4155:4218   */\n      swap2\n      pop\n        /* \"#utility.yul\":4110:4228   */\n      pop\n        /* \"#utility.yul\":3761:4235   */\n      swap3\n      pop\n      swap3\n      swap1\n      pop\n      jump\t// out\n        /* \"#utility.yul\":4241:4860   */\n    tag_59:\n        /* \"#utility.yul\":4318:4324   */\n      0x00\n        /* \"#utility.yul\":4326:4332   */\n      dup1\n        /* \"#utility.yul\":4334:4340   */\n      0x00\n        /* \"#utility.yul\":4383:4385   */\n      0x60\n        /* \"#utility.yul\":4371:4380   */\n      dup5\n        /* \"#utility.yul\":4362:4369   */\n      dup7\n        /* \"#utility.yul\":4358:4381   */\n      sub\n        /* \"#utility.yul\":4354:4386   */\n      slt\n        /* \"#utility.yul\":4351:4470   */\n      iszero\n      tag_463\n      jumpi\n        /* \"#utility.yul\":4389:4468   */\n      tag_464\n      tag_338\n      jump\t// in\n    tag_464:\n        /* \"#utility.yul\":4351:4470   */\n    tag_463:\n        /* \"#utility.yul\":4509:4510   */\n      0x00\n        /* \"#utility.yul\":4534:4587   */\n      tag_465\n        /* \"#utility.yul\":4579:4586   */\n      dup7\n        /* \"#utility.yul\":4570:4576   */\n      dup3\n        /* \"#utility.yul\":4559:4568   */\n      dup8\n        /* \"#utility.yul\":4555:4577   */\n      add\n        /* \"#utility.yul\":4534:4587   */\n      tag_342\n      jump\t// in\n    tag_465:\n        /* \"#utility.yul\":4524:4587   */\n      swap4\n      pop\n        /* \"#utility.yul\":4480:4597   */\n      pop\n        /* \"#utility.yul\":4636:4638   */\n      0x20\n        /* \"#utility.yul\":4662:4715   */\n      tag_466\n        /* \"#utility.yul\":4707:4714   */\n      dup7\n        /* \"#utility.yul\":4698:4704   */\n      dup3\n        /* \"#utility.yul\":4687:4696   */\n      dup8\n        /* \"#utility.yul\":4683:4705   */\n      add\n        /* \"#utility.yul\":4662:4715   */\n      tag_342\n      jump\t// in\n    tag_466:\n        /* \"#utility.yul\":4652:4715   */\n      swap3\n      pop\n        /* \"#utility.yul\":4607:4725   */\n      pop\n        /* \"#utility.yul\":4764:4766   */\n      0x40\n        /* \"#utility.yul\":4790:4843   */\n      tag_467\n        /* \"#utility.yul\":4835:4842   */\n      dup7\n        /* \"#utility.yul\":4826:4832   */\n      dup3\n        /* \"#utility.yul\":4815:4824   */\n      dup8\n        /* \"#utility.yul\":4811:4833   */\n      add\n        /* \"#utility.yul\":4790:4843   */\n      tag_342\n      jump\t// in\n    tag_467:\n        /* \"#utility.yul\":4780:4843   */\n      swap2\n      pop\n        /* \"#utility.yul\":4735:4853   */\n      pop\n        /* \"#utility.yul\":4241:4860   */\n      swap3\n      pop\n      swap3\n      pop\n      swap3\n      jump\t// out\n        /* \"#utility.yul\":4866:4984   */\n    tag_355:\n        /* \"#utility.yul\":4953:4977   */\n      tag_469\n        /* \"#utility.yul\":4971:4976   */\n      dup2\n        /* \"#utility.yul\":4953:4977   */\n      tag_349\n      jump\t// in\n    tag_469:\n        /* \"#utility.yul\":4948:4951   */\n      dup3\n        /* \"#utility.yul\":4941:4978   */\n      mstore\n        /* \"#utility.yul\":4866:4984   */\n      pop\n      pop\n      jump\t// out\n        /* \"#utility.yul\":4990:5212   */\n    tag_64:\n        /* \"#utility.yul\":5083:5087   */\n      0x00\n        /* \"#utility.yul\":5121:5123   */\n      0x20\n        /* \"#utility.yul\":5110:5119   */\n      dup3\n        /* \"#utility.yul\":5106:5124   */\n      add\n        /* \"#utility.yul\":5098:5124   */\n      swap1\n      pop\n        /* \"#utility.yul\":5134:5205   */\n      tag_471\n        /* \"#utility.yul\":5202:5203   */\n      0x00\n        /* \"#utility.yul\":5191:5200   */\n      dup4\n        /* \"#utility.yul\":5187:5204   */\n      add\n        /* \"#utility.yul\":5178:5184   */\n      dup5\n        /* \"#utility.yul\":5134:5205   */\n      tag_355\n      jump\t// in\n    tag_471:\n        /* \"#utility.yul\":4990:5212   */\n      swap3\n      swap2\n      pop\n      pop\n      jump\t// out\n        /* \"#utility.yul\":5218:5336   */\n    tag_356:\n        /* \"#utility.yul\":5305:5329   */\n      tag_473\n        /* \"#utility.yul\":5323:5328   */\n      dup2\n        /* \"#utility.yul\":5305:5329   */\n      tag_340\n      jump\t// in\n    tag_473:\n        /* \"#utility.yul\":5300:5303   */\n      dup3\n        /* \"#utility.yul\":5293:5330   */\n      mstore\n        /* \"#utility.yul\":5218:5336   */\n      pop\n      pop\n      jump\t// out\n        /* \"#utility.yul\":5342:5564   */\n    tag_68:\n        /* \"#utility.yul\":5435:5439   */\n      0x00\n        /* \"#utility.yul\":5473:5475   */\n      0x20\n        /* \"#utility.yul\":5462:5471   */\n      dup3\n        /* \"#utility.yul\":5458:5476   */\n      add\n        /* \"#utility.yul\":5450:5476   */\n      swap1\n      pop\n        /* \"#utility.yul\":5486:5557   */\n      tag_475\n        /* \"#utility.yul\":5554:5555   */\n      0x00\n        /* \"#utility.yul\":5543:5552   */\n      dup4\n        /* \"#utility.yul\":5539:5556   */\n      add\n        /* \"#utility.yul\":5530:5536   */\n      dup5\n        /* \"#utility.yul\":5486:5557   */\n      tag_356\n      jump\t// in\n    tag_475:\n        /* \"#utility.yul\":5342:5564   */\n      swap3\n      swap2\n      pop\n      pop\n      jump\t// out\n        /* \"#utility.yul\":5570:5660   */\n    tag_357:\n        /* \"#utility.yul\":5604:5611   */\n      0x00\n        /* \"#utility.yul\":5647:5652   */\n      dup2\n        /* \"#utility.yul\":5640:5653   */\n      iszero\n        /* \"#utility.yul\":5633:5654   */\n      iszero\n        /* \"#utility.yul\":5622:5654   */\n      swap1\n      pop\n        /* \"#utility.yul\":5570:5660   */\n      swap2\n      swap1\n      pop\n      jump\t// out\n        /* \"#utility.yul\":5666:5782   */\n    tag_358:\n        /* \"#utility.yul\":5736:5757   */\n      tag_478\n        /* \"#utility.yul\":5751:5756   */\n      dup2\n        /* \"#utility.yul\":5736:5757   */\n      tag_357\n      jump\t// in\n    tag_478:\n        /* \"#utility.yul\":5729:5734   */\n      dup2\n        /* \"#utility.yul\":5726:5758   */\n      eq\n        /* \"#utility.yul\":5716:5776   */\n      tag_479\n      jumpi\n        /* \"#utility.yul\":5772:5773   */\n      0x00\n        /* \"#utility.yul\":5769:5770   */\n      dup1\n        /* \"#utility.yul\":5762:5774   */\n      revert\n        /* \"#utility.yul\":5716:5776   */\n    tag_479:\n        /* \"#utility.yul\":5666:5782   */\n      pop\n      jump\t// out\n        /* \"#utility.yul\":5788:5921   */\n    tag_359:\n        /* \"#utility.yul\":5831:5836   */\n      0x00\n        /* \"#utility.yul\":5869:5875   */\n      dup2\n        /* \"#utility.yul\":5856:5876   */\n      calldataload\n        /* \"#utility.yul\":5847:5876   */\n      swap1\n      pop\n        /* \"#utility.yul\":5885:5915   */\n      tag_481\n        /* \"#utility.yul\":5909:5914   */\n      dup2\n        /* \"#utility.yul\":5885:5915   */\n      tag_358\n      jump\t// in\n    tag_481:\n        /* \"#utility.yul\":5788:5921   */\n      swap3\n      swap2\n      pop\n      pop\n      jump\t// out\n        /* \"#utility.yul\":5927:6250   */\n    tag_71:\n        /* \"#utility.yul\":5983:5989   */\n      0x00\n        /* \"#utility.yul\":6032:6034   */\n      0x20\n        /* \"#utility.yul\":6020:6029   */\n      dup3\n        /* \"#utility.yul\":6011:6018   */\n      dup5\n        /* \"#utility.yul\":6007:6030   */\n      sub\n        /* \"#utility.yul\":6003:6035   */\n      slt\n        /* \"#utility.yul\":6000:6119   */\n      iszero\n      tag_483\n      jumpi\n        /* \"#utility.yul\":6038:6117   */\n      tag_484\n      tag_338\n      jump\t// in\n    tag_484:\n        /* \"#utility.yul\":6000:6119   */\n    tag_483:\n        /* \"#utility.yul\":6158:6159   */\n      0x00\n        /* \"#utility.yul\":6183:6233   */\n      tag_485\n        /* \"#utility.yul\":6225:6232   */\n      dup5\n        /* \"#utility.yul\":6216:6222   */\n      dup3\n        /* \"#utility.yul\":6205:6214   */\n      dup6\n        /* \"#utility.yul\":6201:6223   */\n      add\n        /* \"#utility.yul\":6183:6233   */\n      tag_359\n      jump\t// in\n    tag_485:\n        /* \"#utility.yul\":6173:6233   */\n      swap2\n      pop\n        /* \"#utility.yul\":6129:6243   */\n      pop\n        /* \"#utility.yul\":5927:6250   */\n      swap3\n      swap2\n      pop\n      pop\n      jump\t// out\n        /* \"#utility.yul\":6256:6809   */\n    tag_77:\n        /* \"#utility.yul\":6433:6437   */\n      0x00\n        /* \"#utility.yul\":6471:6474   */\n      0x80\n        /* \"#utility.yul\":6460:6469   */\n      dup3\n        /* \"#utility.yul\":6456:6475   */\n      add\n        /* \"#utility.yul\":6448:6475   */\n      swap1\n      pop\n        /* \"#utility.yul\":6485:6556   */\n      tag_487\n        /* \"#utility.yul\":6553:6554   */\n      0x00\n        /* \"#utility.yul\":6542:6551   */\n      dup4\n        /* \"#utility.yul\":6538:6555   */\n      add\n        /* \"#utility.yul\":6529:6535   */\n      dup8\n        /* \"#utility.yul\":6485:6556   */\n      tag_356\n      jump\t// in\n    tag_487:\n        /* \"#utility.yul\":6566:6638   */\n      tag_488\n        /* \"#utility.yul\":6634:6636   */\n      0x20\n        /* \"#utility.yul\":6623:6632   */\n      dup4\n        /* \"#utility.yul\":6619:6637   */\n      add\n        /* \"#utility.yul\":6610:6616   */\n      dup7\n        /* \"#utility.yul\":6566:6638   */\n      tag_356\n      jump\t// in\n    tag_488:\n        /* \"#utility.yul\":6648:6720   */\n      tag_489\n        /* \"#utility.yul\":6716:6718   */\n      0x40\n        /* \"#utility.yul\":6705:6714   */\n      dup4\n        /* \"#utility.yul\":6701:6719   */\n      add\n        /* \"#utility.yul\":6692:6698   */\n      dup6\n        /* \"#utility.yul\":6648:6720   */\n      tag_356\n      jump\t// in\n    tag_489:\n        /* \"#utility.yul\":6730:6802   */\n      tag_490\n        /* \"#utility.yul\":6798:6800   */\n      0x60\n        /* \"#utility.yul\":6787:6796   */\n      dup4\n        /* \"#utility.yul\":6783:6801   */\n      add\n        /* \"#utility.yul\":6774:6780   */\n      dup5\n        /* \"#utility.yul\":6730:6802   */\n      tag_356\n      jump\t// in\n    tag_490:\n        /* \"#utility.yul\":6256:6809   */\n      swap6\n      swap5\n      pop\n      pop\n      pop\n      pop\n      pop\n      jump\t// out\n        /* \"#utility.yul\":6815:7289   */\n    tag_83:\n        /* \"#utility.yul\":6883:6889   */\n      0x00\n        /* \"#utility.yul\":6891:6897   */\n      dup1\n        /* \"#utility.yul\":6940:6942   */\n      0x40\n        /* \"#utility.yul\":6928:6937   */\n      dup4\n        /* \"#utility.yul\":6919:6926   */\n      dup6\n        /* \"#utility.yul\":6915:6938   */\n      sub\n        /* \"#utility.yul\":6911:6943   */\n      slt\n        /* \"#utility.yul\":6908:7027   */\n      iszero\n      tag_492\n      jumpi\n        /* \"#utility.yul\":6946:7025   */\n      tag_493\n      tag_338\n      jump\t// in\n    tag_493:\n        /* \"#utility.yul\":6908:7027   */\n    tag_492:\n        /* \"#utility.yul\":7066:7067   */\n      0x00\n        /* \"#utility.yul\":7091:7144   */\n      tag_494\n        /* \"#utility.yul\":7136:7143   */\n      dup6\n        /* \"#utility.yul\":7127:7133   */\n      dup3\n        /* \"#utility.yul\":7116:7125   */\n      dup7\n        /* \"#utility.yul\":7112:7134   */\n      add\n        /* \"#utility.yul\":7091:7144   */\n      tag_342\n      jump\t// in\n    tag_494:\n        /* \"#utility.yul\":7081:7144   */\n      swap3\n      pop\n        /* \"#utility.yul\":7037:7154   */\n      pop\n        /* \"#utility.yul\":7193:7195   */\n      0x20\n        /* \"#utility.yul\":7219:7272   */\n      tag_495\n        /* \"#utility.yul\":7264:7271   */\n      dup6\n        /* \"#utility.yul\":7255:7261   */\n      dup3\n        /* \"#utility.yul\":7244:7253   */\n      dup7\n        /* \"#utility.yul\":7240:7262   */\n      add\n        /* \"#utility.yul\":7219:7272   */\n      tag_342\n      jump\t// in\n    tag_495:\n        /* \"#utility.yul\":7209:7272   */\n      swap2\n      pop\n        /* \"#utility.yul\":7164:7282   */\n      pop\n        /* \"#utility.yul\":6815:7289   */\n      swap3\n      pop\n      swap3\n      swap1\n      pop\n      jump\t// out\n        /* \"#utility.yul\":7295:7624   */\n    tag_88:\n        /* \"#utility.yul\":7354:7360   */\n      0x00\n        /* \"#utility.yul\":7403:7405   */\n      0x20\n        /* \"#utility.yul\":7391:7400   */\n      dup3\n        /* \"#utility.yul\":7382:7389   */\n      dup5\n        /* \"#utility.yul\":7378:7401   */\n      sub\n        /* \"#utility.yul\":7374:7406   */\n      slt\n        /* \"#utility.yul\":7371:7490   */\n      iszero\n      tag_497\n      jumpi\n        /* \"#utility.yul\":7409:7488   */\n      tag_498\n      tag_338\n      jump\t// in\n    tag_498:\n        /* \"#utility.yul\":7371:7490   */\n    tag_497:\n        /* \"#utility.yul\":7529:7530   */\n      0x00\n        /* \"#utility.yul\":7554:7607   */\n      tag_499\n        /* \"#utility.yul\":7599:7606   */\n      dup5\n        /* \"#utility.yul\":7590:7596   */\n      dup3\n        /* \"#utility.yul\":7579:7588   */\n      dup6\n        /* \"#utility.yul\":7575:7597   */\n      add\n        /* \"#utility.yul\":7554:7607   */\n      tag_354\n      jump\t// in\n    tag_499:\n        /* \"#utility.yul\":7544:7607   */\n      swap2\n      pop\n        /* \"#utility.yul\":7500:7617   */\n      pop\n        /* \"#utility.yul\":7295:7624   */\n      swap3\n      swap2\n      pop\n      pop\n      jump\t// out\n        /* \"#utility.yul\":7630:7962   */\n    tag_91:\n        /* \"#utility.yul\":7751:7755   */\n      0x00\n        /* \"#utility.yul\":7789:7791   */\n      0x40\n        /* \"#utility.yul\":7778:7787   */\n      dup3\n        /* \"#utility.yul\":7774:7792   */\n      add\n        /* \"#utility.yul\":7766:7792   */\n      swap1\n      pop\n        /* \"#utility.yul\":7802:7873   */\n      tag_501\n        /* \"#utility.yul\":7870:7871   */\n      0x00\n        /* \"#utility.yul\":7859:7868   */\n      dup4\n        /* \"#utility.yul\":7855:7872   */\n      add\n        /* \"#utility.yul\":7846:7852   */\n      dup6\n        /* \"#utility.yul\":7802:7873   */\n      tag_356\n      jump\t// in\n    tag_501:\n        /* \"#utility.yul\":7883:7955   */\n      tag_502\n        /* \"#utility.yul\":7951:7953   */\n      0x20\n        /* \"#utility.yul\":7940:7949   */\n      dup4\n        /* \"#utility.yul\":7936:7954   */\n      add\n        /* \"#utility.yul\":7927:7933   */\n      dup5\n        /* \"#utility.yul\":7883:7955   */\n      tag_356\n      jump\t// in\n    tag_502:\n        /* \"#utility.yul\":7630:7962   */\n      swap4\n      swap3\n      pop\n      pop\n      pop\n      jump\t// out\n        /* \"#utility.yul\":7968:8077   */\n    tag_360:\n        /* \"#utility.yul\":8049:8070   */\n      tag_504\n        /* \"#utility.yul\":8064:8069   */\n      dup2\n        /* \"#utility.yul\":8049:8070   */\n      tag_357\n      jump\t// in\n    tag_504:\n        /* \"#utility.yul\":8044:8047   */\n      dup3\n        /* \"#utility.yul\":8037:8071   */\n      mstore\n        /* \"#utility.yul\":7968:8077   */\n      pop\n      pop\n      jump\t// out\n        /* \"#utility.yul\":8083:8293   */\n    tag_122:\n        /* \"#utility.yul\":8170:8174   */\n      0x00\n        /* \"#utility.yul\":8208:8210   */\n      0x20\n        /* \"#utility.yul\":8197:8206   */\n      dup3\n        /* \"#utility.yul\":8193:8211   */\n      add\n        /* \"#utility.yul\":8185:8211   */\n      swap1\n      pop\n        /* \"#utility.yul\":8221:8286   */\n      tag_506\n        /* \"#utility.yul\":8283:8284   */\n      0x00\n        /* \"#utility.yul\":8272:8281   */\n      dup4\n        /* \"#utility.yul\":8268:8285   */\n      add\n        /* \"#utility.yul\":8259:8265   */\n      dup5\n        /* \"#utility.yul\":8221:8286   */\n      tag_360\n      jump\t// in\n    tag_506:\n        /* \"#utility.yul\":8083:8293   */\n      swap3\n      swap2\n      pop\n      pop\n      jump\t// out\n        /* \"#utility.yul\":8299:8440   */\n    tag_361:\n        /* \"#utility.yul\":8364:8373   */\n      0x00\n        /* \"#utility.yul\":8397:8434   */\n      tag_508\n        /* \"#utility.yul\":8428:8433   */\n      dup3\n        /* \"#utility.yul\":8397:8434   */\n      tag_346\n      jump\t// in\n    tag_508:\n        /* \"#utility.yul\":8384:8434   */\n      swap1\n      pop\n        /* \"#utility.yul\":8299:8440   */\n      swap2\n      swap1\n      pop\n      jump\t// out\n        /* \"#utility.yul\":8446:8607   */\n    tag_362:\n        /* \"#utility.yul\":8548:8600   */\n      tag_510\n        /* \"#utility.yul\":8594:8599   */\n      dup2\n        /* \"#utility.yul\":8548:8600   */\n      tag_361\n      jump\t// in\n    tag_510:\n        /* \"#utility.yul\":8543:8546   */\n      dup3\n        /* \"#utility.yul\":8536:8601   */\n      mstore\n        /* \"#utility.yul\":8446:8607   */\n      pop\n      pop\n      jump\t// out\n        /* \"#utility.yul\":8613:8865   */\n    tag_135:\n        /* \"#utility.yul\":8721:8725   */\n      0x00\n        /* \"#utility.yul\":8759:8761   */\n      0x20\n        /* \"#utility.yul\":8748:8757   */\n      dup3\n        /* \"#utility.yul\":8744:8762   */\n      add\n        /* \"#utility.yul\":8736:8762   */\n      swap1\n      pop\n        /* \"#utility.yul\":8772:8858   */\n      tag_512\n        /* \"#utility.yul\":8855:8856   */\n      0x00\n        /* \"#utility.yul\":8844:8853   */\n      dup4\n        /* \"#utility.yul\":8840:8857   */\n      add\n        /* \"#utility.yul\":8831:8837   */\n      dup5\n        /* \"#utility.yul\":8772:8858   */\n      tag_362\n      jump\t// in\n    tag_512:\n        /* \"#utility.yul\":8613:8865   */\n      swap3\n      swap2\n      pop\n      pop\n      jump\t// out\n        /* \"#utility.yul\":8871:9313   */\n    tag_145:\n        /* \"#utility.yul\":9020:9024   */\n      0x00\n        /* \"#utility.yul\":9058:9060   */\n      0x60\n        /* \"#utility.yul\":9047:9056   */\n      dup3\n        /* \"#utility.yul\":9043:9061   */\n      add\n        /* \"#utility.yul\":9035:9061   */\n      swap1\n      pop\n        /* \"#utility.yul\":9071:9142   */\n      tag_514\n        /* \"#utility.yul\":9139:9140   */\n      0x00\n        /* \"#utility.yul\":9128:9137   */\n      dup4\n        /* \"#utility.yul\":9124:9141   */\n      add\n        /* \"#utility.yul\":9115:9121   */\n      dup7\n        /* \"#utility.yul\":9071:9142   */\n      tag_356\n      jump\t// in\n    tag_514:\n        /* \"#utility.yul\":9152:9224   */\n      tag_515\n        /* \"#utility.yul\":9220:9222   */\n      0x20\n        /* \"#utility.yul\":9209:9218   */\n      dup4\n        /* \"#utility.yul\":9205:9223   */\n      add\n        /* \"#utility.yul\":9196:9202   */\n      dup6\n        /* \"#utility.yul\":9152:9224   */\n      tag_356\n      jump\t// in\n    tag_515:\n        /* \"#utility.yul\":9234:9306   */\n      tag_516\n        /* \"#utility.yul\":9302:9304   */\n      0x40\n        /* \"#utility.yul\":9291:9300   */\n      dup4\n        /* \"#utility.yul\":9287:9305   */\n      add\n        /* \"#utility.yul\":9278:9284   */\n      dup5\n        /* \"#utility.yul\":9234:9306   */\n      tag_356\n      jump\t// in\n    tag_516:\n        /* \"#utility.yul\":8871:9313   */\n      swap5\n      swap4\n      pop\n      pop\n      pop\n      pop\n      jump\t// out\n        /* \"#utility.yul\":9319:9488   */\n    tag_363:\n        /* \"#utility.yul\":9403:9414   */\n      0x00\n        /* \"#utility.yul\":9437:9443   */\n      dup3\n        /* \"#utility.yul\":9432:9435   */\n      dup3\n        /* \"#utility.yul\":9425:9444   */\n      mstore\n        /* \"#utility.yul\":9477:9481   */\n      0x20\n        /* \"#utility.yul\":9472:9475   */\n      dup3\n        /* \"#utility.yul\":9468:9482   */\n      add\n        /* \"#utility.yul\":9453:9482   */\n      swap1\n      pop\n        /* \"#utility.yul\":9319:9488   */\n      swap3\n      swap2\n      pop\n      pop\n      jump\t// out\n        /* \"#utility.yul\":9494:9661   */\n    tag_364:\n        /* \"#utility.yul\":9634:9653   */\n      0x41756374696f6e20697320706175736564000000000000000000000000000000\n        /* \"#utility.yul\":9630:9631   */\n      0x00\n        /* \"#utility.yul\":9622:9628   */\n      dup3\n        /* \"#utility.yul\":9618:9632   */\n      add\n        /* \"#utility.yul\":9611:9654   */\n      mstore\n        /* \"#utility.yul\":9494:9661   */\n      pop\n      jump\t// out\n        /* \"#utility.yul\":9667:10033   */\n    tag_365:\n        /* \"#utility.yul\":9809:9812   */\n      0x00\n        /* \"#utility.yul\":9830:9897   */\n      tag_520\n        /* \"#utility.yul\":9894:9896   */\n      0x11\n        /* \"#utility.yul\":9889:9892   */\n      dup4\n        /* \"#utility.yul\":9830:9897   */\n      tag_363\n      jump\t// in\n    tag_520:\n        /* \"#utility.yul\":9823:9897   */\n      swap2\n      pop\n        /* \"#utility.yul\":9906:9999   */\n      tag_521\n        /* \"#utility.yul\":9995:9998   */\n      dup3\n        /* \"#utility.yul\":9906:9999   */\n      tag_364\n      jump\t// in\n    tag_521:\n        /* \"#utility.yul\":10024:10026   */\n      0x20\n        /* \"#utility.yul\":10019:10022   */\n      dup3\n        /* \"#utility.yul\":10015:10027   */\n      add\n        /* \"#utility.yul\":10008:10027   */\n      swap1\n      pop\n        /* \"#utility.yul\":9667:10033   */\n      swap2\n      swap1\n      pop\n      jump\t// out\n        /* \"#utility.yul\":10039:10458   */\n    tag_151:\n        /* \"#utility.yul\":10205:10209   */\n      0x00\n        /* \"#utility.yul\":10243:10245   */\n      0x20\n        /* \"#utility.yul\":10232:10241   */\n      dup3\n        /* \"#utility.yul\":10228:10246   */\n      add\n        /* \"#utility.yul\":10220:10246   */\n      swap1\n      pop\n        /* \"#utility.yul\":10292:10301   */\n      dup2\n        /* \"#utility.yul\":10286:10290   */\n      dup2\n        /* \"#utility.yul\":10282:10302   */\n      sub\n        /* \"#utility.yul\":10278:10279   */\n      0x00\n        /* \"#utility.yul\":10267:10276   */\n      dup4\n        /* \"#utility.yul\":10263:10280   */\n      add\n        /* \"#utility.yul\":10256:10303   */\n      mstore\n        /* \"#utility.yul\":10320:10451   */\n      tag_523\n        /* \"#utility.yul\":10446:10450   */\n      dup2\n        /* \"#utility.yul\":10320:10451   */\n      tag_365\n      jump\t// in\n    tag_523:\n        /* \"#utility.yul\":10312:10451   */\n      swap1\n      pop\n        /* \"#utility.yul\":10039:10458   */\n      swap2\n      swap1\n      pop\n      jump\t// out\n        /* \"#utility.yul\":10464:10637   */\n    tag_366:\n        /* \"#utility.yul\":10604:10629   */\n      0x43757272656e7420726f756e642068617320656e646564000000000000000000\n        /* \"#utility.yul\":10600:10601   */\n      0x00\n        /* \"#utility.yul\":10592:10598   */\n      dup3\n        /* \"#utility.yul\":10588:10602   */\n      add\n        /* \"#utility.yul\":10581:10630   */\n      mstore\n        /* \"#utility.yul\":10464:10637   */\n      pop\n      jump\t// out\n        /* \"#utility.yul\":10643:11009   */\n    tag_367:\n        /* \"#utility.yul\":10785:10788   */\n      0x00\n        /* \"#utility.yul\":10806:10873   */\n      tag_526\n        /* \"#utility.yul\":10870:10872   */\n      0x17\n        /* \"#utility.yul\":10865:10868   */\n      dup4\n        /* \"#utility.yul\":10806:10873   */\n      tag_363\n      jump\t// in\n    tag_526:\n        /* \"#utility.yul\":10799:10873   */\n      swap2\n      pop\n        /* \"#utility.yul\":10882:10975   */\n      tag_527\n        /* \"#utility.yul\":10971:10974   */\n      dup3\n        /* \"#utility.yul\":10882:10975   */\n      tag_366\n      jump\t// in\n    tag_527:\n        /* \"#utility.yul\":11000:11002   */\n      0x20\n        /* \"#utility.yul\":10995:10998   */\n      dup3\n        /* \"#utility.yul\":10991:11003   */\n      add\n        /* \"#utility.yul\":10984:11003   */\n      swap1\n      pop\n        /* \"#utility.yul\":10643:11009   */\n      swap2\n      swap1\n      pop\n      jump\t// out\n        /* \"#utility.yul\":11015:11434   */\n    tag_154:\n        /* \"#utility.yul\":11181:11185   */\n      0x00\n        /* \"#utility.yul\":11219:11221   */\n      0x20\n        /* \"#utility.yul\":11208:11217   */\n      dup3\n        /* \"#utility.yul\":11204:11222   */\n      add\n        /* \"#utility.yul\":11196:11222   */\n      swap1\n      pop\n        /* \"#utility.yul\":11268:11277   */\n      dup2\n        /* \"#utility.yul\":11262:11266   */\n      dup2\n        /* \"#utility.yul\":11258:11278   */\n      sub\n        /* \"#utility.yul\":11254:11255   */\n      0x00\n        /* \"#utility.yul\":11243:11252   */\n      dup4\n        /* \"#utility.yul\":11239:11256   */\n      add\n        /* \"#utility.yul\":11232:11279   */\n      mstore\n        /* \"#utility.yul\":11296:11427   */\n      tag_529\n        /* \"#utility.yul\":11422:11426   */\n      dup2\n        /* \"#utility.yul\":11296:11427   */\n      tag_367\n      jump\t// in\n    tag_529:\n        /* \"#utility.yul\":11288:11427   */\n      swap1\n      pop\n        /* \"#utility.yul\":11015:11434   */\n      swap2\n      swap1\n      pop\n      jump\t// out\n        /* \"#utility.yul\":11440:11615   */\n    tag_368:\n        /* \"#utility.yul\":11580:11607   */\n      0x41756374696f6e20646179732061726520636f6d706c65746500000000000000\n        /* \"#utility.yul\":11576:11577   */\n      0x00\n        /* \"#utility.yul\":11568:11574   */\n      dup3\n        /* \"#utility.yul\":11564:11578   */\n      add\n        /* \"#utility.yul\":11557:11608   */\n      mstore\n        /* \"#utility.yul\":11440:11615   */\n      pop\n      jump\t// out\n        /* \"#utility.yul\":11621:11987   */\n    tag_369:\n        /* \"#utility.yul\":11763:11766   */\n      0x00\n        /* \"#utility.yul\":11784:11851   */\n      tag_532\n        /* \"#utility.yul\":11848:11850   */\n      0x19\n        /* \"#utility.yul\":11843:11846   */\n      dup4\n        /* \"#utility.yul\":11784:11851   */\n      tag_363\n      jump\t// in\n    tag_532:\n        /* \"#utility.yul\":11777:11851   */\n      swap2\n      pop\n        /* \"#utility.yul\":11860:11953   */\n      tag_533\n        /* \"#utility.yul\":11949:11952   */\n      dup3\n        /* \"#utility.yul\":11860:11953   */\n      tag_368\n      jump\t// in\n    tag_533:\n        /* \"#utility.yul\":11978:11980   */\n      0x20\n        /* \"#utility.yul\":11973:11976   */\n      dup3\n        /* \"#utility.yul\":11969:11981   */\n      add\n        /* \"#utility.yul\":11962:11981   */\n      swap1\n      pop\n        /* \"#utility.yul\":11621:11987   */\n      swap2\n      swap1\n      pop\n      jump\t// out\n        /* \"#utility.yul\":11993:12412   */\n    tag_159:\n        /* \"#utility.yul\":12159:12163   */\n      0x00\n        /* \"#utility.yul\":12197:12199   */\n      0x20\n        /* \"#utility.yul\":12186:12195   */\n      dup3\n        /* \"#utility.yul\":12182:12200   */\n      add\n        /* \"#utility.yul\":12174:12200   */\n      swap1\n      pop\n        /* \"#utility.yul\":12246:12255   */\n      dup2\n        /* \"#utility.yul\":12240:12244   */\n      dup2\n        /* \"#utility.yul\":12236:12256   */\n      sub\n        /* \"#utility.yul\":12232:12233   */\n      0x00\n        /* \"#utility.yul\":12221:12230   */\n      dup4\n        /* \"#utility.yul\":12217:12234   */\n      add\n        /* \"#utility.yul\":12210:12257   */\n      mstore\n        /* \"#utility.yul\":12274:12405   */\n      tag_535\n        /* \"#utility.yul\":12400:12404   */\n      dup2\n        /* \"#utility.yul\":12274:12405   */\n      tag_369\n      jump\t// in\n    tag_535:\n        /* \"#utility.yul\":12266:12405   */\n      swap1\n      pop\n        /* \"#utility.yul\":11993:12412   */\n      swap2\n      swap1\n      pop\n      jump\t// out\n        /* \"#utility.yul\":12418:12591   */\n    tag_370:\n        /* \"#utility.yul\":12558:12583   */\n      0x41756374696f6e20726f756e642068617320656e646564000000000000000000\n        /* \"#utility.yul\":12554:12555   */\n      0x00\n        /* \"#utility.yul\":12546:12552   */\n      dup3\n        /* \"#utility.yul\":12542:12556   */\n      add\n        /* \"#utility.yul\":12535:12584   */\n      mstore\n        /* \"#utility.yul\":12418:12591   */\n      pop\n      jump\t// out\n        /* \"#utility.yul\":12597:12963   */\n    tag_371:\n        /* \"#utility.yul\":12739:12742   */\n      0x00\n        /* \"#utility.yul\":12760:12827   */\n      tag_538\n        /* \"#utility.yul\":12824:12826   */\n      0x17\n        /* \"#utility.yul\":12819:12822   */\n      dup4\n        /* \"#utility.yul\":12760:12827   */\n      tag_363\n      jump\t// in\n    tag_538:\n        /* \"#utility.yul\":12753:12827   */\n      swap2\n      pop\n        /* \"#utility.yul\":12836:12929   */\n      tag_539\n        /* \"#utility.yul\":12925:12928   */\n      dup3\n        /* \"#utility.yul\":12836:12929   */\n      tag_370\n      jump\t// in\n    tag_539:\n        /* \"#utility.yul\":12954:12956   */\n      0x20\n        /* \"#utility.yul\":12949:12952   */\n      dup3\n        /* \"#utility.yul\":12945:12957   */\n      add\n        /* \"#utility.yul\":12938:12957   */\n      swap1\n      pop\n        /* \"#utility.yul\":12597:12963   */\n      swap2\n      swap1\n      pop\n      jump\t// out\n        /* \"#utility.yul\":12969:13388   */\n    tag_163:\n        /* \"#utility.yul\":13135:13139   */\n      0x00\n        /* \"#utility.yul\":13173:13175   */\n      0x20\n        /* \"#utility.yul\":13162:13171   */\n      dup3\n        /* \"#utility.yul\":13158:13176   */\n      add\n        /* \"#utility.yul\":13150:13176   */\n      swap1\n      pop\n        /* \"#utility.yul\":13222:13231   */\n      dup2\n        /* \"#utility.yul\":13216:13220   */\n      dup2\n        /* \"#utility.yul\":13212:13232   */\n      sub\n        /* \"#utility.yul\":13208:13209   */\n      0x00\n        /* \"#utility.yul\":13197:13206   */\n      dup4\n        /* \"#utility.yul\":13193:13210   */\n      add\n        /* \"#utility.yul\":13186:13233   */\n      mstore\n        /* \"#utility.yul\":13250:13381   */\n      tag_541\n        /* \"#utility.yul\":13376:13380   */\n      dup2\n        /* \"#utility.yul\":13250:13381   */\n      tag_371\n      jump\t// in\n    tag_541:\n        /* \"#utility.yul\":13242:13381   */\n      swap1\n      pop\n        /* \"#utility.yul\":12969:13388   */\n      swap2\n      swap1\n      pop\n      jump\t// out\n        /* \"#utility.yul\":13394:13537   */\n    tag_372:\n        /* \"#utility.yul\":13451:13456   */\n      0x00\n        /* \"#utility.yul\":13482:13488   */\n      dup2\n        /* \"#utility.yul\":13476:13489   */\n      mload\n        /* \"#utility.yul\":13467:13489   */\n      swap1\n      pop\n        /* \"#utility.yul\":13498:13531   */\n      tag_543\n        /* \"#utility.yul\":13525:13530   */\n      dup2\n        /* \"#utility.yul\":13498:13531   */\n      tag_341\n      jump\t// in\n    tag_543:\n        /* \"#utility.yul\":13394:13537   */\n      swap3\n      swap2\n      pop\n      pop\n      jump\t// out\n        /* \"#utility.yul\":13543:13894   */\n    tag_170:\n        /* \"#utility.yul\":13613:13619   */\n      0x00\n        /* \"#utility.yul\":13662:13664   */\n      0x20\n        /* \"#utility.yul\":13650:13659   */\n      dup3\n        /* \"#utility.yul\":13641:13648   */\n      dup5\n        /* \"#utility.yul\":13637:13660   */\n      sub\n        /* \"#utility.yul\":13633:13665   */\n      slt\n        /* \"#utility.yul\":13630:13749   */\n      iszero\n      tag_545\n      jumpi\n        /* \"#utility.yul\":13668:13747   */\n      tag_546\n      tag_338\n      jump\t// in\n    tag_546:\n        /* \"#utility.yul\":13630:13749   */\n    tag_545:\n        /* \"#utility.yul\":13788:13789   */\n      0x00\n        /* \"#utility.yul\":13813:13877   */\n      tag_547\n        /* \"#utility.yul\":13869:13876   */\n      dup5\n        /* \"#utility.yul\":13860:13866   */\n      dup3\n        /* \"#utility.yul\":13849:13858   */\n      dup6\n        /* \"#utility.yul\":13845:13867   */\n      add\n        /* \"#utility.yul\":13813:13877   */\n      tag_372\n      jump\t// in\n    tag_547:\n        /* \"#utility.yul\":13803:13877   */\n      swap2\n      pop\n        /* \"#utility.yul\":13759:13887   */\n      pop\n        /* \"#utility.yul\":13543:13894   */\n      swap3\n      swap2\n      pop\n      pop\n      jump\t// out\n        /* \"#utility.yul\":13900:14064   */\n    tag_373:\n        /* \"#utility.yul\":14040:14056   */\n      0x41756374696f6e20506175736564000000000000000000000000000000000000\n        /* \"#utility.yul\":14036:14037   */\n      0x00\n        /* \"#utility.yul\":14028:14034   */\n      dup3\n        /* \"#utility.yul\":14024:14038   */\n      add\n        /* \"#utility.yul\":14017:14057   */\n      mstore\n        /* \"#utility.yul\":13900:14064   */\n      pop\n      jump\t// out\n        /* \"#utility.yul\":14070:14436   */\n    tag_374:\n        /* \"#utility.yul\":14212:14215   */\n      0x00\n        /* \"#utility.yul\":14233:14300   */\n      tag_550\n        /* \"#utility.yul\":14297:14299   */\n      0x0e\n        /* \"#utility.yul\":14292:14295   */\n      dup4\n        /* \"#utility.yul\":14233:14300   */\n      tag_363\n      jump\t// in\n    tag_550:\n        /* \"#utility.yul\":14226:14300   */\n      swap2\n      pop\n        /* \"#utility.yul\":14309:14402   */\n      tag_551\n        /* \"#utility.yul\":14398:14401   */\n      dup3\n        /* \"#utility.yul\":14309:14402   */\n      tag_373\n      jump\t// in\n    tag_551:\n        /* \"#utility.yul\":14427:14429   */\n      0x20\n        /* \"#utility.yul\":14422:14425   */\n      dup3\n        /* \"#utility.yul\":14418:14430   */\n      add\n        /* \"#utility.yul\":14411:14430   */\n      swap1\n      pop\n        /* \"#utility.yul\":14070:14436   */\n      swap2\n      swap1\n      pop\n      jump\t// out\n        /* \"#utility.yul\":14442:14861   */\n    tag_173:\n        /* \"#utility.yul\":14608:14612   */\n      0x00\n        /* \"#utility.yul\":14646:14648   */\n      0x20\n        /* \"#utility.yul\":14635:14644   */\n      dup3\n        /* \"#utility.yul\":14631:14649   */\n      add\n        /* \"#utility.yul\":14623:14649   */\n      swap1\n      pop\n        /* \"#utility.yul\":14695:14704   */\n      dup2\n        /* \"#utility.yul\":14689:14693   */\n      dup2\n        /* \"#utility.yul\":14685:14705   */\n      sub\n        /* \"#utility.yul\":14681:14682   */\n      0x00\n        /* \"#utility.yul\":14670:14679   */\n      dup4\n        /* \"#utility.yul\":14666:14683   */\n      add\n        /* \"#utility.yul\":14659:14706   */\n      mstore\n        /* \"#utility.yul\":14723:14854   */\n      tag_553\n        /* \"#utility.yul\":14849:14853   */\n      dup2\n        /* \"#utility.yul\":14723:14854   */\n      tag_374\n      jump\t// in\n    tag_553:\n        /* \"#utility.yul\":14715:14854   */\n      swap1\n      pop\n        /* \"#utility.yul\":14442:14861   */\n      swap2\n      swap1\n      pop\n      jump\t// out\n        /* \"#utility.yul\":14867:15036   */\n    tag_375:\n        /* \"#utility.yul\":15007:15028   */\n      0x4e6f74206d6f7265207468616e206c696d697400000000000000000000000000\n        /* \"#utility.yul\":15003:15004   */\n      0x00\n        /* \"#utility.yul\":14995:15001   */\n      dup3\n        /* \"#utility.yul\":14991:15005   */\n      add\n        /* \"#utility.yul\":14984:15029   */\n      mstore\n        /* \"#utility.yul\":14867:15036   */\n      pop\n      jump\t// out\n        /* \"#utility.yul\":15042:15408   */\n    tag_376:\n        /* \"#utility.yul\":15184:15187   */\n      0x00\n        /* \"#utility.yul\":15205:15272   */\n      tag_556\n        /* \"#utility.yul\":15269:15271   */\n      0x13\n        /* \"#utility.yul\":15264:15267   */\n      dup4\n        /* \"#utility.yul\":15205:15272   */\n      tag_363\n      jump\t// in\n    tag_556:\n        /* \"#utility.yul\":15198:15272   */\n      swap2\n      pop\n        /* \"#utility.yul\":15281:15374   */\n      tag_557\n        /* \"#utility.yul\":15370:15373   */\n      dup3\n        /* \"#utility.yul\":15281:15374   */\n      tag_375\n      jump\t// in\n    tag_557:\n        /* \"#utility.yul\":15399:15401   */\n      0x20\n        /* \"#utility.yul\":15394:15397   */\n      dup3\n        /* \"#utility.yul\":15390:15402   */\n      add\n        /* \"#utility.yul\":15383:15402   */\n      swap1\n      pop\n        /* \"#utility.yul\":15042:15408   */\n      swap2\n      swap1\n      pop\n      jump\t// out\n        /* \"#utility.yul\":15414:15833   */\n    tag_176:\n        /* \"#utility.yul\":15580:15584   */\n      0x00\n        /* \"#utility.yul\":15618:15620   */\n      0x20\n        /* \"#utility.yul\":15607:15616   */\n      dup3\n        /* \"#utility.yul\":15603:15621   */\n      add\n        /* \"#utility.yul\":15595:15621   */\n      swap1\n      pop\n        /* \"#utility.yul\":15667:15676   */\n      dup2\n        /* \"#utility.yul\":15661:15665   */\n      dup2\n        /* \"#utility.yul\":15657:15677   */\n      sub\n        /* \"#utility.yul\":15653:15654   */\n      0x00\n        /* \"#utility.yul\":15642:15651   */\n      dup4\n        /* \"#utility.yul\":15638:15655   */\n      add\n        /* \"#utility.yul\":15631:15678   */\n      mstore\n        /* \"#utility.yul\":15695:15826   */\n      tag_559\n        /* \"#utility.yul\":15821:15825   */\n      dup2\n        /* \"#utility.yul\":15695:15826   */\n      tag_376\n      jump\t// in\n    tag_559:\n        /* \"#utility.yul\":15687:15826   */\n      swap1\n      pop\n        /* \"#utility.yul\":15414:15833   */\n      swap2\n      swap1\n      pop\n      jump\t// out\n        /* \"#utility.yul\":15839:16010   */\n    tag_377:\n        /* \"#utility.yul\":15979:16002   */\n      0x496e76616c696420746f6b656e20616464726573730000000000000000000000\n        /* \"#utility.yul\":15975:15976   */\n      0x00\n        /* \"#utility.yul\":15967:15973   */\n      dup3\n        /* \"#utility.yul\":15963:15977   */\n      add\n        /* \"#utility.yul\":15956:16003   */\n      mstore\n        /* \"#utility.yul\":15839:16010   */\n      pop\n      jump\t// out\n        /* \"#utility.yul\":16016:16382   */\n    tag_378:\n        /* \"#utility.yul\":16158:16161   */\n      0x00\n        /* \"#utility.yul\":16179:16246   */\n      tag_562\n        /* \"#utility.yul\":16243:16245   */\n      0x15\n        /* \"#utility.yul\":16238:16241   */\n      dup4\n        /* \"#utility.yul\":16179:16246   */\n      tag_363\n      jump\t// in\n    tag_562:\n        /* \"#utility.yul\":16172:16246   */\n      swap2\n      pop\n        /* \"#utility.yul\":16255:16348   */\n      tag_563\n        /* \"#utility.yul\":16344:16347   */\n      dup3\n        /* \"#utility.yul\":16255:16348   */\n      tag_377\n      jump\t// in\n    tag_563:\n        /* \"#utility.yul\":16373:16375   */\n      0x20\n        /* \"#utility.yul\":16368:16371   */\n      dup3\n        /* \"#utility.yul\":16364:16376   */\n      add\n        /* \"#utility.yul\":16357:16376   */\n      swap1\n      pop\n        /* \"#utility.yul\":16016:16382   */\n      swap2\n      swap1\n      pop\n      jump\t// out\n        /* \"#utility.yul\":16388:16807   */\n    tag_183:\n        /* \"#utility.yul\":16554:16558   */\n      0x00\n        /* \"#utility.yul\":16592:16594   */\n      0x20\n        /* \"#utility.yul\":16581:16590   */\n      dup3\n        /* \"#utility.yul\":16577:16595   */\n      add\n        /* \"#utility.yul\":16569:16595   */\n      swap1\n      pop\n        /* \"#utility.yul\":16641:16650   */\n      dup2\n        /* \"#utility.yul\":16635:16639   */\n      dup2\n        /* \"#utility.yul\":16631:16651   */\n      sub\n        /* \"#utility.yul\":16627:16628   */\n      0x00\n        /* \"#utility.yul\":16616:16625   */\n      dup4\n        /* \"#utility.yul\":16612:16629   */\n      add\n        /* \"#utility.yul\":16605:16652   */\n      mstore\n        /* \"#utility.yul\":16669:16800   */\n      tag_565\n        /* \"#utility.yul\":16795:16799   */\n      dup2\n        /* \"#utility.yul\":16669:16800   */\n      tag_378\n      jump\t// in\n    tag_565:\n        /* \"#utility.yul\":16661:16800   */\n      swap1\n      pop\n        /* \"#utility.yul\":16388:16807   */\n      swap2\n      swap1\n      pop\n      jump\t// out\n        /* \"#utility.yul\":16813:16993   */\n    tag_379:\n        /* \"#utility.yul\":16861:16938   */\n      0x4e487b7100000000000000000000000000000000000000000000000000000000\n        /* \"#utility.yul\":16858:16859   */\n      0x00\n        /* \"#utility.yul\":16851:16939   */\n      mstore\n        /* \"#utility.yul\":16958:16962   */\n      0x11\n        /* \"#utility.yul\":16955:16956   */\n      0x04\n        /* \"#utility.yul\":16948:16963   */\n      mstore\n        /* \"#utility.yul\":16982:16986   */\n      0x24\n        /* \"#utility.yul\":16979:16980   */\n      0x00\n        /* \"#utility.yul\":16972:16987   */\n      revert\n        /* \"#utility.yul\":16999:17409   */\n    tag_185:\n        /* \"#utility.yul\":17039:17046   */\n      0x00\n        /* \"#utility.yul\":17062:17082   */\n      tag_568\n        /* \"#utility.yul\":17080:17081   */\n      dup3\n        /* \"#utility.yul\":17062:17082   */\n      tag_340\n      jump\t// in\n    tag_568:\n        /* \"#utility.yul\":17057:17082   */\n      swap2\n      pop\n        /* \"#utility.yul\":17096:17116   */\n      tag_569\n        /* \"#utility.yul\":17114:17115   */\n      dup4\n        /* \"#utility.yul\":17096:17116   */\n      tag_340\n      jump\t// in\n    tag_569:\n        /* \"#utility.yul\":17091:17116   */\n      swap3\n      pop\n        /* \"#utility.yul\":17151:17152   */\n      dup3\n        /* \"#utility.yul\":17148:17149   */\n      dup3\n        /* \"#utility.yul\":17144:17153   */\n      mul\n        /* \"#utility.yul\":17173:17203   */\n      tag_570\n        /* \"#utility.yul\":17191:17202   */\n      dup2\n        /* \"#utility.yul\":17173:17203   */\n      tag_340\n      jump\t// in\n    tag_570:\n        /* \"#utility.yul\":17162:17203   */\n      swap2\n      pop\n        /* \"#utility.yul\":17352:17353   */\n      dup3\n        /* \"#utility.yul\":17343:17350   */\n      dup3\n        /* \"#utility.yul\":17339:17354   */\n      div\n        /* \"#utility.yul\":17336:17337   */\n      dup5\n        /* \"#utility.yul\":17333:17355   */\n      eq\n        /* \"#utility.yul\":17313:17314   */\n      dup4\n        /* \"#utility.yul\":17306:17315   */\n      iszero\n        /* \"#utility.yul\":17286:17369   */\n      or\n        /* \"#utility.yul\":17263:17402   */\n      tag_571\n      jumpi\n        /* \"#utility.yul\":17382:17400   */\n      tag_572\n      tag_379\n      jump\t// in\n    tag_572:\n        /* \"#utility.yul\":17263:17402   */\n    tag_571:\n        /* \"#utility.yul\":17047:17409   */\n      pop\n        /* \"#utility.yul\":16999:17409   */\n      swap3\n      swap2\n      pop\n      pop\n      jump\t// out\n        /* \"#utility.yul\":17415:17595   */\n    tag_380:\n        /* \"#utility.yul\":17463:17540   */\n      0x4e487b7100000000000000000000000000000000000000000000000000000000\n        /* \"#utility.yul\":17460:17461   */\n      0x00\n        /* \"#utility.yul\":17453:17541   */\n      mstore\n        /* \"#utility.yul\":17560:17564   */\n      0x12\n        /* \"#utility.yul\":17557:17558   */\n      0x04\n        /* \"#utility.yul\":17550:17565   */\n      mstore\n        /* \"#utility.yul\":17584:17588   */\n      0x24\n        /* \"#utility.yul\":17581:17582   */\n      0x00\n        /* \"#utility.yul\":17574:17589   */\n      revert\n        /* \"#utility.yul\":17601:17786   */\n    tag_187:\n        /* \"#utility.yul\":17641:17642   */\n      0x00\n        /* \"#utility.yul\":17658:17678   */\n      tag_575\n        /* \"#utility.yul\":17676:17677   */\n      dup3\n        /* \"#utility.yul\":17658:17678   */\n      tag_340\n      jump\t// in\n    tag_575:\n        /* \"#utility.yul\":17653:17678   */\n      swap2\n      pop\n        /* \"#utility.yul\":17692:17712   */\n      tag_576\n        /* \"#utility.yul\":17710:17711   */\n      dup4\n        /* \"#utility.yul\":17692:17712   */\n      tag_340\n      jump\t// in\n    tag_576:\n        /* \"#utility.yul\":17687:17712   */\n      swap3\n      pop\n        /* \"#utility.yul\":17731:17732   */\n      dup3\n        /* \"#utility.yul\":17721:17756   */\n      tag_577\n      jumpi\n        /* \"#utility.yul\":17736:17754   */\n      tag_578\n      tag_380\n      jump\t// in\n    tag_578:\n        /* \"#utility.yul\":17721:17756   */\n    tag_577:\n        /* \"#utility.yul\":17778:17779   */\n      dup3\n        /* \"#utility.yul\":17775:17776   */\n      dup3\n        /* \"#utility.yul\":17771:17780   */\n      div\n        /* \"#utility.yul\":17766:17780   */\n      swap1\n      pop\n        /* \"#utility.yul\":17601:17786   */\n      swap3\n      swap2\n      pop\n      pop\n      jump\t// out\n        /* \"#utility.yul\":17792:18234   */\n    tag_189:\n        /* \"#utility.yul\":17941:17945   */\n      0x00\n        /* \"#utility.yul\":17979:17981   */\n      0x60\n        /* \"#utility.yul\":17968:17977   */\n      dup3\n        /* \"#utility.yul\":17964:17982   */\n      add\n        /* \"#utility.yul\":17956:17982   */\n      swap1\n      pop\n        /* \"#utility.yul\":17992:18063   */\n      tag_580\n        /* \"#utility.yul\":18060:18061   */\n      0x00\n        /* \"#utility.yul\":18049:18058   */\n      dup4\n        /* \"#utility.yul\":18045:18062   */\n      add\n        /* \"#utility.yul\":18036:18042   */\n      dup7\n        /* \"#utility.yul\":17992:18063   */\n      tag_355\n      jump\t// in\n    tag_580:\n        /* \"#utility.yul\":18073:18145   */\n      tag_581\n        /* \"#utility.yul\":18141:18143   */\n      0x20\n        /* \"#utility.yul\":18130:18139   */\n      dup4\n        /* \"#utility.yul\":18126:18144   */\n      add\n        /* \"#utility.yul\":18117:18123   */\n      dup6\n        /* \"#utility.yul\":18073:18145   */\n      tag_355\n      jump\t// in\n    tag_581:\n        /* \"#utility.yul\":18155:18227   */\n      tag_582\n        /* \"#utility.yul\":18223:18225   */\n      0x40\n        /* \"#utility.yul\":18212:18221   */\n      dup4\n        /* \"#utility.yul\":18208:18226   */\n      add\n        /* \"#utility.yul\":18199:18205   */\n      dup5\n        /* \"#utility.yul\":18155:18227   */\n      tag_356\n      jump\t// in\n    tag_582:\n        /* \"#utility.yul\":17792:18234   */\n      swap5\n      swap4\n      pop\n      pop\n      pop\n      pop\n      jump\t// out\n        /* \"#utility.yul\":18240:18377   */\n    tag_381:\n        /* \"#utility.yul\":18294:18299   */\n      0x00\n        /* \"#utility.yul\":18325:18331   */\n      dup2\n        /* \"#utility.yul\":18319:18332   */\n      mload\n        /* \"#utility.yul\":18310:18332   */\n      swap1\n      pop\n        /* \"#utility.yul\":18341:18371   */\n      tag_584\n        /* \"#utility.yul\":18365:18370   */\n      dup2\n        /* \"#utility.yul\":18341:18371   */\n      tag_358\n      jump\t// in\n    tag_584:\n        /* \"#utility.yul\":18240:18377   */\n      swap3\n      swap2\n      pop\n      pop\n      jump\t// out\n        /* \"#utility.yul\":18383:18728   */\n    tag_193:\n        /* \"#utility.yul\":18450:18456   */\n      0x00\n        /* \"#utility.yul\":18499:18501   */\n      0x20\n        /* \"#utility.yul\":18487:18496   */\n      dup3\n        /* \"#utility.yul\":18478:18485   */\n      dup5\n        /* \"#utility.yul\":18474:18497   */\n      sub\n        /* \"#utility.yul\":18470:18502   */\n      slt\n        /* \"#utility.yul\":18467:18586   */\n      iszero\n      tag_586\n      jumpi\n        /* \"#utility.yul\":18505:18584   */\n      tag_587\n      tag_338\n      jump\t// in\n    tag_587:\n        /* \"#utility.yul\":18467:18586   */\n    tag_586:\n        /* \"#utility.yul\":18625:18626   */\n      0x00\n        /* \"#utility.yul\":18650:18711   */\n      tag_588\n        /* \"#utility.yul\":18703:18710   */\n      dup5\n        /* \"#utility.yul\":18694:18700   */\n      dup3\n        /* \"#utility.yul\":18683:18692   */\n      dup6\n        /* \"#utility.yul\":18679:18701   */\n      add\n        /* \"#utility.yul\":18650:18711   */\n      tag_381\n      jump\t// in\n    tag_588:\n        /* \"#utility.yul\":18640:18711   */\n      swap2\n      pop\n        /* \"#utility.yul\":18596:18721   */\n      pop\n        /* \"#utility.yul\":18383:18728   */\n      swap3\n      swap2\n      pop\n      pop\n      jump\t// out\n        /* \"#utility.yul\":18734:18904   */\n    tag_382:\n        /* \"#utility.yul\":18874:18896   */\n      0x55534454207472616e73666572206661696c6564000000000000000000000000\n        /* \"#utility.yul\":18870:18871   */\n      0x00\n        /* \"#utility.yul\":18862:18868   */\n      dup3\n        /* \"#utility.yul\":18858:18872   */\n      add\n        /* \"#utility.yul\":18851:18897   */\n      mstore\n        /* \"#utility.yul\":18734:18904   */\n      pop\n      jump\t// out\n        /* \"#utility.yul\":18910:19276   */\n    tag_383:\n        /* \"#utility.yul\":19052:19055   */\n      0x00\n        /* \"#utility.yul\":19073:19140   */\n      tag_591\n        /* \"#utility.yul\":19137:19139   */\n      0x14\n        /* \"#utility.yul\":19132:19135   */\n      dup4\n        /* \"#utility.yul\":19073:19140   */\n      tag_363\n      jump\t// in\n    tag_591:\n        /* \"#utility.yul\":19066:19140   */\n      swap2\n      pop\n        /* \"#utility.yul\":19149:19242   */\n      tag_592\n        /* \"#utility.yul\":19238:19241   */\n      dup3\n        /* \"#utility.yul\":19149:19242   */\n      tag_382\n      jump\t// in\n    tag_592:\n        /* \"#utility.yul\":19267:19269   */\n      0x20\n        /* \"#utility.yul\":19262:19265   */\n      dup3\n        /* \"#utility.yul\":19258:19270   */\n      add\n        /* \"#utility.yul\":19251:19270   */\n      swap1\n      pop\n        /* \"#utility.yul\":18910:19276   */\n      swap2\n      swap1\n      pop\n      jump\t// out\n        /* \"#utility.yul\":19282:19701   */\n    tag_196:\n        /* \"#utility.yul\":19448:19452   */\n      0x00\n        /* \"#utility.yul\":19486:19488   */\n      0x20\n        /* \"#utility.yul\":19475:19484   */\n      dup3\n        /* \"#utility.yul\":19471:19489   */\n      add\n        /* \"#utility.yul\":19463:19489   */\n      swap1\n      pop\n        /* \"#utility.yul\":19535:19544   */\n      dup2\n        /* \"#utility.yul\":19529:19533   */\n      dup2\n        /* \"#utility.yul\":19525:19545   */\n      sub\n        /* \"#utility.yul\":19521:19522   */\n      0x00\n        /* \"#utility.yul\":19510:19519   */\n      dup4\n        /* \"#utility.yul\":19506:19523   */\n      add\n        /* \"#utility.yul\":19499:19546   */\n      mstore\n        /* \"#utility.yul\":19563:19694   */\n      tag_594\n        /* \"#utility.yul\":19689:19693   */\n      dup2\n        /* \"#utility.yul\":19563:19694   */\n      tag_383\n      jump\t// in\n    tag_594:\n        /* \"#utility.yul\":19555:19694   */\n      swap1\n      pop\n        /* \"#utility.yul\":19282:19701   */\n      swap2\n      swap1\n      pop\n      jump\t// out\n        /* \"#utility.yul\":19707:19898   */\n    tag_198:\n        /* \"#utility.yul\":19747:19750   */\n      0x00\n        /* \"#utility.yul\":19766:19786   */\n      tag_596\n        /* \"#utility.yul\":19784:19785   */\n      dup3\n        /* \"#utility.yul\":19766:19786   */\n      tag_340\n      jump\t// in\n    tag_596:\n        /* \"#utility.yul\":19761:19786   */\n      swap2\n      pop\n        /* \"#utility.yul\":19800:19820   */\n      tag_597\n        /* \"#utility.yul\":19818:19819   */\n      dup4\n        /* \"#utility.yul\":19800:19820   */\n      tag_340\n      jump\t// in\n    tag_597:\n        /* \"#utility.yul\":19795:19820   */\n      swap3\n      pop\n        /* \"#utility.yul\":19843:19844   */\n      dup3\n        /* \"#utility.yul\":19840:19841   */\n      dup3\n        /* \"#utility.yul\":19836:19845   */\n      add\n        /* \"#utility.yul\":19829:19845   */\n      swap1\n      pop\n        /* \"#utility.yul\":19864:19867   */\n      dup1\n        /* \"#utility.yul\":19861:19862   */\n      dup3\n        /* \"#utility.yul\":19858:19868   */\n      gt\n        /* \"#utility.yul\":19855:19891   */\n      iszero\n      tag_598\n      jumpi\n        /* \"#utility.yul\":19871:19889   */\n      tag_599\n      tag_379\n      jump\t// in\n    tag_599:\n        /* \"#utility.yul\":19855:19891   */\n    tag_598:\n        /* \"#utility.yul\":19707:19898   */\n      swap3\n      swap2\n      pop\n      pop\n      jump\t// out\n        /* \"#utility.yul\":19904:20098   */\n    tag_203:\n        /* \"#utility.yul\":19944:19948   */\n      0x00\n        /* \"#utility.yul\":19964:19984   */\n      tag_601\n        /* \"#utility.yul\":19982:19983   */\n      dup3\n        /* \"#utility.yul\":19964:19984   */\n      tag_340\n      jump\t// in\n    tag_601:\n        /* \"#utility.yul\":19959:19984   */\n      swap2\n      pop\n        /* \"#utility.yul\":19998:20018   */\n      tag_602\n        /* \"#utility.yul\":20016:20017   */\n      dup4\n        /* \"#utility.yul\":19998:20018   */\n      tag_340\n      jump\t// in\n    tag_602:\n        /* \"#utility.yul\":19993:20018   */\n      swap3\n      pop\n        /* \"#utility.yul\":20042:20043   */\n      dup3\n        /* \"#utility.yul\":20039:20040   */\n      dup3\n        /* \"#utility.yul\":20035:20044   */\n      sub\n        /* \"#utility.yul\":20027:20044   */\n      swap1\n      pop\n        /* \"#utility.yul\":20066:20067   */\n      dup2\n        /* \"#utility.yul\":20060:20064   */\n      dup2\n        /* \"#utility.yul\":20057:20068   */\n      gt\n        /* \"#utility.yul\":20054:20091   */\n      iszero\n      tag_603\n      jumpi\n        /* \"#utility.yul\":20071:20089   */\n      tag_604\n      tag_379\n      jump\t// in\n    tag_604:\n        /* \"#utility.yul\":20054:20091   */\n    tag_603:\n        /* \"#utility.yul\":19904:20098   */\n      swap3\n      swap2\n      pop\n      pop\n      jump\t// out\n        /* \"#utility.yul\":20104:20221   */\n    tag_384:\n        /* \"#utility.yul\":20213:20214   */\n      0x00\n        /* \"#utility.yul\":20210:20211   */\n      dup1\n        /* \"#utility.yul\":20203:20215   */\n      revert\n        /* \"#utility.yul\":20227:20344   */\n    tag_385:\n        /* \"#utility.yul\":20336:20337   */\n      0x00\n        /* \"#utility.yul\":20333:20334   */\n      dup1\n        /* \"#utility.yul\":20326:20338   */\n      revert\n        /* \"#utility.yul\":20350:20452   */\n    tag_386:\n        /* \"#utility.yul\":20391:20397   */\n      0x00\n        /* \"#utility.yul\":20442:20444   */\n      0x1f\n        /* \"#utility.yul\":20438:20445   */\n      not\n        /* \"#utility.yul\":20433:20435   */\n      0x1f\n        /* \"#utility.yul\":20426:20431   */\n      dup4\n        /* \"#utility.yul\":20422:20436   */\n      add\n        /* \"#utility.yul\":20418:20446   */\n      and\n        /* \"#utility.yul\":20408:20446   */\n      swap1\n      pop\n        /* \"#utility.yul\":20350:20452   */\n      swap2\n      swap1\n      pop\n      jump\t// out\n        /* \"#utility.yul\":20458:20638   */\n    tag_387:\n        /* \"#utility.yul\":20506:20583   */\n      0x4e487b7100000000000000000000000000000000000000000000000000000000\n        /* \"#utility.yul\":20503:20504   */\n      0x00\n        /* \"#utility.yul\":20496:20584   */\n      mstore\n        /* \"#utility.yul\":20603:20607   */\n      0x41\n        /* \"#utility.yul\":20600:20601   */\n      0x04\n        /* \"#utility.yul\":20593:20608   */\n      mstore\n        /* \"#utility.yul\":20627:20631   */\n      0x24\n        /* \"#utility.yul\":20624:20625   */\n      0x00\n        /* \"#utility.yul\":20617:20632   */\n      revert\n        /* \"#utility.yul\":20644:20925   */\n    tag_388:\n        /* \"#utility.yul\":20727:20754   */\n      tag_610\n        /* \"#utility.yul\":20749:20753   */\n      dup3\n        /* \"#utility.yul\":20727:20754   */\n      tag_386\n      jump\t// in\n    tag_610:\n        /* \"#utility.yul\":20719:20725   */\n      dup2\n        /* \"#utility.yul\":20715:20755   */\n      add\n        /* \"#utility.yul\":20857:20863   */\n      dup2\n        /* \"#utility.yul\":20845:20855   */\n      dup2\n        /* \"#utility.yul\":20842:20864   */\n      lt\n        /* \"#utility.yul\":20821:20839   */\n      0xffffffffffffffff\n        /* \"#utility.yul\":20809:20819   */\n      dup3\n        /* \"#utility.yul\":20806:20840   */\n      gt\n        /* \"#utility.yul\":20803:20865   */\n      or\n        /* \"#utility.yul\":20800:20888   */\n      iszero\n      tag_611\n      jumpi\n        /* \"#utility.yul\":20868:20886   */\n      tag_612\n      tag_387\n      jump\t// in\n    tag_612:\n        /* \"#utility.yul\":20800:20888   */\n    tag_611:\n        /* \"#utility.yul\":20908:20918   */\n      dup1\n        /* \"#utility.yul\":20904:20906   */\n      0x40\n        /* \"#utility.yul\":20897:20919   */\n      mstore\n        /* \"#utility.yul\":20687:20925   */\n      pop\n        /* \"#utility.yul\":20644:20925   */\n      pop\n      pop\n      jump\t// out\n        /* \"#utility.yul\":20931:21060   */\n    tag_389:\n        /* \"#utility.yul\":20965:20971   */\n      0x00\n        /* \"#utility.yul\":20992:21012   */\n      tag_614\n      tag_337\n      jump\t// in\n    tag_614:\n        /* \"#utility.yul\":20982:21012   */\n      swap1\n      pop\n        /* \"#utility.yul\":21021:21054   */\n      tag_615\n        /* \"#utility.yul\":21049:21053   */\n      dup3\n        /* \"#utility.yul\":21041:21047   */\n      dup3\n        /* \"#utility.yul\":21021:21054   */\n      tag_388\n      jump\t// in\n    tag_615:\n        /* \"#utility.yul\":20931:21060   */\n      swap2\n      swap1\n      pop\n      jump\t// out\n        /* \"#utility.yul\":21066:21374   */\n    tag_390:\n        /* \"#utility.yul\":21128:21132   */\n      0x00\n        /* \"#utility.yul\":21218:21236   */\n      0xffffffffffffffff\n        /* \"#utility.yul\":21210:21216   */\n      dup3\n        /* \"#utility.yul\":21207:21237   */\n      gt\n        /* \"#utility.yul\":21204:21260   */\n      iszero\n      tag_617\n      jumpi\n        /* \"#utility.yul\":21240:21258   */\n      tag_618\n      tag_387\n      jump\t// in\n    tag_618:\n        /* \"#utility.yul\":21204:21260   */\n    tag_617:\n        /* \"#utility.yul\":21278:21307   */\n      tag_619\n        /* \"#utility.yul\":21300:21306   */\n      dup3\n        /* \"#utility.yul\":21278:21307   */\n      tag_386\n      jump\t// in\n    tag_619:\n        /* \"#utility.yul\":21270:21307   */\n      swap1\n      pop\n        /* \"#utility.yul\":21362:21366   */\n      0x20\n        /* \"#utility.yul\":21356:21360   */\n      dup2\n        /* \"#utility.yul\":21352:21367   */\n      add\n        /* \"#utility.yul\":21344:21367   */\n      swap1\n      pop\n        /* \"#utility.yul\":21066:21374   */\n      swap2\n      swap1\n      pop\n      jump\t// out\n        /* \"#utility.yul\":21380:21519   */\n    tag_391:\n        /* \"#utility.yul\":21469:21475   */\n      dup3\n        /* \"#utility.yul\":21464:21467   */\n      dup2\n        /* \"#utility.yul\":21459:21462   */\n      dup4\n        /* \"#utility.yul\":21453:21476   */\n      mcopy\n        /* \"#utility.yul\":21510:21511   */\n      0x00\n        /* \"#utility.yul\":21501:21507   */\n      dup4\n        /* \"#utility.yul\":21496:21499   */\n      dup4\n        /* \"#utility.yul\":21492:21508   */\n      add\n        /* \"#utility.yul\":21485:21512   */\n      mstore\n        /* \"#utility.yul\":21380:21519   */\n      pop\n      pop\n      pop\n      jump\t// out\n        /* \"#utility.yul\":21525:21959   */\n    tag_392:\n        /* \"#utility.yul\":21614:21619   */\n      0x00\n        /* \"#utility.yul\":21639:21705   */\n      tag_622\n        /* \"#utility.yul\":21655:21704   */\n      tag_623\n        /* \"#utility.yul\":21697:21703   */\n      dup5\n        /* \"#utility.yul\":21655:21704   */\n      tag_390\n      jump\t// in\n    tag_623:\n        /* \"#utility.yul\":21639:21705   */\n      tag_389\n      jump\t// in\n    tag_622:\n        /* \"#utility.yul\":21630:21705   */\n      swap1\n      pop\n        /* \"#utility.yul\":21728:21734   */\n      dup3\n        /* \"#utility.yul\":21721:21726   */\n      dup2\n        /* \"#utility.yul\":21714:21735   */\n      mstore\n        /* \"#utility.yul\":21766:21770   */\n      0x20\n        /* \"#utility.yul\":21759:21764   */\n      dup2\n        /* \"#utility.yul\":21755:21771   */\n      add\n        /* \"#utility.yul\":21804:21807   */\n      dup5\n        /* \"#utility.yul\":21795:21801   */\n      dup5\n        /* \"#utility.yul\":21790:21793   */\n      dup5\n        /* \"#utility.yul\":21786:21802   */\n      add\n        /* \"#utility.yul\":21783:21808   */\n      gt\n        /* \"#utility.yul\":21780:21892   */\n      iszero\n      tag_624\n      jumpi\n        /* \"#utility.yul\":21811:21890   */\n      tag_625\n      tag_385\n      jump\t// in\n    tag_625:\n        /* \"#utility.yul\":21780:21892   */\n    tag_624:\n        /* \"#utility.yul\":21901:21953   */\n      tag_626\n        /* \"#utility.yul\":21946:21952   */\n      dup5\n        /* \"#utility.yul\":21941:21944   */\n      dup3\n        /* \"#utility.yul\":21936:21939   */\n      dup6\n        /* \"#utility.yul\":21901:21953   */\n      tag_391\n      jump\t// in\n    tag_626:\n        /* \"#utility.yul\":21620:21959   */\n      pop\n        /* \"#utility.yul\":21525:21959   */\n      swap4\n      swap3\n      pop\n      pop\n      pop\n      jump\t// out\n        /* \"#utility.yul\":21979:22334   */\n    tag_393:\n        /* \"#utility.yul\":22046:22051   */\n      0x00\n        /* \"#utility.yul\":22095:22098   */\n      dup3\n        /* \"#utility.yul\":22088:22092   */\n      0x1f\n        /* \"#utility.yul\":22080:22086   */\n      dup4\n        /* \"#utility.yul\":22076:22093   */\n      add\n        /* \"#utility.yul\":22072:22099   */\n      slt\n        /* \"#utility.yul\":22062:22184   */\n      tag_628\n      jumpi\n        /* \"#utility.yul\":22103:22182   */\n      tag_629\n      tag_384\n      jump\t// in\n    tag_629:\n        /* \"#utility.yul\":22062:22184   */\n    tag_628:\n        /* \"#utility.yul\":22213:22219   */\n      dup2\n        /* \"#utility.yul\":22207:22220   */\n      mload\n        /* \"#utility.yul\":22238:22328   */\n      tag_630\n        /* \"#utility.yul\":22324:22327   */\n      dup5\n        /* \"#utility.yul\":22316:22322   */\n      dup3\n        /* \"#utility.yul\":22309:22313   */\n      0x20\n        /* \"#utility.yul\":22301:22307   */\n      dup7\n        /* \"#utility.yul\":22297:22314   */\n      add\n        /* \"#utility.yul\":22238:22328   */\n      tag_392\n      jump\t// in\n    tag_630:\n        /* \"#utility.yul\":22229:22328   */\n      swap2\n      pop\n        /* \"#utility.yul\":22052:22334   */\n      pop\n        /* \"#utility.yul\":21979:22334   */\n      swap3\n      swap2\n      pop\n      pop\n      jump\t// out\n        /* \"#utility.yul\":22340:22864   */\n    tag_217:\n        /* \"#utility.yul\":22420:22426   */\n      0x00\n        /* \"#utility.yul\":22469:22471   */\n      0x20\n        /* \"#utility.yul\":22457:22466   */\n      dup3\n        /* \"#utility.yul\":22448:22455   */\n      dup5\n        /* \"#utility.yul\":22444:22467   */\n      sub\n        /* \"#utility.yul\":22440:22472   */\n      slt\n        /* \"#utility.yul\":22437:22556   */\n      iszero\n      tag_632\n      jumpi\n        /* \"#utility.yul\":22475:22554   */\n      tag_633\n      tag_338\n      jump\t// in\n    tag_633:\n        /* \"#utility.yul\":22437:22556   */\n    tag_632:\n        /* \"#utility.yul\":22616:22617   */\n      0x00\n        /* \"#utility.yul\":22605:22614   */\n      dup3\n        /* \"#utility.yul\":22601:22618   */\n      add\n        /* \"#utility.yul\":22595:22619   */\n      mload\n        /* \"#utility.yul\":22646:22664   */\n      0xffffffffffffffff\n        /* \"#utility.yul\":22638:22644   */\n      dup2\n        /* \"#utility.yul\":22635:22665   */\n      gt\n        /* \"#utility.yul\":22632:22749   */\n      iszero\n      tag_634\n      jumpi\n        /* \"#utility.yul\":22668:22747   */\n      tag_635\n      tag_339\n      jump\t// in\n    tag_635:\n        /* \"#utility.yul\":22632:22749   */\n    tag_634:\n        /* \"#utility.yul\":22773:22847   */\n      tag_636\n        /* \"#utility.yul\":22839:22846   */\n      dup5\n        /* \"#utility.yul\":22830:22836   */\n      dup3\n        /* \"#utility.yul\":22819:22828   */\n      dup6\n        /* \"#utility.yul\":22815:22837   */\n      add\n        /* \"#utility.yul\":22773:22847   */\n      tag_393\n      jump\t// in\n    tag_636:\n        /* \"#utility.yul\":22763:22847   */\n      swap2\n      pop\n        /* \"#utility.yul\":22566:22857   */\n      pop\n        /* \"#utility.yul\":22340:22864   */\n      swap3\n      swap2\n      pop\n      pop\n      jump\t// out\n        /* \"#utility.yul\":22870:23312   */\n    tag_220:\n        /* \"#utility.yul\":23019:23023   */\n      0x00\n        /* \"#utility.yul\":23057:23059   */\n      0x60\n        /* \"#utility.yul\":23046:23055   */\n      dup3\n        /* \"#utility.yul\":23042:23060   */\n      add\n        /* \"#utility.yul\":23034:23060   */\n      swap1\n      pop\n        /* \"#utility.yul\":23070:23141   */\n      tag_638\n        /* \"#utility.yul\":23138:23139   */\n      0x00\n        /* \"#utility.yul\":23127:23136   */\n      dup4\n        /* \"#utility.yul\":23123:23140   */\n      add\n        /* \"#utility.yul\":23114:23120   */\n      dup7\n        /* \"#utility.yul\":23070:23141   */\n      tag_355\n      jump\t// in\n    tag_638:\n        /* \"#utility.yul\":23151:23223   */\n      tag_639\n        /* \"#utility.yul\":23219:23221   */\n      0x20\n        /* \"#utility.yul\":23208:23217   */\n      dup4\n        /* \"#utility.yul\":23204:23222   */\n      add\n        /* \"#utility.yul\":23195:23201   */\n      dup6\n        /* \"#utility.yul\":23151:23223   */\n      tag_356\n      jump\t// in\n    tag_639:\n        /* \"#utility.yul\":23233:23305   */\n      tag_640\n        /* \"#utility.yul\":23301:23303   */\n      0x40\n        /* \"#utility.yul\":23290:23299   */\n      dup4\n        /* \"#utility.yul\":23286:23304   */\n      add\n        /* \"#utility.yul\":23277:23283   */\n      dup5\n        /* \"#utility.yul\":23233:23305   */\n      tag_356\n      jump\t// in\n    tag_640:\n        /* \"#utility.yul\":22870:23312   */\n      swap5\n      swap4\n      pop\n      pop\n      pop\n      pop\n      jump\t// out\n        /* \"#utility.yul\":23318:23650   */\n    tag_225:\n        /* \"#utility.yul\":23439:23443   */\n      0x00\n        /* \"#utility.yul\":23477:23479   */\n      0x40\n        /* \"#utility.yul\":23466:23475   */\n      dup3\n        /* \"#utility.yul\":23462:23480   */\n      add\n        /* \"#utility.yul\":23454:23480   */\n      swap1\n      pop\n        /* \"#utility.yul\":23490:23561   */\n      tag_642\n        /* \"#utility.yul\":23558:23559   */\n      0x00\n        /* \"#utility.yul\":23547:23556   */\n      dup4\n        /* \"#utility.yul\":23543:23560   */\n      add\n        /* \"#utility.yul\":23534:23540   */\n      dup6\n        /* \"#utility.yul\":23490:23561   */\n      tag_355\n      jump\t// in\n    tag_642:\n        /* \"#utility.yul\":23571:23643   */\n      tag_643\n        /* \"#utility.yul\":23639:23641   */\n      0x20\n        /* \"#utility.yul\":23628:23637   */\n      dup4\n        /* \"#utility.yul\":23624:23642   */\n      add\n        /* \"#utility.yul\":23615:23621   */\n      dup5\n        /* \"#utility.yul\":23571:23643   */\n      tag_356\n      jump\t// in\n    tag_643:\n        /* \"#utility.yul\":23318:23650   */\n      swap4\n      swap3\n      pop\n      pop\n      pop\n      jump\t// out\n        /* \"#utility.yul\":23656:23834   */\n    tag_394:\n        /* \"#utility.yul\":23796:23826   */\n      0x50726f746f6e20746f6b656e207472616e73666572206661696c656400000000\n        /* \"#utility.yul\":23792:23793   */\n      0x00\n        /* \"#utility.yul\":23784:23790   */\n      dup3\n        /* \"#utility.yul\":23780:23794   */\n      add\n        /* \"#utility.yul\":23773:23827   */\n      mstore\n        /* \"#utility.yul\":23656:23834   */\n      pop\n      jump\t// out\n        /* \"#utility.yul\":23840:24206   */\n    tag_395:\n        /* \"#utility.yul\":23982:23985   */\n      0x00\n        /* \"#utility.yul\":24003:24070   */\n      tag_646\n        /* \"#utility.yul\":24067:24069   */\n      0x1c\n        /* \"#utility.yul\":24062:24065   */\n      dup4\n        /* \"#utility.yul\":24003:24070   */\n      tag_363\n      jump\t// in\n    tag_646:\n        /* \"#utility.yul\":23996:24070   */\n      swap2\n      pop\n        /* \"#utility.yul\":24079:24172   */\n      tag_647\n        /* \"#utility.yul\":24168:24171   */\n      dup3\n        /* \"#utility.yul\":24079:24172   */\n      tag_394\n      jump\t// in\n    tag_647:\n        /* \"#utility.yul\":24197:24199   */\n      0x20\n        /* \"#utility.yul\":24192:24195   */\n      dup3\n        /* \"#utility.yul\":24188:24200   */\n      add\n        /* \"#utility.yul\":24181:24200   */\n      swap1\n      pop\n        /* \"#utility.yul\":23840:24206   */\n      swap2\n      swap1\n      pop\n      jump\t// out\n        /* \"#utility.yul\":24212:24631   */\n    tag_231:\n        /* \"#utility.yul\":24378:24382   */\n      0x00\n        /* \"#utility.yul\":24416:24418   */\n      0x20\n        /* \"#utility.yul\":24405:24414   */\n      dup3\n        /* \"#utility.yul\":24401:24419   */\n      add\n        /* \"#utility.yul\":24393:24419   */\n      swap1\n      pop\n        /* \"#utility.yul\":24465:24474   */\n      dup2\n        /* \"#utility.yul\":24459:24463   */\n      dup2\n        /* \"#utility.yul\":24455:24475   */\n      sub\n        /* \"#utility.yul\":24451:24452   */\n      0x00\n        /* \"#utility.yul\":24440:24449   */\n      dup4\n        /* \"#utility.yul\":24436:24453   */\n      add\n        /* \"#utility.yul\":24429:24476   */\n      mstore\n        /* \"#utility.yul\":24493:24624   */\n      tag_649\n        /* \"#utility.yul\":24619:24623   */\n      dup2\n        /* \"#utility.yul\":24493:24624   */\n      tag_395\n      jump\t// in\n    tag_649:\n        /* \"#utility.yul\":24485:24624   */\n      swap1\n      pop\n        /* \"#utility.yul\":24212:24631   */\n      swap2\n      swap1\n      pop\n      jump\t// out\n        /* \"#utility.yul\":24637:24810   */\n    tag_396:\n        /* \"#utility.yul\":24777:24802   */\n      0x41756374696f6e206973207374696c6c20616374697665000000000000000000\n        /* \"#utility.yul\":24773:24774   */\n      0x00\n        /* \"#utility.yul\":24765:24771   */\n      dup3\n        /* \"#utility.yul\":24761:24775   */\n      add\n        /* \"#utility.yul\":24754:24803   */\n      mstore\n        /* \"#utility.yul\":24637:24810   */\n      pop\n      jump\t// out\n        /* \"#utility.yul\":24816:25182   */\n    tag_397:\n        /* \"#utility.yul\":24958:24961   */\n      0x00\n        /* \"#utility.yul\":24979:25046   */\n      tag_652\n        /* \"#utility.yul\":25043:25045   */\n      0x17\n        /* \"#utility.yul\":25038:25041   */\n      dup4\n        /* \"#utility.yul\":24979:25046   */\n      tag_363\n      jump\t// in\n    tag_652:\n        /* \"#utility.yul\":24972:25046   */\n      swap2\n      pop\n        /* \"#utility.yul\":25055:25148   */\n      tag_653\n        /* \"#utility.yul\":25144:25147   */\n      dup3\n        /* \"#utility.yul\":25055:25148   */\n      tag_396\n      jump\t// in\n    tag_653:\n        /* \"#utility.yul\":25173:25175   */\n      0x20\n        /* \"#utility.yul\":25168:25171   */\n      dup3\n        /* \"#utility.yul\":25164:25176   */\n      add\n        /* \"#utility.yul\":25157:25176   */\n      swap1\n      pop\n        /* \"#utility.yul\":24816:25182   */\n      swap2\n      swap1\n      pop\n      jump\t// out\n        /* \"#utility.yul\":25188:25607   */\n    tag_241:\n        /* \"#utility.yul\":25354:25358   */\n      0x00\n        /* \"#utility.yul\":25392:25394   */\n      0x20\n        /* \"#utility.yul\":25381:25390   */\n      dup3\n        /* \"#utility.yul\":25377:25395   */\n      add\n        /* \"#utility.yul\":25369:25395   */\n      swap1\n      pop\n        /* \"#utility.yul\":25441:25450   */\n      dup2\n        /* \"#utility.yul\":25435:25439   */\n      dup2\n        /* \"#utility.yul\":25431:25451   */\n      sub\n        /* \"#utility.yul\":25427:25428   */\n      0x00\n        /* \"#utility.yul\":25416:25425   */\n      dup4\n        /* \"#utility.yul\":25412:25429   */\n      add\n        /* \"#utility.yul\":25405:25452   */\n      mstore\n        /* \"#utility.yul\":25469:25600   */\n      tag_655\n        /* \"#utility.yul\":25595:25599   */\n      dup2\n        /* \"#utility.yul\":25469:25600   */\n      tag_397\n      jump\t// in\n    tag_655:\n        /* \"#utility.yul\":25461:25600   */\n      swap1\n      pop\n        /* \"#utility.yul\":25188:25607   */\n      swap2\n      swap1\n      pop\n      jump\t// out\n        /* \"#utility.yul\":25613:25792   */\n    tag_398:\n        /* \"#utility.yul\":25753:25784   */\n      0x41756374696f6e206461797320617265206e6f7420636f6d706c657465000000\n        /* \"#utility.yul\":25749:25750   */\n      0x00\n        /* \"#utility.yul\":25741:25747   */\n      dup3\n        /* \"#utility.yul\":25737:25751   */\n      add\n        /* \"#utility.yul\":25730:25785   */\n      mstore\n        /* \"#utility.yul\":25613:25792   */\n      pop\n      jump\t// out\n        /* \"#utility.yul\":25798:26164   */\n    tag_399:\n        /* \"#utility.yul\":25940:25943   */\n      0x00\n        /* \"#utility.yul\":25961:26028   */\n      tag_658\n        /* \"#utility.yul\":26025:26027   */\n      0x1d\n        /* \"#utility.yul\":26020:26023   */\n      dup4\n        /* \"#utility.yul\":25961:26028   */\n      tag_363\n      jump\t// in\n    tag_658:\n        /* \"#utility.yul\":25954:26028   */\n      swap2\n      pop\n        /* \"#utility.yul\":26037:26130   */\n      tag_659\n        /* \"#utility.yul\":26126:26129   */\n      dup3\n        /* \"#utility.yul\":26037:26130   */\n      tag_398\n      jump\t// in\n    tag_659:\n        /* \"#utility.yul\":26155:26157   */\n      0x20\n        /* \"#utility.yul\":26150:26153   */\n      dup3\n        /* \"#utility.yul\":26146:26158   */\n      add\n        /* \"#utility.yul\":26139:26158   */\n      swap1\n      pop\n        /* \"#utility.yul\":25798:26164   */\n      swap2\n      swap1\n      pop\n      jump\t// out\n        /* \"#utility.yul\":26170:26589   */\n    tag_244:\n        /* \"#utility.yul\":26336:26340   */\n      0x00\n        /* \"#utility.yul\":26374:26376   */\n      0x20\n        /* \"#utility.yul\":26363:26372   */\n      dup3\n        /* \"#utility.yul\":26359:26377   */\n      add\n        /* \"#utility.yul\":26351:26377   */\n      swap1\n      pop\n        /* \"#utility.yul\":26423:26432   */\n      dup2\n        /* \"#utility.yul\":26417:26421   */\n      dup2\n        /* \"#utility.yul\":26413:26433   */\n      sub\n        /* \"#utility.yul\":26409:26410   */\n      0x00\n        /* \"#utility.yul\":26398:26407   */\n      dup4\n        /* \"#utility.yul\":26394:26411   */\n      add\n        /* \"#utility.yul\":26387:26434   */\n      mstore\n        /* \"#utility.yul\":26451:26582   */\n      tag_661\n        /* \"#utility.yul\":26577:26581   */\n      dup2\n        /* \"#utility.yul\":26451:26582   */\n      tag_399\n      jump\t// in\n    tag_661:\n        /* \"#utility.yul\":26443:26582   */\n      swap1\n      pop\n        /* \"#utility.yul\":26170:26589   */\n      swap2\n      swap1\n      pop\n      jump\t// out\n        /* \"#utility.yul\":26595:26760   */\n    tag_400:\n        /* \"#utility.yul\":26735:26752   */\n      0x496e636f72726563742076616c75650000000000000000000000000000000000\n        /* \"#utility.yul\":26731:26732   */\n      0x00\n        /* \"#utility.yul\":26723:26729   */\n      dup3\n        /* \"#utility.yul\":26719:26733   */\n      add\n        /* \"#utility.yul\":26712:26753   */\n      mstore\n        /* \"#utility.yul\":26595:26760   */\n      pop\n      jump\t// out\n        /* \"#utility.yul\":26766:27132   */\n    tag_401:\n        /* \"#utility.yul\":26908:26911   */\n      0x00\n        /* \"#utility.yul\":26929:26996   */\n      tag_664\n        /* \"#utility.yul\":26993:26995   */\n      0x0f\n        /* \"#utility.yul\":26988:26991   */\n      dup4\n        /* \"#utility.yul\":26929:26996   */\n      tag_363\n      jump\t// in\n    tag_664:\n        /* \"#utility.yul\":26922:26996   */\n      swap2\n      pop\n        /* \"#utility.yul\":27005:27098   */\n      tag_665\n        /* \"#utility.yul\":27094:27097   */\n      dup3\n        /* \"#utility.yul\":27005:27098   */\n      tag_400\n      jump\t// in\n    tag_665:\n        /* \"#utility.yul\":27123:27125   */\n      0x20\n        /* \"#utility.yul\":27118:27121   */\n      dup3\n        /* \"#utility.yul\":27114:27126   */\n      add\n        /* \"#utility.yul\":27107:27126   */\n      swap1\n      pop\n        /* \"#utility.yul\":26766:27132   */\n      swap2\n      swap1\n      pop\n      jump\t// out\n        /* \"#utility.yul\":27138:27557   */\n    tag_249:\n        /* \"#utility.yul\":27304:27308   */\n      0x00\n        /* \"#utility.yul\":27342:27344   */\n      0x20\n        /* \"#utility.yul\":27331:27340   */\n      dup3\n        /* \"#utility.yul\":27327:27345   */\n      add\n        /* \"#utility.yul\":27319:27345   */\n      swap1\n      pop\n        /* \"#utility.yul\":27391:27400   */\n      dup2\n        /* \"#utility.yul\":27385:27389   */\n      dup2\n        /* \"#utility.yul\":27381:27401   */\n      sub\n        /* \"#utility.yul\":27377:27378   */\n      0x00\n        /* \"#utility.yul\":27366:27375   */\n      dup4\n        /* \"#utility.yul\":27362:27379   */\n      add\n        /* \"#utility.yul\":27355:27402   */\n      mstore\n        /* \"#utility.yul\":27419:27550   */\n      tag_667\n        /* \"#utility.yul\":27545:27549   */\n      dup2\n        /* \"#utility.yul\":27419:27550   */\n      tag_401\n      jump\t// in\n    tag_667:\n        /* \"#utility.yul\":27411:27550   */\n      swap1\n      pop\n        /* \"#utility.yul\":27138:27557   */\n      swap2\n      swap1\n      pop\n      jump\t// out\n        /* \"#utility.yul\":27563:28116   */\n    tag_258:\n        /* \"#utility.yul\":27740:27744   */\n      0x00\n        /* \"#utility.yul\":27778:27781   */\n      0x80\n        /* \"#utility.yul\":27767:27776   */\n      dup3\n        /* \"#utility.yul\":27763:27782   */\n      add\n        /* \"#utility.yul\":27755:27782   */\n      swap1\n      pop\n        /* \"#utility.yul\":27792:27863   */\n      tag_669\n        /* \"#utility.yul\":27860:27861   */\n      0x00\n        /* \"#utility.yul\":27849:27858   */\n      dup4\n        /* \"#utility.yul\":27845:27862   */\n      add\n        /* \"#utility.yul\":27836:27842   */\n      dup8\n        /* \"#utility.yul\":27792:27863   */\n      tag_355\n      jump\t// in\n    tag_669:\n        /* \"#utility.yul\":27873:27945   */\n      tag_670\n        /* \"#utility.yul\":27941:27943   */\n      0x20\n        /* \"#utility.yul\":27930:27939   */\n      dup4\n        /* \"#utility.yul\":27926:27944   */\n      add\n        /* \"#utility.yul\":27917:27923   */\n      dup7\n        /* \"#utility.yul\":27873:27945   */\n      tag_356\n      jump\t// in\n    tag_670:\n        /* \"#utility.yul\":27955:28027   */\n      tag_671\n        /* \"#utility.yul\":28023:28025   */\n      0x40\n        /* \"#utility.yul\":28012:28021   */\n      dup4\n        /* \"#utility.yul\":28008:28026   */\n      add\n        /* \"#utility.yul\":27999:28005   */\n      dup6\n        /* \"#utility.yul\":27955:28027   */\n      tag_356\n      jump\t// in\n    tag_671:\n        /* \"#utility.yul\":28037:28109   */\n      tag_672\n        /* \"#utility.yul\":28105:28107   */\n      0x60\n        /* \"#utility.yul\":28094:28103   */\n      dup4\n        /* \"#utility.yul\":28090:28108   */\n      add\n        /* \"#utility.yul\":28081:28087   */\n      dup5\n        /* \"#utility.yul\":28037:28109   */\n      tag_356\n      jump\t// in\n    tag_672:\n        /* \"#utility.yul\":27563:28116   */\n      swap6\n      swap5\n      pop\n      pop\n      pop\n      pop\n      pop\n      jump\t// out\n        /* \"#utility.yul\":28122:28288   */\n    tag_402:\n        /* \"#utility.yul\":28262:28280   */\n      0x4552524f523a204441592076616c756500000000000000000000000000000000\n        /* \"#utility.yul\":28258:28259   */\n      0x00\n        /* \"#utility.yul\":28250:28256   */\n      dup3\n        /* \"#utility.yul\":28246:28260   */\n      add\n        /* \"#utility.yul\":28239:28281   */\n      mstore\n        /* \"#utility.yul\":28122:28288   */\n      pop\n      jump\t// out\n        /* \"#utility.yul\":28294:28660   */\n    tag_403:\n        /* \"#utility.yul\":28436:28439   */\n      0x00\n        /* \"#utility.yul\":28457:28524   */\n      tag_675\n        /* \"#utility.yul\":28521:28523   */\n      0x10\n        /* \"#utility.yul\":28516:28519   */\n      dup4\n        /* \"#utility.yul\":28457:28524   */\n      tag_363\n      jump\t// in\n    tag_675:\n        /* \"#utility.yul\":28450:28524   */\n      swap2\n      pop\n        /* \"#utility.yul\":28533:28626   */\n      tag_676\n        /* \"#utility.yul\":28622:28625   */\n      dup3\n        /* \"#utility.yul\":28533:28626   */\n      tag_402\n      jump\t// in\n    tag_676:\n        /* \"#utility.yul\":28651:28653   */\n      0x20\n        /* \"#utility.yul\":28646:28649   */\n      dup3\n        /* \"#utility.yul\":28642:28654   */\n      add\n        /* \"#utility.yul\":28635:28654   */\n      swap1\n      pop\n        /* \"#utility.yul\":28294:28660   */\n      swap2\n      swap1\n      pop\n      jump\t// out\n        /* \"#utility.yul\":28666:29085   */\n    tag_265:\n        /* \"#utility.yul\":28832:28836   */\n      0x00\n        /* \"#utility.yul\":28870:28872   */\n      0x20\n        /* \"#utility.yul\":28859:28868   */\n      dup3\n        /* \"#utility.yul\":28855:28873   */\n      add\n        /* \"#utility.yul\":28847:28873   */\n      swap1\n      pop\n        /* \"#utility.yul\":28919:28928   */\n      dup2\n        /* \"#utility.yul\":28913:28917   */\n      dup2\n        /* \"#utility.yul\":28909:28929   */\n      sub\n        /* \"#utility.yul\":28905:28906   */\n      0x00\n        /* \"#utility.yul\":28894:28903   */\n      dup4\n        /* \"#utility.yul\":28890:28907   */\n      add\n        /* \"#utility.yul\":28883:28930   */\n      mstore\n        /* \"#utility.yul\":28947:29078   */\n      tag_678\n        /* \"#utility.yul\":29073:29077   */\n      dup2\n        /* \"#utility.yul\":28947:29078   */\n      tag_403\n      jump\t// in\n    tag_678:\n        /* \"#utility.yul\":28939:29078   */\n      swap1\n      pop\n        /* \"#utility.yul\":28666:29085   */\n      swap2\n      swap1\n      pop\n      jump\t// out\n        /* \"#utility.yul\":29091:29521   */\n    tag_270:\n        /* \"#utility.yul\":29234:29238   */\n      0x00\n        /* \"#utility.yul\":29272:29274   */\n      0x60\n        /* \"#utility.yul\":29261:29270   */\n      dup3\n        /* \"#utility.yul\":29257:29275   */\n      add\n        /* \"#utility.yul\":29249:29275   */\n      swap1\n      pop\n        /* \"#utility.yul\":29285:29356   */\n      tag_680\n        /* \"#utility.yul\":29353:29354   */\n      0x00\n        /* \"#utility.yul\":29342:29351   */\n      dup4\n        /* \"#utility.yul\":29338:29355   */\n      add\n        /* \"#utility.yul\":29329:29335   */\n      dup7\n        /* \"#utility.yul\":29285:29356   */\n      tag_355\n      jump\t// in\n    tag_680:\n        /* \"#utility.yul\":29366:29432   */\n      tag_681\n        /* \"#utility.yul\":29428:29430   */\n      0x20\n        /* \"#utility.yul\":29417:29426   */\n      dup4\n        /* \"#utility.yul\":29413:29431   */\n      add\n        /* \"#utility.yul\":29404:29410   */\n      dup6\n        /* \"#utility.yul\":29366:29432   */\n      tag_360\n      jump\t// in\n    tag_681:\n        /* \"#utility.yul\":29442:29514   */\n      tag_682\n        /* \"#utility.yul\":29510:29512   */\n      0x40\n        /* \"#utility.yul\":29499:29508   */\n      dup4\n        /* \"#utility.yul\":29495:29513   */\n      add\n        /* \"#utility.yul\":29486:29492   */\n      dup5\n        /* \"#utility.yul\":29442:29514   */\n      tag_356\n      jump\t// in\n    tag_682:\n        /* \"#utility.yul\":29091:29521   */\n      swap5\n      swap4\n      pop\n      pop\n      pop\n      pop\n      jump\t// out\n        /* \"#utility.yul\":29527:29700   */\n    tag_404:\n        /* \"#utility.yul\":29667:29692   */\n      0x41756374696f6e20616c72656164792073746172746564000000000000000000\n        /* \"#utility.yul\":29663:29664   */\n      0x00\n        /* \"#utility.yul\":29655:29661   */\n      dup3\n        /* \"#utility.yul\":29651:29665   */\n      add\n        /* \"#utility.yul\":29644:29693   */\n      mstore\n        /* \"#utility.yul\":29527:29700   */\n      pop\n      jump\t// out\n        /* \"#utility.yul\":29706:30072   */\n    tag_405:\n        /* \"#utility.yul\":29848:29851   */\n      0x00\n        /* \"#utility.yul\":29869:29936   */\n      tag_685\n        /* \"#utility.yul\":29933:29935   */\n      0x17\n        /* \"#utility.yul\":29928:29931   */\n      dup4\n        /* \"#utility.yul\":29869:29936   */\n      tag_363\n      jump\t// in\n    tag_685:\n        /* \"#utility.yul\":29862:29936   */\n      swap2\n      pop\n        /* \"#utility.yul\":29945:30038   */\n      tag_686\n        /* \"#utility.yul\":30034:30037   */\n      dup3\n        /* \"#utility.yul\":29945:30038   */\n      tag_404\n      jump\t// in\n    tag_686:\n        /* \"#utility.yul\":30063:30065   */\n      0x20\n        /* \"#utility.yul\":30058:30061   */\n      dup3\n        /* \"#utility.yul\":30054:30066   */\n      add\n        /* \"#utility.yul\":30047:30066   */\n      swap1\n      pop\n        /* \"#utility.yul\":29706:30072   */\n      swap2\n      swap1\n      pop\n      jump\t// out\n        /* \"#utility.yul\":30078:30497   */\n    tag_287:\n        /* \"#utility.yul\":30244:30248   */\n      0x00\n        /* \"#utility.yul\":30282:30284   */\n      0x20\n        /* \"#utility.yul\":30271:30280   */\n      dup3\n        /* \"#utility.yul\":30267:30285   */\n      add\n        /* \"#utility.yul\":30259:30285   */\n      swap1\n      pop\n        /* \"#utility.yul\":30331:30340   */\n      dup2\n        /* \"#utility.yul\":30325:30329   */\n      dup2\n        /* \"#utility.yul\":30321:30341   */\n      sub\n        /* \"#utility.yul\":30317:30318   */\n      0x00\n        /* \"#utility.yul\":30306:30315   */\n      dup4\n        /* \"#utility.yul\":30302:30319   */\n      add\n        /* \"#utility.yul\":30295:30342   */\n      mstore\n        /* \"#utility.yul\":30359:30490   */\n      tag_688\n        /* \"#utility.yul\":30485:30489   */\n      dup2\n        /* \"#utility.yul\":30359:30490   */\n      tag_405\n      jump\t// in\n    tag_688:\n        /* \"#utility.yul\":30351:30490   */\n      swap1\n      pop\n        /* \"#utility.yul\":30078:30497   */\n      swap2\n      swap1\n      pop\n      jump\t// out\n        /* \"#utility.yul\":30503:30736   */\n    tag_289:\n        /* \"#utility.yul\":30542:30545   */\n      0x00\n        /* \"#utility.yul\":30565:30589   */\n      tag_690\n        /* \"#utility.yul\":30583:30588   */\n      dup3\n        /* \"#utility.yul\":30565:30589   */\n      tag_340\n      jump\t// in\n    tag_690:\n        /* \"#utility.yul\":30556:30589   */\n      swap2\n      pop\n        /* \"#utility.yul\":30611:30677   */\n      0xffffffffffffffffffffffffffffffffffffffffffffffffffffffffffffffff\n        /* \"#utility.yul\":30604:30609   */\n      dup3\n        /* \"#utility.yul\":30601:30678   */\n      sub\n        /* \"#utility.yul\":30598:30701   */\n      tag_691\n      jumpi\n        /* \"#utility.yul\":30681:30699   */\n      tag_692\n      tag_379\n      jump\t// in\n    tag_692:\n        /* \"#utility.yul\":30598:30701   */\n    tag_691:\n        /* \"#utility.yul\":30728:30729   */\n      0x01\n        /* \"#utility.yul\":30721:30726   */\n      dup3\n        /* \"#utility.yul\":30717:30730   */\n      add\n        /* \"#utility.yul\":30710:30730   */\n      swap1\n      pop\n        /* \"#utility.yul\":30503:30736   */\n      swap2\n      swap1\n      pop\n      jump\t// out\n        /* \"#utility.yul\":30742:30922   */\n    tag_325:\n        /* \"#utility.yul\":30790:30867   */\n      0x4e487b7100000000000000000000000000000000000000000000000000000000\n        /* \"#utility.yul\":30787:30788   */\n      0x00\n        /* \"#utility.yul\":30780:30868   */\n      mstore\n        /* \"#utility.yul\":30887:30891   */\n      0x32\n        /* \"#utility.yul\":30884:30885   */\n      0x04\n        /* \"#utility.yul\":30877:30892   */\n      mstore\n        /* \"#utility.yul\":30911:30915   */\n      0x24\n        /* \"#utility.yul\":30908:30909   */\n      0x00\n        /* \"#utility.yul\":30901:30916   */\n      revert\n\n    auxdata: 0xa26469706673582212208d6dd0b922aaccba5cf6a40160d2fcbb95177d482634b5b983c761153267fe0564736f6c63430008190033\n}\n",
				"bytecode": {
					"linkReferences": {},
					"object": "6080604052670de0b6b3a76400006003556a0422ca8b0a00a42500000060045569d3c21bcecceda100000060055560b4600755600160095f6101000a81548160ff021916908315150217905550348015610057575f80fd5b50604051612bd8380380612bd8833981810160405281019061007991906102bb565b335f73ffffffffffffffffffffffffffffffffffffffff168173ffffffffffffffffffffffffffffffffffffffff16036100ea575f6040517f1e4fbdf70000000000000000000000000000000000000000000000000000000081526004016100e19190610308565b60405180910390fd5b6100f98161019c60201b60201c565b508160025f6101000a81548173ffffffffffffffffffffffffffffffffffffffff021916908373ffffffffffffffffffffffffffffffffffffffff16021790555080600960016101000a81548173ffffffffffffffffffffffffffffffffffffffff021916908373ffffffffffffffffffffffffffffffffffffffff160217905550600160095f6101000a81548160ff0219169083151502179055505050610321565b5f805f9054906101000a900473ffffffffffffffffffffffffffffffffffffffff169050815f806101000a81548173ffffffffffffffffffffffffffffffffffffffff021916908373ffffffffffffffffffffffffffffffffffffffff1602179055508173ffffffffffffffffffffffffffffffffffffffff168173ffffffffffffffffffffffffffffffffffffffff167f8be0079c531659141344cd1fd0a4f28419497f9722a3daafe3b4186f6b6457e060405160405180910390a35050565b5f80fd5b5f73ffffffffffffffffffffffffffffffffffffffff82169050919050565b5f61028a82610261565b9050919050565b61029a81610280565b81146102a4575f80fd5b50565b5f815190506102b581610291565b92915050565b5f80604083850312156102d1576102d061025d565b5b5f6102de858286016102a7565b92505060206102ef858286016102a7565b9150509250929050565b61030281610280565b82525050565b5f60208201905061031b5f8301846102f9565b92915050565b6128aa8061032e5f395ff3fe608060405234801561000f575f80fd5b50600436106101cd575f3560e01c8063715018a611610102578063b187bd26116100a0578063d358aa201161006f578063d358aa20146104fa578063e0202f8714610518578063f2fde38b14610536578063fa6770b314610552576101cd565b8063b187bd2614610482578063bb4d5e7c146104a0578063bf4dd131146104be578063c54e44eb146104dc576101cd565b80638c65c81f116100dc5780638c65c81f146103e75780638da5cb5b1461041857806391b7f5ed14610436578063a24bcf4614610452576101cd565b8063715018a6146103a15780637ff9b596146103ab5780638a19c8bc146103c9576101cd565b806330db6f951161016f57806348a5c1881161014957806348a5c1881461031a5780635b10493f1461034a57806364e39b871461037b5780636b64c76914610397576101cd565b806330db6f95146102ad5780633c830a38146102c95780633e6968b6146102fc576101cd565b8063174e31c4116101ab578063174e31c41461023957806318d7fa46146102555780632194f3a214610271578063224a80571461028f576101cd565b8063044215c6146101d15780630752881a14610201578063144fa6d71461021d575b5f80fd5b6101eb60048036038101906101e691906119c1565b610572565b6040516101f89190611a66565b60405180910390f35b61021b60048036038101906102169190611acb565b6105ad565b005b61023760048036038101906102329190611b09565b610df6565b005b610253600480360381019061024e9190611b5e565b610e61565b005b61026f600480360381019061026a9190611b9c565b611183565b005b61027961120f565b6040516102869190611bfb565b60405180910390f35b610297611235565b6040516102a49190611c23565b60405180910390f35b6102c760048036038101906102c29190611c71565b61123b565b005b6102e360048036038101906102de91906119c1565b61129a565b6040516102f39493929190611c9c565b60405180910390f35b6103046112c6565b6040516103119190611c23565b60405180910390f35b610334600480360381019061032f9190611cdf565b611358565b6040516103419190611c23565b60405180910390f35b610364600480360381019061035f9190611d1d565b6113c4565b604051610372929190611d48565b60405180910390f35b61039560048036038101906103909190611d1d565b6113e4565b005b61039f611430565b005b6103a96115b5565b005b6103b36115c8565b6040516103c09190611c23565b60405180910390f35b6103d16115ce565b6040516103de9190611c23565b60405180910390f35b61040160048036038101906103fc91906119c1565b6115d4565b60405161040f929190611d48565b60405180910390f35b6104206115f4565b60405161042d9190611bfb565b60405180910390f35b610450600480360381019061044b91906119c1565b61161b565b005b61046c600480360381019061046791906119c1565b61162d565b6040516104799190611c23565b60405180910390f35b61048a611656565b6040516104979190611d7e565b60405180910390f35b6104a8611668565b6040516104b59190611c23565b60405180910390f35b6104c661166e565b6040516104d39190611c23565b60405180910390f35b6104e4611674565b6040516104f19190611a66565b60405180910390f35b610502611699565b60405161050f9190611db7565b60405180910390f35b6105206116be565b60405161052d9190611c23565b60405180910390f35b610550600480360381019061054b9190611d1d565b6116c4565b005b61055a611748565b60405161056993929190611dd0565b60405180910390f35b600a8181548110610581575f80fd5b905f5260205f20015f915054906101000a900473ffffffffffffffffffffffffffffffffffffffff1681565b60095f9054906101000a900460ff16156105fc576040517f08c379a00000000000000000000000000000000000000000000000000000000081526004016105f390611e5f565b60405180910390fd5b600b5f60085481526020019081526020015f2060010154421115610655576040517f08c379a000000000000000000000000000000000000000000000000000000000815260040161064c90611ec7565b60405180910390fd5b5f61065e6112c6565b905060078111156106a4576040517f08c379a000000000000000000000000000000000000000000000000000000000815260040161069b90611f2f565b60405180910390fd5b5f600c5f8381526020019081526020015f2090506007820361071a57600b5f60085481526020019081526020015f2060010154421115610719576040517f08c379a000000000000000000000000000000000000000000000000000000000815260040161071090611f97565b60405180910390fd5b5b60068214806107295750600782145b156107cf5760025f9054906101000a900473ffffffffffffffffffffffffffffffffffffffff1673ffffffffffffffffffffffffffffffffffffffff166370a08231306040518263ffffffff1660e01b81526004016107889190611bfb565b602060405180830381865afa1580156107a3573d5f803e3d5ffd5b505050506040513d601f19601f820116820180604052508101906107c79190611fc9565b815f01819055505b60095f9054906101000a900460ff161561081e576040517f08c379a00000000000000000000000000000000000000000000000000000000081526004016108159061203e565b60405180910390fd5b600454816001015410610866576040517f08c379a000000000000000000000000000000000000000000000000000000000815260040161085d906120a6565b60405180910390fd5b6005548160020154106108ae576040517f08c379a00000000000000000000000000000000000000000000000000000000081526004016108a5906120a6565b60405180910390fd5b6108b78461178c565b6108f6576040517f08c379a00000000000000000000000000000000000000000000000000000000081526004016108ed9061210e565b60405180910390fd5b5f670de0b6b3a76400006003548561090e9190612159565b61091891906121c7565b90508473ffffffffffffffffffffffffffffffffffffffff166323b872dd33600960019054906101000a900473ffffffffffffffffffffffffffffffffffffffff16846040518463ffffffff1660e01b8152600401610979939291906121f7565b6020604051808303815f875af1158015610995573d5f803e3d5ffd5b505050506040513d601f19601f820116820180604052508101906109b99190612240565b6109f8576040517f08c379a00000000000000000000000000000000000000000000000000000000081526004016109ef906122b5565b60405180910390fd5b5f825f0154858460010154610a0d91906122d3565b1115610b3e57825f015483600101541115610a48578260010154858460010154610a3791906122d3565b610a419190612306565b9050610a69565b825f0154858460010154610a5c91906122d3565b610a669190612306565b90505b80836002015f828254610a7c91906122d3565b9250508190555080600d5f3373ffffffffffffffffffffffffffffffffffffffff1673ffffffffffffffffffffffffffffffffffffffff1681526020019081526020015f206001015f828254610ad291906122d3565b92505081905550826003015481610ae99190612159565b600d5f3373ffffffffffffffffffffffffffffffffffffffff1673ffffffffffffffffffffffffffffffffffffffff1681526020019081526020015f205f015f828254610b3691906122d3565b925050819055505b8460065f828254610b4f91906122d3565b9250508190555084836001015f828254610b6991906122d3565b925050819055505f8060025f9054906101000a900473ffffffffffffffffffffffffffffffffffffffff1673ffffffffffffffffffffffffffffffffffffffff16638b3f863f336040518263ffffffff1660e01b8152600401610bcc9190611bfb565b5f60405180830381865afa158015610be6573d5f803e3d5ffd5b505050506040513d5f823e3d601f19601f82011682018060405250810190610c0e9190612475565b905060075442610c1e91906122d3565b915060025f9054906101000a900473ffffffffffffffffffffffffffffffffffffffff1673ffffffffffffffffffffffffffffffffffffffff1663e2ab691d3389856040518463ffffffff1660e01b8152600401610c7e939291906124bc565b6020604051808303815f875af1158015610c9a573d5f803e3d5ffd5b505050506040513d601f19601f82011682018060405250810190610cbe9190612240565b5060025f9054906101000a900473ffffffffffffffffffffffffffffffffffffffff1673ffffffffffffffffffffffffffffffffffffffff1663a9059cbb33896040518363ffffffff1660e01b8152600401610d1b9291906124f1565b6020604051808303815f875af1158015610d37573d5f803e3d5ffd5b505050506040513d601f19601f82011682018060405250810190610d5b9190612240565b610d9a576040517f08c379a0000000000000000000000000000000000000000000000000000000008152600401610d9190612562565b60405180910390fd5b3373ffffffffffffffffffffffffffffffffffffffff167f0d1a0d5e3d583a0e92588799dd06e50fd78c07daf05f0cc06d7b848b1ca445f1858985604051610de493929190611dd0565b60405180910390a25050505050505050565b610dfe61182e565b600a81908060018154018082558091505060019003905f5260205f20015f9091909190916101000a81548173ffffffffffffffffffffffffffffffffffffffff021916908373ffffffffffffffffffffffffffffffffffffffff16021790555050565b60095f9054906101000a900460ff16610eaf576040517f08c379a0000000000000000000000000000000000000000000000000000000008152600401610ea6906125ca565b60405180910390fd5b600b5f60085481526020019081526020015f20600101544211610f07576040517f08c379a0000000000000000000000000000000000000000000000000000000008152600401610efe90612632565b60405180910390fd5b5f600d5f8473ffffffffffffffffffffffffffffffffffffffff1673ffffffffffffffffffffffffffffffffffffffff1681526020019081526020015f205f0154118015610f945750600d5f8373ffffffffffffffffffffffffffffffffffffffff1673ffffffffffffffffffffffffffffffffffffffff1681526020019081526020015f205f01548111155b610fd3576040517f08c379a0000000000000000000000000000000000000000000000000000000008152600401610fca9061269a565b60405180910390fd5b80600d5f8473ffffffffffffffffffffffffffffffffffffffff1673ffffffffffffffffffffffffffffffffffffffff1681526020019081526020015f205f015f8282546110219190612306565b9250508190555060025f9054906101000a900473ffffffffffffffffffffffffffffffffffffffff1673ffffffffffffffffffffffffffffffffffffffff1663a9059cbb83836040518363ffffffff1660e01b81526004016110849291906124f1565b6020604051808303815f875af11580156110a0573d5f803e3d5ffd5b505050506040513d601f19601f820116820180604052508101906110c49190612240565b611103576040517f08c379a00000000000000000000000000000000000000000000000000000000081526004016110fa90612562565b60405180910390fd5b7f622cc013916970f2d0437da0b597aa7a3d762effad3652011e32375c7e455b3182600d5f8573ffffffffffffffffffffffffffffffffffffffff1673ffffffffffffffffffffffffffffffffffffffff1681526020019081526020015f205f0154834260405161117794939291906126b8565b60405180910390a15050565b61118b61182e565b60078310801561119a57505f83115b6111d9576040517f08c379a00000000000000000000000000000000000000000000000000000000081526004016111d090612745565b60405180910390fd5b80600c5f8581526020019081526020015f206003018190555081600c5f8581526020019081526020015f205f0181905550505050565b600960019054906101000a900473ffffffffffffffffffffffffffffffffffffffff1681565b60055481565b61124361182e565b8060095f6101000a81548160ff0219169083151502179055507f237dd0cdf7b3af1cfa9eb04b654f1babb43ddaad2183a8863d9fea7d857aacd633824260405161128f93929190612763565b60405180910390a150565b600c602052805f5260405f205f91509050805f0154908060010154908060020154908060030154905084565b5f80600b5f60085481526020019081526020015f20905060095f9054906101000a900460ff16806112fa5750806001015442115b15611309576008915050611355565b5f815f0154426113199190612306565b90505f6001620151808361132d91906121c7565b61133791906122d3565b9050600781111561134e5760079350505050611355565b8093505050505b90565b5f80600b5f8581526020019081526020015f2090505f816002015f8581526020019081526020015f206040518060800160405290815f82015481526020016001820154815260200160028201548152602001600382015481525050905080602001519250505092915050565b600d602052805f5260405f205f91509050805f0154908060010154905082565b6113ec61182e565b80600960016101000a81548173ffffffffffffffffffffffffffffffffffffffff021916908373ffffffffffffffffffffffffffffffffffffffff16021790555050565b61143861182e565b60095f9054906101000a900460ff16611486576040517f08c379a000000000000000000000000000000000000000000000000000000000815260040161147d906127e2565b60405180910390fd5b5f60095f6101000a81548160ff02191690831515021790555060085f8154809291906114b190612800565b91905055505f600b5f60085481526020019081526020015f20905042815f018190555062093a80426114e391906122d3565b81600101819055505f600190505b6007811161156d576a01a784379d99db42000000600c5f8381526020019081526020015f205f0181905550600581111561153c5760068114611534576001611537565b60025b61153f565b60035b60ff16600c5f8381526020019081526020015f2060030181905550808061156590612800565b9150506114f1565b507f683d0f47c7fa11331f4e9563b3f5a7fdc3d3c5b75c600357a91d991f5a13a437600854825f015483600101546040516115aa93929190611dd0565b60405180910390a150565b6115bd61182e565b6115c65f6118b5565b565b60035481565b60085481565b600b602052805f5260405f205f91509050805f0154908060010154905082565b5f805f9054906101000a900473ffffffffffffffffffffffffffffffffffffffff16905090565b61162361182e565b8060038190555050565b5f600354670de0b6b3a7640000836116459190612159565b61164f91906121c7565b9050919050565b60095f9054906101000a900460ff1681565b60045481565b60075481565b60015f9054906101000a900473ffffffffffffffffffffffffffffffffffffffff1681565b60025f9054906101000a900473ffffffffffffffffffffffffffffffffffffffff1681565b60065481565b6116cc61182e565b5f73ffffffffffffffffffffffffffffffffffffffff168173ffffffffffffffffffffffffffffffffffffffff160361173c575f6040517f1e4fbdf70000000000000000000000000000000000000000000000000000000081526004016117339190611bfb565b60405180910390fd5b611745816118b5565b50565b5f805f600854925082600b5f60085481526020019081526020015f205f0154925082600b5f60085481526020019081526020015f2060010154925092509250909192565b5f805f90505b600a80549050811015611824578273ffffffffffffffffffffffffffffffffffffffff16600a82815481106117ca576117c9612847565b5b905f5260205f20015f9054906101000a900473ffffffffffffffffffffffffffffffffffffffff1673ffffffffffffffffffffffffffffffffffffffff1603611817576001915050611829565b8080600101915050611792565b505f90505b919050565b611836611976565b73ffffffffffffffffffffffffffffffffffffffff166118546115f4565b73ffffffffffffffffffffffffffffffffffffffff16146118b357611877611976565b6040517f118cdaa70000000000000000000000000000000000000000000000000000000081526004016118aa9190611bfb565b60405180910390fd5b565b5f805f9054906101000a900473ffffffffffffffffffffffffffffffffffffffff169050815f806101000a81548173ffffffffffffffffffffffffffffffffffffffff021916908373ffffffffffffffffffffffffffffffffffffffff1602179055508173ffffffffffffffffffffffffffffffffffffffff168173ffffffffffffffffffffffffffffffffffffffff167f8be0079c531659141344cd1fd0a4f28419497f9722a3daafe3b4186f6b6457e060405160405180910390a35050565b5f33905090565b5f604051905090565b5f80fd5b5f80fd5b5f819050919050565b6119a08161198e565b81146119aa575f80fd5b50565b5f813590506119bb81611997565b92915050565b5f602082840312156119d6576119d5611986565b5b5f6119e3848285016119ad565b91505092915050565b5f73ffffffffffffffffffffffffffffffffffffffff82169050919050565b5f819050919050565b5f611a2e611a29611a24846119ec565b611a0b565b6119ec565b9050919050565b5f611a3f82611a14565b9050919050565b5f611a5082611a35565b9050919050565b611a6081611a46565b82525050565b5f602082019050611a795f830184611a57565b92915050565b5f611a89826119ec565b9050919050565b5f611a9a82611a7f565b9050919050565b611aaa81611a90565b8114611ab4575f80fd5b50565b5f81359050611ac581611aa1565b92915050565b5f8060408385031215611ae157611ae0611986565b5b5f611aee85828601611ab7565b9250506020611aff858286016119ad565b9150509250929050565b5f60208284031215611b1e57611b1d611986565b5b5f611b2b84828501611ab7565b91505092915050565b611b3d81611a7f565b8114611b47575f80fd5b50565b5f81359050611b5881611b34565b92915050565b5f8060408385031215611b7457611b73611986565b5b5f611b8185828601611b4a565b9250506020611b92858286016119ad565b9150509250929050565b5f805f60608486031215611bb357611bb2611986565b5b5f611bc0868287016119ad565b9350506020611bd1868287016119ad565b9250506040611be2868287016119ad565b9150509250925092565b611bf581611a7f565b82525050565b5f602082019050611c0e5f830184611bec565b92915050565b611c1d8161198e565b82525050565b5f602082019050611c365f830184611c14565b92915050565b5f8115159050919050565b611c5081611c3c565b8114611c5a575f80fd5b50565b5f81359050611c6b81611c47565b92915050565b5f60208284031215611c8657611c85611986565b5b5f611c9384828501611c5d565b91505092915050565b5f608082019050611caf5f830187611c14565b611cbc6020830186611c14565b611cc96040830185611c14565b611cd66060830184611c14565b95945050505050565b5f8060408385031215611cf557611cf4611986565b5b5f611d02858286016119ad565b9250506020611d13858286016119ad565b9150509250929050565b5f60208284031215611d3257611d31611986565b5b5f611d3f84828501611b4a565b91505092915050565b5f604082019050611d5b5f830185611c14565b611d686020830184611c14565b9392505050565b611d7881611c3c565b82525050565b5f602082019050611d915f830184611d6f565b92915050565b5f611da182611a35565b9050919050565b611db181611d97565b82525050565b5f602082019050611dca5f830184611da8565b92915050565b5f606082019050611de35f830186611c14565b611df06020830185611c14565b611dfd6040830184611c14565b949350505050565b5f82825260208201905092915050565b7f41756374696f6e206973207061757365640000000000000000000000000000005f82015250565b5f611e49601183611e05565b9150611e5482611e15565b602082019050919050565b5f6020820190508181035f830152611e7681611e3d565b9050919050565b7f43757272656e7420726f756e642068617320656e6465640000000000000000005f82015250565b5f611eb1601783611e05565b9150611ebc82611e7d565b602082019050919050565b5f6020820190508181035f830152611ede81611ea5565b9050919050565b7f41756374696f6e20646179732061726520636f6d706c657465000000000000005f82015250565b5f611f19601983611e05565b9150611f2482611ee5565b602082019050919050565b5f6020820190508181035f830152611f4681611f0d565b9050919050565b7f41756374696f6e20726f756e642068617320656e6465640000000000000000005f82015250565b5f611f81601783611e05565b9150611f8c82611f4d565b602082019050919050565b5f6020820190508181035f830152611fae81611f75565b9050919050565b5f81519050611fc381611997565b92915050565b5f60208284031215611fde57611fdd611986565b5b5f611feb84828501611fb5565b91505092915050565b7f41756374696f6e205061757365640000000000000000000000000000000000005f82015250565b5f612028600e83611e05565b915061203382611ff4565b602082019050919050565b5f6020820190508181035f8301526120558161201c565b9050919050565b7f4e6f74206d6f7265207468616e206c696d6974000000000000000000000000005f82015250565b5f612090601383611e05565b915061209b8261205c565b602082019050919050565b5f6020820190508181035f8301526120bd81612084565b9050919050565b7f496e76616c696420746f6b656e206164647265737300000000000000000000005f82015250565b5f6120f8601583611e05565b9150612103826120c4565b602082019050919050565b5f6020820190508181035f830152612125816120ec565b9050919050565b7f4e487b71000000000000000000000000000000000000000000000000000000005f52601160045260245ffd5b5f6121638261198e565b915061216e8361198e565b925082820261217c8161198e565b915082820484148315176121935761219261212c565b5b5092915050565b7f4e487b71000000000000000000000000000000000000000000000000000000005f52601260045260245ffd5b5f6121d18261198e565b91506121dc8361198e565b9250826121ec576121eb61219a565b5b828204905092915050565b5f60608201905061220a5f830186611bec565b6122176020830185611bec565b6122246040830184611c14565b949350505050565b5f8151905061223a81611c47565b92915050565b5f6020828403121561225557612254611986565b5b5f6122628482850161222c565b91505092915050565b7f55534454207472616e73666572206661696c65640000000000000000000000005f82015250565b5f61229f601483611e05565b91506122aa8261226b565b602082019050919050565b5f6020820190508181035f8301526122cc81612293565b9050919050565b5f6122dd8261198e565b91506122e88361198e565b9250828201905080821115612300576122ff61212c565b5b92915050565b5f6123108261198e565b915061231b8361198e565b92508282039050818111156123335761233261212c565b5b92915050565b5f80fd5b5f80fd5b5f601f19601f8301169050919050565b7f4e487b71000000000000000000000000000000000000000000000000000000005f52604160045260245ffd5b61238782612341565b810181811067ffffffffffffffff821117156123a6576123a5612351565b5b80604052505050565b5f6123b861197d565b90506123c4828261237e565b919050565b5f67ffffffffffffffff8211156123e3576123e2612351565b5b6123ec82612341565b9050602081019050919050565b8281835e5f83830152505050565b5f612419612414846123c9565b6123af565b9050828152602081018484840111156124355761243461233d565b5b6124408482856123f9565b509392505050565b5f82601f83011261245c5761245b612339565b5b815161246c848260208601612407565b91505092915050565b5f6020828403121561248a57612489611986565b5b5f82015167ffffffffffffffff8111156124a7576124a661198a565b5b6124b384828501612448565b91505092915050565b5f6060820190506124cf5f830186611bec565b6124dc6020830185611c14565b6124e96040830184611c14565b949350505050565b5f6040820190506125045f830185611bec565b6125116020830184611c14565b9392505050565b7f50726f746f6e20746f6b656e207472616e73666572206661696c6564000000005f82015250565b5f61254c601c83611e05565b915061255782612518565b602082019050919050565b5f6020820190508181035f83015261257981612540565b9050919050565b7f41756374696f6e206973207374696c6c206163746976650000000000000000005f82015250565b5f6125b4601783611e05565b91506125bf82612580565b602082019050919050565b5f6020820190508181035f8301526125e1816125a8565b9050919050565b7f41756374696f6e206461797320617265206e6f7420636f6d706c6574650000005f82015250565b5f61261c601d83611e05565b9150612627826125e8565b602082019050919050565b5f6020820190508181035f83015261264981612610565b9050919050565b7f496e636f72726563742076616c756500000000000000000000000000000000005f82015250565b5f612684600f83611e05565b915061268f82612650565b602082019050919050565b5f6020820190508181035f8301526126b181612678565b9050919050565b5f6080820190506126cb5f830187611bec565b6126d86020830186611c14565b6126e56040830185611c14565b6126f26060830184611c14565b95945050505050565b7f4552524f523a204441592076616c7565000000000000000000000000000000005f82015250565b5f61272f601083611e05565b915061273a826126fb565b602082019050919050565b5f6020820190508181035f83015261275c81612723565b9050919050565b5f6060820190506127765f830186611bec565b6127836020830185611d6f565b6127906040830184611c14565b949350505050565b7f41756374696f6e20616c726561647920737461727465640000000000000000005f82015250565b5f6127cc601783611e05565b91506127d782612798565b602082019050919050565b5f6020820190508181035f8301526127f9816127c0565b9050919050565b5f61280a8261198e565b91507fffffffffffffffffffffffffffffffffffffffffffffffffffffffffffffffff820361283c5761283b61212c565b5b600182019050919050565b7f4e487b71000000000000000000000000000000000000000000000000000000005f52603260045260245ffdfea26469706673582212208d6dd0b922aaccba5cf6a40160d2fcbb95177d482634b5b983c761153267fe0564736f6c63430008190033",
					"opcodes": "PUSH1 0x80 PUSH1 0x40 MSTORE PUSH8 0xDE0B6B3A7640000 PUSH1 0x3 SSTORE PUSH11 0x422CA8B0A00A425000000 PUSH1 0x4 SSTORE PUSH10 0xD3C21BCECCEDA1000000 PUSH1 0x5 SSTORE PUSH1 0xB4 PUSH1 0x7 SSTORE PUSH1 0x1 PUSH1 0x9 PUSH0 PUSH2 0x100 EXP DUP2 SLOAD DUP2 PUSH1 0xFF MUL NOT AND SWAP1 DUP4 ISZERO ISZERO MUL OR SWAP1 SSTORE POP CALLVALUE DUP1 ISZERO PUSH2 0x57 JUMPI PUSH0 DUP1 REVERT JUMPDEST POP PUSH1 0x40 MLOAD PUSH2 0x2BD8 CODESIZE SUB DUP1 PUSH2 0x2BD8 DUP4 CODECOPY DUP2 DUP2 ADD PUSH1 0x40 MSTORE DUP2 ADD SWAP1 PUSH2 0x79 SWAP2 SWAP1 PUSH2 0x2BB JUMP JUMPDEST CALLER PUSH0 PUSH20 0xFFFFFFFFFFFFFFFFFFFFFFFFFFFFFFFFFFFFFFFF AND DUP2 PUSH20 0xFFFFFFFFFFFFFFFFFFFFFFFFFFFFFFFFFFFFFFFF AND SUB PUSH2 0xEA JUMPI PUSH0 PUSH1 0x40 MLOAD PUSH32 0x1E4FBDF700000000000000000000000000000000000000000000000000000000 DUP2 MSTORE PUSH1 0x4 ADD PUSH2 0xE1 SWAP2 SWAP1 PUSH2 0x308 JUMP JUMPDEST PUSH1 0x40 MLOAD DUP1 SWAP2 SUB SWAP1 REVERT JUMPDEST PUSH2 0xF9 DUP2 PUSH2 0x19C PUSH1 0x20 SHL PUSH1 0x20 SHR JUMP JUMPDEST POP DUP2 PUSH1 0x2 PUSH0 PUSH2 0x100 EXP DUP2 SLOAD DUP2 PUSH20 0xFFFFFFFFFFFFFFFFFFFFFFFFFFFFFFFFFFFFFFFF MUL NOT AND SWAP1 DUP4 PUSH20 0xFFFFFFFFFFFFFFFFFFFFFFFFFFFFFFFFFFFFFFFF AND MUL OR SWAP1 SSTORE POP DUP1 PUSH1 0x9 PUSH1 0x1 PUSH2 0x100 EXP DUP2 SLOAD DUP2 PUSH20 0xFFFFFFFFFFFFFFFFFFFFFFFFFFFFFFFFFFFFFFFF MUL NOT AND SWAP1 DUP4 PUSH20 0xFFFFFFFFFFFFFFFFFFFFFFFFFFFFFFFFFFFFFFFF AND MUL OR SWAP1 SSTORE POP PUSH1 0x1 PUSH1 0x9 PUSH0 PUSH2 0x100 EXP DUP2 SLOAD DUP2 PUSH1 0xFF MUL NOT AND SWAP1 DUP4 ISZERO ISZERO MUL OR SWAP1 SSTORE POP POP POP PUSH2 0x321 JUMP JUMPDEST PUSH0 DUP1 PUSH0 SWAP1 SLOAD SWAP1 PUSH2 0x100 EXP SWAP1 DIV PUSH20 0xFFFFFFFFFFFFFFFFFFFFFFFFFFFFFFFFFFFFFFFF AND SWAP1 POP DUP2 PUSH0 DUP1 PUSH2 0x100 EXP DUP2 SLOAD DUP2 PUSH20 0xFFFFFFFFFFFFFFFFFFFFFFFFFFFFFFFFFFFFFFFF MUL NOT AND SWAP1 DUP4 PUSH20 0xFFFFFFFFFFFFFFFFFFFFFFFFFFFFFFFFFFFFFFFF AND MUL OR SWAP1 SSTORE POP DUP2 PUSH20 0xFFFFFFFFFFFFFFFFFFFFFFFFFFFFFFFFFFFFFFFF AND DUP2 PUSH20 0xFFFFFFFFFFFFFFFFFFFFFFFFFFFFFFFFFFFFFFFF AND PUSH32 0x8BE0079C531659141344CD1FD0A4F28419497F9722A3DAAFE3B4186F6B6457E0 PUSH1 0x40 MLOAD PUSH1 0x40 MLOAD DUP1 SWAP2 SUB SWAP1 LOG3 POP POP JUMP JUMPDEST PUSH0 DUP1 REVERT JUMPDEST PUSH0 PUSH20 0xFFFFFFFFFFFFFFFFFFFFFFFFFFFFFFFFFFFFFFFF DUP3 AND SWAP1 POP SWAP2 SWAP1 POP JUMP JUMPDEST PUSH0 PUSH2 0x28A DUP3 PUSH2 0x261 JUMP JUMPDEST SWAP1 POP SWAP2 SWAP1 POP JUMP JUMPDEST PUSH2 0x29A DUP2 PUSH2 0x280 JUMP JUMPDEST DUP2 EQ PUSH2 0x2A4 JUMPI PUSH0 DUP1 REVERT JUMPDEST POP JUMP JUMPDEST PUSH0 DUP2 MLOAD SWAP1 POP PUSH2 0x2B5 DUP2 PUSH2 0x291 JUMP JUMPDEST SWAP3 SWAP2 POP POP JUMP JUMPDEST PUSH0 DUP1 PUSH1 0x40 DUP4 DUP6 SUB SLT ISZERO PUSH2 0x2D1 JUMPI PUSH2 0x2D0 PUSH2 0x25D JUMP JUMPDEST JUMPDEST PUSH0 PUSH2 0x2DE DUP6 DUP3 DUP7 ADD PUSH2 0x2A7 JUMP JUMPDEST SWAP3 POP POP PUSH1 0x20 PUSH2 0x2EF DUP6 DUP3 DUP7 ADD PUSH2 0x2A7 JUMP JUMPDEST SWAP2 POP POP SWAP3 POP SWAP3 SWAP1 POP JUMP JUMPDEST PUSH2 0x302 DUP2 PUSH2 0x280 JUMP JUMPDEST DUP3 MSTORE POP POP JUMP JUMPDEST PUSH0 PUSH1 0x20 DUP3 ADD SWAP1 POP PUSH2 0x31B PUSH0 DUP4 ADD DUP5 PUSH2 0x2F9 JUMP JUMPDEST SWAP3 SWAP2 POP POP JUMP JUMPDEST PUSH2 0x28AA DUP1 PUSH2 0x32E PUSH0 CODECOPY PUSH0 RETURN INVALID PUSH1 0x80 PUSH1 0x40 MSTORE CALLVALUE DUP1 ISZERO PUSH2 0xF JUMPI PUSH0 DUP1 REVERT JUMPDEST POP PUSH1 0x4 CALLDATASIZE LT PUSH2 0x1CD JUMPI PUSH0 CALLDATALOAD PUSH1 0xE0 SHR DUP1 PUSH4 0x715018A6 GT PUSH2 0x102 JUMPI DUP1 PUSH4 0xB187BD26 GT PUSH2 0xA0 JUMPI DUP1 PUSH4 0xD358AA20 GT PUSH2 0x6F JUMPI DUP1 PUSH4 0xD358AA20 EQ PUSH2 0x4FA JUMPI DUP1 PUSH4 0xE0202F87 EQ PUSH2 0x518 JUMPI DUP1 PUSH4 0xF2FDE38B EQ PUSH2 0x536 JUMPI DUP1 PUSH4 0xFA6770B3 EQ PUSH2 0x552 JUMPI PUSH2 0x1CD JUMP JUMPDEST DUP1 PUSH4 0xB187BD26 EQ PUSH2 0x482 JUMPI DUP1 PUSH4 0xBB4D5E7C EQ PUSH2 0x4A0 JUMPI DUP1 PUSH4 0xBF4DD131 EQ PUSH2 0x4BE JUMPI DUP1 PUSH4 0xC54E44EB EQ PUSH2 0x4DC JUMPI PUSH2 0x1CD JUMP JUMPDEST DUP1 PUSH4 0x8C65C81F GT PUSH2 0xDC JUMPI DUP1 PUSH4 0x8C65C81F EQ PUSH2 0x3E7 JUMPI DUP1 PUSH4 0x8DA5CB5B EQ PUSH2 0x418 JUMPI DUP1 PUSH4 0x91B7F5ED EQ PUSH2 0x436 JUMPI DUP1 PUSH4 0xA24BCF46 EQ PUSH2 0x452 JUMPI PUSH2 0x1CD JUMP JUMPDEST DUP1 PUSH4 0x715018A6 EQ PUSH2 0x3A1 JUMPI DUP1 PUSH4 0x7FF9B596 EQ PUSH2 0x3AB JUMPI DUP1 PUSH4 0x8A19C8BC EQ PUSH2 0x3C9 JUMPI PUSH2 0x1CD JUMP JUMPDEST DUP1 PUSH4 0x30DB6F95 GT PUSH2 0x16F JUMPI DUP1 PUSH4 0x48A5C188 GT PUSH2 0x149 JUMPI DUP1 PUSH4 0x48A5C188 EQ PUSH2 0x31A JUMPI DUP1 PUSH4 0x5B10493F EQ PUSH2 0x34A JUMPI DUP1 PUSH4 0x64E39B87 EQ PUSH2 0x37B JUMPI DUP1 PUSH4 0x6B64C769 EQ PUSH2 0x397 JUMPI PUSH2 0x1CD JUMP JUMPDEST DUP1 PUSH4 0x30DB6F95 EQ PUSH2 0x2AD JUMPI DUP1 PUSH4 0x3C830A38 EQ PUSH2 0x2C9 JUMPI DUP1 PUSH4 0x3E6968B6 EQ PUSH2 0x2FC JUMPI PUSH2 0x1CD JUMP JUMPDEST DUP1 PUSH4 0x174E31C4 GT PUSH2 0x1AB JUMPI DUP1 PUSH4 0x174E31C4 EQ PUSH2 0x239 JUMPI DUP1 PUSH4 0x18D7FA46 EQ PUSH2 0x255 JUMPI DUP1 PUSH4 0x2194F3A2 EQ PUSH2 0x271 JUMPI DUP1 PUSH4 0x224A8057 EQ PUSH2 0x28F JUMPI PUSH2 0x1CD JUMP JUMPDEST DUP1 PUSH4 0x44215C6 EQ PUSH2 0x1D1 JUMPI DUP1 PUSH4 0x752881A EQ PUSH2 0x201 JUMPI DUP1 PUSH4 0x144FA6D7 EQ PUSH2 0x21D JUMPI JUMPDEST PUSH0 DUP1 REVERT JUMPDEST PUSH2 0x1EB PUSH1 0x4 DUP1 CALLDATASIZE SUB DUP2 ADD SWAP1 PUSH2 0x1E6 SWAP2 SWAP1 PUSH2 0x19C1 JUMP JUMPDEST PUSH2 0x572 JUMP JUMPDEST PUSH1 0x40 MLOAD PUSH2 0x1F8 SWAP2 SWAP1 PUSH2 0x1A66 JUMP JUMPDEST PUSH1 0x40 MLOAD DUP1 SWAP2 SUB SWAP1 RETURN JUMPDEST PUSH2 0x21B PUSH1 0x4 DUP1 CALLDATASIZE SUB DUP2 ADD SWAP1 PUSH2 0x216 SWAP2 SWAP1 PUSH2 0x1ACB JUMP JUMPDEST PUSH2 0x5AD JUMP JUMPDEST STOP JUMPDEST PUSH2 0x237 PUSH1 0x4 DUP1 CALLDATASIZE SUB DUP2 ADD SWAP1 PUSH2 0x232 SWAP2 SWAP1 PUSH2 0x1B09 JUMP JUMPDEST PUSH2 0xDF6 JUMP JUMPDEST STOP JUMPDEST PUSH2 0x253 PUSH1 0x4 DUP1 CALLDATASIZE SUB DUP2 ADD SWAP1 PUSH2 0x24E SWAP2 SWAP1 PUSH2 0x1B5E JUMP JUMPDEST PUSH2 0xE61 JUMP JUMPDEST STOP JUMPDEST PUSH2 0x26F PUSH1 0x4 DUP1 CALLDATASIZE SUB DUP2 ADD SWAP1 PUSH2 0x26A SWAP2 SWAP1 PUSH2 0x1B9C JUMP JUMPDEST PUSH2 0x1183 JUMP JUMPDEST STOP JUMPDEST PUSH2 0x279 PUSH2 0x120F JUMP JUMPDEST PUSH1 0x40 MLOAD PUSH2 0x286 SWAP2 SWAP1 PUSH2 0x1BFB JUMP JUMPDEST PUSH1 0x40 MLOAD DUP1 SWAP2 SUB SWAP1 RETURN JUMPDEST PUSH2 0x297 PUSH2 0x1235 JUMP JUMPDEST PUSH1 0x40 MLOAD PUSH2 0x2A4 SWAP2 SWAP1 PUSH2 0x1C23 JUMP JUMPDEST PUSH1 0x40 MLOAD DUP1 SWAP2 SUB SWAP1 RETURN JUMPDEST PUSH2 0x2C7 PUSH1 0x4 DUP1 CALLDATASIZE SUB DUP2 ADD SWAP1 PUSH2 0x2C2 SWAP2 SWAP1 PUSH2 0x1C71 JUMP JUMPDEST PUSH2 0x123B JUMP JUMPDEST STOP JUMPDEST PUSH2 0x2E3 PUSH1 0x4 DUP1 CALLDATASIZE SUB DUP2 ADD SWAP1 PUSH2 0x2DE SWAP2 SWAP1 PUSH2 0x19C1 JUMP JUMPDEST PUSH2 0x129A JUMP JUMPDEST PUSH1 0x40 MLOAD PUSH2 0x2F3 SWAP5 SWAP4 SWAP3 SWAP2 SWAP1 PUSH2 0x1C9C JUMP JUMPDEST PUSH1 0x40 MLOAD DUP1 SWAP2 SUB SWAP1 RETURN JUMPDEST PUSH2 0x304 PUSH2 0x12C6 JUMP JUMPDEST PUSH1 0x40 MLOAD PUSH2 0x311 SWAP2 SWAP1 PUSH2 0x1C23 JUMP JUMPDEST PUSH1 0x40 MLOAD DUP1 SWAP2 SUB SWAP1 RETURN JUMPDEST PUSH2 0x334 PUSH1 0x4 DUP1 CALLDATASIZE SUB DUP2 ADD SWAP1 PUSH2 0x32F SWAP2 SWAP1 PUSH2 0x1CDF JUMP JUMPDEST PUSH2 0x1358 JUMP JUMPDEST PUSH1 0x40 MLOAD PUSH2 0x341 SWAP2 SWAP1 PUSH2 0x1C23 JUMP JUMPDEST PUSH1 0x40 MLOAD DUP1 SWAP2 SUB SWAP1 RETURN JUMPDEST PUSH2 0x364 PUSH1 0x4 DUP1 CALLDATASIZE SUB DUP2 ADD SWAP1 PUSH2 0x35F SWAP2 SWAP1 PUSH2 0x1D1D JUMP JUMPDEST PUSH2 0x13C4 JUMP JUMPDEST PUSH1 0x40 MLOAD PUSH2 0x372 SWAP3 SWAP2 SWAP1 PUSH2 0x1D48 JUMP JUMPDEST PUSH1 0x40 MLOAD DUP1 SWAP2 SUB SWAP1 RETURN JUMPDEST PUSH2 0x395 PUSH1 0x4 DUP1 CALLDATASIZE SUB DUP2 ADD SWAP1 PUSH2 0x390 SWAP2 SWAP1 PUSH2 0x1D1D JUMP JUMPDEST PUSH2 0x13E4 JUMP JUMPDEST STOP JUMPDEST PUSH2 0x39F PUSH2 0x1430 JUMP JUMPDEST STOP JUMPDEST PUSH2 0x3A9 PUSH2 0x15B5 JUMP JUMPDEST STOP JUMPDEST PUSH2 0x3B3 PUSH2 0x15C8 JUMP JUMPDEST PUSH1 0x40 MLOAD PUSH2 0x3C0 SWAP2 SWAP1 PUSH2 0x1C23 JUMP JUMPDEST PUSH1 0x40 MLOAD DUP1 SWAP2 SUB SWAP1 RETURN JUMPDEST PUSH2 0x3D1 PUSH2 0x15CE JUMP JUMPDEST PUSH1 0x40 MLOAD PUSH2 0x3DE SWAP2 SWAP1 PUSH2 0x1C23 JUMP JUMPDEST PUSH1 0x40 MLOAD DUP1 SWAP2 SUB SWAP1 RETURN JUMPDEST PUSH2 0x401 PUSH1 0x4 DUP1 CALLDATASIZE SUB DUP2 ADD SWAP1 PUSH2 0x3FC SWAP2 SWAP1 PUSH2 0x19C1 JUMP JUMPDEST PUSH2 0x15D4 JUMP JUMPDEST PUSH1 0x40 MLOAD PUSH2 0x40F SWAP3 SWAP2 SWAP1 PUSH2 0x1D48 JUMP JUMPDEST PUSH1 0x40 MLOAD DUP1 SWAP2 SUB SWAP1 RETURN JUMPDEST PUSH2 0x420 PUSH2 0x15F4 JUMP JUMPDEST PUSH1 0x40 MLOAD PUSH2 0x42D SWAP2 SWAP1 PUSH2 0x1BFB JUMP JUMPDEST PUSH1 0x40 MLOAD DUP1 SWAP2 SUB SWAP1 RETURN JUMPDEST PUSH2 0x450 PUSH1 0x4 DUP1 CALLDATASIZE SUB DUP2 ADD SWAP1 PUSH2 0x44B SWAP2 SWAP1 PUSH2 0x19C1 JUMP JUMPDEST PUSH2 0x161B JUMP JUMPDEST STOP JUMPDEST PUSH2 0x46C PUSH1 0x4 DUP1 CALLDATASIZE SUB DUP2 ADD SWAP1 PUSH2 0x467 SWAP2 SWAP1 PUSH2 0x19C1 JUMP JUMPDEST PUSH2 0x162D JUMP JUMPDEST PUSH1 0x40 MLOAD PUSH2 0x479 SWAP2 SWAP1 PUSH2 0x1C23 JUMP JUMPDEST PUSH1 0x40 MLOAD DUP1 SWAP2 SUB SWAP1 RETURN JUMPDEST PUSH2 0x48A PUSH2 0x1656 JUMP JUMPDEST PUSH1 0x40 MLOAD PUSH2 0x497 SWAP2 SWAP1 PUSH2 0x1D7E JUMP JUMPDEST PUSH1 0x40 MLOAD DUP1 SWAP2 SUB SWAP1 RETURN JUMPDEST PUSH2 0x4A8 PUSH2 0x1668 JUMP JUMPDEST PUSH1 0x40 MLOAD PUSH2 0x4B5 SWAP2 SWAP1 PUSH2 0x1C23 JUMP JUMPDEST PUSH1 0x40 MLOAD DUP1 SWAP2 SUB SWAP1 RETURN JUMPDEST PUSH2 0x4C6 PUSH2 0x166E JUMP JUMPDEST PUSH1 0x40 MLOAD PUSH2 0x4D3 SWAP2 SWAP1 PUSH2 0x1C23 JUMP JUMPDEST PUSH1 0x40 MLOAD DUP1 SWAP2 SUB SWAP1 RETURN JUMPDEST PUSH2 0x4E4 PUSH2 0x1674 JUMP JUMPDEST PUSH1 0x40 MLOAD PUSH2 0x4F1 SWAP2 SWAP1 PUSH2 0x1A66 JUMP JUMPDEST PUSH1 0x40 MLOAD DUP1 SWAP2 SUB SWAP1 RETURN JUMPDEST PUSH2 0x502 PUSH2 0x1699 JUMP JUMPDEST PUSH1 0x40 MLOAD PUSH2 0x50F SWAP2 SWAP1 PUSH2 0x1DB7 JUMP JUMPDEST PUSH1 0x40 MLOAD DUP1 SWAP2 SUB SWAP1 RETURN JUMPDEST PUSH2 0x520 PUSH2 0x16BE JUMP JUMPDEST PUSH1 0x40 MLOAD PUSH2 0x52D SWAP2 SWAP1 PUSH2 0x1C23 JUMP JUMPDEST PUSH1 0x40 MLOAD DUP1 SWAP2 SUB SWAP1 RETURN JUMPDEST PUSH2 0x550 PUSH1 0x4 DUP1 CALLDATASIZE SUB DUP2 ADD SWAP1 PUSH2 0x54B SWAP2 SWAP1 PUSH2 0x1D1D JUMP JUMPDEST PUSH2 0x16C4 JUMP JUMPDEST STOP JUMPDEST PUSH2 0x55A PUSH2 0x1748 JUMP JUMPDEST PUSH1 0x40 MLOAD PUSH2 0x569 SWAP4 SWAP3 SWAP2 SWAP1 PUSH2 0x1DD0 JUMP JUMPDEST PUSH1 0x40 MLOAD DUP1 SWAP2 SUB SWAP1 RETURN JUMPDEST PUSH1 0xA DUP2 DUP2 SLOAD DUP2 LT PUSH2 0x581 JUMPI PUSH0 DUP1 REVERT JUMPDEST SWAP1 PUSH0 MSTORE PUSH1 0x20 PUSH0 KECCAK256 ADD PUSH0 SWAP2 POP SLOAD SWAP1 PUSH2 0x100 EXP SWAP1 DIV PUSH20 0xFFFFFFFFFFFFFFFFFFFFFFFFFFFFFFFFFFFFFFFF AND DUP2 JUMP JUMPDEST PUSH1 0x9 PUSH0 SWAP1 SLOAD SWAP1 PUSH2 0x100 EXP SWAP1 DIV PUSH1 0xFF AND ISZERO PUSH2 0x5FC JUMPI PUSH1 0x40 MLOAD PUSH32 0x8C379A000000000000000000000000000000000000000000000000000000000 DUP2 MSTORE PUSH1 0x4 ADD PUSH2 0x5F3 SWAP1 PUSH2 0x1E5F JUMP JUMPDEST PUSH1 0x40 MLOAD DUP1 SWAP2 SUB SWAP1 REVERT JUMPDEST PUSH1 0xB PUSH0 PUSH1 0x8 SLOAD DUP2 MSTORE PUSH1 0x20 ADD SWAP1 DUP2 MSTORE PUSH1 0x20 ADD PUSH0 KECCAK256 PUSH1 0x1 ADD SLOAD TIMESTAMP GT ISZERO PUSH2 0x655 JUMPI PUSH1 0x40 MLOAD PUSH32 0x8C379A000000000000000000000000000000000000000000000000000000000 DUP2 MSTORE PUSH1 0x4 ADD PUSH2 0x64C SWAP1 PUSH2 0x1EC7 JUMP JUMPDEST PUSH1 0x40 MLOAD DUP1 SWAP2 SUB SWAP1 REVERT JUMPDEST PUSH0 PUSH2 0x65E PUSH2 0x12C6 JUMP JUMPDEST SWAP1 POP PUSH1 0x7 DUP2 GT ISZERO PUSH2 0x6A4 JUMPI PUSH1 0x40 MLOAD PUSH32 0x8C379A000000000000000000000000000000000000000000000000000000000 DUP2 MSTORE PUSH1 0x4 ADD PUSH2 0x69B SWAP1 PUSH2 0x1F2F JUMP JUMPDEST PUSH1 0x40 MLOAD DUP1 SWAP2 SUB SWAP1 REVERT JUMPDEST PUSH0 PUSH1 0xC PUSH0 DUP4 DUP2 MSTORE PUSH1 0x20 ADD SWAP1 DUP2 MSTORE PUSH1 0x20 ADD PUSH0 KECCAK256 SWAP1 POP PUSH1 0x7 DUP3 SUB PUSH2 0x71A JUMPI PUSH1 0xB PUSH0 PUSH1 0x8 SLOAD DUP2 MSTORE PUSH1 0x20 ADD SWAP1 DUP2 MSTORE PUSH1 0x20 ADD PUSH0 KECCAK256 PUSH1 0x1 ADD SLOAD TIMESTAMP GT ISZERO PUSH2 0x719 JUMPI PUSH1 0x40 MLOAD PUSH32 0x8C379A000000000000000000000000000000000000000000000000000000000 DUP2 MSTORE PUSH1 0x4 ADD PUSH2 0x710 SWAP1 PUSH2 0x1F97 JUMP JUMPDEST PUSH1 0x40 MLOAD DUP1 SWAP2 SUB SWAP1 REVERT JUMPDEST JUMPDEST PUSH1 0x6 DUP3 EQ DUP1 PUSH2 0x729 JUMPI POP PUSH1 0x7 DUP3 EQ JUMPDEST ISZERO PUSH2 0x7CF JUMPI PUSH1 0x2 PUSH0 SWAP1 SLOAD SWAP1 PUSH2 0x100 EXP SWAP1 DIV PUSH20 0xFFFFFFFFFFFFFFFFFFFFFFFFFFFFFFFFFFFFFFFF AND PUSH20 0xFFFFFFFFFFFFFFFFFFFFFFFFFFFFFFFFFFFFFFFF AND PUSH4 0x70A08231 ADDRESS PUSH1 0x40 MLOAD DUP3 PUSH4 0xFFFFFFFF AND PUSH1 0xE0 SHL DUP2 MSTORE PUSH1 0x4 ADD PUSH2 0x788 SWAP2 SWAP1 PUSH2 0x1BFB JUMP JUMPDEST PUSH1 0x20 PUSH1 0x40 MLOAD DUP1 DUP4 SUB DUP2 DUP7 GAS STATICCALL ISZERO DUP1 ISZERO PUSH2 0x7A3 JUMPI RETURNDATASIZE PUSH0 DUP1 RETURNDATACOPY RETURNDATASIZE PUSH0 REVERT JUMPDEST POP POP POP POP PUSH1 0x40 MLOAD RETURNDATASIZE PUSH1 0x1F NOT PUSH1 0x1F DUP3 ADD AND DUP3 ADD DUP1 PUSH1 0x40 MSTORE POP DUP2 ADD SWAP1 PUSH2 0x7C7 SWAP2 SWAP1 PUSH2 0x1FC9 JUMP JUMPDEST DUP2 PUSH0 ADD DUP2 SWAP1 SSTORE POP JUMPDEST PUSH1 0x9 PUSH0 SWAP1 SLOAD SWAP1 PUSH2 0x100 EXP SWAP1 DIV PUSH1 0xFF AND ISZERO PUSH2 0x81E JUMPI PUSH1 0x40 MLOAD PUSH32 0x8C379A000000000000000000000000000000000000000000000000000000000 DUP2 MSTORE PUSH1 0x4 ADD PUSH2 0x815 SWAP1 PUSH2 0x203E JUMP JUMPDEST PUSH1 0x40 MLOAD DUP1 SWAP2 SUB SWAP1 REVERT JUMPDEST PUSH1 0x4 SLOAD DUP2 PUSH1 0x1 ADD SLOAD LT PUSH2 0x866 JUMPI PUSH1 0x40 MLOAD PUSH32 0x8C379A000000000000000000000000000000000000000000000000000000000 DUP2 MSTORE PUSH1 0x4 ADD PUSH2 0x85D SWAP1 PUSH2 0x20A6 JUMP JUMPDEST PUSH1 0x40 MLOAD DUP1 SWAP2 SUB SWAP1 REVERT JUMPDEST PUSH1 0x5 SLOAD DUP2 PUSH1 0x2 ADD SLOAD LT PUSH2 0x8AE JUMPI PUSH1 0x40 MLOAD PUSH32 0x8C379A000000000000000000000000000000000000000000000000000000000 DUP2 MSTORE PUSH1 0x4 ADD PUSH2 0x8A5 SWAP1 PUSH2 0x20A6 JUMP JUMPDEST PUSH1 0x40 MLOAD DUP1 SWAP2 SUB SWAP1 REVERT JUMPDEST PUSH2 0x8B7 DUP5 PUSH2 0x178C JUMP JUMPDEST PUSH2 0x8F6 JUMPI PUSH1 0x40 MLOAD PUSH32 0x8C379A000000000000000000000000000000000000000000000000000000000 DUP2 MSTORE PUSH1 0x4 ADD PUSH2 0x8ED SWAP1 PUSH2 0x210E JUMP JUMPDEST PUSH1 0x40 MLOAD DUP1 SWAP2 SUB SWAP1 REVERT JUMPDEST PUSH0 PUSH8 0xDE0B6B3A7640000 PUSH1 0x3 SLOAD DUP6 PUSH2 0x90E SWAP2 SWAP1 PUSH2 0x2159 JUMP JUMPDEST PUSH2 0x918 SWAP2 SWAP1 PUSH2 0x21C7 JUMP JUMPDEST SWAP1 POP DUP5 PUSH20 0xFFFFFFFFFFFFFFFFFFFFFFFFFFFFFFFFFFFFFFFF AND PUSH4 0x23B872DD CALLER PUSH1 0x9 PUSH1 0x1 SWAP1 SLOAD SWAP1 PUSH2 0x100 EXP SWAP1 DIV PUSH20 0xFFFFFFFFFFFFFFFFFFFFFFFFFFFFFFFFFFFFFFFF AND DUP5 PUSH1 0x40 MLOAD DUP5 PUSH4 0xFFFFFFFF AND PUSH1 0xE0 SHL DUP2 MSTORE PUSH1 0x4 ADD PUSH2 0x979 SWAP4 SWAP3 SWAP2 SWAP1 PUSH2 0x21F7 JUMP JUMPDEST PUSH1 0x20 PUSH1 0x40 MLOAD DUP1 DUP4 SUB DUP2 PUSH0 DUP8 GAS CALL ISZERO DUP1 ISZERO PUSH2 0x995 JUMPI RETURNDATASIZE PUSH0 DUP1 RETURNDATACOPY RETURNDATASIZE PUSH0 REVERT JUMPDEST POP POP POP POP PUSH1 0x40 MLOAD RETURNDATASIZE PUSH1 0x1F NOT PUSH1 0x1F DUP3 ADD AND DUP3 ADD DUP1 PUSH1 0x40 MSTORE POP DUP2 ADD SWAP1 PUSH2 0x9B9 SWAP2 SWAP1 PUSH2 0x2240 JUMP JUMPDEST PUSH2 0x9F8 JUMPI PUSH1 0x40 MLOAD PUSH32 0x8C379A000000000000000000000000000000000000000000000000000000000 DUP2 MSTORE PUSH1 0x4 ADD PUSH2 0x9EF SWAP1 PUSH2 0x22B5 JUMP JUMPDEST PUSH1 0x40 MLOAD DUP1 SWAP2 SUB SWAP1 REVERT JUMPDEST PUSH0 DUP3 PUSH0 ADD SLOAD DUP6 DUP5 PUSH1 0x1 ADD SLOAD PUSH2 0xA0D SWAP2 SWAP1 PUSH2 0x22D3 JUMP JUMPDEST GT ISZERO PUSH2 0xB3E JUMPI DUP3 PUSH0 ADD SLOAD DUP4 PUSH1 0x1 ADD SLOAD GT ISZERO PUSH2 0xA48 JUMPI DUP3 PUSH1 0x1 ADD SLOAD DUP6 DUP5 PUSH1 0x1 ADD SLOAD PUSH2 0xA37 SWAP2 SWAP1 PUSH2 0x22D3 JUMP JUMPDEST PUSH2 0xA41 SWAP2 SWAP1 PUSH2 0x2306 JUMP JUMPDEST SWAP1 POP PUSH2 0xA69 JUMP JUMPDEST DUP3 PUSH0 ADD SLOAD DUP6 DUP5 PUSH1 0x1 ADD SLOAD PUSH2 0xA5C SWAP2 SWAP1 PUSH2 0x22D3 JUMP JUMPDEST PUSH2 0xA66 SWAP2 SWAP1 PUSH2 0x2306 JUMP JUMPDEST SWAP1 POP JUMPDEST DUP1 DUP4 PUSH1 0x2 ADD PUSH0 DUP3 DUP3 SLOAD PUSH2 0xA7C SWAP2 SWAP1 PUSH2 0x22D3 JUMP JUMPDEST SWAP3 POP POP DUP2 SWAP1 SSTORE POP DUP1 PUSH1 0xD PUSH0 CALLER PUSH20 0xFFFFFFFFFFFFFFFFFFFFFFFFFFFFFFFFFFFFFFFF AND PUSH20 0xFFFFFFFFFFFFFFFFFFFFFFFFFFFFFFFFFFFFFFFF AND DUP2 MSTORE PUSH1 0x20 ADD SWAP1 DUP2 MSTORE PUSH1 0x20 ADD PUSH0 KECCAK256 PUSH1 0x1 ADD PUSH0 DUP3 DUP3 SLOAD PUSH2 0xAD2 SWAP2 SWAP1 PUSH2 0x22D3 JUMP JUMPDEST SWAP3 POP POP DUP2 SWAP1 SSTORE POP DUP3 PUSH1 0x3 ADD SLOAD DUP2 PUSH2 0xAE9 SWAP2 SWAP1 PUSH2 0x2159 JUMP JUMPDEST PUSH1 0xD PUSH0 CALLER PUSH20 0xFFFFFFFFFFFFFFFFFFFFFFFFFFFFFFFFFFFFFFFF AND PUSH20 0xFFFFFFFFFFFFFFFFFFFFFFFFFFFFFFFFFFFFFFFF AND DUP2 MSTORE PUSH1 0x20 ADD SWAP1 DUP2 MSTORE PUSH1 0x20 ADD PUSH0 KECCAK256 PUSH0 ADD PUSH0 DUP3 DUP3 SLOAD PUSH2 0xB36 SWAP2 SWAP1 PUSH2 0x22D3 JUMP JUMPDEST SWAP3 POP POP DUP2 SWAP1 SSTORE POP JUMPDEST DUP5 PUSH1 0x6 PUSH0 DUP3 DUP3 SLOAD PUSH2 0xB4F SWAP2 SWAP1 PUSH2 0x22D3 JUMP JUMPDEST SWAP3 POP POP DUP2 SWAP1 SSTORE POP DUP5 DUP4 PUSH1 0x1 ADD PUSH0 DUP3 DUP3 SLOAD PUSH2 0xB69 SWAP2 SWAP1 PUSH2 0x22D3 JUMP JUMPDEST SWAP3 POP POP DUP2 SWAP1 SSTORE POP PUSH0 DUP1 PUSH1 0x2 PUSH0 SWAP1 SLOAD SWAP1 PUSH2 0x100 EXP SWAP1 DIV PUSH20 0xFFFFFFFFFFFFFFFFFFFFFFFFFFFFFFFFFFFFFFFF AND PUSH20 0xFFFFFFFFFFFFFFFFFFFFFFFFFFFFFFFFFFFFFFFF AND PUSH4 0x8B3F863F CALLER PUSH1 0x40 MLOAD DUP3 PUSH4 0xFFFFFFFF AND PUSH1 0xE0 SHL DUP2 MSTORE PUSH1 0x4 ADD PUSH2 0xBCC SWAP2 SWAP1 PUSH2 0x1BFB JUMP JUMPDEST PUSH0 PUSH1 0x40 MLOAD DUP1 DUP4 SUB DUP2 DUP7 GAS STATICCALL ISZERO DUP1 ISZERO PUSH2 0xBE6 JUMPI RETURNDATASIZE PUSH0 DUP1 RETURNDATACOPY RETURNDATASIZE PUSH0 REVERT JUMPDEST POP POP POP POP PUSH1 0x40 MLOAD RETURNDATASIZE PUSH0 DUP3 RETURNDATACOPY RETURNDATASIZE PUSH1 0x1F NOT PUSH1 0x1F DUP3 ADD AND DUP3 ADD DUP1 PUSH1 0x40 MSTORE POP DUP2 ADD SWAP1 PUSH2 0xC0E SWAP2 SWAP1 PUSH2 0x2475 JUMP JUMPDEST SWAP1 POP PUSH1 0x7 SLOAD TIMESTAMP PUSH2 0xC1E SWAP2 SWAP1 PUSH2 0x22D3 JUMP JUMPDEST SWAP2 POP PUSH1 0x2 PUSH0 SWAP1 SLOAD SWAP1 PUSH2 0x100 EXP SWAP1 DIV PUSH20 0xFFFFFFFFFFFFFFFFFFFFFFFFFFFFFFFFFFFFFFFF AND PUSH20 0xFFFFFFFFFFFFFFFFFFFFFFFFFFFFFFFFFFFFFFFF AND PUSH4 0xE2AB691D CALLER DUP10 DUP6 PUSH1 0x40 MLOAD DUP5 PUSH4 0xFFFFFFFF AND PUSH1 0xE0 SHL DUP2 MSTORE PUSH1 0x4 ADD PUSH2 0xC7E SWAP4 SWAP3 SWAP2 SWAP1 PUSH2 0x24BC JUMP JUMPDEST PUSH1 0x20 PUSH1 0x40 MLOAD DUP1 DUP4 SUB DUP2 PUSH0 DUP8 GAS CALL ISZERO DUP1 ISZERO PUSH2 0xC9A JUMPI RETURNDATASIZE PUSH0 DUP1 RETURNDATACOPY RETURNDATASIZE PUSH0 REVERT JUMPDEST POP POP POP POP PUSH1 0x40 MLOAD RETURNDATASIZE PUSH1 0x1F NOT PUSH1 0x1F DUP3 ADD AND DUP3 ADD DUP1 PUSH1 0x40 MSTORE POP DUP2 ADD SWAP1 PUSH2 0xCBE SWAP2 SWAP1 PUSH2 0x2240 JUMP JUMPDEST POP PUSH1 0x2 PUSH0 SWAP1 SLOAD SWAP1 PUSH2 0x100 EXP SWAP1 DIV PUSH20 0xFFFFFFFFFFFFFFFFFFFFFFFFFFFFFFFFFFFFFFFF AND PUSH20 0xFFFFFFFFFFFFFFFFFFFFFFFFFFFFFFFFFFFFFFFF AND PUSH4 0xA9059CBB CALLER DUP10 PUSH1 0x40 MLOAD DUP4 PUSH4 0xFFFFFFFF AND PUSH1 0xE0 SHL DUP2 MSTORE PUSH1 0x4 ADD PUSH2 0xD1B SWAP3 SWAP2 SWAP1 PUSH2 0x24F1 JUMP JUMPDEST PUSH1 0x20 PUSH1 0x40 MLOAD DUP1 DUP4 SUB DUP2 PUSH0 DUP8 GAS CALL ISZERO DUP1 ISZERO PUSH2 0xD37 JUMPI RETURNDATASIZE PUSH0 DUP1 RETURNDATACOPY RETURNDATASIZE PUSH0 REVERT JUMPDEST POP POP POP POP PUSH1 0x40 MLOAD RETURNDATASIZE PUSH1 0x1F NOT PUSH1 0x1F DUP3 ADD AND DUP3 ADD DUP1 PUSH1 0x40 MSTORE POP DUP2 ADD SWAP1 PUSH2 0xD5B SWAP2 SWAP1 PUSH2 0x2240 JUMP JUMPDEST PUSH2 0xD9A JUMPI PUSH1 0x40 MLOAD PUSH32 0x8C379A000000000000000000000000000000000000000000000000000000000 DUP2 MSTORE PUSH1 0x4 ADD PUSH2 0xD91 SWAP1 PUSH2 0x2562 JUMP JUMPDEST PUSH1 0x40 MLOAD DUP1 SWAP2 SUB SWAP1 REVERT JUMPDEST CALLER PUSH20 0xFFFFFFFFFFFFFFFFFFFFFFFFFFFFFFFFFFFFFFFF AND PUSH32 0xD1A0D5E3D583A0E92588799DD06E50FD78C07DAF05F0CC06D7B848B1CA445F1 DUP6 DUP10 DUP6 PUSH1 0x40 MLOAD PUSH2 0xDE4 SWAP4 SWAP3 SWAP2 SWAP1 PUSH2 0x1DD0 JUMP JUMPDEST PUSH1 0x40 MLOAD DUP1 SWAP2 SUB SWAP1 LOG2 POP POP POP POP POP POP POP POP JUMP JUMPDEST PUSH2 0xDFE PUSH2 0x182E JUMP JUMPDEST PUSH1 0xA DUP2 SWAP1 DUP1 PUSH1 0x1 DUP2 SLOAD ADD DUP1 DUP3 SSTORE DUP1 SWAP2 POP POP PUSH1 0x1 SWAP1 SUB SWAP1 PUSH0 MSTORE PUSH1 0x20 PUSH0 KECCAK256 ADD PUSH0 SWAP1 SWAP2 SWAP1 SWAP2 SWAP1 SWAP2 PUSH2 0x100 EXP DUP2 SLOAD DUP2 PUSH20 0xFFFFFFFFFFFFFFFFFFFFFFFFFFFFFFFFFFFFFFFF MUL NOT AND SWAP1 DUP4 PUSH20 0xFFFFFFFFFFFFFFFFFFFFFFFFFFFFFFFFFFFFFFFF AND MUL OR SWAP1 SSTORE POP POP JUMP JUMPDEST PUSH1 0x9 PUSH0 SWAP1 SLOAD SWAP1 PUSH2 0x100 EXP SWAP1 DIV PUSH1 0xFF AND PUSH2 0xEAF JUMPI PUSH1 0x40 MLOAD PUSH32 0x8C379A000000000000000000000000000000000000000000000000000000000 DUP2 MSTORE PUSH1 0x4 ADD PUSH2 0xEA6 SWAP1 PUSH2 0x25CA JUMP JUMPDEST PUSH1 0x40 MLOAD DUP1 SWAP2 SUB SWAP1 REVERT JUMPDEST PUSH1 0xB PUSH0 PUSH1 0x8 SLOAD DUP2 MSTORE PUSH1 0x20 ADD SWAP1 DUP2 MSTORE PUSH1 0x20 ADD PUSH0 KECCAK256 PUSH1 0x1 ADD SLOAD TIMESTAMP GT PUSH2 0xF07 JUMPI PUSH1 0x40 MLOAD PUSH32 0x8C379A000000000000000000000000000000000000000000000000000000000 DUP2 MSTORE PUSH1 0x4 ADD PUSH2 0xEFE SWAP1 PUSH2 0x2632 JUMP JUMPDEST PUSH1 0x40 MLOAD DUP1 SWAP2 SUB SWAP1 REVERT JUMPDEST PUSH0 PUSH1 0xD PUSH0 DUP5 PUSH20 0xFFFFFFFFFFFFFFFFFFFFFFFFFFFFFFFFFFFFFFFF AND PUSH20 0xFFFFFFFFFFFFFFFFFFFFFFFFFFFFFFFFFFFFFFFF AND DUP2 MSTORE PUSH1 0x20 ADD SWAP1 DUP2 MSTORE PUSH1 0x20 ADD PUSH0 KECCAK256 PUSH0 ADD SLOAD GT DUP1 ISZERO PUSH2 0xF94 JUMPI POP PUSH1 0xD PUSH0 DUP4 PUSH20 0xFFFFFFFFFFFFFFFFFFFFFFFFFFFFFFFFFFFFFFFF AND PUSH20 0xFFFFFFFFFFFFFFFFFFFFFFFFFFFFFFFFFFFFFFFF AND DUP2 MSTORE PUSH1 0x20 ADD SWAP1 DUP2 MSTORE PUSH1 0x20 ADD PUSH0 KECCAK256 PUSH0 ADD SLOAD DUP2 GT ISZERO JUMPDEST PUSH2 0xFD3 JUMPI PUSH1 0x40 MLOAD PUSH32 0x8C379A000000000000000000000000000000000000000000000000000000000 DUP2 MSTORE PUSH1 0x4 ADD PUSH2 0xFCA SWAP1 PUSH2 0x269A JUMP JUMPDEST PUSH1 0x40 MLOAD DUP1 SWAP2 SUB SWAP1 REVERT JUMPDEST DUP1 PUSH1 0xD PUSH0 DUP5 PUSH20 0xFFFFFFFFFFFFFFFFFFFFFFFFFFFFFFFFFFFFFFFF AND PUSH20 0xFFFFFFFFFFFFFFFFFFFFFFFFFFFFFFFFFFFFFFFF AND DUP2 MSTORE PUSH1 0x20 ADD SWAP1 DUP2 MSTORE PUSH1 0x20 ADD PUSH0 KECCAK256 PUSH0 ADD PUSH0 DUP3 DUP3 SLOAD PUSH2 0x1021 SWAP2 SWAP1 PUSH2 0x2306 JUMP JUMPDEST SWAP3 POP POP DUP2 SWAP1 SSTORE POP PUSH1 0x2 PUSH0 SWAP1 SLOAD SWAP1 PUSH2 0x100 EXP SWAP1 DIV PUSH20 0xFFFFFFFFFFFFFFFFFFFFFFFFFFFFFFFFFFFFFFFF AND PUSH20 0xFFFFFFFFFFFFFFFFFFFFFFFFFFFFFFFFFFFFFFFF AND PUSH4 0xA9059CBB DUP4 DUP4 PUSH1 0x40 MLOAD DUP4 PUSH4 0xFFFFFFFF AND PUSH1 0xE0 SHL DUP2 MSTORE PUSH1 0x4 ADD PUSH2 0x1084 SWAP3 SWAP2 SWAP1 PUSH2 0x24F1 JUMP JUMPDEST PUSH1 0x20 PUSH1 0x40 MLOAD DUP1 DUP4 SUB DUP2 PUSH0 DUP8 GAS CALL ISZERO DUP1 ISZERO PUSH2 0x10A0 JUMPI RETURNDATASIZE PUSH0 DUP1 RETURNDATACOPY RETURNDATASIZE PUSH0 REVERT JUMPDEST POP POP POP POP PUSH1 0x40 MLOAD RETURNDATASIZE PUSH1 0x1F NOT PUSH1 0x1F DUP3 ADD AND DUP3 ADD DUP1 PUSH1 0x40 MSTORE POP DUP2 ADD SWAP1 PUSH2 0x10C4 SWAP2 SWAP1 PUSH2 0x2240 JUMP JUMPDEST PUSH2 0x1103 JUMPI PUSH1 0x40 MLOAD PUSH32 0x8C379A000000000000000000000000000000000000000000000000000000000 DUP2 MSTORE PUSH1 0x4 ADD PUSH2 0x10FA SWAP1 PUSH2 0x2562 JUMP JUMPDEST PUSH1 0x40 MLOAD DUP1 SWAP2 SUB SWAP1 REVERT JUMPDEST PUSH32 0x622CC013916970F2D0437DA0B597AA7A3D762EFFAD3652011E32375C7E455B31 DUP3 PUSH1 0xD PUSH0 DUP6 PUSH20 0xFFFFFFFFFFFFFFFFFFFFFFFFFFFFFFFFFFFFFFFF AND PUSH20 0xFFFFFFFFFFFFFFFFFFFFFFFFFFFFFFFFFFFFFFFF AND DUP2 MSTORE PUSH1 0x20 ADD SWAP1 DUP2 MSTORE PUSH1 0x20 ADD PUSH0 KECCAK256 PUSH0 ADD SLOAD DUP4 TIMESTAMP PUSH1 0x40 MLOAD PUSH2 0x1177 SWAP5 SWAP4 SWAP3 SWAP2 SWAP1 PUSH2 0x26B8 JUMP JUMPDEST PUSH1 0x40 MLOAD DUP1 SWAP2 SUB SWAP1 LOG1 POP POP JUMP JUMPDEST PUSH2 0x118B PUSH2 0x182E JUMP JUMPDEST PUSH1 0x7 DUP4 LT DUP1 ISZERO PUSH2 0x119A JUMPI POP PUSH0 DUP4 GT JUMPDEST PUSH2 0x11D9 JUMPI PUSH1 0x40 MLOAD PUSH32 0x8C379A000000000000000000000000000000000000000000000000000000000 DUP2 MSTORE PUSH1 0x4 ADD PUSH2 0x11D0 SWAP1 PUSH2 0x2745 JUMP JUMPDEST PUSH1 0x40 MLOAD DUP1 SWAP2 SUB SWAP1 REVERT JUMPDEST DUP1 PUSH1 0xC PUSH0 DUP6 DUP2 MSTORE PUSH1 0x20 ADD SWAP1 DUP2 MSTORE PUSH1 0x20 ADD PUSH0 KECCAK256 PUSH1 0x3 ADD DUP2 SWAP1 SSTORE POP DUP2 PUSH1 0xC PUSH0 DUP6 DUP2 MSTORE PUSH1 0x20 ADD SWAP1 DUP2 MSTORE PUSH1 0x20 ADD PUSH0 KECCAK256 PUSH0 ADD DUP2 SWAP1 SSTORE POP POP POP POP JUMP JUMPDEST PUSH1 0x9 PUSH1 0x1 SWAP1 SLOAD SWAP1 PUSH2 0x100 EXP SWAP1 DIV PUSH20 0xFFFFFFFFFFFFFFFFFFFFFFFFFFFFFFFFFFFFFFFF AND DUP2 JUMP JUMPDEST PUSH1 0x5 SLOAD DUP2 JUMP JUMPDEST PUSH2 0x1243 PUSH2 0x182E JUMP JUMPDEST DUP1 PUSH1 0x9 PUSH0 PUSH2 0x100 EXP DUP2 SLOAD DUP2 PUSH1 0xFF MUL NOT AND SWAP1 DUP4 ISZERO ISZERO MUL OR SWAP1 SSTORE POP PUSH32 0x237DD0CDF7B3AF1CFA9EB04B654F1BABB43DDAAD2183A8863D9FEA7D857AACD6 CALLER DUP3 TIMESTAMP PUSH1 0x40 MLOAD PUSH2 0x128F SWAP4 SWAP3 SWAP2 SWAP1 PUSH2 0x2763 JUMP JUMPDEST PUSH1 0x40 MLOAD DUP1 SWAP2 SUB SWAP1 LOG1 POP JUMP JUMPDEST PUSH1 0xC PUSH1 0x20 MSTORE DUP1 PUSH0 MSTORE PUSH1 0x40 PUSH0 KECCAK256 PUSH0 SWAP2 POP SWAP1 POP DUP1 PUSH0 ADD SLOAD SWAP1 DUP1 PUSH1 0x1 ADD SLOAD SWAP1 DUP1 PUSH1 0x2 ADD SLOAD SWAP1 DUP1 PUSH1 0x3 ADD SLOAD SWAP1 POP DUP5 JUMP JUMPDEST PUSH0 DUP1 PUSH1 0xB PUSH0 PUSH1 0x8 SLOAD DUP2 MSTORE PUSH1 0x20 ADD SWAP1 DUP2 MSTORE PUSH1 0x20 ADD PUSH0 KECCAK256 SWAP1 POP PUSH1 0x9 PUSH0 SWAP1 SLOAD SWAP1 PUSH2 0x100 EXP SWAP1 DIV PUSH1 0xFF AND DUP1 PUSH2 0x12FA JUMPI POP DUP1 PUSH1 0x1 ADD SLOAD TIMESTAMP GT JUMPDEST ISZERO PUSH2 0x1309 JUMPI PUSH1 0x8 SWAP2 POP POP PUSH2 0x1355 JUMP JUMPDEST PUSH0 DUP2 PUSH0 ADD SLOAD TIMESTAMP PUSH2 0x1319 SWAP2 SWAP1 PUSH2 0x2306 JUMP JUMPDEST SWAP1 POP PUSH0 PUSH1 0x1 PUSH3 0x15180 DUP4 PUSH2 0x132D SWAP2 SWAP1 PUSH2 0x21C7 JUMP JUMPDEST PUSH2 0x1337 SWAP2 SWAP1 PUSH2 0x22D3 JUMP JUMPDEST SWAP1 POP PUSH1 0x7 DUP2 GT ISZERO PUSH2 0x134E JUMPI PUSH1 0x7 SWAP4 POP POP POP POP PUSH2 0x1355 JUMP JUMPDEST DUP1 SWAP4 POP POP POP POP JUMPDEST SWAP1 JUMP JUMPDEST PUSH0 DUP1 PUSH1 0xB PUSH0 DUP6 DUP2 MSTORE PUSH1 0x20 ADD SWAP1 DUP2 MSTORE PUSH1 0x20 ADD PUSH0 KECCAK256 SWAP1 POP PUSH0 DUP2 PUSH1 0x2 ADD PUSH0 DUP6 DUP2 MSTORE PUSH1 0x20 ADD SWAP1 DUP2 MSTORE PUSH1 0x20 ADD PUSH0 KECCAK256 PUSH1 0x40 MLOAD DUP1 PUSH1 0x80 ADD PUSH1 0x40 MSTORE SWAP1 DUP2 PUSH0 DUP3 ADD SLOAD DUP2 MSTORE PUSH1 0x20 ADD PUSH1 0x1 DUP3 ADD SLOAD DUP2 MSTORE PUSH1 0x20 ADD PUSH1 0x2 DUP3 ADD SLOAD DUP2 MSTORE PUSH1 0x20 ADD PUSH1 0x3 DUP3 ADD SLOAD DUP2 MSTORE POP POP SWAP1 POP DUP1 PUSH1 0x20 ADD MLOAD SWAP3 POP POP POP SWAP3 SWAP2 POP POP JUMP JUMPDEST PUSH1 0xD PUSH1 0x20 MSTORE DUP1 PUSH0 MSTORE PUSH1 0x40 PUSH0 KECCAK256 PUSH0 SWAP2 POP SWAP1 POP DUP1 PUSH0 ADD SLOAD SWAP1 DUP1 PUSH1 0x1 ADD SLOAD SWAP1 POP DUP3 JUMP JUMPDEST PUSH2 0x13EC PUSH2 0x182E JUMP JUMPDEST DUP1 PUSH1 0x9 PUSH1 0x1 PUSH2 0x100 EXP DUP2 SLOAD DUP2 PUSH20 0xFFFFFFFFFFFFFFFFFFFFFFFFFFFFFFFFFFFFFFFF MUL NOT AND SWAP1 DUP4 PUSH20 0xFFFFFFFFFFFFFFFFFFFFFFFFFFFFFFFFFFFFFFFF AND MUL OR SWAP1 SSTORE POP POP JUMP JUMPDEST PUSH2 0x1438 PUSH2 0x182E JUMP JUMPDEST PUSH1 0x9 PUSH0 SWAP1 SLOAD SWAP1 PUSH2 0x100 EXP SWAP1 DIV PUSH1 0xFF AND PUSH2 0x1486 JUMPI PUSH1 0x40 MLOAD PUSH32 0x8C379A000000000000000000000000000000000000000000000000000000000 DUP2 MSTORE PUSH1 0x4 ADD PUSH2 0x147D SWAP1 PUSH2 0x27E2 JUMP JUMPDEST PUSH1 0x40 MLOAD DUP1 SWAP2 SUB SWAP1 REVERT JUMPDEST PUSH0 PUSH1 0x9 PUSH0 PUSH2 0x100 EXP DUP2 SLOAD DUP2 PUSH1 0xFF MUL NOT AND SWAP1 DUP4 ISZERO ISZERO MUL OR SWAP1 SSTORE POP PUSH1 0x8 PUSH0 DUP2 SLOAD DUP1 SWAP3 SWAP2 SWAP1 PUSH2 0x14B1 SWAP1 PUSH2 0x2800 JUMP JUMPDEST SWAP2 SWAP1 POP SSTORE POP PUSH0 PUSH1 0xB PUSH0 PUSH1 0x8 SLOAD DUP2 MSTORE PUSH1 0x20 ADD SWAP1 DUP2 MSTORE PUSH1 0x20 ADD PUSH0 KECCAK256 SWAP1 POP TIMESTAMP DUP2 PUSH0 ADD DUP2 SWAP1 SSTORE POP PUSH3 0x93A80 TIMESTAMP PUSH2 0x14E3 SWAP2 SWAP1 PUSH2 0x22D3 JUMP JUMPDEST DUP2 PUSH1 0x1 ADD DUP2 SWAP1 SSTORE POP PUSH0 PUSH1 0x1 SWAP1 POP JUMPDEST PUSH1 0x7 DUP2 GT PUSH2 0x156D JUMPI PUSH11 0x1A784379D99DB42000000 PUSH1 0xC PUSH0 DUP4 DUP2 MSTORE PUSH1 0x20 ADD SWAP1 DUP2 MSTORE PUSH1 0x20 ADD PUSH0 KECCAK256 PUSH0 ADD DUP2 SWAP1 SSTORE POP PUSH1 0x5 DUP2 GT ISZERO PUSH2 0x153C JUMPI PUSH1 0x6 DUP2 EQ PUSH2 0x1534 JUMPI PUSH1 0x1 PUSH2 0x1537 JUMP JUMPDEST PUSH1 0x2 JUMPDEST PUSH2 0x153F JUMP JUMPDEST PUSH1 0x3 JUMPDEST PUSH1 0xFF AND PUSH1 0xC PUSH0 DUP4 DUP2 MSTORE PUSH1 0x20 ADD SWAP1 DUP2 MSTORE PUSH1 0x20 ADD PUSH0 KECCAK256 PUSH1 0x3 ADD DUP2 SWAP1 SSTORE POP DUP1 DUP1 PUSH2 0x1565 SWAP1 PUSH2 0x2800 JUMP JUMPDEST SWAP2 POP POP PUSH2 0x14F1 JUMP JUMPDEST POP PUSH32 0x683D0F47C7FA11331F4E9563B3F5A7FDC3D3C5B75C600357A91D991F5A13A437 PUSH1 0x8 SLOAD DUP3 PUSH0 ADD SLOAD DUP4 PUSH1 0x1 ADD SLOAD PUSH1 0x40 MLOAD PUSH2 0x15AA SWAP4 SWAP3 SWAP2 SWAP1 PUSH2 0x1DD0 JUMP JUMPDEST PUSH1 0x40 MLOAD DUP1 SWAP2 SUB SWAP1 LOG1 POP JUMP JUMPDEST PUSH2 0x15BD PUSH2 0x182E JUMP JUMPDEST PUSH2 0x15C6 PUSH0 PUSH2 0x18B5 JUMP JUMPDEST JUMP JUMPDEST PUSH1 0x3 SLOAD DUP2 JUMP JUMPDEST PUSH1 0x8 SLOAD DUP2 JUMP JUMPDEST PUSH1 0xB PUSH1 0x20 MSTORE DUP1 PUSH0 MSTORE PUSH1 0x40 PUSH0 KECCAK256 PUSH0 SWAP2 POP SWAP1 POP DUP1 PUSH0 ADD SLOAD SWAP1 DUP1 PUSH1 0x1 ADD SLOAD SWAP1 POP DUP3 JUMP JUMPDEST PUSH0 DUP1 PUSH0 SWAP1 SLOAD SWAP1 PUSH2 0x100 EXP SWAP1 DIV PUSH20 0xFFFFFFFFFFFFFFFFFFFFFFFFFFFFFFFFFFFFFFFF AND SWAP1 POP SWAP1 JUMP JUMPDEST PUSH2 0x1623 PUSH2 0x182E JUMP JUMPDEST DUP1 PUSH1 0x3 DUP2 SWAP1 SSTORE POP POP JUMP JUMPDEST PUSH0 PUSH1 0x3 SLOAD PUSH8 0xDE0B6B3A7640000 DUP4 PUSH2 0x1645 SWAP2 SWAP1 PUSH2 0x2159 JUMP JUMPDEST PUSH2 0x164F SWAP2 SWAP1 PUSH2 0x21C7 JUMP JUMPDEST SWAP1 POP SWAP2 SWAP1 POP JUMP JUMPDEST PUSH1 0x9 PUSH0 SWAP1 SLOAD SWAP1 PUSH2 0x100 EXP SWAP1 DIV PUSH1 0xFF AND DUP2 JUMP JUMPDEST PUSH1 0x4 SLOAD DUP2 JUMP JUMPDEST PUSH1 0x7 SLOAD DUP2 JUMP JUMPDEST PUSH1 0x1 PUSH0 SWAP1 SLOAD SWAP1 PUSH2 0x100 EXP SWAP1 DIV PUSH20 0xFFFFFFFFFFFFFFFFFFFFFFFFFFFFFFFFFFFFFFFF AND DUP2 JUMP JUMPDEST PUSH1 0x2 PUSH0 SWAP1 SLOAD SWAP1 PUSH2 0x100 EXP SWAP1 DIV PUSH20 0xFFFFFFFFFFFFFFFFFFFFFFFFFFFFFFFFFFFFFFFF AND DUP2 JUMP JUMPDEST PUSH1 0x6 SLOAD DUP2 JUMP JUMPDEST PUSH2 0x16CC PUSH2 0x182E JUMP JUMPDEST PUSH0 PUSH20 0xFFFFFFFFFFFFFFFFFFFFFFFFFFFFFFFFFFFFFFFF AND DUP2 PUSH20 0xFFFFFFFFFFFFFFFFFFFFFFFFFFFFFFFFFFFFFFFF AND SUB PUSH2 0x173C JUMPI PUSH0 PUSH1 0x40 MLOAD PUSH32 0x1E4FBDF700000000000000000000000000000000000000000000000000000000 DUP2 MSTORE PUSH1 0x4 ADD PUSH2 0x1733 SWAP2 SWAP1 PUSH2 0x1BFB JUMP JUMPDEST PUSH1 0x40 MLOAD DUP1 SWAP2 SUB SWAP1 REVERT JUMPDEST PUSH2 0x1745 DUP2 PUSH2 0x18B5 JUMP JUMPDEST POP JUMP JUMPDEST PUSH0 DUP1 PUSH0 PUSH1 0x8 SLOAD SWAP3 POP DUP3 PUSH1 0xB PUSH0 PUSH1 0x8 SLOAD DUP2 MSTORE PUSH1 0x20 ADD SWAP1 DUP2 MSTORE PUSH1 0x20 ADD PUSH0 KECCAK256 PUSH0 ADD SLOAD SWAP3 POP DUP3 PUSH1 0xB PUSH0 PUSH1 0x8 SLOAD DUP2 MSTORE PUSH1 0x20 ADD SWAP1 DUP2 MSTORE PUSH1 0x20 ADD PUSH0 KECCAK256 PUSH1 0x1 ADD SLOAD SWAP3 POP SWAP3 POP SWAP3 POP SWAP1 SWAP2 SWAP3 JUMP JUMPDEST PUSH0 DUP1 PUSH0 SWAP1 POP JUMPDEST PUSH1 0xA DUP1 SLOAD SWAP1 POP DUP2 LT ISZERO PUSH2 0x1824 JUMPI DUP3 PUSH20 0xFFFFFFFFFFFFFFFFFFFFFFFFFFFFFFFFFFFFFFFF AND PUSH1 0xA DUP3 DUP2 SLOAD DUP2 LT PUSH2 0x17CA JUMPI PUSH2 0x17C9 PUSH2 0x2847 JUMP JUMPDEST JUMPDEST SWAP1 PUSH0 MSTORE PUSH1 0x20 PUSH0 KECCAK256 ADD PUSH0 SWAP1 SLOAD SWAP1 PUSH2 0x100 EXP SWAP1 DIV PUSH20 0xFFFFFFFFFFFFFFFFFFFFFFFFFFFFFFFFFFFFFFFF AND PUSH20 0xFFFFFFFFFFFFFFFFFFFFFFFFFFFFFFFFFFFFFFFF AND SUB PUSH2 0x1817 JUMPI PUSH1 0x1 SWAP2 POP POP PUSH2 0x1829 JUMP JUMPDEST DUP1 DUP1 PUSH1 0x1 ADD SWAP2 POP POP PUSH2 0x1792 JUMP JUMPDEST POP PUSH0 SWAP1 POP JUMPDEST SWAP2 SWAP1 POP JUMP JUMPDEST PUSH2 0x1836 PUSH2 0x1976 JUMP JUMPDEST PUSH20 0xFFFFFFFFFFFFFFFFFFFFFFFFFFFFFFFFFFFFFFFF AND PUSH2 0x1854 PUSH2 0x15F4 JUMP JUMPDEST PUSH20 0xFFFFFFFFFFFFFFFFFFFFFFFFFFFFFFFFFFFFFFFF AND EQ PUSH2 0x18B3 JUMPI PUSH2 0x1877 PUSH2 0x1976 JUMP JUMPDEST PUSH1 0x40 MLOAD PUSH32 0x118CDAA700000000000000000000000000000000000000000000000000000000 DUP2 MSTORE PUSH1 0x4 ADD PUSH2 0x18AA SWAP2 SWAP1 PUSH2 0x1BFB JUMP JUMPDEST PUSH1 0x40 MLOAD DUP1 SWAP2 SUB SWAP1 REVERT JUMPDEST JUMP JUMPDEST PUSH0 DUP1 PUSH0 SWAP1 SLOAD SWAP1 PUSH2 0x100 EXP SWAP1 DIV PUSH20 0xFFFFFFFFFFFFFFFFFFFFFFFFFFFFFFFFFFFFFFFF AND SWAP1 POP DUP2 PUSH0 DUP1 PUSH2 0x100 EXP DUP2 SLOAD DUP2 PUSH20 0xFFFFFFFFFFFFFFFFFFFFFFFFFFFFFFFFFFFFFFFF MUL NOT AND SWAP1 DUP4 PUSH20 0xFFFFFFFFFFFFFFFFFFFFFFFFFFFFFFFFFFFFFFFF AND MUL OR SWAP1 SSTORE POP DUP2 PUSH20 0xFFFFFFFFFFFFFFFFFFFFFFFFFFFFFFFFFFFFFFFF AND DUP2 PUSH20 0xFFFFFFFFFFFFFFFFFFFFFFFFFFFFFFFFFFFFFFFF AND PUSH32 0x8BE0079C531659141344CD1FD0A4F28419497F9722A3DAAFE3B4186F6B6457E0 PUSH1 0x40 MLOAD PUSH1 0x40 MLOAD DUP1 SWAP2 SUB SWAP1 LOG3 POP POP JUMP JUMPDEST PUSH0 CALLER SWAP1 POP SWAP1 JUMP JUMPDEST PUSH0 PUSH1 0x40 MLOAD SWAP1 POP SWAP1 JUMP JUMPDEST PUSH0 DUP1 REVERT JUMPDEST PUSH0 DUP1 REVERT JUMPDEST PUSH0 DUP2 SWAP1 POP SWAP2 SWAP1 POP JUMP JUMPDEST PUSH2 0x19A0 DUP2 PUSH2 0x198E JUMP JUMPDEST DUP2 EQ PUSH2 0x19AA JUMPI PUSH0 DUP1 REVERT JUMPDEST POP JUMP JUMPDEST PUSH0 DUP2 CALLDATALOAD SWAP1 POP PUSH2 0x19BB DUP2 PUSH2 0x1997 JUMP JUMPDEST SWAP3 SWAP2 POP POP JUMP JUMPDEST PUSH0 PUSH1 0x20 DUP3 DUP5 SUB SLT ISZERO PUSH2 0x19D6 JUMPI PUSH2 0x19D5 PUSH2 0x1986 JUMP JUMPDEST JUMPDEST PUSH0 PUSH2 0x19E3 DUP5 DUP3 DUP6 ADD PUSH2 0x19AD JUMP JUMPDEST SWAP2 POP POP SWAP3 SWAP2 POP POP JUMP JUMPDEST PUSH0 PUSH20 0xFFFFFFFFFFFFFFFFFFFFFFFFFFFFFFFFFFFFFFFF DUP3 AND SWAP1 POP SWAP2 SWAP1 POP JUMP JUMPDEST PUSH0 DUP2 SWAP1 POP SWAP2 SWAP1 POP JUMP JUMPDEST PUSH0 PUSH2 0x1A2E PUSH2 0x1A29 PUSH2 0x1A24 DUP5 PUSH2 0x19EC JUMP JUMPDEST PUSH2 0x1A0B JUMP JUMPDEST PUSH2 0x19EC JUMP JUMPDEST SWAP1 POP SWAP2 SWAP1 POP JUMP JUMPDEST PUSH0 PUSH2 0x1A3F DUP3 PUSH2 0x1A14 JUMP JUMPDEST SWAP1 POP SWAP2 SWAP1 POP JUMP JUMPDEST PUSH0 PUSH2 0x1A50 DUP3 PUSH2 0x1A35 JUMP JUMPDEST SWAP1 POP SWAP2 SWAP1 POP JUMP JUMPDEST PUSH2 0x1A60 DUP2 PUSH2 0x1A46 JUMP JUMPDEST DUP3 MSTORE POP POP JUMP JUMPDEST PUSH0 PUSH1 0x20 DUP3 ADD SWAP1 POP PUSH2 0x1A79 PUSH0 DUP4 ADD DUP5 PUSH2 0x1A57 JUMP JUMPDEST SWAP3 SWAP2 POP POP JUMP JUMPDEST PUSH0 PUSH2 0x1A89 DUP3 PUSH2 0x19EC JUMP JUMPDEST SWAP1 POP SWAP2 SWAP1 POP JUMP JUMPDEST PUSH0 PUSH2 0x1A9A DUP3 PUSH2 0x1A7F JUMP JUMPDEST SWAP1 POP SWAP2 SWAP1 POP JUMP JUMPDEST PUSH2 0x1AAA DUP2 PUSH2 0x1A90 JUMP JUMPDEST DUP2 EQ PUSH2 0x1AB4 JUMPI PUSH0 DUP1 REVERT JUMPDEST POP JUMP JUMPDEST PUSH0 DUP2 CALLDATALOAD SWAP1 POP PUSH2 0x1AC5 DUP2 PUSH2 0x1AA1 JUMP JUMPDEST SWAP3 SWAP2 POP POP JUMP JUMPDEST PUSH0 DUP1 PUSH1 0x40 DUP4 DUP6 SUB SLT ISZERO PUSH2 0x1AE1 JUMPI PUSH2 0x1AE0 PUSH2 0x1986 JUMP JUMPDEST JUMPDEST PUSH0 PUSH2 0x1AEE DUP6 DUP3 DUP7 ADD PUSH2 0x1AB7 JUMP JUMPDEST SWAP3 POP POP PUSH1 0x20 PUSH2 0x1AFF DUP6 DUP3 DUP7 ADD PUSH2 0x19AD JUMP JUMPDEST SWAP2 POP POP SWAP3 POP SWAP3 SWAP1 POP JUMP JUMPDEST PUSH0 PUSH1 0x20 DUP3 DUP5 SUB SLT ISZERO PUSH2 0x1B1E JUMPI PUSH2 0x1B1D PUSH2 0x1986 JUMP JUMPDEST JUMPDEST PUSH0 PUSH2 0x1B2B DUP5 DUP3 DUP6 ADD PUSH2 0x1AB7 JUMP JUMPDEST SWAP2 POP POP SWAP3 SWAP2 POP POP JUMP JUMPDEST PUSH2 0x1B3D DUP2 PUSH2 0x1A7F JUMP JUMPDEST DUP2 EQ PUSH2 0x1B47 JUMPI PUSH0 DUP1 REVERT JUMPDEST POP JUMP JUMPDEST PUSH0 DUP2 CALLDATALOAD SWAP1 POP PUSH2 0x1B58 DUP2 PUSH2 0x1B34 JUMP JUMPDEST SWAP3 SWAP2 POP POP JUMP JUMPDEST PUSH0 DUP1 PUSH1 0x40 DUP4 DUP6 SUB SLT ISZERO PUSH2 0x1B74 JUMPI PUSH2 0x1B73 PUSH2 0x1986 JUMP JUMPDEST JUMPDEST PUSH0 PUSH2 0x1B81 DUP6 DUP3 DUP7 ADD PUSH2 0x1B4A JUMP JUMPDEST SWAP3 POP POP PUSH1 0x20 PUSH2 0x1B92 DUP6 DUP3 DUP7 ADD PUSH2 0x19AD JUMP JUMPDEST SWAP2 POP POP SWAP3 POP SWAP3 SWAP1 POP JUMP JUMPDEST PUSH0 DUP1 PUSH0 PUSH1 0x60 DUP5 DUP7 SUB SLT ISZERO PUSH2 0x1BB3 JUMPI PUSH2 0x1BB2 PUSH2 0x1986 JUMP JUMPDEST JUMPDEST PUSH0 PUSH2 0x1BC0 DUP7 DUP3 DUP8 ADD PUSH2 0x19AD JUMP JUMPDEST SWAP4 POP POP PUSH1 0x20 PUSH2 0x1BD1 DUP7 DUP3 DUP8 ADD PUSH2 0x19AD JUMP JUMPDEST SWAP3 POP POP PUSH1 0x40 PUSH2 0x1BE2 DUP7 DUP3 DUP8 ADD PUSH2 0x19AD JUMP JUMPDEST SWAP2 POP POP SWAP3 POP SWAP3 POP SWAP3 JUMP JUMPDEST PUSH2 0x1BF5 DUP2 PUSH2 0x1A7F JUMP JUMPDEST DUP3 MSTORE POP POP JUMP JUMPDEST PUSH0 PUSH1 0x20 DUP3 ADD SWAP1 POP PUSH2 0x1C0E PUSH0 DUP4 ADD DUP5 PUSH2 0x1BEC JUMP JUMPDEST SWAP3 SWAP2 POP POP JUMP JUMPDEST PUSH2 0x1C1D DUP2 PUSH2 0x198E JUMP JUMPDEST DUP3 MSTORE POP POP JUMP JUMPDEST PUSH0 PUSH1 0x20 DUP3 ADD SWAP1 POP PUSH2 0x1C36 PUSH0 DUP4 ADD DUP5 PUSH2 0x1C14 JUMP JUMPDEST SWAP3 SWAP2 POP POP JUMP JUMPDEST PUSH0 DUP2 ISZERO ISZERO SWAP1 POP SWAP2 SWAP1 POP JUMP JUMPDEST PUSH2 0x1C50 DUP2 PUSH2 0x1C3C JUMP JUMPDEST DUP2 EQ PUSH2 0x1C5A JUMPI PUSH0 DUP1 REVERT JUMPDEST POP JUMP JUMPDEST PUSH0 DUP2 CALLDATALOAD SWAP1 POP PUSH2 0x1C6B DUP2 PUSH2 0x1C47 JUMP JUMPDEST SWAP3 SWAP2 POP POP JUMP JUMPDEST PUSH0 PUSH1 0x20 DUP3 DUP5 SUB SLT ISZERO PUSH2 0x1C86 JUMPI PUSH2 0x1C85 PUSH2 0x1986 JUMP JUMPDEST JUMPDEST PUSH0 PUSH2 0x1C93 DUP5 DUP3 DUP6 ADD PUSH2 0x1C5D JUMP JUMPDEST SWAP2 POP POP SWAP3 SWAP2 POP POP JUMP JUMPDEST PUSH0 PUSH1 0x80 DUP3 ADD SWAP1 POP PUSH2 0x1CAF PUSH0 DUP4 ADD DUP8 PUSH2 0x1C14 JUMP JUMPDEST PUSH2 0x1CBC PUSH1 0x20 DUP4 ADD DUP7 PUSH2 0x1C14 JUMP JUMPDEST PUSH2 0x1CC9 PUSH1 0x40 DUP4 ADD DUP6 PUSH2 0x1C14 JUMP JUMPDEST PUSH2 0x1CD6 PUSH1 0x60 DUP4 ADD DUP5 PUSH2 0x1C14 JUMP JUMPDEST SWAP6 SWAP5 POP POP POP POP POP JUMP JUMPDEST PUSH0 DUP1 PUSH1 0x40 DUP4 DUP6 SUB SLT ISZERO PUSH2 0x1CF5 JUMPI PUSH2 0x1CF4 PUSH2 0x1986 JUMP JUMPDEST JUMPDEST PUSH0 PUSH2 0x1D02 DUP6 DUP3 DUP7 ADD PUSH2 0x19AD JUMP JUMPDEST SWAP3 POP POP PUSH1 0x20 PUSH2 0x1D13 DUP6 DUP3 DUP7 ADD PUSH2 0x19AD JUMP JUMPDEST SWAP2 POP POP SWAP3 POP SWAP3 SWAP1 POP JUMP JUMPDEST PUSH0 PUSH1 0x20 DUP3 DUP5 SUB SLT ISZERO PUSH2 0x1D32 JUMPI PUSH2 0x1D31 PUSH2 0x1986 JUMP JUMPDEST JUMPDEST PUSH0 PUSH2 0x1D3F DUP5 DUP3 DUP6 ADD PUSH2 0x1B4A JUMP JUMPDEST SWAP2 POP POP SWAP3 SWAP2 POP POP JUMP JUMPDEST PUSH0 PUSH1 0x40 DUP3 ADD SWAP1 POP PUSH2 0x1D5B PUSH0 DUP4 ADD DUP6 PUSH2 0x1C14 JUMP JUMPDEST PUSH2 0x1D68 PUSH1 0x20 DUP4 ADD DUP5 PUSH2 0x1C14 JUMP JUMPDEST SWAP4 SWAP3 POP POP POP JUMP JUMPDEST PUSH2 0x1D78 DUP2 PUSH2 0x1C3C JUMP JUMPDEST DUP3 MSTORE POP POP JUMP JUMPDEST PUSH0 PUSH1 0x20 DUP3 ADD SWAP1 POP PUSH2 0x1D91 PUSH0 DUP4 ADD DUP5 PUSH2 0x1D6F JUMP JUMPDEST SWAP3 SWAP2 POP POP JUMP JUMPDEST PUSH0 PUSH2 0x1DA1 DUP3 PUSH2 0x1A35 JUMP JUMPDEST SWAP1 POP SWAP2 SWAP1 POP JUMP JUMPDEST PUSH2 0x1DB1 DUP2 PUSH2 0x1D97 JUMP JUMPDEST DUP3 MSTORE POP POP JUMP JUMPDEST PUSH0 PUSH1 0x20 DUP3 ADD SWAP1 POP PUSH2 0x1DCA PUSH0 DUP4 ADD DUP5 PUSH2 0x1DA8 JUMP JUMPDEST SWAP3 SWAP2 POP POP JUMP JUMPDEST PUSH0 PUSH1 0x60 DUP3 ADD SWAP1 POP PUSH2 0x1DE3 PUSH0 DUP4 ADD DUP7 PUSH2 0x1C14 JUMP JUMPDEST PUSH2 0x1DF0 PUSH1 0x20 DUP4 ADD DUP6 PUSH2 0x1C14 JUMP JUMPDEST PUSH2 0x1DFD PUSH1 0x40 DUP4 ADD DUP5 PUSH2 0x1C14 JUMP JUMPDEST SWAP5 SWAP4 POP POP POP POP JUMP JUMPDEST PUSH0 DUP3 DUP3 MSTORE PUSH1 0x20 DUP3 ADD SWAP1 POP SWAP3 SWAP2 POP POP JUMP JUMPDEST PUSH32 0x41756374696F6E20697320706175736564000000000000000000000000000000 PUSH0 DUP3 ADD MSTORE POP JUMP JUMPDEST PUSH0 PUSH2 0x1E49 PUSH1 0x11 DUP4 PUSH2 0x1E05 JUMP JUMPDEST SWAP2 POP PUSH2 0x1E54 DUP3 PUSH2 0x1E15 JUMP JUMPDEST PUSH1 0x20 DUP3 ADD SWAP1 POP SWAP2 SWAP1 POP JUMP JUMPDEST PUSH0 PUSH1 0x20 DUP3 ADD SWAP1 POP DUP2 DUP2 SUB PUSH0 DUP4 ADD MSTORE PUSH2 0x1E76 DUP2 PUSH2 0x1E3D JUMP JUMPDEST SWAP1 POP SWAP2 SWAP1 POP JUMP JUMPDEST PUSH32 0x43757272656E7420726F756E642068617320656E646564000000000000000000 PUSH0 DUP3 ADD MSTORE POP JUMP JUMPDEST PUSH0 PUSH2 0x1EB1 PUSH1 0x17 DUP4 PUSH2 0x1E05 JUMP JUMPDEST SWAP2 POP PUSH2 0x1EBC DUP3 PUSH2 0x1E7D JUMP JUMPDEST PUSH1 0x20 DUP3 ADD SWAP1 POP SWAP2 SWAP1 POP JUMP JUMPDEST PUSH0 PUSH1 0x20 DUP3 ADD SWAP1 POP DUP2 DUP2 SUB PUSH0 DUP4 ADD MSTORE PUSH2 0x1EDE DUP2 PUSH2 0x1EA5 JUMP JUMPDEST SWAP1 POP SWAP2 SWAP1 POP JUMP JUMPDEST PUSH32 0x41756374696F6E20646179732061726520636F6D706C65746500000000000000 PUSH0 DUP3 ADD MSTORE POP JUMP JUMPDEST PUSH0 PUSH2 0x1F19 PUSH1 0x19 DUP4 PUSH2 0x1E05 JUMP JUMPDEST SWAP2 POP PUSH2 0x1F24 DUP3 PUSH2 0x1EE5 JUMP JUMPDEST PUSH1 0x20 DUP3 ADD SWAP1 POP SWAP2 SWAP1 POP JUMP JUMPDEST PUSH0 PUSH1 0x20 DUP3 ADD SWAP1 POP DUP2 DUP2 SUB PUSH0 DUP4 ADD MSTORE PUSH2 0x1F46 DUP2 PUSH2 0x1F0D JUMP JUMPDEST SWAP1 POP SWAP2 SWAP1 POP JUMP JUMPDEST PUSH32 0x41756374696F6E20726F756E642068617320656E646564000000000000000000 PUSH0 DUP3 ADD MSTORE POP JUMP JUMPDEST PUSH0 PUSH2 0x1F81 PUSH1 0x17 DUP4 PUSH2 0x1E05 JUMP JUMPDEST SWAP2 POP PUSH2 0x1F8C DUP3 PUSH2 0x1F4D JUMP JUMPDEST PUSH1 0x20 DUP3 ADD SWAP1 POP SWAP2 SWAP1 POP JUMP JUMPDEST PUSH0 PUSH1 0x20 DUP3 ADD SWAP1 POP DUP2 DUP2 SUB PUSH0 DUP4 ADD MSTORE PUSH2 0x1FAE DUP2 PUSH2 0x1F75 JUMP JUMPDEST SWAP1 POP SWAP2 SWAP1 POP JUMP JUMPDEST PUSH0 DUP2 MLOAD SWAP1 POP PUSH2 0x1FC3 DUP2 PUSH2 0x1997 JUMP JUMPDEST SWAP3 SWAP2 POP POP JUMP JUMPDEST PUSH0 PUSH1 0x20 DUP3 DUP5 SUB SLT ISZERO PUSH2 0x1FDE JUMPI PUSH2 0x1FDD PUSH2 0x1986 JUMP JUMPDEST JUMPDEST PUSH0 PUSH2 0x1FEB DUP5 DUP3 DUP6 ADD PUSH2 0x1FB5 JUMP JUMPDEST SWAP2 POP POP SWAP3 SWAP2 POP POP JUMP JUMPDEST PUSH32 0x41756374696F6E20506175736564000000000000000000000000000000000000 PUSH0 DUP3 ADD MSTORE POP JUMP JUMPDEST PUSH0 PUSH2 0x2028 PUSH1 0xE DUP4 PUSH2 0x1E05 JUMP JUMPDEST SWAP2 POP PUSH2 0x2033 DUP3 PUSH2 0x1FF4 JUMP JUMPDEST PUSH1 0x20 DUP3 ADD SWAP1 POP SWAP2 SWAP1 POP JUMP JUMPDEST PUSH0 PUSH1 0x20 DUP3 ADD SWAP1 POP DUP2 DUP2 SUB PUSH0 DUP4 ADD MSTORE PUSH2 0x2055 DUP2 PUSH2 0x201C JUMP JUMPDEST SWAP1 POP SWAP2 SWAP1 POP JUMP JUMPDEST PUSH32 0x4E6F74206D6F7265207468616E206C696D697400000000000000000000000000 PUSH0 DUP3 ADD MSTORE POP JUMP JUMPDEST PUSH0 PUSH2 0x2090 PUSH1 0x13 DUP4 PUSH2 0x1E05 JUMP JUMPDEST SWAP2 POP PUSH2 0x209B DUP3 PUSH2 0x205C JUMP JUMPDEST PUSH1 0x20 DUP3 ADD SWAP1 POP SWAP2 SWAP1 POP JUMP JUMPDEST PUSH0 PUSH1 0x20 DUP3 ADD SWAP1 POP DUP2 DUP2 SUB PUSH0 DUP4 ADD MSTORE PUSH2 0x20BD DUP2 PUSH2 0x2084 JUMP JUMPDEST SWAP1 POP SWAP2 SWAP1 POP JUMP JUMPDEST PUSH32 0x496E76616C696420746F6B656E20616464726573730000000000000000000000 PUSH0 DUP3 ADD MSTORE POP JUMP JUMPDEST PUSH0 PUSH2 0x20F8 PUSH1 0x15 DUP4 PUSH2 0x1E05 JUMP JUMPDEST SWAP2 POP PUSH2 0x2103 DUP3 PUSH2 0x20C4 JUMP JUMPDEST PUSH1 0x20 DUP3 ADD SWAP1 POP SWAP2 SWAP1 POP JUMP JUMPDEST PUSH0 PUSH1 0x20 DUP3 ADD SWAP1 POP DUP2 DUP2 SUB PUSH0 DUP4 ADD MSTORE PUSH2 0x2125 DUP2 PUSH2 0x20EC JUMP JUMPDEST SWAP1 POP SWAP2 SWAP1 POP JUMP JUMPDEST PUSH32 0x4E487B7100000000000000000000000000000000000000000000000000000000 PUSH0 MSTORE PUSH1 0x11 PUSH1 0x4 MSTORE PUSH1 0x24 PUSH0 REVERT JUMPDEST PUSH0 PUSH2 0x2163 DUP3 PUSH2 0x198E JUMP JUMPDEST SWAP2 POP PUSH2 0x216E DUP4 PUSH2 0x198E JUMP JUMPDEST SWAP3 POP DUP3 DUP3 MUL PUSH2 0x217C DUP2 PUSH2 0x198E JUMP JUMPDEST SWAP2 POP DUP3 DUP3 DIV DUP5 EQ DUP4 ISZERO OR PUSH2 0x2193 JUMPI PUSH2 0x2192 PUSH2 0x212C JUMP JUMPDEST JUMPDEST POP SWAP3 SWAP2 POP POP JUMP JUMPDEST PUSH32 0x4E487B7100000000000000000000000000000000000000000000000000000000 PUSH0 MSTORE PUSH1 0x12 PUSH1 0x4 MSTORE PUSH1 0x24 PUSH0 REVERT JUMPDEST PUSH0 PUSH2 0x21D1 DUP3 PUSH2 0x198E JUMP JUMPDEST SWAP2 POP PUSH2 0x21DC DUP4 PUSH2 0x198E JUMP JUMPDEST SWAP3 POP DUP3 PUSH2 0x21EC JUMPI PUSH2 0x21EB PUSH2 0x219A JUMP JUMPDEST JUMPDEST DUP3 DUP3 DIV SWAP1 POP SWAP3 SWAP2 POP POP JUMP JUMPDEST PUSH0 PUSH1 0x60 DUP3 ADD SWAP1 POP PUSH2 0x220A PUSH0 DUP4 ADD DUP7 PUSH2 0x1BEC JUMP JUMPDEST PUSH2 0x2217 PUSH1 0x20 DUP4 ADD DUP6 PUSH2 0x1BEC JUMP JUMPDEST PUSH2 0x2224 PUSH1 0x40 DUP4 ADD DUP5 PUSH2 0x1C14 JUMP JUMPDEST SWAP5 SWAP4 POP POP POP POP JUMP JUMPDEST PUSH0 DUP2 MLOAD SWAP1 POP PUSH2 0x223A DUP2 PUSH2 0x1C47 JUMP JUMPDEST SWAP3 SWAP2 POP POP JUMP JUMPDEST PUSH0 PUSH1 0x20 DUP3 DUP5 SUB SLT ISZERO PUSH2 0x2255 JUMPI PUSH2 0x2254 PUSH2 0x1986 JUMP JUMPDEST JUMPDEST PUSH0 PUSH2 0x2262 DUP5 DUP3 DUP6 ADD PUSH2 0x222C JUMP JUMPDEST SWAP2 POP POP SWAP3 SWAP2 POP POP JUMP JUMPDEST PUSH32 0x55534454207472616E73666572206661696C6564000000000000000000000000 PUSH0 DUP3 ADD MSTORE POP JUMP JUMPDEST PUSH0 PUSH2 0x229F PUSH1 0x14 DUP4 PUSH2 0x1E05 JUMP JUMPDEST SWAP2 POP PUSH2 0x22AA DUP3 PUSH2 0x226B JUMP JUMPDEST PUSH1 0x20 DUP3 ADD SWAP1 POP SWAP2 SWAP1 POP JUMP JUMPDEST PUSH0 PUSH1 0x20 DUP3 ADD SWAP1 POP DUP2 DUP2 SUB PUSH0 DUP4 ADD MSTORE PUSH2 0x22CC DUP2 PUSH2 0x2293 JUMP JUMPDEST SWAP1 POP SWAP2 SWAP1 POP JUMP JUMPDEST PUSH0 PUSH2 0x22DD DUP3 PUSH2 0x198E JUMP JUMPDEST SWAP2 POP PUSH2 0x22E8 DUP4 PUSH2 0x198E JUMP JUMPDEST SWAP3 POP DUP3 DUP3 ADD SWAP1 POP DUP1 DUP3 GT ISZERO PUSH2 0x2300 JUMPI PUSH2 0x22FF PUSH2 0x212C JUMP JUMPDEST JUMPDEST SWAP3 SWAP2 POP POP JUMP JUMPDEST PUSH0 PUSH2 0x2310 DUP3 PUSH2 0x198E JUMP JUMPDEST SWAP2 POP PUSH2 0x231B DUP4 PUSH2 0x198E JUMP JUMPDEST SWAP3 POP DUP3 DUP3 SUB SWAP1 POP DUP2 DUP2 GT ISZERO PUSH2 0x2333 JUMPI PUSH2 0x2332 PUSH2 0x212C JUMP JUMPDEST JUMPDEST SWAP3 SWAP2 POP POP JUMP JUMPDEST PUSH0 DUP1 REVERT JUMPDEST PUSH0 DUP1 REVERT JUMPDEST PUSH0 PUSH1 0x1F NOT PUSH1 0x1F DUP4 ADD AND SWAP1 POP SWAP2 SWAP1 POP JUMP JUMPDEST PUSH32 0x4E487B7100000000000000000000000000000000000000000000000000000000 PUSH0 MSTORE PUSH1 0x41 PUSH1 0x4 MSTORE PUSH1 0x24 PUSH0 REVERT JUMPDEST PUSH2 0x2387 DUP3 PUSH2 0x2341 JUMP JUMPDEST DUP2 ADD DUP2 DUP2 LT PUSH8 0xFFFFFFFFFFFFFFFF DUP3 GT OR ISZERO PUSH2 0x23A6 JUMPI PUSH2 0x23A5 PUSH2 0x2351 JUMP JUMPDEST JUMPDEST DUP1 PUSH1 0x40 MSTORE POP POP POP JUMP JUMPDEST PUSH0 PUSH2 0x23B8 PUSH2 0x197D JUMP JUMPDEST SWAP1 POP PUSH2 0x23C4 DUP3 DUP3 PUSH2 0x237E JUMP JUMPDEST SWAP2 SWAP1 POP JUMP JUMPDEST PUSH0 PUSH8 0xFFFFFFFFFFFFFFFF DUP3 GT ISZERO PUSH2 0x23E3 JUMPI PUSH2 0x23E2 PUSH2 0x2351 JUMP JUMPDEST JUMPDEST PUSH2 0x23EC DUP3 PUSH2 0x2341 JUMP JUMPDEST SWAP1 POP PUSH1 0x20 DUP2 ADD SWAP1 POP SWAP2 SWAP1 POP JUMP JUMPDEST DUP3 DUP2 DUP4 MCOPY PUSH0 DUP4 DUP4 ADD MSTORE POP POP POP JUMP JUMPDEST PUSH0 PUSH2 0x2419 PUSH2 0x2414 DUP5 PUSH2 0x23C9 JUMP JUMPDEST PUSH2 0x23AF JUMP JUMPDEST SWAP1 POP DUP3 DUP2 MSTORE PUSH1 0x20 DUP2 ADD DUP5 DUP5 DUP5 ADD GT ISZERO PUSH2 0x2435 JUMPI PUSH2 0x2434 PUSH2 0x233D JUMP JUMPDEST JUMPDEST PUSH2 0x2440 DUP5 DUP3 DUP6 PUSH2 0x23F9 JUMP JUMPDEST POP SWAP4 SWAP3 POP POP POP JUMP JUMPDEST PUSH0 DUP3 PUSH1 0x1F DUP4 ADD SLT PUSH2 0x245C JUMPI PUSH2 0x245B PUSH2 0x2339 JUMP JUMPDEST JUMPDEST DUP2 MLOAD PUSH2 0x246C DUP5 DUP3 PUSH1 0x20 DUP7 ADD PUSH2 0x2407 JUMP JUMPDEST SWAP2 POP POP SWAP3 SWAP2 POP POP JUMP JUMPDEST PUSH0 PUSH1 0x20 DUP3 DUP5 SUB SLT ISZERO PUSH2 0x248A JUMPI PUSH2 0x2489 PUSH2 0x1986 JUMP JUMPDEST JUMPDEST PUSH0 DUP3 ADD MLOAD PUSH8 0xFFFFFFFFFFFFFFFF DUP2 GT ISZERO PUSH2 0x24A7 JUMPI PUSH2 0x24A6 PUSH2 0x198A JUMP JUMPDEST JUMPDEST PUSH2 0x24B3 DUP5 DUP3 DUP6 ADD PUSH2 0x2448 JUMP JUMPDEST SWAP2 POP POP SWAP3 SWAP2 POP POP JUMP JUMPDEST PUSH0 PUSH1 0x60 DUP3 ADD SWAP1 POP PUSH2 0x24CF PUSH0 DUP4 ADD DUP7 PUSH2 0x1BEC JUMP JUMPDEST PUSH2 0x24DC PUSH1 0x20 DUP4 ADD DUP6 PUSH2 0x1C14 JUMP JUMPDEST PUSH2 0x24E9 PUSH1 0x40 DUP4 ADD DUP5 PUSH2 0x1C14 JUMP JUMPDEST SWAP5 SWAP4 POP POP POP POP JUMP JUMPDEST PUSH0 PUSH1 0x40 DUP3 ADD SWAP1 POP PUSH2 0x2504 PUSH0 DUP4 ADD DUP6 PUSH2 0x1BEC JUMP JUMPDEST PUSH2 0x2511 PUSH1 0x20 DUP4 ADD DUP5 PUSH2 0x1C14 JUMP JUMPDEST SWAP4 SWAP3 POP POP POP JUMP JUMPDEST PUSH32 0x50726F746F6E20746F6B656E207472616E73666572206661696C656400000000 PUSH0 DUP3 ADD MSTORE POP JUMP JUMPDEST PUSH0 PUSH2 0x254C PUSH1 0x1C DUP4 PUSH2 0x1E05 JUMP JUMPDEST SWAP2 POP PUSH2 0x2557 DUP3 PUSH2 0x2518 JUMP JUMPDEST PUSH1 0x20 DUP3 ADD SWAP1 POP SWAP2 SWAP1 POP JUMP JUMPDEST PUSH0 PUSH1 0x20 DUP3 ADD SWAP1 POP DUP2 DUP2 SUB PUSH0 DUP4 ADD MSTORE PUSH2 0x2579 DUP2 PUSH2 0x2540 JUMP JUMPDEST SWAP1 POP SWAP2 SWAP1 POP JUMP JUMPDEST PUSH32 0x41756374696F6E206973207374696C6C20616374697665000000000000000000 PUSH0 DUP3 ADD MSTORE POP JUMP JUMPDEST PUSH0 PUSH2 0x25B4 PUSH1 0x17 DUP4 PUSH2 0x1E05 JUMP JUMPDEST SWAP2 POP PUSH2 0x25BF DUP3 PUSH2 0x2580 JUMP JUMPDEST PUSH1 0x20 DUP3 ADD SWAP1 POP SWAP2 SWAP1 POP JUMP JUMPDEST PUSH0 PUSH1 0x20 DUP3 ADD SWAP1 POP DUP2 DUP2 SUB PUSH0 DUP4 ADD MSTORE PUSH2 0x25E1 DUP2 PUSH2 0x25A8 JUMP JUMPDEST SWAP1 POP SWAP2 SWAP1 POP JUMP JUMPDEST PUSH32 0x41756374696F6E206461797320617265206E6F7420636F6D706C657465000000 PUSH0 DUP3 ADD MSTORE POP JUMP JUMPDEST PUSH0 PUSH2 0x261C PUSH1 0x1D DUP4 PUSH2 0x1E05 JUMP JUMPDEST SWAP2 POP PUSH2 0x2627 DUP3 PUSH2 0x25E8 JUMP JUMPDEST PUSH1 0x20 DUP3 ADD SWAP1 POP SWAP2 SWAP1 POP JUMP JUMPDEST PUSH0 PUSH1 0x20 DUP3 ADD SWAP1 POP DUP2 DUP2 SUB PUSH0 DUP4 ADD MSTORE PUSH2 0x2649 DUP2 PUSH2 0x2610 JUMP JUMPDEST SWAP1 POP SWAP2 SWAP1 POP JUMP JUMPDEST PUSH32 0x496E636F72726563742076616C75650000000000000000000000000000000000 PUSH0 DUP3 ADD MSTORE POP JUMP JUMPDEST PUSH0 PUSH2 0x2684 PUSH1 0xF DUP4 PUSH2 0x1E05 JUMP JUMPDEST SWAP2 POP PUSH2 0x268F DUP3 PUSH2 0x2650 JUMP JUMPDEST PUSH1 0x20 DUP3 ADD SWAP1 POP SWAP2 SWAP1 POP JUMP JUMPDEST PUSH0 PUSH1 0x20 DUP3 ADD SWAP1 POP DUP2 DUP2 SUB PUSH0 DUP4 ADD MSTORE PUSH2 0x26B1 DUP2 PUSH2 0x2678 JUMP JUMPDEST SWAP1 POP SWAP2 SWAP1 POP JUMP JUMPDEST PUSH0 PUSH1 0x80 DUP3 ADD SWAP1 POP PUSH2 0x26CB PUSH0 DUP4 ADD DUP8 PUSH2 0x1BEC JUMP JUMPDEST PUSH2 0x26D8 PUSH1 0x20 DUP4 ADD DUP7 PUSH2 0x1C14 JUMP JUMPDEST PUSH2 0x26E5 PUSH1 0x40 DUP4 ADD DUP6 PUSH2 0x1C14 JUMP JUMPDEST PUSH2 0x26F2 PUSH1 0x60 DUP4 ADD DUP5 PUSH2 0x1C14 JUMP JUMPDEST SWAP6 SWAP5 POP POP POP POP POP JUMP JUMPDEST PUSH32 0x4552524F523A204441592076616C756500000000000000000000000000000000 PUSH0 DUP3 ADD MSTORE POP JUMP JUMPDEST PUSH0 PUSH2 0x272F PUSH1 0x10 DUP4 PUSH2 0x1E05 JUMP JUMPDEST SWAP2 POP PUSH2 0x273A DUP3 PUSH2 0x26FB JUMP JUMPDEST PUSH1 0x20 DUP3 ADD SWAP1 POP SWAP2 SWAP1 POP JUMP JUMPDEST PUSH0 PUSH1 0x20 DUP3 ADD SWAP1 POP DUP2 DUP2 SUB PUSH0 DUP4 ADD MSTORE PUSH2 0x275C DUP2 PUSH2 0x2723 JUMP JUMPDEST SWAP1 POP SWAP2 SWAP1 POP JUMP JUMPDEST PUSH0 PUSH1 0x60 DUP3 ADD SWAP1 POP PUSH2 0x2776 PUSH0 DUP4 ADD DUP7 PUSH2 0x1BEC JUMP JUMPDEST PUSH2 0x2783 PUSH1 0x20 DUP4 ADD DUP6 PUSH2 0x1D6F JUMP JUMPDEST PUSH2 0x2790 PUSH1 0x40 DUP4 ADD DUP5 PUSH2 0x1C14 JUMP JUMPDEST SWAP5 SWAP4 POP POP POP POP JUMP JUMPDEST PUSH32 0x41756374696F6E20616C72656164792073746172746564000000000000000000 PUSH0 DUP3 ADD MSTORE POP JUMP JUMPDEST PUSH0 PUSH2 0x27CC PUSH1 0x17 DUP4 PUSH2 0x1E05 JUMP JUMPDEST SWAP2 POP PUSH2 0x27D7 DUP3 PUSH2 0x2798 JUMP JUMPDEST PUSH1 0x20 DUP3 ADD SWAP1 POP SWAP2 SWAP1 POP JUMP JUMPDEST PUSH0 PUSH1 0x20 DUP3 ADD SWAP1 POP DUP2 DUP2 SUB PUSH0 DUP4 ADD MSTORE PUSH2 0x27F9 DUP2 PUSH2 0x27C0 JUMP JUMPDEST SWAP1 POP SWAP2 SWAP1 POP JUMP JUMPDEST PUSH0 PUSH2 0x280A DUP3 PUSH2 0x198E JUMP JUMPDEST SWAP2 POP PUSH32 0xFFFFFFFFFFFFFFFFFFFFFFFFFFFFFFFFFFFFFFFFFFFFFFFFFFFFFFFFFFFFFFFF DUP3 SUB PUSH2 0x283C JUMPI PUSH2 0x283B PUSH2 0x212C JUMP JUMPDEST JUMPDEST PUSH1 0x1 DUP3 ADD SWAP1 POP SWAP2 SWAP1 POP JUMP JUMPDEST PUSH32 0x4E487B7100000000000000000000000000000000000000000000000000000000 PUSH0 MSTORE PUSH1 0x32 PUSH1 0x4 MSTORE PUSH1 0x24 PUSH0 REVERT INVALID LOG2 PUSH5 0x6970667358 0x22 SLT KECCAK256 DUP14 PUSH14 0xD0B922AACCBA5CF6A40160D2FCBB SWAP6 OR PUSH30 0x482634B5B983C761153267FE0564736F6C63430008190033000000000000 "
				},
				"gasEstimates": {
					"creation": {
						"codeDepositCost": "2082000",
						"executionCost": "infinite",
						"totalCost": "infinite"
					},
					"external": {
						"AuctionTime()": "infinite",
						"PROTON()": "infinite",
						"USDT()": "infinite",
						"auctionStatus(bool)": "infinite",
						"buyTokens(address,uint256)": "infinite",
						"calculateTokenAmount(uint256)": "infinite",
						"claimReward(address,uint256)": "infinite",
						"currentRound()": "2515",
						"dailyAuctions(uint256)": "infinite",
						"fundsWallet()": "2649",
						"getCurrentDay()": "infinite",
						"getDailyAuction(uint256,uint256)": "infinite",
						"isPaused()": "2511",
						"lockingDay()": "2514",
						"maxOversubscription()": "2492",
						"maxOversubscriptionlimit()": "2537",
						"owner()": "2582",
						"renounceOwnership()": "infinite",
						"rounds(uint256)": "infinite",
						"setDailyDetails(uint256,uint256,uint256)": "infinite",
						"setFundsWallet(address)": "infinite",
						"setPrice(uint256)": "infinite",
						"setToken(address)": "infinite",
						"startAuction()": "infinite",
						"token(uint256)": "infinite",
						"tokenPrice()": "2493",
						"totalSell()": "2491",
						"transferOwnership(address)": "infinite",
						"userDetail(address)": "infinite"
					},
					"internal": {
						"isTokenValid(contract IERC20)": "infinite",
						"remainingToken()": "infinite"
					}
				},
				"methodIdentifiers": {
					"AuctionTime()": "fa6770b3",
					"PROTON()": "d358aa20",
					"USDT()": "c54e44eb",
					"auctionStatus(bool)": "30db6f95",
					"buyTokens(address,uint256)": "0752881a",
					"calculateTokenAmount(uint256)": "a24bcf46",
					"claimReward(address,uint256)": "174e31c4",
					"currentRound()": "8a19c8bc",
					"dailyAuctions(uint256)": "3c830a38",
					"fundsWallet()": "2194f3a2",
					"getCurrentDay()": "3e6968b6",
					"getDailyAuction(uint256,uint256)": "48a5c188",
					"isPaused()": "b187bd26",
					"lockingDay()": "bf4dd131",
					"maxOversubscription()": "bb4d5e7c",
					"maxOversubscriptionlimit()": "224a8057",
					"owner()": "8da5cb5b",
					"renounceOwnership()": "715018a6",
					"rounds(uint256)": "8c65c81f",
					"setDailyDetails(uint256,uint256,uint256)": "18d7fa46",
					"setFundsWallet(address)": "64e39b87",
					"setPrice(uint256)": "91b7f5ed",
					"setToken(address)": "144fa6d7",
					"startAuction()": "6b64c769",
					"token(uint256)": "044215c6",
					"tokenPrice()": "7ff9b596",
					"totalSell()": "e0202f87",
					"transferOwnership(address)": "f2fde38b",
					"userDetail(address)": "5b10493f"
				}
			},
			"storageLayout": {
				"storage": [
					{
						"astId": 33,
						"contract": "Auction/auction1404.sol:ProtonAuction",
						"label": "_owner",
						"offset": 0,
						"slot": "0",
						"type": "t_address"
					},
					{
						"astId": 990,
						"contract": "Auction/auction1404.sol:ProtonAuction",
						"label": "USDT",
						"offset": 0,
						"slot": "1",
						"type": "t_contract(IERC20)378"
					},
					{
						"astId": 993,
						"contract": "Auction/auction1404.sol:ProtonAuction",
						"label": "PROTON",
						"offset": 0,
						"slot": "2",
						"type": "t_contract(IProton)985"
					},
					{
						"astId": 1000,
						"contract": "Auction/auction1404.sol:ProtonAuction",
						"label": "tokenPrice",
						"offset": 0,
						"slot": "3",
						"type": "t_uint256"
					},
					{
						"astId": 1007,
						"contract": "Auction/auction1404.sol:ProtonAuction",
						"label": "maxOversubscription",
						"offset": 0,
						"slot": "4",
						"type": "t_uint256"
					},
					{
						"astId": 1014,
						"contract": "Auction/auction1404.sol:ProtonAuction",
						"label": "maxOversubscriptionlimit",
						"offset": 0,
						"slot": "5",
						"type": "t_uint256"
					},
					{
						"astId": 1016,
						"contract": "Auction/auction1404.sol:ProtonAuction",
						"label": "totalSell",
						"offset": 0,
						"slot": "6",
						"type": "t_uint256"
					},
					{
						"astId": 1019,
						"contract": "Auction/auction1404.sol:ProtonAuction",
						"label": "lockingDay",
						"offset": 0,
						"slot": "7",
						"type": "t_uint256"
					},
					{
						"astId": 1021,
						"contract": "Auction/auction1404.sol:ProtonAuction",
						"label": "currentRound",
						"offset": 0,
						"slot": "8",
						"type": "t_uint256"
					},
					{
						"astId": 1024,
						"contract": "Auction/auction1404.sol:ProtonAuction",
						"label": "isPaused",
						"offset": 0,
						"slot": "9",
						"type": "t_bool"
					},
					{
						"astId": 1026,
						"contract": "Auction/auction1404.sol:ProtonAuction",
						"label": "fundsWallet",
						"offset": 1,
						"slot": "9",
						"type": "t_address"
					},
					{
						"astId": 1030,
						"contract": "Auction/auction1404.sol:ProtonAuction",
						"label": "token",
						"offset": 0,
						"slot": "10",
						"type": "t_array(t_contract(IERC20)378)dyn_storage"
					},
					{
						"astId": 1059,
						"contract": "Auction/auction1404.sol:ProtonAuction",
						"label": "rounds",
						"offset": 0,
						"slot": "11",
						"type": "t_mapping(t_uint256,t_struct(Round)1049_storage)"
					},
					{
						"astId": 1064,
						"contract": "Auction/auction1404.sol:ProtonAuction",
						"label": "dailyAuctions",
						"offset": 0,
						"slot": "12",
						"type": "t_mapping(t_uint256,t_struct(Auction)1039_storage)"
					},
					{
						"astId": 1069,
						"contract": "Auction/auction1404.sol:ProtonAuction",
						"label": "userDetail",
						"offset": 0,
						"slot": "13",
						"type": "t_mapping(t_address,t_struct(UserDetails)1054_storage)"
					}
				],
				"types": {
					"t_address": {
						"encoding": "inplace",
						"label": "address",
						"numberOfBytes": "20"
					},
					"t_array(t_contract(IERC20)378)dyn_storage": {
						"base": "t_contract(IERC20)378",
						"encoding": "dynamic_array",
						"label": "contract IERC20[]",
						"numberOfBytes": "32"
					},
					"t_bool": {
						"encoding": "inplace",
						"label": "bool",
						"numberOfBytes": "1"
					},
					"t_contract(IERC20)378": {
						"encoding": "inplace",
						"label": "contract IERC20",
						"numberOfBytes": "20"
					},
					"t_contract(IProton)985": {
						"encoding": "inplace",
						"label": "contract IProton",
						"numberOfBytes": "20"
					},
					"t_mapping(t_address,t_struct(UserDetails)1054_storage)": {
						"encoding": "mapping",
						"key": "t_address",
						"label": "mapping(address => struct ProtonAuction.UserDetails)",
						"numberOfBytes": "32",
						"value": "t_struct(UserDetails)1054_storage"
					},
					"t_mapping(t_uint256,t_struct(Auction)1039_storage)": {
						"encoding": "mapping",
						"key": "t_uint256",
						"label": "mapping(uint256 => struct ProtonAuction.Auction)",
						"numberOfBytes": "32",
						"value": "t_struct(Auction)1039_storage"
					},
					"t_mapping(t_uint256,t_struct(Round)1049_storage)": {
						"encoding": "mapping",
						"key": "t_uint256",
						"label": "mapping(uint256 => struct ProtonAuction.Round)",
						"numberOfBytes": "32",
						"value": "t_struct(Round)1049_storage"
					},
					"t_struct(Auction)1039_storage": {
						"encoding": "inplace",
						"label": "struct ProtonAuction.Auction",
						"members": [
							{
								"astId": 1032,
								"contract": "Auction/auction1404.sol:ProtonAuction",
								"label": "tokensDaily",
								"offset": 0,
								"slot": "0",
								"type": "t_uint256"
							},
							{
								"astId": 1034,
								"contract": "Auction/auction1404.sol:ProtonAuction",
								"label": "tokensSold",
								"offset": 0,
								"slot": "1",
								"type": "t_uint256"
							},
							{
								"astId": 1036,
								"contract": "Auction/auction1404.sol:ProtonAuction",
								"label": "oversubscribed",
								"offset": 0,
								"slot": "2",
								"type": "t_uint256"
							},
							{
								"astId": 1038,
								"contract": "Auction/auction1404.sol:ProtonAuction",
								"label": "bonusMultiplier",
								"offset": 0,
								"slot": "3",
								"type": "t_uint256"
							}
						],
						"numberOfBytes": "128"
					},
					"t_struct(Round)1049_storage": {
						"encoding": "inplace",
						"label": "struct ProtonAuction.Round",
						"members": [
							{
								"astId": 1041,
								"contract": "Auction/auction1404.sol:ProtonAuction",
								"label": "roundStart",
								"offset": 0,
								"slot": "0",
								"type": "t_uint256"
							},
							{
								"astId": 1043,
								"contract": "Auction/auction1404.sol:ProtonAuction",
								"label": "roundEnd",
								"offset": 0,
								"slot": "1",
								"type": "t_uint256"
							},
							{
								"astId": 1048,
								"contract": "Auction/auction1404.sol:ProtonAuction",
								"label": "dailyAuctions",
								"offset": 0,
								"slot": "2",
								"type": "t_mapping(t_uint256,t_struct(Auction)1039_storage)"
							}
						],
						"numberOfBytes": "96"
					},
					"t_struct(UserDetails)1054_storage": {
						"encoding": "inplace",
						"label": "struct ProtonAuction.UserDetails",
						"members": [
							{
								"astId": 1051,
								"contract": "Auction/auction1404.sol:ProtonAuction",
								"label": "reward",
								"offset": 0,
								"slot": "0",
								"type": "t_uint256"
							},
							{
								"astId": 1053,
								"contract": "Auction/auction1404.sol:ProtonAuction",
								"label": "buyTotal",
								"offset": 0,
								"slot": "1",
								"type": "t_uint256"
							}
						],
						"numberOfBytes": "64"
					},
					"t_uint256": {
						"encoding": "inplace",
						"label": "uint256",
						"numberOfBytes": "32"
					}
				}
			},
			"userdoc": {
				"kind": "user",
				"methods": {},
				"version": 1
			}
		}
	}
}